{
  "contractName": "Customer",
  "abi": [
    {
      "inputs": [
        {
          "internalType": "string",
          "name": "_customerName",
          "type": "string"
        },
        {
          "internalType": "uint256",
          "name": "_customerAge",
          "type": "uint256"
        },
        {
          "internalType": "string",
          "name": "_doctorName",
          "type": "string"
        },
        {
          "internalType": "uint256",
          "name": "_quantity",
          "type": "uint256"
        },
        {
          "internalType": "uint256",
          "name": "_amountPaid",
          "type": "uint256"
        },
        {
          "internalType": "address",
          "name": "_medicineId",
          "type": "address"
        },
        {
          "internalType": "address",
          "name": "_pharma",
          "type": "address"
        },
        {
          "internalType": "address",
          "name": "_materialId",
          "type": "address"
        }
      ],
      "name": "pushCustomerDetails",
      "outputs": [],
      "stateMutability": "nonpayable",
      "type": "function"
    }
  ],
  "bytecode": "0x608060405234801561001057600080fd5b5061083c806100206000396000f3fe608060405234801561001057600080fd5b5060043610610048576000357c010000000000000000000000000000000000000000000000000000000090048063b50f6b6c1461004d575b600080fd5b61006760048036038101906100629190610563565b610069565b005b6100716103bd565b888160000181905250878160200181815250508681604001819052508581606001818152505084816080018181525050818160c0019073ffffffffffffffffffffffffffffffffffffffff16908173ffffffffffffffffffffffffffffffffffffffff1681525050838160a0019073ffffffffffffffffffffffffffffffffffffffff16908173ffffffffffffffffffffffffffffffffffffffff16815250506000808573ffffffffffffffffffffffffffffffffffffffff1673ffffffffffffffffffffffffffffffffffffffff1681526020019081526020016000208190806001815401808255809150506001900390600052602060002090600702016000909190919091506000820151816000019080519060200190610195929190610426565b506020820151816001015560408201518160020190805190602001906101bc929190610426565b50606082015181600301556080820151816004015560a08201518160050160006101000a81548173ffffffffffffffffffffffffffffffffffffffff021916908373ffffffffffffffffffffffffffffffffffffffff16021790555060c08201518160060160006101000a81548173ffffffffffffffffffffffffffffffffffffffff021916908373ffffffffffffffffffffffffffffffffffffffff1602179055505050600160008473ffffffffffffffffffffffffffffffffffffffff1673ffffffffffffffffffffffffffffffffffffffff16815260200190815260200160002081908060018154018082558091505060019003906000526020600020906007020160009091909190915060008201518160000190805190602001906102e6929190610426565b5060208201518160010155604082015181600201908051906020019061030d929190610426565b50606082015181600301556080820151816004015560a08201518160050160006101000a81548173ffffffffffffffffffffffffffffffffffffffff021916908373ffffffffffffffffffffffffffffffffffffffff16021790555060c08201518160060160006101000a81548173ffffffffffffffffffffffffffffffffffffffff021916908373ffffffffffffffffffffffffffffffffffffffff1602179055505050505050505050505050565b6040518060e001604052806060815260200160008152602001606081526020016000815260200160008152602001600073ffffffffffffffffffffffffffffffffffffffff168152602001600073ffffffffffffffffffffffffffffffffffffffff1681525090565b828054610432906106f2565b90600052602060002090601f016020900481019282610454576000855561049b565b82601f1061046d57805160ff191683800117855561049b565b8280016001018555821561049b579182015b8281111561049a57825182559160200191906001019061047f565b5b5090506104a891906104ac565b5090565b5b808211156104c55760008160009055506001016104ad565b5090565b60006104dc6104d784610676565b610651565b9050828152602081018484840111156104f8576104f76107b8565b5b6105038482856106e3565b509392505050565b60008135905061051a816107d8565b92915050565b600082601f830112610535576105346107b3565b5b81356105458482602086016104c9565b91505092915050565b60008135905061055d816107ef565b92915050565b600080600080600080600080610100898b031215610584576105836107c2565b5b600089013567ffffffffffffffff8111156105a2576105a16107bd565b5b6105ae8b828c01610520565b98505060206105bf8b828c0161054e565b975050604089013567ffffffffffffffff8111156105e0576105df6107bd565b5b6105ec8b828c01610520565b96505060606105fd8b828c0161054e565b955050608061060e8b828c0161054e565b94505060a061061f8b828c0161050b565b93505060c06106308b828c0161050b565b92505060e06106418b828c0161050b565b9150509295985092959890939650565b600061065b61066c565b90506106678282610724565b919050565b6000604051905090565b600067ffffffffffffffff82111561069157610690610784565b5b61069a826107c7565b9050602081019050919050565b60006106b2826106b9565b9050919050565b600073ffffffffffffffffffffffffffffffffffffffff82169050919050565b6000819050919050565b82818337600083830152505050565b6000600282049050600182168061070a57607f821691505b6020821081141561071e5761071d610755565b5b50919050565b61072d826107c7565b810181811067ffffffffffffffff8211171561074c5761074b610784565b5b80604052505050565b7f4e487b7100000000000000000000000000000000000000000000000000000000600052602260045260246000fd5b7f4e487b7100000000000000000000000000000000000000000000000000000000600052604160045260246000fd5b600080fd5b600080fd5b600080fd5b600080fd5b6000601f19601f8301169050919050565b6107e1816106a7565b81146107ec57600080fd5b50565b6107f8816106d9565b811461080357600080fd5b5056fea2646970667358221220e5fa4d152aff6fc854d3cfb398f7a35e9a2450fa7075a29d43573e75b742e68d64736f6c63430008070033",
  "immutableReferences": {},
  "source": "// SPDX-License-Identifier: MIT\r\npragma solidity >=0.4.22 <0.9.0;\r\npragma experimental ABIEncoderV2;\r\n\r\ncontract Customer {\r\n    mapping(address => CustomerInfo[]) CustomerMedicineMap;\r\n    mapping(address => CustomerInfo[]) CustomerPharmaShopMap;\r\n    // CustomerInfo[] public CustomerList;\r\n\r\n    struct CustomerInfo {\r\n        string customerName;\r\n        uint256 customerAge;\r\n        string doctorName;\r\n        uint256 quantity;\r\n        uint256 amountPaid;\r\n        address medicineId;\r\n        address materialId;\r\n    }\r\n\r\n    function pushCustomerDetails(\r\n        string memory _customerName,\r\n        uint256 _customerAge,\r\n        string memory _doctorName,\r\n        uint256 _quantity,\r\n        uint256 _amountPaid,\r\n        address _medicineId,\r\n        address _pharma,\r\n        address _materialId\r\n    ) public {\r\n        CustomerInfo memory newCustomer;\r\n        newCustomer.customerName = _customerName;\r\n        newCustomer.customerAge = _customerAge;\r\n        newCustomer.doctorName = _doctorName;\r\n        newCustomer.quantity = _quantity;\r\n        newCustomer.amountPaid = _amountPaid;\r\n        newCustomer.materialId = _materialId;\r\n        newCustomer.medicineId = _medicineId;\r\n        CustomerMedicineMap[_medicineId].push(newCustomer);\r\n        CustomerPharmaShopMap[_pharma].push(newCustomer);\r\n    }\r\n\r\n    // function getCustomerInfoByMedicineId(address _medicineId)\r\n    //     public\r\n    //     view\r\n    //     returns (CustomerInfo[] memory)\r\n    // {\r\n    //     return CustomerMedicineMap[_medicineId];\r\n    // }\r\n\r\n}\r\n",
  "sourcePath": "C:\\Development\\Blockchain\\Learning-2\\contracts\\Customer.sol",
  "compiler": {
    "name": "solc",
    "version": "0.8.7+commit.e28d00a7.Emscripten.clang"
  },
  "schemaVersion": "3.4.1",
  "updatedAt": "2021-08-14T11:11:12.119Z",
  "devdoc": {
    "kind": "dev",
    "methods": {},
    "version": 1
  },
  "userdoc": {
    "kind": "user",
    "methods": {},
    "version": 1
  }
}