{
  "contractName": "Customer",
  "abi": [
    {
      "inputs": [
        {
          "internalType": "string",
          "name": "_customerName",
          "type": "string"
        },
        {
          "internalType": "uint256",
          "name": "_customerAge",
          "type": "uint256"
        },
        {
          "internalType": "string",
          "name": "_doctorName",
          "type": "string"
        },
        {
          "internalType": "uint256",
          "name": "_quantity",
          "type": "uint256"
        },
        {
          "internalType": "uint256",
          "name": "_amountPaid",
          "type": "uint256"
        },
        {
          "internalType": "address",
          "name": "_medicineId",
          "type": "address"
        },
        {
          "internalType": "address",
          "name": "_pharma",
          "type": "address"
        },
        {
          "internalType": "address",
          "name": "_materialId",
          "type": "address"
        }
      ],
      "name": "pushCustomerDetails",
      "outputs": [],
      "stateMutability": "nonpayable",
      "type": "function"
    }
  ],
  "bytecode": "0x608060405234801561001057600080fd5b5061056e806100206000396000f3fe608060405234801561001057600080fd5b5060043610610047577c01000000000000000000000000000000000000000000000000000000006000350463b50f6b6c811461004c575b600080fd5b61005f61005a366004610402565b610061565b005b6100cd6040518060e001604052806060815260200160008152602001606081526020016000815260200160008152602001600073ffffffffffffffffffffffffffffffffffffffff168152602001600073ffffffffffffffffffffffffffffffffffffffff1681525090565b88815260208082018990526040808301899052606083018890526080830187905273ffffffffffffffffffffffffffffffffffffffff80851660c0850152861660a08401819052600090815280835290812080546001810182559082529082902083518051859460079094029092019261014c928492909101906102b3565b5060208281015160018301556040830151805161016f92600285019201906102b3565b50606082015160038201556080820151600482015560a082015160058201805473ffffffffffffffffffffffffffffffffffffffff1990811673ffffffffffffffffffffffffffffffffffffffff9384161790915560c09093015160069092018054909316918116919091179091558316600090815260016020818152604083208054928301815583529182902083518051859460079094029092019261021b928492909101906102b3565b5060208281015160018301556040830151805161023e92600285019201906102b3565b50606082015160038201556080820151600482015560a082015160058201805473ffffffffffffffffffffffffffffffffffffffff1990811673ffffffffffffffffffffffffffffffffffffffff9384161790915560c090930151600690920180549093169116179055505050505050505050565b8280546102bf906104b5565b90600052602060002090601f0160209004810192826102e15760008555610327565b82601f106102fa57805160ff1916838001178555610327565b82800160010185558215610327579182015b8281111561032757825182559160200191906001019061030c565b50610333929150610337565b5090565b5b808211156103335760008155600101610338565b803573ffffffffffffffffffffffffffffffffffffffff8116811461037057600080fd5b919050565b600082601f83011261038657600080fd5b813567ffffffffffffffff808211156103a1576103a1610509565b604051601f8301601f19908116603f011681019082821181831017156103c9576103c9610509565b816040528381528660208588010111156103e257600080fd5b836020870160208301376000602085830101528094505050505092915050565b600080600080600080600080610100898b03121561041f57600080fd5b883567ffffffffffffffff8082111561043757600080fd5b6104438c838d01610375565b995060208b0135985060408b013591508082111561046057600080fd5b5061046d8b828c01610375565b965050606089013594506080890135935061048a60a08a0161034c565b925061049860c08a0161034c565b91506104a660e08a0161034c565b90509295985092959890939650565b6002810460018216806104c957607f821691505b60208210811415610503577f4e487b7100000000000000000000000000000000000000000000000000000000600052602260045260246000fd5b50919050565b7f4e487b7100000000000000000000000000000000000000000000000000000000600052604160045260246000fdfea2646970667358221220828e2f4cd8df621592c5e1f4a2617134725981aa8e0cb682dbe3ea0c5cf9b92264736f6c63430008060033",
  "immutableReferences": {},
  "source": "// SPDX-License-Identifier: MIT\r\npragma solidity >=0.4.22 <0.9.0;\r\npragma experimental ABIEncoderV2;\r\n\r\ncontract Customer {\r\n    mapping(address => CustomerInfo[]) CustomerMedicineMap;\r\n    mapping(address => CustomerInfo[]) CustomerPharmaShopMap;\r\n    // CustomerInfo[] public CustomerList;\r\n\r\n    struct CustomerInfo {\r\n        string customerName;\r\n        uint256 customerAge;\r\n        string doctorName;\r\n        uint256 quantity;\r\n        uint256 amountPaid;\r\n        address medicineId;\r\n        address materialId;\r\n    }\r\n\r\n    function pushCustomerDetails(\r\n        string memory _customerName,\r\n        uint256 _customerAge,\r\n        string memory _doctorName,\r\n        uint256 _quantity,\r\n        uint256 _amountPaid,\r\n        address _medicineId,\r\n        address _pharma,\r\n        address _materialId\r\n    ) public {\r\n        CustomerInfo memory newCustomer;\r\n        newCustomer.customerName = _customerName;\r\n        newCustomer.customerAge = _customerAge;\r\n        newCustomer.doctorName = _doctorName;\r\n        newCustomer.quantity = _quantity;\r\n        newCustomer.amountPaid = _amountPaid;\r\n        newCustomer.materialId = _materialId;\r\n        newCustomer.medicineId = _medicineId;\r\n        CustomerMedicineMap[_medicineId].push(newCustomer);\r\n        CustomerPharmaShopMap[_pharma].push(newCustomer);\r\n    }\r\n\r\n    // function getCustomerInfoByMedicineId(address _medicineId)\r\n    //     public\r\n    //     view\r\n    //     returns (CustomerInfo[] memory)\r\n    // {\r\n    //     return CustomerMedicineMap[_medicineId];\r\n    // }\r\n\r\n}\r\n",
  "sourcePath": "C:\\Development\\Blockchain\\Learning-2\\contracts\\Customer.sol",
  "compiler": {
    "name": "solc",
    "version": "0.8.6+commit.11564f7e.Emscripten.clang"
  },
  "schemaVersion": "3.4.1",
  "updatedAt": "2021-07-30T15:10:34.419Z",
  "devdoc": {
    "kind": "dev",
    "methods": {},
    "version": 1
  },
  "userdoc": {
    "kind": "user",
    "methods": {},
    "version": 1
  }
}