{
  "contractName": "Distributor",
  "abi": [
    {
      "anonymous": false,
      "inputs": [
        {
          "indexed": false,
          "internalType": "address",
          "name": "MedicineID",
          "type": "address"
        },
        {
          "indexed": true,
          "internalType": "address",
          "name": "SubContractID",
          "type": "address"
        },
        {
          "indexed": false,
          "internalType": "uint256",
          "name": "MedicineStatus",
          "type": "uint256"
        }
      ],
      "name": "MedicineTransferredDPInitiated",
      "type": "event"
    },
    {
      "inputs": [
        {
          "internalType": "uint256",
          "name": "",
          "type": "uint256"
        }
      ],
      "name": "UserList",
      "outputs": [
        {
          "internalType": "address",
          "name": "userAddress",
          "type": "address"
        },
        {
          "internalType": "string",
          "name": "userName",
          "type": "string"
        },
        {
          "internalType": "string",
          "name": "userLocation",
          "type": "string"
        },
        {
          "internalType": "enum User.roles",
          "name": "userRole",
          "type": "uint8"
        },
        {
          "internalType": "string",
          "name": "userStatus",
          "type": "string"
        },
        {
          "internalType": "bool",
          "name": "isDeleted",
          "type": "bool"
        },
        {
          "internalType": "uint256",
          "name": "registrationDate",
          "type": "uint256"
        }
      ],
      "stateMutability": "view",
      "type": "function"
    },
    {
      "inputs": [
        {
          "internalType": "address",
          "name": "_address",
          "type": "address"
        }
      ],
      "name": "deleteUser",
      "outputs": [],
      "stateMutability": "nonpayable",
      "type": "function"
    },
    {
      "inputs": [],
      "name": "owner",
      "outputs": [
        {
          "internalType": "address",
          "name": "",
          "type": "address"
        }
      ],
      "stateMutability": "view",
      "type": "function"
    },
    {
      "inputs": [
        {
          "internalType": "address",
          "name": "_address",
          "type": "address"
        },
        {
          "internalType": "string",
          "name": "_name",
          "type": "string"
        },
        {
          "internalType": "string",
          "name": "_location",
          "type": "string"
        },
        {
          "internalType": "uint256",
          "name": "_role",
          "type": "uint256"
        },
        {
          "internalType": "string",
          "name": "_userStatus",
          "type": "string"
        }
      ],
      "name": "registerAdmin",
      "outputs": [],
      "stateMutability": "nonpayable",
      "type": "function"
    },
    {
      "inputs": [
        {
          "internalType": "address",
          "name": "_address",
          "type": "address"
        },
        {
          "internalType": "string",
          "name": "_name",
          "type": "string"
        },
        {
          "internalType": "string",
          "name": "_location",
          "type": "string"
        },
        {
          "internalType": "uint256",
          "name": "_role",
          "type": "uint256"
        },
        {
          "internalType": "string",
          "name": "_userStatus",
          "type": "string"
        }
      ],
      "name": "registerUser",
      "outputs": [],
      "stateMutability": "nonpayable",
      "type": "function"
    },
    {
      "inputs": [
        {
          "internalType": "address",
          "name": "_address",
          "type": "address"
        },
        {
          "internalType": "string",
          "name": "_location",
          "type": "string"
        },
        {
          "internalType": "string",
          "name": "_userStatus",
          "type": "string"
        }
      ],
      "name": "updateUser",
      "outputs": [],
      "stateMutability": "nonpayable",
      "type": "function"
    },
    {
      "inputs": [
        {
          "internalType": "address",
          "name": "_medicineID",
          "type": "address"
        },
        {
          "internalType": "address",
          "name": "_pharma",
          "type": "address"
        },
        {
          "internalType": "address",
          "name": "_transporter",
          "type": "address"
        }
      ],
      "name": "transferMedicineFromDistributorToPharma",
      "outputs": [],
      "stateMutability": "nonpayable",
      "type": "function"
    }
  ],
  "bytecode": "0x608060405234801561001057600080fd5b5060008054600160a060020a03191633179055611add806100326000396000f3fe60806040523480156200001157600080fd5b5060043610620000a4576000357c0100000000000000000000000000000000000000000000000000000000900480635c60f226116200007f5780635c60f22614620000f05780638da5cb5b1462000107578063a00453c01462000138578063babe1655146200014f57600080fd5b806310e8b22d14620000a95780632f0c212714620000c25780633bb3ec9e14620000d9575b600080fd5b620000c0620000ba36600462001173565b6200017b565b005b620000c0620000d336600462001129565b62000403565b620000c0620000ea366004620011f0565b62000688565b620000c06200010136600462001104565b620009df565b6000546200011b90600160a060020a031681565b604051600160a060020a0390911681526020015b60405180910390f35b620000c062000149366004620011f0565b62000b39565b62000166620001603660046200129f565b62000b9a565b6040516200012f979695949392919062001323565b60083360009081526002602052604090206003015460ff166008811115620001a757620001a762001454565b14620001d35760405160e560020a62461bcd028152600401620001ca90620013b0565b60405180910390fd5b600160a060020a0380841660008181526002602052604090205490911614620002425760405160e560020a62461bcd02815260206004820152600a60248201527f5553525f4e545f524547000000000000000000000000000000000000000000006044820152606401620001ca565b600160a060020a03831660009081526002602052604090206005015460ff1615620002b35760405160e560020a62461bcd02815260206004820152600b60248201527f5553525f44454c455445440000000000000000000000000000000000000000006044820152606401620001ca565b600160a060020a03831660009081526002602081815260409092208451620002e49391909201919085019062000f45565b50600160a060020a03831660009081526002602090815260409091208251620003169260049092019184019062000f45565b506000805b600154811015620003805784600160a060020a0316600182815481106200034657620003466200146d565b6000918252602090912060079091020154600160a060020a031614156200036b578091505b80620003778162001427565b9150506200031b565b5082600182815481106200039857620003986200146d565b90600052602060002090600702016002019080519060200190620003be92919062000f45565b508160018281548110620003d657620003d66200146d565b90600052602060002090600702016004019080519060200190620003fc92919062000f45565b5050505050565b60053360009081526002602052604090206003015460ff1660088111156200042f576200042f62001454565b14620004835760405160e560020a62461bcd028152600401620001ca9060208082526004908201527f4f44434300000000000000000000000000000000000000000000000000000000604082015260600190565b6200048e8362000db0565b600083338385604051620004a29062000fd4565b600160a060020a039485168152928416602084015290831660408301529091166060820152608001604051809103906000f080158015620004e7573d6000803e3d6000fd5b506040517f43330ec2000000000000000000000000000000000000000000000000000000008152600160a060020a038681166004830152919250908216906343330ec290602401600060405180830381600087803b1580156200054957600080fd5b505af11580156200055e573d6000803e3d6000fd5b50505050600160a060020a038381166000908152600360209081526040808320805460018101825590845282842001805473ffffffffffffffffffffffffffffffffffffffff191686861617905580517f73b037db000000000000000000000000000000000000000000000000000000008152905192938816926373b037db92600480840193919291829003018186803b158015620005fc57600080fd5b505afa15801562000611573d6000803e3d6000fd5b505050506040513d601f19601f82011682018060405250810190620006379190620012b9565b60408051600160a060020a03888116825260208201849052929350918416917f60524821b161231fd2b71a1da7fcbe0d151b7141de0591aa82699f0ff11852b0910160405180910390a25050505050565b60083360009081526002602052604090206003015460ff166008811115620006b457620006b462001454565b14620006d75760405160e560020a62461bcd028152600401620001ca90620013b0565b600160a060020a038086166000818152600260205260409020549091161415620007475760405160e560020a62461bcd02815260206004820152600960248201527f5553525f455849535400000000000000000000000000000000000000000000006044820152606401620001ca565b6200075162000fe2565b600160a060020a0386168152602081018590526040810184905282600881111562000780576200078062001454565b8160600190600881111562000799576200079962001454565b90816008811115620007af57620007af62001454565b90525060808101829052600060a082018190524260c0830152600160a060020a0387811682526002602090815260409092208351815473ffffffffffffffffffffffffffffffffffffffff1916921691909117815581830151805184936200081f92600185019291019062000f45565b50604082015180516200083d91600284019160209091019062000f45565b50606082015160038201805460ff1916600183600881111562000864576200086462001454565b0217905550608082015180516200088691600484019160209091019062000f45565b5060a082015160058201805460ff191691151591909117905560c09091015160069091015560018054808201825560009190915281517fb10e2d527612073b26eecdfd717e6a320cf44b4afac2b0732d9fcbe2b7fa0cf66007909202918201805473ffffffffffffffffffffffffffffffffffffffff1916600160a060020a03909216919091178155602080840151805185946200094b937fb10e2d527612073b26eecdfd717e6a320cf44b4afac2b0732d9fcbe2b7fa0cf790910192019062000f45565b50604082015180516200096991600284019160209091019062000f45565b50606082015160038201805460ff1916600183600881111562000990576200099062001454565b021790555060808201518051620009b291600484019160209091019062000f45565b5060a082015160058201805460ff191691151591909117905560c090910151600690910155505050505050565b60083360009081526002602052604090206003015460ff16600881111562000a0b5762000a0b62001454565b1462000a2e5760405160e560020a62461bcd028152600401620001ca90620013b0565b600160a060020a038082166000818152600260205260409020549091161462000a9d5760405160e560020a62461bcd02815260206004820152600a60248201527f5553525f4e545f524547000000000000000000000000000000000000000000006044820152606401620001ca565b604080518082018252600881527f496e6163746976650000000000000000000000000000000000000000000000006020808301918252600160a060020a0385166000908152600290915292909220905162000aff926004909201919062000f45565b50600160a060020a0381166000908152600260205260409020600501805460ff1916600190811790915562000b3690829062000e1d565b50565b600054600160a060020a03163314620006d75760405160e560020a62461bcd028152600401620001ca9060208082526004908201527f4f57434300000000000000000000000000000000000000000000000000000000604082015260600190565b6001818154811062000bab57600080fd5b600091825260209091206007909102018054600182018054600160a060020a0390921693509062000bdc90620013e7565b80601f016020809104026020016040519081016040528092919081815260200182805462000c0a90620013e7565b801562000c5b5780601f1062000c2f5761010080835404028352916020019162000c5b565b820191906000526020600020905b81548152906001019060200180831162000c3d57829003601f168201915b50505050509080600201805462000c7290620013e7565b80601f016020809104026020016040519081016040528092919081815260200182805462000ca090620013e7565b801562000cf15780601f1062000cc55761010080835404028352916020019162000cf1565b820191906000526020600020905b81548152906001019060200180831162000cd357829003601f168201915b5050506003840154600485018054949560ff90921694919350915062000d1790620013e7565b80601f016020809104026020016040519081016040528092919081815260200182805462000d4590620013e7565b801562000d965780601f1062000d6a5761010080835404028352916020019162000d96565b820191906000526020600020905b81548152906001019060200180831162000d7857829003601f168201915b505050506005830154600690930154919260ff1691905087565b80600160a060020a031663a761dc4f6040518163ffffffff167c0100000000000000000000000000000000000000000000000000000000028152600401600060405180830381600087803b15801562000e0857600080fd5b505af1158015620003fc573d6000803e3d6000fd5b6000805b60015481101562000e865783600160a060020a03166001828154811062000e4c5762000e4c6200146d565b6000918252602090912060079091020154600160a060020a0316141562000e71578091505b8062000e7d8162001427565b91505062000e21565b506040518060400160405280600881526020017f496e6163746976650000000000000000000000000000000000000000000000008152506001828154811062000ed35762000ed36200146d565b9060005260206000209060070201600401908051906020019062000ef992919062000f45565b506001821515141562000f4057600180828154811062000f1d5762000f1d6200146d565b60009182526020909120600790910201600501805460ff19169115159190911790555b505050565b82805462000f5390620013e7565b90600052602060002090601f01602090048101928262000f77576000855562000fc2565b82601f1062000f9257805160ff191683800117855562000fc2565b8280016001018555821562000fc2579182015b8281111562000fc257825182559160200191906001019062000fa5565b5062000fd09291506200103b565b5090565b61060880620014a083390190565b6040518060e001604052806000600160a060020a0316815260200160608152602001606081526020016000600881111562001021576200102162001454565b815260606020820181905260006040830181905291015290565b5b8082111562000fd057600081556001016200103c565b8035600160a060020a03811681146200106a57600080fd5b919050565b600082601f8301126200108157600080fd5b813567ffffffffffffffff808211156200109f576200109f62001486565b604051601f8301601f19908116603f01168101908282118183101715620010ca57620010ca62001486565b81604052838152866020858801011115620010e457600080fd5b836020870160208301376000602085830101528094505050505092915050565b6000602082840312156200111757600080fd5b620011228262001052565b9392505050565b6000806000606084860312156200113f57600080fd5b6200114a8462001052565b92506200115a6020850162001052565b91506200116a6040850162001052565b90509250925092565b6000806000606084860312156200118957600080fd5b620011948462001052565b9250602084013567ffffffffffffffff80821115620011b257600080fd5b620011c0878388016200106f565b93506040860135915080821115620011d757600080fd5b50620011e6868287016200106f565b9150509250925092565b600080600080600060a086880312156200120957600080fd5b620012148662001052565b9450602086013567ffffffffffffffff808211156200123257600080fd5b6200124089838a016200106f565b955060408801359150808211156200125757600080fd5b6200126589838a016200106f565b94506060880135935060808801359150808211156200128357600080fd5b5062001292888289016200106f565b9150509295509295909350565b600060208284031215620012b257600080fd5b5035919050565b600060208284031215620012cc57600080fd5b5051919050565b6000815180845260005b81811015620012fb57602081850181015186830182015201620012dd565b818111156200130e576000602083870101525b50601f01601f19169290920160200192915050565b600160a060020a038816815260e0602082015260006200134760e0830189620012d3565b82810360408401526200135b8189620012d3565b9050600987106200137f5760e060020a634e487b7102600052602160045260246000fd5b8660608401528281036080840152620013998187620012d3565b94151560a0840152505060c0015295945050505050565b60208082526004908201527f4f41434300000000000000000000000000000000000000000000000000000000604082015260600190565b600281046001821680620013fc57607f821691505b60208210811415620014215760e060020a634e487b7102600052602260045260246000fd5b50919050565b60006000198214156200144d5760e060020a634e487b7102600052601160045260246000fd5b5060010190565b60e060020a634e487b7102600052602160045260246000fd5b60e060020a634e487b7102600052603260045260246000fd5b60e060020a634e487b7102600052604160045260246000fdfe608060405234801561001057600080fd5b5060405161060838038061060883398101604081905261002f916100e0565b60008054600160a060020a0319908116600160a060020a038681169182178455600180548416898316179055600380548416909217909155600480548316858316179055600280549092169085161790556004805460a060020a60ff021916740100000000000000000000000000000000000000008360028111156100b6576100b6610134565b021790555050505050610163565b8051600160a060020a03811681146100db57600080fd5b919050565b600080600080608085870312156100f657600080fd5b6100ff856100c4565b935061010d602086016100c4565b925061011b604086016100c4565b9150610129606086016100c4565b905092959194509250565b7f4e487b7100000000000000000000000000000000000000000000000000000000600052602160045260246000fd5b610496806101726000396000f3fe608060405234801561001057600080fd5b5060043610610073577c0100000000000000000000000000000000000000000000000000000000600035046343330ec28114610078578063678dd1181461008d5780637fb8174a146100b7578063b946588c146100f4578063e3837b0414610107575b600080fd5b61008b6100863660046103c0565b610132565b005b6004546100a19060a060020a900460ff1681565b6040516100ae91906103f0565b60405180910390f35b6100bf610266565b6040516100ae9493929190600160a060020a039485168152928416602084015292166040820152606081019190915260800190565b61008b6101023660046103c0565b6102b7565b60015461011a90600160a060020a031681565b604051600160a060020a0390911681526020016100ae565b600060045460a060020a900460ff16600281111561015257610152610431565b146101be576040517f08c379a000000000000000000000000000000000000000000000000000000000815260206004820152600a60248201527f4d5f4d53545f41545f440000000000000000000000000000000000000000000060448201526064015b60405180910390fd5b600480546001919074ff0000000000000000000000000000000000000000191660a060020a830217905550600480546040517fa3791bb3000000000000000000000000000000000000000000000000000000008152600160a060020a039182169281019290925282169063a3791bb390602401600060405180830381600087803b15801561024b57600080fd5b505af115801561025f573d6000803e3d6000fd5b5050505050565b60015460028054600354600454600094859485948594600160a060020a039384169491841693169160a060020a90910460ff16908111156102a9576102a9610431565b935093509350935090919293565b600160045460a060020a900460ff1660028111156102d7576102d7610431565b1461033e576040517f08c379a000000000000000000000000000000000000000000000000000000000815260206004820152600b60248201527f4d5f4d53545f41545f502e00000000000000000000000000000000000000000060448201526064016101b5565b600480546002919074ff0000000000000000000000000000000000000000191660a060020a83021790555080600160a060020a031663df1f41c86040518163ffffffff167c0100000000000000000000000000000000000000000000000000000000028152600401600060405180830381600087803b15801561024b57600080fd5b6000602082840312156103d257600080fd5b8135600160a060020a03811681146103e957600080fd5b9392505050565b602081016003831061042b577f4e487b7100000000000000000000000000000000000000000000000000000000600052602160045260246000fd5b91905290565b7f4e487b7100000000000000000000000000000000000000000000000000000000600052602160045260246000fdfea26469706673582212201e21bfd8f0cf6875f98b76ddc104d050e4eee35d59f4fabb8b530ec01ce58fdb64736f6c63430008060033a2646970667358221220c7d923f4cb08ddf120e4ffbc8c50f9ae167b74b2c1e2aee9e41d6b1ae72de4a264736f6c63430008060033",
  "immutableReferences": {},
  "source": "// SPDX-License-Identifier: MIT\r\npragma solidity >=0.4.22 <0.9.0;\r\npragma experimental ABIEncoderV2;\r\n\r\nimport \"./User.sol\";\r\nimport \"./Medicine.sol\";\r\nimport \"./MedicineDP.sol\";\r\n\r\ncontract Distributor is User {\r\n    mapping(address => address[]) MedicineBatchesTransferredToPharma;\r\n\r\n    modifier onlyDistributor {\r\n        require(UsersDetails[msg.sender].userRole == roles.distributor, \"ODCC\"); //\"Only Distributor can call this function.\"\r\n        _;\r\n    }\r\n\r\n    event MedicineTransferredDPInitiated(\r\n        address MedicineID,\r\n        address indexed SubContractID,\r\n        uint256 MedicineStatus\r\n    );\r\n\r\n    //Recieve & update medicine package shippment status for supplied package ID by tagged/associated receiver/distributor. Update MedicinePackagesReceivedAtDistributor mapping\r\n    //@param _medicineID Medicine/Package/batch ID Address\r\n    function updateRecievedMedicinePackageStatus(address _medicineID) private {\r\n        Medicine(_medicineID).updatePackageStatusOnReceivedByDistributor();\r\n    }\r\n\r\n    //Transfer received Medicine batch(from Manufacturer) to Pharma using tagged/associated shipper/transporter only. Only Distributor can call this.\r\n    //@param _medicineID Medicine Batch/Package ID Address\r\n    //@param _pharma Registered Pharma user Address\r\n    //@param _transporter Registered Shipper/Transporter user Address\r\n    function transferMedicineFromDistributorToPharma(\r\n        address _medicineID,\r\n        address _pharma,\r\n        address _transporter\r\n    ) public onlyDistributor {\r\n        updateRecievedMedicinePackageStatus(_medicineID);\r\n        MedicineDP medicineDPData = new MedicineDP(\r\n            _medicineID,\r\n            msg.sender,\r\n            _transporter,\r\n            _pharma\r\n        );\r\n        // MedicinesTransferredToPharma[msg.sender].push(address(medicineDPData));\r\n        MedicineDP(address(medicineDPData)).pickPackageDP(_medicineID);\r\n        MedicineBatchesTransferredToPharma[_pharma].push(\r\n            address(medicineDPData)\r\n        );\r\n        uint256 _status = Medicine(_medicineID).getMedicineStatus();\r\n        emit MedicineTransferredDPInitiated(\r\n            _medicineID,\r\n            address(medicineDPData),\r\n            _status\r\n        );\r\n    }\r\n}\r\n",
  "sourcePath": "C:\\Development\\Blockchain\\Learning-2\\contracts\\Distributor.sol",
  "compiler": {
    "name": "solc",
    "version": "0.8.6+commit.11564f7e.Emscripten.clang"
  },
  "schemaVersion": "3.4.1",
  "updatedAt": "2021-08-05T10:21:15.086Z",
  "devdoc": {
    "kind": "dev",
    "methods": {},
    "version": 1
  },
  "userdoc": {
    "kind": "user",
    "methods": {},
    "version": 1
  }
}