{
  "contractName": "Distributor",
  "abi": [
    {
      "anonymous": false,
      "inputs": [
        {
          "indexed": false,
          "internalType": "address",
          "name": "MedicineID",
          "type": "address"
        },
        {
          "indexed": true,
          "internalType": "address",
          "name": "SubContractID",
          "type": "address"
        },
        {
          "indexed": false,
          "internalType": "uint256",
          "name": "MedicineSubBatchStatus",
          "type": "uint256"
        },
        {
          "indexed": false,
          "internalType": "uint256[]",
          "name": "transactionBlocksDP",
          "type": "uint256[]"
        }
      ],
      "name": "MedicineTransferredDPInitiated",
      "type": "event"
    },
    {
      "anonymous": false,
      "inputs": [
        {
          "indexed": false,
          "internalType": "address",
          "name": "medicineId",
          "type": "address"
        },
        {
          "indexed": false,
          "internalType": "uint256",
          "name": "packageStatus",
          "type": "uint256"
        },
        {
          "indexed": false,
          "internalType": "uint256[]",
          "name": "transactionBlocks",
          "type": "uint256[]"
        }
      ],
      "name": "UpdatedMedicineStatusOnReceived",
      "type": "event"
    },
    {
      "inputs": [
        {
          "internalType": "address",
          "name": "",
          "type": "address"
        },
        {
          "internalType": "uint256",
          "name": "",
          "type": "uint256"
        }
      ],
      "name": "TaggedTransporterMedicineSubBatchList",
      "outputs": [
        {
          "internalType": "address",
          "name": "",
          "type": "address"
        }
      ],
      "stateMutability": "view",
      "type": "function"
    },
    {
      "inputs": [
        {
          "internalType": "uint256",
          "name": "",
          "type": "uint256"
        }
      ],
      "name": "UserList",
      "outputs": [
        {
          "internalType": "address",
          "name": "userAddress",
          "type": "address"
        },
        {
          "internalType": "string",
          "name": "userName",
          "type": "string"
        },
        {
          "internalType": "string",
          "name": "userLocation",
          "type": "string"
        },
        {
          "internalType": "enum User.roles",
          "name": "userRole",
          "type": "uint8"
        },
        {
          "internalType": "string",
          "name": "userStatus",
          "type": "string"
        },
        {
          "internalType": "bool",
          "name": "isDeleted",
          "type": "bool"
        },
        {
          "internalType": "uint256",
          "name": "registrationDate",
          "type": "uint256"
        }
      ],
      "stateMutability": "view",
      "type": "function"
    },
    {
      "inputs": [
        {
          "internalType": "address",
          "name": "_address",
          "type": "address"
        }
      ],
      "name": "deleteUser",
      "outputs": [],
      "stateMutability": "nonpayable",
      "type": "function"
    },
    {
      "inputs": [],
      "name": "owner",
      "outputs": [
        {
          "internalType": "address",
          "name": "",
          "type": "address"
        }
      ],
      "stateMutability": "view",
      "type": "function"
    },
    {
      "inputs": [
        {
          "internalType": "address",
          "name": "_address",
          "type": "address"
        },
        {
          "internalType": "string",
          "name": "_name",
          "type": "string"
        },
        {
          "internalType": "string",
          "name": "_location",
          "type": "string"
        },
        {
          "internalType": "uint256",
          "name": "_role",
          "type": "uint256"
        },
        {
          "internalType": "string",
          "name": "_userStatus",
          "type": "string"
        }
      ],
      "name": "registerAdmin",
      "outputs": [],
      "stateMutability": "nonpayable",
      "type": "function"
    },
    {
      "inputs": [
        {
          "internalType": "address",
          "name": "_address",
          "type": "address"
        },
        {
          "internalType": "string",
          "name": "_name",
          "type": "string"
        },
        {
          "internalType": "string",
          "name": "_location",
          "type": "string"
        },
        {
          "internalType": "uint256",
          "name": "_role",
          "type": "uint256"
        },
        {
          "internalType": "string",
          "name": "_userStatus",
          "type": "string"
        }
      ],
      "name": "registerUser",
      "outputs": [],
      "stateMutability": "nonpayable",
      "type": "function"
    },
    {
      "inputs": [
        {
          "internalType": "address",
          "name": "_address",
          "type": "address"
        },
        {
          "internalType": "string",
          "name": "_location",
          "type": "string"
        },
        {
          "internalType": "string",
          "name": "_userStatus",
          "type": "string"
        }
      ],
      "name": "updateUser",
      "outputs": [],
      "stateMutability": "nonpayable",
      "type": "function"
    },
    {
      "inputs": [
        {
          "internalType": "address",
          "name": "_medicineId",
          "type": "address"
        },
        {
          "internalType": "address",
          "name": "_pharma",
          "type": "address"
        },
        {
          "internalType": "address",
          "name": "_transporter",
          "type": "address"
        }
      ],
      "name": "transferMedicineFromDistributorToPharma",
      "outputs": [],
      "stateMutability": "nonpayable",
      "type": "function"
    },
    {
      "inputs": [
        {
          "internalType": "address",
          "name": "_medicineId",
          "type": "address"
        }
      ],
      "name": "rejectMedicineBatch",
      "outputs": [],
      "stateMutability": "nonpayable",
      "type": "function"
    },
    {
      "inputs": [
        {
          "internalType": "address",
          "name": "_medicineId",
          "type": "address"
        }
      ],
      "name": "approveMedicineBatch",
      "outputs": [],
      "stateMutability": "nonpayable",
      "type": "function"
    }
  ],
  "bytecode": "0x608060405234801561001057600080fd5b50336000806101000a81548173ffffffffffffffffffffffffffffffffffffffff021916908373ffffffffffffffffffffffffffffffffffffffff16021790555061471b806100606000396000f3fe60806040523480156200001157600080fd5b5060043610620000c9576000357c0100000000000000000000000000000000000000000000000000000000900480636d01eb5e116200008c5780636d01eb5e146200016e5780638da5cb5b14620001a4578063a00453c014620001c6578063ae7343d614620001e6578063babe1655146200020657620000c9565b806310e8b22d14620000ce57806325d8d74014620000ee5780632f0c2127146200010e5780633bb3ec9e146200012e5780635c60f226146200014e575b600080fd5b620000ec6004803603810190620000e6919062002418565b62000242565b005b6200010c60048036038101906200010691906200238a565b62000651565b005b6200012c6004803603810190620001269190620023bc565b6200093c565b005b6200014c6004803603810190620001469190620024b2565b62000dca565b005b6200016c60048036038101906200016691906200238a565b6200129b565b005b6200018c600480360381019062000186919062002597565b62001526565b6040516200019b9190620028c9565b60405180910390f35b620001ae62001575565b604051620001bd9190620028c9565b60405180910390f35b620001e46004803603810190620001de9190620024b2565b62001599565b005b620002046004803603810190620001fe91906200238a565b62001a3c565b005b6200022460048036038101906200021e919062002661565b62001d27565b60405162000239979695949392919062002933565b60405180910390f35b6008600981111562000259576200025862002d59565b5b600260003373ffffffffffffffffffffffffffffffffffffffff1673ffffffffffffffffffffffffffffffffffffffff16815260200190815260200160002060030160009054906101000a900460ff166009811115620002be57620002bd62002d59565b5b1462000301576040517f08c379a0000000000000000000000000000000000000000000000000000000008152600401620002f89062002a4d565b60405180910390fd5b8273ffffffffffffffffffffffffffffffffffffffff16600260008573ffffffffffffffffffffffffffffffffffffffff1673ffffffffffffffffffffffffffffffffffffffff16815260200190815260200160002060000160009054906101000a900473ffffffffffffffffffffffffffffffffffffffff1673ffffffffffffffffffffffffffffffffffffffff1614620003d4576040517f08c379a0000000000000000000000000000000000000000000000000000000008152600401620003cb9062002a2b565b60405180910390fd5b60001515600260008573ffffffffffffffffffffffffffffffffffffffff1673ffffffffffffffffffffffffffffffffffffffff16815260200190815260200160002060050160009054906101000a900460ff161515146200046d576040517f08c379a0000000000000000000000000000000000000000000000000000000008152600401620004649062002ab3565b60405180910390fd5b81600260008573ffffffffffffffffffffffffffffffffffffffff1673ffffffffffffffffffffffffffffffffffffffff1681526020019081526020016000206002019080519060200190620004c5929190620020da565b5080600260008573ffffffffffffffffffffffffffffffffffffffff1673ffffffffffffffffffffffffffffffffffffffff16815260200190815260200160002060040190805190602001906200051e929190620020da565b50600080600090505b600180549050811015620005cc578473ffffffffffffffffffffffffffffffffffffffff166001828154811062000563576200056262002db7565b5b906000526020600020906007020160000160009054906101000a900473ffffffffffffffffffffffffffffffffffffffff1673ffffffffffffffffffffffffffffffffffffffff161415620005b6578091505b8080620005c39062002cdc565b91505062000527565b508260018281548110620005e557620005e462002db7565b5b906000526020600020906007020160020190805190602001906200060b929190620020da565b50816001828154811062000624576200062362002db7565b5b906000526020600020906007020160040190805190602001906200064a929190620020da565b5050505050565b6005600981111562000668576200066762002d59565b5b600260003373ffffffffffffffffffffffffffffffffffffffff1673ffffffffffffffffffffffffffffffffffffffff16815260200190815260200160002060030160009054906101000a900460ff166009811115620006cd57620006cc62002d59565b5b1462000710576040517f08c379a0000000000000000000000000000000000000000000000000000000008152600401620007079062002a09565b60405180910390fd5b60008173ffffffffffffffffffffffffffffffffffffffff16634f2d82396040518163ffffffff167c0100000000000000000000000000000000000000000000000000000000028152600401602060405180830381600087803b1580156200077757600080fd5b505af11580156200078c573d6000803e3d6000fd5b505050506040513d601f19601f82011682018060405250810190620007b291906200262f565b9050801562000938577f0eba5b46f672b4f50a675d9c0858fdc6196986362ac2faee26aee1ea04de7eb7828373ffffffffffffffffffffffffffffffffffffffff166373b037db6040518163ffffffff167c010000000000000000000000000000000000000000000000000000000002815260040160206040518083038186803b1580156200084057600080fd5b505afa15801562000855573d6000803e3d6000fd5b505050506040513d601f19601f820116820180604052508101906200087b919062002693565b8473ffffffffffffffffffffffffffffffffffffffff1663cd8a5b2e6040518163ffffffff167c010000000000000000000000000000000000000000000000000000000002815260040160006040518083038186803b158015620008de57600080fd5b505afa158015620008f3573d6000803e3d6000fd5b505050506040513d6000823e3d601f19601f820116820180604052508101906200091e9190620025de565b6040516200092f93929190620029c5565b60405180910390a15b5050565b6005600981111562000953576200095262002d59565b5b600260003373ffffffffffffffffffffffffffffffffffffffff1673ffffffffffffffffffffffffffffffffffffffff16815260200190815260200160002060030160009054906101000a900460ff166009811115620009b857620009b762002d59565b5b14620009fb576040517f08c379a0000000000000000000000000000000000000000000000000000000008152600401620009f29062002a09565b60405180910390fd5b60008333838560405162000a0f906200216b565b62000a1e9493929190620028e6565b604051809103906000f08015801562000a3b573d6000803e3d6000fd5b509050600081905060008173ffffffffffffffffffffffffffffffffffffffff16636035210a6040518163ffffffff167c0100000000000000000000000000000000000000000000000000000000028152600401602060405180830381600087803b15801562000aaa57600080fd5b505af115801562000abf573d6000803e3d6000fd5b505050506040513d601f19601f8201168201806040525081019062000ae591906200262f565b9050801562000dc257600360003373ffffffffffffffffffffffffffffffffffffffff1673ffffffffffffffffffffffffffffffffffffffff168152602001908152602001600020829080600181540180825580915050600190039060005260206000200160009091909190916101000a81548173ffffffffffffffffffffffffffffffffffffffff021916908373ffffffffffffffffffffffffffffffffffffffff160217905550600460008573ffffffffffffffffffffffffffffffffffffffff1673ffffffffffffffffffffffffffffffffffffffff168152602001908152602001600020829080600181540180825580915050600190039060005260206000200160009091909190916101000a81548173ffffffffffffffffffffffffffffffffffffffff021916908373ffffffffffffffffffffffffffffffffffffffff1602179055508173ffffffffffffffffffffffffffffffffffffffff167f8e3eaf42ef3be7a272d214c19fbf4f0cc1aa3c9b5a65d4856c93e665ae1524ec878473ffffffffffffffffffffffffffffffffffffffff16631805de3b6040518163ffffffff167c010000000000000000000000000000000000000000000000000000000002815260040160206040518083038186803b15801562000cca57600080fd5b505afa15801562000cdf573d6000803e3d6000fd5b505050506040513d601f19601f8201168201806040525081019062000d05919062002693565b8573ffffffffffffffffffffffffffffffffffffffff166330fa86aa6040518163ffffffff167c010000000000000000000000000000000000000000000000000000000002815260040160006040518083038186803b15801562000d6857600080fd5b505afa15801562000d7d573d6000803e3d6000fd5b505050506040513d6000823e3d601f19601f8201168201806040525081019062000da89190620025de565b60405162000db993929190620029c5565b60405180910390a25b505050505050565b6008600981111562000de15762000de062002d59565b5b600260003373ffffffffffffffffffffffffffffffffffffffff1673ffffffffffffffffffffffffffffffffffffffff16815260200190815260200160002060030160009054906101000a900460ff16600981111562000e465762000e4562002d59565b5b1462000e89576040517f08c379a000000000000000000000000000000000000000000000000000000000815260040162000e809062002a4d565b60405180910390fd5b8473ffffffffffffffffffffffffffffffffffffffff16600260008773ffffffffffffffffffffffffffffffffffffffff1673ffffffffffffffffffffffffffffffffffffffff16815260200190815260200160002060000160009054906101000a900473ffffffffffffffffffffffffffffffffffffffff1673ffffffffffffffffffffffffffffffffffffffff16141562000f5d576040517f08c379a000000000000000000000000000000000000000000000000000000000815260040162000f549062002a91565b60405180910390fd5b62000f6762002179565b85816000019073ffffffffffffffffffffffffffffffffffffffff16908173ffffffffffffffffffffffffffffffffffffffff168152505084816020018190525083816040018190525082600981111562000fc75762000fc662002d59565b5b8160600190600981111562000fe15762000fe062002d59565b5b9081600981111562000ff85762000ff762002d59565b5b8152505081816080018190525060008160a0019015159081151581525050428160c001818152505080600260008873ffffffffffffffffffffffffffffffffffffffff1673ffffffffffffffffffffffffffffffffffffffff16815260200190815260200160002060008201518160000160006101000a81548173ffffffffffffffffffffffffffffffffffffffff021916908373ffffffffffffffffffffffffffffffffffffffff1602179055506020820151816001019080519060200190620010c5929190620020da565b506040820151816002019080519060200190620010e4929190620020da565b5060608201518160030160006101000a81548160ff0219169083600981111562001113576200111262002d59565b5b0217905550608082015181600401908051906020019062001136929190620020da565b5060a08201518160050160006101000a81548160ff02191690831515021790555060c08201518160060155905050600181908060018154018082558091505060019003906000526020600020906007020160009091909190915060008201518160000160006101000a81548173ffffffffffffffffffffffffffffffffffffffff021916908373ffffffffffffffffffffffffffffffffffffffff1602179055506020820151816001019080519060200190620011f5929190620020da565b50604082015181600201908051906020019062001214929190620020da565b5060608201518160030160006101000a81548160ff0219169083600981111562001243576200124262002d59565b5b0217905550608082015181600401908051906020019062001266929190620020da565b5060a08201518160050160006101000a81548160ff02191690831515021790555060c082015181600601555050505050505050565b60086009811115620012b257620012b162002d59565b5b600260003373ffffffffffffffffffffffffffffffffffffffff1673ffffffffffffffffffffffffffffffffffffffff16815260200190815260200160002060030160009054906101000a900460ff16600981111562001317576200131662002d59565b5b146200135a576040517f08c379a0000000000000000000000000000000000000000000000000000000008152600401620013519062002a4d565b60405180910390fd5b8073ffffffffffffffffffffffffffffffffffffffff16600260008373ffffffffffffffffffffffffffffffffffffffff1673ffffffffffffffffffffffffffffffffffffffff16815260200190815260200160002060000160009054906101000a900473ffffffffffffffffffffffffffffffffffffffff1673ffffffffffffffffffffffffffffffffffffffff16146200142d576040517f08c379a0000000000000000000000000000000000000000000000000000000008152600401620014249062002a2b565b60405180910390fd5b6040518060400160405280600881526020017f496e616374697665000000000000000000000000000000000000000000000000815250600260008373ffffffffffffffffffffffffffffffffffffffff1673ffffffffffffffffffffffffffffffffffffffff1681526020019081526020016000206004019080519060200190620014ba929190620020da565b506001600260008373ffffffffffffffffffffffffffffffffffffffff1673ffffffffffffffffffffffffffffffffffffffff16815260200190815260200160002060050160006101000a81548160ff0219169083151502179055506200152381600162001f64565b50565b600460205281600052604060002081815481106200154357600080fd5b906000526020600020016000915091509054906101000a900473ffffffffffffffffffffffffffffffffffffffff1681565b60008054906101000a900473ffffffffffffffffffffffffffffffffffffffff1681565b60008054906101000a900473ffffffffffffffffffffffffffffffffffffffff1673ffffffffffffffffffffffffffffffffffffffff163373ffffffffffffffffffffffffffffffffffffffff16146200162a576040517f08c379a0000000000000000000000000000000000000000000000000000000008152600401620016219062002a6f565b60405180910390fd5b8473ffffffffffffffffffffffffffffffffffffffff16600260008773ffffffffffffffffffffffffffffffffffffffff1673ffffffffffffffffffffffffffffffffffffffff16815260200190815260200160002060000160009054906101000a900473ffffffffffffffffffffffffffffffffffffffff1673ffffffffffffffffffffffffffffffffffffffff161415620016fe576040517f08c379a0000000000000000000000000000000000000000000000000000000008152600401620016f59062002a91565b60405180910390fd5b6200170862002179565b85816000019073ffffffffffffffffffffffffffffffffffffffff16908173ffffffffffffffffffffffffffffffffffffffff168152505084816020018190525083816040018190525082600981111562001768576200176762002d59565b5b8160600190600981111562001782576200178162002d59565b5b9081600981111562001799576200179862002d59565b5b8152505081816080018190525060008160a0019015159081151581525050428160c001818152505080600260008873ffffffffffffffffffffffffffffffffffffffff1673ffffffffffffffffffffffffffffffffffffffff16815260200190815260200160002060008201518160000160006101000a81548173ffffffffffffffffffffffffffffffffffffffff021916908373ffffffffffffffffffffffffffffffffffffffff160217905550602082015181600101908051906020019062001866929190620020da565b50604082015181600201908051906020019062001885929190620020da565b5060608201518160030160006101000a81548160ff02191690836009811115620018b457620018b362002d59565b5b02179055506080820151816004019080519060200190620018d7929190620020da565b5060a08201518160050160006101000a81548160ff02191690831515021790555060c08201518160060155905050600181908060018154018082558091505060019003906000526020600020906007020160009091909190915060008201518160000160006101000a81548173ffffffffffffffffffffffffffffffffffffffff021916908373ffffffffffffffffffffffffffffffffffffffff160217905550602082015181600101908051906020019062001996929190620020da565b506040820151816002019080519060200190620019b5929190620020da565b5060608201518160030160006101000a81548160ff02191690836009811115620019e457620019e362002d59565b5b0217905550608082015181600401908051906020019062001a07929190620020da565b5060a08201518160050160006101000a81548160ff02191690831515021790555060c082015181600601555050505050505050565b6005600981111562001a535762001a5262002d59565b5b600260003373ffffffffffffffffffffffffffffffffffffffff1673ffffffffffffffffffffffffffffffffffffffff16815260200190815260200160002060030160009054906101000a900460ff16600981111562001ab85762001ab762002d59565b5b1462001afb576040517f08c379a000000000000000000000000000000000000000000000000000000000815260040162001af29062002a09565b60405180910390fd5b60008173ffffffffffffffffffffffffffffffffffffffff166323c0d03b6040518163ffffffff167c0100000000000000000000000000000000000000000000000000000000028152600401602060405180830381600087803b15801562001b6257600080fd5b505af115801562001b77573d6000803e3d6000fd5b505050506040513d601f19601f8201168201806040525081019062001b9d91906200262f565b9050801562001d23577f0eba5b46f672b4f50a675d9c0858fdc6196986362ac2faee26aee1ea04de7eb7828373ffffffffffffffffffffffffffffffffffffffff166373b037db6040518163ffffffff167c010000000000000000000000000000000000000000000000000000000002815260040160206040518083038186803b15801562001c2b57600080fd5b505afa15801562001c40573d6000803e3d6000fd5b505050506040513d601f19601f8201168201806040525081019062001c66919062002693565b8473ffffffffffffffffffffffffffffffffffffffff1663cd8a5b2e6040518163ffffffff167c010000000000000000000000000000000000000000000000000000000002815260040160006040518083038186803b15801562001cc957600080fd5b505afa15801562001cde573d6000803e3d6000fd5b505050506040513d6000823e3d601f19601f8201168201806040525081019062001d099190620025de565b60405162001d1a93929190620029c5565b60405180910390a15b5050565b6001818154811062001d3857600080fd5b90600052602060002090600702016000915090508060000160009054906101000a900473ffffffffffffffffffffffffffffffffffffffff169080600101805462001d839062002c70565b80601f016020809104026020016040519081016040528092919081815260200182805462001db19062002c70565b801562001e025780601f1062001dd65761010080835404028352916020019162001e02565b820191906000526020600020905b81548152906001019060200180831162001de457829003601f168201915b50505050509080600201805462001e199062002c70565b80601f016020809104026020016040519081016040528092919081815260200182805462001e479062002c70565b801562001e985780601f1062001e6c5761010080835404028352916020019162001e98565b820191906000526020600020905b81548152906001019060200180831162001e7a57829003601f168201915b5050505050908060030160009054906101000a900460ff169080600401805462001ec29062002c70565b80601f016020809104026020016040519081016040528092919081815260200182805462001ef09062002c70565b801562001f415780601f1062001f155761010080835404028352916020019162001f41565b820191906000526020600020905b81548152906001019060200180831162001f2357829003601f168201915b5050505050908060050160009054906101000a900460ff16908060060154905087565b600080600090505b60018054905081101562002011578373ffffffffffffffffffffffffffffffffffffffff166001828154811062001fa85762001fa762002db7565b5b906000526020600020906007020160000160009054906101000a900473ffffffffffffffffffffffffffffffffffffffff1673ffffffffffffffffffffffffffffffffffffffff16141562001ffb578091505b8080620020089062002cdc565b91505062001f6c565b506040518060400160405280600881526020017f496e616374697665000000000000000000000000000000000000000000000000815250600182815481106200205f576200205e62002db7565b5b9060005260206000209060070201600401908051906020019062002085929190620020da565b50600115158215151415620020d5576001808281548110620020ac57620020ab62002db7565b5b906000526020600020906007020160050160006101000a81548160ff0219169083151502179055505b505050565b828054620020e89062002c70565b90600052602060002090601f0160209004810192826200210c576000855562002158565b82601f106200212757805160ff191683800117855562002158565b8280016001018555821562002158579182015b82811115620021575782518255916020019190600101906200213a565b5b509050620021679190620021e3565b5090565b61174b8062002f9b83390190565b6040518060e00160405280600073ffffffffffffffffffffffffffffffffffffffff168152602001606081526020016060815260200160006009811115620021c657620021c562002d59565b5b815260200160608152602001600015158152602001600081525090565b5b80821115620021fe576000816000905550600101620021e4565b5090565b600062002219620022138462002afe565b62002ad5565b905080838252602082019050828560208602820111156200223f576200223e62002e1a565b5b60005b8581101562002273578162002258888262002373565b84526020840193506020830192505060018101905062002242565b5050509392505050565b6000620022946200228e8462002b2d565b62002ad5565b905082815260208101848484011115620022b357620022b262002e1f565b5b620022c084828562002c2b565b509392505050565b600081359050620022d98162002f4c565b92915050565b600082601f830112620022f757620022f662002e15565b5b81516200230984826020860162002202565b91505092915050565b600081519050620023238162002f66565b92915050565b600082601f83011262002341576200234062002e15565b5b8135620023538482602086016200227d565b91505092915050565b6000813590506200236d8162002f80565b92915050565b600081519050620023848162002f80565b92915050565b600060208284031215620023a357620023a262002e29565b5b6000620023b384828501620022c8565b91505092915050565b600080600060608486031215620023d857620023d762002e29565b5b6000620023e886828701620022c8565b9350506020620023fb86828701620022c8565b92505060406200240e86828701620022c8565b9150509250925092565b60008060006060848603121562002434576200243362002e29565b5b60006200244486828701620022c8565b935050602084013567ffffffffffffffff81111562002468576200246762002e24565b5b620024768682870162002329565b925050604084013567ffffffffffffffff8111156200249a576200249962002e24565b5b620024a88682870162002329565b9150509250925092565b600080600080600060a08688031215620024d157620024d062002e29565b5b6000620024e188828901620022c8565b955050602086013567ffffffffffffffff81111562002505576200250462002e24565b5b620025138882890162002329565b945050604086013567ffffffffffffffff81111562002537576200253662002e24565b5b620025458882890162002329565b935050606062002558888289016200235c565b925050608086013567ffffffffffffffff8111156200257c576200257b62002e24565b5b6200258a8882890162002329565b9150509295509295909350565b60008060408385031215620025b157620025b062002e29565b5b6000620025c185828601620022c8565b9250506020620025d4858286016200235c565b9150509250929050565b600060208284031215620025f757620025f662002e29565b5b600082015167ffffffffffffffff81111562002618576200261762002e24565b5b6200262684828501620022df565b91505092915050565b60006020828403121562002648576200264762002e29565b5b6000620026588482850162002312565b91505092915050565b6000602082840312156200267a576200267962002e29565b5b60006200268a848285016200235c565b91505092915050565b600060208284031215620026ac57620026ab62002e29565b5b6000620026bc8482850162002373565b91505092915050565b6000620026d38383620028a7565b60208301905092915050565b620026ea8162002bb8565b82525050565b6000620026fd8262002b73565b62002709818562002b96565b9350620027168362002b63565b8060005b838110156200274d578151620027318882620026c5565b97506200273e8362002b89565b9250506001810190506200271a565b5085935050505092915050565b620027658162002bcc565b82525050565b620027768162002c17565b82525050565b6000620027898262002b7e565b62002795818562002ba7565b9350620027a781856020860162002c3a565b620027b28162002e2e565b840191505092915050565b6000620027cc60048362002ba7565b9150620027d98262002e3f565b602082019050919050565b6000620027f3600a8362002ba7565b9150620028008262002e68565b602082019050919050565b60006200281a60048362002ba7565b9150620028278262002e91565b602082019050919050565b60006200284160048362002ba7565b91506200284e8262002eba565b602082019050919050565b60006200286860098362002ba7565b9150620028758262002ee3565b602082019050919050565b60006200288f600b8362002ba7565b91506200289c8262002f0c565b602082019050919050565b620028b28162002c0d565b82525050565b620028c38162002c0d565b82525050565b6000602082019050620028e06000830184620026df565b92915050565b6000608082019050620028fd6000830187620026df565b6200290c6020830186620026df565b6200291b6040830185620026df565b6200292a6060830184620026df565b95945050505050565b600060e0820190506200294a600083018a620026df565b81810360208301526200295e81896200277c565b905081810360408301526200297481886200277c565b90506200298560608301876200276b565b81810360808301526200299981866200277c565b9050620029aa60a08301856200275a565b620029b960c0830184620028b8565b98975050505050505050565b6000606082019050620029dc6000830186620026df565b620029eb6020830185620028b8565b8181036040830152620029ff8184620026f0565b9050949350505050565b6000602082019050818103600083015262002a2481620027bd565b9050919050565b6000602082019050818103600083015262002a4681620027e4565b9050919050565b6000602082019050818103600083015262002a68816200280b565b9050919050565b6000602082019050818103600083015262002a8a8162002832565b9050919050565b6000602082019050818103600083015262002aac8162002859565b9050919050565b6000602082019050818103600083015262002ace8162002880565b9050919050565b600062002ae162002af4565b905062002aef828262002ca6565b919050565b6000604051905090565b600067ffffffffffffffff82111562002b1c5762002b1b62002de6565b5b602082029050602081019050919050565b600067ffffffffffffffff82111562002b4b5762002b4a62002de6565b5b62002b568262002e2e565b9050602081019050919050565b6000819050602082019050919050565b600081519050919050565b600081519050919050565b6000602082019050919050565b600082825260208201905092915050565b600082825260208201905092915050565b600062002bc58262002bed565b9050919050565b60008115159050919050565b600081905062002be88262002f35565b919050565b600073ffffffffffffffffffffffffffffffffffffffff82169050919050565b6000819050919050565b600062002c248262002bd8565b9050919050565b82818337600083830152505050565b60005b8381101562002c5a57808201518184015260208101905062002c3d565b8381111562002c6a576000848401525b50505050565b6000600282049050600182168062002c8957607f821691505b6020821081141562002ca05762002c9f62002d88565b5b50919050565b62002cb18262002e2e565b810181811067ffffffffffffffff8211171562002cd35762002cd262002de6565b5b80604052505050565b600062002ce98262002c0d565b91507fffffffffffffffffffffffffffffffffffffffffffffffffffffffffffffffff82141562002d1f5762002d1e62002d2a565b5b600182019050919050565b7f4e487b7100000000000000000000000000000000000000000000000000000000600052601160045260246000fd5b7f4e487b7100000000000000000000000000000000000000000000000000000000600052602160045260246000fd5b7f4e487b7100000000000000000000000000000000000000000000000000000000600052602260045260246000fd5b7f4e487b7100000000000000000000000000000000000000000000000000000000600052603260045260246000fd5b7f4e487b7100000000000000000000000000000000000000000000000000000000600052604160045260246000fd5b600080fd5b600080fd5b600080fd5b600080fd5b600080fd5b6000601f19601f8301169050919050565b7f4f44434300000000000000000000000000000000000000000000000000000000600082015250565b7f5553525f4e545f52454700000000000000000000000000000000000000000000600082015250565b7f4f41434300000000000000000000000000000000000000000000000000000000600082015250565b7f4f57434300000000000000000000000000000000000000000000000000000000600082015250565b7f5553525f45584953540000000000000000000000000000000000000000000000600082015250565b7f5553525f44454c45544544000000000000000000000000000000000000000000600082015250565b600a811062002f495762002f4862002d59565b5b50565b62002f578162002bb8565b811462002f6357600080fd5b50565b62002f718162002bcc565b811462002f7d57600080fd5b50565b62002f8b8162002c0d565b811462002f9757600080fd5b5056fe60806040523480156200001157600080fd5b506040516200174b3803806200174b8339818101604052810190620000379190620001df565b826000806101000a81548173ffffffffffffffffffffffffffffffffffffffff021916908373ffffffffffffffffffffffffffffffffffffffff16021790555083600160006101000a81548173ffffffffffffffffffffffffffffffffffffffff021916908373ffffffffffffffffffffffffffffffffffffffff16021790555082600360006101000a81548173ffffffffffffffffffffffffffffffffffffffff021916908373ffffffffffffffffffffffffffffffffffffffff16021790555080600460006101000a81548173ffffffffffffffffffffffffffffffffffffffff021916908373ffffffffffffffffffffffffffffffffffffffff16021790555081600260006101000a81548173ffffffffffffffffffffffffffffffffffffffff021916908373ffffffffffffffffffffffffffffffffffffffff1602179055506000600481111562000192576200019162000285565b5b600460146101000a81548160ff02191690836004811115620001b957620001b862000285565b5b021790555050505050620002d3565b600081519050620001d981620002b9565b92915050565b60008060008060808587031215620001fc57620001fb620002b4565b5b60006200020c87828801620001c8565b94505060206200021f87828801620001c8565b93505060406200023287828801620001c8565b92505060606200024587828801620001c8565b91505092959194509250565b60006200025e8262000265565b9050919050565b600073ffffffffffffffffffffffffffffffffffffffff82169050919050565b7f4e487b7100000000000000000000000000000000000000000000000000000000600052602160045260246000fd5b600080fd5b620002c48162000251565b8114620002d057600080fd5b50565b61146880620002e36000396000f3fe608060405234801561001057600080fd5b50600436106100ec576000357c01000000000000000000000000000000000000000000000000000000009004806358c3bf79116100a957806376b0f79c1161008357806376b0f79c146101fd5780637fb8174a1461021b578063b946588c1461023f578063e3837b041461025b576100ec565b806358c3bf79146101a35780636035210a146101c1578063678dd118146101df576100ec565b80631805de3b146100f157806330fa86aa1461010f5780633834aae01461012d57806340019e5d1461014b57806340e900931461016957806343330ec214610187575b600080fd5b6100f9610279565b6040516101069190611140565b60405180910390f35b6101176102a2565b6040516101249190611088565b60405180910390f35b6101356102fa565b60405161014291906110aa565b60405180910390f35b61015361030d565b6040516101609190610fed565b60405180910390f35b610171610337565b60405161017e91906110aa565b60405180910390f35b6101a1600480360381019061019c9190610cff565b61034a565b005b6101ab6104bb565b6040516101b891906110aa565b60405180910390f35b6101c96104ce565b6040516101d691906110aa565b60405180910390f35b6101e761053c565b6040516101f491906110c5565b60405180910390f35b61020561054f565b60405161021291906110aa565b60405180910390f35b610223610562565b6040516102369796959493929190611008565b60405180910390f35b61025960048036038101906102549190610cff565b6107cb565b005b61026361090f565b6040516102709190610fed565b60405180910390f35b6000600460149054906101000a900460ff16600481111561029d5761029c6112e8565b5b905090565b606060058054806020026020016040519081016040528092919081815260200182805480156102f057602002820191906000526020600020905b8154815260200190600101908083116102dc575b5050505050905090565b600061030860046002610935565b905090565b6000600160009054906101000a900473ffffffffffffffffffffffffffffffffffffffff16905090565b600061034560036002610935565b905090565b6000600481111561035e5761035d6112e8565b5b60048111156103705761036f6112e8565b5b600460149054906101000a900460ff166004811115610392576103916112e8565b5b146103d2576040517f08c379a00000000000000000000000000000000000000000000000000000000081526004016103c990611100565b60405180910390fd5b600160048111156103e6576103e56112e8565b5b600460146101000a81548160ff0219169083600481111561040a576104096112e8565b5b02179055508073ffffffffffffffffffffffffffffffffffffffff1663a3791bb3600460009054906101000a900473ffffffffffffffffffffffffffffffffffffffff166040518263ffffffff167c01000000000000000000000000000000000000000000000000000000000281526004016104869190610fed565b600060405180830381600087803b1580156104a057600080fd5b505af11580156104b4573d6000803e3d6000fd5b5050505050565b60006104c960016000610935565b905090565b60008060048111156104e3576104e26112e8565b5b600460146101000a81548160ff02191690836004811115610507576105066112e8565b5b021790555060054390806001815401808255809150506001900390600052602060002001600090919091909150556001905090565b600460149054906101000a900460ff1681565b600061055d60026001610935565b905090565b60008061056d610a33565b610575610a78565b600080606030600160009054906101000a900473ffffffffffffffffffffffffffffffffffffffff16600160009054906101000a900473ffffffffffffffffffffffffffffffffffffffff1673ffffffffffffffffffffffffffffffffffffffff1663e002c8a56040518163ffffffff167c010000000000000000000000000000000000000000000000000000000002815260040160006040518083038186803b15801561062257600080fd5b505afa158015610636573d6000803e3d6000fd5b505050506040513d6000823e3d601f19601f8201168201806040525081019061065f9190610d59565b600160009054906101000a900473ffffffffffffffffffffffffffffffffffffffff1673ffffffffffffffffffffffffffffffffffffffff1663732642106040518163ffffffff167c010000000000000000000000000000000000000000000000000000000002815260040160806040518083038186803b1580156106e357600080fd5b505afa1580156106f7573d6000803e3d6000fd5b505050506040513d601f19601f8201168201806040525081019061071b9190610d2c565b600460009054906101000a900473ffffffffffffffffffffffffffffffffffffffff16600460149054906101000a900460ff1660048111156107605761075f6112e8565b5b6005808054806020026020016040519081016040528092919081815260200182805480156107ad57602002820191906000526020600020905b815481526020019060010190808311610799575b50505050509050965096509650965096509650965090919293949596565b600160048111156107df576107de6112e8565b5b60048111156107f1576107f06112e8565b5b600460149054906101000a900460ff166004811115610813576108126112e8565b5b14610853576040517f08c379a000000000000000000000000000000000000000000000000000000000815260040161084a906110e0565b60405180910390fd5b60026004811115610867576108666112e8565b5b600460146101000a81548160ff0219169083600481111561088b5761088a6112e8565b5b02179055508073ffffffffffffffffffffffffffffffffffffffff1663df1f41c86040518163ffffffff167c0100000000000000000000000000000000000000000000000000000000028152600401600060405180830381600087803b1580156108f457600080fd5b505af1158015610908573d6000803e3d6000fd5b5050505050565b600160009054906101000a900473ffffffffffffffffffffffffffffffffffffffff1681565b600081600481111561094a576109496112e8565b5b600481111561095c5761095b6112e8565b5b600460149054906101000a900460ff16600481111561097e5761097d6112e8565b5b14156109f25760054390806001815401808255809150506001900390600052602060002001600090919091909150558260048111156109c0576109bf6112e8565b5b600460146101000a81548160ff021916908360048111156109e4576109e36112e8565b5b021790555060019050610a2d565b6040517f08c379a0000000000000000000000000000000000000000000000000000000008152600401610a2490611120565b60405180910390fd5b92915050565b6040518060a00160405280600073ffffffffffffffffffffffffffffffffffffffff168152602001606081526020016060815260200160608152602001600081525090565b6040518060800160405280600073ffffffffffffffffffffffffffffffffffffffff168152602001600073ffffffffffffffffffffffffffffffffffffffff168152602001600073ffffffffffffffffffffffffffffffffffffffff168152602001600073ffffffffffffffffffffffffffffffffffffffff1681525090565b6000610b0b610b0684611180565b61115b565b905082815260208101848484011115610b2757610b26611355565b5b610b32848285611284565b509392505050565b600081359050610b4981611404565b92915050565b600081519050610b5e81611404565b92915050565b600082601f830112610b7957610b78611346565b5b8151610b89848260208601610af8565b91505092915050565b600060808284031215610ba857610ba761134b565b5b610bb2608061115b565b90506000610bc284828501610b4f565b6000830152506020610bd684828501610b4f565b6020830152506040610bea84828501610b4f565b6040830152506060610bfe84828501610b4f565b60608301525092915050565b600060a08284031215610c2057610c1f61134b565b5b610c2a60a061115b565b90506000610c3a84828501610b4f565b600083015250602082015167ffffffffffffffff811115610c5e57610c5d611350565b5b610c6a84828501610b64565b602083015250604082015167ffffffffffffffff811115610c8e57610c8d611350565b5b610c9a84828501610b64565b604083015250606082015167ffffffffffffffff811115610cbe57610cbd611350565b5b610cca84828501610b64565b6060830152506080610cde84828501610cea565b60808301525092915050565b600081519050610cf98161141b565b92915050565b600060208284031215610d1557610d1461135f565b5b6000610d2384828501610b3a565b91505092915050565b600060808284031215610d4257610d4161135f565b5b6000610d5084828501610b92565b91505092915050565b600060208284031215610d6f57610d6e61135f565b5b600082015167ffffffffffffffff811115610d8d57610d8c61135a565b5b610d9984828501610c0a565b91505092915050565b6000610dae8383610fcf565b60208301905092915050565b610dc381611217565b82525050565b610dd281611217565b82525050565b6000610de3826111c1565b610ded81856111e4565b9350610df8836111b1565b8060005b83811015610e29578151610e108882610da2565b9750610e1b836111d7565b925050600181019050610dfc565b5085935050505092915050565b610e3f81611229565b82525050565b610e4e81611272565b82525050565b6000610e5f826111cc565b610e6981856111f5565b9350610e79818560208601611284565b610e8281611364565b840191505092915050565b6000610e9a600b83611206565b9150610ea582611375565b602082019050919050565b6000610ebd600a83611206565b9150610ec88261139e565b602082019050919050565b6000610ee0600a83611206565b9150610eeb826113c7565b602082019050919050565b608082016000820151610f0c6000850182610dba565b506020820151610f1f6020850182610dba565b506040820151610f326040850182610dba565b506060820151610f456060850182610dba565b50505050565b600060a083016000830151610f636000860182610dba565b5060208301518482036020860152610f7b8282610e54565b91505060408301518482036040860152610f958282610e54565b91505060608301518482036060860152610faf8282610e54565b9150506080830151610fc46080860182610fcf565b508091505092915050565b610fd881611268565b82525050565b610fe781611268565b82525050565b60006020820190506110026000830184610dc9565b92915050565b60006101408201905061101e600083018a610dc9565b61102b6020830189610dc9565b818103604083015261103d8188610f4b565b905061104c6060830187610ef6565b61105960e0830186610dc9565b611067610100830185610fde565b81810361012083015261107a8184610dd8565b905098975050505050505050565b600060208201905081810360008301526110a28184610dd8565b905092915050565b60006020820190506110bf6000830184610e36565b92915050565b60006020820190506110da6000830184610e45565b92915050565b600060208201905081810360008301526110f981610e8d565b9050919050565b6000602082019050818103600083015261111981610eb0565b9050919050565b6000602082019050818103600083015261113981610ed3565b9050919050565b60006020820190506111556000830184610fde565b92915050565b6000611165611176565b905061117182826112b7565b919050565b6000604051905090565b600067ffffffffffffffff82111561119b5761119a611317565b5b6111a482611364565b9050602081019050919050565b6000819050602082019050919050565b600081519050919050565b600081519050919050565b6000602082019050919050565b600082825260208201905092915050565b600082825260208201905092915050565b600082825260208201905092915050565b600061122282611248565b9050919050565b60008115159050919050565b6000819050611243826113f0565b919050565b600073ffffffffffffffffffffffffffffffffffffffff82169050919050565b6000819050919050565b600061127d82611235565b9050919050565b60005b838110156112a2578082015181840152602081019050611287565b838111156112b1576000848401525b50505050565b6112c082611364565b810181811067ffffffffffffffff821117156112df576112de611317565b5b80604052505050565b7f4e487b7100000000000000000000000000000000000000000000000000000000600052602160045260246000fd5b7f4e487b7100000000000000000000000000000000000000000000000000000000600052604160045260246000fd5b600080fd5b600080fd5b600080fd5b600080fd5b600080fd5b600080fd5b6000601f19601f8301169050919050565b7f4d5f4d53545f41545f502e000000000000000000000000000000000000000000600082015250565b7f4d5f4d53545f41545f4400000000000000000000000000000000000000000000600082015250565b7f494e5f50524f4345535300000000000000000000000000000000000000000000600082015250565b60058110611401576114006112e8565b5b50565b61140d81611217565b811461141857600080fd5b50565b61142481611268565b811461142f57600080fd5b5056fea26469706673582212204ae16995d8ea15bfae016564392451917cf37be6a2c693b22d30da90632cc7b364736f6c63430008070033a264697066735822122078e7becd6b3308b76abff4a070b5ba4413f83f098e4130339b7f6ca1fafe875a64736f6c63430008070033",
  "immutableReferences": {},
  "source": "// SPDX-License-Identifier: MIT\r\npragma solidity >=0.4.22 <0.9.0;\r\npragma experimental ABIEncoderV2;\r\n\r\nimport \"./User.sol\";\r\nimport \"./Medicine.sol\";\r\nimport \"./MedicineDP.sol\";\r\n\r\ncontract Distributor is User {\r\n    mapping(address => address[]) MedicineBatchesTransferred;\r\n    mapping(address => address[]) public TaggedTransporterMedicineSubBatchList;\r\n\r\n    modifier onlyDistributor {\r\n        require(UsersDetails[msg.sender].userRole == roles.distributor, \"ODCC\"); //\"Only Distributor can call this function.\"\r\n        _;\r\n    }\r\n\r\n    event MedicineTransferredDPInitiated(\r\n        address MedicineID,\r\n        address indexed SubContractID,\r\n        uint256 MedicineSubBatchStatus,\r\n        uint256[] transactionBlocksDP\r\n    );\r\n\r\n    event UpdatedMedicineStatusOnReceived(\r\n        address medicineId,\r\n        uint256 packageStatus,\r\n        uint256[] transactionBlocks\r\n    );\r\n\r\n    //Transfer received Medicine batch(from Manufacturer) to Pharma using tagged/associated shipper/transporter only. Only Distributor can call this.\r\n    //@param _medicineID Medicine Batch/Package ID Address\r\n    //@param _pharma Registered Pharma user Address\r\n    //@param _transporter Registered Shipper/Transporter user Address\r\n    function transferMedicineFromDistributorToPharma(\r\n        address _medicineId,\r\n        address _pharma,\r\n        address _transporter\r\n    ) public onlyDistributor {\r\n        MedicineDP medicineDPData = new MedicineDP(\r\n            _medicineId,\r\n            msg.sender,\r\n            _transporter,\r\n            _pharma\r\n        );\r\n        address medicineSubContractId = address(medicineDPData);\r\n        bool result = MedicineDP(medicineSubContractId)\r\n        .initiateMedicineSubBatchTransfer();\r\n        if (result) {\r\n            MedicineBatchesTransferred[msg.sender].push(\r\n                medicineSubContractId\r\n            );\r\n            TaggedTransporterMedicineSubBatchList[_transporter].push(\r\n                medicineSubContractId\r\n            );\r\n            emit MedicineTransferredDPInitiated(\r\n                _medicineId,\r\n                medicineSubContractId,\r\n                MedicineDP(medicineSubContractId).getMedicineSubBatchStatus(),\r\n                MedicineDP(medicineSubContractId).getTransactionBlocksDP()\r\n            );\r\n        }\r\n    }\r\n\r\n    //Reject received medicine batch if damaged\r\n    function rejectMedicineBatch(address _medicineId) public onlyDistributor {\r\n        bool result = Medicine(_medicineId).rejectMedicineBatchAtReceiver();\r\n        if (result) {\r\n            emit UpdatedMedicineStatusOnReceived(\r\n                _medicineId,\r\n                Medicine(_medicineId).getMedicineStatus(),\r\n                Medicine(_medicineId).getTransactionBlocks()\r\n            );\r\n        }\r\n    }\r\n\r\n    //Approve received medicine batch\r\n    function approveMedicineBatch(address _medicineId) public onlyDistributor {\r\n        bool result = Medicine(_medicineId).approveMedicineBatchAtReceiver();\r\n        if (result) {\r\n            emit UpdatedMedicineStatusOnReceived(\r\n                _medicineId,\r\n                Medicine(_medicineId).getMedicineStatus(),\r\n                Medicine(_medicineId).getTransactionBlocks()\r\n            );\r\n        }\r\n    }\r\n}\r\n",
  "sourcePath": "C:\\Development\\Blockchain\\Learning-2\\contracts\\Distributor.sol",
  "compiler": {
    "name": "solc",
    "version": "0.8.7+commit.e28d00a7.Emscripten.clang"
  },
  "schemaVersion": "3.4.1",
  "updatedAt": "2021-08-14T11:11:12.134Z",
  "devdoc": {
    "kind": "dev",
    "methods": {},
    "version": 1
  },
  "userdoc": {
    "kind": "user",
    "methods": {},
    "version": 1
  }
}