{
  "contractName": "Distributor",
  "abi": [
    {
      "anonymous": false,
      "inputs": [
        {
          "indexed": false,
          "internalType": "address",
          "name": "MedicineID",
          "type": "address"
        },
        {
          "indexed": true,
          "internalType": "address",
          "name": "Pharma",
          "type": "address"
        },
        {
          "indexed": true,
          "internalType": "address",
          "name": "Transporter",
          "type": "address"
        },
        {
          "indexed": true,
          "internalType": "address",
          "name": "SubContractID",
          "type": "address"
        }
      ],
      "name": "MedicineTransferredDPInitiated",
      "type": "event"
    },
    {
      "anonymous": false,
      "inputs": [
        {
          "indexed": true,
          "internalType": "address",
          "name": "UserAddress",
          "type": "address"
        },
        {
          "indexed": false,
          "internalType": "string",
          "name": "Name",
          "type": "string"
        }
      ],
      "name": "UserRegistered",
      "type": "event"
    },
    {
      "anonymous": false,
      "inputs": [
        {
          "indexed": true,
          "internalType": "address",
          "name": "UserAddress",
          "type": "address"
        },
        {
          "indexed": false,
          "internalType": "string",
          "name": "Name",
          "type": "string"
        },
        {
          "indexed": false,
          "internalType": "uint256",
          "name": "Role",
          "type": "uint256"
        }
      ],
      "name": "UserRoleReassigned",
      "type": "event"
    },
    {
      "anonymous": false,
      "inputs": [
        {
          "indexed": true,
          "internalType": "address",
          "name": "UserAddress",
          "type": "address"
        },
        {
          "indexed": false,
          "internalType": "string",
          "name": "Name",
          "type": "string"
        },
        {
          "indexed": false,
          "internalType": "uint256",
          "name": "Role",
          "type": "uint256"
        }
      ],
      "name": "UserRoleRevoked",
      "type": "event"
    },
    {
      "inputs": [
        {
          "internalType": "uint256",
          "name": "",
          "type": "uint256"
        }
      ],
      "name": "UserList",
      "outputs": [
        {
          "internalType": "address",
          "name": "userAddress",
          "type": "address"
        },
        {
          "internalType": "string",
          "name": "userName",
          "type": "string"
        },
        {
          "internalType": "string",
          "name": "userLocation",
          "type": "string"
        },
        {
          "internalType": "enum User.roles",
          "name": "userRole",
          "type": "uint8"
        },
        {
          "internalType": "string",
          "name": "userStatus",
          "type": "string"
        }
      ],
      "stateMutability": "view",
      "type": "function"
    },
    {
      "inputs": [
        {
          "internalType": "address",
          "name": "_address",
          "type": "address"
        }
      ],
      "name": "deleteUser",
      "outputs": [],
      "stateMutability": "nonpayable",
      "type": "function"
    },
    {
      "inputs": [
        {
          "internalType": "address",
          "name": "_address",
          "type": "address"
        }
      ],
      "name": "findAndDeactivateUser",
      "outputs": [],
      "stateMutability": "nonpayable",
      "type": "function"
    },
    {
      "inputs": [],
      "name": "getAllRegisteredUsers",
      "outputs": [
        {
          "components": [
            {
              "internalType": "address",
              "name": "userAddress",
              "type": "address"
            },
            {
              "internalType": "string",
              "name": "userName",
              "type": "string"
            },
            {
              "internalType": "string",
              "name": "userLocation",
              "type": "string"
            },
            {
              "internalType": "enum User.roles",
              "name": "userRole",
              "type": "uint8"
            },
            {
              "internalType": "string",
              "name": "userStatus",
              "type": "string"
            }
          ],
          "internalType": "struct User.UserInfo[]",
          "name": "",
          "type": "tuple[]"
        }
      ],
      "stateMutability": "view",
      "type": "function"
    },
    {
      "inputs": [
        {
          "internalType": "address",
          "name": "_address",
          "type": "address"
        }
      ],
      "name": "getUserInfo",
      "outputs": [
        {
          "components": [
            {
              "internalType": "address",
              "name": "userAddress",
              "type": "address"
            },
            {
              "internalType": "string",
              "name": "userName",
              "type": "string"
            },
            {
              "internalType": "string",
              "name": "userLocation",
              "type": "string"
            },
            {
              "internalType": "enum User.roles",
              "name": "userRole",
              "type": "uint8"
            },
            {
              "internalType": "string",
              "name": "userStatus",
              "type": "string"
            }
          ],
          "internalType": "struct User.UserInfo",
          "name": "",
          "type": "tuple"
        }
      ],
      "stateMutability": "view",
      "type": "function"
    },
    {
      "inputs": [],
      "name": "getUsersCount",
      "outputs": [
        {
          "internalType": "uint256",
          "name": "count",
          "type": "uint256"
        }
      ],
      "stateMutability": "view",
      "type": "function"
    },
    {
      "inputs": [],
      "name": "owner",
      "outputs": [
        {
          "internalType": "address",
          "name": "",
          "type": "address"
        }
      ],
      "stateMutability": "view",
      "type": "function"
    },
    {
      "inputs": [
        {
          "internalType": "address",
          "name": "_address",
          "type": "address"
        },
        {
          "internalType": "uint256",
          "name": "_role",
          "type": "uint256"
        }
      ],
      "name": "reAssignUserRole",
      "outputs": [],
      "stateMutability": "nonpayable",
      "type": "function"
    },
    {
      "inputs": [
        {
          "internalType": "address",
          "name": "_address",
          "type": "address"
        },
        {
          "internalType": "string",
          "name": "_name",
          "type": "string"
        },
        {
          "internalType": "string",
          "name": "_location",
          "type": "string"
        },
        {
          "internalType": "uint256",
          "name": "_role",
          "type": "uint256"
        },
        {
          "internalType": "string",
          "name": "_userStatus",
          "type": "string"
        }
      ],
      "name": "registerAdmin",
      "outputs": [],
      "stateMutability": "nonpayable",
      "type": "function"
    },
    {
      "inputs": [
        {
          "internalType": "address",
          "name": "_address",
          "type": "address"
        },
        {
          "internalType": "string",
          "name": "_name",
          "type": "string"
        },
        {
          "internalType": "string",
          "name": "_location",
          "type": "string"
        },
        {
          "internalType": "uint256",
          "name": "_role",
          "type": "uint256"
        },
        {
          "internalType": "string",
          "name": "_userStatus",
          "type": "string"
        }
      ],
      "name": "registerUser",
      "outputs": [],
      "stateMutability": "nonpayable",
      "type": "function"
    },
    {
      "inputs": [
        {
          "internalType": "address",
          "name": "_address",
          "type": "address"
        }
      ],
      "name": "revokeUserRole",
      "outputs": [],
      "stateMutability": "nonpayable",
      "type": "function"
    },
    {
      "inputs": [
        {
          "internalType": "address",
          "name": "_address",
          "type": "address"
        },
        {
          "internalType": "string",
          "name": "_name",
          "type": "string"
        },
        {
          "internalType": "string",
          "name": "_location",
          "type": "string"
        },
        {
          "internalType": "uint256",
          "name": "_role",
          "type": "uint256"
        },
        {
          "internalType": "string",
          "name": "_userStatus",
          "type": "string"
        }
      ],
      "name": "updateUser",
      "outputs": [],
      "stateMutability": "nonpayable",
      "type": "function"
    },
    {
      "inputs": [
        {
          "internalType": "address",
          "name": "_address",
          "type": "address"
        },
        {
          "internalType": "string",
          "name": "_userName",
          "type": "string"
        }
      ],
      "name": "validateUser",
      "outputs": [
        {
          "components": [
            {
              "internalType": "address",
              "name": "userAddress",
              "type": "address"
            },
            {
              "internalType": "string",
              "name": "userName",
              "type": "string"
            },
            {
              "internalType": "string",
              "name": "userLocation",
              "type": "string"
            },
            {
              "internalType": "enum User.roles",
              "name": "userRole",
              "type": "uint8"
            },
            {
              "internalType": "string",
              "name": "userStatus",
              "type": "string"
            }
          ],
          "internalType": "struct User.UserInfo",
          "name": "",
          "type": "tuple"
        }
      ],
      "stateMutability": "view",
      "type": "function"
    },
    {
      "inputs": [
        {
          "internalType": "address",
          "name": "_medicineID",
          "type": "address"
        }
      ],
      "name": "updateRecievedMedicinePackageStatus",
      "outputs": [],
      "stateMutability": "nonpayable",
      "type": "function"
    },
    {
      "inputs": [
        {
          "internalType": "address",
          "name": "_medicineID",
          "type": "address"
        }
      ],
      "name": "getReceivedMedicinePackageAtDistributorStatus",
      "outputs": [
        {
          "internalType": "uint256",
          "name": "",
          "type": "uint256"
        }
      ],
      "stateMutability": "view",
      "type": "function"
    },
    {
      "inputs": [],
      "name": "getReceivedMedicinePackagesCount",
      "outputs": [
        {
          "internalType": "uint256",
          "name": "",
          "type": "uint256"
        }
      ],
      "stateMutability": "view",
      "type": "function"
    },
    {
      "inputs": [
        {
          "internalType": "uint256",
          "name": "_index",
          "type": "uint256"
        }
      ],
      "name": "getReceivedMedicinePackageIDByIndex",
      "outputs": [
        {
          "internalType": "address",
          "name": "",
          "type": "address"
        }
      ],
      "stateMutability": "view",
      "type": "function"
    },
    {
      "inputs": [
        {
          "internalType": "address",
          "name": "_medicineID",
          "type": "address"
        },
        {
          "internalType": "address",
          "name": "_pharma",
          "type": "address"
        },
        {
          "internalType": "address",
          "name": "_transporter",
          "type": "address"
        }
      ],
      "name": "transferMedicineFromDistributorToPharma",
      "outputs": [],
      "stateMutability": "nonpayable",
      "type": "function"
    },
    {
      "inputs": [],
      "name": "getTransferredMedicineCountAtDP",
      "outputs": [
        {
          "internalType": "uint256",
          "name": "",
          "type": "uint256"
        }
      ],
      "stateMutability": "view",
      "type": "function"
    },
    {
      "inputs": [
        {
          "internalType": "uint256",
          "name": "_index",
          "type": "uint256"
        }
      ],
      "name": "getTransferredMedicineTxIDByIndex",
      "outputs": [
        {
          "internalType": "address",
          "name": "",
          "type": "address"
        }
      ],
      "stateMutability": "view",
      "type": "function"
    },
    {
      "inputs": [
        {
          "internalType": "address",
          "name": "_medicineID",
          "type": "address"
        }
      ],
      "name": "getMedicineSubContractDP",
      "outputs": [
        {
          "internalType": "address",
          "name": "",
          "type": "address"
        }
      ],
      "stateMutability": "view",
      "type": "function"
    }
  ],
  "bytecode": "0x608060405234801561001057600080fd5b5060008054600160a060020a03191633179055612c4a806100326000396000f3fe60806040523480156200001157600080fd5b5060043610620001215760e060020a60003504632f0c2127811462000126578063397388af146200013f57806339d139e214620001615780633b549a6814620001875780633bb3ec9e146200019e57806345f5b55f14620001b557806353c56cb114620001cc5780635c60f22614620001e55780636386c1c714620001fc5780636ab5d88c14620002225780638da5cb5b1462000239578063a00453c0146200024d578063a20fa3931462000264578063a4a1e263146200027b578063babe16551462000284578063bd73b25d14620002ae578063ce6bc3f514620002c5578063e299476714620002dc578063eaa2f67f14620002f3578063ed0c3cd6146200030a578063f0beeb801462000321575b600080fd5b6200013d6200013736600462002098565b6200032b565b005b620001496200063d565b60405162000158919062002460565b60405180910390f35b62000178620001723660046200207a565b6200090a565b604051620001589190620023e1565b620001786200019836600462002210565b6200097d565b6200013d620001af36600462002135565b62000a0d565b6200013d620001c6366004620021e3565b62000d58565b620001d662000f5c565b60405190815260200162000158565b6200013d620001f63660046200207a565b62000fc1565b620002136200020d3660046200207a565b620010af565b60405162000158919062002567565b6200013d6200023336600462002135565b620012fa565b6000546200017890600160a060020a031681565b6200013d6200025e36600462002135565b6200161f565b620001d6620002753660046200207a565b6200166a565b600354620001d6565b6200029b6200029536600462002210565b620016ea565b60405162000158959493929190620023f5565b6200013d620002bf3660046200207a565b620018f0565b6200013d620002d63660046200207a565b62001ab2565b6200013d620002ed3660046200207a565b62001ba6565b6200021362000304366004620020e2565b62001c75565b620001786200031b36600462002210565b62001df4565b620001d662001e69565b60053360009081526002602052604090206003015460ff166008811115620003575762000357620025eb565b14620003835760405160e560020a62461bcd0281526004016200037a90620024fe565b60405180910390fd5b6006600160a060020a03831660009081526002602052604090206003015460ff166008811115620003b857620003b8620025eb565b14620003fd5760405160e560020a62461bcd02815260206004820152600d6024820152609860020a6c504841524d415f4e545f5245470260448201526064016200037a565b6002600160a060020a03821660009081526002602052604090206003015460ff166008811115620004325762000432620025eb565b14620004765760405160e560020a62461bcd02815260206004820152600c602482015260a060020a6b5452414e535f4e545f5245470260448201526064016200037a565b82600160a060020a03166373b037db6040518163ffffffff1660e060020a02815260040160206040518083038186803b158015620004b357600080fd5b505afa158015620004c8573d6000803e3d6000fd5b505050506040513d601f19601f82011682018060405250810190620004ee91906200222a565b600214620005425760405160e560020a62461bcd02815260206004820152601e60248201527f5061636b616765206d757374206265206174204469737472696275746f72000060448201526064016200037a565b600083338385604051620005569062001ece565b600160a060020a039485168152928416602084015290831660408301529091166060820152608001604051809103906000f0801580156200059b573d6000803e3d6000fd5b503360009081526005602090815260408083208054600181018255908452828420018054600160a060020a03808716600160a060020a031992831681179093558a8116865260069094529382902080549094168117909355519293509091848216918616907f50bf7231449b93ffe1b35cd454fecbae3fe675b9da334b28fef1883552293bd5906200062f908990620023e1565b60405180910390a450505050565b606060083360009081526002602052604090206003015460ff1660088111156200066b576200066b620025eb565b146200068e5760405160e560020a62461bcd0281526004016200037a9062002546565b6001805480602002602001604051908101604052809291908181526020016000905b82821015620009015760008481526020908190206040805160a08101909152600585029091018054600160a060020a031682526001810180549293919291840191620006fc906200257c565b80601f01602080910402602001604051908101604052809291908181526020018280546200072a906200257c565b80156200077b5780601f106200074f576101008083540402835291602001916200077b565b820191906000526020600020905b8154815290600101906020018083116200075d57829003601f168201915b5050505050815260200160028201805462000796906200257c565b80601f0160208091040260200160405190810160405280929190818152602001828054620007c4906200257c565b8015620008155780601f10620007e95761010080835404028352916020019162000815565b820191906000526020600020905b815481529060010190602001808311620007f757829003601f168201915b5050509183525050600382015460209091019060ff1660088111156200083f576200083f620025eb565b6008811115620008535762000853620025eb565b815260200160048201805462000869906200257c565b80601f016020809104026020016040519081016040528092919081815260200182805462000897906200257c565b8015620008e85780601f10620008bc57610100808354040283529160200191620008e8565b820191906000526020600020905b815481529060010190602001808311620008ca57829003601f168201915b50505050508152505081526020019060010190620006b0565b50505050905090565b600060053360009081526002602052604090206003015460ff166008811115620009385762000938620025eb565b146200095b5760405160e560020a62461bcd0281526004016200037a90620024fe565b50600160a060020a03808216600090815260066020526040902054165b919050565b600060053360009081526002602052604090206003015460ff166008811115620009ab57620009ab620025eb565b14620009ce5760405160e560020a62461bcd0281526004016200037a90620024fe565b336000908152600560205260409020805483908110620009f257620009f262002605565b600091825260209091200154600160a060020a031692915050565b60083360009081526002602052604090206003015460ff16600881111562000a395762000a39620025eb565b1462000a5c5760405160e560020a62461bcd0281526004016200037a9062002546565b600160a060020a03808616600081815260026020526040902054909116141562000abb5760405160e560020a62461bcd028152602060048201526009602482015260ba60020a681554d497d1561254d50260448201526064016200037a565b62000ac562001edc565b600160a060020a0386168152602081018590526040810184905282600881111562000af45762000af4620025eb565b8160600190600881111562000b0d5762000b0d620025eb565b9081600881111562000b235762000b23620025eb565b90525060808101829052600160a060020a03868116600090815260026020908152604090912083518154600160a060020a031916931692909217825580830151805184939262000b7b92600185019291019062001f28565b506040820151805162000b9991600284019160209091019062001f28565b50606082015160038201805460ff1916600183600881111562000bc05762000bc0620025eb565b02179055506080820151805162000be291600484019160209091019062001f28565b505081516003805460018082019092557fc2575a0e9e593c00f959f8c92f12db2869c3395a3b0502d05e2516446f71f85b018054600160a060020a0319908116600160a060020a03948516179091558154808301835560009290925284517fb10e2d527612073b26eecdfd717e6a320cf44b4afac2b0732d9fcbe2b7fa0cf6600590930292830180549092169316929092178255602080850151805186955062000cb4937fb10e2d527612073b26eecdfd717e6a320cf44b4afac2b0732d9fcbe2b7fa0cf70192919091019062001f28565b506040820151805162000cd291600284019160209091019062001f28565b50606082015160038201805460ff1916600183600881111562000cf95762000cf9620025eb565b02179055506080820151805162000d1b91600484019160209091019062001f28565b50505085600160a060020a031660008051602062002bf58339815191528660405162000d489190620024c5565b60405180910390a2505050505050565b60083360009081526002602052604090206003015460ff16600881111562000d845762000d84620025eb565b1462000da75760405160e560020a62461bcd0281526004016200037a9062002546565b600160a060020a038083166000818152600260205260409020549091161462000de75760405160e560020a62461bcd0281526004016200037a906200251f565b600062000df483620010af565b905081600881111562000e0b5762000e0b620025eb565b8160600190600881111562000e245762000e24620025eb565b9081600881111562000e3a5762000e3a620025eb565b905250600160a060020a03838116600090815260026020908152604090912083518154600160a060020a031916931692909217825582810151805184939262000e8b92600185019291019062001f28565b506040820151805162000ea991600284019160209091019062001f28565b50606082015160038201805460ff1916600183600881111562000ed05762000ed0620025eb565b02179055506080820151805162000ef291600484019160209091019062001f28565b5090505082600160a060020a03167f5a2f045370e4381799dd282fd5f3a534028572dc56a8e9ff1f6184b575e584ef82602001518360600151600881111562000f3f5762000f3f620025eb565b60405162000f4f929190620024da565b60405180910390a2505050565b600060053360009081526002602052604090206003015460ff16600881111562000f8a5762000f8a620025eb565b1462000fad5760405160e560020a62461bcd0281526004016200037a90620024fe565b503360009081526004602052604090205490565b60083360009081526002602052604090206003015460ff16600881111562000fed5762000fed620025eb565b14620010105760405160e560020a62461bcd0281526004016200037a9062002546565b600160a060020a0380821660008181526002602052604090205490911614620010505760405160e560020a62461bcd0281526004016200037a906200251f565b6040805180820182526008815260c060020a67496e616374697665026020808301918252600160a060020a03851660009081526002909152929092209051620010a0926004909201919062001f28565b50620010ac8162001ba6565b50565b620010b962001edc565b600160a060020a03808316600090815260026020908152604091829020825160a081019093528054909316825260018301805492939291840191620010fe906200257c565b80601f01602080910402602001604051908101604052809291908181526020018280546200112c906200257c565b80156200117d5780601f1062001151576101008083540402835291602001916200117d565b820191906000526020600020905b8154815290600101906020018083116200115f57829003601f168201915b5050505050815260200160028201805462001198906200257c565b80601f0160208091040260200160405190810160405280929190818152602001828054620011c6906200257c565b8015620012175780601f10620011eb5761010080835404028352916020019162001217565b820191906000526020600020905b815481529060010190602001808311620011f957829003601f168201915b5050509183525050600382015460209091019060ff166008811115620012415762001241620025eb565b6008811115620012555762001255620025eb565b81526020016004820180546200126b906200257c565b80601f016020809104026020016040519081016040528092919081815260200182805462001299906200257c565b8015620012ea5780601f10620012be57610100808354040283529160200191620012ea565b820191906000526020600020905b815481529060010190602001808311620012cc57829003601f168201915b5050505050815250509050919050565b60083360009081526002602052604090206003015460ff166008811115620013265762001326620025eb565b14620013495760405160e560020a62461bcd0281526004016200037a9062002546565b600160a060020a0380861660008181526002602052604090205490911614620013895760405160e560020a62461bcd0281526004016200037a906200251f565b600160a060020a03851660009081526002602090815260409091208551620013ba9260019092019187019062001f28565b50600160a060020a03851660009081526002602081815260409092208551620013ec9391909201919086019062001f28565b50816008811115620014025762001402620025eb565b600160a060020a0386166000908152600260205260409020600301805460ff191660018360088111156200143a576200143a620025eb565b0217905550600160a060020a03851660009081526002602090815260409091208251620014709260049092019184019062001f28565b506000805b600154811015620014da5786600160a060020a031660018281548110620014a057620014a062002605565b6000918252602090912060059091020154600160a060020a03161415620014c5578091505b80620014d181620025bd565b91505062001475565b508460018281548110620014f257620014f262002605565b906000526020600020906005020160010190805190602001906200151892919062001f28565b50836001828154811062001530576200153062002605565b906000526020600020906005020160020190805190602001906200155692919062001f28565b508260088111156200156c576200156c620025eb565b6001828154811062001582576200158262002605565b60009182526020909120600360059092020101805460ff19166001836008811115620015b257620015b2620025eb565b02179055508160018281548110620015ce57620015ce62002605565b90600052602060002090600502016004019080519060200190620015f492919062001f28565b5085600160a060020a031660008051602062002bf58339815191528660405162000d489190620024c5565b600054600160a060020a0316331462000a5c5760405160e560020a62461bcd0281526004016200037a90602080825260049082015260e060020a634f57434302604082015260600190565b600081600160a060020a03166373b037db6040518163ffffffff1660e060020a02815260040160206040518083038186803b158015620016a957600080fd5b505afa158015620016be573d6000803e3d6000fd5b505050506040513d601f19601f82011682018060405250810190620016e491906200222a565b92915050565b60018181548110620016fb57600080fd5b600091825260209091206005909102018054600182018054600160a060020a039092169350906200172c906200257c565b80601f01602080910402602001604051908101604052809291908181526020018280546200175a906200257c565b8015620017ab5780601f106200177f57610100808354040283529160200191620017ab565b820191906000526020600020905b8154815290600101906020018083116200178d57829003601f168201915b505050505090806002018054620017c2906200257c565b80601f0160208091040260200160405190810160405280929190818152602001828054620017f0906200257c565b8015620018415780601f10620018155761010080835404028352916020019162001841565b820191906000526020600020905b8154815290600101906020018083116200182357829003601f168201915b5050506003840154600485018054949560ff90921694919350915062001867906200257c565b80601f016020809104026020016040519081016040528092919081815260200182805462001895906200257c565b8015620018e65780601f10620018ba57610100808354040283529160200191620018e6565b820191906000526020600020905b815481529060010190602001808311620018c857829003601f168201915b5050505050905085565b60083360009081526002602052604090206003015460ff1660088111156200191c576200191c620025eb565b146200193f5760405160e560020a62461bcd0281526004016200037a9062002546565b600160a060020a03808216600081815260026020526040902054909116146200197f5760405160e560020a62461bcd0281526004016200037a906200251f565b60006200198c82620010af565b60076060820152600160a060020a03838116600090815260026020908152604090912083518154600160a060020a03191693169290921782558083015180519394508493620019e2926001850192019062001f28565b506040820151805162001a0091600284019160209091019062001f28565b50606082015160038201805460ff1916600183600881111562001a275762001a27620025eb565b02179055506080820151805162001a4991600484019160209091019062001f28565b5090505081600160a060020a03167f18a4c0aa2d0b9e55cfd3c133652630cc693f845135ba74f56f45c8d38910ce5c82602001518360600151600881111562001a965762001a96620025eb565b60405162001aa6929190620024da565b60405180910390a25050565b60053360009081526002602052604090206003015460ff16600881111562001ade5762001ade620025eb565b1462001b015760405160e560020a62461bcd0281526004016200037a90620024fe565b60405160e060020a633787fb3d028152600160a060020a03821690633787fb3d9062001b32903390600401620023e1565b600060405180830381600087803b15801562001b4d57600080fd5b505af115801562001b62573d6000803e3d6000fd5b5050336000908152600460209081526040822080546001810182559083529120018054600160a060020a031916600160a060020a0394909416939093179092555050565b6000805b60015481101562001c0f5782600160a060020a03166001828154811062001bd55762001bd562002605565b6000918252602090912060059091020154600160a060020a0316141562001bfa578091505b8062001c0681620025bd565b91505062001baa565b5060405180604001604052806008815260200160c060020a67496e616374697665028152506001828154811062001c4a5762001c4a62002605565b9060005260206000209060050201600401908051906020019062001c7092919062001f28565b505050565b62001c7f62001edc565b600160a060020a038084166000818152600260205260409020549091161462001cbf5760405160e560020a62461bcd0281526004016200037a906200251f565b81805190602001206002600085600160a060020a0316600160a060020a0316815260200190815260200160002060010160405162001cfe91906200233a565b60405180910390201462001d295760405160e560020a62461bcd0281526004016200037a906200251f565b6040805180820182526006815260d060020a6541637469766502602091820152600160a060020a0385166000908152600290915281902090517ff07b88471cd28dc438f2291190512bd968fbd79b8c86b9ed015e51c1261d911f9162001d95916004909101906200233a565b60405180910390201462001de25760405160e560020a62461bcd02815260206004820152600d6024820152609860020a6c5553525f4e545f4143544956450260448201526064016200037a565b62001ded83620010af565b9392505050565b600060053360009081526002602052604090206003015460ff16600881111562001e225762001e22620025eb565b1462001e455760405160e560020a62461bcd0281526004016200037a90620024fe565b336000908152600460205260409020805483908110620009f257620009f262002605565b600060053360009081526002602052604090206003015460ff16600881111562001e975762001e97620025eb565b1462001eba5760405160e560020a62461bcd0281526004016200037a90620024fe565b503360009081526005602052604090205490565b6105bb806200263a83390190565b6040518060a001604052806000600160a060020a0316815260200160608152602001606081526020016000600881111562001f1b5762001f1b620025eb565b8152602001606081525090565b82805462001f36906200257c565b90600052602060002090601f01602090048101928262001f5a576000855562001fa5565b82601f1062001f7557805160ff191683800117855562001fa5565b8280016001018555821562001fa5579182015b8281111562001fa557825182559160200191906001019062001f88565b5062001fb392915062001fb7565b5090565b5b8082111562001fb3576000815560010162001fb8565b8035600160a060020a03811681146200097857600080fd5b600082601f83011262001ff857600080fd5b81356001604060020a03808211156200201557620020156200261f565b604051601f8301601f19908116603f011681019082821181831017156200204057620020406200261f565b816040528381528660208588010111156200205a57600080fd5b836020870160208301376000602085830101528094505050505092915050565b6000602082840312156200208d57600080fd5b62001ded8262001fce565b600080600060608486031215620020ae57600080fd5b620020b98462001fce565b9250620020c96020850162001fce565b9150620020d96040850162001fce565b90509250925092565b60008060408385031215620020f657600080fd5b620021018362001fce565b915060208301356001604060020a038111156200211d57600080fd5b6200212b8582860162001fe6565b9150509250929050565b600080600080600060a086880312156200214e57600080fd5b620021598662001fce565b945060208601356001604060020a03808211156200217657600080fd5b6200218489838a0162001fe6565b955060408801359150808211156200219b57600080fd5b620021a989838a0162001fe6565b9450606088013593506080880135915080821115620021c757600080fd5b50620021d68882890162001fe6565b9150509295509295909350565b60008060408385031215620021f757600080fd5b620022028362001fce565b946020939093013593505050565b6000602082840312156200222357600080fd5b5035919050565b6000602082840312156200223d57600080fd5b5051919050565b60098110620022675760e060020a634e487b710260009081526021600452602490fd5b9052565b6000815180845260005b81811015620022935760208185018101518683018201520162002275565b81811115620022a6576000602083870101525b50601f01601f19169290920160200192915050565b600160a060020a0381511682526000602082015160a06020850152620022e560a08501826200226b565b9050604083015184820360408601526200230082826200226b565b915050606083015162002317606086018262002244565b50608083015184820360808601526200233182826200226b565b95945050505050565b81546000908190600281046001808316806200235757607f831692505b60208084108214156200237b5760e060020a634e487b710286526022600452602486fd5b818015620023925760018114620023a457620023d3565b60ff19861689528489019650620023d3565b60008a81526020902060005b86811015620023cb5781548b820152908501908301620023b0565b505084890196505b509498975050505050505050565b600160a060020a0391909116815260200190565b600160a060020a038616815260a0602082018190526000906200241b908301876200226b565b82810360408401526200242f81876200226b565b905062002440606084018662002244565b82810360808401526200245481856200226b565b98975050505050505050565b600060208083018184528085518083526040860191506040848202870101925083870160005b82811015620024b857603f19888603018452620024a5858351620022bb565b9450928501929085019060010162002486565b5092979650505050505050565b60208152600062001ded60208301846200226b565b604081526000620024ef60408301856200226b565b90508260208301529392505050565b602080825260049082015260e060020a634f44434302604082015260600190565b6020808252600a9082015260b060020a695553525f4e545f52454702604082015260600190565b602080825260049082015260e060020a634f41434302604082015260600190565b60208152600062001ded6020830184620022bb565b6002810460018216806200259157607f821691505b60208210811415620025b75760e060020a634e487b710260009081526022600452602490fd5b50919050565b6000600019821415620025e45760e060020a634e487b710260009081526011600452602490fd5b5060010190565b60e060020a634e487b710260009081526021600452602490fd5b60e060020a634e487b710260009081526032600452602490fd5b60e060020a634e487b710260009081526041600452602490fdfe608060405234801561001057600080fd5b506040516105bb3803806105bb83398101604081905261002f916100e0565b60008054600160a060020a0319908116600160a060020a038681169182178455600180548416898316179055600380548416909217909155600480548316858316179055600280549092169085161790556004805460a060020a60ff021916740100000000000000000000000000000000000000008360028111156100b6576100b6610134565b021790555050505050610163565b8051600160a060020a03811681146100db57600080fd5b919050565b600080600080608085870312156100f657600080fd5b6100ff856100c4565b935061010d602086016100c4565b925061011b604086016100c4565b9150610129606086016100c4565b905092959194509250565b7f4e487b7100000000000000000000000000000000000000000000000000000000600052602160045260246000fd5b610449806101726000396000f3fe608060405234801561001057600080fd5b506004361061004f5760e060020a6000350463662a68528114610054578063678dd11814610069578063b12144cb14610093578063e3837b04146100a6575b600080fd5b610067610062366004610386565b6100c6565b005b60045461007d9060a060020a900460ff1681565b60405161008a91906103cd565b60405180910390f35b6100676100a1366004610386565b610226565b6001546100b990600160a060020a031681565b60405161008a91906103b9565b600454600160a060020a038281169116146101165760405160e560020a62461bcd028152602060048201526005602482015260d860020a644f525043430260448201526064015b60405180910390fd5b600160045460a060020a900460ff166002811115610136576101366103f9565b146101aa5760405160e560020a62461bcd02815260206004820152603860248201527f4d65646963696e65207061636b616765206d75737420626520617420706861726044820152604160020a7736b0903132b337b9329039ba30ba3ab9903ab83230ba329702606482015260840161010d565b6004805460a160020a60a060020a60ff0219821617825560405160e060020a63b0323d63028152600160a060020a038581169363b0323d63936101f093921691016103b9565b600060405180830381600087803b15801561020a57600080fd5b505af115801561021e573d6000803e3d6000fd5b505050505050565b600254600160a060020a038281169116146102725760405160e560020a62461bcd02815260040161010d90602080825260049082015260e060020a634f53434302604082015260600190565b600060045460a060020a900460ff166002811115610292576102926103f9565b146103175760405160e560020a62461bcd02815260206004820152604360248201527f4d65646963696e65207061636b616765206d757374206265206174206469737460448201527f72696275746f72206265666f72652073686970706d656e7420746f2070686172606482015260e960020a6236b09702608482015260a40161010d565b6004805460a060020a60a060020a60ff0219821617825560405160e660020a630233ab91028152600160a060020a0384811693820193909352908216602482015290831690638ceae440906044016101f0565b8035600160a060020a038116811461038157600080fd5b919050565b6000806040838503121561039957600080fd5b6103a28361036a565b91506103b06020840161036a565b90509250929050565b600160a060020a0391909116815260200190565b60208101600383106103f35760e060020a634e487b710260009081526021600452602490fd5b91905290565b60e060020a634e487b710260009081526021600452602490fdfea26469706673582212200b2ccddc66f184974cd29f18ac978f52ec4abc3999d03d0be5e6f3138cb3b0c164736f6c6343000806003348cac28ad4dc618e15f4c2dd5e97751182f166de97b25618318b2112aa951a2fa26469706673582212202f453c7e092c9f4957c4ba48e56c46b6a92bdcdd8c2527f889cce3e71e7eecb964736f6c63430008060033",
  "immutableReferences": {},
  "source": "// SPDX-License-Identifier: MIT\r\npragma solidity >=0.4.22 <0.9.0;\r\npragma experimental ABIEncoderV2;\r\n\r\nimport \"./User.sol\";\r\nimport \"./Medicine.sol\";\r\nimport \"./MedicineDP.sol\";\r\n\r\ncontract Distributor is User {\r\n    mapping(address => address[]) MedicinePackagesReceivedAtDistributor; // Track list of medicine batches received by each ditributor.\r\n    mapping(address => address[]) MedicinesTransferredToPharma; // Track list of medicine batches transferred to diff Pharma by 1 distributor.\r\n    mapping(address => address) MedicineBatchTxToPharmaContract; // Track each transaction happened between Dist to Pharma w.r.t to Medicine transferred.\r\n\r\n    modifier onlyDistributor {\r\n        require(UsersDetails[msg.sender].userRole == roles.distributor, \"ODCC\"); //\"Only Distributor can call this function.\"\r\n        _;\r\n    }\r\n\r\n    event MedicineTransferredDPInitiated(\r\n        address MedicineID,\r\n        address indexed Pharma,\r\n        address indexed Transporter,\r\n        address indexed SubContractID\r\n    );\r\n\r\n    //Recieve & update medicine package shippment status for supplied package ID by tagged/associated receiver/distributor. Update MedicinePackagesReceivedAtDistributor mapping\r\n    //@param _medicineID Medicine/Package/batch ID Address\r\n    function updateRecievedMedicinePackageStatus(address _medicineID)\r\n        public\r\n        onlyDistributor\r\n    {\r\n        Medicine(_medicineID).updatePackageStatusOnReceivedByDistributor(\r\n            msg.sender\r\n        );\r\n        MedicinePackagesReceivedAtDistributor[msg.sender].push(_medicineID);\r\n    }\r\n\r\n    //Retrieve medicine/package shippment status using packageID. Only Distributor can call this.\r\n    //@param _medicineID Medicine/Batch/Package ID Address\r\n    function getReceivedMedicinePackageAtDistributorStatus(address _medicineID)\r\n        public\r\n        view\r\n        returns (uint256)\r\n    {\r\n        return Medicine(_medicineID).getMedicineStatus();\r\n    }\r\n\r\n    //Retrieve number of medicine packages received to particular distributor. Only Distributor can call this.\r\n    function getReceivedMedicinePackagesCount()\r\n        public\r\n        view\r\n        onlyDistributor\r\n        returns (uint256)\r\n    {\r\n        return MedicinePackagesReceivedAtDistributor[msg.sender].length;\r\n    }\r\n\r\n    //Retrieve  medicine/package ID using index registered by Manufacturer. Only Distributor can call this.\r\n    //@param _index Uint\r\n    function getReceivedMedicinePackageIDByIndex(uint256 _index)\r\n        public\r\n        view\r\n        onlyDistributor\r\n        returns (address)\r\n    {\r\n        return MedicinePackagesReceivedAtDistributor[msg.sender][_index];\r\n    }\r\n\r\n    //Transfer received Medicine batch(from Manufacturer) to Pharma using tagged/associated shipper/transporter only. Only Distributor can call this.\r\n    //@param _medicineID Medicine Batch/Package ID Address\r\n    //@param _pharma Registered Pharma user Address\r\n    //@param _transporter Registered Shipper/Transporter user Address\r\n    function transferMedicineFromDistributorToPharma(\r\n        address _medicineID,\r\n        address _pharma,\r\n        address _transporter\r\n    ) public onlyDistributor {\r\n        require(\r\n            UsersDetails[_pharma].userRole == roles.pharma,\r\n            \"PHARMA_NT_REG\"\r\n        ); //Only Registered Pharma is allowed.\r\n        require(\r\n            UsersDetails[_transporter].userRole == roles.transporter,\r\n            \"TRANS_NT_REG\"\r\n        ); //Only Registered Transporter/Shipper is allowed.\r\n        require(\r\n            Medicine(_medicineID).getMedicineStatus() == 2,\r\n            \"Package must be at Distributor\"\r\n        );\r\n        MedicineDP medicineDPData = new MedicineDP(\r\n            _medicineID,\r\n            msg.sender,\r\n            _transporter,\r\n            _pharma\r\n        );\r\n        MedicinesTransferredToPharma[msg.sender].push(address(medicineDPData));\r\n        MedicineBatchTxToPharmaContract[_medicineID] = address(medicineDPData);\r\n        emit MedicineTransferredDPInitiated(\r\n            _medicineID,\r\n            _pharma,\r\n            _transporter,\r\n            address(medicineDPData)\r\n        );\r\n    }\r\n\r\n    //Retrieve number of medicine packages transferred to diff pharmas by 1 distributor. Only Distributor can call this.\r\n    function getTransferredMedicineCountAtDP()\r\n        public\r\n        view\r\n        onlyDistributor\r\n        returns (uint256)\r\n    {\r\n        return MedicinesTransferredToPharma[msg.sender].length;\r\n    }\r\n\r\n    //Retrieve  medicine/package ID using index registered by Manufacturer. Only Distributor can call this.\r\n    //@param _index Uint\r\n    function getTransferredMedicineTxIDByIndex(uint256 _index)\r\n        public\r\n        view\r\n        onlyDistributor\r\n        returns (address)\r\n    {\r\n        return MedicinesTransferredToPharma[msg.sender][_index];\r\n    }\r\n\r\n    //Retrieve SubContract ID of Medicine Batch Transfer in between Distributor to Pharma\r\n    //@param _medicineID Medicine BatchID/MedicineID Address\r\n    function getMedicineSubContractDP(address _medicineID)\r\n        public\r\n        view\r\n        onlyDistributor\r\n        returns (address)\r\n    {\r\n        return MedicineBatchTxToPharmaContract[_medicineID];\r\n    }\r\n}\r\n",
  "sourcePath": "C:\\Development\\Blockchain\\Learning-2\\contracts\\Distributor.sol",
  "compiler": {
    "name": "solc",
    "version": "0.8.6+commit.11564f7e.Emscripten.clang"
  },
  "schemaVersion": "3.4.1",
  "updatedAt": "2021-07-07T13:26:47.732Z",
  "devdoc": {
    "kind": "dev",
    "methods": {},
    "version": 1
  },
  "userdoc": {
    "kind": "user",
    "methods": {},
    "version": 1
  }
}