{
  "contractName": "Distributor",
  "abi": [
    {
      "anonymous": false,
      "inputs": [
        {
          "indexed": false,
          "internalType": "address",
          "name": "MedicineID",
          "type": "address"
        },
        {
          "indexed": true,
          "internalType": "address",
          "name": "SubContractID",
          "type": "address"
        },
        {
          "indexed": false,
          "internalType": "uint256",
          "name": "MedicineStatus",
          "type": "uint256"
        }
      ],
      "name": "MedicineTransferredDPInitiated",
      "type": "event"
    },
    {
      "inputs": [
        {
          "internalType": "uint256",
          "name": "",
          "type": "uint256"
        }
      ],
      "name": "UserList",
      "outputs": [
        {
          "internalType": "address",
          "name": "userAddress",
          "type": "address"
        },
        {
          "internalType": "string",
          "name": "userName",
          "type": "string"
        },
        {
          "internalType": "string",
          "name": "userLocation",
          "type": "string"
        },
        {
          "internalType": "enum User.roles",
          "name": "userRole",
          "type": "uint8"
        },
        {
          "internalType": "string",
          "name": "userStatus",
          "type": "string"
        },
        {
          "internalType": "bool",
          "name": "isDeleted",
          "type": "bool"
        }
      ],
      "stateMutability": "view",
      "type": "function"
    },
    {
      "inputs": [
        {
          "internalType": "address",
          "name": "_address",
          "type": "address"
        }
      ],
      "name": "deleteUser",
      "outputs": [],
      "stateMutability": "nonpayable",
      "type": "function"
    },
    {
      "inputs": [],
      "name": "owner",
      "outputs": [
        {
          "internalType": "address",
          "name": "",
          "type": "address"
        }
      ],
      "stateMutability": "view",
      "type": "function"
    },
    {
      "inputs": [
        {
          "internalType": "address",
          "name": "_address",
          "type": "address"
        },
        {
          "internalType": "string",
          "name": "_name",
          "type": "string"
        },
        {
          "internalType": "string",
          "name": "_location",
          "type": "string"
        },
        {
          "internalType": "uint256",
          "name": "_role",
          "type": "uint256"
        },
        {
          "internalType": "string",
          "name": "_userStatus",
          "type": "string"
        }
      ],
      "name": "registerAdmin",
      "outputs": [],
      "stateMutability": "nonpayable",
      "type": "function"
    },
    {
      "inputs": [
        {
          "internalType": "address",
          "name": "_address",
          "type": "address"
        },
        {
          "internalType": "string",
          "name": "_name",
          "type": "string"
        },
        {
          "internalType": "string",
          "name": "_location",
          "type": "string"
        },
        {
          "internalType": "uint256",
          "name": "_role",
          "type": "uint256"
        },
        {
          "internalType": "string",
          "name": "_userStatus",
          "type": "string"
        }
      ],
      "name": "registerUser",
      "outputs": [],
      "stateMutability": "nonpayable",
      "type": "function"
    },
    {
      "inputs": [
        {
          "internalType": "address",
          "name": "_address",
          "type": "address"
        },
        {
          "internalType": "string",
          "name": "_location",
          "type": "string"
        },
        {
          "internalType": "string",
          "name": "_userStatus",
          "type": "string"
        }
      ],
      "name": "updateUser",
      "outputs": [],
      "stateMutability": "nonpayable",
      "type": "function"
    },
    {
      "inputs": [
        {
          "internalType": "address",
          "name": "_medicineID",
          "type": "address"
        },
        {
          "internalType": "address",
          "name": "_pharma",
          "type": "address"
        },
        {
          "internalType": "address",
          "name": "_transporter",
          "type": "address"
        }
      ],
      "name": "transferMedicineFromDistributorToPharma",
      "outputs": [],
      "stateMutability": "nonpayable",
      "type": "function"
    }
  ],
  "bytecode": "0x608060405234801561001057600080fd5b5060008054600160a060020a03191633179055611ab6806100326000396000f3fe60806040523480156200001157600080fd5b5060043610620000a4576000357c0100000000000000000000000000000000000000000000000000000000900480635c60f226116200007f5780635c60f22614620000f05780638da5cb5b1462000107578063a00453c01462000138578063babe1655146200014f57600080fd5b806310e8b22d14620000a95780632f0c212714620000c25780633bb3ec9e14620000d9575b600080fd5b620000c0620000ba3660046200114d565b6200017a565b005b620000c0620000d336600462001103565b62000402565b620000c0620000ea366004620011ca565b62000687565b620000c062000101366004620010de565b620009c6565b6000546200011b90600160a060020a031681565b604051600160a060020a0390911681526020015b60405180910390f35b620000c062000149366004620011ca565b62000b20565b620001666200016036600462001279565b62000b81565b6040516200012f96959493929190620012fd565b60083360009081526002602052604090206003015460ff166008811115620001a657620001a66200142d565b14620001d25760405160e560020a62461bcd028152600401620001c99062001389565b60405180910390fd5b600160a060020a0380841660008181526002602052604090205490911614620002415760405160e560020a62461bcd02815260206004820152600a60248201527f5553525f4e545f524547000000000000000000000000000000000000000000006044820152606401620001c9565b600160a060020a03831660009081526002602052604090206005015460ff1615620002b25760405160e560020a62461bcd02815260206004820152600b60248201527f5553525f44454c455445440000000000000000000000000000000000000000006044820152606401620001c9565b600160a060020a03831660009081526002602081815260409092208451620002e39391909201919085019062000f25565b50600160a060020a03831660009081526002602090815260409091208251620003159260049092019184019062000f25565b506000805b6001548110156200037f5784600160a060020a03166001828154811062000345576200034562001446565b6000918252602090912060069091020154600160a060020a031614156200036a578091505b80620003768162001400565b9150506200031a565b50826001828154811062000397576200039762001446565b90600052602060002090600602016002019080519060200190620003bd92919062000f25565b508160018281548110620003d557620003d562001446565b90600052602060002090600602016004019080519060200190620003fb92919062000f25565b5050505050565b60053360009081526002602052604090206003015460ff1660088111156200042e576200042e6200142d565b14620004825760405160e560020a62461bcd028152600401620001c99060208082526004908201527f4f44434300000000000000000000000000000000000000000000000000000000604082015260600190565b6200048d8362000d90565b600083338385604051620004a19062000fb4565b600160a060020a039485168152928416602084015290831660408301529091166060820152608001604051809103906000f080158015620004e6573d6000803e3d6000fd5b506040517f43330ec2000000000000000000000000000000000000000000000000000000008152600160a060020a038681166004830152919250908216906343330ec290602401600060405180830381600087803b1580156200054857600080fd5b505af11580156200055d573d6000803e3d6000fd5b50505050600160a060020a038381166000908152600360209081526040808320805460018101825590845282842001805473ffffffffffffffffffffffffffffffffffffffff191686861617905580517f73b037db000000000000000000000000000000000000000000000000000000008152905192938816926373b037db92600480840193919291829003018186803b158015620005fb57600080fd5b505afa15801562000610573d6000803e3d6000fd5b505050506040513d601f19601f8201168201806040525081019062000636919062001293565b60408051600160a060020a03888116825260208201849052929350918416917f60524821b161231fd2b71a1da7fcbe0d151b7141de0591aa82699f0ff11852b0910160405180910390a25050505050565b60083360009081526002602052604090206003015460ff166008811115620006b357620006b36200142d565b14620006d65760405160e560020a62461bcd028152600401620001c99062001389565b600160a060020a038086166000818152600260205260409020549091161415620007465760405160e560020a62461bcd02815260206004820152600960248201527f5553525f455849535400000000000000000000000000000000000000000000006044820152606401620001c9565b6200075062000fc2565b600160a060020a038616815260208101859052604081018490528260088111156200077f576200077f6200142d565b816060019060088111156200079857620007986200142d565b90816008811115620007ae57620007ae6200142d565b90525060808101829052600060a08201819052600160a060020a0387811682526002602090815260409092208351815473ffffffffffffffffffffffffffffffffffffffff1916921691909117815581830151805184936200081892600185019291019062000f25565b50604082015180516200083691600284019160209091019062000f25565b50606082015160038201805460ff191660018360088111156200085d576200085d6200142d565b0217905550608082015180516200087f91600484019160209091019062000f25565b5060a091909101516005909101805460ff191691151591909117905560018054808201825560009190915281517fb10e2d527612073b26eecdfd717e6a320cf44b4afac2b0732d9fcbe2b7fa0cf66006909202918201805473ffffffffffffffffffffffffffffffffffffffff1916600160a060020a03909216919091178155602080840151805185946200093b937fb10e2d527612073b26eecdfd717e6a320cf44b4afac2b0732d9fcbe2b7fa0cf790910192019062000f25565b50604082015180516200095991600284019160209091019062000f25565b50606082015160038201805460ff191660018360088111156200098057620009806200142d565b021790555060808201518051620009a291600484019160209091019062000f25565b5060a091909101516005909101805460ff1916911515919091179055505050505050565b60083360009081526002602052604090206003015460ff166008811115620009f257620009f26200142d565b1462000a155760405160e560020a62461bcd028152600401620001c99062001389565b600160a060020a038082166000818152600260205260409020549091161462000a845760405160e560020a62461bcd02815260206004820152600a60248201527f5553525f4e545f524547000000000000000000000000000000000000000000006044820152606401620001c9565b604080518082018252600881527f496e6163746976650000000000000000000000000000000000000000000000006020808301918252600160a060020a0385166000908152600290915292909220905162000ae6926004909201919062000f25565b50600160a060020a0381166000908152600260205260409020600501805460ff1916600190811790915562000b1d90829062000dfd565b50565b600054600160a060020a03163314620006d65760405160e560020a62461bcd028152600401620001c99060208082526004908201527f4f57434300000000000000000000000000000000000000000000000000000000604082015260600190565b6001818154811062000b9257600080fd5b600091825260209091206006909102018054600182018054600160a060020a0390921693509062000bc390620013c0565b80601f016020809104026020016040519081016040528092919081815260200182805462000bf190620013c0565b801562000c425780601f1062000c165761010080835404028352916020019162000c42565b820191906000526020600020905b81548152906001019060200180831162000c2457829003601f168201915b50505050509080600201805462000c5990620013c0565b80601f016020809104026020016040519081016040528092919081815260200182805462000c8790620013c0565b801562000cd85780601f1062000cac5761010080835404028352916020019162000cd8565b820191906000526020600020905b81548152906001019060200180831162000cba57829003601f168201915b5050506003840154600485018054949560ff90921694919350915062000cfe90620013c0565b80601f016020809104026020016040519081016040528092919081815260200182805462000d2c90620013c0565b801562000d7d5780601f1062000d515761010080835404028352916020019162000d7d565b820191906000526020600020905b81548152906001019060200180831162000d5f57829003601f168201915b5050506005909301549192505060ff1686565b80600160a060020a031663a761dc4f6040518163ffffffff167c0100000000000000000000000000000000000000000000000000000000028152600401600060405180830381600087803b15801562000de857600080fd5b505af1158015620003fb573d6000803e3d6000fd5b6000805b60015481101562000e665783600160a060020a03166001828154811062000e2c5762000e2c62001446565b6000918252602090912060069091020154600160a060020a0316141562000e51578091505b8062000e5d8162001400565b91505062000e01565b506040518060400160405280600881526020017f496e6163746976650000000000000000000000000000000000000000000000008152506001828154811062000eb35762000eb362001446565b9060005260206000209060060201600401908051906020019062000ed992919062000f25565b506001821515141562000f2057600180828154811062000efd5762000efd62001446565b60009182526020909120600690910201600501805460ff19169115159190911790555b505050565b82805462000f3390620013c0565b90600052602060002090601f01602090048101928262000f57576000855562000fa2565b82601f1062000f7257805160ff191683800117855562000fa2565b8280016001018555821562000fa2579182015b8281111562000fa257825182559160200191906001019062000f85565b5062000fb092915062001015565b5090565b610608806200147983390190565b6040518060c001604052806000600160a060020a031681526020016060815260200160608152602001600060088111156200100157620010016200142d565b815260606020820152600060409091015290565b5b8082111562000fb0576000815560010162001016565b8035600160a060020a03811681146200104457600080fd5b919050565b600082601f8301126200105b57600080fd5b813567ffffffffffffffff808211156200107957620010796200145f565b604051601f8301601f19908116603f01168101908282118183101715620010a457620010a46200145f565b81604052838152866020858801011115620010be57600080fd5b836020870160208301376000602085830101528094505050505092915050565b600060208284031215620010f157600080fd5b620010fc826200102c565b9392505050565b6000806000606084860312156200111957600080fd5b62001124846200102c565b925062001134602085016200102c565b915062001144604085016200102c565b90509250925092565b6000806000606084860312156200116357600080fd5b6200116e846200102c565b9250602084013567ffffffffffffffff808211156200118c57600080fd5b6200119a8783880162001049565b93506040860135915080821115620011b157600080fd5b50620011c08682870162001049565b9150509250925092565b600080600080600060a08688031215620011e357600080fd5b620011ee866200102c565b9450602086013567ffffffffffffffff808211156200120c57600080fd5b6200121a89838a0162001049565b955060408801359150808211156200123157600080fd5b6200123f89838a0162001049565b94506060880135935060808801359150808211156200125d57600080fd5b506200126c8882890162001049565b9150509295509295909350565b6000602082840312156200128c57600080fd5b5035919050565b600060208284031215620012a657600080fd5b5051919050565b6000815180845260005b81811015620012d557602081850181015186830182015201620012b7565b81811115620012e8576000602083870101525b50601f01601f19169290920160200192915050565b600160a060020a038716815260c0602082015260006200132160c0830188620012ad565b8281036040840152620013358188620012ad565b905060098610620013595760e060020a634e487b7102600052602160045260246000fd5b8560608401528281036080840152620013738186620012ad565b91505082151560a0830152979650505050505050565b60208082526004908201527f4f41434300000000000000000000000000000000000000000000000000000000604082015260600190565b600281046001821680620013d557607f821691505b60208210811415620013fa5760e060020a634e487b7102600052602260045260246000fd5b50919050565b6000600019821415620014265760e060020a634e487b7102600052601160045260246000fd5b5060010190565b60e060020a634e487b7102600052602160045260246000fd5b60e060020a634e487b7102600052603260045260246000fd5b60e060020a634e487b7102600052604160045260246000fdfe608060405234801561001057600080fd5b5060405161060838038061060883398101604081905261002f916100e0565b60008054600160a060020a0319908116600160a060020a038681169182178455600180548416898316179055600380548416909217909155600480548316858316179055600280549092169085161790556004805460a060020a60ff021916740100000000000000000000000000000000000000008360028111156100b6576100b6610134565b021790555050505050610163565b8051600160a060020a03811681146100db57600080fd5b919050565b600080600080608085870312156100f657600080fd5b6100ff856100c4565b935061010d602086016100c4565b925061011b604086016100c4565b9150610129606086016100c4565b905092959194509250565b7f4e487b7100000000000000000000000000000000000000000000000000000000600052602160045260246000fd5b610496806101726000396000f3fe608060405234801561001057600080fd5b5060043610610073577c0100000000000000000000000000000000000000000000000000000000600035046343330ec28114610078578063678dd1181461008d5780637fb8174a146100b7578063b946588c146100f4578063e3837b0414610107575b600080fd5b61008b6100863660046103c0565b610132565b005b6004546100a19060a060020a900460ff1681565b6040516100ae91906103f0565b60405180910390f35b6100bf610266565b6040516100ae9493929190600160a060020a039485168152928416602084015292166040820152606081019190915260800190565b61008b6101023660046103c0565b6102b7565b60015461011a90600160a060020a031681565b604051600160a060020a0390911681526020016100ae565b600060045460a060020a900460ff16600281111561015257610152610431565b146101be576040517f08c379a000000000000000000000000000000000000000000000000000000000815260206004820152600a60248201527f4d5f4d53545f41545f440000000000000000000000000000000000000000000060448201526064015b60405180910390fd5b600480546001919074ff0000000000000000000000000000000000000000191660a060020a830217905550600480546040517fa3791bb3000000000000000000000000000000000000000000000000000000008152600160a060020a039182169281019290925282169063a3791bb390602401600060405180830381600087803b15801561024b57600080fd5b505af115801561025f573d6000803e3d6000fd5b5050505050565b60015460028054600354600454600094859485948594600160a060020a039384169491841693169160a060020a90910460ff16908111156102a9576102a9610431565b935093509350935090919293565b600160045460a060020a900460ff1660028111156102d7576102d7610431565b1461033e576040517f08c379a000000000000000000000000000000000000000000000000000000000815260206004820152600b60248201527f4d5f4d53545f41545f502e00000000000000000000000000000000000000000060448201526064016101b5565b600480546002919074ff0000000000000000000000000000000000000000191660a060020a83021790555080600160a060020a031663df1f41c86040518163ffffffff167c0100000000000000000000000000000000000000000000000000000000028152600401600060405180830381600087803b15801561024b57600080fd5b6000602082840312156103d257600080fd5b8135600160a060020a03811681146103e957600080fd5b9392505050565b602081016003831061042b577f4e487b7100000000000000000000000000000000000000000000000000000000600052602160045260246000fd5b91905290565b7f4e487b7100000000000000000000000000000000000000000000000000000000600052602160045260246000fdfea26469706673582212201e21bfd8f0cf6875f98b76ddc104d050e4eee35d59f4fabb8b530ec01ce58fdb64736f6c63430008060033a26469706673582212208ad08a3429fc73b70e4721ac916157c4d6f807ecb47cfb6230334ce9367b336764736f6c63430008060033",
  "immutableReferences": {},
  "source": "// SPDX-License-Identifier: MIT\r\npragma solidity >=0.4.22 <0.9.0;\r\npragma experimental ABIEncoderV2;\r\n\r\nimport \"./User.sol\";\r\nimport \"./Medicine.sol\";\r\nimport \"./MedicineDP.sol\";\r\n\r\ncontract Distributor is User {\r\n    mapping(address => address[]) MedicineBatchesTransferredToPharma;\r\n\r\n    modifier onlyDistributor {\r\n        require(UsersDetails[msg.sender].userRole == roles.distributor, \"ODCC\"); //\"Only Distributor can call this function.\"\r\n        _;\r\n    }\r\n\r\n    event MedicineTransferredDPInitiated(\r\n        address MedicineID,\r\n        address indexed SubContractID,\r\n        uint256 MedicineStatus\r\n    );\r\n\r\n    //Recieve & update medicine package shippment status for supplied package ID by tagged/associated receiver/distributor. Update MedicinePackagesReceivedAtDistributor mapping\r\n    //@param _medicineID Medicine/Package/batch ID Address\r\n    function updateRecievedMedicinePackageStatus(address _medicineID) private {\r\n        Medicine(_medicineID).updatePackageStatusOnReceivedByDistributor();\r\n    }\r\n\r\n    //Transfer received Medicine batch(from Manufacturer) to Pharma using tagged/associated shipper/transporter only. Only Distributor can call this.\r\n    //@param _medicineID Medicine Batch/Package ID Address\r\n    //@param _pharma Registered Pharma user Address\r\n    //@param _transporter Registered Shipper/Transporter user Address\r\n    function transferMedicineFromDistributorToPharma(\r\n        address _medicineID,\r\n        address _pharma,\r\n        address _transporter\r\n    ) public onlyDistributor {\r\n        updateRecievedMedicinePackageStatus(_medicineID);\r\n        MedicineDP medicineDPData = new MedicineDP(\r\n            _medicineID,\r\n            msg.sender,\r\n            _transporter,\r\n            _pharma\r\n        );\r\n        // MedicinesTransferredToPharma[msg.sender].push(address(medicineDPData));\r\n        MedicineDP(address(medicineDPData)).pickPackageDP(_medicineID);\r\n        MedicineBatchesTransferredToPharma[_pharma].push(\r\n            address(medicineDPData)\r\n        );\r\n        uint256 _status = Medicine(_medicineID).getMedicineStatus();\r\n        emit MedicineTransferredDPInitiated(\r\n            _medicineID,\r\n            address(medicineDPData),\r\n            _status\r\n        );\r\n    }\r\n}\r\n",
  "sourcePath": "C:\\Development\\Blockchain\\Learning-2\\contracts\\Distributor.sol",
  "compiler": {
    "name": "solc",
    "version": "0.8.6+commit.11564f7e.Emscripten.clang"
  },
  "schemaVersion": "3.4.1",
  "updatedAt": "2021-07-30T15:10:34.434Z",
  "devdoc": {
    "kind": "dev",
    "methods": {},
    "version": 1
  },
  "userdoc": {
    "kind": "user",
    "methods": {},
    "version": 1
  }
}