{
  "contractName": "Inspector",
  "abi": [
    {
      "anonymous": false,
      "inputs": [
        {
          "indexed": false,
          "internalType": "address",
          "name": "medicineId",
          "type": "address"
        },
        {
          "indexed": false,
          "internalType": "uint256",
          "name": "packageStatus",
          "type": "uint256"
        },
        {
          "indexed": false,
          "internalType": "uint256[]",
          "name": "transactionBlocks",
          "type": "uint256[]"
        }
      ],
      "name": "UpdatedMedicineStatus",
      "type": "event"
    },
    {
      "anonymous": false,
      "inputs": [
        {
          "indexed": false,
          "internalType": "address",
          "name": "materialId",
          "type": "address"
        },
        {
          "indexed": false,
          "internalType": "uint256",
          "name": "packageStatus",
          "type": "uint256"
        }
      ],
      "name": "UpdatedPackageStatus",
      "type": "event"
    },
    {
      "inputs": [
        {
          "internalType": "address",
          "name": "",
          "type": "address"
        },
        {
          "internalType": "uint256",
          "name": "",
          "type": "uint256"
        }
      ],
      "name": "TaggedTransporterMaterialList",
      "outputs": [
        {
          "internalType": "address",
          "name": "",
          "type": "address"
        }
      ],
      "stateMutability": "view",
      "type": "function"
    },
    {
      "inputs": [
        {
          "internalType": "address",
          "name": "",
          "type": "address"
        },
        {
          "internalType": "uint256",
          "name": "",
          "type": "uint256"
        }
      ],
      "name": "TaggedTransporterMedicineList",
      "outputs": [
        {
          "internalType": "address",
          "name": "",
          "type": "address"
        }
      ],
      "stateMutability": "view",
      "type": "function"
    },
    {
      "inputs": [
        {
          "internalType": "uint256",
          "name": "",
          "type": "uint256"
        }
      ],
      "name": "UserList",
      "outputs": [
        {
          "internalType": "address",
          "name": "userAddress",
          "type": "address"
        },
        {
          "internalType": "string",
          "name": "userName",
          "type": "string"
        },
        {
          "internalType": "string",
          "name": "userLocation",
          "type": "string"
        },
        {
          "internalType": "enum User.roles",
          "name": "userRole",
          "type": "uint8"
        },
        {
          "internalType": "string",
          "name": "userStatus",
          "type": "string"
        },
        {
          "internalType": "bool",
          "name": "isDeleted",
          "type": "bool"
        },
        {
          "internalType": "uint256",
          "name": "registrationDate",
          "type": "uint256"
        }
      ],
      "stateMutability": "view",
      "type": "function"
    },
    {
      "inputs": [
        {
          "internalType": "address",
          "name": "_address",
          "type": "address"
        }
      ],
      "name": "deleteUser",
      "outputs": [],
      "stateMutability": "nonpayable",
      "type": "function"
    },
    {
      "inputs": [],
      "name": "owner",
      "outputs": [
        {
          "internalType": "address",
          "name": "",
          "type": "address"
        }
      ],
      "stateMutability": "view",
      "type": "function"
    },
    {
      "inputs": [
        {
          "internalType": "address",
          "name": "_address",
          "type": "address"
        },
        {
          "internalType": "string",
          "name": "_name",
          "type": "string"
        },
        {
          "internalType": "string",
          "name": "_location",
          "type": "string"
        },
        {
          "internalType": "uint256",
          "name": "_role",
          "type": "uint256"
        },
        {
          "internalType": "string",
          "name": "_userStatus",
          "type": "string"
        }
      ],
      "name": "registerAdmin",
      "outputs": [],
      "stateMutability": "nonpayable",
      "type": "function"
    },
    {
      "inputs": [
        {
          "internalType": "address",
          "name": "_address",
          "type": "address"
        },
        {
          "internalType": "string",
          "name": "_name",
          "type": "string"
        },
        {
          "internalType": "string",
          "name": "_location",
          "type": "string"
        },
        {
          "internalType": "uint256",
          "name": "_role",
          "type": "uint256"
        },
        {
          "internalType": "string",
          "name": "_userStatus",
          "type": "string"
        }
      ],
      "name": "registerUser",
      "outputs": [],
      "stateMutability": "nonpayable",
      "type": "function"
    },
    {
      "inputs": [
        {
          "internalType": "address",
          "name": "_address",
          "type": "address"
        },
        {
          "internalType": "string",
          "name": "_location",
          "type": "string"
        },
        {
          "internalType": "string",
          "name": "_userStatus",
          "type": "string"
        }
      ],
      "name": "updateUser",
      "outputs": [],
      "stateMutability": "nonpayable",
      "type": "function"
    },
    {
      "inputs": [
        {
          "internalType": "address",
          "name": "_materialId",
          "type": "address"
        },
        {
          "internalType": "address",
          "name": "_transporter",
          "type": "address"
        }
      ],
      "name": "rejectMaterialPackageAfterInspection",
      "outputs": [],
      "stateMutability": "nonpayable",
      "type": "function"
    },
    {
      "inputs": [
        {
          "internalType": "address",
          "name": "_materialId",
          "type": "address"
        },
        {
          "internalType": "address",
          "name": "_transporter",
          "type": "address"
        }
      ],
      "name": "approveMaterialPackageAfterInspection",
      "outputs": [],
      "stateMutability": "nonpayable",
      "type": "function"
    },
    {
      "inputs": [
        {
          "internalType": "address",
          "name": "_medicineId",
          "type": "address"
        },
        {
          "internalType": "address",
          "name": "_transporter",
          "type": "address"
        }
      ],
      "name": "rejectMedicineBatchAfterInspection",
      "outputs": [],
      "stateMutability": "nonpayable",
      "type": "function"
    },
    {
      "inputs": [
        {
          "internalType": "address",
          "name": "_medicineId",
          "type": "address"
        },
        {
          "internalType": "address",
          "name": "_transporter",
          "type": "address"
        }
      ],
      "name": "approveMedicineBatchAfterInspection",
      "outputs": [],
      "stateMutability": "nonpayable",
      "type": "function"
    }
  ],
  "bytecode": "0x608060405234801561001057600080fd5b50336000806101000a81548173ffffffffffffffffffffffffffffffffffffffff021916908373ffffffffffffffffffffffffffffffffffffffff160217905550612f15806100606000396000f3fe608060405234801561001057600080fd5b50600436106100d1576000357c0100000000000000000000000000000000000000000000000000000000900480638da5cb5b1161008e5780638da5cb5b14610192578063a00453c0146101b0578063babe1655146101cc578063e8eb606c14610202578063f1e8415914610232578063fb459ce31461024e576100d1565b80630c5cc262146100d657806310e8b22d146101065780632dcd1215146101225780633bb3ec9e1461013e57806345512f9b1461015a5780635c60f22614610176575b600080fd5b6100f060048036038101906100eb91906125a7565b61026a565b6040516100fd9190612883565b60405180910390f35b610120600480360381019061011b919061244d565b6102b8565b005b61013c6004803603810190610137919061240d565b6106a2565b005b610158600480360381019061015391906124d8565b61096f565b005b610174600480360381019061016f919061240d565b610e17565b005b610190600480360381019061018b91906123e0565b611044565b005b61019a6112bf565b6040516101a79190612883565b60405180910390f35b6101ca60048036038101906101c591906124d8565b6112e3565b005b6101e660048036038101906101e1919061265d565b611763565b6040516101f9979695949392919061289e565b60405180910390f35b61021c600480360381019061021791906125a7565b611987565b6040516102299190612883565b60405180910390f35b61024c6004803603810190610247919061240d565b6119d5565b005b6102686004803603810190610263919061240d565b611d42565b005b6003602052816000526040600020818154811061028657600080fd5b906000526020600020016000915091509054906101000a900473ffffffffffffffffffffffffffffffffffffffff1681565b600860098111156102cc576102cb612caa565b5b600260003373ffffffffffffffffffffffffffffffffffffffff1673ffffffffffffffffffffffffffffffffffffffff16815260200190815260200160002060030160009054906101000a900460ff16600981111561032e5761032d612caa565b5b1461036e576040517f08c379a0000000000000000000000000000000000000000000000000000000008152600401610365906129a9565b60405180910390fd5b8273ffffffffffffffffffffffffffffffffffffffff16600260008573ffffffffffffffffffffffffffffffffffffffff1673ffffffffffffffffffffffffffffffffffffffff16815260200190815260200160002060000160009054906101000a900473ffffffffffffffffffffffffffffffffffffffff1673ffffffffffffffffffffffffffffffffffffffff161461043e576040517f08c379a000000000000000000000000000000000000000000000000000000000815260040161043590612989565b60405180910390fd5b60001515600260008573ffffffffffffffffffffffffffffffffffffffff1673ffffffffffffffffffffffffffffffffffffffff16815260200190815260200160002060050160009054906101000a900460ff161515146104d4576040517f08c379a00000000000000000000000000000000000000000000000000000000081526004016104cb90612a29565b60405180910390fd5b81600260008573ffffffffffffffffffffffffffffffffffffffff1673ffffffffffffffffffffffffffffffffffffffff168152602001908152602001600020600201908051906020019061052a929190612174565b5080600260008573ffffffffffffffffffffffffffffffffffffffff1673ffffffffffffffffffffffffffffffffffffffff1681526020019081526020016000206004019080519060200190610581929190612174565b50600080600090505b600180549050811015610627578473ffffffffffffffffffffffffffffffffffffffff16600182815481106105c2576105c1612d08565b5b906000526020600020906007020160000160009054906101000a900473ffffffffffffffffffffffffffffffffffffffff1673ffffffffffffffffffffffffffffffffffffffff161415610614578091505b808061061f90612c32565b91505061058a565b50826001828154811061063d5761063c612d08565b5b90600052602060002090600702016002019080519060200190610661929190612174565b50816001828154811061067757610676612d08565b5b9060005260206000209060070201600401908051906020019061069b929190612174565b5050505050565b6009808111156106b5576106b4612caa565b5b600260003373ffffffffffffffffffffffffffffffffffffffff1673ffffffffffffffffffffffffffffffffffffffff16815260200190815260200160002060030160009054906101000a900460ff16600981111561071757610716612caa565b5b14610757576040517f08c379a000000000000000000000000000000000000000000000000000000000815260040161074e90612a09565b60405180910390fd5b8173ffffffffffffffffffffffffffffffffffffffff16632101f3a16040518163ffffffff167c0100000000000000000000000000000000000000000000000000000000028152600401602060405180830381600087803b1580156107bb57600080fd5b505af11580156107cf573d6000803e3d6000fd5b505050506040513d601f19601f820116820180604052508101906107f39190612630565b1561096b57600360008273ffffffffffffffffffffffffffffffffffffffff1673ffffffffffffffffffffffffffffffffffffffff168152602001908152602001600020829080600181540180825580915050600190039060005260206000200160009091909190916101000a81548173ffffffffffffffffffffffffffffffffffffffff021916908373ffffffffffffffffffffffffffffffffffffffff1602179055507f9bd987093e336068483abfca6f111f6bdd1f343e64fa51fb2b1e4795c33087c9828373ffffffffffffffffffffffffffffffffffffffff1663922962996040518163ffffffff167c010000000000000000000000000000000000000000000000000000000002815260040160206040518083038186803b15801561091c57600080fd5b505afa158015610930573d6000803e3d6000fd5b505050506040513d601f19601f82011682018060405250810190610954919061268a565b604051610962929190612922565b60405180910390a15b5050565b6008600981111561098357610982612caa565b5b600260003373ffffffffffffffffffffffffffffffffffffffff1673ffffffffffffffffffffffffffffffffffffffff16815260200190815260200160002060030160009054906101000a900460ff1660098111156109e5576109e4612caa565b5b14610a25576040517f08c379a0000000000000000000000000000000000000000000000000000000008152600401610a1c906129a9565b60405180910390fd5b8473ffffffffffffffffffffffffffffffffffffffff16600260008773ffffffffffffffffffffffffffffffffffffffff1673ffffffffffffffffffffffffffffffffffffffff16815260200190815260200160002060000160009054906101000a900473ffffffffffffffffffffffffffffffffffffffff1673ffffffffffffffffffffffffffffffffffffffff161415610af6576040517f08c379a0000000000000000000000000000000000000000000000000000000008152600401610aed906129e9565b60405180910390fd5b610afe6121fa565b85816000019073ffffffffffffffffffffffffffffffffffffffff16908173ffffffffffffffffffffffffffffffffffffffff1681525050848160200181905250838160400181905250826009811115610b5b57610b5a612caa565b5b81606001906009811115610b7257610b71612caa565b5b90816009811115610b8657610b85612caa565b5b8152505081816080018190525060008160a0019015159081151581525050428160c001818152505080600260008873ffffffffffffffffffffffffffffffffffffffff1673ffffffffffffffffffffffffffffffffffffffff16815260200190815260200160002060008201518160000160006101000a81548173ffffffffffffffffffffffffffffffffffffffff021916908373ffffffffffffffffffffffffffffffffffffffff1602179055506020820151816001019080519060200190610c51929190612174565b506040820151816002019080519060200190610c6e929190612174565b5060608201518160030160006101000a81548160ff02191690836009811115610c9a57610c99612caa565b5b02179055506080820151816004019080519060200190610cbb929190612174565b5060a08201518160050160006101000a81548160ff02191690831515021790555060c08201518160060155905050600181908060018154018082558091505060019003906000526020600020906007020160009091909190915060008201518160000160006101000a81548173ffffffffffffffffffffffffffffffffffffffff021916908373ffffffffffffffffffffffffffffffffffffffff1602179055506020820151816001019080519060200190610d78929190612174565b506040820151816002019080519060200190610d95929190612174565b5060608201518160030160006101000a81548160ff02191690836009811115610dc157610dc0612caa565b5b02179055506080820151816004019080519060200190610de2929190612174565b5060a08201518160050160006101000a81548160ff02191690831515021790555060c082015181600601555050505050505050565b600980811115610e2a57610e29612caa565b5b600260003373ffffffffffffffffffffffffffffffffffffffff1673ffffffffffffffffffffffffffffffffffffffff16815260200190815260200160002060030160009054906101000a900460ff166009811115610e8c57610e8b612caa565b5b14610ecc576040517f08c379a0000000000000000000000000000000000000000000000000000000008152600401610ec390612a09565b60405180910390fd5b8173ffffffffffffffffffffffffffffffffffffffff16634d7064186040518163ffffffff167c0100000000000000000000000000000000000000000000000000000000028152600401602060405180830381600087803b158015610f3057600080fd5b505af1158015610f44573d6000803e3d6000fd5b505050506040513d601f19601f82011682018060405250810190610f689190612630565b15611040577f9bd987093e336068483abfca6f111f6bdd1f343e64fa51fb2b1e4795c33087c9828373ffffffffffffffffffffffffffffffffffffffff1663922962996040518163ffffffff167c010000000000000000000000000000000000000000000000000000000002815260040160206040518083038186803b158015610ff157600080fd5b505afa158015611005573d6000803e3d6000fd5b505050506040513d601f19601f82011682018060405250810190611029919061268a565b604051611037929190612922565b60405180910390a15b5050565b6008600981111561105857611057612caa565b5b600260003373ffffffffffffffffffffffffffffffffffffffff1673ffffffffffffffffffffffffffffffffffffffff16815260200190815260200160002060030160009054906101000a900460ff1660098111156110ba576110b9612caa565b5b146110fa576040517f08c379a00000000000000000000000000000000000000000000000000000000081526004016110f1906129a9565b60405180910390fd5b8073ffffffffffffffffffffffffffffffffffffffff16600260008373ffffffffffffffffffffffffffffffffffffffff1673ffffffffffffffffffffffffffffffffffffffff16815260200190815260200160002060000160009054906101000a900473ffffffffffffffffffffffffffffffffffffffff1673ffffffffffffffffffffffffffffffffffffffff16146111ca576040517f08c379a00000000000000000000000000000000000000000000000000000000081526004016111c190612989565b60405180910390fd5b6040518060400160405280600881526020017f496e616374697665000000000000000000000000000000000000000000000000815250600260008373ffffffffffffffffffffffffffffffffffffffff1673ffffffffffffffffffffffffffffffffffffffff1681526020019081526020016000206004019080519060200190611255929190612174565b506001600260008373ffffffffffffffffffffffffffffffffffffffff1673ffffffffffffffffffffffffffffffffffffffff16815260200190815260200160002060050160006101000a81548160ff0219169083151502179055506112bc81600161200f565b50565b60008054906101000a900473ffffffffffffffffffffffffffffffffffffffff1681565b60008054906101000a900473ffffffffffffffffffffffffffffffffffffffff1673ffffffffffffffffffffffffffffffffffffffff163373ffffffffffffffffffffffffffffffffffffffff1614611371576040517f08c379a0000000000000000000000000000000000000000000000000000000008152600401611368906129c9565b60405180910390fd5b8473ffffffffffffffffffffffffffffffffffffffff16600260008773ffffffffffffffffffffffffffffffffffffffff1673ffffffffffffffffffffffffffffffffffffffff16815260200190815260200160002060000160009054906101000a900473ffffffffffffffffffffffffffffffffffffffff1673ffffffffffffffffffffffffffffffffffffffff161415611442576040517f08c379a0000000000000000000000000000000000000000000000000000000008152600401611439906129e9565b60405180910390fd5b61144a6121fa565b85816000019073ffffffffffffffffffffffffffffffffffffffff16908173ffffffffffffffffffffffffffffffffffffffff16815250508481602001819052508381604001819052508260098111156114a7576114a6612caa565b5b816060019060098111156114be576114bd612caa565b5b908160098111156114d2576114d1612caa565b5b8152505081816080018190525060008160a0019015159081151581525050428160c001818152505080600260008873ffffffffffffffffffffffffffffffffffffffff1673ffffffffffffffffffffffffffffffffffffffff16815260200190815260200160002060008201518160000160006101000a81548173ffffffffffffffffffffffffffffffffffffffff021916908373ffffffffffffffffffffffffffffffffffffffff160217905550602082015181600101908051906020019061159d929190612174565b5060408201518160020190805190602001906115ba929190612174565b5060608201518160030160006101000a81548160ff021916908360098111156115e6576115e5612caa565b5b02179055506080820151816004019080519060200190611607929190612174565b5060a08201518160050160006101000a81548160ff02191690831515021790555060c08201518160060155905050600181908060018154018082558091505060019003906000526020600020906007020160009091909190915060008201518160000160006101000a81548173ffffffffffffffffffffffffffffffffffffffff021916908373ffffffffffffffffffffffffffffffffffffffff16021790555060208201518160010190805190602001906116c4929190612174565b5060408201518160020190805190602001906116e1929190612174565b5060608201518160030160006101000a81548160ff0219169083600981111561170d5761170c612caa565b5b0217905550608082015181600401908051906020019061172e929190612174565b5060a08201518160050160006101000a81548160ff02191690831515021790555060c082015181600601555050505050505050565b6001818154811061177357600080fd5b90600052602060002090600702016000915090508060000160009054906101000a900473ffffffffffffffffffffffffffffffffffffffff16908060010180546117bc90612bcf565b80601f01602080910402602001604051908101604052809291908181526020018280546117e890612bcf565b80156118355780601f1061180a57610100808354040283529160200191611835565b820191906000526020600020905b81548152906001019060200180831161181857829003601f168201915b50505050509080600201805461184a90612bcf565b80601f016020809104026020016040519081016040528092919081815260200182805461187690612bcf565b80156118c35780601f10611898576101008083540402835291602001916118c3565b820191906000526020600020905b8154815290600101906020018083116118a657829003601f168201915b5050505050908060030160009054906101000a900460ff16908060040180546118eb90612bcf565b80601f016020809104026020016040519081016040528092919081815260200182805461191790612bcf565b80156119645780601f1061193957610100808354040283529160200191611964565b820191906000526020600020905b81548152906001019060200180831161194757829003601f168201915b5050505050908060050160009054906101000a900460ff16908060060154905087565b600460205281600052604060002081815481106119a357600080fd5b906000526020600020016000915091509054906101000a900473ffffffffffffffffffffffffffffffffffffffff1681565b6009808111156119e8576119e7612caa565b5b600260003373ffffffffffffffffffffffffffffffffffffffff1673ffffffffffffffffffffffffffffffffffffffff16815260200190815260200160002060030160009054906101000a900460ff166009811115611a4a57611a49612caa565b5b14611a8a576040517f08c379a0000000000000000000000000000000000000000000000000000000008152600401611a8190612a09565b60405180910390fd5b8173ffffffffffffffffffffffffffffffffffffffff166312966fe66040518163ffffffff167c0100000000000000000000000000000000000000000000000000000000028152600401602060405180830381600087803b158015611aee57600080fd5b505af1158015611b02573d6000803e3d6000fd5b505050506040513d601f19601f82011682018060405250810190611b269190612630565b15611d3e57600460008273ffffffffffffffffffffffffffffffffffffffff1673ffffffffffffffffffffffffffffffffffffffff168152602001908152602001600020829080600181540180825580915050600190039060005260206000200160009091909190916101000a81548173ffffffffffffffffffffffffffffffffffffffff021916908373ffffffffffffffffffffffffffffffffffffffff1602179055507fe52a7bc1ea894a8992a5de5047e90a4e487a08e09b2c3e71582150e5876c714f828373ffffffffffffffffffffffffffffffffffffffff166373b037db6040518163ffffffff167c010000000000000000000000000000000000000000000000000000000002815260040160206040518083038186803b158015611c4f57600080fd5b505afa158015611c63573d6000803e3d6000fd5b505050506040513d601f19601f82011682018060405250810190611c87919061268a565b8473ffffffffffffffffffffffffffffffffffffffff1663cd8a5b2e6040518163ffffffff167c010000000000000000000000000000000000000000000000000000000002815260040160006040518083038186803b158015611ce957600080fd5b505afa158015611cfd573d6000803e3d6000fd5b505050506040513d6000823e3d601f19601f82011682018060405250810190611d2691906125e7565b604051611d359392919061294b565b60405180910390a15b5050565b600980811115611d5557611d54612caa565b5b600260003373ffffffffffffffffffffffffffffffffffffffff1673ffffffffffffffffffffffffffffffffffffffff16815260200190815260200160002060030160009054906101000a900460ff166009811115611db757611db6612caa565b5b14611df7576040517f08c379a0000000000000000000000000000000000000000000000000000000008152600401611dee90612a09565b60405180910390fd5b8173ffffffffffffffffffffffffffffffffffffffff1663a5a226466040518163ffffffff167c0100000000000000000000000000000000000000000000000000000000028152600401602060405180830381600087803b158015611e5b57600080fd5b505af1158015611e6f573d6000803e3d6000fd5b505050506040513d601f19601f82011682018060405250810190611e939190612630565b1561200b577fe52a7bc1ea894a8992a5de5047e90a4e487a08e09b2c3e71582150e5876c714f828373ffffffffffffffffffffffffffffffffffffffff166373b037db6040518163ffffffff167c010000000000000000000000000000000000000000000000000000000002815260040160206040518083038186803b158015611f1c57600080fd5b505afa158015611f30573d6000803e3d6000fd5b505050506040513d601f19601f82011682018060405250810190611f54919061268a565b8473ffffffffffffffffffffffffffffffffffffffff1663cd8a5b2e6040518163ffffffff167c010000000000000000000000000000000000000000000000000000000002815260040160006040518083038186803b158015611fb657600080fd5b505afa158015611fca573d6000803e3d6000fd5b505050506040513d6000823e3d601f19601f82011682018060405250810190611ff391906125e7565b6040516120029392919061294b565b60405180910390a15b5050565b600080600090505b6001805490508110156120b4578373ffffffffffffffffffffffffffffffffffffffff166001828154811061204f5761204e612d08565b5b906000526020600020906007020160000160009054906101000a900473ffffffffffffffffffffffffffffffffffffffff1673ffffffffffffffffffffffffffffffffffffffff1614156120a1578091505b80806120ac90612c32565b915050612017565b506040518060400160405280600881526020017f496e616374697665000000000000000000000000000000000000000000000000815250600182815481106120ff576120fe612d08565b5b90600052602060002090600702016004019080519060200190612123929190612174565b5060011515821515141561216f57600180828154811061214657612145612d08565b5b906000526020600020906007020160050160006101000a81548160ff0219169083151502179055505b505050565b82805461218090612bcf565b90600052602060002090601f0160209004810192826121a257600085556121e9565b82601f106121bb57805160ff19168380011785556121e9565b828001600101855582156121e9579182015b828111156121e85782518255916020019190600101906121cd565b5b5090506121f69190612261565b5090565b6040518060e00160405280600073ffffffffffffffffffffffffffffffffffffffff16815260200160608152602001606081526020016000600981111561224457612243612caa565b5b815260200160608152602001600015158152602001600081525090565b5b8082111561227a576000816000905550600101612262565b5090565b600061229161228c84612a6e565b612a49565b905080838252602082019050828560208602820111156122b4576122b3612d6b565b5b60005b858110156122e457816122ca88826123cb565b8452602084019350602083019250506001810190506122b7565b5050509392505050565b60006123016122fc84612a9a565b612a49565b90508281526020810184848401111561231d5761231c612d70565b5b612328848285612b8d565b509392505050565b60008135905061233f81612e9a565b92915050565b600082601f83011261235a57612359612d66565b5b815161236a84826020860161227e565b91505092915050565b60008151905061238281612eb1565b92915050565b600082601f83011261239d5761239c612d66565b5b81356123ad8482602086016122ee565b91505092915050565b6000813590506123c581612ec8565b92915050565b6000815190506123da81612ec8565b92915050565b6000602082840312156123f6576123f5612d7a565b5b600061240484828501612330565b91505092915050565b6000806040838503121561242457612423612d7a565b5b600061243285828601612330565b925050602061244385828601612330565b9150509250929050565b60008060006060848603121561246657612465612d7a565b5b600061247486828701612330565b935050602084013567ffffffffffffffff81111561249557612494612d75565b5b6124a186828701612388565b925050604084013567ffffffffffffffff8111156124c2576124c1612d75565b5b6124ce86828701612388565b9150509250925092565b600080600080600060a086880312156124f4576124f3612d7a565b5b600061250288828901612330565b955050602086013567ffffffffffffffff81111561252357612522612d75565b5b61252f88828901612388565b945050604086013567ffffffffffffffff8111156125505761254f612d75565b5b61255c88828901612388565b935050606061256d888289016123b6565b925050608086013567ffffffffffffffff81111561258e5761258d612d75565b5b61259a88828901612388565b9150509295509295909350565b600080604083850312156125be576125bd612d7a565b5b60006125cc85828601612330565b92505060206125dd858286016123b6565b9150509250929050565b6000602082840312156125fd576125fc612d7a565b5b600082015167ffffffffffffffff81111561261b5761261a612d75565b5b61262784828501612345565b91505092915050565b60006020828403121561264657612645612d7a565b5b600061265484828501612373565b91505092915050565b60006020828403121561267357612672612d7a565b5b6000612681848285016123b6565b91505092915050565b6000602082840312156126a05761269f612d7a565b5b60006126ae848285016123cb565b91505092915050565b60006126c38383612865565b60208301905092915050565b6126d881612b20565b82525050565b60006126e982612adb565b6126f38185612afe565b93506126fe83612acb565b8060005b8381101561272f57815161271688826126b7565b975061272183612af1565b925050600181019050612702565b5085935050505092915050565b61274581612b32565b82525050565b61275481612b7b565b82525050565b600061276582612ae6565b61276f8185612b0f565b935061277f818560208601612b9c565b61278881612d7f565b840191505092915050565b60006127a0600a83612b0f565b91506127ab82612d90565b602082019050919050565b60006127c3600483612b0f565b91506127ce82612db9565b602082019050919050565b60006127e6600483612b0f565b91506127f182612de2565b602082019050919050565b6000612809600983612b0f565b915061281482612e0b565b602082019050919050565b600061282c600583612b0f565b915061283782612e34565b602082019050919050565b600061284f600b83612b0f565b915061285a82612e5d565b602082019050919050565b61286e81612b71565b82525050565b61287d81612b71565b82525050565b600060208201905061289860008301846126cf565b92915050565b600060e0820190506128b3600083018a6126cf565b81810360208301526128c5818961275a565b905081810360408301526128d9818861275a565b90506128e8606083018761274b565b81810360808301526128fa818661275a565b905061290960a083018561273c565b61291660c0830184612874565b98975050505050505050565b600060408201905061293760008301856126cf565b6129446020830184612874565b9392505050565b600060608201905061296060008301866126cf565b61296d6020830185612874565b818103604083015261297f81846126de565b9050949350505050565b600060208201905081810360008301526129a281612793565b9050919050565b600060208201905081810360008301526129c2816127b6565b9050919050565b600060208201905081810360008301526129e2816127d9565b9050919050565b60006020820190508181036000830152612a02816127fc565b9050919050565b60006020820190508181036000830152612a228161281f565b9050919050565b60006020820190508181036000830152612a4281612842565b9050919050565b6000612a53612a64565b9050612a5f8282612c01565b919050565b6000604051905090565b600067ffffffffffffffff821115612a8957612a88612d37565b5b602082029050602081019050919050565b600067ffffffffffffffff821115612ab557612ab4612d37565b5b612abe82612d7f565b9050602081019050919050565b6000819050602082019050919050565b600081519050919050565b600081519050919050565b6000602082019050919050565b600082825260208201905092915050565b600082825260208201905092915050565b6000612b2b82612b51565b9050919050565b60008115159050919050565b6000819050612b4c82612e86565b919050565b600073ffffffffffffffffffffffffffffffffffffffff82169050919050565b6000819050919050565b6000612b8682612b3e565b9050919050565b82818337600083830152505050565b60005b83811015612bba578082015181840152602081019050612b9f565b83811115612bc9576000848401525b50505050565b60006002820490506001821680612be757607f821691505b60208210811415612bfb57612bfa612cd9565b5b50919050565b612c0a82612d7f565b810181811067ffffffffffffffff82111715612c2957612c28612d37565b5b80604052505050565b6000612c3d82612b71565b91507fffffffffffffffffffffffffffffffffffffffffffffffffffffffffffffffff821415612c7057612c6f612c7b565b5b600182019050919050565b7f4e487b7100000000000000000000000000000000000000000000000000000000600052601160045260246000fd5b7f4e487b7100000000000000000000000000000000000000000000000000000000600052602160045260246000fd5b7f4e487b7100000000000000000000000000000000000000000000000000000000600052602260045260246000fd5b7f4e487b7100000000000000000000000000000000000000000000000000000000600052603260045260246000fd5b7f4e487b7100000000000000000000000000000000000000000000000000000000600052604160045260246000fd5b600080fd5b600080fd5b600080fd5b600080fd5b600080fd5b6000601f19601f8301169050919050565b7f5553525f4e545f52454700000000000000000000000000000000000000000000600082015250565b7f4f41434300000000000000000000000000000000000000000000000000000000600082015250565b7f4f57434300000000000000000000000000000000000000000000000000000000600082015250565b7f5553525f45584953540000000000000000000000000000000000000000000000600082015250565b7f4f4943432e000000000000000000000000000000000000000000000000000000600082015250565b7f5553525f44454c45544544000000000000000000000000000000000000000000600082015250565b600a8110612e9757612e96612caa565b5b50565b612ea381612b20565b8114612eae57600080fd5b50565b612eba81612b32565b8114612ec557600080fd5b50565b612ed181612b71565b8114612edc57600080fd5b5056fea2646970667358221220100509d26912b140266ea358f6da64148161a677dabdcb0774409c41cab0b6d564736f6c63430008070033",
  "immutableReferences": {},
  "source": "// SPDX-License-Identifier: MIT\r\npragma solidity >=0.4.22 <0.9.0;\r\npragma experimental ABIEncoderV2;\r\n\r\nimport \"./User.sol\";\r\n\r\nimport \"./RawMaterials.sol\";\r\nimport \"./Medicine.sol\";\r\n\r\ncontract Inspector is User {\r\n    mapping(address => address[]) public TaggedTransporterMaterialList;\r\n    mapping(address => address[]) public TaggedTransporterMedicineList;\r\n\r\n    modifier onlyInspector {\r\n        require(\r\n            UsersDetails[msg.sender].userRole == roles.inspector,\r\n            \"OICC.\" //Only Inspector can call this function\r\n        );\r\n        _;\r\n    }\r\n\r\n    event UpdatedPackageStatus(address materialId, uint256 packageStatus);\r\n    event UpdatedMedicineStatus(\r\n        address medicineId,\r\n        uint256 packageStatus,\r\n        uint256[] transactionBlocks\r\n    );\r\n\r\n    //Inspect raw material & reject if condition not met\r\n    function rejectMaterialPackageAfterInspection(\r\n        address _materialId,\r\n        address _transporter\r\n    ) public onlyInspector {\r\n        if (RawMaterials(_materialId).rejectPackageAtInspection()) {\r\n            emit UpdatedPackageStatus(\r\n                _materialId,\r\n                RawMaterials(_materialId).getRawMaterialsStatus()\r\n            );\r\n        }\r\n    }\r\n\r\n    //Inspect raw material & approve is condition met\r\n    function approveMaterialPackageAfterInspection(\r\n        address _materialId,\r\n        address _transporter\r\n    ) public onlyInspector {\r\n        if (RawMaterials(_materialId).approvePackageAtInspection()) {\r\n            TaggedTransporterMaterialList[_transporter].push(_materialId);\r\n            emit UpdatedPackageStatus(\r\n                _materialId,\r\n                RawMaterials(_materialId).getRawMaterialsStatus()\r\n            );\r\n        }\r\n    }\r\n\r\n    //Inspect medicine & reject if condition not met\r\n    function rejectMedicineBatchAfterInspection(\r\n        address _medicineId,\r\n        address _transporter\r\n    ) public onlyInspector {\r\n        if (Medicine(_medicineId).rejectMedicineAtInspection()) {\r\n            emit UpdatedMedicineStatus(\r\n                _medicineId,\r\n                Medicine(_medicineId).getMedicineStatus(),\r\n                Medicine(_medicineId).getTransactionBlocks()\r\n            );\r\n        }\r\n    }\r\n\r\n    //Inspect medicine & approve is condition met\r\n    function approveMedicineBatchAfterInspection(\r\n        address _medicineId,\r\n        address _transporter\r\n    ) public onlyInspector {\r\n        if (Medicine(_medicineId).approveMedicineAtInspection()) {\r\n            TaggedTransporterMedicineList[_transporter].push(_medicineId);\r\n            emit UpdatedMedicineStatus(\r\n                _medicineId,\r\n                Medicine(_medicineId).getMedicineStatus(),\r\n                Medicine(_medicineId).getTransactionBlocks()\r\n            );\r\n        }\r\n    }\r\n}\r\n",
  "sourcePath": "C:\\Development\\Blockchain\\Learning-2\\contracts\\Inspector.sol",
  "compiler": {
    "name": "solc",
    "version": "0.8.7+commit.e28d00a7.Emscripten.clang"
  },
  "schemaVersion": "3.4.1",
  "updatedAt": "2021-08-14T11:11:12.152Z",
  "devdoc": {
    "kind": "dev",
    "methods": {},
    "version": 1
  },
  "userdoc": {
    "kind": "user",
    "methods": {},
    "version": 1
  }
}