{
  "contractName": "Manufacturer",
  "abi": [
    {
      "anonymous": false,
      "inputs": [
        {
          "indexed": true,
          "internalType": "address",
          "name": "MedicineID",
          "type": "address"
        }
      ],
      "name": "MedicinePackageInitialize",
      "type": "event"
    },
    {
      "inputs": [
        {
          "internalType": "uint256",
          "name": "",
          "type": "uint256"
        }
      ],
      "name": "TotalMedicineBatchesShipped",
      "outputs": [
        {
          "internalType": "address",
          "name": "",
          "type": "address"
        }
      ],
      "stateMutability": "view",
      "type": "function"
    },
    {
      "inputs": [
        {
          "internalType": "uint256",
          "name": "",
          "type": "uint256"
        }
      ],
      "name": "UserList",
      "outputs": [
        {
          "internalType": "address",
          "name": "userAddress",
          "type": "address"
        },
        {
          "internalType": "string",
          "name": "userName",
          "type": "string"
        },
        {
          "internalType": "string",
          "name": "userLocation",
          "type": "string"
        },
        {
          "internalType": "enum User.roles",
          "name": "userRole",
          "type": "uint8"
        },
        {
          "internalType": "string",
          "name": "userStatus",
          "type": "string"
        },
        {
          "internalType": "bool",
          "name": "isDeleted",
          "type": "bool"
        },
        {
          "internalType": "uint256",
          "name": "registrationDate",
          "type": "uint256"
        }
      ],
      "stateMutability": "view",
      "type": "function"
    },
    {
      "inputs": [
        {
          "internalType": "address",
          "name": "_address",
          "type": "address"
        }
      ],
      "name": "deleteUser",
      "outputs": [],
      "stateMutability": "nonpayable",
      "type": "function"
    },
    {
      "inputs": [],
      "name": "owner",
      "outputs": [
        {
          "internalType": "address",
          "name": "",
          "type": "address"
        }
      ],
      "stateMutability": "view",
      "type": "function"
    },
    {
      "inputs": [
        {
          "internalType": "address",
          "name": "_address",
          "type": "address"
        },
        {
          "internalType": "string",
          "name": "_name",
          "type": "string"
        },
        {
          "internalType": "string",
          "name": "_location",
          "type": "string"
        },
        {
          "internalType": "uint256",
          "name": "_role",
          "type": "uint256"
        },
        {
          "internalType": "string",
          "name": "_userStatus",
          "type": "string"
        }
      ],
      "name": "registerAdmin",
      "outputs": [],
      "stateMutability": "nonpayable",
      "type": "function"
    },
    {
      "inputs": [
        {
          "internalType": "address",
          "name": "_address",
          "type": "address"
        },
        {
          "internalType": "string",
          "name": "_name",
          "type": "string"
        },
        {
          "internalType": "string",
          "name": "_location",
          "type": "string"
        },
        {
          "internalType": "uint256",
          "name": "_role",
          "type": "uint256"
        },
        {
          "internalType": "string",
          "name": "_userStatus",
          "type": "string"
        }
      ],
      "name": "registerUser",
      "outputs": [],
      "stateMutability": "nonpayable",
      "type": "function"
    },
    {
      "inputs": [
        {
          "internalType": "address",
          "name": "_address",
          "type": "address"
        },
        {
          "internalType": "string",
          "name": "_location",
          "type": "string"
        },
        {
          "internalType": "string",
          "name": "_userStatus",
          "type": "string"
        }
      ],
      "name": "updateUser",
      "outputs": [],
      "stateMutability": "nonpayable",
      "type": "function"
    },
    {
      "inputs": [
        {
          "internalType": "address",
          "name": "_materialId",
          "type": "address"
        },
        {
          "internalType": "string",
          "name": "_medicineName",
          "type": "string"
        },
        {
          "internalType": "string",
          "name": "_location",
          "type": "string"
        },
        {
          "internalType": "string",
          "name": "_desc",
          "type": "string"
        },
        {
          "internalType": "uint256",
          "name": "_quantity",
          "type": "uint256"
        },
        {
          "internalType": "address",
          "name": "_transporter",
          "type": "address"
        },
        {
          "internalType": "address",
          "name": "_distributor",
          "type": "address"
        }
      ],
      "name": "createMedicinePackage",
      "outputs": [],
      "stateMutability": "nonpayable",
      "type": "function"
    },
    {
      "inputs": [
        {
          "internalType": "address",
          "name": "_medicineID",
          "type": "address"
        },
        {
          "internalType": "string",
          "name": "_medicineName",
          "type": "string"
        },
        {
          "internalType": "string",
          "name": "_location",
          "type": "string"
        },
        {
          "internalType": "string",
          "name": "_desc",
          "type": "string"
        },
        {
          "internalType": "uint256",
          "name": "_quantity",
          "type": "uint256"
        },
        {
          "internalType": "address",
          "name": "_transporter",
          "type": "address"
        },
        {
          "internalType": "address",
          "name": "_distributor",
          "type": "address"
        }
      ],
      "name": "updateMedicineBatch",
      "outputs": [],
      "stateMutability": "nonpayable",
      "type": "function"
    },
    {
      "inputs": [
        {
          "internalType": "address",
          "name": "_medicineID",
          "type": "address"
        },
        {
          "internalType": "address",
          "name": "_distributor",
          "type": "address"
        }
      ],
      "name": "loadAndShipMedicineBatch",
      "outputs": [],
      "stateMutability": "nonpayable",
      "type": "function"
    },
    {
      "inputs": [
        {
          "internalType": "address",
          "name": "_distributor",
          "type": "address"
        }
      ],
      "name": "getTotalMedicineBatchesShippedCount",
      "outputs": [
        {
          "internalType": "uint256",
          "name": "",
          "type": "uint256"
        }
      ],
      "stateMutability": "view",
      "type": "function"
    }
  ],
  "bytecode": "0x608060405234801561001057600080fd5b5060008054600160a060020a03191633179055612932806100326000396000f3fe60806040523480156200001157600080fd5b5060043610620000bb5760003560e060020a900480635c60f226116200007e5780635c60f226146200017657806368ab3fe4146200018d5780638da5cb5b14620001a4578063a00453c014620001b8578063babe165514620001cf578063bc063e5914620001fb57600080fd5b806310e8b22d14620000c05780631100762d14620000d957806314c4aecd146200011857806338201eab146200012f5780633bb3ec9e146200015f575b600080fd5b620000d7620000d13660046200139b565b62000212565b005b62000105620000ea36600462001316565b600160a060020a031660009081526004602052604090205490565b6040519081526020015b60405180910390f35b620000d7620001293660046200141a565b6200049a565b6200014662000140366004620015a3565b62000577565b604051600160a060020a0390911681526020016200010f565b620000d762000170366004620014f2565b620005a2565b620000d76200018736600462001316565b620008f9565b620000d76200019e3660046200135d565b62000a53565b6000546200014690600160a060020a031681565b620000d7620001c9366004620014f2565b62000bcb565b620001e6620001e0366004620015a3565b62000c2c565b6040516200010f9796959493929190620016a4565b620000d76200020c3660046200141a565b62000e42565b60083360009081526002602052604090206003015460ff1660088111156200023e576200023e62001874565b146200026a5760405160e560020a62461bcd028152600401620002619062001799565b60405180910390fd5b600160a060020a0380841660008181526002602052604090205490911614620002d95760405160e560020a62461bcd02815260206004820152600a60248201527f5553525f4e545f52454700000000000000000000000000000000000000000000604482015260640162000261565b600160a060020a03831660009081526002602052604090206005015460ff16156200034a5760405160e560020a62461bcd02815260206004820152600b60248201527f5553525f44454c45544544000000000000000000000000000000000000000000604482015260640162000261565b600160a060020a038316600090815260026020818152604090922084516200037b9391909201919085019062001162565b50600160a060020a03831660009081526002602090815260409091208251620003ad9260049092019184019062001162565b506000805b600154811015620004175784600160a060020a031660018281548110620003dd57620003dd6200188d565b6000918252602090912060079091020154600160a060020a0316141562000402578091505b806200040e8162001847565b915050620003b2565b5082600182815481106200042f576200042f6200188d565b906000526020600020906007020160020190805190602001906200045592919062001162565b5081600182815481106200046d576200046d6200188d565b906000526020600020906007020160040190805190602001906200049392919062001162565b5050505050565b60033360009081526002602052604090206003015460ff166008811115620004c657620004c662001874565b14620004e95760405160e560020a62461bcd0281526004016200026190620017d0565b6040517f8915a8fa000000000000000000000000000000000000000000000000000000008152600160a060020a03881690638915a8fa906200053a90899088908a9089908990899060040162001731565b600060405180830381600087803b1580156200055557600080fd5b505af11580156200056a573d6000803e3d6000fd5b5050505050505050505050565b600581815481106200058857600080fd5b600091825260209091200154600160a060020a0316905081565b60083360009081526002602052604090206003015460ff166008811115620005ce57620005ce62001874565b14620005f15760405160e560020a62461bcd028152600401620002619062001799565b600160a060020a038086166000818152600260205260409020549091161415620006615760405160e560020a62461bcd02815260206004820152600960248201527f5553525f45584953540000000000000000000000000000000000000000000000604482015260640162000261565b6200066b620011f1565b600160a060020a038616815260208101859052604081018490528260088111156200069a576200069a62001874565b81606001906008811115620006b357620006b362001874565b90816008811115620006c957620006c962001874565b90525060808101829052600060a082018190524260c0830152600160a060020a0387811682526002602090815260409092208351815473ffffffffffffffffffffffffffffffffffffffff1916921691909117815581830151805184936200073992600185019291019062001162565b50604082015180516200075791600284019160209091019062001162565b50606082015160038201805460ff191660018360088111156200077e576200077e62001874565b021790555060808201518051620007a091600484019160209091019062001162565b5060a082015160058201805460ff191691151591909117905560c09091015160069091015560018054808201825560009190915281517fb10e2d527612073b26eecdfd717e6a320cf44b4afac2b0732d9fcbe2b7fa0cf66007909202918201805473ffffffffffffffffffffffffffffffffffffffff1916600160a060020a039092169190911781556020808401518051859462000865937fb10e2d527612073b26eecdfd717e6a320cf44b4afac2b0732d9fcbe2b7fa0cf790910192019062001162565b50604082015180516200088391600284019160209091019062001162565b50606082015160038201805460ff19166001836008811115620008aa57620008aa62001874565b021790555060808201518051620008cc91600484019160209091019062001162565b5060a082015160058201805460ff191691151591909117905560c090910151600690910155505050505050565b60083360009081526002602052604090206003015460ff16600881111562000925576200092562001874565b14620009485760405160e560020a62461bcd028152600401620002619062001799565b600160a060020a0380821660008181526002602052604090205490911614620009b75760405160e560020a62461bcd02815260206004820152600a60248201527f5553525f4e545f52454700000000000000000000000000000000000000000000604482015260640162000261565b604080518082018252600881527f496e6163746976650000000000000000000000000000000000000000000000006020808301918252600160a060020a0385166000908152600290915292909220905162000a19926004909201919062001162565b50600160a060020a0381166000908152600260205260409020600501805460ff1916600190811790915562000a5090829062000fe6565b50565b60033360009081526002602052604090206003015460ff16600881111562000a7f5762000a7f62001874565b1462000aa25760405160e560020a62461bcd0281526004016200026190620017d0565b81600160a060020a031663644754d56040518163ffffffff1660e060020a028152600401600060405180830381600087803b15801562000ae157600080fd5b505af115801562000af6573d6000803e3d6000fd5b5050505081600160a060020a03166373b037db6040518163ffffffff1660e060020a02815260040160206040518083038186803b15801562000b3757600080fd5b505afa15801562000b4c573d6000803e3d6000fd5b505050506040513d601f19601f8201168201806040525081019062000b729190620015bd565b6001141562000bc757600160a060020a03818116600090815260046020908152604082208054600181018255908352912001805473ffffffffffffffffffffffffffffffffffffffff19169184169190911790555b5050565b600054600160a060020a03163314620005f15760405160e560020a62461bcd028152600401620002619060208082526004908201527f4f57434300000000000000000000000000000000000000000000000000000000604082015260600190565b6001818154811062000c3d57600080fd5b600091825260209091206007909102018054600182018054600160a060020a0390921693509062000c6e9062001807565b80601f016020809104026020016040519081016040528092919081815260200182805462000c9c9062001807565b801562000ced5780601f1062000cc15761010080835404028352916020019162000ced565b820191906000526020600020905b81548152906001019060200180831162000ccf57829003601f168201915b50505050509080600201805462000d049062001807565b80601f016020809104026020016040519081016040528092919081815260200182805462000d329062001807565b801562000d835780601f1062000d575761010080835404028352916020019162000d83565b820191906000526020600020905b81548152906001019060200180831162000d6557829003601f168201915b5050506003840154600485018054949560ff90921694919350915062000da99062001807565b80601f016020809104026020016040519081016040528092919081815260200182805462000dd79062001807565b801562000e285780601f1062000dfc5761010080835404028352916020019162000e28565b820191906000526020600020905b81548152906001019060200180831162000e0a57829003601f168201915b505050506005830154600690930154919260ff1691905087565b60033360009081526002602052604090206003015460ff16600881111562000e6e5762000e6e62001874565b1462000e915760405160e560020a62461bcd0281526004016200026190620017d0565b62000e9c876200110e565b6000338886898988888860405162000eb4906200124a565b62000ec798979695949392919062001627565b604051809103906000f08015801562000ee4573d6000803e3d6000fd5b509050600081600160a060020a031663b25373c96040518163ffffffff1660e060020a02815260040160206040518083038186803b15801562000f2657600080fd5b505afa15801562000f3b573d6000803e3d6000fd5b505050506040513d601f19601f8201168201806040525081019062000f6191906200133d565b3360009081526003602090815260408083208054600181018255908452918320909101805473ffffffffffffffffffffffffffffffffffffffff1916600160a060020a038781169190911790915590519293508316917f8db6d7b51a76f210955cc963ffb2f4c600686d546146c97bfe14f55b138b97959190a2505050505050505050565b6000805b6001548110156200104f5783600160a060020a0316600182815481106200101557620010156200188d565b6000918252602090912060079091020154600160a060020a031614156200103a578091505b80620010468162001847565b91505062000fea565b506040518060400160405280600881526020017f496e616374697665000000000000000000000000000000000000000000000000815250600182815481106200109c576200109c6200188d565b90600052602060002090600702016004019080519060200190620010c292919062001162565b506001821515141562001109576001808281548110620010e657620010e66200188d565b60009182526020909120600790910201600501805460ff19169115159190911790555b505050565b80600160a060020a031663ee8a544a6040518163ffffffff1660e060020a028152600401600060405180830381600087803b1580156200114d57600080fd5b505af115801562000493573d6000803e3d6000fd5b828054620011709062001807565b90600052602060002090601f016020900481019282620011945760008555620011df565b82601f10620011af57805160ff1916838001178555620011df565b82800160010185558215620011df579182015b82811115620011df578251825591602001919060010190620011c2565b50620011ed92915062001258565b5090565b6040518060e001604052806000600160a060020a0316815260200160608152602001606081526020016000600881111562001230576200123062001874565b815260606020820181905260006040830181905291015290565b61102780620018d683390190565b5b80821115620011ed576000815560010162001259565b80356200127c81620018bf565b919050565b600082601f8301126200129357600080fd5b813567ffffffffffffffff80821115620012b157620012b1620018a6565b604051601f8301601f19908116603f01168101908282118183101715620012dc57620012dc620018a6565b81604052838152866020858801011115620012f657600080fd5b836020870160208301376000602085830101528094505050505092915050565b6000602082840312156200132957600080fd5b81356200133681620018bf565b9392505050565b6000602082840312156200135057600080fd5b81516200133681620018bf565b600080604083850312156200137157600080fd5b82356200137e81620018bf565b915060208301356200139081620018bf565b809150509250929050565b600080600060608486031215620013b157600080fd5b8335620013be81620018bf565b9250602084013567ffffffffffffffff80821115620013dc57600080fd5b620013ea8783880162001281565b935060408601359150808211156200140157600080fd5b50620014108682870162001281565b9150509250925092565b600080600080600080600060e0888a0312156200143657600080fd5b87356200144381620018bf565b9650602088013567ffffffffffffffff808211156200146157600080fd5b6200146f8b838c0162001281565b975060408a01359150808211156200148657600080fd5b620014948b838c0162001281565b965060608a0135915080821115620014ab57600080fd5b50620014ba8a828b0162001281565b9450506080880135925060a0880135620014d481620018bf565b9150620014e460c089016200126f565b905092959891949750929550565b600080600080600060a086880312156200150b57600080fd5b85356200151881620018bf565b9450602086013567ffffffffffffffff808211156200153657600080fd5b6200154489838a0162001281565b955060408801359150808211156200155b57600080fd5b6200156989838a0162001281565b94506060880135935060808801359150808211156200158757600080fd5b50620015968882890162001281565b9150509295509295909350565b600060208284031215620015b657600080fd5b5035919050565b600060208284031215620015d057600080fd5b5051919050565b6000815180845260005b81811015620015ff57602081850181015186830182015201620015e1565b8181111562001612576000602083870101525b50601f01601f19169290920160200192915050565b6000610100600160a060020a03808c168452808b166020850152816040850152620016558285018b620015d7565b915083820360608501526200166b828a620015d7565b91508382036080850152620016818289620015d7565b60a085019790975294851660c08401525050911660e09091015295945050505050565b600160a060020a038816815260e060208201526000620016c860e0830189620015d7565b8281036040840152620016dc8189620015d7565b905060098710620017005760e060020a634e487b7102600052602160045260246000fd5b86606084015282810360808401526200171a8187620015d7565b94151560a0840152505060c0015295945050505050565b60c0815260006200174660c0830189620015d7565b82810360208401526200175a8189620015d7565b90508281036040840152620017708188620015d7565b60608401969096525050600160a060020a039283166080820152911660a0909101529392505050565b60208082526004908201527f4f41434300000000000000000000000000000000000000000000000000000000604082015260600190565b60208082526004908201527f4f4d434300000000000000000000000000000000000000000000000000000000604082015260600190565b6002810460018216806200181c57607f821691505b60208210811415620018415760e060020a634e487b7102600052602260045260246000fd5b50919050565b60006000198214156200186d5760e060020a634e487b7102600052601160045260246000fd5b5060010190565b60e060020a634e487b7102600052602160045260246000fd5b60e060020a634e487b7102600052603260045260246000fd5b60e060020a634e487b7102600052604160045260246000fd5b600160a060020a038116811462000a5057600080fdfe60806040523480156200001157600080fd5b5060405162001027380380620010278339810160408190526200003491620002bb565b60008054600160a060020a03808b16600160a060020a03199283161790925560068054928a1692821692909217909155600180549091163017905585516200008490600290602089019062000141565b5084516200009a90600390602088019062000141565b508351620000b090600490602087019062000141565b5060059290925560078054600160a060020a0319908116600160a060020a03938416179091556008805490911692821692909217909155600a8054600160a860020a03191696909116959095179094555050600b8054600181018255600091909152437f0175b7a638427703f0dbe7bb9bbf987a2551717b34e79f33b5b1008d1fa01db99091015550620004269050565b8280546200014f90620003a1565b90600052602060002090601f016020900481019282620001735760008555620001be565b82601f106200018e57805160ff1916838001178555620001be565b82800160010185558215620001be579182015b82811115620001be578251825591602001919060010190620001a1565b50620001cc929150620001d0565b5090565b5b80821115620001cc5760008155600101620001d1565b8051600160a060020a0381168114620001ff57600080fd5b919050565b600082601f8301126200021657600080fd5b81516001604060020a0380821115620002335762000233620003f7565b604051601f8301601f19908116603f011681019082821181831017156200025e576200025e620003f7565b816040528381526020925086838588010111156200027b57600080fd5b600091505b838210156200029f578582018301518183018401529082019062000280565b83821115620002b15760008385830101525b9695505050505050565b600080600080600080600080610100898b031215620002d957600080fd5b620002e489620001e7565b9750620002f460208a01620001e7565b965060408901516001604060020a03808211156200031157600080fd5b6200031f8c838d0162000204565b975060608b01519150808211156200033657600080fd5b620003448c838d0162000204565b965060808b01519150808211156200035b57600080fd5b506200036a8b828c0162000204565b94505060a089015192506200038260c08a01620001e7565b91506200039260e08a01620001e7565b90509295985092959890939650565b600281046001821680620003b657607f821691505b60208210811415620003f1577f4e487b7100000000000000000000000000000000000000000000000000000000600052602260045260246000fd5b50919050565b7f4e487b7100000000000000000000000000000000000000000000000000000000600052604160045260246000fd5b610bf180620004366000396000f3fe608060405234801561001057600080fd5b50600436106100bb576000357c0100000000000000000000000000000000000000000000000000000000900480638915a8fa116100835780638915a8fa1461014a578063a3791bb31461015d578063a761dc4f14610170578063b25373c914610178578063df1f41c81461018b57600080fd5b806340019e5d146100c057806355309891146100ea578063644754d514610109578063678dd1181461011357806373b037db14610134575b600080fd5b600154600160a060020a03165b604051600160a060020a0390911681526020015b60405180910390f35b6100f2610193565b6040516100e19b9a99989796959493929190610a5e565b610111610417565b005b600a546101279060a060020a900460ff1681565b6040516100e19190610b00565b61013c6104ec565b6040519081526020016100e1565b610111610158366004610924565b610512565b61011161016b366004610902565b610592565b61011161068a565b6001546100cd90600160a060020a031681565b610111610725565b600154600a54600654600554600754600854600095869560609586958695899586958695869586958b95600160a060020a03948516958585169560029560039560049590831694909390831692169060a060020a900460ff16858111156101fc576101fc610b69565b600b88805461020a90610b2b565b80601f016020809104026020016040519081016040528092919081815260200182805461023690610b2b565b80156102835780601f1061025857610100808354040283529160200191610283565b820191906000526020600020905b81548152906001019060200180831161026657829003601f168201915b5050505050985087805461029690610b2b565b80601f01602080910402602001604051908101604052809291908181526020018280546102c290610b2b565b801561030f5780601f106102e45761010080835404028352916020019161030f565b820191906000526020600020905b8154815290600101906020018083116102f257829003601f168201915b5050505050975086805461032290610b2b565b80601f016020809104026020016040519081016040528092919081815260200182805461034e90610b2b565b801561039b5780601f106103705761010080835404028352916020019161039b565b820191906000526020600020905b81548152906001019060200180831161037e57829003601f168201915b50505050509650808054806020026020016040519081016040528092919081815260200182805480156103ed57602002820191906000526020600020905b8154815260200190600101908083116103d9575b505050505090509a509a509a509a509a509a509a509a509a509a509a50909192939495969798999a565b6000600a5460a060020a900460ff16600481111561043757610437610b69565b1461048c5760405160e560020a62461bcd02815260206004820152600b60248201527f4d5f4d5553545f41545f4d00000000000000000000000000000000000000000060448201526064015b60405180910390fd5b600b80546001818101835560009290925243600080516020610b9c833981519152909101555b600a805474ff0000000000000000000000000000000000000000191660a060020a8360048111156104e5576104e5610b69565b0217905550565b600a5460009060a060020a900460ff16600481111561050d5761050d610b69565b905090565b84516105259060029060208801906107c0565b5085516105399060039060208901906107c0565b50835161054d9060049060208701906107c0565b5060059290925560078054600160a060020a0392831673ffffffffffffffffffffffffffffffffffffffff199182161790915560088054929093169116179055505050565b6002600a5460a060020a900460ff1660048111156105b2576105b2610b69565b146106025760405160e560020a62461bcd02815260206004820152600b60248201527f4d5f4d5553545f41545f440000000000000000000000000000000000000000006044820152606401610483565b600b805460018101825560009190915243600080516020610b9c83398151915290910155600a805474ff00000000000000000000000000000000000000001916740300000000000000000000000000000000000000001790556009805473ffffffffffffffffffffffffffffffffffffffff1916600160a060020a0392909216919091179055565b6001600a5460a060020a900460ff1660048111156106aa576106aa610b69565b146106fa5760405160e560020a62461bcd02815260206004820152600b60248201527f4d5f4d5553545f41545f440000000000000000000000000000000000000000006044820152606401610483565b600b805460018101825560009190915243600080516020610b9c8339815191529091015560026104b2565b6003600a5460a060020a900460ff16600481111561074557610745610b69565b146107955760405160e560020a62461bcd02815260206004820152600b60248201527f4d5f4d5553545f41545f500000000000000000000000000000000000000000006044820152606401610483565b600b805460018101825560009190915243600080516020610b9c8339815191529091015560046104b2565b8280546107cc90610b2b565b90600052602060002090601f0160209004810192826107ee5760008555610834565b82601f1061080757805160ff1916838001178555610834565b82800160010185558215610834579182015b82811115610834578251825591602001919060010190610819565b50610840929150610844565b5090565b5b808211156108405760008155600101610845565b8035600160a060020a038116811461087057600080fd5b919050565b600082601f83011261088657600080fd5b813567ffffffffffffffff808211156108a1576108a1610b82565b604051601f8301601f19908116603f011681019082821181831017156108c9576108c9610b82565b816040528381528660208588010111156108e257600080fd5b836020870160208301376000602085830101528094505050505092915050565b60006020828403121561091457600080fd5b61091d82610859565b9392505050565b60008060008060008060c0878903121561093d57600080fd5b863567ffffffffffffffff8082111561095557600080fd5b6109618a838b01610875565b9750602089013591508082111561097757600080fd5b6109838a838b01610875565b9650604089013591508082111561099957600080fd5b506109a689828a01610875565b945050606087013592506109bc60808801610859565b91506109ca60a08801610859565b90509295509295509295565b600081518084526020808501945080840160005b83811015610a06578151875295820195908201906001016109ea565b509495945050505050565b6000815180845260005b81811015610a3757602081850181015186830182015201610a1b565b81811115610a49576000602083870101525b50601f01601f19169290920160200192915050565b6000610160600160a060020a03808f168452808e166020850152816040850152610a8a8285018e610a11565b91508382036060850152610a9e828d610a11565b91508382036080850152610ab2828c610a11565b9150808a1660a08501528860c085015280881660e08501528087166101008501525084610120840152828103610140840152610aee81856109d6565b9e9d5050505050505050505050505050565b6020810160058310610b255760e060020a634e487b7102600052602160045260246000fd5b91905290565b600281046001821680610b3f57607f821691505b60208210811415610b635760e060020a634e487b7102600052602260045260246000fd5b50919050565b60e060020a634e487b7102600052602160045260246000fd5b60e060020a634e487b7102600052604160045260246000fdfe0175b7a638427703f0dbe7bb9bbf987a2551717b34e79f33b5b1008d1fa01db9a2646970667358221220b16ffef191f0e37aae4b42cb59a00f8c25c631cf8d9e10f27bfd0d5d239584a064736f6c63430008060033a2646970667358221220d32b34ad9f0d384a46b1787334a94a6c2993d4f100017085d627b5942932d9da64736f6c63430008060033",
  "immutableReferences": {},
  "source": "// SPDX-License-Identifier: MIT\r\npragma solidity >=0.4.22 <0.9.0;\r\npragma experimental ABIEncoderV2;\r\n\r\nimport \"./User.sol\";\r\nimport \"./RawMaterials.sol\";\r\nimport \"./Medicine.sol\";\r\n\r\ncontract Manufacturer is User {\r\n    mapping(address => address[]) MedicinesManufactured;\r\n    mapping(address => address[]) MedicineBatchShipmentList;\r\n    address[] public TotalMedicineBatchesShipped;\r\n\r\n    event MedicinePackageInitialize(address indexed MedicineID);\r\n\r\n    modifier onlyManufacturer {\r\n        require(\r\n            UsersDetails[msg.sender].userRole == roles.manufacturer,\r\n            \"OMCC\"\r\n        ); //Only Manufacturer can call this function.\r\n        _;\r\n    }\r\n\r\n    //Recieve & update raw material package shippment status for supplied package ID by tagged/associated receiver/manufacturer. Update RawMaterialPackagesReceivedAtManufacturer mapping\r\n    //@param _packageID Material/Package/batch ID Address\r\n    function updateRecievedRawMaterialPackageStatus(address _materialId)\r\n        private\r\n    {\r\n        RawMaterials(_materialId).UpdatePackageStatusOnReceived();\r\n    }\r\n\r\n    //Initialize Medicine batch with required details, transporter & distributor. Emit event with new package details.\r\n    //@param _materialID Raw Material information Address\r\n    //@param _desc Medicine description String\r\n    //@param _medicineName Medicine name String\r\n    //@param _quantity Medicine Quantity Uint\r\n    //@param _transporter Transporter/Shipper Address\r\n    //@param _distributor Reciever/Distributor Address\r\n    function createMedicinePackage(\r\n        address _materialId,\r\n        string memory _medicineName,\r\n        string memory _location,\r\n        string memory _desc,\r\n        uint256 _quantity,\r\n        address _transporter,\r\n        address _distributor\r\n    ) public onlyManufacturer {\r\n        updateRecievedRawMaterialPackageStatus(_materialId);\r\n        Medicine medicineData = new Medicine(\r\n            msg.sender,\r\n            _materialId,\r\n            _desc,\r\n            _medicineName,\r\n            _location,\r\n            _quantity,\r\n            _transporter,\r\n            _distributor\r\n        );\r\n        //populate medicine ID\r\n        address _medicineID = medicineData.medicineId();\r\n        //Push medicine address to list registered by manudacturer\r\n        MedicinesManufactured[msg.sender].push(address(medicineData));\r\n        //Emit event after medicine registration\r\n        emit MedicinePackageInitialize(_medicineID);\r\n    }\r\n\r\n    function updateMedicineBatch(\r\n        address _medicineID,\r\n        string memory _medicineName,\r\n        string memory _location,\r\n        string memory _desc,\r\n        uint256 _quantity,\r\n        address _transporter,\r\n        address _distributor\r\n    ) public onlyManufacturer {\r\n        Medicine(_medicineID).updateMedicineBatchDetails(\r\n            _medicineName,\r\n            _desc,\r\n            _location,\r\n            _quantity,\r\n            _transporter,\r\n            _distributor\r\n        );\r\n    }\r\n\r\n    //Load & ship medicine batch from manufacturer to ditributor. Only manufacturer call this.\r\n    function loadAndShipMedicineBatch(address _medicineID, address _distributor)\r\n        public\r\n        onlyManufacturer\r\n    {\r\n        Medicine(_medicineID).pickMedicinePackageForDistributor();\r\n        if (Medicine(_medicineID).getMedicineStatus() == 1) {\r\n            MedicineBatchShipmentList[_distributor].push(_medicineID);\r\n        }\r\n    }\r\n\r\n    function getTotalMedicineBatchesShippedCount(address _distributor)\r\n        public\r\n        view\r\n        returns (uint256)\r\n    {\r\n        return MedicineBatchShipmentList[_distributor].length;\r\n    }\r\n}\r\n",
  "sourcePath": "C:\\Development\\Blockchain\\Learning-2\\contracts\\Manufacturer.sol",
  "compiler": {
    "name": "solc",
    "version": "0.8.6+commit.11564f7e.Emscripten.clang"
  },
  "schemaVersion": "3.4.1",
  "updatedAt": "2021-08-05T10:21:15.099Z",
  "devdoc": {
    "kind": "dev",
    "methods": {},
    "version": 1
  },
  "userdoc": {
    "kind": "user",
    "methods": {},
    "version": 1
  }
}