{
  "contractName": "Manufacturer",
  "abi": [
    {
      "anonymous": false,
      "inputs": [
        {
          "indexed": false,
          "internalType": "address",
          "name": "medicineId",
          "type": "address"
        },
        {
          "indexed": false,
          "internalType": "address",
          "name": "materialId",
          "type": "address"
        },
        {
          "indexed": false,
          "internalType": "uint256",
          "name": "medicineBatchStatus",
          "type": "uint256"
        },
        {
          "indexed": false,
          "internalType": "uint256[]",
          "name": "transactionBlocks",
          "type": "uint256[]"
        },
        {
          "indexed": false,
          "internalType": "uint256",
          "name": "materialPackageStatus",
          "type": "uint256"
        }
      ],
      "name": "MedicinePackageInitialize",
      "type": "event"
    },
    {
      "anonymous": false,
      "inputs": [
        {
          "indexed": false,
          "internalType": "string",
          "name": "medicineName",
          "type": "string"
        },
        {
          "indexed": false,
          "internalType": "string",
          "name": "location",
          "type": "string"
        },
        {
          "indexed": false,
          "internalType": "string",
          "name": "description",
          "type": "string"
        },
        {
          "indexed": false,
          "internalType": "uint256",
          "name": "quantity",
          "type": "uint256"
        },
        {
          "indexed": false,
          "internalType": "address",
          "name": "transporter",
          "type": "address"
        },
        {
          "indexed": false,
          "internalType": "address",
          "name": "distributor",
          "type": "address"
        }
      ],
      "name": "UpdatedMedicineBatchInfo",
      "type": "event"
    },
    {
      "anonymous": false,
      "inputs": [
        {
          "indexed": false,
          "internalType": "address",
          "name": "medicineId",
          "type": "address"
        },
        {
          "indexed": false,
          "internalType": "uint256",
          "name": "packageStatus",
          "type": "uint256"
        },
        {
          "indexed": false,
          "internalType": "uint256[]",
          "name": "transactionBlocks",
          "type": "uint256[]"
        }
      ],
      "name": "UpdatedMedicineBatchStatus",
      "type": "event"
    },
    {
      "anonymous": false,
      "inputs": [
        {
          "indexed": false,
          "internalType": "address",
          "name": "materialId",
          "type": "address"
        },
        {
          "indexed": false,
          "internalType": "uint256",
          "name": "packageStatus",
          "type": "uint256"
        }
      ],
      "name": "UpdatedPackageStatusOnReceived",
      "type": "event"
    },
    {
      "inputs": [
        {
          "internalType": "address",
          "name": "",
          "type": "address"
        },
        {
          "internalType": "uint256",
          "name": "",
          "type": "uint256"
        }
      ],
      "name": "TaggedInspectorMedicineList",
      "outputs": [
        {
          "internalType": "address",
          "name": "",
          "type": "address"
        }
      ],
      "stateMutability": "view",
      "type": "function"
    },
    {
      "inputs": [
        {
          "internalType": "uint256",
          "name": "",
          "type": "uint256"
        }
      ],
      "name": "UserList",
      "outputs": [
        {
          "internalType": "address",
          "name": "userAddress",
          "type": "address"
        },
        {
          "internalType": "string",
          "name": "userName",
          "type": "string"
        },
        {
          "internalType": "string",
          "name": "userLocation",
          "type": "string"
        },
        {
          "internalType": "enum User.roles",
          "name": "userRole",
          "type": "uint8"
        },
        {
          "internalType": "string",
          "name": "userStatus",
          "type": "string"
        },
        {
          "internalType": "bool",
          "name": "isDeleted",
          "type": "bool"
        },
        {
          "internalType": "uint256",
          "name": "registrationDate",
          "type": "uint256"
        }
      ],
      "stateMutability": "view",
      "type": "function"
    },
    {
      "inputs": [
        {
          "internalType": "address",
          "name": "_address",
          "type": "address"
        }
      ],
      "name": "deleteUser",
      "outputs": [],
      "stateMutability": "nonpayable",
      "type": "function"
    },
    {
      "inputs": [],
      "name": "owner",
      "outputs": [
        {
          "internalType": "address",
          "name": "",
          "type": "address"
        }
      ],
      "stateMutability": "view",
      "type": "function"
    },
    {
      "inputs": [
        {
          "internalType": "address",
          "name": "_address",
          "type": "address"
        },
        {
          "internalType": "string",
          "name": "_name",
          "type": "string"
        },
        {
          "internalType": "string",
          "name": "_location",
          "type": "string"
        },
        {
          "internalType": "uint256",
          "name": "_role",
          "type": "uint256"
        },
        {
          "internalType": "string",
          "name": "_userStatus",
          "type": "string"
        }
      ],
      "name": "registerAdmin",
      "outputs": [],
      "stateMutability": "nonpayable",
      "type": "function"
    },
    {
      "inputs": [
        {
          "internalType": "address",
          "name": "_address",
          "type": "address"
        },
        {
          "internalType": "string",
          "name": "_name",
          "type": "string"
        },
        {
          "internalType": "string",
          "name": "_location",
          "type": "string"
        },
        {
          "internalType": "uint256",
          "name": "_role",
          "type": "uint256"
        },
        {
          "internalType": "string",
          "name": "_userStatus",
          "type": "string"
        }
      ],
      "name": "registerUser",
      "outputs": [],
      "stateMutability": "nonpayable",
      "type": "function"
    },
    {
      "inputs": [
        {
          "internalType": "address",
          "name": "_address",
          "type": "address"
        },
        {
          "internalType": "string",
          "name": "_location",
          "type": "string"
        },
        {
          "internalType": "string",
          "name": "_userStatus",
          "type": "string"
        }
      ],
      "name": "updateUser",
      "outputs": [],
      "stateMutability": "nonpayable",
      "type": "function"
    },
    {
      "inputs": [
        {
          "internalType": "address",
          "name": "_materialId",
          "type": "address"
        },
        {
          "internalType": "string",
          "name": "_medicineName",
          "type": "string"
        },
        {
          "internalType": "string",
          "name": "_description",
          "type": "string"
        },
        {
          "internalType": "string",
          "name": "_location",
          "type": "string"
        },
        {
          "internalType": "uint256",
          "name": "_quantity",
          "type": "uint256"
        },
        {
          "internalType": "address",
          "name": "_transporter",
          "type": "address"
        },
        {
          "internalType": "address",
          "name": "_distributor",
          "type": "address"
        },
        {
          "internalType": "address",
          "name": "_inspector",
          "type": "address"
        }
      ],
      "name": "createMedicinePackage",
      "outputs": [],
      "stateMutability": "nonpayable",
      "type": "function"
    },
    {
      "inputs": [
        {
          "internalType": "address",
          "name": "_medicineId",
          "type": "address"
        },
        {
          "internalType": "string",
          "name": "_medicineName",
          "type": "string"
        },
        {
          "internalType": "string",
          "name": "_location",
          "type": "string"
        },
        {
          "internalType": "string",
          "name": "_desc",
          "type": "string"
        },
        {
          "internalType": "uint256",
          "name": "_quantity",
          "type": "uint256"
        },
        {
          "internalType": "address",
          "name": "_transporter",
          "type": "address"
        },
        {
          "internalType": "address",
          "name": "_distributor",
          "type": "address"
        }
      ],
      "name": "updateMedicineBatch",
      "outputs": [],
      "stateMutability": "nonpayable",
      "type": "function"
    },
    {
      "inputs": [
        {
          "internalType": "address",
          "name": "_materialId",
          "type": "address"
        }
      ],
      "name": "rejectMaterialPackage",
      "outputs": [],
      "stateMutability": "nonpayable",
      "type": "function"
    },
    {
      "inputs": [
        {
          "internalType": "address",
          "name": "_materialId",
          "type": "address"
        }
      ],
      "name": "approveMaterialPackage",
      "outputs": [],
      "stateMutability": "nonpayable",
      "type": "function"
    },
    {
      "inputs": [
        {
          "internalType": "address",
          "name": "_medicineId",
          "type": "address"
        },
        {
          "internalType": "address",
          "name": "_inspector",
          "type": "address"
        }
      ],
      "name": "sendMedicineBatchForInspection",
      "outputs": [],
      "stateMutability": "nonpayable",
      "type": "function"
    }
  ],
  "bytecode": "0x608060405234801561001057600080fd5b50336000806101000a81548173ffffffffffffffffffffffffffffffffffffffff021916908373ffffffffffffffffffffffffffffffffffffffff160217905550615c1b806100606000396000f3fe60806040523480156200001157600080fd5b5060043610620000e1576000357c010000000000000000000000000000000000000000000000000000000090048063a00453c01162000098578063a00453c014620001a8578063b30631b814620001c8578063babe165514620001e8578063df649b461462000224578063faa724c01462000244578063fea3f9bf146200027a57620000e1565b806310e8b22d14620000e657806314c4aecd14620001065780633bb3ec9e14620001265780635c60f22614620001465780638da5cb5b14620001665780639db6f6291462000188575b600080fd5b620001046004803603810190620000fe9190620027b4565b6200029a565b005b6200012460048036038101906200011e91906200284e565b620006a9565b005b6200014460048036038101906200013e919062002a84565b62000878565b005b6200016460048036038101906200015e91906200273b565b62000d49565b005b6200017062000fd4565b6040516200017f919062002e9b565b60405180910390f35b620001a66004803603810190620001a091906200273b565b62000ff8565b005b620001c66004803603810190620001c0919062002a84565b6200123f565b005b620001e66004803603810190620001e091906200295e565b620016e2565b005b62000206600480360381019062000200919062002c33565b62001ab6565b6040516200021b979695949392919062002fd0565b60405180910390f35b6200024260048036038101906200023c91906200276d565b62001cf3565b005b6200026260048036038101906200025c919062002b69565b6200207f565b60405162000271919062002e9b565b60405180910390f35b6200029860048036038101906200029291906200273b565b620020ce565b005b60086009811115620002b157620002b0620034a5565b5b600260003373ffffffffffffffffffffffffffffffffffffffff1673ffffffffffffffffffffffffffffffffffffffff16815260200190815260200160002060030160009054906101000a900460ff166009811115620003165762000315620034a5565b5b1462000359576040517f08c379a0000000000000000000000000000000000000000000000000000000008152600401620003509062003177565b60405180910390fd5b8273ffffffffffffffffffffffffffffffffffffffff16600260008573ffffffffffffffffffffffffffffffffffffffff1673ffffffffffffffffffffffffffffffffffffffff16815260200190815260200160002060000160009054906101000a900473ffffffffffffffffffffffffffffffffffffffff1673ffffffffffffffffffffffffffffffffffffffff16146200042c576040517f08c379a0000000000000000000000000000000000000000000000000000000008152600401620004239062003155565b60405180910390fd5b60001515600260008573ffffffffffffffffffffffffffffffffffffffff1673ffffffffffffffffffffffffffffffffffffffff16815260200190815260200160002060050160009054906101000a900460ff16151514620004c5576040517f08c379a0000000000000000000000000000000000000000000000000000000008152600401620004bc90620031dd565b60405180910390fd5b81600260008573ffffffffffffffffffffffffffffffffffffffff1673ffffffffffffffffffffffffffffffffffffffff16815260200190815260200160002060020190805190602001906200051d9291906200248b565b5080600260008573ffffffffffffffffffffffffffffffffffffffff1673ffffffffffffffffffffffffffffffffffffffff1681526020019081526020016000206004019080519060200190620005769291906200248b565b50600080600090505b60018054905081101562000624578473ffffffffffffffffffffffffffffffffffffffff1660018281548110620005bb57620005ba62003503565b5b906000526020600020906007020160000160009054906101000a900473ffffffffffffffffffffffffffffffffffffffff1673ffffffffffffffffffffffffffffffffffffffff1614156200060e578091505b80806200061b9062003428565b9150506200057f565b5082600182815481106200063d576200063c62003503565b5b90600052602060002090600702016002019080519060200190620006639291906200248b565b5081600182815481106200067c576200067b62003503565b5b90600052602060002090600702016004019080519060200190620006a29291906200248b565b5050505050565b60036009811115620006c057620006bf620034a5565b5b600260003373ffffffffffffffffffffffffffffffffffffffff1673ffffffffffffffffffffffffffffffffffffffff16815260200190815260200160002060030160009054906101000a900460ff166009811115620007255762000724620034a5565b5b1462000768576040517f08c379a00000000000000000000000000000000000000000000000000000000081526004016200075f90620031ff565b60405180910390fd5b60008773ffffffffffffffffffffffffffffffffffffffff16638915a8fa8887898888886040518763ffffffff167c0100000000000000000000000000000000000000000000000000000000028152600401620007cb96959493929190620030d3565b602060405180830381600087803b158015620007e657600080fd5b505af1158015620007fb573d6000803e3d6000fd5b505050506040513d601f19601f8201168201806040525081019062000821919062002c01565b905080156200086e577f239aeffd61ce9b14705b4a3911bc25c330b6c7b7dc4f1fa539fa5129c01feb638786888787876040516200086596959493929190620030d3565b60405180910390a15b5050505050505050565b600860098111156200088f576200088e620034a5565b5b600260003373ffffffffffffffffffffffffffffffffffffffff1673ffffffffffffffffffffffffffffffffffffffff16815260200190815260200160002060030160009054906101000a900460ff166009811115620008f457620008f3620034a5565b5b1462000937576040517f08c379a00000000000000000000000000000000000000000000000000000000081526004016200092e9062003177565b60405180910390fd5b8473ffffffffffffffffffffffffffffffffffffffff16600260008773ffffffffffffffffffffffffffffffffffffffff1673ffffffffffffffffffffffffffffffffffffffff16815260200190815260200160002060000160009054906101000a900473ffffffffffffffffffffffffffffffffffffffff1673ffffffffffffffffffffffffffffffffffffffff16141562000a0b576040517f08c379a000000000000000000000000000000000000000000000000000000000815260040162000a0290620031bb565b60405180910390fd5b62000a156200251c565b85816000019073ffffffffffffffffffffffffffffffffffffffff16908173ffffffffffffffffffffffffffffffffffffffff168152505084816020018190525083816040018190525082600981111562000a755762000a74620034a5565b5b8160600190600981111562000a8f5762000a8e620034a5565b5b9081600981111562000aa65762000aa5620034a5565b5b8152505081816080018190525060008160a0019015159081151581525050428160c001818152505080600260008873ffffffffffffffffffffffffffffffffffffffff1673ffffffffffffffffffffffffffffffffffffffff16815260200190815260200160002060008201518160000160006101000a81548173ffffffffffffffffffffffffffffffffffffffff021916908373ffffffffffffffffffffffffffffffffffffffff160217905550602082015181600101908051906020019062000b739291906200248b565b50604082015181600201908051906020019062000b929291906200248b565b5060608201518160030160006101000a81548160ff0219169083600981111562000bc15762000bc0620034a5565b5b0217905550608082015181600401908051906020019062000be49291906200248b565b5060a08201518160050160006101000a81548160ff02191690831515021790555060c08201518160060155905050600181908060018154018082558091505060019003906000526020600020906007020160009091909190915060008201518160000160006101000a81548173ffffffffffffffffffffffffffffffffffffffff021916908373ffffffffffffffffffffffffffffffffffffffff160217905550602082015181600101908051906020019062000ca39291906200248b565b50604082015181600201908051906020019062000cc29291906200248b565b5060608201518160030160006101000a81548160ff0219169083600981111562000cf15762000cf0620034a5565b5b0217905550608082015181600401908051906020019062000d149291906200248b565b5060a08201518160050160006101000a81548160ff02191690831515021790555060c082015181600601555050505050505050565b6008600981111562000d605762000d5f620034a5565b5b600260003373ffffffffffffffffffffffffffffffffffffffff1673ffffffffffffffffffffffffffffffffffffffff16815260200190815260200160002060030160009054906101000a900460ff16600981111562000dc55762000dc4620034a5565b5b1462000e08576040517f08c379a000000000000000000000000000000000000000000000000000000000815260040162000dff9062003177565b60405180910390fd5b8073ffffffffffffffffffffffffffffffffffffffff16600260008373ffffffffffffffffffffffffffffffffffffffff1673ffffffffffffffffffffffffffffffffffffffff16815260200190815260200160002060000160009054906101000a900473ffffffffffffffffffffffffffffffffffffffff1673ffffffffffffffffffffffffffffffffffffffff161462000edb576040517f08c379a000000000000000000000000000000000000000000000000000000000815260040162000ed29062003155565b60405180910390fd5b6040518060400160405280600881526020017f496e616374697665000000000000000000000000000000000000000000000000815250600260008373ffffffffffffffffffffffffffffffffffffffff1673ffffffffffffffffffffffffffffffffffffffff168152602001908152602001600020600401908051906020019062000f689291906200248b565b506001600260008373ffffffffffffffffffffffffffffffffffffffff1673ffffffffffffffffffffffffffffffffffffffff16815260200190815260200160002060050160006101000a81548160ff02191690831515021790555062000fd181600162002315565b50565b60008054906101000a900473ffffffffffffffffffffffffffffffffffffffff1681565b600360098111156200100f576200100e620034a5565b5b600260003373ffffffffffffffffffffffffffffffffffffffff1673ffffffffffffffffffffffffffffffffffffffff16815260200190815260200160002060030160009054906101000a900460ff166009811115620010745762001073620034a5565b5b14620010b7576040517f08c379a0000000000000000000000000000000000000000000000000000000008152600401620010ae90620031ff565b60405180910390fd5b60008173ffffffffffffffffffffffffffffffffffffffff1663f5b1edfd6040518163ffffffff167c0100000000000000000000000000000000000000000000000000000000028152600401602060405180830381600087803b1580156200111e57600080fd5b505af115801562001133573d6000803e3d6000fd5b505050506040513d601f19601f8201168201806040525081019062001159919062002c01565b905080156200123b577f58d8ed7f1b8feae83bad91b52b415f7f3421428c9f0dfa37021c5bfa77a586b4828373ffffffffffffffffffffffffffffffffffffffff1663922962996040518163ffffffff167c010000000000000000000000000000000000000000000000000000000002815260040160206040518083038186803b158015620011e757600080fd5b505afa158015620011fc573d6000803e3d6000fd5b505050506040513d601f19601f8201168201806040525081019062001222919062002c65565b6040516200123292919062003062565b60405180910390a15b5050565b60008054906101000a900473ffffffffffffffffffffffffffffffffffffffff1673ffffffffffffffffffffffffffffffffffffffff163373ffffffffffffffffffffffffffffffffffffffff1614620012d0576040517f08c379a0000000000000000000000000000000000000000000000000000000008152600401620012c79062003199565b60405180910390fd5b8473ffffffffffffffffffffffffffffffffffffffff16600260008773ffffffffffffffffffffffffffffffffffffffff1673ffffffffffffffffffffffffffffffffffffffff16815260200190815260200160002060000160009054906101000a900473ffffffffffffffffffffffffffffffffffffffff1673ffffffffffffffffffffffffffffffffffffffff161415620013a4576040517f08c379a00000000000000000000000000000000000000000000000000000000081526004016200139b90620031bb565b60405180910390fd5b620013ae6200251c565b85816000019073ffffffffffffffffffffffffffffffffffffffff16908173ffffffffffffffffffffffffffffffffffffffff16815250508481602001819052508381604001819052508260098111156200140e576200140d620034a5565b5b81606001906009811115620014285762001427620034a5565b5b908160098111156200143f576200143e620034a5565b5b8152505081816080018190525060008160a0019015159081151581525050428160c001818152505080600260008873ffffffffffffffffffffffffffffffffffffffff1673ffffffffffffffffffffffffffffffffffffffff16815260200190815260200160002060008201518160000160006101000a81548173ffffffffffffffffffffffffffffffffffffffff021916908373ffffffffffffffffffffffffffffffffffffffff16021790555060208201518160010190805190602001906200150c9291906200248b565b5060408201518160020190805190602001906200152b9291906200248b565b5060608201518160030160006101000a81548160ff021916908360098111156200155a5762001559620034a5565b5b021790555060808201518160040190805190602001906200157d9291906200248b565b5060a08201518160050160006101000a81548160ff02191690831515021790555060c08201518160060155905050600181908060018154018082558091505060019003906000526020600020906007020160009091909190915060008201518160000160006101000a81548173ffffffffffffffffffffffffffffffffffffffff021916908373ffffffffffffffffffffffffffffffffffffffff16021790555060208201518160010190805190602001906200163c9291906200248b565b5060408201518160020190805190602001906200165b9291906200248b565b5060608201518160030160006101000a81548160ff021916908360098111156200168a5762001689620034a5565b5b02179055506080820151816004019080519060200190620016ad9291906200248b565b5060a08201518160050160006101000a81548160ff02191690831515021790555060c082015181600601555050505050505050565b60036009811115620016f957620016f8620034a5565b5b600260003373ffffffffffffffffffffffffffffffffffffffff1673ffffffffffffffffffffffffffffffffffffffff16815260200190815260200160002060030160009054906101000a900460ff1660098111156200175e576200175d620034a5565b5b14620017a1576040517f08c379a00000000000000000000000000000000000000000000000000000000081526004016200179890620031ff565b60405180910390fd5b6000338989898989898989604051620017ba9062002586565b620017ce9998979695949392919062002eb8565b604051809103906000f080158015620017eb573d6000803e3d6000fd5b509050600360003373ffffffffffffffffffffffffffffffffffffffff1673ffffffffffffffffffffffffffffffffffffffff168152602001908152602001600020819080600181540180825580915050600190039060005260206000200160009091909190916101000a81548173ffffffffffffffffffffffffffffffffffffffff021916908373ffffffffffffffffffffffffffffffffffffffff1602179055507fcb372785a8ceee7b4d9c65768c453039a37294b3d120650542b54fea0044d7fe818a8373ffffffffffffffffffffffffffffffffffffffff166373b037db6040518163ffffffff167c010000000000000000000000000000000000000000000000000000000002815260040160206040518083038186803b1580156200191457600080fd5b505afa15801562001929573d6000803e3d6000fd5b505050506040513d601f19601f820116820180604052508101906200194f919062002c65565b8473ffffffffffffffffffffffffffffffffffffffff1663cd8a5b2e6040518163ffffffff167c010000000000000000000000000000000000000000000000000000000002815260040160006040518083038186803b158015620019b257600080fd5b505afa158015620019c7573d6000803e3d6000fd5b505050506040513d6000823e3d601f19601f82011682018060405250810190620019f2919062002bb0565b8d73ffffffffffffffffffffffffffffffffffffffff1663922962996040518163ffffffff167c010000000000000000000000000000000000000000000000000000000002815260040160206040518083038186803b15801562001a5557600080fd5b505afa15801562001a6a573d6000803e3d6000fd5b505050506040513d601f19601f8201168201806040525081019062001a90919062002c65565b60405162001aa395949392919062002f6c565b60405180910390a1505050505050505050565b6001818154811062001ac757600080fd5b90600052602060002090600702016000915090508060000160009054906101000a900473ffffffffffffffffffffffffffffffffffffffff169080600101805462001b1290620033bc565b80601f016020809104026020016040519081016040528092919081815260200182805462001b4090620033bc565b801562001b915780601f1062001b655761010080835404028352916020019162001b91565b820191906000526020600020905b81548152906001019060200180831162001b7357829003601f168201915b50505050509080600201805462001ba890620033bc565b80601f016020809104026020016040519081016040528092919081815260200182805462001bd690620033bc565b801562001c275780601f1062001bfb5761010080835404028352916020019162001c27565b820191906000526020600020905b81548152906001019060200180831162001c0957829003601f168201915b5050505050908060030160009054906101000a900460ff169080600401805462001c5190620033bc565b80601f016020809104026020016040519081016040528092919081815260200182805462001c7f90620033bc565b801562001cd05780601f1062001ca45761010080835404028352916020019162001cd0565b820191906000526020600020905b81548152906001019060200180831162001cb257829003601f168201915b5050505050908060050160009054906101000a900460ff16908060060154905087565b6003600981111562001d0a5762001d09620034a5565b5b600260003373ffffffffffffffffffffffffffffffffffffffff1673ffffffffffffffffffffffffffffffffffffffff16815260200190815260200160002060030160009054906101000a900460ff16600981111562001d6f5762001d6e620034a5565b5b1462001db2576040517f08c379a000000000000000000000000000000000000000000000000000000000815260040162001da990620031ff565b60405180910390fd5b60008273ffffffffffffffffffffffffffffffffffffffff166353534f386040518163ffffffff167c0100000000000000000000000000000000000000000000000000000000028152600401602060405180830381600087803b15801562001e1957600080fd5b505af115801562001e2e573d6000803e3d6000fd5b505050506040513d601f19601f8201168201806040525081019062001e54919062002c01565b905080156200207a57600460008373ffffffffffffffffffffffffffffffffffffffff1673ffffffffffffffffffffffffffffffffffffffff168152602001908152602001600020839080600181540180825580915050600190039060005260206000200160009091909190916101000a81548173ffffffffffffffffffffffffffffffffffffffff021916908373ffffffffffffffffffffffffffffffffffffffff1602179055507f97e69abcbb35262d2951b8fb39f6845c41f184783210f3f9f822c2b900778566838473ffffffffffffffffffffffffffffffffffffffff166373b037db6040518163ffffffff167c010000000000000000000000000000000000000000000000000000000002815260040160206040518083038186803b15801562001f8257600080fd5b505afa15801562001f97573d6000803e3d6000fd5b505050506040513d601f19601f8201168201806040525081019062001fbd919062002c65565b8573ffffffffffffffffffffffffffffffffffffffff1663cd8a5b2e6040518163ffffffff167c010000000000000000000000000000000000000000000000000000000002815260040160006040518083038186803b1580156200202057600080fd5b505afa15801562002035573d6000803e3d6000fd5b505050506040513d6000823e3d601f19601f8201168201806040525081019062002060919062002bb0565b60405162002071939291906200308f565b60405180910390a15b505050565b600460205281600052604060002081815481106200209c57600080fd5b906000526020600020016000915091509054906101000a900473ffffffffffffffffffffffffffffffffffffffff1681565b60036009811115620020e557620020e4620034a5565b5b600260003373ffffffffffffffffffffffffffffffffffffffff1673ffffffffffffffffffffffffffffffffffffffff16815260200190815260200160002060030160009054906101000a900460ff1660098111156200214a5762002149620034a5565b5b146200218d576040517f08c379a00000000000000000000000000000000000000000000000000000000081526004016200218490620031ff565b60405180910390fd5b60008173ffffffffffffffffffffffffffffffffffffffff16634a4815bf6040518163ffffffff167c0100000000000000000000000000000000000000000000000000000000028152600401602060405180830381600087803b158015620021f457600080fd5b505af115801562002209573d6000803e3d6000fd5b505050506040513d601f19601f820116820180604052508101906200222f919062002c01565b9050801562002311577f58d8ed7f1b8feae83bad91b52b415f7f3421428c9f0dfa37021c5bfa77a586b4828373ffffffffffffffffffffffffffffffffffffffff1663922962996040518163ffffffff167c010000000000000000000000000000000000000000000000000000000002815260040160206040518083038186803b158015620022bd57600080fd5b505afa158015620022d2573d6000803e3d6000fd5b505050506040513d601f19601f82011682018060405250810190620022f8919062002c65565b6040516200230892919062003062565b60405180910390a15b5050565b600080600090505b600180549050811015620023c2578373ffffffffffffffffffffffffffffffffffffffff166001828154811062002359576200235862003503565b5b906000526020600020906007020160000160009054906101000a900473ffffffffffffffffffffffffffffffffffffffff1673ffffffffffffffffffffffffffffffffffffffff161415620023ac578091505b8080620023b99062003428565b9150506200231d565b506040518060400160405280600881526020017f496e6163746976650000000000000000000000000000000000000000000000008152506001828154811062002410576200240f62003503565b5b90600052602060002090600702016004019080519060200190620024369291906200248b565b50600115158215151415620024865760018082815481106200245d576200245c62003503565b5b906000526020600020906007020160050160006101000a81548160ff0219169083151502179055505b505050565b8280546200249990620033bc565b90600052602060002090601f016020900481019282620024bd576000855562002509565b82601f10620024d857805160ff191683800117855562002509565b8280016001018555821562002509579182015b8281111562002508578251825591602001919060010190620024eb565b5b50905062002518919062002594565b5090565b6040518060e00160405280600073ffffffffffffffffffffffffffffffffffffffff168152602001606081526020016060815260200160006009811115620025695762002568620034a5565b5b815260200160608152602001600015158152602001600081525090565b6124ff80620036e783390190565b5b80821115620025af57600081600090555060010162002595565b5090565b6000620025ca620025c4846200324a565b62003221565b90508083825260208201905082856020860282011115620025f057620025ef62003566565b5b60005b8581101562002624578162002609888262002724565b845260208401935060208301925050600181019050620025f3565b5050509392505050565b6000620026456200263f8462003279565b62003221565b9050828152602081018484840111156200266457620026636200356b565b5b6200267184828562003377565b509392505050565b6000813590506200268a8162003698565b92915050565b600082601f830112620026a857620026a762003561565b5b8151620026ba848260208601620025b3565b91505092915050565b600081519050620026d481620036b2565b92915050565b600082601f830112620026f257620026f162003561565b5b8135620027048482602086016200262e565b91505092915050565b6000813590506200271e81620036cc565b92915050565b6000815190506200273581620036cc565b92915050565b60006020828403121562002754576200275362003575565b5b6000620027648482850162002679565b91505092915050565b6000806040838503121562002787576200278662003575565b5b6000620027978582860162002679565b9250506020620027aa8582860162002679565b9150509250929050565b600080600060608486031215620027d057620027cf62003575565b5b6000620027e08682870162002679565b935050602084013567ffffffffffffffff81111562002804576200280362003570565b5b6200281286828701620026da565b925050604084013567ffffffffffffffff81111562002836576200283562003570565b5b6200284486828701620026da565b9150509250925092565b600080600080600080600060e0888a03121562002870576200286f62003575565b5b6000620028808a828b0162002679565b975050602088013567ffffffffffffffff811115620028a457620028a362003570565b5b620028b28a828b01620026da565b965050604088013567ffffffffffffffff811115620028d657620028d562003570565b5b620028e48a828b01620026da565b955050606088013567ffffffffffffffff81111562002908576200290762003570565b5b620029168a828b01620026da565b9450506080620029298a828b016200270d565b93505060a06200293c8a828b0162002679565b92505060c06200294f8a828b0162002679565b91505092959891949750929550565b600080600080600080600080610100898b03121562002982576200298162003575565b5b6000620029928b828c0162002679565b985050602089013567ffffffffffffffff811115620029b657620029b562003570565b5b620029c48b828c01620026da565b975050604089013567ffffffffffffffff811115620029e857620029e762003570565b5b620029f68b828c01620026da565b965050606089013567ffffffffffffffff81111562002a1a5762002a1962003570565b5b62002a288b828c01620026da565b955050608062002a3b8b828c016200270d565b94505060a062002a4e8b828c0162002679565b93505060c062002a618b828c0162002679565b92505060e062002a748b828c0162002679565b9150509295985092959890939650565b600080600080600060a0868803121562002aa35762002aa262003575565b5b600062002ab38882890162002679565b955050602086013567ffffffffffffffff81111562002ad75762002ad662003570565b5b62002ae588828901620026da565b945050604086013567ffffffffffffffff81111562002b095762002b0862003570565b5b62002b1788828901620026da565b935050606062002b2a888289016200270d565b925050608086013567ffffffffffffffff81111562002b4e5762002b4d62003570565b5b62002b5c88828901620026da565b9150509295509295909350565b6000806040838503121562002b835762002b8262003575565b5b600062002b938582860162002679565b925050602062002ba6858286016200270d565b9150509250929050565b60006020828403121562002bc95762002bc862003575565b5b600082015167ffffffffffffffff81111562002bea5762002be962003570565b5b62002bf88482850162002690565b91505092915050565b60006020828403121562002c1a5762002c1962003575565b5b600062002c2a84828501620026c3565b91505092915050565b60006020828403121562002c4c5762002c4b62003575565b5b600062002c5c848285016200270d565b91505092915050565b60006020828403121562002c7e5762002c7d62003575565b5b600062002c8e8482850162002724565b91505092915050565b600062002ca5838362002e79565b60208301905092915050565b62002cbc8162003304565b82525050565b600062002ccf82620032bf565b62002cdb8185620032e2565b935062002ce883620032af565b8060005b8381101562002d1f57815162002d03888262002c97565b975062002d1083620032d5565b92505060018101905062002cec565b5085935050505092915050565b62002d378162003318565b82525050565b62002d488162003363565b82525050565b600062002d5b82620032ca565b62002d678185620032f3565b935062002d7981856020860162003386565b62002d84816200357a565b840191505092915050565b600062002d9e600a83620032f3565b915062002dab826200358b565b602082019050919050565b600062002dc5600483620032f3565b915062002dd282620035b4565b602082019050919050565b600062002dec600483620032f3565b915062002df982620035dd565b602082019050919050565b600062002e13600983620032f3565b915062002e208262003606565b602082019050919050565b600062002e3a600b83620032f3565b915062002e47826200362f565b602082019050919050565b600062002e61600483620032f3565b915062002e6e8262003658565b602082019050919050565b62002e848162003359565b82525050565b62002e958162003359565b82525050565b600060208201905062002eb2600083018462002cb1565b92915050565b60006101208201905062002ed0600083018c62002cb1565b62002edf602083018b62002cb1565b818103604083015262002ef3818a62002d4e565b9050818103606083015262002f09818962002d4e565b9050818103608083015262002f1f818862002d4e565b905062002f3060a083018762002e8a565b62002f3f60c083018662002cb1565b62002f4e60e083018562002cb1565b62002f5e61010083018462002cb1565b9a9950505050505050505050565b600060a08201905062002f83600083018862002cb1565b62002f92602083018762002cb1565b62002fa1604083018662002e8a565b818103606083015262002fb5818562002cc2565b905062002fc6608083018462002e8a565b9695505050505050565b600060e08201905062002fe7600083018a62002cb1565b818103602083015262002ffb818962002d4e565b9050818103604083015262003011818862002d4e565b905062003022606083018762002d3d565b818103608083015262003036818662002d4e565b90506200304760a083018562002d2c565b6200305660c083018462002e8a565b98975050505050505050565b600060408201905062003079600083018562002cb1565b62003088602083018462002e8a565b9392505050565b6000606082019050620030a6600083018662002cb1565b620030b5602083018562002e8a565b8181036040830152620030c9818462002cc2565b9050949350505050565b600060c0820190508181036000830152620030ef818962002d4e565b9050818103602083015262003105818862002d4e565b905081810360408301526200311b818762002d4e565b90506200312c606083018662002e8a565b6200313b608083018562002cb1565b6200314a60a083018462002cb1565b979650505050505050565b60006020820190508181036000830152620031708162002d8f565b9050919050565b60006020820190508181036000830152620031928162002db6565b9050919050565b60006020820190508181036000830152620031b48162002ddd565b9050919050565b60006020820190508181036000830152620031d68162002e04565b9050919050565b60006020820190508181036000830152620031f88162002e2b565b9050919050565b600060208201905081810360008301526200321a8162002e52565b9050919050565b60006200322d62003240565b90506200323b8282620033f2565b919050565b6000604051905090565b600067ffffffffffffffff82111562003268576200326762003532565b5b602082029050602081019050919050565b600067ffffffffffffffff82111562003297576200329662003532565b5b620032a2826200357a565b9050602081019050919050565b6000819050602082019050919050565b600081519050919050565b600081519050919050565b6000602082019050919050565b600082825260208201905092915050565b600082825260208201905092915050565b6000620033118262003339565b9050919050565b60008115159050919050565b6000819050620033348262003681565b919050565b600073ffffffffffffffffffffffffffffffffffffffff82169050919050565b6000819050919050565b6000620033708262003324565b9050919050565b82818337600083830152505050565b60005b83811015620033a657808201518184015260208101905062003389565b83811115620033b6576000848401525b50505050565b60006002820490506001821680620033d557607f821691505b60208210811415620033ec57620033eb620034d4565b5b50919050565b620033fd826200357a565b810181811067ffffffffffffffff821117156200341f576200341e62003532565b5b80604052505050565b6000620034358262003359565b91507fffffffffffffffffffffffffffffffffffffffffffffffffffffffffffffffff8214156200346b576200346a62003476565b5b600182019050919050565b7f4e487b7100000000000000000000000000000000000000000000000000000000600052601160045260246000fd5b7f4e487b7100000000000000000000000000000000000000000000000000000000600052602160045260246000fd5b7f4e487b7100000000000000000000000000000000000000000000000000000000600052602260045260246000fd5b7f4e487b7100000000000000000000000000000000000000000000000000000000600052603260045260246000fd5b7f4e487b7100000000000000000000000000000000000000000000000000000000600052604160045260246000fd5b600080fd5b600080fd5b600080fd5b600080fd5b600080fd5b6000601f19601f8301169050919050565b7f5553525f4e545f52454700000000000000000000000000000000000000000000600082015250565b7f4f41434300000000000000000000000000000000000000000000000000000000600082015250565b7f4f57434300000000000000000000000000000000000000000000000000000000600082015250565b7f5553525f45584953540000000000000000000000000000000000000000000000600082015250565b7f5553525f44454c45544544000000000000000000000000000000000000000000600082015250565b7f4f4d434300000000000000000000000000000000000000000000000000000000600082015250565b600a8110620036955762003694620034a5565b5b50565b620036a38162003304565b8114620036af57600080fd5b50565b620036bd8162003318565b8114620036c957600080fd5b50565b620036d78162003359565b8114620036e357600080fd5b5056fe60806040523480156200001157600080fd5b50604051620024ff380380620024ff833981810160405281019062000037919062000400565b87600160006101000a81548173ffffffffffffffffffffffffffffffffffffffff021916908373ffffffffffffffffffffffffffffffffffffffff16021790555030600760000160006101000a81548173ffffffffffffffffffffffffffffffffffffffff021916908373ffffffffffffffffffffffffffffffffffffffff1602179055508660076001019080519060200190620000d7929190620002a4565b508560076002019080519060200190620000f3929190620002a4565b5084600760030190805190602001906200010f929190620002a4565b508360076004018190555082600360000160006101000a81548173ffffffffffffffffffffffffffffffffffffffff021916908373ffffffffffffffffffffffffffffffffffffffff16021790555081600360010160006101000a81548173ffffffffffffffffffffffffffffffffffffffff021916908373ffffffffffffffffffffffffffffffffffffffff16021790555088600360020160006101000a81548173ffffffffffffffffffffffffffffffffffffffff021916908373ffffffffffffffffffffffffffffffffffffffff160217905550806003800160006101000a81548173ffffffffffffffffffffffffffffffffffffffff021916908373ffffffffffffffffffffffffffffffffffffffff1602179055506000600781111562000240576200023f6200067b565b5b600160146101000a81548160ff021916908360078111156200026757620002666200067b565b5b0217905550600243908060018154018082558091505060019003906000526020600020016000909190919091505550505050505050505062000761565b828054620002b2906200060f565b90600052602060002090601f016020900481019282620002d6576000855562000322565b82601f10620002f157805160ff191683800117855562000322565b8280016001018555821562000322579182015b828111156200032157825182559160200191906001019062000304565b5b50905062000331919062000335565b5090565b5b808211156200035057600081600090555060010162000336565b5090565b60006200036b620003658462000565565b6200053c565b9050828152602081018484840111156200038a57620003896200070d565b5b62000397848285620005d9565b509392505050565b600081519050620003b0816200072d565b92915050565b600082601f830112620003ce57620003cd62000708565b5b8151620003e084826020860162000354565b91505092915050565b600081519050620003fa8162000747565b92915050565b60008060008060008060008060006101208a8c03121562000426576200042562000717565b5b6000620004368c828d016200039f565b9950506020620004498c828d016200039f565b98505060408a015167ffffffffffffffff8111156200046d576200046c62000712565b5b6200047b8c828d01620003b6565b97505060608a015167ffffffffffffffff8111156200049f576200049e62000712565b5b620004ad8c828d01620003b6565b96505060808a015167ffffffffffffffff811115620004d157620004d062000712565b5b620004df8c828d01620003b6565b95505060a0620004f28c828d01620003e9565b94505060c0620005058c828d016200039f565b93505060e0620005188c828d016200039f565b9250506101006200052c8c828d016200039f565b9150509295985092959850929598565b6000620005486200055b565b905062000556828262000645565b919050565b6000604051905090565b600067ffffffffffffffff821115620005835762000582620006d9565b5b6200058e826200071c565b9050602081019050919050565b6000620005a882620005af565b9050919050565b600073ffffffffffffffffffffffffffffffffffffffff82169050919050565b6000819050919050565b60005b83811015620005f9578082015181840152602081019050620005dc565b8381111562000609576000848401525b50505050565b600060028204905060018216806200062857607f821691505b602082108114156200063f576200063e620006aa565b5b50919050565b62000650826200071c565b810181811067ffffffffffffffff82111715620006725762000671620006d9565b5b80604052505050565b7f4e487b7100000000000000000000000000000000000000000000000000000000600052602160045260246000fd5b7f4e487b7100000000000000000000000000000000000000000000000000000000600052602260045260246000fd5b7f4e487b7100000000000000000000000000000000000000000000000000000000600052604160045260246000fd5b600080fd5b600080fd5b600080fd5b600080fd5b6000601f19601f8301169050919050565b62000738816200059b565b81146200074457600080fd5b50565b6200075281620005cf565b81146200075e57600080fd5b50565b611d8e80620007716000396000f3fe608060405234801561001057600080fd5b506004361061013e576000357c0100000000000000000000000000000000000000000000000000000000900480636e3726df116100ca578063a5a226461161008e578063a5a22646146102eb578063a761dc4f14610309578063cd8a5b2e14610313578063df1f41c814610331578063e002c8a51461033b5761013e565b80636e3726df14610245578063732642101461026357806373b037db146102815780638915a8fa1461029f578063a3791bb3146102cf5761013e565b80634f2d8239116101115780634f2d8239146101bb57806353534f38146101d957806355309891146101f7578063644754d51461021d578063678dd118146102275761013e565b806312966fe61461014357806323c0d03b146101615780632ea1bb6a1461017f57806340019e5d1461019d575b600080fd5b61014b610359565b60405161015891906118e4565b60405180910390f35b61016961036c565b60405161017691906118e4565b60405180910390f35b61018761037f565b60405161019491906118e4565b60405180910390f35b6101a5610392565b6040516101b291906117fb565b60405180910390f35b6101c36103bf565b6040516101d091906118e4565b60405180910390f35b6101e16103d2565b6040516101ee91906118e4565b60405180910390f35b6101ff6103e5565b60405161021499989796959493929190611816565b60405180910390f35b6102256107f8565b005b61022f6108e8565b60405161023c91906118ff565b60405180910390f35b61024d6108fb565b60405161025a91906118e4565b60405180910390f35b61026b61090e565b604051610278919061199a565b60405180910390f35b610289610a80565b60405161029691906119d7565b60405180910390f35b6102b960048036038101906102b49190611473565b610aa9565b6040516102c691906118e4565b60405180910390f35b6102e960048036038101906102e49190611446565b610b99565b005b6102f3610ccb565b60405161030091906118e4565b60405180910390f35b610311610cde565b005b61031b610dce565b60405161032891906118c2565b60405180910390f35b610339610e26565b005b610343610f16565b60405161035091906119b5565b60405180910390f35b600061036760036001611146565b905090565b600061037a60076005611146565b905090565b600061038d60056004611146565b905090565b6000600760000160009054906101000a900473ffffffffffffffffffffffffffffffffffffffff16905090565b60006103cd60066005611146565b905090565b60006103e060016000611146565b905090565b600060608060606103f4611244565b60008060006060600760000160009054906101000a900473ffffffffffffffffffffffffffffffffffffffff166007600101600760020160076003016003600160009054906101000a900473ffffffffffffffffffffffffffffffffffffffff16600760040154600160149054906101000a900460ff16600781111561047d5761047c611bc0565b5b600287805461048b90611b5d565b80601f01602080910402602001604051908101604052809291908181526020018280546104b790611b5d565b80156105045780601f106104d957610100808354040283529160200191610504565b820191906000526020600020905b8154815290600101906020018083116104e757829003601f168201915b5050505050975086805461051790611b5d565b80601f016020809104026020016040519081016040528092919081815260200182805461054390611b5d565b80156105905780601f1061056557610100808354040283529160200191610590565b820191906000526020600020905b81548152906001019060200180831161057357829003601f168201915b505050505096508580546105a390611b5d565b80601f01602080910402602001604051908101604052809291908181526020018280546105cf90611b5d565b801561061c5780601f106105f15761010080835404028352916020019161061c565b820191906000526020600020905b8154815290600101906020018083116105ff57829003601f168201915b50505050509550846040518060800160405290816000820160009054906101000a900473ffffffffffffffffffffffffffffffffffffffff1673ffffffffffffffffffffffffffffffffffffffff1673ffffffffffffffffffffffffffffffffffffffff1681526020016001820160009054906101000a900473ffffffffffffffffffffffffffffffffffffffff1673ffffffffffffffffffffffffffffffffffffffff1673ffffffffffffffffffffffffffffffffffffffff1681526020016002820160009054906101000a900473ffffffffffffffffffffffffffffffffffffffff1673ffffffffffffffffffffffffffffffffffffffff1673ffffffffffffffffffffffffffffffffffffffff1681526020016003820160009054906101000a900473ffffffffffffffffffffffffffffffffffffffff1673ffffffffffffffffffffffffffffffffffffffff1673ffffffffffffffffffffffffffffffffffffffff16815250509450808054806020026020016040519081016040528092919081815260200182805480156107d457602002820191906000526020600020905b8154815260200190600101908083116107c0575b50505050509050985098509850985098509850985098509850909192939495969798565b6000600781111561080c5761080b611bc0565b5b600781111561081e5761081d611bc0565b5b600160149054906101000a900460ff1660078111156108405761083f611bc0565b5b14610880576040517f08c379a00000000000000000000000000000000000000000000000000000000081526004016108779061191a565b60405180910390fd5b6002439080600181540180825580915050600190039060005260206000200160009091909190915055600160078111156108bd576108bc611bc0565b5b600160146101000a81548160ff021916908360078111156108e1576108e0611bc0565b5b0217905550565b600160149054906101000a900460ff1681565b600061090960046003611146565b905090565b610916611244565b60036040518060800160405290816000820160009054906101000a900473ffffffffffffffffffffffffffffffffffffffff1673ffffffffffffffffffffffffffffffffffffffff1673ffffffffffffffffffffffffffffffffffffffff1681526020016001820160009054906101000a900473ffffffffffffffffffffffffffffffffffffffff1673ffffffffffffffffffffffffffffffffffffffff1673ffffffffffffffffffffffffffffffffffffffff1681526020016002820160009054906101000a900473ffffffffffffffffffffffffffffffffffffffff1673ffffffffffffffffffffffffffffffffffffffff1673ffffffffffffffffffffffffffffffffffffffff1681526020016003820160009054906101000a900473ffffffffffffffffffffffffffffffffffffffff1673ffffffffffffffffffffffffffffffffffffffff1673ffffffffffffffffffffffffffffffffffffffff1681525050905090565b6000600160149054906101000a900460ff166007811115610aa457610aa3611bc0565b5b905090565b60008660076001019080519060200190610ac49291906112c4565b508560076002019080519060200190610ade9291906112c4565b508460076003019080519060200190610af89291906112c4565b508360076004018190555082600360000160006101000a81548173ffffffffffffffffffffffffffffffffffffffff021916908373ffffffffffffffffffffffffffffffffffffffff16021790555081600360010160006101000a81548173ffffffffffffffffffffffffffffffffffffffff021916908373ffffffffffffffffffffffffffffffffffffffff160217905550600190509695505050505050565b60026007811115610bad57610bac611bc0565b5b6007811115610bbf57610bbe611bc0565b5b600160149054906101000a900460ff166007811115610be157610be0611bc0565b5b14610c21576040517f08c379a0000000000000000000000000000000000000000000000000000000008152600401610c189061193a565b60405180910390fd5b600243908060018154018082558091505060019003906000526020600020016000909190919091505560036007811115610c5e57610c5d611bc0565b5b600160146101000a81548160ff02191690836007811115610c8257610c81611bc0565b5b021790555080600c60006101000a81548173ffffffffffffffffffffffffffffffffffffffff021916908373ffffffffffffffffffffffffffffffffffffffff16021790555050565b6000610cd960026001611146565b905090565b60016007811115610cf257610cf1611bc0565b5b6007811115610d0457610d03611bc0565b5b600160149054906101000a900460ff166007811115610d2657610d25611bc0565b5b14610d66576040517f08c379a0000000000000000000000000000000000000000000000000000000008152600401610d5d9061193a565b60405180910390fd5b600243908060018154018082558091505060019003906000526020600020016000909190919091505560026007811115610da357610da2611bc0565b5b600160146101000a81548160ff02191690836007811115610dc757610dc6611bc0565b5b0217905550565b60606002805480602002602001604051908101604052809291908181526020018280548015610e1c57602002820191906000526020600020905b815481526020019060010190808311610e08575b5050505050905090565b60036007811115610e3a57610e39611bc0565b5b6007811115610e4c57610e4b611bc0565b5b600160149054906101000a900460ff166007811115610e6e57610e6d611bc0565b5b14610eae576040517f08c379a0000000000000000000000000000000000000000000000000000000008152600401610ea59061195a565b60405180910390fd5b600243908060018154018082558091505060019003906000526020600020016000909190919091505560046007811115610eeb57610eea611bc0565b5b600160146101000a81548160ff02191690836007811115610f0f57610f0e611bc0565b5b0217905550565b610f1e61134a565b60076040518060a00160405290816000820160009054906101000a900473ffffffffffffffffffffffffffffffffffffffff1673ffffffffffffffffffffffffffffffffffffffff1673ffffffffffffffffffffffffffffffffffffffff168152602001600182018054610f9190611b5d565b80601f0160208091040260200160405190810160405280929190818152602001828054610fbd90611b5d565b801561100a5780601f10610fdf5761010080835404028352916020019161100a565b820191906000526020600020905b815481529060010190602001808311610fed57829003601f168201915b5050505050815260200160028201805461102390611b5d565b80601f016020809104026020016040519081016040528092919081815260200182805461104f90611b5d565b801561109c5780601f106110715761010080835404028352916020019161109c565b820191906000526020600020905b81548152906001019060200180831161107f57829003601f168201915b505050505081526020016003820180546110b590611b5d565b80601f01602080910402602001604051908101604052809291908181526020018280546110e190611b5d565b801561112e5780601f106111035761010080835404028352916020019161112e565b820191906000526020600020905b81548152906001019060200180831161111157829003601f168201915b50505050508152602001600482015481525050905090565b600081600781111561115b5761115a611bc0565b5b600781111561116d5761116c611bc0565b5b600160149054906101000a900460ff16600781111561118f5761118e611bc0565b5b14156112035760024390806001815401808255809150506001900390600052602060002001600090919091909150558260078111156111d1576111d0611bc0565b5b600160146101000a81548160ff021916908360078111156111f5576111f4611bc0565b5b02179055506001905061123e565b6040517f08c379a00000000000000000000000000000000000000000000000000000000081526004016112359061197a565b60405180910390fd5b92915050565b6040518060800160405280600073ffffffffffffffffffffffffffffffffffffffff168152602001600073ffffffffffffffffffffffffffffffffffffffff168152602001600073ffffffffffffffffffffffffffffffffffffffff168152602001600073ffffffffffffffffffffffffffffffffffffffff1681525090565b8280546112d090611b5d565b90600052602060002090601f0160209004810192826112f25760008555611339565b82601f1061130b57805160ff1916838001178555611339565b82800160010185558215611339579182015b8281111561133857825182559160200191906001019061131d565b5b509050611346919061138f565b5090565b6040518060a00160405280600073ffffffffffffffffffffffffffffffffffffffff168152602001606081526020016060815260200160608152602001600081525090565b5b808211156113a8576000816000905550600101611390565b5090565b60006113bf6113ba84611a17565b6119f2565b9050828152602081018484840111156113db576113da611c52565b5b6113e6848285611b1b565b509392505050565b6000813590506113fd81611d2a565b92915050565b600082601f83011261141857611417611c4d565b5b81356114288482602086016113ac565b91505092915050565b60008135905061144081611d41565b92915050565b60006020828403121561145c5761145b611c5c565b5b600061146a848285016113ee565b91505092915050565b60008060008060008060c087890312156114905761148f611c5c565b5b600087013567ffffffffffffffff8111156114ae576114ad611c57565b5b6114ba89828a01611403565b965050602087013567ffffffffffffffff8111156114db576114da611c57565b5b6114e789828a01611403565b955050604087013567ffffffffffffffff81111561150857611507611c57565b5b61151489828a01611403565b945050606061152589828a01611431565b935050608061153689828a016113ee565b92505060a061154789828a016113ee565b9150509295509295509295565b600061156083836117dd565b60208301905092915050565b61157581611aae565b82525050565b61158481611aae565b82525050565b600061159582611a58565b61159f8185611a7b565b93506115aa83611a48565b8060005b838110156115db5781516115c28882611554565b97506115cd83611a6e565b9250506001810190506115ae565b5085935050505092915050565b6115f181611ac0565b82525050565b61160081611b09565b82525050565b600061161182611a63565b61161b8185611a8c565b935061162b818560208601611b2a565b61163481611c61565b840191505092915050565b600061164a82611a63565b6116548185611a9d565b9350611664818560208601611b2a565b61166d81611c61565b840191505092915050565b6000611685600b83611a9d565b915061169082611c72565b602082019050919050565b60006116a8600b83611a9d565b91506116b382611c9b565b602082019050919050565b60006116cb600b83611a9d565b91506116d682611cc4565b602082019050919050565b60006116ee600a83611a9d565b91506116f982611ced565b602082019050919050565b60808201600082015161171a600085018261156c565b50602082015161172d602085018261156c565b506040820151611740604085018261156c565b506060820151611753606085018261156c565b50505050565b600060a083016000830151611771600086018261156c565b50602083015184820360208601526117898282611606565b915050604083015184820360408601526117a38282611606565b915050606083015184820360608601526117bd8282611606565b91505060808301516117d260808601826117dd565b508091505092915050565b6117e681611aff565b82525050565b6117f581611aff565b82525050565b6000602082019050611810600083018461157b565b92915050565b60006101808201905061182c600083018c61157b565b818103602083015261183e818b61163f565b90508181036040830152611852818a61163f565b90508181036060830152611866818961163f565b90506118756080830188611704565b61188361010083018761157b565b6118916101208301866117ec565b61189f6101408301856117ec565b8181036101608301526118b2818461158a565b90509a9950505050505050505050565b600060208201905081810360008301526118dc818461158a565b905092915050565b60006020820190506118f960008301846115e8565b92915050565b600060208201905061191460008301846115f7565b92915050565b6000602082019050818103600083015261193381611678565b9050919050565b600060208201905081810360008301526119538161169b565b9050919050565b60006020820190508181036000830152611973816116be565b9050919050565b60006020820190508181036000830152611993816116e1565b9050919050565b60006080820190506119af6000830184611704565b92915050565b600060208201905081810360008301526119cf8184611759565b905092915050565b60006020820190506119ec60008301846117ec565b92915050565b60006119fc611a0d565b9050611a088282611b8f565b919050565b6000604051905090565b600067ffffffffffffffff821115611a3257611a31611c1e565b5b611a3b82611c61565b9050602081019050919050565b6000819050602082019050919050565b600081519050919050565b600081519050919050565b6000602082019050919050565b600082825260208201905092915050565b600082825260208201905092915050565b600082825260208201905092915050565b6000611ab982611adf565b9050919050565b60008115159050919050565b6000819050611ada82611d16565b919050565b600073ffffffffffffffffffffffffffffffffffffffff82169050919050565b6000819050919050565b6000611b1482611acc565b9050919050565b82818337600083830152505050565b60005b83811015611b48578082015181840152602081019050611b2d565b83811115611b57576000848401525b50505050565b60006002820490506001821680611b7557607f821691505b60208210811415611b8957611b88611bef565b5b50919050565b611b9882611c61565b810181811067ffffffffffffffff82111715611bb757611bb6611c1e565b5b80604052505050565b7f4e487b7100000000000000000000000000000000000000000000000000000000600052602160045260246000fd5b7f4e487b7100000000000000000000000000000000000000000000000000000000600052602260045260246000fd5b7f4e487b7100000000000000000000000000000000000000000000000000000000600052604160045260246000fd5b600080fd5b600080fd5b600080fd5b600080fd5b6000601f19601f8301169050919050565b7f4d5f4d5553545f41545f4d000000000000000000000000000000000000000000600082015250565b7f4d5f4d5553545f41545f44000000000000000000000000000000000000000000600082015250565b7f4d5f4d5553545f41545f50000000000000000000000000000000000000000000600082015250565b7f494e5f50524f4345535300000000000000000000000000000000000000000000600082015250565b60088110611d2757611d26611bc0565b5b50565b611d3381611aae565b8114611d3e57600080fd5b50565b611d4a81611aff565b8114611d5557600080fd5b5056fea2646970667358221220e07e7c633ba7cbe4612568f7c6f15ec37ce03c1ada16f9fc9fed4545bf00925764736f6c63430008070033a264697066735822122039593d256cb17bad0acb74aa1f5ea592ad8756d9e0f3b87d5f55013caf26764464736f6c63430008070033",
  "immutableReferences": {},
  "source": "// SPDX-License-Identifier: MIT\r\npragma solidity >=0.4.22 <0.9.0;\r\npragma experimental ABIEncoderV2;\r\n\r\nimport \"./User.sol\";\r\nimport \"./RawMaterials.sol\";\r\nimport \"./Medicine.sol\";\r\n\r\ncontract Manufacturer is User {\r\n    mapping(address => address[]) MedicinesManufactured;\r\n    mapping(address => address[]) public TaggedInspectorMedicineList;\r\n\r\n    event MedicinePackageInitialize(\r\n        address medicineId,\r\n        address materialId,\r\n        uint256 medicineBatchStatus,\r\n        uint256[] transactionBlocks,\r\n        uint256 materialPackageStatus\r\n    );\r\n\r\n    event UpdatedMedicineBatchInfo(\r\n        string medicineName,\r\n        string location,\r\n        string description,\r\n        uint256 quantity,\r\n        address transporter,\r\n        address distributor\r\n    );\r\n\r\n    event UpdatedPackageStatusOnReceived(\r\n        address materialId,\r\n        uint256 packageStatus\r\n    );\r\n\r\n    event UpdatedMedicineBatchStatus(\r\n        address medicineId,\r\n        uint256 packageStatus,\r\n        uint256[] transactionBlocks\r\n    );\r\n\r\n    modifier onlyManufacturer {\r\n        require(\r\n            UsersDetails[msg.sender].userRole == roles.manufacturer,\r\n            \"OMCC\"\r\n        ); //Only Manufacturer can call this function.\r\n        _;\r\n    }\r\n\r\n    //Initialize Medicine batch with required details, transporter & distributor. Emit event with new package details.\r\n    //@param _materialID Raw Material information Address\r\n    //@param _desc Medicine description String\r\n    //@param _medicineName Medicine name String\r\n    //@param _quantity Medicine Quantity Uint\r\n    //@param _transporter Transporter/Shipper Address\r\n    //@param _distributor Reciever/Distributor Address\r\n    function createMedicinePackage(\r\n        address _materialId,\r\n        string memory _medicineName,\r\n        string memory _description,\r\n        string memory _location,\r\n        uint256 _quantity,\r\n        address _transporter,\r\n        address _distributor,\r\n        address _inspector\r\n    ) public onlyManufacturer {\r\n        Medicine medicineData = new Medicine(\r\n            msg.sender,\r\n            _materialId,\r\n            _medicineName,\r\n            _description,\r\n            _location,\r\n            _quantity,\r\n            _transporter,\r\n            _distributor,\r\n            _inspector\r\n        );\r\n        //Push medicine address to list registered by manudacturer\r\n        MedicinesManufactured[msg.sender].push(address(medicineData));\r\n        //Emit event after medicine registration\r\n        emit MedicinePackageInitialize(\r\n            address(medicineData),\r\n            _materialId,\r\n            Medicine(address(medicineData)).getMedicineStatus(),\r\n            Medicine(address(medicineData)).getTransactionBlocks(),\r\n            RawMaterials(_materialId).getRawMaterialsStatus()\r\n        );\r\n    }\r\n\r\n    function updateMedicineBatch(\r\n        address _medicineId,\r\n        string memory _medicineName,\r\n        string memory _location,\r\n        string memory _desc,\r\n        uint256 _quantity,\r\n        address _transporter,\r\n        address _distributor\r\n    ) public onlyManufacturer {\r\n        bool result = Medicine(_medicineId).updateMedicineBatchDetails(\r\n            _medicineName,\r\n            _desc,\r\n            _location,\r\n            _quantity,\r\n            _transporter,\r\n            _distributor\r\n        );\r\n        if (result) {\r\n            emit UpdatedMedicineBatchInfo(\r\n                _medicineName,\r\n                _desc,\r\n                _location,\r\n                _quantity,\r\n                _transporter,\r\n                _distributor\r\n            );\r\n        }\r\n    }\r\n\r\n    //Reject received material package if damaaged\r\n    function rejectMaterialPackage(address _materialId)\r\n        public\r\n        onlyManufacturer\r\n    {\r\n        bool result = RawMaterials(_materialId).rejectPackageAtReceiver();\r\n        if (result) {\r\n            emit UpdatedPackageStatusOnReceived(\r\n                _materialId,\r\n                RawMaterials(_materialId).getRawMaterialsStatus()\r\n            );\r\n        }\r\n    }\r\n\r\n    //Approve received material package\r\n    function approveMaterialPackage(address _materialId)\r\n        public\r\n        onlyManufacturer\r\n    {\r\n        bool result = RawMaterials(_materialId).approvePackageAtReceiver();\r\n        if (result) {\r\n            emit UpdatedPackageStatusOnReceived(\r\n                _materialId,\r\n                RawMaterials(_materialId).getRawMaterialsStatus()\r\n            );\r\n        }\r\n    }\r\n\r\n    //Send registered medicine batch for inspection\r\n    function sendMedicineBatchForInspection(\r\n        address _medicineId,\r\n        address _inspector\r\n    ) public onlyManufacturer {\r\n        bool result = Medicine(_medicineId).sendMedicineForInspection();\r\n        if (result) {\r\n            TaggedInspectorMedicineList[_inspector].push(_medicineId);\r\n            emit UpdatedMedicineBatchStatus(\r\n                _medicineId,\r\n                Medicine(_medicineId).getMedicineStatus(),\r\n                Medicine(_medicineId).getTransactionBlocks()\r\n            );\r\n        }\r\n    }\r\n}\r\n",
  "sourcePath": "C:\\Development\\Blockchain\\Learning-2\\contracts\\Manufacturer.sol",
  "compiler": {
    "name": "solc",
    "version": "0.8.7+commit.e28d00a7.Emscripten.clang"
  },
  "schemaVersion": "3.4.1",
  "updatedAt": "2021-08-14T11:11:12.168Z",
  "devdoc": {
    "kind": "dev",
    "methods": {},
    "version": 1
  },
  "userdoc": {
    "kind": "user",
    "methods": {},
    "version": 1
  }
}