{
  "contractName": "Manufacturer",
  "abi": [
    {
      "anonymous": false,
      "inputs": [
        {
          "indexed": true,
          "internalType": "address",
          "name": "MedicineID",
          "type": "address"
        },
        {
          "indexed": true,
          "internalType": "address",
          "name": "Manufacturer",
          "type": "address"
        },
        {
          "indexed": false,
          "internalType": "address",
          "name": "Distributor",
          "type": "address"
        },
        {
          "indexed": true,
          "internalType": "address",
          "name": "Transporter",
          "type": "address"
        }
      ],
      "name": "MedicinePackageInitialize",
      "type": "event"
    },
    {
      "anonymous": false,
      "inputs": [
        {
          "indexed": true,
          "internalType": "address",
          "name": "UserAddress",
          "type": "address"
        },
        {
          "indexed": false,
          "internalType": "string",
          "name": "Name",
          "type": "string"
        }
      ],
      "name": "UserRegistered",
      "type": "event"
    },
    {
      "anonymous": false,
      "inputs": [
        {
          "indexed": true,
          "internalType": "address",
          "name": "UserAddress",
          "type": "address"
        },
        {
          "indexed": false,
          "internalType": "string",
          "name": "Name",
          "type": "string"
        },
        {
          "indexed": false,
          "internalType": "uint256",
          "name": "Role",
          "type": "uint256"
        }
      ],
      "name": "UserRoleReassigned",
      "type": "event"
    },
    {
      "anonymous": false,
      "inputs": [
        {
          "indexed": true,
          "internalType": "address",
          "name": "UserAddress",
          "type": "address"
        },
        {
          "indexed": false,
          "internalType": "string",
          "name": "Name",
          "type": "string"
        },
        {
          "indexed": false,
          "internalType": "uint256",
          "name": "Role",
          "type": "uint256"
        }
      ],
      "name": "UserRoleRevoked",
      "type": "event"
    },
    {
      "inputs": [
        {
          "internalType": "uint256",
          "name": "",
          "type": "uint256"
        }
      ],
      "name": "UserList",
      "outputs": [
        {
          "internalType": "address",
          "name": "userAddress",
          "type": "address"
        },
        {
          "internalType": "string",
          "name": "userName",
          "type": "string"
        },
        {
          "internalType": "string",
          "name": "userLocation",
          "type": "string"
        },
        {
          "internalType": "enum User.roles",
          "name": "userRole",
          "type": "uint8"
        },
        {
          "internalType": "string",
          "name": "userStatus",
          "type": "string"
        }
      ],
      "stateMutability": "view",
      "type": "function"
    },
    {
      "inputs": [
        {
          "internalType": "address",
          "name": "_address",
          "type": "address"
        }
      ],
      "name": "deleteUser",
      "outputs": [],
      "stateMutability": "nonpayable",
      "type": "function"
    },
    {
      "inputs": [
        {
          "internalType": "address",
          "name": "_address",
          "type": "address"
        }
      ],
      "name": "findAndDeactivateUser",
      "outputs": [],
      "stateMutability": "nonpayable",
      "type": "function"
    },
    {
      "inputs": [],
      "name": "getAllRegisteredUsers",
      "outputs": [
        {
          "components": [
            {
              "internalType": "address",
              "name": "userAddress",
              "type": "address"
            },
            {
              "internalType": "string",
              "name": "userName",
              "type": "string"
            },
            {
              "internalType": "string",
              "name": "userLocation",
              "type": "string"
            },
            {
              "internalType": "enum User.roles",
              "name": "userRole",
              "type": "uint8"
            },
            {
              "internalType": "string",
              "name": "userStatus",
              "type": "string"
            }
          ],
          "internalType": "struct User.UserInfo[]",
          "name": "",
          "type": "tuple[]"
        }
      ],
      "stateMutability": "view",
      "type": "function"
    },
    {
      "inputs": [
        {
          "internalType": "address",
          "name": "_address",
          "type": "address"
        }
      ],
      "name": "getUserInfo",
      "outputs": [
        {
          "components": [
            {
              "internalType": "address",
              "name": "userAddress",
              "type": "address"
            },
            {
              "internalType": "string",
              "name": "userName",
              "type": "string"
            },
            {
              "internalType": "string",
              "name": "userLocation",
              "type": "string"
            },
            {
              "internalType": "enum User.roles",
              "name": "userRole",
              "type": "uint8"
            },
            {
              "internalType": "string",
              "name": "userStatus",
              "type": "string"
            }
          ],
          "internalType": "struct User.UserInfo",
          "name": "",
          "type": "tuple"
        }
      ],
      "stateMutability": "view",
      "type": "function"
    },
    {
      "inputs": [],
      "name": "getUsersCount",
      "outputs": [
        {
          "internalType": "uint256",
          "name": "count",
          "type": "uint256"
        }
      ],
      "stateMutability": "view",
      "type": "function"
    },
    {
      "inputs": [],
      "name": "owner",
      "outputs": [
        {
          "internalType": "address",
          "name": "",
          "type": "address"
        }
      ],
      "stateMutability": "view",
      "type": "function"
    },
    {
      "inputs": [
        {
          "internalType": "address",
          "name": "_address",
          "type": "address"
        },
        {
          "internalType": "uint256",
          "name": "_role",
          "type": "uint256"
        }
      ],
      "name": "reAssignUserRole",
      "outputs": [],
      "stateMutability": "nonpayable",
      "type": "function"
    },
    {
      "inputs": [
        {
          "internalType": "address",
          "name": "_address",
          "type": "address"
        },
        {
          "internalType": "string",
          "name": "_name",
          "type": "string"
        },
        {
          "internalType": "string",
          "name": "_location",
          "type": "string"
        },
        {
          "internalType": "uint256",
          "name": "_role",
          "type": "uint256"
        },
        {
          "internalType": "string",
          "name": "_userStatus",
          "type": "string"
        }
      ],
      "name": "registerAdmin",
      "outputs": [],
      "stateMutability": "nonpayable",
      "type": "function"
    },
    {
      "inputs": [
        {
          "internalType": "address",
          "name": "_address",
          "type": "address"
        },
        {
          "internalType": "string",
          "name": "_name",
          "type": "string"
        },
        {
          "internalType": "string",
          "name": "_location",
          "type": "string"
        },
        {
          "internalType": "uint256",
          "name": "_role",
          "type": "uint256"
        },
        {
          "internalType": "string",
          "name": "_userStatus",
          "type": "string"
        }
      ],
      "name": "registerUser",
      "outputs": [],
      "stateMutability": "nonpayable",
      "type": "function"
    },
    {
      "inputs": [
        {
          "internalType": "address",
          "name": "_address",
          "type": "address"
        }
      ],
      "name": "revokeUserRole",
      "outputs": [],
      "stateMutability": "nonpayable",
      "type": "function"
    },
    {
      "inputs": [
        {
          "internalType": "address",
          "name": "_address",
          "type": "address"
        },
        {
          "internalType": "string",
          "name": "_name",
          "type": "string"
        },
        {
          "internalType": "string",
          "name": "_location",
          "type": "string"
        },
        {
          "internalType": "uint256",
          "name": "_role",
          "type": "uint256"
        },
        {
          "internalType": "string",
          "name": "_userStatus",
          "type": "string"
        }
      ],
      "name": "updateUser",
      "outputs": [],
      "stateMutability": "nonpayable",
      "type": "function"
    },
    {
      "inputs": [
        {
          "internalType": "address",
          "name": "_address",
          "type": "address"
        },
        {
          "internalType": "string",
          "name": "_userName",
          "type": "string"
        }
      ],
      "name": "validateUser",
      "outputs": [
        {
          "components": [
            {
              "internalType": "address",
              "name": "userAddress",
              "type": "address"
            },
            {
              "internalType": "string",
              "name": "userName",
              "type": "string"
            },
            {
              "internalType": "string",
              "name": "userLocation",
              "type": "string"
            },
            {
              "internalType": "enum User.roles",
              "name": "userRole",
              "type": "uint8"
            },
            {
              "internalType": "string",
              "name": "userStatus",
              "type": "string"
            }
          ],
          "internalType": "struct User.UserInfo",
          "name": "",
          "type": "tuple"
        }
      ],
      "stateMutability": "view",
      "type": "function"
    },
    {
      "inputs": [
        {
          "internalType": "address",
          "name": "_packageID",
          "type": "address"
        }
      ],
      "name": "updateRecievedRawMaterialPackageStatus",
      "outputs": [],
      "stateMutability": "nonpayable",
      "type": "function"
    },
    {
      "inputs": [
        {
          "internalType": "address",
          "name": "_packageID",
          "type": "address"
        }
      ],
      "name": "getReceivedRawMaterialPackageAtManufacturerStatus",
      "outputs": [
        {
          "internalType": "uint256",
          "name": "",
          "type": "uint256"
        }
      ],
      "stateMutability": "view",
      "type": "function"
    },
    {
      "inputs": [],
      "name": "getReceivedRawMaterialPackagesCount",
      "outputs": [
        {
          "internalType": "uint256",
          "name": "",
          "type": "uint256"
        }
      ],
      "stateMutability": "view",
      "type": "function"
    },
    {
      "inputs": [
        {
          "internalType": "uint256",
          "name": "_index",
          "type": "uint256"
        }
      ],
      "name": "getReceivedRawMaterialPackageIDByIndex",
      "outputs": [
        {
          "internalType": "address",
          "name": "",
          "type": "address"
        }
      ],
      "stateMutability": "view",
      "type": "function"
    },
    {
      "inputs": [
        {
          "internalType": "address",
          "name": "_materialID",
          "type": "address"
        },
        {
          "internalType": "string",
          "name": "_medicineName",
          "type": "string"
        },
        {
          "internalType": "string",
          "name": "_desc",
          "type": "string"
        },
        {
          "internalType": "uint256",
          "name": "_quantity",
          "type": "uint256"
        },
        {
          "internalType": "address",
          "name": "_transporter",
          "type": "address"
        },
        {
          "internalType": "address",
          "name": "_distributor",
          "type": "address"
        }
      ],
      "name": "createMedicinePackage",
      "outputs": [],
      "stateMutability": "nonpayable",
      "type": "function"
    },
    {
      "inputs": [],
      "name": "getRegisteredMedicinePackagesCount",
      "outputs": [
        {
          "internalType": "uint256",
          "name": "",
          "type": "uint256"
        }
      ],
      "stateMutability": "view",
      "type": "function"
    },
    {
      "inputs": [
        {
          "internalType": "uint256",
          "name": "index",
          "type": "uint256"
        }
      ],
      "name": "getRegisteredMedicineIDByIndex",
      "outputs": [
        {
          "internalType": "address",
          "name": "",
          "type": "address"
        }
      ],
      "stateMutability": "view",
      "type": "function"
    },
    {
      "inputs": [
        {
          "internalType": "address",
          "name": "_medicineID",
          "type": "address"
        }
      ],
      "name": "getRegisteredMedicinePackageStatusByID",
      "outputs": [
        {
          "internalType": "uint256",
          "name": "",
          "type": "uint256"
        }
      ],
      "stateMutability": "view",
      "type": "function"
    }
  ],
  "bytecode": "0x608060405234801561001057600080fd5b5060008054600160a060020a03191633179055613340806100326000396000f3fe60806040523480156200001157600080fd5b5060043610620001205760e060020a6000350462e309ec8114620001255780632f8b2a9e146200014f578063338cc7a11462000175578063397388af146200018c5780633bb3ec9e14620001a557806345f5b55f14620001be5780635c60f22614620001d55780636386c1c714620001ec5780636ab5d88c14620002125780637b1530eb14620002295780638811340c14620002405780638da5cb5b146200024a578063a00453c0146200025e578063a4a1e2631462000275578063babe1655146200027e578063bd73b25d14620002a8578063cf2d3ce814620002bf578063de7fb44914620002d6578063e299476714620002e0578063eaa2f67f14620002f7578063f0a54938146200030e575b600080fd5b6200013c6200013636600462001f87565b62000325565b6040519081526020015b60405180910390f35b6200016662000160366004620021ad565b620003a5565b6040516200014691906200237e565b6200016662000186366004620021ad565b6200043e565b62000196620004b3565b60405162000146919062002460565b620001bc620001b6366004620020ce565b62000780565b005b620001bc620001cf3660046200217e565b62000acb565b620001bc620001e636600462001f87565b62000ccf565b62000203620001fd36600462001f87565b62000dbd565b60405162000146919062002567565b620001bc62000223366004620020ce565b62001008565b620001bc6200023a3660046200201c565b6200132d565b6200013c62001546565b6000546200016690600160a060020a031681565b620001bc6200026f366004620020ce565b620015ab565b6003546200013c565b620002956200028f366004620021ad565b620015f6565b60405162000146959493929190620023f5565b620001bc620002b936600462001f87565b620017fc565b6200013c620002d036600462001f87565b620019be565b6200013c62001a4c565b620001bc620002f136600462001f87565b62001ab1565b620002036200030836600462001fc7565b62001b80565b620001bc6200031f36600462001f87565b62001cff565b600081600160a060020a031663922962996040518163ffffffff1660e060020a02815260040160206040518083038186803b1580156200036457600080fd5b505afa15801562000379573d6000803e3d6000fd5b505050506040513d601f19601f820116820180604052508101906200039f9190620021c7565b92915050565b600060033360009081526002602052604090206003015460ff166008811115620003d357620003d3620025eb565b14620003ff5760405160e560020a62461bcd028152600401620003f69062002546565b60405180910390fd5b33600090815260056020526040902080548390811062000423576200042362002605565b600091825260209091200154600160a060020a031692915050565b600060033360009081526002602052604090206003015460ff1660088111156200046c576200046c620025eb565b146200048f5760405160e560020a62461bcd028152600401620003f69062002546565b33600090815260046020526040902080548390811062000423576200042362002605565b606060083360009081526002602052604090206003015460ff166008811115620004e157620004e1620025eb565b14620005045760405160e560020a62461bcd028152600401620003f69062002525565b6001805480602002602001604051908101604052809291908181526020016000905b82821015620007775760008481526020908190206040805160a08101909152600585029091018054600160a060020a03168252600181018054929391929184019162000572906200257c565b80601f0160208091040260200160405190810160405280929190818152602001828054620005a0906200257c565b8015620005f15780601f10620005c557610100808354040283529160200191620005f1565b820191906000526020600020905b815481529060010190602001808311620005d357829003601f168201915b505050505081526020016002820180546200060c906200257c565b80601f01602080910402602001604051908101604052809291908181526020018280546200063a906200257c565b80156200068b5780601f106200065f576101008083540402835291602001916200068b565b820191906000526020600020905b8154815290600101906020018083116200066d57829003601f168201915b5050509183525050600382015460209091019060ff166008811115620006b557620006b5620025eb565b6008811115620006c957620006c9620025eb565b8152602001600482018054620006df906200257c565b80601f01602080910402602001604051908101604052809291908181526020018280546200070d906200257c565b80156200075e5780601f1062000732576101008083540402835291602001916200075e565b820191906000526020600020905b8154815290600101906020018083116200074057829003601f168201915b5050505050815250508152602001906001019062000526565b50505050905090565b60083360009081526002602052604090206003015460ff166008811115620007ac57620007ac620025eb565b14620007cf5760405160e560020a62461bcd028152600401620003f69062002525565b600160a060020a0380861660008181526002602052604090205490911614156200082e5760405160e560020a62461bcd028152602060048201526009602482015260ba60020a681554d497d1561254d5026044820152606401620003f6565b6200083862001df3565b600160a060020a03861681526020810185905260408101849052826008811115620008675762000867620025eb565b81606001906008811115620008805762000880620025eb565b90816008811115620008965762000896620025eb565b90525060808101829052600160a060020a03868116600090815260026020908152604090912083518154600160a060020a0319169316929092178255808301518051849392620008ee92600185019291019062001e3f565b50604082015180516200090c91600284019160209091019062001e3f565b50606082015160038201805460ff19166001836008811115620009335762000933620025eb565b0217905550608082015180516200095591600484019160209091019062001e3f565b505081516003805460018082019092557fc2575a0e9e593c00f959f8c92f12db2869c3395a3b0502d05e2516446f71f85b018054600160a060020a0319908116600160a060020a03948516179091558154808301835560009290925284517fb10e2d527612073b26eecdfd717e6a320cf44b4afac2b0732d9fcbe2b7fa0cf6600590930292830180549092169316929092178255602080850151805186955062000a27937fb10e2d527612073b26eecdfd717e6a320cf44b4afac2b0732d9fcbe2b7fa0cf70192919091019062001e3f565b506040820151805162000a4591600284019160209091019062001e3f565b50606082015160038201805460ff1916600183600881111562000a6c5762000a6c620025eb565b02179055506080820151805162000a8e91600484019160209091019062001e3f565b50505085600160a060020a0316600080516020620032eb8339815191528660405162000abb9190620024c5565b60405180910390a2505050505050565b60083360009081526002602052604090206003015460ff16600881111562000af75762000af7620025eb565b1462000b1a5760405160e560020a62461bcd028152600401620003f69062002525565b600160a060020a038083166000818152600260205260409020549091161462000b5a5760405160e560020a62461bcd028152600401620003f690620024fe565b600062000b678362000dbd565b905081600881111562000b7e5762000b7e620025eb565b8160600190600881111562000b975762000b97620025eb565b9081600881111562000bad5762000bad620025eb565b905250600160a060020a03838116600090815260026020908152604090912083518154600160a060020a031916931692909217825582810151805184939262000bfe92600185019291019062001e3f565b506040820151805162000c1c91600284019160209091019062001e3f565b50606082015160038201805460ff1916600183600881111562000c435762000c43620025eb565b02179055506080820151805162000c6591600484019160209091019062001e3f565b5090505082600160a060020a03167f5a2f045370e4381799dd282fd5f3a534028572dc56a8e9ff1f6184b575e584ef82602001518360600151600881111562000cb25762000cb2620025eb565b60405162000cc2929190620024da565b60405180910390a2505050565b60083360009081526002602052604090206003015460ff16600881111562000cfb5762000cfb620025eb565b1462000d1e5760405160e560020a62461bcd028152600401620003f69062002525565b600160a060020a038082166000818152600260205260409020549091161462000d5e5760405160e560020a62461bcd028152600401620003f690620024fe565b6040805180820182526008815260c060020a67496e616374697665026020808301918252600160a060020a0385166000908152600290915292909220905162000dae926004909201919062001e3f565b5062000dba8162001ab1565b50565b62000dc762001df3565b600160a060020a03808316600090815260026020908152604091829020825160a08101909352805490931682526001830180549293929184019162000e0c906200257c565b80601f016020809104026020016040519081016040528092919081815260200182805462000e3a906200257c565b801562000e8b5780601f1062000e5f5761010080835404028352916020019162000e8b565b820191906000526020600020905b81548152906001019060200180831162000e6d57829003601f168201915b5050505050815260200160028201805462000ea6906200257c565b80601f016020809104026020016040519081016040528092919081815260200182805462000ed4906200257c565b801562000f255780601f1062000ef95761010080835404028352916020019162000f25565b820191906000526020600020905b81548152906001019060200180831162000f0757829003601f168201915b5050509183525050600382015460209091019060ff16600881111562000f4f5762000f4f620025eb565b600881111562000f635762000f63620025eb565b815260200160048201805462000f79906200257c565b80601f016020809104026020016040519081016040528092919081815260200182805462000fa7906200257c565b801562000ff85780601f1062000fcc5761010080835404028352916020019162000ff8565b820191906000526020600020905b81548152906001019060200180831162000fda57829003601f168201915b5050505050815250509050919050565b60083360009081526002602052604090206003015460ff166008811115620010345762001034620025eb565b14620010575760405160e560020a62461bcd028152600401620003f69062002525565b600160a060020a0380861660008181526002602052604090205490911614620010975760405160e560020a62461bcd028152600401620003f690620024fe565b600160a060020a03851660009081526002602090815260409091208551620010c89260019092019187019062001e3f565b50600160a060020a03851660009081526002602081815260409092208551620010fa9391909201919086019062001e3f565b50816008811115620011105762001110620025eb565b600160a060020a0386166000908152600260205260409020600301805460ff19166001836008811115620011485762001148620025eb565b0217905550600160a060020a038516600090815260026020908152604090912082516200117e9260049092019184019062001e3f565b506000805b600154811015620011e85786600160a060020a031660018281548110620011ae57620011ae62002605565b6000918252602090912060059091020154600160a060020a03161415620011d3578091505b80620011df81620025bd565b91505062001183565b50846001828154811062001200576200120062002605565b906000526020600020906005020160010190805190602001906200122692919062001e3f565b5083600182815481106200123e576200123e62002605565b906000526020600020906005020160020190805190602001906200126492919062001e3f565b508260088111156200127a576200127a620025eb565b6001828154811062001290576200129062002605565b60009182526020909120600360059092020101805460ff19166001836008811115620012c057620012c0620025eb565b02179055508160018281548110620012dc57620012dc62002605565b906000526020600020906005020160040190805190602001906200130292919062001e3f565b5085600160a060020a0316600080516020620032eb8339815191528660405162000abb9190620024c5565b60033360009081526002602052604090206003015460ff166008811115620013595762001359620025eb565b146200137c5760405160e560020a62461bcd028152600401620003f69062002546565b6002600160a060020a03831660009081526002602052604090206003015460ff166008811115620013b157620013b1620025eb565b14620013f55760405160e560020a62461bcd02815260206004820152600c602482015260a060020a6b5452414e535f4e545f524547026044820152606401620003f6565b6000338786888787876040516200140c9062001ece565b6200141e979695949392919062002392565b604051809103906000f0801580156200143b573d6000803e3d6000fd5b509050600081600160a060020a031663b25373c96040518163ffffffff1660e060020a02815260040160206040518083038186803b1580156200147d57600080fd5b505afa15801562001492573d6000803e3d6000fd5b505050506040513d601f19601f82011682018060405250810190620014b8919062001fa7565b336000818152600560209081526040808320805460018101825590845291909220018054600160a060020a031916600160a060020a0387811691909117909155905192935086811692908416907fb241f809dbf346af1259c62e2d37aba1e53283fe7390a8aeda6a96283e5d4f3390620015349088906200237e565b60405180910390a45050505050505050565b600060033360009081526002602052604090206003015460ff166008811115620015745762001574620025eb565b14620015975760405160e560020a62461bcd028152600401620003f69062002546565b503360009081526005602052604090205490565b600054600160a060020a03163314620007cf5760405160e560020a62461bcd028152600401620003f690602080825260049082015260e060020a634f57434302604082015260600190565b600181815481106200160757600080fd5b600091825260209091206005909102018054600182018054600160a060020a0390921693509062001638906200257c565b80601f016020809104026020016040519081016040528092919081815260200182805462001666906200257c565b8015620016b75780601f106200168b57610100808354040283529160200191620016b7565b820191906000526020600020905b8154815290600101906020018083116200169957829003601f168201915b505050505090806002018054620016ce906200257c565b80601f0160208091040260200160405190810160405280929190818152602001828054620016fc906200257c565b80156200174d5780601f1062001721576101008083540402835291602001916200174d565b820191906000526020600020905b8154815290600101906020018083116200172f57829003601f168201915b5050506003840154600485018054949560ff90921694919350915062001773906200257c565b80601f0160208091040260200160405190810160405280929190818152602001828054620017a1906200257c565b8015620017f25780601f10620017c657610100808354040283529160200191620017f2565b820191906000526020600020905b815481529060010190602001808311620017d457829003601f168201915b5050505050905085565b60083360009081526002602052604090206003015460ff166008811115620018285762001828620025eb565b146200184b5760405160e560020a62461bcd028152600401620003f69062002525565b600160a060020a03808216600081815260026020526040902054909116146200188b5760405160e560020a62461bcd028152600401620003f690620024fe565b6000620018988262000dbd565b60076060820152600160a060020a03838116600090815260026020908152604090912083518154600160a060020a03191693169290921782558083015180519394508493620018ee926001850192019062001e3f565b50604082015180516200190c91600284019160209091019062001e3f565b50606082015160038201805460ff19166001836008811115620019335762001933620025eb565b0217905550608082015180516200195591600484019160209091019062001e3f565b5090505081600160a060020a03167f18a4c0aa2d0b9e55cfd3c133652630cc693f845135ba74f56f45c8d38910ce5c826020015183606001516008811115620019a257620019a2620025eb565b604051620019b2929190620024da565b60405180910390a25050565b600060033360009081526002602052604090206003015460ff166008811115620019ec57620019ec620025eb565b1462001a0f5760405160e560020a62461bcd028152600401620003f69062002546565b81600160a060020a03166373b037db6040518163ffffffff1660e060020a02815260040160206040518083038186803b1580156200036457600080fd5b600060033360009081526002602052604090206003015460ff16600881111562001a7a5762001a7a620025eb565b1462001a9d5760405160e560020a62461bcd028152600401620003f69062002546565b503360009081526004602052604090205490565b6000805b60015481101562001b1a5782600160a060020a03166001828154811062001ae05762001ae062002605565b6000918252602090912060059091020154600160a060020a0316141562001b05578091505b8062001b1181620025bd565b91505062001ab5565b5060405180604001604052806008815260200160c060020a67496e616374697665028152506001828154811062001b555762001b5562002605565b9060005260206000209060050201600401908051906020019062001b7b92919062001e3f565b505050565b62001b8a62001df3565b600160a060020a038084166000818152600260205260409020549091161462001bca5760405160e560020a62461bcd028152600401620003f690620024fe565b81805190602001206002600085600160a060020a0316600160a060020a0316815260200190815260200160002060010160405162001c099190620022d7565b60405180910390201462001c345760405160e560020a62461bcd028152600401620003f690620024fe565b6040805180820182526006815260d060020a6541637469766502602091820152600160a060020a0385166000908152600290915281902090517ff07b88471cd28dc438f2291190512bd968fbd79b8c86b9ed015e51c1261d911f9162001ca091600490910190620022d7565b60405180910390201462001ced5760405160e560020a62461bcd02815260206004820152600d6024820152609860020a6c5553525f4e545f414354495645026044820152606401620003f6565b62001cf88362000dbd565b9392505050565b60033360009081526002602052604090206003015460ff16600881111562001d2b5762001d2b620025eb565b1462001d4e5760405160e560020a62461bcd028152600401620003f69062002546565b60405160e160020a634a9c7001028152600160a060020a03821690639538e0029062001d7f9033906004016200237e565b600060405180830381600087803b15801562001d9a57600080fd5b505af115801562001daf573d6000803e3d6000fd5b5050336000908152600460209081526040822080546001810182559083529120018054600160a060020a031916600160a060020a0394909416939093179092555050565b6040518060a001604052806000600160a060020a0316815260200160608152602001606081526020016000600881111562001e325762001e32620025eb565b8152602001606081525090565b82805462001e4d906200257c565b90600052602060002090601f01602090048101928262001e71576000855562001ebc565b82601f1062001e8c57805160ff191683800117855562001ebc565b8280016001018555821562001ebc579182015b8281111562001ebc57825182559160200191906001019062001e9f565b5062001eca92915062001edc565b5090565b610c9b806200265083390190565b5b8082111562001eca576000815560010162001edd565b600082601f83011262001f0557600080fd5b81356001604060020a038082111562001f225762001f226200261f565b604051601f8301601f19908116603f0116810190828211818310171562001f4d5762001f4d6200261f565b8160405283815286602085880101111562001f6757600080fd5b836020870160208301376000602085830101528094505050505092915050565b60006020828403121562001f9a57600080fd5b813562001cf88162002639565b60006020828403121562001fba57600080fd5b815162001cf88162002639565b6000806040838503121562001fdb57600080fd5b823562001fe88162002639565b915060208301356001604060020a038111156200200457600080fd5b620020128582860162001ef3565b9150509250929050565b60008060008060008060c087890312156200203657600080fd5b8635620020438162002639565b955060208701356001604060020a03808211156200206057600080fd5b6200206e8a838b0162001ef3565b965060408901359150808211156200208557600080fd5b506200209489828a0162001ef3565b945050606087013592506080870135620020ae8162002639565b915060a0870135620020c08162002639565b809150509295509295509295565b600080600080600060a08688031215620020e757600080fd5b8535620020f48162002639565b945060208601356001604060020a03808211156200211157600080fd5b6200211f89838a0162001ef3565b955060408801359150808211156200213657600080fd5b6200214489838a0162001ef3565b94506060880135935060808801359150808211156200216257600080fd5b50620021718882890162001ef3565b9150509295509295909350565b600080604083850312156200219257600080fd5b82356200219f8162002639565b946020939093013593505050565b600060208284031215620021c057600080fd5b5035919050565b600060208284031215620021da57600080fd5b5051919050565b60098110620022045760e060020a634e487b710260009081526021600452602490fd5b9052565b6000815180845260005b81811015620022305760208185018101518683018201520162002212565b8181111562002243576000602083870101525b50601f01601f19169290920160200192915050565b600160a060020a0381511682526000602082015160a060208501526200228260a085018262002208565b9050604083015184820360408601526200229d828262002208565b9150506060830151620022b46060860182620021e1565b5060808301518482036080860152620022ce828262002208565b95945050505050565b8154600090819060028104600180831680620022f457607f831692505b6020808410821415620023185760e060020a634e487b710286526022600452602486fd5b8180156200232f5760018114620023415762002370565b60ff1986168952848901965062002370565b60008a81526020902060005b86811015620023685781548b8201529085019083016200234d565b505084890196505b509498975050505050505050565b600160a060020a0391909116815260200190565b6000600160a060020a03808a168352808916602084015260e06040840152620023bf60e084018962002208565b8381036060850152620023d3818962002208565b60808501979097525093841660a083015250911660c090910152949350505050565b600160a060020a038616815260a0602082018190526000906200241b9083018762002208565b82810360408401526200242f818762002208565b9050620024406060840186620021e1565b828103608084015262002454818562002208565b98975050505050505050565b600060208083018184528085518083526040860191506040848202870101925083870160005b82811015620024b857603f19888603018452620024a585835162002258565b9450928501929085019060010162002486565b5092979650505050505050565b60208152600062001cf8602083018462002208565b604081526000620024ef604083018562002208565b90508260208301529392505050565b6020808252600a9082015260b060020a695553525f4e545f52454702604082015260600190565b602080825260049082015260e060020a634f41434302604082015260600190565b602080825260049082015260e060020a634f4d434302604082015260600190565b60208152600062001cf8602083018462002258565b6002810460018216806200259157607f821691505b60208210811415620025b75760e060020a634e487b710260009081526022600452602490fd5b50919050565b6000600019821415620025e45760e060020a634e487b710260009081526011600452602490fd5b5060010190565b60e060020a634e487b710260009081526021600452602490fd5b60e060020a634e487b710260009081526032600452602490fd5b60e060020a634e487b710260009081526041600452602490fd5b600160a060020a038116811462000dba57600080fdfe60806040523480156200001157600080fd5b5060405162000c9b38038062000c9b83398101604081905262000034916200026e565b60008054600160a060020a03808a16600160a060020a03199283161790925560058054928916928216929092179091556001805490911630179055845162000084906002906020880190620000f4565b5083516200009a906003906020870190620000f4565b5060049290925560068054600160a060020a0319908116600160a060020a0393841617909155600780549091169282169290921790915560098054600160a860020a031916959091169490941790935550620003b1915050565b82805462000102906200032c565b90600052602060002090601f01602090048101928262000126576000855562000171565b82601f106200014157805160ff191683800117855562000171565b8280016001018555821562000171579182015b828111156200017157825182559160200191906001019062000154565b506200017f92915062000183565b5090565b5b808211156200017f576000815560010162000184565b8051600160a060020a0381168114620001b257600080fd5b919050565b600082601f830112620001c957600080fd5b81516001604060020a0380821115620001e657620001e662000382565b604051601f8301601f19908116603f0116810190828211818310171562000211576200021162000382565b816040528381526020925086838588010111156200022e57600080fd5b600091505b8382101562000252578582018301518183018401529082019062000233565b83821115620002645760008385830101525b9695505050505050565b600080600080600080600060e0888a0312156200028a57600080fd5b62000295886200019a565b9650620002a5602089016200019a565b955060408801516001604060020a0380821115620002c257600080fd5b620002d08b838c01620001b7565b965060608a0151915080821115620002e757600080fd5b50620002f68a828b01620001b7565b945050608088015192506200030e60a089016200019a565b91506200031e60c089016200019a565b905092959891949750929550565b6002810460018216806200034157607f821691505b602082108114156200037c577f4e487b7100000000000000000000000000000000000000000000000000000000600052602260045260246000fd5b50919050565b7f4e487b7100000000000000000000000000000000000000000000000000000000600052604160045260246000fd5b6108da80620003c16000396000f3fe608060405234801561001057600080fd5b50600436106100865760e060020a60003504633787fb3d811461008b57806340019e5d146100a057806355309891146100ca578063678dd118146100e457806373b037db146101055780638ceae4401461011b5780639a305a471461012e578063b0323d6314610141578063b25373c914610154575b600080fd5b61009e6100993660046106b0565b610167565b005b600154600160a060020a03165b604051600160a060020a0390911681526020015b60405180910390f35b6100d2610250565b6040516100c196959493929190610752565b6009546100f89060a060020a900460ff1681565b6040516100c191906107a8565b61010d6103b2565b6040519081526020016100c1565b61009e6101293660046106d2565b6103d8565b61009e61013c3660046106b0565b6104b9565b61009e61014f3660046106b0565b610599565b6001546100ad90600160a060020a031681565b600754600160a060020a038281169116146101b75760405160e560020a62461bcd028152602060048201526005602482015260d860020a644f524443430260448201526064015b60405180910390fd5b600160095460a060020a900460ff1660048111156101d7576101d761086a565b146101f75760405160e560020a62461bcd0281526004016101ae90610803565b6009805460a060020a60ff02191660a160020a179055600654600554604051600160a060020a03848116938116921690600080516020610885833981519152906102459060029081906107d4565b60405180910390a450565b600954600554600454600654600280546000956060958695889586958695600160a060020a03958616959194600394908316939092169085906102929061082b565b80601f01602080910402602001604051908101604052809291908181526020018280546102be9061082b565b801561030b5780601f106102e05761010080835404028352916020019161030b565b820191906000526020600020905b8154815290600101906020018083116102ee57829003601f168201915b5050505050945083805461031e9061082b565b80601f016020809104026020016040519081016040528092919081815260200182805461034a9061082b565b80156103975780601f1061036c57610100808354040283529160200191610397565b820191906000526020600020905b81548152906001019060200180831161037a57829003601f168201915b50505050509350955095509550955095509550909192939495565b60095460009060a060020a900460ff1660048111156103d3576103d361086a565b905090565b600654600160a060020a038381169116146104085760405160e560020a62461bcd0281526004016101ae906107e2565b600260095460a060020a900460ff1660048111156104285761042861086a565b146104485760405160e560020a62461bcd0281526004016101ae90610803565b6009805460a060020a60ff02191660a060020a60030217905560088054600160a060020a031916600160a060020a03838116918217909255600154604051919285811692911690600080516020610885833981519152906104ad9060039081906107d4565b60405180910390a45050565b600654600160a060020a038281169116146104e95760405160e560020a62461bcd0281526004016101ae906107e2565b600060095460a060020a900460ff1660048111156105095761050961086a565b1461054a5760405160e560020a62461bcd02815260206004820152600b602482015260a860020a6a4d5f4d5553545f41545f4d0260448201526064016101ae565b6009805460a060020a60ff02191660a060020a17905560075460018054604051600160a060020a03938416938581169392169160008051602061088583398151915291610245916002916107d4565b600854600160a060020a038281169116146105e45760405160e560020a62461bcd028152602060048201526005602482015260d860020a644f525043430260448201526064016101ae565b600360095460a060020a900460ff1660048111156106045761060461086a565b146106455760405160e560020a62461bcd02815260206004820152600b602482015260ac60020a6a04d5f4d5553545f41545f50260448201526064016101ae565b6009805460a060020a60ff02191660a260020a179055600654600554604051600160a060020a0384811693811692169060008051602061088583398151915290610245906003906004906107d4565b8035600160a060020a03811681146106ab57600080fd5b919050565b6000602082840312156106c257600080fd5b6106cb82610694565b9392505050565b600080604083850312156106e557600080fd5b6106ee83610694565b91506106fc60208401610694565b90509250929050565b6000815180845260005b8181101561072b5760208185018101518683018201520161070f565b8181111561073d576000602083870101525b50601f01601f19169290920160200192915050565b6000600160a060020a03808916835260c0602084015261077560c0840189610705565b83810360408501526107878189610705565b968216606085015250608083019490945250911660a0909101529392505050565b60208101600583106107ce5760e060020a634e487b710260009081526021600452602490fd5b91905290565b918252602082015260400190565b602080825260049082015260e060020a634f53434302604082015260600190565b6020808252600b9082015260aa60020a6a1357d35554d517d05517d102604082015260600190565b60028104600182168061083f57607f821691505b602082108114156108645760e060020a634e487b710260009081526022600452602490fd5b50919050565b60e060020a634e487b710260009081526021600452602490fdfe7e89c4b1a4e2b51aae84eb1f90e8a34cb792ece5ac5cb63db4830c891220b28da264697066735822122072bc6a22b4e36660c9703e2699cf60424493d4328cb871b926702a2c758612f464736f6c6343000806003348cac28ad4dc618e15f4c2dd5e97751182f166de97b25618318b2112aa951a2fa2646970667358221220932d8997b83cf3be641e78c5ebc886daa0b4cbdb1dd23cb1b26e919bcc94a7cf64736f6c63430008060033",
  "immutableReferences": {},
  "source": "// SPDX-License-Identifier: MIT\r\npragma solidity >=0.4.22 <0.9.0;\r\npragma experimental ABIEncoderV2;\r\n\r\nimport \"./User.sol\";\r\nimport \"./RawMaterials.sol\";\r\nimport \"./Medicine.sol\";\r\n\r\ncontract Manufacturer is User {\r\n    mapping(address => address[]) RawMaterialPackagesReceivedAtManufacturer;\r\n    mapping(address => address[]) MedicinesManufactured;\r\n\r\n    //Event\r\n    event MedicinePackageInitialize(\r\n        address indexed MedicineID,\r\n        address indexed Manufacturer,\r\n        address Distributor,\r\n        address indexed Transporter\r\n    );\r\n\r\n    modifier onlyManufacturer {\r\n        require(\r\n            UsersDetails[msg.sender].userRole == roles.manufacturer,\r\n            \"OMCC\"\r\n        ); //Only Manufacturer can call this function.\r\n        _;\r\n    }\r\n\r\n    //Recieve & update raw material package shippment status for supplied package ID by tagged/associated receiver/manufacturer. Update RawMaterialPackagesReceivedAtManufacturer mapping\r\n    //@param _packageID Material/Package/batch ID Address\r\n    function updateRecievedRawMaterialPackageStatus(address _packageID)\r\n        public\r\n        onlyManufacturer\r\n    {\r\n        RawMaterials(_packageID).UpdatePackageStatusOnReceived(msg.sender);\r\n        RawMaterialPackagesReceivedAtManufacturer[msg.sender].push(_packageID);\r\n    }\r\n\r\n    //Retrieve material/package shippment status using packageID. Only Manufacturer can call this.\r\n    //@param _packageID Address\r\n    function getReceivedRawMaterialPackageAtManufacturerStatus(\r\n        address _packageID\r\n    ) public view returns (uint256) {\r\n        return RawMaterials(_packageID).getRawMaterialsStatus();\r\n    }\r\n\r\n    //Retrieve number of raw material packages received to particular manufacturer. Only Manufacturer can call this.\r\n    function getReceivedRawMaterialPackagesCount()\r\n        public\r\n        view\r\n        onlyManufacturer\r\n        returns (uint256)\r\n    {\r\n        return RawMaterialPackagesReceivedAtManufacturer[msg.sender].length;\r\n    }\r\n\r\n    //Retrieve raw material/package ID using index registered by Manufacturer. Only Manufacturer can call this.\r\n    //@param _index Uint\r\n    function getReceivedRawMaterialPackageIDByIndex(uint256 _index)\r\n        public\r\n        view\r\n        onlyManufacturer\r\n        returns (address)\r\n    {\r\n        return RawMaterialPackagesReceivedAtManufacturer[msg.sender][_index];\r\n    }\r\n\r\n    //Initialize Medicine batch with required details, transporter & distributor. Emit event with new package details.\r\n    //@param _materialID Raw Material information Address\r\n    //@param _desc Medicine description String\r\n    //@param _medicineName Medicine name String\r\n    //@param _quantity Medicine Quantity Uint\r\n    //@param _transporter Transporter/Shipper Address\r\n    //@param _distributor Reciever/Distributor Address\r\n    function createMedicinePackage(\r\n        address _materialID,\r\n        string memory _medicineName,\r\n        string memory _desc,\r\n        uint256 _quantity,\r\n        address _transporter,\r\n        address _distributor\r\n    ) public onlyManufacturer {\r\n       require(\r\n            UsersDetails[_transporter].userRole == roles.transporter,\r\n            \"TRANS_NT_REG\"\r\n        ); //Only Registered Transporter/Shipper is allowed.\r\n        Medicine medicineData = new Medicine(\r\n            msg.sender,\r\n            _materialID,\r\n            _desc,\r\n            _medicineName,\r\n            _quantity,\r\n            _transporter,\r\n            _distributor\r\n        );\r\n        //populate medicine ID\r\n        address _medicineID = medicineData.medicineId();\r\n        //Push medicine address to list registered by manudacturer\r\n        MedicinesManufactured[msg.sender].push(address(medicineData));\r\n        //Emit event after medicine registration\r\n        emit MedicinePackageInitialize(\r\n            _medicineID,\r\n            msg.sender,\r\n            _distributor,\r\n            _transporter\r\n        );\r\n    }\r\n\r\n    //Retrieve number of medicine packages registered by manufacturer. Only manufacturer can call this.\r\n    function getRegisteredMedicinePackagesCount()\r\n        public\r\n        view\r\n        onlyManufacturer\r\n        returns (uint256)\r\n    {\r\n        return MedicinesManufactured[msg.sender].length;\r\n    }\r\n\r\n    //Retrieve medicine ID using index registered by manufacturer. Only manufacturer can call this.\r\n    //@param index Uint\r\n    function getRegisteredMedicineIDByIndex(uint256 index)\r\n        public\r\n        view\r\n        onlyManufacturer\r\n        returns (address)\r\n    {\r\n        return MedicinesManufactured[msg.sender][index];\r\n    }\r\n\r\n    //Retrieve medicine package status using package/medicine ID. Only manufacturer can call this.\r\n    //@param _packageID Address\r\n    function getRegisteredMedicinePackageStatusByID(address _medicineID)\r\n        public\r\n        view\r\n        onlyManufacturer\r\n        returns (uint256)\r\n    {\r\n        return Medicine(_medicineID).getMedicineStatus();\r\n    }\r\n}\r\n",
  "sourcePath": "C:\\Development\\Blockchain\\Learning-2\\contracts\\Manufacturer.sol",
  "compiler": {
    "name": "solc",
    "version": "0.8.6+commit.11564f7e.Emscripten.clang"
  },
  "schemaVersion": "3.4.1",
  "updatedAt": "2021-07-07T13:26:47.749Z",
  "devdoc": {
    "kind": "dev",
    "methods": {},
    "version": 1
  },
  "userdoc": {
    "kind": "user",
    "methods": {},
    "version": 1
  }
}