{
  "contractName": "Manufacturer",
  "abi": [
    {
      "anonymous": false,
      "inputs": [
        {
          "indexed": true,
          "internalType": "address",
          "name": "MedicineID",
          "type": "address"
        }
      ],
      "name": "MedicinePackageInitialize",
      "type": "event"
    },
    {
      "inputs": [
        {
          "internalType": "uint256",
          "name": "",
          "type": "uint256"
        }
      ],
      "name": "TotalMedicineBatchesShipped",
      "outputs": [
        {
          "internalType": "address",
          "name": "",
          "type": "address"
        }
      ],
      "stateMutability": "view",
      "type": "function"
    },
    {
      "inputs": [
        {
          "internalType": "uint256",
          "name": "",
          "type": "uint256"
        }
      ],
      "name": "UserList",
      "outputs": [
        {
          "internalType": "address",
          "name": "userAddress",
          "type": "address"
        },
        {
          "internalType": "string",
          "name": "userName",
          "type": "string"
        },
        {
          "internalType": "string",
          "name": "userLocation",
          "type": "string"
        },
        {
          "internalType": "enum User.roles",
          "name": "userRole",
          "type": "uint8"
        },
        {
          "internalType": "string",
          "name": "userStatus",
          "type": "string"
        },
        {
          "internalType": "bool",
          "name": "isDeleted",
          "type": "bool"
        }
      ],
      "stateMutability": "view",
      "type": "function"
    },
    {
      "inputs": [
        {
          "internalType": "address",
          "name": "_address",
          "type": "address"
        }
      ],
      "name": "deleteUser",
      "outputs": [],
      "stateMutability": "nonpayable",
      "type": "function"
    },
    {
      "inputs": [],
      "name": "owner",
      "outputs": [
        {
          "internalType": "address",
          "name": "",
          "type": "address"
        }
      ],
      "stateMutability": "view",
      "type": "function"
    },
    {
      "inputs": [
        {
          "internalType": "address",
          "name": "_address",
          "type": "address"
        },
        {
          "internalType": "string",
          "name": "_name",
          "type": "string"
        },
        {
          "internalType": "string",
          "name": "_location",
          "type": "string"
        },
        {
          "internalType": "uint256",
          "name": "_role",
          "type": "uint256"
        },
        {
          "internalType": "string",
          "name": "_userStatus",
          "type": "string"
        }
      ],
      "name": "registerAdmin",
      "outputs": [],
      "stateMutability": "nonpayable",
      "type": "function"
    },
    {
      "inputs": [
        {
          "internalType": "address",
          "name": "_address",
          "type": "address"
        },
        {
          "internalType": "string",
          "name": "_name",
          "type": "string"
        },
        {
          "internalType": "string",
          "name": "_location",
          "type": "string"
        },
        {
          "internalType": "uint256",
          "name": "_role",
          "type": "uint256"
        },
        {
          "internalType": "string",
          "name": "_userStatus",
          "type": "string"
        }
      ],
      "name": "registerUser",
      "outputs": [],
      "stateMutability": "nonpayable",
      "type": "function"
    },
    {
      "inputs": [
        {
          "internalType": "address",
          "name": "_address",
          "type": "address"
        },
        {
          "internalType": "string",
          "name": "_location",
          "type": "string"
        },
        {
          "internalType": "string",
          "name": "_userStatus",
          "type": "string"
        }
      ],
      "name": "updateUser",
      "outputs": [],
      "stateMutability": "nonpayable",
      "type": "function"
    },
    {
      "inputs": [
        {
          "internalType": "address",
          "name": "_materialId",
          "type": "address"
        },
        {
          "internalType": "string",
          "name": "_medicineName",
          "type": "string"
        },
        {
          "internalType": "string",
          "name": "_location",
          "type": "string"
        },
        {
          "internalType": "string",
          "name": "_desc",
          "type": "string"
        },
        {
          "internalType": "uint256",
          "name": "_quantity",
          "type": "uint256"
        },
        {
          "internalType": "address",
          "name": "_transporter",
          "type": "address"
        },
        {
          "internalType": "address",
          "name": "_distributor",
          "type": "address"
        }
      ],
      "name": "createMedicinePackage",
      "outputs": [],
      "stateMutability": "nonpayable",
      "type": "function"
    },
    {
      "inputs": [
        {
          "internalType": "address",
          "name": "_medicineID",
          "type": "address"
        },
        {
          "internalType": "string",
          "name": "_medicineName",
          "type": "string"
        },
        {
          "internalType": "string",
          "name": "_location",
          "type": "string"
        },
        {
          "internalType": "string",
          "name": "_desc",
          "type": "string"
        },
        {
          "internalType": "uint256",
          "name": "_quantity",
          "type": "uint256"
        },
        {
          "internalType": "address",
          "name": "_transporter",
          "type": "address"
        },
        {
          "internalType": "address",
          "name": "_distributor",
          "type": "address"
        }
      ],
      "name": "updateMedicineBatch",
      "outputs": [],
      "stateMutability": "nonpayable",
      "type": "function"
    },
    {
      "inputs": [
        {
          "internalType": "address",
          "name": "_medicineID",
          "type": "address"
        },
        {
          "internalType": "address",
          "name": "_distributor",
          "type": "address"
        }
      ],
      "name": "loadAndShipMedicineBatch",
      "outputs": [],
      "stateMutability": "nonpayable",
      "type": "function"
    },
    {
      "inputs": [
        {
          "internalType": "address",
          "name": "_distributor",
          "type": "address"
        }
      ],
      "name": "getTotalMedicineBatchesShippedCount",
      "outputs": [
        {
          "internalType": "uint256",
          "name": "",
          "type": "uint256"
        }
      ],
      "stateMutability": "view",
      "type": "function"
    }
  ],
  "bytecode": "0x608060405234801561001057600080fd5b5060008054600160a060020a0319163317905561290b806100326000396000f3fe60806040523480156200001157600080fd5b5060043610620000bb5760003560e060020a900480635c60f226116200007e5780635c60f226146200017657806368ab3fe4146200018d5780638da5cb5b14620001a4578063a00453c014620001b8578063babe165514620001cf578063bc063e5914620001fa57600080fd5b806310e8b22d14620000c05780631100762d14620000d957806314c4aecd146200011857806338201eab146200012f5780633bb3ec9e146200015f575b600080fd5b620000d7620000d136600462001375565b62000211565b005b62000105620000ea366004620012f0565b600160a060020a031660009081526004602052604090205490565b6040519081526020015b60405180910390f35b620000d762000129366004620013f4565b62000499565b62000146620001403660046200157d565b62000576565b604051600160a060020a0390911681526020016200010f565b620000d762000170366004620014cc565b620005a1565b620000d762000187366004620012f0565b620008e0565b620000d76200019e36600462001337565b62000a3a565b6000546200014690600160a060020a031681565b620000d7620001c9366004620014cc565b62000bb2565b620001e6620001e03660046200157d565b62000c13565b6040516200010f969594939291906200167e565b620000d76200020b366004620013f4565b62000e22565b60083360009081526002602052604090206003015460ff1660088111156200023d576200023d6200184d565b14620002695760405160e560020a62461bcd028152600401620002609062001772565b60405180910390fd5b600160a060020a0380841660008181526002602052604090205490911614620002d85760405160e560020a62461bcd02815260206004820152600a60248201527f5553525f4e545f52454700000000000000000000000000000000000000000000604482015260640162000260565b600160a060020a03831660009081526002602052604090206005015460ff1615620003495760405160e560020a62461bcd02815260206004820152600b60248201527f5553525f44454c45544544000000000000000000000000000000000000000000604482015260640162000260565b600160a060020a038316600090815260026020818152604090922084516200037a9391909201919085019062001142565b50600160a060020a03831660009081526002602090815260409091208251620003ac9260049092019184019062001142565b506000805b600154811015620004165784600160a060020a031660018281548110620003dc57620003dc62001866565b6000918252602090912060069091020154600160a060020a0316141562000401578091505b806200040d8162001820565b915050620003b1565b5082600182815481106200042e576200042e62001866565b906000526020600020906006020160020190805190602001906200045492919062001142565b5081600182815481106200046c576200046c62001866565b906000526020600020906006020160040190805190602001906200049292919062001142565b5050505050565b60033360009081526002602052604090206003015460ff166008811115620004c557620004c56200184d565b14620004e85760405160e560020a62461bcd0281526004016200026090620017a9565b6040517f8915a8fa000000000000000000000000000000000000000000000000000000008152600160a060020a03881690638915a8fa906200053990899088908a908990899089906004016200170a565b600060405180830381600087803b1580156200055457600080fd5b505af115801562000569573d6000803e3d6000fd5b5050505050505050505050565b600581815481106200058757600080fd5b600091825260209091200154600160a060020a0316905081565b60083360009081526002602052604090206003015460ff166008811115620005cd57620005cd6200184d565b14620005f05760405160e560020a62461bcd028152600401620002609062001772565b600160a060020a038086166000818152600260205260409020549091161415620006605760405160e560020a62461bcd02815260206004820152600960248201527f5553525f45584953540000000000000000000000000000000000000000000000604482015260640162000260565b6200066a620011d1565b600160a060020a038616815260208101859052604081018490528260088111156200069957620006996200184d565b81606001906008811115620006b257620006b26200184d565b90816008811115620006c857620006c86200184d565b90525060808101829052600060a08201819052600160a060020a0387811682526002602090815260409092208351815473ffffffffffffffffffffffffffffffffffffffff1916921691909117815581830151805184936200073292600185019291019062001142565b50604082015180516200075091600284019160209091019062001142565b50606082015160038201805460ff191660018360088111156200077757620007776200184d565b0217905550608082015180516200079991600484019160209091019062001142565b5060a091909101516005909101805460ff191691151591909117905560018054808201825560009190915281517fb10e2d527612073b26eecdfd717e6a320cf44b4afac2b0732d9fcbe2b7fa0cf66006909202918201805473ffffffffffffffffffffffffffffffffffffffff1916600160a060020a039092169190911781556020808401518051859462000855937fb10e2d527612073b26eecdfd717e6a320cf44b4afac2b0732d9fcbe2b7fa0cf790910192019062001142565b50604082015180516200087391600284019160209091019062001142565b50606082015160038201805460ff191660018360088111156200089a576200089a6200184d565b021790555060808201518051620008bc91600484019160209091019062001142565b5060a091909101516005909101805460ff1916911515919091179055505050505050565b60083360009081526002602052604090206003015460ff1660088111156200090c576200090c6200184d565b146200092f5760405160e560020a62461bcd028152600401620002609062001772565b600160a060020a03808216600081815260026020526040902054909116146200099e5760405160e560020a62461bcd02815260206004820152600a60248201527f5553525f4e545f52454700000000000000000000000000000000000000000000604482015260640162000260565b604080518082018252600881527f496e6163746976650000000000000000000000000000000000000000000000006020808301918252600160a060020a0385166000908152600290915292909220905162000a00926004909201919062001142565b50600160a060020a0381166000908152600260205260409020600501805460ff1916600190811790915562000a3790829062000fc6565b50565b60033360009081526002602052604090206003015460ff16600881111562000a665762000a666200184d565b1462000a895760405160e560020a62461bcd0281526004016200026090620017a9565b81600160a060020a031663644754d56040518163ffffffff1660e060020a028152600401600060405180830381600087803b15801562000ac857600080fd5b505af115801562000add573d6000803e3d6000fd5b5050505081600160a060020a03166373b037db6040518163ffffffff1660e060020a02815260040160206040518083038186803b15801562000b1e57600080fd5b505afa15801562000b33573d6000803e3d6000fd5b505050506040513d601f19601f8201168201806040525081019062000b59919062001597565b6001141562000bae57600160a060020a03818116600090815260046020908152604082208054600181018255908352912001805473ffffffffffffffffffffffffffffffffffffffff19169184169190911790555b5050565b600054600160a060020a03163314620005f05760405160e560020a62461bcd028152600401620002609060208082526004908201527f4f57434300000000000000000000000000000000000000000000000000000000604082015260600190565b6001818154811062000c2457600080fd5b600091825260209091206006909102018054600182018054600160a060020a0390921693509062000c5590620017e0565b80601f016020809104026020016040519081016040528092919081815260200182805462000c8390620017e0565b801562000cd45780601f1062000ca85761010080835404028352916020019162000cd4565b820191906000526020600020905b81548152906001019060200180831162000cb657829003601f168201915b50505050509080600201805462000ceb90620017e0565b80601f016020809104026020016040519081016040528092919081815260200182805462000d1990620017e0565b801562000d6a5780601f1062000d3e5761010080835404028352916020019162000d6a565b820191906000526020600020905b81548152906001019060200180831162000d4c57829003601f168201915b5050506003840154600485018054949560ff90921694919350915062000d9090620017e0565b80601f016020809104026020016040519081016040528092919081815260200182805462000dbe90620017e0565b801562000e0f5780601f1062000de35761010080835404028352916020019162000e0f565b820191906000526020600020905b81548152906001019060200180831162000df157829003601f168201915b5050506005909301549192505060ff1686565b60033360009081526002602052604090206003015460ff16600881111562000e4e5762000e4e6200184d565b1462000e715760405160e560020a62461bcd0281526004016200026090620017a9565b62000e7c87620010ee565b6000338886898988888860405162000e949062001224565b62000ea798979695949392919062001601565b604051809103906000f08015801562000ec4573d6000803e3d6000fd5b509050600081600160a060020a031663b25373c96040518163ffffffff1660e060020a02815260040160206040518083038186803b15801562000f0657600080fd5b505afa15801562000f1b573d6000803e3d6000fd5b505050506040513d601f19601f8201168201806040525081019062000f41919062001317565b3360009081526003602090815260408083208054600181018255908452918320909101805473ffffffffffffffffffffffffffffffffffffffff1916600160a060020a038781169190911790915590519293508316917f8db6d7b51a76f210955cc963ffb2f4c600686d546146c97bfe14f55b138b97959190a2505050505050505050565b6000805b6001548110156200102f5783600160a060020a03166001828154811062000ff55762000ff562001866565b6000918252602090912060069091020154600160a060020a031614156200101a578091505b80620010268162001820565b91505062000fca565b506040518060400160405280600881526020017f496e616374697665000000000000000000000000000000000000000000000000815250600182815481106200107c576200107c62001866565b90600052602060002090600602016004019080519060200190620010a292919062001142565b5060018215151415620010e9576001808281548110620010c657620010c662001866565b60009182526020909120600690910201600501805460ff19169115159190911790555b505050565b80600160a060020a031663ee8a544a6040518163ffffffff1660e060020a028152600401600060405180830381600087803b1580156200112d57600080fd5b505af115801562000492573d6000803e3d6000fd5b8280546200115090620017e0565b90600052602060002090601f016020900481019282620011745760008555620011bf565b82601f106200118f57805160ff1916838001178555620011bf565b82800160010185558215620011bf579182015b82811115620011bf578251825591602001919060010190620011a2565b50620011cd92915062001232565b5090565b6040518060c001604052806000600160a060020a031681526020016060815260200160608152602001600060088111156200121057620012106200184d565b815260606020820152600060409091015290565b61102780620018af83390190565b5b80821115620011cd576000815560010162001233565b8035620012568162001898565b919050565b600082601f8301126200126d57600080fd5b813567ffffffffffffffff808211156200128b576200128b6200187f565b604051601f8301601f19908116603f01168101908282118183101715620012b657620012b66200187f565b81604052838152866020858801011115620012d057600080fd5b836020870160208301376000602085830101528094505050505092915050565b6000602082840312156200130357600080fd5b8135620013108162001898565b9392505050565b6000602082840312156200132a57600080fd5b8151620013108162001898565b600080604083850312156200134b57600080fd5b8235620013588162001898565b915060208301356200136a8162001898565b809150509250929050565b6000806000606084860312156200138b57600080fd5b8335620013988162001898565b9250602084013567ffffffffffffffff80821115620013b657600080fd5b620013c4878388016200125b565b93506040860135915080821115620013db57600080fd5b50620013ea868287016200125b565b9150509250925092565b600080600080600080600060e0888a0312156200141057600080fd5b87356200141d8162001898565b9650602088013567ffffffffffffffff808211156200143b57600080fd5b620014498b838c016200125b565b975060408a01359150808211156200146057600080fd5b6200146e8b838c016200125b565b965060608a01359150808211156200148557600080fd5b50620014948a828b016200125b565b9450506080880135925060a0880135620014ae8162001898565b9150620014be60c0890162001249565b905092959891949750929550565b600080600080600060a08688031215620014e557600080fd5b8535620014f28162001898565b9450602086013567ffffffffffffffff808211156200151057600080fd5b6200151e89838a016200125b565b955060408801359150808211156200153557600080fd5b6200154389838a016200125b565b94506060880135935060808801359150808211156200156157600080fd5b5062001570888289016200125b565b9150509295509295909350565b6000602082840312156200159057600080fd5b5035919050565b600060208284031215620015aa57600080fd5b5051919050565b6000815180845260005b81811015620015d957602081850181015186830182015201620015bb565b81811115620015ec576000602083870101525b50601f01601f19169290920160200192915050565b6000610100600160a060020a03808c168452808b1660208501528160408501526200162f8285018b620015b1565b9150838203606085015262001645828a620015b1565b915083820360808501526200165b8289620015b1565b60a085019790975294851660c08401525050911660e09091015295945050505050565b600160a060020a038716815260c060208201526000620016a260c0830188620015b1565b8281036040840152620016b68188620015b1565b905060098610620016da5760e060020a634e487b7102600052602160045260246000fd5b8560608401528281036080840152620016f48186620015b1565b91505082151560a0830152979650505050505050565b60c0815260006200171f60c0830189620015b1565b8281036020840152620017338189620015b1565b90508281036040840152620017498188620015b1565b60608401969096525050600160a060020a039283166080820152911660a0909101529392505050565b60208082526004908201527f4f41434300000000000000000000000000000000000000000000000000000000604082015260600190565b60208082526004908201527f4f4d434300000000000000000000000000000000000000000000000000000000604082015260600190565b600281046001821680620017f557607f821691505b602082108114156200181a5760e060020a634e487b7102600052602260045260246000fd5b50919050565b6000600019821415620018465760e060020a634e487b7102600052601160045260246000fd5b5060010190565b60e060020a634e487b7102600052602160045260246000fd5b60e060020a634e487b7102600052603260045260246000fd5b60e060020a634e487b7102600052604160045260246000fd5b600160a060020a038116811462000a3757600080fdfe60806040523480156200001157600080fd5b5060405162001027380380620010278339810160408190526200003491620002bb565b60008054600160a060020a03808b16600160a060020a03199283161790925560068054928a1692821692909217909155600180549091163017905585516200008490600290602089019062000141565b5084516200009a90600390602088019062000141565b508351620000b090600490602087019062000141565b5060059290925560078054600160a060020a0319908116600160a060020a03938416179091556008805490911692821692909217909155600a8054600160a860020a03191696909116959095179094555050600b8054600181018255600091909152437f0175b7a638427703f0dbe7bb9bbf987a2551717b34e79f33b5b1008d1fa01db99091015550620004269050565b8280546200014f90620003a1565b90600052602060002090601f016020900481019282620001735760008555620001be565b82601f106200018e57805160ff1916838001178555620001be565b82800160010185558215620001be579182015b82811115620001be578251825591602001919060010190620001a1565b50620001cc929150620001d0565b5090565b5b80821115620001cc5760008155600101620001d1565b8051600160a060020a0381168114620001ff57600080fd5b919050565b600082601f8301126200021657600080fd5b81516001604060020a0380821115620002335762000233620003f7565b604051601f8301601f19908116603f011681019082821181831017156200025e576200025e620003f7565b816040528381526020925086838588010111156200027b57600080fd5b600091505b838210156200029f578582018301518183018401529082019062000280565b83821115620002b15760008385830101525b9695505050505050565b600080600080600080600080610100898b031215620002d957600080fd5b620002e489620001e7565b9750620002f460208a01620001e7565b965060408901516001604060020a03808211156200031157600080fd5b6200031f8c838d0162000204565b975060608b01519150808211156200033657600080fd5b620003448c838d0162000204565b965060808b01519150808211156200035b57600080fd5b506200036a8b828c0162000204565b94505060a089015192506200038260c08a01620001e7565b91506200039260e08a01620001e7565b90509295985092959890939650565b600281046001821680620003b657607f821691505b60208210811415620003f1577f4e487b7100000000000000000000000000000000000000000000000000000000600052602260045260246000fd5b50919050565b7f4e487b7100000000000000000000000000000000000000000000000000000000600052604160045260246000fd5b610bf180620004366000396000f3fe608060405234801561001057600080fd5b50600436106100bb576000357c0100000000000000000000000000000000000000000000000000000000900480638915a8fa116100835780638915a8fa1461014a578063a3791bb31461015d578063a761dc4f14610170578063b25373c914610178578063df1f41c81461018b57600080fd5b806340019e5d146100c057806355309891146100ea578063644754d514610109578063678dd1181461011357806373b037db14610134575b600080fd5b600154600160a060020a03165b604051600160a060020a0390911681526020015b60405180910390f35b6100f2610193565b6040516100e19b9a99989796959493929190610a5e565b610111610417565b005b600a546101279060a060020a900460ff1681565b6040516100e19190610b00565b61013c6104ec565b6040519081526020016100e1565b610111610158366004610924565b610512565b61011161016b366004610902565b610592565b61011161068a565b6001546100cd90600160a060020a031681565b610111610725565b600154600a54600654600554600754600854600095869560609586958695899586958695869586958b95600160a060020a03948516958585169560029560039560049590831694909390831692169060a060020a900460ff16858111156101fc576101fc610b69565b600b88805461020a90610b2b565b80601f016020809104026020016040519081016040528092919081815260200182805461023690610b2b565b80156102835780601f1061025857610100808354040283529160200191610283565b820191906000526020600020905b81548152906001019060200180831161026657829003601f168201915b5050505050985087805461029690610b2b565b80601f01602080910402602001604051908101604052809291908181526020018280546102c290610b2b565b801561030f5780601f106102e45761010080835404028352916020019161030f565b820191906000526020600020905b8154815290600101906020018083116102f257829003601f168201915b5050505050975086805461032290610b2b565b80601f016020809104026020016040519081016040528092919081815260200182805461034e90610b2b565b801561039b5780601f106103705761010080835404028352916020019161039b565b820191906000526020600020905b81548152906001019060200180831161037e57829003601f168201915b50505050509650808054806020026020016040519081016040528092919081815260200182805480156103ed57602002820191906000526020600020905b8154815260200190600101908083116103d9575b505050505090509a509a509a509a509a509a509a509a509a509a509a50909192939495969798999a565b6000600a5460a060020a900460ff16600481111561043757610437610b69565b1461048c5760405160e560020a62461bcd02815260206004820152600b60248201527f4d5f4d5553545f41545f4d00000000000000000000000000000000000000000060448201526064015b60405180910390fd5b600b80546001818101835560009290925243600080516020610b9c833981519152909101555b600a805474ff0000000000000000000000000000000000000000191660a060020a8360048111156104e5576104e5610b69565b0217905550565b600a5460009060a060020a900460ff16600481111561050d5761050d610b69565b905090565b84516105259060029060208801906107c0565b5085516105399060039060208901906107c0565b50835161054d9060049060208701906107c0565b5060059290925560078054600160a060020a0392831673ffffffffffffffffffffffffffffffffffffffff199182161790915560088054929093169116179055505050565b6002600a5460a060020a900460ff1660048111156105b2576105b2610b69565b146106025760405160e560020a62461bcd02815260206004820152600b60248201527f4d5f4d5553545f41545f440000000000000000000000000000000000000000006044820152606401610483565b600b805460018101825560009190915243600080516020610b9c83398151915290910155600a805474ff00000000000000000000000000000000000000001916740300000000000000000000000000000000000000001790556009805473ffffffffffffffffffffffffffffffffffffffff1916600160a060020a0392909216919091179055565b6001600a5460a060020a900460ff1660048111156106aa576106aa610b69565b146106fa5760405160e560020a62461bcd02815260206004820152600b60248201527f4d5f4d5553545f41545f440000000000000000000000000000000000000000006044820152606401610483565b600b805460018101825560009190915243600080516020610b9c8339815191529091015560026104b2565b6003600a5460a060020a900460ff16600481111561074557610745610b69565b146107955760405160e560020a62461bcd02815260206004820152600b60248201527f4d5f4d5553545f41545f500000000000000000000000000000000000000000006044820152606401610483565b600b805460018101825560009190915243600080516020610b9c8339815191529091015560046104b2565b8280546107cc90610b2b565b90600052602060002090601f0160209004810192826107ee5760008555610834565b82601f1061080757805160ff1916838001178555610834565b82800160010185558215610834579182015b82811115610834578251825591602001919060010190610819565b50610840929150610844565b5090565b5b808211156108405760008155600101610845565b8035600160a060020a038116811461087057600080fd5b919050565b600082601f83011261088657600080fd5b813567ffffffffffffffff808211156108a1576108a1610b82565b604051601f8301601f19908116603f011681019082821181831017156108c9576108c9610b82565b816040528381528660208588010111156108e257600080fd5b836020870160208301376000602085830101528094505050505092915050565b60006020828403121561091457600080fd5b61091d82610859565b9392505050565b60008060008060008060c0878903121561093d57600080fd5b863567ffffffffffffffff8082111561095557600080fd5b6109618a838b01610875565b9750602089013591508082111561097757600080fd5b6109838a838b01610875565b9650604089013591508082111561099957600080fd5b506109a689828a01610875565b945050606087013592506109bc60808801610859565b91506109ca60a08801610859565b90509295509295509295565b600081518084526020808501945080840160005b83811015610a06578151875295820195908201906001016109ea565b509495945050505050565b6000815180845260005b81811015610a3757602081850181015186830182015201610a1b565b81811115610a49576000602083870101525b50601f01601f19169290920160200192915050565b6000610160600160a060020a03808f168452808e166020850152816040850152610a8a8285018e610a11565b91508382036060850152610a9e828d610a11565b91508382036080850152610ab2828c610a11565b9150808a1660a08501528860c085015280881660e08501528087166101008501525084610120840152828103610140840152610aee81856109d6565b9e9d5050505050505050505050505050565b6020810160058310610b255760e060020a634e487b7102600052602160045260246000fd5b91905290565b600281046001821680610b3f57607f821691505b60208210811415610b635760e060020a634e487b7102600052602260045260246000fd5b50919050565b60e060020a634e487b7102600052602160045260246000fd5b60e060020a634e487b7102600052604160045260246000fdfe0175b7a638427703f0dbe7bb9bbf987a2551717b34e79f33b5b1008d1fa01db9a2646970667358221220b16ffef191f0e37aae4b42cb59a00f8c25c631cf8d9e10f27bfd0d5d239584a064736f6c63430008060033a26469706673582212204b236b5a03c76792ed9095d9f29bc3d2b92c933a46a1bf8c4f8bf3af6d7e0e5d64736f6c63430008060033",
  "immutableReferences": {},
  "source": "// SPDX-License-Identifier: MIT\r\npragma solidity >=0.4.22 <0.9.0;\r\npragma experimental ABIEncoderV2;\r\n\r\nimport \"./User.sol\";\r\nimport \"./RawMaterials.sol\";\r\nimport \"./Medicine.sol\";\r\n\r\ncontract Manufacturer is User {\r\n    mapping(address => address[]) MedicinesManufactured;\r\n    mapping(address => address[]) MedicineBatchShipmentList;\r\n    address[] public TotalMedicineBatchesShipped;\r\n\r\n    event MedicinePackageInitialize(address indexed MedicineID);\r\n\r\n    modifier onlyManufacturer {\r\n        require(\r\n            UsersDetails[msg.sender].userRole == roles.manufacturer,\r\n            \"OMCC\"\r\n        ); //Only Manufacturer can call this function.\r\n        _;\r\n    }\r\n\r\n    //Recieve & update raw material package shippment status for supplied package ID by tagged/associated receiver/manufacturer. Update RawMaterialPackagesReceivedAtManufacturer mapping\r\n    //@param _packageID Material/Package/batch ID Address\r\n    function updateRecievedRawMaterialPackageStatus(address _materialId)\r\n        private\r\n    {\r\n        RawMaterials(_materialId).UpdatePackageStatusOnReceived();\r\n    }\r\n\r\n    //Initialize Medicine batch with required details, transporter & distributor. Emit event with new package details.\r\n    //@param _materialID Raw Material information Address\r\n    //@param _desc Medicine description String\r\n    //@param _medicineName Medicine name String\r\n    //@param _quantity Medicine Quantity Uint\r\n    //@param _transporter Transporter/Shipper Address\r\n    //@param _distributor Reciever/Distributor Address\r\n    function createMedicinePackage(\r\n        address _materialId,\r\n        string memory _medicineName,\r\n        string memory _location,\r\n        string memory _desc,\r\n        uint256 _quantity,\r\n        address _transporter,\r\n        address _distributor\r\n    ) public onlyManufacturer {\r\n        updateRecievedRawMaterialPackageStatus(_materialId);\r\n        Medicine medicineData = new Medicine(\r\n            msg.sender,\r\n            _materialId,\r\n            _desc,\r\n            _medicineName,\r\n            _location,\r\n            _quantity,\r\n            _transporter,\r\n            _distributor\r\n        );\r\n        //populate medicine ID\r\n        address _medicineID = medicineData.medicineId();\r\n        //Push medicine address to list registered by manudacturer\r\n        MedicinesManufactured[msg.sender].push(address(medicineData));\r\n        //Emit event after medicine registration\r\n        emit MedicinePackageInitialize(_medicineID);\r\n    }\r\n\r\n    function updateMedicineBatch(\r\n        address _medicineID,\r\n        string memory _medicineName,\r\n        string memory _location,\r\n        string memory _desc,\r\n        uint256 _quantity,\r\n        address _transporter,\r\n        address _distributor\r\n    ) public onlyManufacturer {\r\n        Medicine(_medicineID).updateMedicineBatchDetails(\r\n            _medicineName,\r\n            _desc,\r\n            _location,\r\n            _quantity,\r\n            _transporter,\r\n            _distributor\r\n        );\r\n    }\r\n\r\n    //Load & ship medicine batch from manufacturer to ditributor. Only manufacturer call this.\r\n    function loadAndShipMedicineBatch(address _medicineID, address _distributor)\r\n        public\r\n        onlyManufacturer\r\n    {\r\n        Medicine(_medicineID).pickMedicinePackageForDistributor();\r\n        if (Medicine(_medicineID).getMedicineStatus() == 1) {\r\n            MedicineBatchShipmentList[_distributor].push(_medicineID);\r\n        }\r\n    }\r\n\r\n    function getTotalMedicineBatchesShippedCount(address _distributor)\r\n        public\r\n        view\r\n        returns (uint256)\r\n    {\r\n        return MedicineBatchShipmentList[_distributor].length;\r\n    }\r\n}\r\n",
  "sourcePath": "C:\\Development\\Blockchain\\Learning-2\\contracts\\Manufacturer.sol",
  "compiler": {
    "name": "solc",
    "version": "0.8.6+commit.11564f7e.Emscripten.clang"
  },
  "schemaVersion": "3.4.1",
  "updatedAt": "2021-07-30T15:10:34.451Z",
  "devdoc": {
    "kind": "dev",
    "methods": {},
    "version": 1
  },
  "userdoc": {
    "kind": "user",
    "methods": {},
    "version": 1
  }
}