{
  "contractName": "MedicineDP",
  "abi": [
    {
      "inputs": [
        {
          "internalType": "address",
          "name": "_medicineID",
          "type": "address"
        },
        {
          "internalType": "address",
          "name": "_distributor",
          "type": "address"
        },
        {
          "internalType": "address",
          "name": "_shipper",
          "type": "address"
        },
        {
          "internalType": "address",
          "name": "_pharma",
          "type": "address"
        }
      ],
      "stateMutability": "nonpayable",
      "type": "constructor"
    },
    {
      "inputs": [],
      "name": "medicineID",
      "outputs": [
        {
          "internalType": "address",
          "name": "",
          "type": "address"
        }
      ],
      "stateMutability": "view",
      "type": "function"
    },
    {
      "inputs": [],
      "name": "packageStatus",
      "outputs": [
        {
          "internalType": "enum MedicineDP.status",
          "name": "",
          "type": "uint8"
        }
      ],
      "stateMutability": "view",
      "type": "function"
    },
    {
      "inputs": [
        {
          "internalType": "address",
          "name": "_medicineID",
          "type": "address"
        },
        {
          "internalType": "address",
          "name": "_shipper",
          "type": "address"
        }
      ],
      "name": "pickPackageDP",
      "outputs": [],
      "stateMutability": "nonpayable",
      "type": "function"
    },
    {
      "inputs": [
        {
          "internalType": "address",
          "name": "_medicineID",
          "type": "address"
        },
        {
          "internalType": "address",
          "name": "_receiver",
          "type": "address"
        }
      ],
      "name": "receivedPackageDP",
      "outputs": [],
      "stateMutability": "nonpayable",
      "type": "function"
    }
  ],
  "bytecode": "0x608060405234801561001057600080fd5b506040516105bb3803806105bb83398101604081905261002f916100e0565b60008054600160a060020a0319908116600160a060020a038681169182178455600180548416898316179055600380548416909217909155600480548316858316179055600280549092169085161790556004805460a060020a60ff021916740100000000000000000000000000000000000000008360028111156100b6576100b6610134565b021790555050505050610163565b8051600160a060020a03811681146100db57600080fd5b919050565b600080600080608085870312156100f657600080fd5b6100ff856100c4565b935061010d602086016100c4565b925061011b604086016100c4565b9150610129606086016100c4565b905092959194509250565b7f4e487b7100000000000000000000000000000000000000000000000000000000600052602160045260246000fd5b610449806101726000396000f3fe608060405234801561001057600080fd5b506004361061004f5760e060020a6000350463662a68528114610054578063678dd11814610069578063b12144cb14610093578063e3837b04146100a6575b600080fd5b610067610062366004610386565b6100c6565b005b60045461007d9060a060020a900460ff1681565b60405161008a91906103cd565b60405180910390f35b6100676100a1366004610386565b610226565b6001546100b990600160a060020a031681565b60405161008a91906103b9565b600454600160a060020a038281169116146101165760405160e560020a62461bcd028152602060048201526005602482015260d860020a644f525043430260448201526064015b60405180910390fd5b600160045460a060020a900460ff166002811115610136576101366103f9565b146101aa5760405160e560020a62461bcd02815260206004820152603860248201527f4d65646963696e65207061636b616765206d75737420626520617420706861726044820152604160020a7736b0903132b337b9329039ba30ba3ab9903ab83230ba329702606482015260840161010d565b6004805460a160020a60a060020a60ff0219821617825560405160e060020a63b0323d63028152600160a060020a038581169363b0323d63936101f093921691016103b9565b600060405180830381600087803b15801561020a57600080fd5b505af115801561021e573d6000803e3d6000fd5b505050505050565b600254600160a060020a038281169116146102725760405160e560020a62461bcd02815260040161010d90602080825260049082015260e060020a634f53434302604082015260600190565b600060045460a060020a900460ff166002811115610292576102926103f9565b146103175760405160e560020a62461bcd02815260206004820152604360248201527f4d65646963696e65207061636b616765206d757374206265206174206469737460448201527f72696275746f72206265666f72652073686970706d656e7420746f2070686172606482015260e960020a6236b09702608482015260a40161010d565b6004805460a060020a60a060020a60ff0219821617825560405160e660020a630233ab91028152600160a060020a0384811693820193909352908216602482015290831690638ceae440906044016101f0565b8035600160a060020a038116811461038157600080fd5b919050565b6000806040838503121561039957600080fd5b6103a28361036a565b91506103b06020840161036a565b90509250929050565b600160a060020a0391909116815260200190565b60208101600383106103f35760e060020a634e487b710260009081526021600452602490fd5b91905290565b60e060020a634e487b710260009081526021600452602490fdfea26469706673582212200b2ccddc66f184974cd29f18ac978f52ec4abc3999d03d0be5e6f3138cb3b0c164736f6c63430008060033",
  "immutableReferences": {},
  "source": "// SPDX-License-Identifier: MIT\r\npragma solidity >=0.4.22 <0.9.0;\r\npragma experimental ABIEncoderV2;\r\n\r\nimport \"./Medicine.sol\";\r\n\r\n/**************************************************\r\n * TransporterType\r\n * 1 - Supplier to Manufacturer\r\n * 2 - Manufacturer to Distributor\r\n * 3 - Distributor to Pharma\r\n **************************************************/\r\n\r\ncontract MedicineDP {\r\n    address owner;\r\n\r\n    enum status {\r\n        atCreator,\r\n        picked,\r\n        delivered\r\n    }\r\n\r\n    //Medicine id\r\n    address public medicineID;\r\n    //Medicine shipper/transporter\r\n    address shipper;\r\n    //Medicine distributor/sender\r\n    address distributor;\r\n    //Medicine at Pharmaceutical/reciever\r\n    address pharma;\r\n    //medicine package status\r\n    status public packageStatus;\r\n\r\n    //Initiate new Medicine package by manufacturer with necessary details.\r\n    constructor(\r\n        address _medicineID,\r\n        address _distributor, //sender\r\n        address _shipper,\r\n        address _pharma // receiver\r\n    ) {\r\n        owner = _distributor;\r\n        medicineID = _medicineID;\r\n        distributor = _distributor;\r\n        pharma = _pharma;\r\n        shipper = _shipper;\r\n        packageStatus = status(0);\r\n    }\r\n\r\n    //Pick medicine package/batch for transferring Dist to Pharma by Shipper/Transporter. Only Shipper/Transporter can call this.\r\n    //@param _medicineID Medicine Batch/Package ID Address\r\n    //@param _shipper Registered Shipper/Transporter user Address\r\n    function pickPackageDP(address _medicineID, address _shipper) public {\r\n        require(_shipper == shipper, \"OSCC\"); //Only tagged shipper can call this.\r\n        require(\r\n            packageStatus == status(0),\r\n            \"Medicine package must be at distributor before shippment to pharma.\"\r\n        );\r\n        packageStatus = status(1);\r\n        Medicine(_medicineID).pickMedicinePackageForPharma(_shipper, pharma);\r\n    }\r\n\r\n    //Receive & Update medicine package/batch for tranfering Dist to Pharma by Shipper/Transporter. Only Pharma can call this.\r\n    //@param _medicineID Medicine Batch/Package ID Address\r\n    //@param _receiver Registered Pharma user Address\r\n    function receivedPackageDP(address _medicineID, address _receiver) public {\r\n        require(_receiver == pharma, \"ORPCC\"); //Only tagged reciever/pharma can call this.\r\n        require(\r\n            packageStatus == status(1),\r\n            \"Medicine package must be at pharma before status update.\"\r\n        );\r\n        packageStatus = status(2);\r\n        Medicine(_medicineID).updatePackageStatusOnReceivedByPharma(pharma);\r\n    }\r\n}\r\n",
  "sourcePath": "C:\\Development\\Blockchain\\Learning-2\\contracts\\MedicineDP.sol",
  "compiler": {
    "name": "solc",
    "version": "0.8.6+commit.11564f7e.Emscripten.clang"
  },
  "schemaVersion": "3.4.1",
  "updatedAt": "2021-07-07T13:26:47.784Z",
  "devdoc": {
    "kind": "dev",
    "methods": {},
    "version": 1
  },
  "userdoc": {
    "kind": "user",
    "methods": {},
    "version": 1
  }
}