{
  "contractName": "Medicine",
  "abi": [
    {
      "inputs": [
        {
          "internalType": "address",
          "name": "_manufacturer",
          "type": "address"
        },
        {
          "internalType": "address",
          "name": "_materialId",
          "type": "address"
        },
        {
          "internalType": "string",
          "name": "_medicineName",
          "type": "string"
        },
        {
          "internalType": "string",
          "name": "_description",
          "type": "string"
        },
        {
          "internalType": "string",
          "name": "_location",
          "type": "string"
        },
        {
          "internalType": "uint256",
          "name": "_quantity",
          "type": "uint256"
        },
        {
          "internalType": "address",
          "name": "_transporter",
          "type": "address"
        },
        {
          "internalType": "address",
          "name": "_distributor",
          "type": "address"
        },
        {
          "internalType": "address",
          "name": "_inspector",
          "type": "address"
        }
      ],
      "stateMutability": "nonpayable",
      "type": "constructor"
    },
    {
      "inputs": [],
      "name": "packageStatus",
      "outputs": [
        {
          "internalType": "enum Medicine.status",
          "name": "",
          "type": "uint8"
        }
      ],
      "stateMutability": "view",
      "type": "function"
    },
    {
      "inputs": [],
      "name": "getManufacteredMedicineDetails",
      "outputs": [
        {
          "internalType": "address",
          "name": "_medicineId",
          "type": "address"
        },
        {
          "internalType": "string",
          "name": "_medicineName",
          "type": "string"
        },
        {
          "internalType": "string",
          "name": "_description",
          "type": "string"
        },
        {
          "internalType": "string",
          "name": "_location",
          "type": "string"
        },
        {
          "components": [
            {
              "internalType": "address",
              "name": "shipper",
              "type": "address"
            },
            {
              "internalType": "address",
              "name": "distributor",
              "type": "address"
            },
            {
              "internalType": "address",
              "name": "manufacturer",
              "type": "address"
            },
            {
              "internalType": "address",
              "name": "inspector",
              "type": "address"
            }
          ],
          "internalType": "struct Medicine.Entity",
          "name": "_entity",
          "type": "tuple"
        },
        {
          "internalType": "address",
          "name": "_materialId",
          "type": "address"
        },
        {
          "internalType": "uint256",
          "name": "_quantity",
          "type": "uint256"
        },
        {
          "internalType": "uint256",
          "name": "_status",
          "type": "uint256"
        },
        {
          "internalType": "uint256[]",
          "name": "_transactionBlocks",
          "type": "uint256[]"
        }
      ],
      "stateMutability": "view",
      "type": "function"
    },
    {
      "inputs": [
        {
          "internalType": "string",
          "name": "_medicineName",
          "type": "string"
        },
        {
          "internalType": "string",
          "name": "_description",
          "type": "string"
        },
        {
          "internalType": "string",
          "name": "_location",
          "type": "string"
        },
        {
          "internalType": "uint256",
          "name": "_quantity",
          "type": "uint256"
        },
        {
          "internalType": "address",
          "name": "_shipper",
          "type": "address"
        },
        {
          "internalType": "address",
          "name": "_receiver",
          "type": "address"
        }
      ],
      "name": "updateMedicineBatchDetails",
      "outputs": [
        {
          "internalType": "bool",
          "name": "",
          "type": "bool"
        }
      ],
      "stateMutability": "nonpayable",
      "type": "function"
    },
    {
      "inputs": [],
      "name": "getMedicineInfo",
      "outputs": [
        {
          "components": [
            {
              "internalType": "address",
              "name": "medicineId",
              "type": "address"
            },
            {
              "internalType": "string",
              "name": "medicineName",
              "type": "string"
            },
            {
              "internalType": "string",
              "name": "description",
              "type": "string"
            },
            {
              "internalType": "string",
              "name": "location",
              "type": "string"
            },
            {
              "internalType": "uint256",
              "name": "quantity",
              "type": "uint256"
            }
          ],
          "internalType": "struct Medicine.MedicineInfo",
          "name": "",
          "type": "tuple"
        }
      ],
      "stateMutability": "view",
      "type": "function"
    },
    {
      "inputs": [],
      "name": "getMedicineEntity",
      "outputs": [
        {
          "components": [
            {
              "internalType": "address",
              "name": "shipper",
              "type": "address"
            },
            {
              "internalType": "address",
              "name": "distributor",
              "type": "address"
            },
            {
              "internalType": "address",
              "name": "manufacturer",
              "type": "address"
            },
            {
              "internalType": "address",
              "name": "inspector",
              "type": "address"
            }
          ],
          "internalType": "struct Medicine.Entity",
          "name": "",
          "type": "tuple"
        }
      ],
      "stateMutability": "view",
      "type": "function"
    },
    {
      "inputs": [],
      "name": "getMedicineID",
      "outputs": [
        {
          "internalType": "address",
          "name": "",
          "type": "address"
        }
      ],
      "stateMutability": "view",
      "type": "function"
    },
    {
      "inputs": [],
      "name": "getMedicineStatus",
      "outputs": [
        {
          "internalType": "uint256",
          "name": "",
          "type": "uint256"
        }
      ],
      "stateMutability": "view",
      "type": "function"
    },
    {
      "inputs": [],
      "name": "getTransactionBlocks",
      "outputs": [
        {
          "internalType": "uint256[]",
          "name": "",
          "type": "uint256[]"
        }
      ],
      "stateMutability": "view",
      "type": "function"
    },
    {
      "inputs": [],
      "name": "pickMedicinePackageForDistributor",
      "outputs": [],
      "stateMutability": "nonpayable",
      "type": "function"
    },
    {
      "inputs": [],
      "name": "updatePackageStatusOnReceivedByDistributor",
      "outputs": [],
      "stateMutability": "nonpayable",
      "type": "function"
    },
    {
      "inputs": [
        {
          "internalType": "address",
          "name": "_receiver",
          "type": "address"
        }
      ],
      "name": "pickMedicinePackageForPharma",
      "outputs": [],
      "stateMutability": "nonpayable",
      "type": "function"
    },
    {
      "inputs": [],
      "name": "updatePackageStatusOnReceivedByPharma",
      "outputs": [],
      "stateMutability": "nonpayable",
      "type": "function"
    },
    {
      "inputs": [],
      "name": "sendMedicineForInspection",
      "outputs": [
        {
          "internalType": "bool",
          "name": "",
          "type": "bool"
        }
      ],
      "stateMutability": "nonpayable",
      "type": "function"
    },
    {
      "inputs": [],
      "name": "rejectMedicineAtInspection",
      "outputs": [
        {
          "internalType": "bool",
          "name": "",
          "type": "bool"
        }
      ],
      "stateMutability": "nonpayable",
      "type": "function"
    },
    {
      "inputs": [],
      "name": "approveMedicineAtInspection",
      "outputs": [
        {
          "internalType": "bool",
          "name": "",
          "type": "bool"
        }
      ],
      "stateMutability": "nonpayable",
      "type": "function"
    },
    {
      "inputs": [],
      "name": "initiateMedicineBatchForShipment",
      "outputs": [
        {
          "internalType": "bool",
          "name": "",
          "type": "bool"
        }
      ],
      "stateMutability": "nonpayable",
      "type": "function"
    },
    {
      "inputs": [],
      "name": "deliverMedicineBatchToReceiver",
      "outputs": [
        {
          "internalType": "bool",
          "name": "",
          "type": "bool"
        }
      ],
      "stateMutability": "nonpayable",
      "type": "function"
    },
    {
      "inputs": [],
      "name": "rejectMedicineBatchAtReceiver",
      "outputs": [
        {
          "internalType": "bool",
          "name": "",
          "type": "bool"
        }
      ],
      "stateMutability": "nonpayable",
      "type": "function"
    },
    {
      "inputs": [],
      "name": "approveMedicineBatchAtReceiver",
      "outputs": [
        {
          "internalType": "bool",
          "name": "",
          "type": "bool"
        }
      ],
      "stateMutability": "nonpayable",
      "type": "function"
    }
  ],
  "bytecode": "0x60806040523480156200001157600080fd5b50604051620024ff380380620024ff833981810160405281019062000037919062000400565b87600160006101000a81548173ffffffffffffffffffffffffffffffffffffffff021916908373ffffffffffffffffffffffffffffffffffffffff16021790555030600760000160006101000a81548173ffffffffffffffffffffffffffffffffffffffff021916908373ffffffffffffffffffffffffffffffffffffffff1602179055508660076001019080519060200190620000d7929190620002a4565b508560076002019080519060200190620000f3929190620002a4565b5084600760030190805190602001906200010f929190620002a4565b508360076004018190555082600360000160006101000a81548173ffffffffffffffffffffffffffffffffffffffff021916908373ffffffffffffffffffffffffffffffffffffffff16021790555081600360010160006101000a81548173ffffffffffffffffffffffffffffffffffffffff021916908373ffffffffffffffffffffffffffffffffffffffff16021790555088600360020160006101000a81548173ffffffffffffffffffffffffffffffffffffffff021916908373ffffffffffffffffffffffffffffffffffffffff160217905550806003800160006101000a81548173ffffffffffffffffffffffffffffffffffffffff021916908373ffffffffffffffffffffffffffffffffffffffff1602179055506000600781111562000240576200023f6200067b565b5b600160146101000a81548160ff021916908360078111156200026757620002666200067b565b5b0217905550600243908060018154018082558091505060019003906000526020600020016000909190919091505550505050505050505062000761565b828054620002b2906200060f565b90600052602060002090601f016020900481019282620002d6576000855562000322565b82601f10620002f157805160ff191683800117855562000322565b8280016001018555821562000322579182015b828111156200032157825182559160200191906001019062000304565b5b50905062000331919062000335565b5090565b5b808211156200035057600081600090555060010162000336565b5090565b60006200036b620003658462000565565b6200053c565b9050828152602081018484840111156200038a57620003896200070d565b5b62000397848285620005d9565b509392505050565b600081519050620003b0816200072d565b92915050565b600082601f830112620003ce57620003cd62000708565b5b8151620003e084826020860162000354565b91505092915050565b600081519050620003fa8162000747565b92915050565b60008060008060008060008060006101208a8c03121562000426576200042562000717565b5b6000620004368c828d016200039f565b9950506020620004498c828d016200039f565b98505060408a015167ffffffffffffffff8111156200046d576200046c62000712565b5b6200047b8c828d01620003b6565b97505060608a015167ffffffffffffffff8111156200049f576200049e62000712565b5b620004ad8c828d01620003b6565b96505060808a015167ffffffffffffffff811115620004d157620004d062000712565b5b620004df8c828d01620003b6565b95505060a0620004f28c828d01620003e9565b94505060c0620005058c828d016200039f565b93505060e0620005188c828d016200039f565b9250506101006200052c8c828d016200039f565b9150509295985092959850929598565b6000620005486200055b565b905062000556828262000645565b919050565b6000604051905090565b600067ffffffffffffffff821115620005835762000582620006d9565b5b6200058e826200071c565b9050602081019050919050565b6000620005a882620005af565b9050919050565b600073ffffffffffffffffffffffffffffffffffffffff82169050919050565b6000819050919050565b60005b83811015620005f9578082015181840152602081019050620005dc565b8381111562000609576000848401525b50505050565b600060028204905060018216806200062857607f821691505b602082108114156200063f576200063e620006aa565b5b50919050565b62000650826200071c565b810181811067ffffffffffffffff82111715620006725762000671620006d9565b5b80604052505050565b7f4e487b7100000000000000000000000000000000000000000000000000000000600052602160045260246000fd5b7f4e487b7100000000000000000000000000000000000000000000000000000000600052602260045260246000fd5b7f4e487b7100000000000000000000000000000000000000000000000000000000600052604160045260246000fd5b600080fd5b600080fd5b600080fd5b600080fd5b6000601f19601f8301169050919050565b62000738816200059b565b81146200074457600080fd5b50565b6200075281620005cf565b81146200075e57600080fd5b50565b611d8e80620007716000396000f3fe608060405234801561001057600080fd5b506004361061013e576000357c0100000000000000000000000000000000000000000000000000000000900480636e3726df116100ca578063a5a226461161008e578063a5a22646146102eb578063a761dc4f14610309578063cd8a5b2e14610313578063df1f41c814610331578063e002c8a51461033b5761013e565b80636e3726df14610245578063732642101461026357806373b037db146102815780638915a8fa1461029f578063a3791bb3146102cf5761013e565b80634f2d8239116101115780634f2d8239146101bb57806353534f38146101d957806355309891146101f7578063644754d51461021d578063678dd118146102275761013e565b806312966fe61461014357806323c0d03b146101615780632ea1bb6a1461017f57806340019e5d1461019d575b600080fd5b61014b610359565b60405161015891906118e4565b60405180910390f35b61016961036c565b60405161017691906118e4565b60405180910390f35b61018761037f565b60405161019491906118e4565b60405180910390f35b6101a5610392565b6040516101b291906117fb565b60405180910390f35b6101c36103bf565b6040516101d091906118e4565b60405180910390f35b6101e16103d2565b6040516101ee91906118e4565b60405180910390f35b6101ff6103e5565b60405161021499989796959493929190611816565b60405180910390f35b6102256107f8565b005b61022f6108e8565b60405161023c91906118ff565b60405180910390f35b61024d6108fb565b60405161025a91906118e4565b60405180910390f35b61026b61090e565b604051610278919061199a565b60405180910390f35b610289610a80565b60405161029691906119d7565b60405180910390f35b6102b960048036038101906102b49190611473565b610aa9565b6040516102c691906118e4565b60405180910390f35b6102e960048036038101906102e49190611446565b610b99565b005b6102f3610ccb565b60405161030091906118e4565b60405180910390f35b610311610cde565b005b61031b610dce565b60405161032891906118c2565b60405180910390f35b610339610e26565b005b610343610f16565b60405161035091906119b5565b60405180910390f35b600061036760036001611146565b905090565b600061037a60076005611146565b905090565b600061038d60056004611146565b905090565b6000600760000160009054906101000a900473ffffffffffffffffffffffffffffffffffffffff16905090565b60006103cd60066005611146565b905090565b60006103e060016000611146565b905090565b600060608060606103f4611244565b60008060006060600760000160009054906101000a900473ffffffffffffffffffffffffffffffffffffffff166007600101600760020160076003016003600160009054906101000a900473ffffffffffffffffffffffffffffffffffffffff16600760040154600160149054906101000a900460ff16600781111561047d5761047c611bc0565b5b600287805461048b90611b5d565b80601f01602080910402602001604051908101604052809291908181526020018280546104b790611b5d565b80156105045780601f106104d957610100808354040283529160200191610504565b820191906000526020600020905b8154815290600101906020018083116104e757829003601f168201915b5050505050975086805461051790611b5d565b80601f016020809104026020016040519081016040528092919081815260200182805461054390611b5d565b80156105905780601f1061056557610100808354040283529160200191610590565b820191906000526020600020905b81548152906001019060200180831161057357829003601f168201915b505050505096508580546105a390611b5d565b80601f01602080910402602001604051908101604052809291908181526020018280546105cf90611b5d565b801561061c5780601f106105f15761010080835404028352916020019161061c565b820191906000526020600020905b8154815290600101906020018083116105ff57829003601f168201915b50505050509550846040518060800160405290816000820160009054906101000a900473ffffffffffffffffffffffffffffffffffffffff1673ffffffffffffffffffffffffffffffffffffffff1673ffffffffffffffffffffffffffffffffffffffff1681526020016001820160009054906101000a900473ffffffffffffffffffffffffffffffffffffffff1673ffffffffffffffffffffffffffffffffffffffff1673ffffffffffffffffffffffffffffffffffffffff1681526020016002820160009054906101000a900473ffffffffffffffffffffffffffffffffffffffff1673ffffffffffffffffffffffffffffffffffffffff1673ffffffffffffffffffffffffffffffffffffffff1681526020016003820160009054906101000a900473ffffffffffffffffffffffffffffffffffffffff1673ffffffffffffffffffffffffffffffffffffffff1673ffffffffffffffffffffffffffffffffffffffff16815250509450808054806020026020016040519081016040528092919081815260200182805480156107d457602002820191906000526020600020905b8154815260200190600101908083116107c0575b50505050509050985098509850985098509850985098509850909192939495969798565b6000600781111561080c5761080b611bc0565b5b600781111561081e5761081d611bc0565b5b600160149054906101000a900460ff1660078111156108405761083f611bc0565b5b14610880576040517f08c379a00000000000000000000000000000000000000000000000000000000081526004016108779061191a565b60405180910390fd5b6002439080600181540180825580915050600190039060005260206000200160009091909190915055600160078111156108bd576108bc611bc0565b5b600160146101000a81548160ff021916908360078111156108e1576108e0611bc0565b5b0217905550565b600160149054906101000a900460ff1681565b600061090960046003611146565b905090565b610916611244565b60036040518060800160405290816000820160009054906101000a900473ffffffffffffffffffffffffffffffffffffffff1673ffffffffffffffffffffffffffffffffffffffff1673ffffffffffffffffffffffffffffffffffffffff1681526020016001820160009054906101000a900473ffffffffffffffffffffffffffffffffffffffff1673ffffffffffffffffffffffffffffffffffffffff1673ffffffffffffffffffffffffffffffffffffffff1681526020016002820160009054906101000a900473ffffffffffffffffffffffffffffffffffffffff1673ffffffffffffffffffffffffffffffffffffffff1673ffffffffffffffffffffffffffffffffffffffff1681526020016003820160009054906101000a900473ffffffffffffffffffffffffffffffffffffffff1673ffffffffffffffffffffffffffffffffffffffff1673ffffffffffffffffffffffffffffffffffffffff1681525050905090565b6000600160149054906101000a900460ff166007811115610aa457610aa3611bc0565b5b905090565b60008660076001019080519060200190610ac49291906112c4565b508560076002019080519060200190610ade9291906112c4565b508460076003019080519060200190610af89291906112c4565b508360076004018190555082600360000160006101000a81548173ffffffffffffffffffffffffffffffffffffffff021916908373ffffffffffffffffffffffffffffffffffffffff16021790555081600360010160006101000a81548173ffffffffffffffffffffffffffffffffffffffff021916908373ffffffffffffffffffffffffffffffffffffffff160217905550600190509695505050505050565b60026007811115610bad57610bac611bc0565b5b6007811115610bbf57610bbe611bc0565b5b600160149054906101000a900460ff166007811115610be157610be0611bc0565b5b14610c21576040517f08c379a0000000000000000000000000000000000000000000000000000000008152600401610c189061193a565b60405180910390fd5b600243908060018154018082558091505060019003906000526020600020016000909190919091505560036007811115610c5e57610c5d611bc0565b5b600160146101000a81548160ff02191690836007811115610c8257610c81611bc0565b5b021790555080600c60006101000a81548173ffffffffffffffffffffffffffffffffffffffff021916908373ffffffffffffffffffffffffffffffffffffffff16021790555050565b6000610cd960026001611146565b905090565b60016007811115610cf257610cf1611bc0565b5b6007811115610d0457610d03611bc0565b5b600160149054906101000a900460ff166007811115610d2657610d25611bc0565b5b14610d66576040517f08c379a0000000000000000000000000000000000000000000000000000000008152600401610d5d9061193a565b60405180910390fd5b600243908060018154018082558091505060019003906000526020600020016000909190919091505560026007811115610da357610da2611bc0565b5b600160146101000a81548160ff02191690836007811115610dc757610dc6611bc0565b5b0217905550565b60606002805480602002602001604051908101604052809291908181526020018280548015610e1c57602002820191906000526020600020905b815481526020019060010190808311610e08575b5050505050905090565b60036007811115610e3a57610e39611bc0565b5b6007811115610e4c57610e4b611bc0565b5b600160149054906101000a900460ff166007811115610e6e57610e6d611bc0565b5b14610eae576040517f08c379a0000000000000000000000000000000000000000000000000000000008152600401610ea59061195a565b60405180910390fd5b600243908060018154018082558091505060019003906000526020600020016000909190919091505560046007811115610eeb57610eea611bc0565b5b600160146101000a81548160ff02191690836007811115610f0f57610f0e611bc0565b5b0217905550565b610f1e61134a565b60076040518060a00160405290816000820160009054906101000a900473ffffffffffffffffffffffffffffffffffffffff1673ffffffffffffffffffffffffffffffffffffffff1673ffffffffffffffffffffffffffffffffffffffff168152602001600182018054610f9190611b5d565b80601f0160208091040260200160405190810160405280929190818152602001828054610fbd90611b5d565b801561100a5780601f10610fdf5761010080835404028352916020019161100a565b820191906000526020600020905b815481529060010190602001808311610fed57829003601f168201915b5050505050815260200160028201805461102390611b5d565b80601f016020809104026020016040519081016040528092919081815260200182805461104f90611b5d565b801561109c5780601f106110715761010080835404028352916020019161109c565b820191906000526020600020905b81548152906001019060200180831161107f57829003601f168201915b505050505081526020016003820180546110b590611b5d565b80601f01602080910402602001604051908101604052809291908181526020018280546110e190611b5d565b801561112e5780601f106111035761010080835404028352916020019161112e565b820191906000526020600020905b81548152906001019060200180831161111157829003601f168201915b50505050508152602001600482015481525050905090565b600081600781111561115b5761115a611bc0565b5b600781111561116d5761116c611bc0565b5b600160149054906101000a900460ff16600781111561118f5761118e611bc0565b5b14156112035760024390806001815401808255809150506001900390600052602060002001600090919091909150558260078111156111d1576111d0611bc0565b5b600160146101000a81548160ff021916908360078111156111f5576111f4611bc0565b5b02179055506001905061123e565b6040517f08c379a00000000000000000000000000000000000000000000000000000000081526004016112359061197a565b60405180910390fd5b92915050565b6040518060800160405280600073ffffffffffffffffffffffffffffffffffffffff168152602001600073ffffffffffffffffffffffffffffffffffffffff168152602001600073ffffffffffffffffffffffffffffffffffffffff168152602001600073ffffffffffffffffffffffffffffffffffffffff1681525090565b8280546112d090611b5d565b90600052602060002090601f0160209004810192826112f25760008555611339565b82601f1061130b57805160ff1916838001178555611339565b82800160010185558215611339579182015b8281111561133857825182559160200191906001019061131d565b5b509050611346919061138f565b5090565b6040518060a00160405280600073ffffffffffffffffffffffffffffffffffffffff168152602001606081526020016060815260200160608152602001600081525090565b5b808211156113a8576000816000905550600101611390565b5090565b60006113bf6113ba84611a17565b6119f2565b9050828152602081018484840111156113db576113da611c52565b5b6113e6848285611b1b565b509392505050565b6000813590506113fd81611d2a565b92915050565b600082601f83011261141857611417611c4d565b5b81356114288482602086016113ac565b91505092915050565b60008135905061144081611d41565b92915050565b60006020828403121561145c5761145b611c5c565b5b600061146a848285016113ee565b91505092915050565b60008060008060008060c087890312156114905761148f611c5c565b5b600087013567ffffffffffffffff8111156114ae576114ad611c57565b5b6114ba89828a01611403565b965050602087013567ffffffffffffffff8111156114db576114da611c57565b5b6114e789828a01611403565b955050604087013567ffffffffffffffff81111561150857611507611c57565b5b61151489828a01611403565b945050606061152589828a01611431565b935050608061153689828a016113ee565b92505060a061154789828a016113ee565b9150509295509295509295565b600061156083836117dd565b60208301905092915050565b61157581611aae565b82525050565b61158481611aae565b82525050565b600061159582611a58565b61159f8185611a7b565b93506115aa83611a48565b8060005b838110156115db5781516115c28882611554565b97506115cd83611a6e565b9250506001810190506115ae565b5085935050505092915050565b6115f181611ac0565b82525050565b61160081611b09565b82525050565b600061161182611a63565b61161b8185611a8c565b935061162b818560208601611b2a565b61163481611c61565b840191505092915050565b600061164a82611a63565b6116548185611a9d565b9350611664818560208601611b2a565b61166d81611c61565b840191505092915050565b6000611685600b83611a9d565b915061169082611c72565b602082019050919050565b60006116a8600b83611a9d565b91506116b382611c9b565b602082019050919050565b60006116cb600b83611a9d565b91506116d682611cc4565b602082019050919050565b60006116ee600a83611a9d565b91506116f982611ced565b602082019050919050565b60808201600082015161171a600085018261156c565b50602082015161172d602085018261156c565b506040820151611740604085018261156c565b506060820151611753606085018261156c565b50505050565b600060a083016000830151611771600086018261156c565b50602083015184820360208601526117898282611606565b915050604083015184820360408601526117a38282611606565b915050606083015184820360608601526117bd8282611606565b91505060808301516117d260808601826117dd565b508091505092915050565b6117e681611aff565b82525050565b6117f581611aff565b82525050565b6000602082019050611810600083018461157b565b92915050565b60006101808201905061182c600083018c61157b565b818103602083015261183e818b61163f565b90508181036040830152611852818a61163f565b90508181036060830152611866818961163f565b90506118756080830188611704565b61188361010083018761157b565b6118916101208301866117ec565b61189f6101408301856117ec565b8181036101608301526118b2818461158a565b90509a9950505050505050505050565b600060208201905081810360008301526118dc818461158a565b905092915050565b60006020820190506118f960008301846115e8565b92915050565b600060208201905061191460008301846115f7565b92915050565b6000602082019050818103600083015261193381611678565b9050919050565b600060208201905081810360008301526119538161169b565b9050919050565b60006020820190508181036000830152611973816116be565b9050919050565b60006020820190508181036000830152611993816116e1565b9050919050565b60006080820190506119af6000830184611704565b92915050565b600060208201905081810360008301526119cf8184611759565b905092915050565b60006020820190506119ec60008301846117ec565b92915050565b60006119fc611a0d565b9050611a088282611b8f565b919050565b6000604051905090565b600067ffffffffffffffff821115611a3257611a31611c1e565b5b611a3b82611c61565b9050602081019050919050565b6000819050602082019050919050565b600081519050919050565b600081519050919050565b6000602082019050919050565b600082825260208201905092915050565b600082825260208201905092915050565b600082825260208201905092915050565b6000611ab982611adf565b9050919050565b60008115159050919050565b6000819050611ada82611d16565b919050565b600073ffffffffffffffffffffffffffffffffffffffff82169050919050565b6000819050919050565b6000611b1482611acc565b9050919050565b82818337600083830152505050565b60005b83811015611b48578082015181840152602081019050611b2d565b83811115611b57576000848401525b50505050565b60006002820490506001821680611b7557607f821691505b60208210811415611b8957611b88611bef565b5b50919050565b611b9882611c61565b810181811067ffffffffffffffff82111715611bb757611bb6611c1e565b5b80604052505050565b7f4e487b7100000000000000000000000000000000000000000000000000000000600052602160045260246000fd5b7f4e487b7100000000000000000000000000000000000000000000000000000000600052602260045260246000fd5b7f4e487b7100000000000000000000000000000000000000000000000000000000600052604160045260246000fd5b600080fd5b600080fd5b600080fd5b600080fd5b6000601f19601f8301169050919050565b7f4d5f4d5553545f41545f4d000000000000000000000000000000000000000000600082015250565b7f4d5f4d5553545f41545f44000000000000000000000000000000000000000000600082015250565b7f4d5f4d5553545f41545f50000000000000000000000000000000000000000000600082015250565b7f494e5f50524f4345535300000000000000000000000000000000000000000000600082015250565b60088110611d2757611d26611bc0565b5b50565b611d3381611aae565b8114611d3e57600080fd5b50565b611d4a81611aff565b8114611d5557600080fd5b5056fea2646970667358221220e07e7c633ba7cbe4612568f7c6f15ec37ce03c1ada16f9fc9fed4545bf00925764736f6c63430008070033",
  "immutableReferences": {},
  "source": "// SPDX-License-Identifier: MIT\r\npragma solidity >=0.4.22 <0.9.0;\r\npragma experimental ABIEncoderV2;\r\n\r\n/**************************************************\r\n * TransporterType\r\n * 1 - Supplier to Manufacturer\r\n * 2 - Manufacturer to Distributor\r\n * 3 - Distributor to Pharma\r\n **************************************************/\r\n\r\ncontract Medicine {\r\n    address owner;\r\n\r\n    enum status {\r\n        medicineRegistered,\r\n        sentForInspection,\r\n        rejectedByInspector,\r\n        sentForShipment,\r\n        pickedForDistributor,\r\n        deliveredAtDistributor,\r\n        rejectedByDistributor,\r\n        approvedByDistributor\r\n    }\r\n\r\n    struct MedicineInfo {\r\n        //Medicine id\r\n        address medicineId;\r\n        //Medicine name\r\n        string medicineName;\r\n        //Medicine description\r\n        string description;\r\n        //Medicine manufacturing unit location\r\n        string location;\r\n        //Medicine quantity\r\n        uint256 quantity;\r\n    }\r\n\r\n    struct Entity {\r\n        //Medicine shipper/transporter\r\n        address shipper;\r\n        //Medicine distributor\r\n        address distributor;\r\n        //Medicine manufacturer/manufacturer\r\n        address manufacturer;\r\n        //quality checker\r\n        address inspector;\r\n    }\r\n\r\n    //Raw Material information used for creating medicine\r\n    address materialId;\r\n    //medicine package status\r\n    status public packageStatus;\r\n    //transaction time\r\n    uint256[] transactionBlocks;\r\n    //Different entities\r\n    Entity entity;\r\n    //Medicine details\r\n    MedicineInfo medicineInfo;\r\n    //Medicine at Pharmaceutical\r\n    address pharma;\r\n\r\n    //Initiate new Medicine package by manufacturer with necessary details.\r\n    constructor(\r\n        address _manufacturer,\r\n        address _materialId,\r\n        string memory _medicineName,\r\n        string memory _description,\r\n        string memory _location,\r\n        uint256 _quantity,\r\n        address _transporter,\r\n        address _distributor,\r\n        address _inspector\r\n    ) {\r\n        materialId = _materialId;\r\n        medicineInfo.medicineId = address(this);\r\n        medicineInfo.medicineName = _medicineName;\r\n        medicineInfo.description = _description;\r\n        medicineInfo.location = _location;\r\n        medicineInfo.quantity = _quantity;\r\n        entity.shipper = _transporter;\r\n        entity.distributor = _distributor;\r\n        entity.manufacturer = _manufacturer;\r\n        entity.inspector = _inspector;\r\n        packageStatus = status(0);\r\n        transactionBlocks.push(block.number);\r\n    }\r\n\r\n    //Get the Medicine package details initiated using constructor\r\n    function getManufacteredMedicineDetails()\r\n        public\r\n        view\r\n        returns (\r\n            address _medicineId,\r\n            // MedicineInfo memory _medicineInfo,\r\n            string memory _medicineName,\r\n            string memory _description,\r\n            string memory _location,\r\n            Entity memory _entity,\r\n            address _materialId,\r\n            uint256 _quantity,\r\n            uint256 _status,\r\n            uint256[] memory _transactionBlocks\r\n        )\r\n    {\r\n        return (\r\n            medicineInfo.medicineId,\r\n            medicineInfo.medicineName,\r\n            medicineInfo.description,\r\n            medicineInfo.location,\r\n            entity,\r\n            materialId,\r\n            medicineInfo.quantity,\r\n            uint256(packageStatus),\r\n            transactionBlocks\r\n        );\r\n    }\r\n\r\n    function updateMedicineBatchDetails(\r\n        string memory _medicineName,\r\n        string memory _description,\r\n        string memory _location,\r\n        uint256 _quantity,\r\n        address _shipper,\r\n        address _receiver\r\n    ) public returns (bool) {\r\n        medicineInfo.medicineName = _medicineName;\r\n        medicineInfo.description = _description;\r\n        medicineInfo.location = _location;\r\n        medicineInfo.quantity = _quantity;\r\n        entity.shipper = _shipper;\r\n        entity.distributor = _receiver;\r\n        return true;\r\n    }\r\n\r\n    //get medicine info\r\n    function getMedicineInfo() public view returns (MedicineInfo memory) {\r\n        return medicineInfo;\r\n    }\r\n\r\n    //get medicine entity\r\n    function getMedicineEntity() public view returns (Entity memory) {\r\n        return entity;\r\n    }\r\n\r\n    //Get the Medicine/batch ID.\r\n    function getMedicineID() public view returns (address) {\r\n        return medicineInfo.medicineId;\r\n    }\r\n\r\n    //Get the Medicine package status.\r\n    function getMedicineStatus() public view returns (uint256) {\r\n        return uint256(packageStatus);\r\n    }\r\n\r\n    //Get the Medicine package status.\r\n    function getTransactionBlocks() public view returns (uint256[] memory) {\r\n        return transactionBlocks;\r\n    }\r\n\r\n    /************************************************************************* MANUFACTURER TO DISTRIBUTOR SHIPPMENT *************************************************************************/\r\n\r\n    //Pick & update medicine package status by tagged/associated shipper/transporter. Emit event with package details.\r\n    //@param _shipper Transporter/Shipper Address\r\n    function pickMedicinePackageForDistributor() public {\r\n        // require(_shipper == shipper, \"OSCC\"); //Only tagged shipper can call this.\r\n        require(packageStatus == status(0), \"M_MUST_AT_M\"); //\"Medicine package must be at manufacturer before shippment.\"\r\n        transactionBlocks.push(block.number);\r\n        packageStatus = status(1);\r\n        // emit ShippmentUpdate(medicineId, _shipper, distributor, 2, 1);\r\n    }\r\n\r\n    //Recieve & update medicine package status by tagged/associated receiver/distributor. Emit event with package details.\r\n    //@param _shipper Transporter/Shipper Address\r\n    function updatePackageStatusOnReceivedByDistributor() public {\r\n        // require(_receiver == distributor, \"ORDCC\"); //Only tagged reciever/distributor can call this.\r\n        require(packageStatus == status(1), \"M_MUST_AT_D\"); //Medicine package must be at distributor before status update.\r\n        transactionBlocks.push(block.number);\r\n        packageStatus = status(2);\r\n        // emit ShippmentUpdate(materialId, shipper, _receiver, 2, 2);\r\n    }\r\n\r\n    /************************************************************************* DISTRIBUTOR TO PHARMA SHIPPMENT *************************************************************************/\r\n\r\n    //Pick & update medicine package status by tagged/associated shipper/transporter. Emit event with package details.\r\n    //@param _shipper Transporter/Shipper Address\r\n    function pickMedicinePackageForPharma(address _receiver) public {\r\n        // require(_shipper == shipper, \"OSCC\"); //Only tagged shipper can call this.\r\n        require(packageStatus == status(2), \"M_MUST_AT_D\"); //\"Medicine package must be at distributor before shippment.\"\r\n        transactionBlocks.push(block.number);\r\n        packageStatus = status(3);\r\n        pharma = _receiver;\r\n        // emit ShippmentUpdate(medicineId, _shipper, pharma, 3, 3);\r\n    }\r\n\r\n    //Recieve & update medicine package status by tagged/associated receiver/pharma. Emit event with package details.\r\n    //@param _shipper Transporter/Shipper Address\r\n    function updatePackageStatusOnReceivedByPharma() public {\r\n        // require(_receiver == pharma, \"ORPCC\"); //Only tagged reciever/pharma can call this.\r\n        require(packageStatus == status(3), \"M_MUST_AT_P\"); //\"Medicine package must be at pharma before status update.\"\r\n        transactionBlocks.push(block.number);\r\n        packageStatus = status(4);\r\n        // emit ShippmentUpdate(materialId, shipper, _receiver, 3, 4);\r\n    }\r\n\r\n    //send medicine for inspection\r\n    function sendMedicineForInspection() public returns (bool) {\r\n        return updateMedicineBatchStatus(1, 0);\r\n    }\r\n\r\n    //Reject medicine by inspector\r\n    function rejectMedicineAtInspection() public returns (bool) {\r\n        return updateMedicineBatchStatus(2, 1);\r\n    }\r\n\r\n    //Approve medicine or send medicine batch for shipment to transporter by inspector\r\n    function approveMedicineAtInspection() public returns (bool) {\r\n        return updateMedicineBatchStatus(3, 1);\r\n    }\r\n\r\n    //Pick approved medicine batch for shipment by shipper\r\n    function initiateMedicineBatchForShipment() public returns (bool) {\r\n        return updateMedicineBatchStatus(4, 3);\r\n    }\r\n\r\n    //Deliver & update medicine batch by shipper\r\n    function deliverMedicineBatchToReceiver() public returns (bool) {\r\n        return updateMedicineBatchStatus(5, 4);\r\n    }\r\n\r\n    //Delivered medicine batch rejected by distributor\r\n    function rejectMedicineBatchAtReceiver() public returns (bool) {\r\n        return updateMedicineBatchStatus(6, 5);\r\n    }\r\n\r\n    //Delivered medicine batch approved by distributor\r\n    function approveMedicineBatchAtReceiver() public returns (bool) {\r\n        return updateMedicineBatchStatus(7, 5);\r\n    }\r\n\r\n    function updateMedicineBatchStatus(\r\n        uint256 _updatedStatus,\r\n        uint256 _prevStatus\r\n    ) private returns (bool) {\r\n        if (packageStatus == status(_prevStatus)) {\r\n            transactionBlocks.push(block.number);\r\n            packageStatus = status(_updatedStatus);\r\n            return true;\r\n        } else {\r\n            revert(\"IN_PROCESS\");\r\n        }\r\n    }\r\n}\r\n",
  "sourcePath": "C:\\Development\\Blockchain\\Learning-2\\contracts\\Medicine.sol",
  "compiler": {
    "name": "solc",
    "version": "0.8.7+commit.e28d00a7.Emscripten.clang"
  },
  "schemaVersion": "3.4.1",
  "updatedAt": "2021-08-14T11:11:12.188Z",
  "devdoc": {
    "kind": "dev",
    "methods": {},
    "version": 1
  },
  "userdoc": {
    "kind": "user",
    "methods": {},
    "version": 1
  }
}