{
  "contractName": "Medicine",
  "abi": [
    {
      "inputs": [
        {
          "internalType": "address",
          "name": "_manufacturer",
          "type": "address"
        },
        {
          "internalType": "address",
          "name": "_materialId",
          "type": "address"
        },
        {
          "internalType": "string",
          "name": "_description",
          "type": "string"
        },
        {
          "internalType": "string",
          "name": "_medicineName",
          "type": "string"
        },
        {
          "internalType": "uint256",
          "name": "_quantity",
          "type": "uint256"
        },
        {
          "internalType": "address",
          "name": "_shipper",
          "type": "address"
        },
        {
          "internalType": "address",
          "name": "_receiver",
          "type": "address"
        }
      ],
      "stateMutability": "nonpayable",
      "type": "constructor"
    },
    {
      "anonymous": false,
      "inputs": [
        {
          "indexed": true,
          "internalType": "address",
          "name": "BatchId",
          "type": "address"
        },
        {
          "indexed": true,
          "internalType": "address",
          "name": "Shipper",
          "type": "address"
        },
        {
          "indexed": true,
          "internalType": "address",
          "name": "Manufacturer",
          "type": "address"
        },
        {
          "indexed": false,
          "internalType": "uint256",
          "name": "TransporterType",
          "type": "uint256"
        },
        {
          "indexed": false,
          "internalType": "uint256",
          "name": "Status",
          "type": "uint256"
        }
      ],
      "name": "ShippmentUpdate",
      "type": "event"
    },
    {
      "inputs": [],
      "name": "medicineId",
      "outputs": [
        {
          "internalType": "address",
          "name": "",
          "type": "address"
        }
      ],
      "stateMutability": "view",
      "type": "function"
    },
    {
      "inputs": [],
      "name": "packageStatus",
      "outputs": [
        {
          "internalType": "enum Medicine.status",
          "name": "",
          "type": "uint8"
        }
      ],
      "stateMutability": "view",
      "type": "function"
    },
    {
      "inputs": [],
      "name": "getManufacteredMedicineDetails",
      "outputs": [
        {
          "internalType": "address",
          "name": "_manufacturer",
          "type": "address"
        },
        {
          "internalType": "string",
          "name": "_description",
          "type": "string"
        },
        {
          "internalType": "string",
          "name": "_medicineName",
          "type": "string"
        },
        {
          "internalType": "address",
          "name": "_materialID",
          "type": "address"
        },
        {
          "internalType": "uint256",
          "name": "_quantity",
          "type": "uint256"
        },
        {
          "internalType": "address",
          "name": "_shipper",
          "type": "address"
        }
      ],
      "stateMutability": "view",
      "type": "function"
    },
    {
      "inputs": [],
      "name": "getMedicineID",
      "outputs": [
        {
          "internalType": "address",
          "name": "",
          "type": "address"
        }
      ],
      "stateMutability": "view",
      "type": "function"
    },
    {
      "inputs": [],
      "name": "getMedicineStatus",
      "outputs": [
        {
          "internalType": "uint256",
          "name": "",
          "type": "uint256"
        }
      ],
      "stateMutability": "view",
      "type": "function"
    },
    {
      "inputs": [
        {
          "internalType": "address",
          "name": "_shipper",
          "type": "address"
        }
      ],
      "name": "pickMedicinePackageForDistributor",
      "outputs": [],
      "stateMutability": "nonpayable",
      "type": "function"
    },
    {
      "inputs": [
        {
          "internalType": "address",
          "name": "_receiver",
          "type": "address"
        }
      ],
      "name": "updatePackageStatusOnReceivedByDistributor",
      "outputs": [],
      "stateMutability": "nonpayable",
      "type": "function"
    },
    {
      "inputs": [
        {
          "internalType": "address",
          "name": "_shipper",
          "type": "address"
        },
        {
          "internalType": "address",
          "name": "_receiver",
          "type": "address"
        }
      ],
      "name": "pickMedicinePackageForPharma",
      "outputs": [],
      "stateMutability": "nonpayable",
      "type": "function"
    },
    {
      "inputs": [
        {
          "internalType": "address",
          "name": "_receiver",
          "type": "address"
        }
      ],
      "name": "updatePackageStatusOnReceivedByPharma",
      "outputs": [],
      "stateMutability": "nonpayable",
      "type": "function"
    }
  ],
  "bytecode": "0x60806040523480156200001157600080fd5b5060405162000c9b38038062000c9b83398101604081905262000034916200026e565b60008054600160a060020a03808a16600160a060020a03199283161790925560058054928916928216929092179091556001805490911630179055845162000084906002906020880190620000f4565b5083516200009a906003906020870190620000f4565b5060049290925560068054600160a060020a0319908116600160a060020a0393841617909155600780549091169282169290921790915560098054600160a860020a031916959091169490941790935550620003b1915050565b82805462000102906200032c565b90600052602060002090601f01602090048101928262000126576000855562000171565b82601f106200014157805160ff191683800117855562000171565b8280016001018555821562000171579182015b828111156200017157825182559160200191906001019062000154565b506200017f92915062000183565b5090565b5b808211156200017f576000815560010162000184565b8051600160a060020a0381168114620001b257600080fd5b919050565b600082601f830112620001c957600080fd5b81516001604060020a0380821115620001e657620001e662000382565b604051601f8301601f19908116603f0116810190828211818310171562000211576200021162000382565b816040528381526020925086838588010111156200022e57600080fd5b600091505b8382101562000252578582018301518183018401529082019062000233565b83821115620002645760008385830101525b9695505050505050565b600080600080600080600060e0888a0312156200028a57600080fd5b62000295886200019a565b9650620002a5602089016200019a565b955060408801516001604060020a0380821115620002c257600080fd5b620002d08b838c01620001b7565b965060608a0151915080821115620002e757600080fd5b50620002f68a828b01620001b7565b945050608088015192506200030e60a089016200019a565b91506200031e60c089016200019a565b905092959891949750929550565b6002810460018216806200034157607f821691505b602082108114156200037c577f4e487b7100000000000000000000000000000000000000000000000000000000600052602260045260246000fd5b50919050565b7f4e487b7100000000000000000000000000000000000000000000000000000000600052604160045260246000fd5b6108da80620003c16000396000f3fe608060405234801561001057600080fd5b50600436106100865760e060020a60003504633787fb3d811461008b57806340019e5d146100a057806355309891146100ca578063678dd118146100e457806373b037db146101055780638ceae4401461011b5780639a305a471461012e578063b0323d6314610141578063b25373c914610154575b600080fd5b61009e6100993660046106b0565b610167565b005b600154600160a060020a03165b604051600160a060020a0390911681526020015b60405180910390f35b6100d2610250565b6040516100c196959493929190610752565b6009546100f89060a060020a900460ff1681565b6040516100c191906107a8565b61010d6103b2565b6040519081526020016100c1565b61009e6101293660046106d2565b6103d8565b61009e61013c3660046106b0565b6104b9565b61009e61014f3660046106b0565b610599565b6001546100ad90600160a060020a031681565b600754600160a060020a038281169116146101b75760405160e560020a62461bcd028152602060048201526005602482015260d860020a644f524443430260448201526064015b60405180910390fd5b600160095460a060020a900460ff1660048111156101d7576101d761086a565b146101f75760405160e560020a62461bcd0281526004016101ae90610803565b6009805460a060020a60ff02191660a160020a179055600654600554604051600160a060020a03848116938116921690600080516020610885833981519152906102459060029081906107d4565b60405180910390a450565b600954600554600454600654600280546000956060958695889586958695600160a060020a03958616959194600394908316939092169085906102929061082b565b80601f01602080910402602001604051908101604052809291908181526020018280546102be9061082b565b801561030b5780601f106102e05761010080835404028352916020019161030b565b820191906000526020600020905b8154815290600101906020018083116102ee57829003601f168201915b5050505050945083805461031e9061082b565b80601f016020809104026020016040519081016040528092919081815260200182805461034a9061082b565b80156103975780601f1061036c57610100808354040283529160200191610397565b820191906000526020600020905b81548152906001019060200180831161037a57829003601f168201915b50505050509350955095509550955095509550909192939495565b60095460009060a060020a900460ff1660048111156103d3576103d361086a565b905090565b600654600160a060020a038381169116146104085760405160e560020a62461bcd0281526004016101ae906107e2565b600260095460a060020a900460ff1660048111156104285761042861086a565b146104485760405160e560020a62461bcd0281526004016101ae90610803565b6009805460a060020a60ff02191660a060020a60030217905560088054600160a060020a031916600160a060020a03838116918217909255600154604051919285811692911690600080516020610885833981519152906104ad9060039081906107d4565b60405180910390a45050565b600654600160a060020a038281169116146104e95760405160e560020a62461bcd0281526004016101ae906107e2565b600060095460a060020a900460ff1660048111156105095761050961086a565b1461054a5760405160e560020a62461bcd02815260206004820152600b602482015260a860020a6a4d5f4d5553545f41545f4d0260448201526064016101ae565b6009805460a060020a60ff02191660a060020a17905560075460018054604051600160a060020a03938416938581169392169160008051602061088583398151915291610245916002916107d4565b600854600160a060020a038281169116146105e45760405160e560020a62461bcd028152602060048201526005602482015260d860020a644f525043430260448201526064016101ae565b600360095460a060020a900460ff1660048111156106045761060461086a565b146106455760405160e560020a62461bcd02815260206004820152600b602482015260ac60020a6a04d5f4d5553545f41545f50260448201526064016101ae565b6009805460a060020a60ff02191660a260020a179055600654600554604051600160a060020a0384811693811692169060008051602061088583398151915290610245906003906004906107d4565b8035600160a060020a03811681146106ab57600080fd5b919050565b6000602082840312156106c257600080fd5b6106cb82610694565b9392505050565b600080604083850312156106e557600080fd5b6106ee83610694565b91506106fc60208401610694565b90509250929050565b6000815180845260005b8181101561072b5760208185018101518683018201520161070f565b8181111561073d576000602083870101525b50601f01601f19169290920160200192915050565b6000600160a060020a03808916835260c0602084015261077560c0840189610705565b83810360408501526107878189610705565b968216606085015250608083019490945250911660a0909101529392505050565b60208101600583106107ce5760e060020a634e487b710260009081526021600452602490fd5b91905290565b918252602082015260400190565b602080825260049082015260e060020a634f53434302604082015260600190565b6020808252600b9082015260aa60020a6a1357d35554d517d05517d102604082015260600190565b60028104600182168061083f57607f821691505b602082108114156108645760e060020a634e487b710260009081526022600452602490fd5b50919050565b60e060020a634e487b710260009081526021600452602490fdfe7e89c4b1a4e2b51aae84eb1f90e8a34cb792ece5ac5cb63db4830c891220b28da264697066735822122072bc6a22b4e36660c9703e2699cf60424493d4328cb871b926702a2c758612f464736f6c63430008060033",
  "immutableReferences": {},
  "source": "// SPDX-License-Identifier: MIT\r\npragma solidity >=0.4.22 <0.9.0;\r\npragma experimental ABIEncoderV2;\r\n\r\n/**************************************************\r\n * TransporterType\r\n * 1 - Supplier to Manufacturer\r\n * 2 - Manufacturer to Distributor\r\n * 3 - Distributor to Pharma\r\n **************************************************/\r\n\r\ncontract Medicine {\r\n    address owner;\r\n\r\n    enum status {\r\n        atManufacturer,\r\n        pickedForDistributor,\r\n        deliveredAtDistributor,\r\n        pickedForPharma,\r\n        deliveredAtPharma\r\n    }\r\n\r\n    //Medicine id\r\n    address public medicineId;\r\n    //Medicine description\r\n    string description;\r\n    //Medicine name\r\n    string medicineName;\r\n    //Medicine quantity\r\n    uint256 quantity;\r\n    //Raw Material information used for creating medicine\r\n    address materialId;\r\n    //Medicine shipper/transporter\r\n    address shipper;\r\n    //Medicine distributor\r\n    address distributor;\r\n    //Medicine at Pharmaceutical\r\n    address pharma;\r\n    //Medicine manufacturer/manufacturer\r\n    address manufacturer;\r\n    //medicine package status\r\n    status public packageStatus;\r\n\r\n    event ShippmentUpdate(\r\n        address indexed BatchId,\r\n        address indexed Shipper,\r\n        address indexed Manufacturer,\r\n        uint256 TransporterType,\r\n        uint256 Status\r\n    );\r\n\r\n    //Initiate new Medicine package by manufacturer with necessary details.\r\n    constructor(\r\n        address _manufacturer,\r\n        address _materialId,\r\n        string memory _description,\r\n        string memory _medicineName,\r\n        uint256 _quantity,\r\n        address _shipper,\r\n        address _receiver\r\n    ) {\r\n        owner = _manufacturer;\r\n        materialId = _materialId;\r\n        medicineId = address(this);\r\n        description = _description;\r\n        medicineName = _medicineName;\r\n        quantity = _quantity;\r\n        shipper = _shipper;\r\n        distributor = _receiver;\r\n        manufacturer = _manufacturer;\r\n        shipper = _shipper;\r\n        packageStatus = status(0);\r\n    }\r\n\r\n    //Get the Medicine package details initiated using constructor\r\n    function getManufacteredMedicineDetails()\r\n        public\r\n        view\r\n        returns (\r\n            address _manufacturer,\r\n            string memory _description,\r\n            string memory _medicineName,\r\n            address _materialID,\r\n            uint256 _quantity,\r\n            address _shipper\r\n        )\r\n    {\r\n        return (\r\n            manufacturer,\r\n            description,\r\n            medicineName,\r\n            materialId,\r\n            quantity,\r\n            shipper\r\n        );\r\n    }\r\n\r\n    //Get the Medicine/batch ID.\r\n    function getMedicineID() public view returns (address) {\r\n        return medicineId;\r\n    }\r\n\r\n    //Get the Medicine package status.\r\n    function getMedicineStatus() public view returns (uint256) {\r\n        return uint256(packageStatus);\r\n    }\r\n\r\n    /************************************************************************* MANUFACTURER TO DISTRIBUTOR SHIPPMENT *************************************************************************/\r\n\r\n    //Pick & update medicine package status by tagged/associated shipper/transporter. Emit event with package details.\r\n    //@param _shipper Transporter/Shipper Address\r\n    function pickMedicinePackageForDistributor(address _shipper) public {\r\n        require(_shipper == shipper, \"OSCC\"); //Only tagged shipper can call this.\r\n        require(packageStatus == status(0), \"M_MUST_AT_M\"); //\"Medicine package must be at manufacturer before shippment.\"\r\n        packageStatus = status(1);\r\n        emit ShippmentUpdate(medicineId, _shipper, distributor, 2, 1);\r\n    }\r\n\r\n    //Recieve & update medicine package status by tagged/associated receiver/distributor. Emit event with package details.\r\n    //@param _shipper Transporter/Shipper Address\r\n    function updatePackageStatusOnReceivedByDistributor(address _receiver)\r\n        public\r\n    {\r\n        require(_receiver == distributor, \"ORDCC\"); //Only tagged reciever/distributor can call this.\r\n        require(packageStatus == status(1), \"M_MUST_AT_D\"); //Medicine package must be at distributor before status update.\r\n        packageStatus = status(2);\r\n        emit ShippmentUpdate(materialId, shipper, _receiver, 2, 2);\r\n    }\r\n\r\n    /************************************************************************* DISTRIBUTOR TO PHARMA SHIPPMENT *************************************************************************/\r\n\r\n    //Pick & update medicine package status by tagged/associated shipper/transporter. Emit event with package details.\r\n    //@param _shipper Transporter/Shipper Address\r\n    function pickMedicinePackageForPharma(address _shipper, address _receiver)\r\n        public\r\n    {\r\n        require(_shipper == shipper, \"OSCC\"); //Only tagged shipper can call this.\r\n        require(packageStatus == status(2), \"M_MUST_AT_D\"); //\"Medicine package must be at distributor before shippment.\"\r\n        packageStatus = status(3);\r\n        pharma = _receiver;\r\n        emit ShippmentUpdate(medicineId, _shipper, pharma, 3, 3);\r\n    }\r\n\r\n    //Recieve & update medicine package status by tagged/associated receiver/pharma. Emit event with package details.\r\n    //@param _shipper Transporter/Shipper Address\r\n    function updatePackageStatusOnReceivedByPharma(address _receiver) public {\r\n        require(_receiver == pharma, \"ORPCC\"); //Only tagged reciever/pharma can call this.\r\n        require(packageStatus == status(3), \"M_MUST_AT_P\"); //\"Medicine package must be at pharma before status update.\"\r\n        packageStatus = status(4);\r\n        emit ShippmentUpdate(materialId, shipper, _receiver, 3, 4);\r\n    }\r\n}\r\n",
  "sourcePath": "C:\\Development\\Blockchain\\Learning-2\\contracts\\Medicine.sol",
  "compiler": {
    "name": "solc",
    "version": "0.8.6+commit.11564f7e.Emscripten.clang"
  },
  "schemaVersion": "3.4.1",
  "updatedAt": "2021-07-07T13:26:47.771Z",
  "devdoc": {
    "kind": "dev",
    "methods": {},
    "version": 1
  },
  "userdoc": {
    "kind": "user",
    "methods": {},
    "version": 1
  }
}