{
  "contractName": "Medicine",
  "abi": [
    {
      "inputs": [
        {
          "internalType": "address",
          "name": "_manufacturer",
          "type": "address"
        },
        {
          "internalType": "address",
          "name": "_materialId",
          "type": "address"
        },
        {
          "internalType": "string",
          "name": "_description",
          "type": "string"
        },
        {
          "internalType": "string",
          "name": "_medicineName",
          "type": "string"
        },
        {
          "internalType": "string",
          "name": "_location",
          "type": "string"
        },
        {
          "internalType": "uint256",
          "name": "_quantity",
          "type": "uint256"
        },
        {
          "internalType": "address",
          "name": "_shipper",
          "type": "address"
        },
        {
          "internalType": "address",
          "name": "_receiver",
          "type": "address"
        }
      ],
      "stateMutability": "nonpayable",
      "type": "constructor"
    },
    {
      "inputs": [],
      "name": "medicineId",
      "outputs": [
        {
          "internalType": "address",
          "name": "",
          "type": "address"
        }
      ],
      "stateMutability": "view",
      "type": "function"
    },
    {
      "inputs": [],
      "name": "packageStatus",
      "outputs": [
        {
          "internalType": "enum Medicine.status",
          "name": "",
          "type": "uint8"
        }
      ],
      "stateMutability": "view",
      "type": "function"
    },
    {
      "inputs": [],
      "name": "getManufacteredMedicineDetails",
      "outputs": [
        {
          "internalType": "address",
          "name": "_medicineId",
          "type": "address"
        },
        {
          "internalType": "address",
          "name": "_manufacturer",
          "type": "address"
        },
        {
          "internalType": "string",
          "name": "_description",
          "type": "string"
        },
        {
          "internalType": "string",
          "name": "_medicineName",
          "type": "string"
        },
        {
          "internalType": "string",
          "name": "_location",
          "type": "string"
        },
        {
          "internalType": "address",
          "name": "_materialId",
          "type": "address"
        },
        {
          "internalType": "uint256",
          "name": "_quantity",
          "type": "uint256"
        },
        {
          "internalType": "address",
          "name": "_shipper",
          "type": "address"
        },
        {
          "internalType": "address",
          "name": "_distributor",
          "type": "address"
        },
        {
          "internalType": "uint256",
          "name": "_status",
          "type": "uint256"
        },
        {
          "internalType": "uint256[]",
          "name": "_transactionBlocks",
          "type": "uint256[]"
        }
      ],
      "stateMutability": "view",
      "type": "function"
    },
    {
      "inputs": [
        {
          "internalType": "string",
          "name": "_medicineName",
          "type": "string"
        },
        {
          "internalType": "string",
          "name": "_description",
          "type": "string"
        },
        {
          "internalType": "string",
          "name": "_location",
          "type": "string"
        },
        {
          "internalType": "uint256",
          "name": "_quantity",
          "type": "uint256"
        },
        {
          "internalType": "address",
          "name": "_shipper",
          "type": "address"
        },
        {
          "internalType": "address",
          "name": "_receiver",
          "type": "address"
        }
      ],
      "name": "updateMedicineBatchDetails",
      "outputs": [],
      "stateMutability": "nonpayable",
      "type": "function"
    },
    {
      "inputs": [],
      "name": "getMedicineID",
      "outputs": [
        {
          "internalType": "address",
          "name": "",
          "type": "address"
        }
      ],
      "stateMutability": "view",
      "type": "function"
    },
    {
      "inputs": [],
      "name": "getMedicineStatus",
      "outputs": [
        {
          "internalType": "uint256",
          "name": "",
          "type": "uint256"
        }
      ],
      "stateMutability": "view",
      "type": "function"
    },
    {
      "inputs": [],
      "name": "pickMedicinePackageForDistributor",
      "outputs": [],
      "stateMutability": "nonpayable",
      "type": "function"
    },
    {
      "inputs": [],
      "name": "updatePackageStatusOnReceivedByDistributor",
      "outputs": [],
      "stateMutability": "nonpayable",
      "type": "function"
    },
    {
      "inputs": [
        {
          "internalType": "address",
          "name": "_receiver",
          "type": "address"
        }
      ],
      "name": "pickMedicinePackageForPharma",
      "outputs": [],
      "stateMutability": "nonpayable",
      "type": "function"
    },
    {
      "inputs": [],
      "name": "updatePackageStatusOnReceivedByPharma",
      "outputs": [],
      "stateMutability": "nonpayable",
      "type": "function"
    }
  ],
  "bytecode": "0x60806040523480156200001157600080fd5b5060405162001027380380620010278339810160408190526200003491620002bb565b60008054600160a060020a03808b16600160a060020a03199283161790925560068054928a1692821692909217909155600180549091163017905585516200008490600290602089019062000141565b5084516200009a90600390602088019062000141565b508351620000b090600490602087019062000141565b5060059290925560078054600160a060020a0319908116600160a060020a03938416179091556008805490911692821692909217909155600a8054600160a860020a03191696909116959095179094555050600b8054600181018255600091909152437f0175b7a638427703f0dbe7bb9bbf987a2551717b34e79f33b5b1008d1fa01db99091015550620004269050565b8280546200014f90620003a1565b90600052602060002090601f016020900481019282620001735760008555620001be565b82601f106200018e57805160ff1916838001178555620001be565b82800160010185558215620001be579182015b82811115620001be578251825591602001919060010190620001a1565b50620001cc929150620001d0565b5090565b5b80821115620001cc5760008155600101620001d1565b8051600160a060020a0381168114620001ff57600080fd5b919050565b600082601f8301126200021657600080fd5b81516001604060020a0380821115620002335762000233620003f7565b604051601f8301601f19908116603f011681019082821181831017156200025e576200025e620003f7565b816040528381526020925086838588010111156200027b57600080fd5b600091505b838210156200029f578582018301518183018401529082019062000280565b83821115620002b15760008385830101525b9695505050505050565b600080600080600080600080610100898b031215620002d957600080fd5b620002e489620001e7565b9750620002f460208a01620001e7565b965060408901516001604060020a03808211156200031157600080fd5b6200031f8c838d0162000204565b975060608b01519150808211156200033657600080fd5b620003448c838d0162000204565b965060808b01519150808211156200035b57600080fd5b506200036a8b828c0162000204565b94505060a089015192506200038260c08a01620001e7565b91506200039260e08a01620001e7565b90509295985092959890939650565b600281046001821680620003b657607f821691505b60208210811415620003f1577f4e487b7100000000000000000000000000000000000000000000000000000000600052602260045260246000fd5b50919050565b7f4e487b7100000000000000000000000000000000000000000000000000000000600052604160045260246000fd5b610bf180620004366000396000f3fe608060405234801561001057600080fd5b50600436106100bb576000357c0100000000000000000000000000000000000000000000000000000000900480638915a8fa116100835780638915a8fa1461014a578063a3791bb31461015d578063a761dc4f14610170578063b25373c914610178578063df1f41c81461018b57600080fd5b806340019e5d146100c057806355309891146100ea578063644754d514610109578063678dd1181461011357806373b037db14610134575b600080fd5b600154600160a060020a03165b604051600160a060020a0390911681526020015b60405180910390f35b6100f2610193565b6040516100e19b9a99989796959493929190610a5e565b610111610417565b005b600a546101279060a060020a900460ff1681565b6040516100e19190610b00565b61013c6104ec565b6040519081526020016100e1565b610111610158366004610924565b610512565b61011161016b366004610902565b610592565b61011161068a565b6001546100cd90600160a060020a031681565b610111610725565b600154600a54600654600554600754600854600095869560609586958695899586958695869586958b95600160a060020a03948516958585169560029560039560049590831694909390831692169060a060020a900460ff16858111156101fc576101fc610b69565b600b88805461020a90610b2b565b80601f016020809104026020016040519081016040528092919081815260200182805461023690610b2b565b80156102835780601f1061025857610100808354040283529160200191610283565b820191906000526020600020905b81548152906001019060200180831161026657829003601f168201915b5050505050985087805461029690610b2b565b80601f01602080910402602001604051908101604052809291908181526020018280546102c290610b2b565b801561030f5780601f106102e45761010080835404028352916020019161030f565b820191906000526020600020905b8154815290600101906020018083116102f257829003601f168201915b5050505050975086805461032290610b2b565b80601f016020809104026020016040519081016040528092919081815260200182805461034e90610b2b565b801561039b5780601f106103705761010080835404028352916020019161039b565b820191906000526020600020905b81548152906001019060200180831161037e57829003601f168201915b50505050509650808054806020026020016040519081016040528092919081815260200182805480156103ed57602002820191906000526020600020905b8154815260200190600101908083116103d9575b505050505090509a509a509a509a509a509a509a509a509a509a509a50909192939495969798999a565b6000600a5460a060020a900460ff16600481111561043757610437610b69565b1461048c5760405160e560020a62461bcd02815260206004820152600b60248201527f4d5f4d5553545f41545f4d00000000000000000000000000000000000000000060448201526064015b60405180910390fd5b600b80546001818101835560009290925243600080516020610b9c833981519152909101555b600a805474ff0000000000000000000000000000000000000000191660a060020a8360048111156104e5576104e5610b69565b0217905550565b600a5460009060a060020a900460ff16600481111561050d5761050d610b69565b905090565b84516105259060029060208801906107c0565b5085516105399060039060208901906107c0565b50835161054d9060049060208701906107c0565b5060059290925560078054600160a060020a0392831673ffffffffffffffffffffffffffffffffffffffff199182161790915560088054929093169116179055505050565b6002600a5460a060020a900460ff1660048111156105b2576105b2610b69565b146106025760405160e560020a62461bcd02815260206004820152600b60248201527f4d5f4d5553545f41545f440000000000000000000000000000000000000000006044820152606401610483565b600b805460018101825560009190915243600080516020610b9c83398151915290910155600a805474ff00000000000000000000000000000000000000001916740300000000000000000000000000000000000000001790556009805473ffffffffffffffffffffffffffffffffffffffff1916600160a060020a0392909216919091179055565b6001600a5460a060020a900460ff1660048111156106aa576106aa610b69565b146106fa5760405160e560020a62461bcd02815260206004820152600b60248201527f4d5f4d5553545f41545f440000000000000000000000000000000000000000006044820152606401610483565b600b805460018101825560009190915243600080516020610b9c8339815191529091015560026104b2565b6003600a5460a060020a900460ff16600481111561074557610745610b69565b146107955760405160e560020a62461bcd02815260206004820152600b60248201527f4d5f4d5553545f41545f500000000000000000000000000000000000000000006044820152606401610483565b600b805460018101825560009190915243600080516020610b9c8339815191529091015560046104b2565b8280546107cc90610b2b565b90600052602060002090601f0160209004810192826107ee5760008555610834565b82601f1061080757805160ff1916838001178555610834565b82800160010185558215610834579182015b82811115610834578251825591602001919060010190610819565b50610840929150610844565b5090565b5b808211156108405760008155600101610845565b8035600160a060020a038116811461087057600080fd5b919050565b600082601f83011261088657600080fd5b813567ffffffffffffffff808211156108a1576108a1610b82565b604051601f8301601f19908116603f011681019082821181831017156108c9576108c9610b82565b816040528381528660208588010111156108e257600080fd5b836020870160208301376000602085830101528094505050505092915050565b60006020828403121561091457600080fd5b61091d82610859565b9392505050565b60008060008060008060c0878903121561093d57600080fd5b863567ffffffffffffffff8082111561095557600080fd5b6109618a838b01610875565b9750602089013591508082111561097757600080fd5b6109838a838b01610875565b9650604089013591508082111561099957600080fd5b506109a689828a01610875565b945050606087013592506109bc60808801610859565b91506109ca60a08801610859565b90509295509295509295565b600081518084526020808501945080840160005b83811015610a06578151875295820195908201906001016109ea565b509495945050505050565b6000815180845260005b81811015610a3757602081850181015186830182015201610a1b565b81811115610a49576000602083870101525b50601f01601f19169290920160200192915050565b6000610160600160a060020a03808f168452808e166020850152816040850152610a8a8285018e610a11565b91508382036060850152610a9e828d610a11565b91508382036080850152610ab2828c610a11565b9150808a1660a08501528860c085015280881660e08501528087166101008501525084610120840152828103610140840152610aee81856109d6565b9e9d5050505050505050505050505050565b6020810160058310610b255760e060020a634e487b7102600052602160045260246000fd5b91905290565b600281046001821680610b3f57607f821691505b60208210811415610b635760e060020a634e487b7102600052602260045260246000fd5b50919050565b60e060020a634e487b7102600052602160045260246000fd5b60e060020a634e487b7102600052604160045260246000fdfe0175b7a638427703f0dbe7bb9bbf987a2551717b34e79f33b5b1008d1fa01db9a2646970667358221220b16ffef191f0e37aae4b42cb59a00f8c25c631cf8d9e10f27bfd0d5d239584a064736f6c63430008060033",
  "immutableReferences": {},
  "source": "// SPDX-License-Identifier: MIT\r\npragma solidity >=0.4.22 <0.9.0;\r\npragma experimental ABIEncoderV2;\r\n\r\n/**************************************************\r\n * TransporterType\r\n * 1 - Supplier to Manufacturer\r\n * 2 - Manufacturer to Distributor\r\n * 3 - Distributor to Pharma\r\n **************************************************/\r\n\r\ncontract Medicine {\r\n    address owner;\r\n\r\n    enum status {\r\n        atManufacturer,\r\n        pickedForDistributor,\r\n        deliveredAtDistributor,\r\n        pickedForPharma,\r\n        deliveredAtPharma\r\n    }\r\n\r\n    //Medicine id\r\n    address public medicineId;\r\n    //Medicine description\r\n    string description;\r\n    //Medicine name\r\n    string medicineName;\r\n    //Medicine manufacturing unit location\r\n    string location;\r\n    //Medicine quantity\r\n    uint256 quantity;\r\n    //Raw Material information used for creating medicine\r\n    address materialId;\r\n    //Medicine shipper/transporter\r\n    address shipper;\r\n    //Medicine distributor\r\n    address distributor;\r\n    //Medicine at Pharmaceutical\r\n    address pharma;\r\n    //Medicine manufacturer/manufacturer\r\n    address manufacturer;\r\n    //medicine package status\r\n    status public packageStatus;\r\n    //transaction time\r\n    uint256[] transactionBlocks;\r\n\r\n    // event ShippmentUpdate(\r\n    //     address indexed BatchId,\r\n    //     address indexed Shipper,\r\n    //     address indexed Manufacturer,\r\n    //     uint256 TransporterType,\r\n    //     uint256 Status\r\n    // );\r\n\r\n    //Initiate new Medicine package by manufacturer with necessary details.\r\n    constructor(\r\n        address _manufacturer,\r\n        address _materialId,\r\n        string memory _description,\r\n        string memory _medicineName,\r\n        string memory _location,\r\n        uint256 _quantity,\r\n        address _shipper,\r\n        address _receiver\r\n    ) {\r\n        owner = _manufacturer;\r\n        materialId = _materialId;\r\n        medicineId = address(this);\r\n        description = _description;\r\n        medicineName = _medicineName;\r\n        location = _location;\r\n        quantity = _quantity;\r\n        shipper = _shipper;\r\n        distributor = _receiver;\r\n        manufacturer = _manufacturer;\r\n        shipper = _shipper;\r\n        packageStatus = status(0);\r\n        transactionBlocks.push(block.number);\r\n    }\r\n\r\n    //Get the Medicine package details initiated using constructor\r\n    function getManufacteredMedicineDetails()\r\n        public\r\n        view\r\n        returns (\r\n            address _medicineId,\r\n            address _manufacturer,\r\n            string memory _description,\r\n            string memory _medicineName,\r\n            string memory _location,\r\n            address _materialId,\r\n            uint256 _quantity,\r\n            address _shipper,\r\n            address _distributor,\r\n            uint256 _status,\r\n            uint256[] memory _transactionBlocks\r\n        )\r\n    {\r\n        return (\r\n            medicineId,\r\n            manufacturer,\r\n            description,\r\n            medicineName,\r\n            location,\r\n            materialId,\r\n            quantity,\r\n            shipper,\r\n            distributor,\r\n            uint256(packageStatus),\r\n            transactionBlocks\r\n        );\r\n    }\r\n\r\n    function updateMedicineBatchDetails(\r\n        string memory _medicineName,\r\n        string memory _description,\r\n        string memory _location,\r\n        uint256 _quantity,\r\n        address _shipper,\r\n        address _receiver\r\n    ) public {\r\n        description = _description;\r\n        medicineName = _medicineName;\r\n        location = _location;\r\n        quantity = _quantity;\r\n        shipper = _shipper;\r\n        distributor = _receiver;\r\n    }\r\n\r\n    //Get the Medicine/batch ID.\r\n    function getMedicineID() public view returns (address) {\r\n        return medicineId;\r\n    }\r\n\r\n    //Get the Medicine package status.\r\n    function getMedicineStatus() public view returns (uint256) {\r\n        return uint256(packageStatus);\r\n    }\r\n\r\n    /************************************************************************* MANUFACTURER TO DISTRIBUTOR SHIPPMENT *************************************************************************/\r\n\r\n    //Pick & update medicine package status by tagged/associated shipper/transporter. Emit event with package details.\r\n    //@param _shipper Transporter/Shipper Address\r\n    function pickMedicinePackageForDistributor() public {\r\n        // require(_shipper == shipper, \"OSCC\"); //Only tagged shipper can call this.\r\n        require(packageStatus == status(0), \"M_MUST_AT_M\"); //\"Medicine package must be at manufacturer before shippment.\"\r\n        transactionBlocks.push(block.number);\r\n        packageStatus = status(1);\r\n        // emit ShippmentUpdate(medicineId, _shipper, distributor, 2, 1);\r\n    }\r\n\r\n    //Recieve & update medicine package status by tagged/associated receiver/distributor. Emit event with package details.\r\n    //@param _shipper Transporter/Shipper Address\r\n    function updatePackageStatusOnReceivedByDistributor() public {\r\n        // require(_receiver == distributor, \"ORDCC\"); //Only tagged reciever/distributor can call this.\r\n        require(packageStatus == status(1), \"M_MUST_AT_D\"); //Medicine package must be at distributor before status update.\r\n        transactionBlocks.push(block.number);\r\n        packageStatus = status(2);\r\n        // emit ShippmentUpdate(materialId, shipper, _receiver, 2, 2);\r\n    }\r\n\r\n    /************************************************************************* DISTRIBUTOR TO PHARMA SHIPPMENT *************************************************************************/\r\n\r\n    //Pick & update medicine package status by tagged/associated shipper/transporter. Emit event with package details.\r\n    //@param _shipper Transporter/Shipper Address\r\n    function pickMedicinePackageForPharma(address _receiver) public {\r\n        // require(_shipper == shipper, \"OSCC\"); //Only tagged shipper can call this.\r\n        require(packageStatus == status(2), \"M_MUST_AT_D\"); //\"Medicine package must be at distributor before shippment.\"\r\n        transactionBlocks.push(block.number);\r\n        packageStatus = status(3);\r\n        pharma = _receiver;\r\n        // emit ShippmentUpdate(medicineId, _shipper, pharma, 3, 3);\r\n    }\r\n\r\n    //Recieve & update medicine package status by tagged/associated receiver/pharma. Emit event with package details.\r\n    //@param _shipper Transporter/Shipper Address\r\n    function updatePackageStatusOnReceivedByPharma() public {\r\n        // require(_receiver == pharma, \"ORPCC\"); //Only tagged reciever/pharma can call this.\r\n        require(packageStatus == status(3), \"M_MUST_AT_P\"); //\"Medicine package must be at pharma before status update.\"\r\n        transactionBlocks.push(block.number);\r\n        packageStatus = status(4);\r\n        // emit ShippmentUpdate(materialId, shipper, _receiver, 3, 4);\r\n    }\r\n}\r\n",
  "sourcePath": "C:\\Development\\Blockchain\\Learning-2\\contracts\\Medicine.sol",
  "compiler": {
    "name": "solc",
    "version": "0.8.6+commit.11564f7e.Emscripten.clang"
  },
  "schemaVersion": "3.4.1",
  "updatedAt": "2021-08-05T10:21:15.111Z",
  "devdoc": {
    "kind": "dev",
    "methods": {},
    "version": 1
  },
  "userdoc": {
    "kind": "user",
    "methods": {},
    "version": 1
  }
}