{
  "contractName": "MedicineDP",
  "abi": [
    {
      "inputs": [
        {
          "internalType": "address",
          "name": "_medicineID",
          "type": "address"
        },
        {
          "internalType": "address",
          "name": "_distributor",
          "type": "address"
        },
        {
          "internalType": "address",
          "name": "_shipper",
          "type": "address"
        },
        {
          "internalType": "address",
          "name": "_pharma",
          "type": "address"
        }
      ],
      "stateMutability": "nonpayable",
      "type": "constructor"
    },
    {
      "inputs": [],
      "name": "medicineID",
      "outputs": [
        {
          "internalType": "address",
          "name": "",
          "type": "address"
        }
      ],
      "stateMutability": "view",
      "type": "function"
    },
    {
      "inputs": [],
      "name": "packageStatus",
      "outputs": [
        {
          "internalType": "enum MedicineDP.status",
          "name": "",
          "type": "uint8"
        }
      ],
      "stateMutability": "view",
      "type": "function"
    },
    {
      "inputs": [],
      "name": "getMedicineDPSubContractDetails",
      "outputs": [
        {
          "internalType": "address",
          "name": "_subContractId",
          "type": "address"
        },
        {
          "internalType": "address",
          "name": "_medicineId",
          "type": "address"
        },
        {
          "components": [
            {
              "internalType": "address",
              "name": "medicineId",
              "type": "address"
            },
            {
              "internalType": "string",
              "name": "medicineName",
              "type": "string"
            },
            {
              "internalType": "string",
              "name": "description",
              "type": "string"
            },
            {
              "internalType": "string",
              "name": "location",
              "type": "string"
            },
            {
              "internalType": "uint256",
              "name": "quantity",
              "type": "uint256"
            }
          ],
          "internalType": "struct Medicine.MedicineInfo",
          "name": "medicineInfo",
          "type": "tuple"
        },
        {
          "components": [
            {
              "internalType": "address",
              "name": "shipper",
              "type": "address"
            },
            {
              "internalType": "address",
              "name": "distributor",
              "type": "address"
            },
            {
              "internalType": "address",
              "name": "manufacturer",
              "type": "address"
            },
            {
              "internalType": "address",
              "name": "inspector",
              "type": "address"
            }
          ],
          "internalType": "struct Medicine.Entity",
          "name": "medicineEntity",
          "type": "tuple"
        },
        {
          "internalType": "address",
          "name": "_pharma",
          "type": "address"
        },
        {
          "internalType": "uint256",
          "name": "_packageStatus",
          "type": "uint256"
        },
        {
          "internalType": "uint256[]",
          "name": "_transactionBlocksDP",
          "type": "uint256[]"
        }
      ],
      "stateMutability": "view",
      "type": "function"
    },
    {
      "inputs": [],
      "name": "getMedicineID",
      "outputs": [
        {
          "internalType": "address",
          "name": "",
          "type": "address"
        }
      ],
      "stateMutability": "view",
      "type": "function"
    },
    {
      "inputs": [],
      "name": "getMedicineSubBatchStatus",
      "outputs": [
        {
          "internalType": "uint256",
          "name": "",
          "type": "uint256"
        }
      ],
      "stateMutability": "view",
      "type": "function"
    },
    {
      "inputs": [],
      "name": "getTransactionBlocksDP",
      "outputs": [
        {
          "internalType": "uint256[]",
          "name": "",
          "type": "uint256[]"
        }
      ],
      "stateMutability": "view",
      "type": "function"
    },
    {
      "inputs": [
        {
          "internalType": "address",
          "name": "_medicineID",
          "type": "address"
        }
      ],
      "name": "pickPackageDP",
      "outputs": [],
      "stateMutability": "nonpayable",
      "type": "function"
    },
    {
      "inputs": [
        {
          "internalType": "address",
          "name": "_medicineID",
          "type": "address"
        }
      ],
      "name": "receivedPackageDP",
      "outputs": [],
      "stateMutability": "nonpayable",
      "type": "function"
    },
    {
      "inputs": [],
      "name": "initiateMedicineSubBatchTransfer",
      "outputs": [
        {
          "internalType": "bool",
          "name": "",
          "type": "bool"
        }
      ],
      "stateMutability": "nonpayable",
      "type": "function"
    },
    {
      "inputs": [],
      "name": "initiateMedicineSubBatchForShipment",
      "outputs": [
        {
          "internalType": "bool",
          "name": "",
          "type": "bool"
        }
      ],
      "stateMutability": "nonpayable",
      "type": "function"
    },
    {
      "inputs": [],
      "name": "deliverMedicineSubBatchToReceiver",
      "outputs": [
        {
          "internalType": "bool",
          "name": "",
          "type": "bool"
        }
      ],
      "stateMutability": "nonpayable",
      "type": "function"
    },
    {
      "inputs": [],
      "name": "rejectMedicineSubBatchAtReceiver",
      "outputs": [
        {
          "internalType": "bool",
          "name": "",
          "type": "bool"
        }
      ],
      "stateMutability": "nonpayable",
      "type": "function"
    },
    {
      "inputs": [],
      "name": "approveMedicineSubBatchAtReceiver",
      "outputs": [
        {
          "internalType": "bool",
          "name": "",
          "type": "bool"
        }
      ],
      "stateMutability": "nonpayable",
      "type": "function"
    }
  ],
  "bytecode": "0x60806040523480156200001157600080fd5b506040516200174b3803806200174b8339818101604052810190620000379190620001df565b826000806101000a81548173ffffffffffffffffffffffffffffffffffffffff021916908373ffffffffffffffffffffffffffffffffffffffff16021790555083600160006101000a81548173ffffffffffffffffffffffffffffffffffffffff021916908373ffffffffffffffffffffffffffffffffffffffff16021790555082600360006101000a81548173ffffffffffffffffffffffffffffffffffffffff021916908373ffffffffffffffffffffffffffffffffffffffff16021790555080600460006101000a81548173ffffffffffffffffffffffffffffffffffffffff021916908373ffffffffffffffffffffffffffffffffffffffff16021790555081600260006101000a81548173ffffffffffffffffffffffffffffffffffffffff021916908373ffffffffffffffffffffffffffffffffffffffff1602179055506000600481111562000192576200019162000285565b5b600460146101000a81548160ff02191690836004811115620001b957620001b862000285565b5b021790555050505050620002d3565b600081519050620001d981620002b9565b92915050565b60008060008060808587031215620001fc57620001fb620002b4565b5b60006200020c87828801620001c8565b94505060206200021f87828801620001c8565b93505060406200023287828801620001c8565b92505060606200024587828801620001c8565b91505092959194509250565b60006200025e8262000265565b9050919050565b600073ffffffffffffffffffffffffffffffffffffffff82169050919050565b7f4e487b7100000000000000000000000000000000000000000000000000000000600052602160045260246000fd5b600080fd5b620002c48162000251565b8114620002d057600080fd5b50565b61146880620002e36000396000f3fe608060405234801561001057600080fd5b50600436106100ec576000357c01000000000000000000000000000000000000000000000000000000009004806358c3bf79116100a957806376b0f79c1161008357806376b0f79c146101fd5780637fb8174a1461021b578063b946588c1461023f578063e3837b041461025b576100ec565b806358c3bf79146101a35780636035210a146101c1578063678dd118146101df576100ec565b80631805de3b146100f157806330fa86aa1461010f5780633834aae01461012d57806340019e5d1461014b57806340e900931461016957806343330ec214610187575b600080fd5b6100f9610279565b6040516101069190611140565b60405180910390f35b6101176102a2565b6040516101249190611088565b60405180910390f35b6101356102fa565b60405161014291906110aa565b60405180910390f35b61015361030d565b6040516101609190610fed565b60405180910390f35b610171610337565b60405161017e91906110aa565b60405180910390f35b6101a1600480360381019061019c9190610cff565b61034a565b005b6101ab6104bb565b6040516101b891906110aa565b60405180910390f35b6101c96104ce565b6040516101d691906110aa565b60405180910390f35b6101e761053c565b6040516101f491906110c5565b60405180910390f35b61020561054f565b60405161021291906110aa565b60405180910390f35b610223610562565b6040516102369796959493929190611008565b60405180910390f35b61025960048036038101906102549190610cff565b6107cb565b005b61026361090f565b6040516102709190610fed565b60405180910390f35b6000600460149054906101000a900460ff16600481111561029d5761029c6112e8565b5b905090565b606060058054806020026020016040519081016040528092919081815260200182805480156102f057602002820191906000526020600020905b8154815260200190600101908083116102dc575b5050505050905090565b600061030860046002610935565b905090565b6000600160009054906101000a900473ffffffffffffffffffffffffffffffffffffffff16905090565b600061034560036002610935565b905090565b6000600481111561035e5761035d6112e8565b5b60048111156103705761036f6112e8565b5b600460149054906101000a900460ff166004811115610392576103916112e8565b5b146103d2576040517f08c379a00000000000000000000000000000000000000000000000000000000081526004016103c990611100565b60405180910390fd5b600160048111156103e6576103e56112e8565b5b600460146101000a81548160ff0219169083600481111561040a576104096112e8565b5b02179055508073ffffffffffffffffffffffffffffffffffffffff1663a3791bb3600460009054906101000a900473ffffffffffffffffffffffffffffffffffffffff166040518263ffffffff167c01000000000000000000000000000000000000000000000000000000000281526004016104869190610fed565b600060405180830381600087803b1580156104a057600080fd5b505af11580156104b4573d6000803e3d6000fd5b5050505050565b60006104c960016000610935565b905090565b60008060048111156104e3576104e26112e8565b5b600460146101000a81548160ff02191690836004811115610507576105066112e8565b5b021790555060054390806001815401808255809150506001900390600052602060002001600090919091909150556001905090565b600460149054906101000a900460ff1681565b600061055d60026001610935565b905090565b60008061056d610a33565b610575610a78565b600080606030600160009054906101000a900473ffffffffffffffffffffffffffffffffffffffff16600160009054906101000a900473ffffffffffffffffffffffffffffffffffffffff1673ffffffffffffffffffffffffffffffffffffffff1663e002c8a56040518163ffffffff167c010000000000000000000000000000000000000000000000000000000002815260040160006040518083038186803b15801561062257600080fd5b505afa158015610636573d6000803e3d6000fd5b505050506040513d6000823e3d601f19601f8201168201806040525081019061065f9190610d59565b600160009054906101000a900473ffffffffffffffffffffffffffffffffffffffff1673ffffffffffffffffffffffffffffffffffffffff1663732642106040518163ffffffff167c010000000000000000000000000000000000000000000000000000000002815260040160806040518083038186803b1580156106e357600080fd5b505afa1580156106f7573d6000803e3d6000fd5b505050506040513d601f19601f8201168201806040525081019061071b9190610d2c565b600460009054906101000a900473ffffffffffffffffffffffffffffffffffffffff16600460149054906101000a900460ff1660048111156107605761075f6112e8565b5b6005808054806020026020016040519081016040528092919081815260200182805480156107ad57602002820191906000526020600020905b815481526020019060010190808311610799575b50505050509050965096509650965096509650965090919293949596565b600160048111156107df576107de6112e8565b5b60048111156107f1576107f06112e8565b5b600460149054906101000a900460ff166004811115610813576108126112e8565b5b14610853576040517f08c379a000000000000000000000000000000000000000000000000000000000815260040161084a906110e0565b60405180910390fd5b60026004811115610867576108666112e8565b5b600460146101000a81548160ff0219169083600481111561088b5761088a6112e8565b5b02179055508073ffffffffffffffffffffffffffffffffffffffff1663df1f41c86040518163ffffffff167c0100000000000000000000000000000000000000000000000000000000028152600401600060405180830381600087803b1580156108f457600080fd5b505af1158015610908573d6000803e3d6000fd5b5050505050565b600160009054906101000a900473ffffffffffffffffffffffffffffffffffffffff1681565b600081600481111561094a576109496112e8565b5b600481111561095c5761095b6112e8565b5b600460149054906101000a900460ff16600481111561097e5761097d6112e8565b5b14156109f25760054390806001815401808255809150506001900390600052602060002001600090919091909150558260048111156109c0576109bf6112e8565b5b600460146101000a81548160ff021916908360048111156109e4576109e36112e8565b5b021790555060019050610a2d565b6040517f08c379a0000000000000000000000000000000000000000000000000000000008152600401610a2490611120565b60405180910390fd5b92915050565b6040518060a00160405280600073ffffffffffffffffffffffffffffffffffffffff168152602001606081526020016060815260200160608152602001600081525090565b6040518060800160405280600073ffffffffffffffffffffffffffffffffffffffff168152602001600073ffffffffffffffffffffffffffffffffffffffff168152602001600073ffffffffffffffffffffffffffffffffffffffff168152602001600073ffffffffffffffffffffffffffffffffffffffff1681525090565b6000610b0b610b0684611180565b61115b565b905082815260208101848484011115610b2757610b26611355565b5b610b32848285611284565b509392505050565b600081359050610b4981611404565b92915050565b600081519050610b5e81611404565b92915050565b600082601f830112610b7957610b78611346565b5b8151610b89848260208601610af8565b91505092915050565b600060808284031215610ba857610ba761134b565b5b610bb2608061115b565b90506000610bc284828501610b4f565b6000830152506020610bd684828501610b4f565b6020830152506040610bea84828501610b4f565b6040830152506060610bfe84828501610b4f565b60608301525092915050565b600060a08284031215610c2057610c1f61134b565b5b610c2a60a061115b565b90506000610c3a84828501610b4f565b600083015250602082015167ffffffffffffffff811115610c5e57610c5d611350565b5b610c6a84828501610b64565b602083015250604082015167ffffffffffffffff811115610c8e57610c8d611350565b5b610c9a84828501610b64565b604083015250606082015167ffffffffffffffff811115610cbe57610cbd611350565b5b610cca84828501610b64565b6060830152506080610cde84828501610cea565b60808301525092915050565b600081519050610cf98161141b565b92915050565b600060208284031215610d1557610d1461135f565b5b6000610d2384828501610b3a565b91505092915050565b600060808284031215610d4257610d4161135f565b5b6000610d5084828501610b92565b91505092915050565b600060208284031215610d6f57610d6e61135f565b5b600082015167ffffffffffffffff811115610d8d57610d8c61135a565b5b610d9984828501610c0a565b91505092915050565b6000610dae8383610fcf565b60208301905092915050565b610dc381611217565b82525050565b610dd281611217565b82525050565b6000610de3826111c1565b610ded81856111e4565b9350610df8836111b1565b8060005b83811015610e29578151610e108882610da2565b9750610e1b836111d7565b925050600181019050610dfc565b5085935050505092915050565b610e3f81611229565b82525050565b610e4e81611272565b82525050565b6000610e5f826111cc565b610e6981856111f5565b9350610e79818560208601611284565b610e8281611364565b840191505092915050565b6000610e9a600b83611206565b9150610ea582611375565b602082019050919050565b6000610ebd600a83611206565b9150610ec88261139e565b602082019050919050565b6000610ee0600a83611206565b9150610eeb826113c7565b602082019050919050565b608082016000820151610f0c6000850182610dba565b506020820151610f1f6020850182610dba565b506040820151610f326040850182610dba565b506060820151610f456060850182610dba565b50505050565b600060a083016000830151610f636000860182610dba565b5060208301518482036020860152610f7b8282610e54565b91505060408301518482036040860152610f958282610e54565b91505060608301518482036060860152610faf8282610e54565b9150506080830151610fc46080860182610fcf565b508091505092915050565b610fd881611268565b82525050565b610fe781611268565b82525050565b60006020820190506110026000830184610dc9565b92915050565b60006101408201905061101e600083018a610dc9565b61102b6020830189610dc9565b818103604083015261103d8188610f4b565b905061104c6060830187610ef6565b61105960e0830186610dc9565b611067610100830185610fde565b81810361012083015261107a8184610dd8565b905098975050505050505050565b600060208201905081810360008301526110a28184610dd8565b905092915050565b60006020820190506110bf6000830184610e36565b92915050565b60006020820190506110da6000830184610e45565b92915050565b600060208201905081810360008301526110f981610e8d565b9050919050565b6000602082019050818103600083015261111981610eb0565b9050919050565b6000602082019050818103600083015261113981610ed3565b9050919050565b60006020820190506111556000830184610fde565b92915050565b6000611165611176565b905061117182826112b7565b919050565b6000604051905090565b600067ffffffffffffffff82111561119b5761119a611317565b5b6111a482611364565b9050602081019050919050565b6000819050602082019050919050565b600081519050919050565b600081519050919050565b6000602082019050919050565b600082825260208201905092915050565b600082825260208201905092915050565b600082825260208201905092915050565b600061122282611248565b9050919050565b60008115159050919050565b6000819050611243826113f0565b919050565b600073ffffffffffffffffffffffffffffffffffffffff82169050919050565b6000819050919050565b600061127d82611235565b9050919050565b60005b838110156112a2578082015181840152602081019050611287565b838111156112b1576000848401525b50505050565b6112c082611364565b810181811067ffffffffffffffff821117156112df576112de611317565b5b80604052505050565b7f4e487b7100000000000000000000000000000000000000000000000000000000600052602160045260246000fd5b7f4e487b7100000000000000000000000000000000000000000000000000000000600052604160045260246000fd5b600080fd5b600080fd5b600080fd5b600080fd5b600080fd5b600080fd5b6000601f19601f8301169050919050565b7f4d5f4d53545f41545f502e000000000000000000000000000000000000000000600082015250565b7f4d5f4d53545f41545f4400000000000000000000000000000000000000000000600082015250565b7f494e5f50524f4345535300000000000000000000000000000000000000000000600082015250565b60058110611401576114006112e8565b5b50565b61140d81611217565b811461141857600080fd5b50565b61142481611268565b811461142f57600080fd5b5056fea26469706673582212204ae16995d8ea15bfae016564392451917cf37be6a2c693b22d30da90632cc7b364736f6c63430008070033",
  "immutableReferences": {},
  "source": "// SPDX-License-Identifier: MIT\r\npragma solidity >=0.4.22 <0.9.0;\r\npragma experimental ABIEncoderV2;\r\n\r\nimport \"./Medicine.sol\";\r\n\r\n/**************************************************\r\n * TransporterType\r\n * 1 - Supplier to Manufacturer\r\n * 2 - Manufacturer to Distributor\r\n * 3 - Distributor to Pharma\r\n **************************************************/\r\n\r\ncontract MedicineDP {\r\n    address owner;\r\n\r\n    enum status {\r\n        transferInitiated,\r\n        pickedByTransporter,\r\n        deliveredAtPharma,\r\n        rejectedByPharma,\r\n        approvedByPharma\r\n    }\r\n\r\n    //Medicine id\r\n    address public medicineID;\r\n    //Medicine shipper/transporter\r\n    address shipper;\r\n    //Medicine distributor/sender\r\n    address distributor;\r\n    //Medicine at Pharmaceutical/reciever\r\n    address pharma;\r\n    //medicine package status\r\n    status public packageStatus;\r\n    //transaction time\r\n    uint256[] transactionBlocksDP;\r\n\r\n    //Initiate new Medicine package by manufacturer with necessary details.\r\n    constructor(\r\n        address _medicineID,\r\n        address _distributor, //sender\r\n        address _shipper,\r\n        address _pharma // receiver\r\n    ) {\r\n        owner = _distributor;\r\n        medicineID = _medicineID;\r\n        distributor = _distributor;\r\n        pharma = _pharma;\r\n        shipper = _shipper;\r\n        packageStatus = status(0);\r\n    }\r\n\r\n    //Get medicineDP contract details along with medicine basic details\r\n    function getMedicineDPSubContractDetails()\r\n        public\r\n        view\r\n        returns (\r\n            address _subContractId,\r\n            address _medicineId,\r\n            Medicine.MedicineInfo memory medicineInfo,\r\n            Medicine.Entity memory medicineEntity,\r\n            address _pharma,\r\n            uint256 _packageStatus,\r\n            uint256[] memory _transactionBlocksDP\r\n        )\r\n    {\r\n        return (\r\n            address(this),\r\n            medicineID,\r\n            Medicine(medicineID).getMedicineInfo(),\r\n            Medicine(medicineID).getMedicineEntity(),\r\n            pharma,\r\n            uint256(packageStatus),\r\n            transactionBlocksDP\r\n        );\r\n    }\r\n\r\n    //Get the Medicine Id\r\n    function getMedicineID() public view returns (address) {\r\n        return medicineID;\r\n    }\r\n\r\n    //Get the Medicine sub batch package status.\r\n    function getMedicineSubBatchStatus() public view returns (uint256) {\r\n        return uint256(packageStatus);\r\n    }\r\n\r\n    //Get the Medicine sub batch transactions\r\n    function getTransactionBlocksDP() public view returns (uint256[] memory) {\r\n        return transactionBlocksDP;\r\n    }\r\n\r\n    //Pick medicine package/batch for transferring Dist to Pharma by Shipper/Transporter. Only Shipper/Transporter can call this.\r\n    //@param _medicineID Medicine Batch/Package ID Address\r\n    //@param _shipper Registered Shipper/Transporter user Address\r\n    function pickPackageDP(address _medicineID) public {\r\n        require(packageStatus == status(0), \"M_MST_AT_D\");\r\n        packageStatus = status(1);\r\n        Medicine(_medicineID).pickMedicinePackageForPharma(pharma);\r\n    }\r\n\r\n    //Receive & Update medicine package/batch for tranfering Dist to Pharma by Shipper/Transporter. Only Pharma can call this.\r\n    //@param _medicineID Medicine Batch/Package ID Address\r\n    //@param _receiver Registered Pharma user Address\r\n    function receivedPackageDP(address _medicineID) public {\r\n        require(packageStatus == status(1), \"M_MST_AT_P.\");\r\n        packageStatus = status(2);\r\n        Medicine(_medicineID).updatePackageStatusOnReceivedByPharma();\r\n    }\r\n\r\n    //initiate medicine sub batch transfer to pharma\r\n    function initiateMedicineSubBatchTransfer() public returns (bool) {\r\n        packageStatus = status(0);\r\n        transactionBlocksDP.push(block.number);\r\n        return true;\r\n    }\r\n\r\n    //Pick  medicine sub batch for shipment by shipper for Dist-Pharma\r\n    function initiateMedicineSubBatchForShipment() public returns (bool) {\r\n        return updateMedicineBatchStatus(1, 0);\r\n    }\r\n\r\n    //Deliver & update medicine batch by shipper for Dist-Pharma\r\n    function deliverMedicineSubBatchToReceiver() public returns (bool) {\r\n        return updateMedicineBatchStatus(2, 1);\r\n    }\r\n\r\n    //Delivered medicine batch rejected by Pharma\r\n    function rejectMedicineSubBatchAtReceiver() public returns (bool) {\r\n        return updateMedicineBatchStatus(3, 2);\r\n    }\r\n\r\n    //Delivered medicine batch approved by Pharma\r\n    function approveMedicineSubBatchAtReceiver() public returns (bool) {\r\n        return updateMedicineBatchStatus(4, 2);\r\n    }\r\n\r\n    function updateMedicineBatchStatus(\r\n        uint256 _updatedStatus,\r\n        uint256 _prevStatus\r\n    ) private returns (bool) {\r\n        if (packageStatus == status(_prevStatus)) {\r\n            transactionBlocksDP.push(block.number);\r\n            packageStatus = status(_updatedStatus);\r\n            return true;\r\n        } else {\r\n            revert(\"IN_PROCESS\");\r\n        }\r\n    }\r\n}\r\n",
  "sourcePath": "C:\\Development\\Blockchain\\Learning-2\\contracts\\MedicineDP.sol",
  "compiler": {
    "name": "solc",
    "version": "0.8.7+commit.e28d00a7.Emscripten.clang"
  },
  "schemaVersion": "3.4.1",
  "updatedAt": "2021-08-14T11:11:12.219Z",
  "devdoc": {
    "kind": "dev",
    "methods": {},
    "version": 1
  },
  "userdoc": {
    "kind": "user",
    "methods": {},
    "version": 1
  }
}