{
  "contractName": "MedicineDP",
  "abi": [
    {
      "inputs": [
        {
          "internalType": "address",
          "name": "_medicineID",
          "type": "address"
        },
        {
          "internalType": "address",
          "name": "_distributor",
          "type": "address"
        },
        {
          "internalType": "address",
          "name": "_shipper",
          "type": "address"
        },
        {
          "internalType": "address",
          "name": "_pharma",
          "type": "address"
        }
      ],
      "stateMutability": "nonpayable",
      "type": "constructor"
    },
    {
      "inputs": [],
      "name": "medicineID",
      "outputs": [
        {
          "internalType": "address",
          "name": "",
          "type": "address"
        }
      ],
      "stateMutability": "view",
      "type": "function"
    },
    {
      "inputs": [],
      "name": "packageStatus",
      "outputs": [
        {
          "internalType": "enum MedicineDP.status",
          "name": "",
          "type": "uint8"
        }
      ],
      "stateMutability": "view",
      "type": "function"
    },
    {
      "inputs": [],
      "name": "getMedicineDPSubContractDetails",
      "outputs": [
        {
          "internalType": "address",
          "name": "_medicineID",
          "type": "address"
        },
        {
          "internalType": "address",
          "name": "_shipper",
          "type": "address"
        },
        {
          "internalType": "address",
          "name": "_distributor",
          "type": "address"
        },
        {
          "internalType": "uint256",
          "name": "_packageStatus",
          "type": "uint256"
        }
      ],
      "stateMutability": "view",
      "type": "function"
    },
    {
      "inputs": [
        {
          "internalType": "address",
          "name": "_medicineID",
          "type": "address"
        }
      ],
      "name": "pickPackageDP",
      "outputs": [],
      "stateMutability": "nonpayable",
      "type": "function"
    },
    {
      "inputs": [
        {
          "internalType": "address",
          "name": "_medicineID",
          "type": "address"
        }
      ],
      "name": "receivedPackageDP",
      "outputs": [],
      "stateMutability": "nonpayable",
      "type": "function"
    }
  ],
  "bytecode": "0x608060405234801561001057600080fd5b5060405161060838038061060883398101604081905261002f916100e0565b60008054600160a060020a0319908116600160a060020a038681169182178455600180548416898316179055600380548416909217909155600480548316858316179055600280549092169085161790556004805460a060020a60ff021916740100000000000000000000000000000000000000008360028111156100b6576100b6610134565b021790555050505050610163565b8051600160a060020a03811681146100db57600080fd5b919050565b600080600080608085870312156100f657600080fd5b6100ff856100c4565b935061010d602086016100c4565b925061011b604086016100c4565b9150610129606086016100c4565b905092959194509250565b7f4e487b7100000000000000000000000000000000000000000000000000000000600052602160045260246000fd5b610496806101726000396000f3fe608060405234801561001057600080fd5b5060043610610073577c0100000000000000000000000000000000000000000000000000000000600035046343330ec28114610078578063678dd1181461008d5780637fb8174a146100b7578063b946588c146100f4578063e3837b0414610107575b600080fd5b61008b6100863660046103c0565b610132565b005b6004546100a19060a060020a900460ff1681565b6040516100ae91906103f0565b60405180910390f35b6100bf610266565b6040516100ae9493929190600160a060020a039485168152928416602084015292166040820152606081019190915260800190565b61008b6101023660046103c0565b6102b7565b60015461011a90600160a060020a031681565b604051600160a060020a0390911681526020016100ae565b600060045460a060020a900460ff16600281111561015257610152610431565b146101be576040517f08c379a000000000000000000000000000000000000000000000000000000000815260206004820152600a60248201527f4d5f4d53545f41545f440000000000000000000000000000000000000000000060448201526064015b60405180910390fd5b600480546001919074ff0000000000000000000000000000000000000000191660a060020a830217905550600480546040517fa3791bb3000000000000000000000000000000000000000000000000000000008152600160a060020a039182169281019290925282169063a3791bb390602401600060405180830381600087803b15801561024b57600080fd5b505af115801561025f573d6000803e3d6000fd5b5050505050565b60015460028054600354600454600094859485948594600160a060020a039384169491841693169160a060020a90910460ff16908111156102a9576102a9610431565b935093509350935090919293565b600160045460a060020a900460ff1660028111156102d7576102d7610431565b1461033e576040517f08c379a000000000000000000000000000000000000000000000000000000000815260206004820152600b60248201527f4d5f4d53545f41545f502e00000000000000000000000000000000000000000060448201526064016101b5565b600480546002919074ff0000000000000000000000000000000000000000191660a060020a83021790555080600160a060020a031663df1f41c86040518163ffffffff167c0100000000000000000000000000000000000000000000000000000000028152600401600060405180830381600087803b15801561024b57600080fd5b6000602082840312156103d257600080fd5b8135600160a060020a03811681146103e957600080fd5b9392505050565b602081016003831061042b577f4e487b7100000000000000000000000000000000000000000000000000000000600052602160045260246000fd5b91905290565b7f4e487b7100000000000000000000000000000000000000000000000000000000600052602160045260246000fdfea26469706673582212201e21bfd8f0cf6875f98b76ddc104d050e4eee35d59f4fabb8b530ec01ce58fdb64736f6c63430008060033",
  "immutableReferences": {},
  "source": "// SPDX-License-Identifier: MIT\r\npragma solidity >=0.4.22 <0.9.0;\r\npragma experimental ABIEncoderV2;\r\n\r\nimport \"./Medicine.sol\";\r\n\r\n/**************************************************\r\n * TransporterType\r\n * 1 - Supplier to Manufacturer\r\n * 2 - Manufacturer to Distributor\r\n * 3 - Distributor to Pharma\r\n **************************************************/\r\n\r\ncontract MedicineDP {\r\n    address owner;\r\n\r\n    enum status {\r\n        atCreator,\r\n        picked,\r\n        delivered\r\n    }\r\n\r\n    //Medicine id\r\n    address public medicineID;\r\n    //Medicine shipper/transporter\r\n    address shipper;\r\n    //Medicine distributor/sender\r\n    address distributor;\r\n    //Medicine at Pharmaceutical/reciever\r\n    address pharma;\r\n    //medicine package status\r\n    status public packageStatus;\r\n\r\n    //Initiate new Medicine package by manufacturer with necessary details.\r\n    constructor(\r\n        address _medicineID,\r\n        address _distributor, //sender\r\n        address _shipper,\r\n        address _pharma // receiver\r\n    ) {\r\n        owner = _distributor;\r\n        medicineID = _medicineID;\r\n        distributor = _distributor;\r\n        pharma = _pharma;\r\n        shipper = _shipper;\r\n        packageStatus = status(0);\r\n    }\r\n\r\n    function getMedicineDPSubContractDetails()\r\n        public\r\n        view\r\n        returns (\r\n            address _medicineID,\r\n            address _shipper,\r\n            address _distributor,\r\n            uint256 _packageStatus\r\n        )\r\n    {\r\n        return (medicineID, shipper, distributor, uint256(packageStatus));\r\n    }\r\n\r\n    //Pick medicine package/batch for transferring Dist to Pharma by Shipper/Transporter. Only Shipper/Transporter can call this.\r\n    //@param _medicineID Medicine Batch/Package ID Address\r\n    //@param _shipper Registered Shipper/Transporter user Address\r\n    function pickPackageDP(address _medicineID) public {\r\n        require(\r\n            packageStatus == status(0),\r\n            \"M_MST_AT_D\"\r\n        );\r\n        packageStatus = status(1);\r\n        Medicine(_medicineID).pickMedicinePackageForPharma(pharma);\r\n    }\r\n\r\n    //Receive & Update medicine package/batch for tranfering Dist to Pharma by Shipper/Transporter. Only Pharma can call this.\r\n    //@param _medicineID Medicine Batch/Package ID Address\r\n    //@param _receiver Registered Pharma user Address\r\n    function receivedPackageDP(address _medicineID) public {\r\n        require(\r\n            packageStatus == status(1),\r\n            \"M_MST_AT_P.\"\r\n        );\r\n        packageStatus = status(2);\r\n        Medicine(_medicineID).updatePackageStatusOnReceivedByPharma();\r\n    }\r\n}\r\n",
  "sourcePath": "C:\\Development\\Blockchain\\Learning-2\\contracts\\MedicineDP.sol",
  "compiler": {
    "name": "solc",
    "version": "0.8.6+commit.11564f7e.Emscripten.clang"
  },
  "schemaVersion": "3.4.1",
  "updatedAt": "2021-08-05T10:21:15.123Z",
  "devdoc": {
    "kind": "dev",
    "methods": {},
    "version": 1
  },
  "userdoc": {
    "kind": "user",
    "methods": {},
    "version": 1
  }
}