{
  "contractName": "Pharma",
  "abi": [
    {
      "anonymous": false,
      "inputs": [
        {
          "indexed": false,
          "internalType": "address",
          "name": "MedicineID",
          "type": "address"
        },
        {
          "indexed": true,
          "internalType": "address",
          "name": "Pharma",
          "type": "address"
        },
        {
          "indexed": false,
          "internalType": "uint256",
          "name": "MedicineStatus",
          "type": "uint256"
        }
      ],
      "name": "MedicineStatusUpdated",
      "type": "event"
    },
    {
      "anonymous": false,
      "inputs": [
        {
          "indexed": true,
          "internalType": "address",
          "name": "UserAddress",
          "type": "address"
        },
        {
          "indexed": false,
          "internalType": "string",
          "name": "Name",
          "type": "string"
        }
      ],
      "name": "UserRegistered",
      "type": "event"
    },
    {
      "anonymous": false,
      "inputs": [
        {
          "indexed": true,
          "internalType": "address",
          "name": "UserAddress",
          "type": "address"
        },
        {
          "indexed": false,
          "internalType": "string",
          "name": "Name",
          "type": "string"
        },
        {
          "indexed": false,
          "internalType": "uint256",
          "name": "Role",
          "type": "uint256"
        }
      ],
      "name": "UserRoleReassigned",
      "type": "event"
    },
    {
      "anonymous": false,
      "inputs": [
        {
          "indexed": true,
          "internalType": "address",
          "name": "UserAddress",
          "type": "address"
        },
        {
          "indexed": false,
          "internalType": "string",
          "name": "Name",
          "type": "string"
        },
        {
          "indexed": false,
          "internalType": "uint256",
          "name": "Role",
          "type": "uint256"
        }
      ],
      "name": "UserRoleRevoked",
      "type": "event"
    },
    {
      "inputs": [
        {
          "internalType": "uint256",
          "name": "",
          "type": "uint256"
        }
      ],
      "name": "UserList",
      "outputs": [
        {
          "internalType": "address",
          "name": "userAddress",
          "type": "address"
        },
        {
          "internalType": "string",
          "name": "userName",
          "type": "string"
        },
        {
          "internalType": "string",
          "name": "userLocation",
          "type": "string"
        },
        {
          "internalType": "enum User.roles",
          "name": "userRole",
          "type": "uint8"
        },
        {
          "internalType": "string",
          "name": "userStatus",
          "type": "string"
        }
      ],
      "stateMutability": "view",
      "type": "function"
    },
    {
      "inputs": [
        {
          "internalType": "address",
          "name": "_address",
          "type": "address"
        }
      ],
      "name": "deleteUser",
      "outputs": [],
      "stateMutability": "nonpayable",
      "type": "function"
    },
    {
      "inputs": [
        {
          "internalType": "address",
          "name": "_address",
          "type": "address"
        }
      ],
      "name": "findAndDeactivateUser",
      "outputs": [],
      "stateMutability": "nonpayable",
      "type": "function"
    },
    {
      "inputs": [],
      "name": "getAllRegisteredUsers",
      "outputs": [
        {
          "components": [
            {
              "internalType": "address",
              "name": "userAddress",
              "type": "address"
            },
            {
              "internalType": "string",
              "name": "userName",
              "type": "string"
            },
            {
              "internalType": "string",
              "name": "userLocation",
              "type": "string"
            },
            {
              "internalType": "enum User.roles",
              "name": "userRole",
              "type": "uint8"
            },
            {
              "internalType": "string",
              "name": "userStatus",
              "type": "string"
            }
          ],
          "internalType": "struct User.UserInfo[]",
          "name": "",
          "type": "tuple[]"
        }
      ],
      "stateMutability": "view",
      "type": "function"
    },
    {
      "inputs": [
        {
          "internalType": "address",
          "name": "_address",
          "type": "address"
        }
      ],
      "name": "getUserInfo",
      "outputs": [
        {
          "components": [
            {
              "internalType": "address",
              "name": "userAddress",
              "type": "address"
            },
            {
              "internalType": "string",
              "name": "userName",
              "type": "string"
            },
            {
              "internalType": "string",
              "name": "userLocation",
              "type": "string"
            },
            {
              "internalType": "enum User.roles",
              "name": "userRole",
              "type": "uint8"
            },
            {
              "internalType": "string",
              "name": "userStatus",
              "type": "string"
            }
          ],
          "internalType": "struct User.UserInfo",
          "name": "",
          "type": "tuple"
        }
      ],
      "stateMutability": "view",
      "type": "function"
    },
    {
      "inputs": [],
      "name": "getUsersCount",
      "outputs": [
        {
          "internalType": "uint256",
          "name": "count",
          "type": "uint256"
        }
      ],
      "stateMutability": "view",
      "type": "function"
    },
    {
      "inputs": [],
      "name": "owner",
      "outputs": [
        {
          "internalType": "address",
          "name": "",
          "type": "address"
        }
      ],
      "stateMutability": "view",
      "type": "function"
    },
    {
      "inputs": [
        {
          "internalType": "address",
          "name": "_address",
          "type": "address"
        },
        {
          "internalType": "uint256",
          "name": "_role",
          "type": "uint256"
        }
      ],
      "name": "reAssignUserRole",
      "outputs": [],
      "stateMutability": "nonpayable",
      "type": "function"
    },
    {
      "inputs": [
        {
          "internalType": "address",
          "name": "_address",
          "type": "address"
        },
        {
          "internalType": "string",
          "name": "_name",
          "type": "string"
        },
        {
          "internalType": "string",
          "name": "_location",
          "type": "string"
        },
        {
          "internalType": "uint256",
          "name": "_role",
          "type": "uint256"
        },
        {
          "internalType": "string",
          "name": "_userStatus",
          "type": "string"
        }
      ],
      "name": "registerAdmin",
      "outputs": [],
      "stateMutability": "nonpayable",
      "type": "function"
    },
    {
      "inputs": [
        {
          "internalType": "address",
          "name": "_address",
          "type": "address"
        },
        {
          "internalType": "string",
          "name": "_name",
          "type": "string"
        },
        {
          "internalType": "string",
          "name": "_location",
          "type": "string"
        },
        {
          "internalType": "uint256",
          "name": "_role",
          "type": "uint256"
        },
        {
          "internalType": "string",
          "name": "_userStatus",
          "type": "string"
        }
      ],
      "name": "registerUser",
      "outputs": [],
      "stateMutability": "nonpayable",
      "type": "function"
    },
    {
      "inputs": [
        {
          "internalType": "address",
          "name": "_address",
          "type": "address"
        }
      ],
      "name": "revokeUserRole",
      "outputs": [],
      "stateMutability": "nonpayable",
      "type": "function"
    },
    {
      "inputs": [
        {
          "internalType": "address",
          "name": "_address",
          "type": "address"
        },
        {
          "internalType": "string",
          "name": "_name",
          "type": "string"
        },
        {
          "internalType": "string",
          "name": "_location",
          "type": "string"
        },
        {
          "internalType": "uint256",
          "name": "_role",
          "type": "uint256"
        },
        {
          "internalType": "string",
          "name": "_userStatus",
          "type": "string"
        }
      ],
      "name": "updateUser",
      "outputs": [],
      "stateMutability": "nonpayable",
      "type": "function"
    },
    {
      "inputs": [
        {
          "internalType": "address",
          "name": "_address",
          "type": "address"
        },
        {
          "internalType": "string",
          "name": "_userName",
          "type": "string"
        }
      ],
      "name": "validateUser",
      "outputs": [
        {
          "components": [
            {
              "internalType": "address",
              "name": "userAddress",
              "type": "address"
            },
            {
              "internalType": "string",
              "name": "userName",
              "type": "string"
            },
            {
              "internalType": "string",
              "name": "userLocation",
              "type": "string"
            },
            {
              "internalType": "enum User.roles",
              "name": "userRole",
              "type": "uint8"
            },
            {
              "internalType": "string",
              "name": "userStatus",
              "type": "string"
            }
          ],
          "internalType": "struct User.UserInfo",
          "name": "",
          "type": "tuple"
        }
      ],
      "stateMutability": "view",
      "type": "function"
    },
    {
      "inputs": [
        {
          "internalType": "address",
          "name": "_medicineID",
          "type": "address"
        },
        {
          "internalType": "address",
          "name": "_subContractID",
          "type": "address"
        },
        {
          "internalType": "uint256",
          "name": "_medicineStatus",
          "type": "uint256"
        }
      ],
      "name": "updateRecievedMedicineBatchStatus",
      "outputs": [],
      "stateMutability": "nonpayable",
      "type": "function"
    },
    {
      "inputs": [
        {
          "internalType": "address",
          "name": "_medicineID",
          "type": "address"
        },
        {
          "internalType": "uint256",
          "name": "_status",
          "type": "uint256"
        }
      ],
      "name": "updateMedicineSaleStatus",
      "outputs": [],
      "stateMutability": "nonpayable",
      "type": "function"
    },
    {
      "inputs": [
        {
          "internalType": "address",
          "name": "_medicineID",
          "type": "address"
        }
      ],
      "name": "getMedicineSaleStatusByID",
      "outputs": [
        {
          "internalType": "uint256",
          "name": "",
          "type": "uint256"
        }
      ],
      "stateMutability": "view",
      "type": "function"
    },
    {
      "inputs": [],
      "name": "getReceivedMedicineBatchesCount",
      "outputs": [
        {
          "internalType": "uint256",
          "name": "",
          "type": "uint256"
        }
      ],
      "stateMutability": "view",
      "type": "function"
    },
    {
      "inputs": [
        {
          "internalType": "uint256",
          "name": "_index",
          "type": "uint256"
        }
      ],
      "name": "getReceivedMedicineIDByIndex",
      "outputs": [
        {
          "internalType": "address",
          "name": "",
          "type": "address"
        }
      ],
      "stateMutability": "view",
      "type": "function"
    }
  ],
  "bytecode": "0x608060405234801561001057600080fd5b5060008054600160a060020a03191633179055612137806100326000396000f3fe608060405234801561001057600080fd5b50600436106100e95760e060020a6000350463397388af81146100ee5780633bb3ec9e1461010c57806345f5b55f146101215780635c60f226146101345780636386c1c7146101475780636ab5d88c146101675780637e8e8c5c1461017a5780638620ca481461018d5780638da5cb5b146101ae578063a00453c0146101d9578063a4a1e263146101ec578063babe1655146101f4578063bd73b25d14610218578063c04732bd1461022b578063c3f9937a1461023e578063d22b4e4414610251578063e299476714610259578063eaa2f67f1461026c575b600080fd5b6100f661027f565b6040516101039190611f15565b60405180910390f35b61011f61011a366004611c44565b61052f565b005b61011f61012f366004611ce6565b610852565b61011f610142366004611ba0565b610a34565b61015a610155366004611ba0565b610b15565b6040516101039190612014565b61011f610175366004611c44565b610d40565b61011f610188366004611bbb565b61102d565b6101a061019b366004611ba0565b611162565b604051908152602001610103565b6000546101c190600160a060020a031681565b604051600160a060020a039091168152602001610103565b61011f6101e7366004611c44565b6111e2565b6003546101a0565b610207610202366004611d10565b61122b565b604051610103959493929190611eb2565b61011f610226366004611ba0565b611418565b6101c1610239366004611d10565b6115c1565b61011f61024c366004611ce6565b611648565b6101a061178b565b61011f610267366004611ba0565b6117ea565b61015a61027a366004611bf7565b6118ac565b606060083360009081526002602052604090206003015460ff1660088111156102aa576102aa612093565b146102d35760405160e560020a62461bcd0281526004016102ca90611ff3565b60405180910390fd5b6001805480602002602001604051908101604052809291908181526020016000905b828210156105265760008481526020908190206040805160a08101909152600585029091018054600160a060020a03168252600181018054929391929184019161033e90612027565b80601f016020809104026020016040519081016040528092919081815260200182805461036a90612027565b80156103b75780601f1061038c576101008083540402835291602001916103b7565b820191906000526020600020905b81548152906001019060200180831161039a57829003601f168201915b505050505081526020016002820180546103d090612027565b80601f01602080910402602001604051908101604052809291908181526020018280546103fc90612027565b80156104495780601f1061041e57610100808354040283529160200191610449565b820191906000526020600020905b81548152906001019060200180831161042c57829003601f168201915b5050509183525050600382015460209091019060ff16600881111561047057610470612093565b600881111561048157610481612093565b815260200160048201805461049590612027565b80601f01602080910402602001604051908101604052809291908181526020018280546104c190612027565b801561050e5780601f106104e35761010080835404028352916020019161050e565b820191906000526020600020905b8154815290600101906020018083116104f157829003601f168201915b505050505081525050815260200190600101906102f5565b50505050905090565b60083360009081526002602052604090206003015460ff16600881111561055857610558612093565b146105785760405160e560020a62461bcd0281526004016102ca90611ff3565b600160a060020a0380861660008181526002602052604090205490911614156105d55760405160e560020a62461bcd028152602060048201526009602482015260ba60020a681554d497d1561254d50260448201526064016102ca565b6105dd611a1b565b600160a060020a0386168152602081018590526040810184905282600881111561060957610609612093565b8160600190600881111561061f5761061f612093565b9081600881111561063257610632612093565b90525060808101829052600160a060020a03868116600090815260026020908152604090912083518154600160a060020a0319169316929092178255808301518051849392610688926001850192910190611a64565b50604082015180516106a4916002840191602090910190611a64565b50606082015160038201805460ff191660018360088111156106c8576106c8612093565b0217905550608082015180516106e8916004840191602090910190611a64565b505081516003805460018082019092557fc2575a0e9e593c00f959f8c92f12db2869c3395a3b0502d05e2516446f71f85b018054600160a060020a0319908116600160a060020a03948516179091558154808301835560009290925284517fb10e2d527612073b26eecdfd717e6a320cf44b4afac2b0732d9fcbe2b7fa0cf660059093029283018054909216931692909217825560208085015180518695506107b8937fb10e2d527612073b26eecdfd717e6a320cf44b4afac2b0732d9fcbe2b7fa0cf701929190910190611a64565b50604082015180516107d4916002840191602090910190611a64565b50606082015160038201805460ff191660018360088111156107f8576107f8612093565b021790555060808201518051610818916004840191602090910190611a64565b50505085600160a060020a03166000805160206120e2833981519152866040516108429190611f76565b60405180910390a2505050505050565b60083360009081526002602052604090206003015460ff16600881111561087b5761087b612093565b1461089b5760405160e560020a62461bcd0281526004016102ca90611ff3565b600160a060020a03808316600081815260026020526040902054909116146108d85760405160e560020a62461bcd0281526004016102ca90611fcc565b60006108e383610b15565b90508160088111156108f7576108f7612093565b8160600190600881111561090d5761090d612093565b9081600881111561092057610920612093565b905250600160a060020a03838116600090815260026020908152604090912083518154600160a060020a031916931692909217825582810151805184939261096f926001850192910190611a64565b506040820151805161098b916002840191602090910190611a64565b50606082015160038201805460ff191660018360088111156109af576109af612093565b0217905550608082015180516109cf916004840191602090910190611a64565b5090505082600160a060020a03167f5a2f045370e4381799dd282fd5f3a534028572dc56a8e9ff1f6184b575e584ef826020015183606001516008811115610a1957610a19612093565b604051610a27929190611f89565b60405180910390a2505050565b60083360009081526002602052604090206003015460ff166008811115610a5d57610a5d612093565b14610a7d5760405160e560020a62461bcd0281526004016102ca90611ff3565b600160a060020a0380821660008181526002602052604090205490911614610aba5760405160e560020a62461bcd0281526004016102ca90611fcc565b6040805180820182526008815260c060020a67496e616374697665026020808301918252600160a060020a03851660009081526002909152929092209051610b089260049092019190611a64565b50610b12816117ea565b50565b610b1d611a1b565b600160a060020a03808316600090815260026020908152604091829020825160a081019093528054909316825260018301805492939291840191610b6090612027565b80601f0160208091040260200160405190810160405280929190818152602001828054610b8c90612027565b8015610bd95780601f10610bae57610100808354040283529160200191610bd9565b820191906000526020600020905b815481529060010190602001808311610bbc57829003601f168201915b50505050508152602001600282018054610bf290612027565b80601f0160208091040260200160405190810160405280929190818152602001828054610c1e90612027565b8015610c6b5780601f10610c4057610100808354040283529160200191610c6b565b820191906000526020600020905b815481529060010190602001808311610c4e57829003601f168201915b5050509183525050600382015460209091019060ff166008811115610c9257610c92612093565b6008811115610ca357610ca3612093565b8152602001600482018054610cb790612027565b80601f0160208091040260200160405190810160405280929190818152602001828054610ce390612027565b8015610d305780601f10610d0557610100808354040283529160200191610d30565b820191906000526020600020905b815481529060010190602001808311610d1357829003601f168201915b5050505050815250509050919050565b60083360009081526002602052604090206003015460ff166008811115610d6957610d69612093565b14610d895760405160e560020a62461bcd0281526004016102ca90611ff3565b600160a060020a0380861660008181526002602052604090205490911614610dc65760405160e560020a62461bcd0281526004016102ca90611fcc565b600160a060020a03851660009081526002602090815260409091208551610df592600190920191870190611a64565b50600160a060020a03851660009081526002602081815260409092208551610e2593919092019190860190611a64565b50816008811115610e3857610e38612093565b600160a060020a0386166000908152600260205260409020600301805460ff19166001836008811115610e6d57610e6d612093565b0217905550600160a060020a03851660009081526002602090815260409091208251610ea192600490920191840190611a64565b506000805b600154811015610f035786600160a060020a031660018281548110610ecd57610ecd6120ad565b6000918252602090912060059091020154600160a060020a03161415610ef1578091505b80610efb81612066565b915050610ea6565b508460018281548110610f1857610f186120ad565b90600052602060002090600502016001019080519060200190610f3c929190611a64565b508360018281548110610f5157610f516120ad565b90600052602060002090600502016002019080519060200190610f75929190611a64565b50826008811115610f8857610f88612093565b60018281548110610f9b57610f9b6120ad565b60009182526020909120600360059092020101805460ff19166001836008811115610fc857610fc8612093565b02179055508160018281548110610fe157610fe16120ad565b90600052602060002090600502016004019080519060200190611005929190611a64565b5085600160a060020a03166000805160206120e2833981519152866040516108429190611f76565b60063360009081526002602052604090206003015460ff16600881111561105657611056612093565b146110765760405160e560020a62461bcd0281526004016102ca90611fab565b60405160e160020a6333153429028152600160a060020a03848116600483015233602483015283169063662a685290604401600060405180830381600087803b1580156110c257600080fd5b505af11580156110d6573d6000803e3d6000fd5b50503360009081526004602081815260408320805460018101825590845292209091018054600160a060020a031916600160a060020a038816179055839250821115905061112657611126612093565b600160a060020a0384166000908152600560205260409020805460ff1916600183600481111561115857611158612093565b0217905550505050565b600060063360009081526002602052604090206003015460ff16600881111561118d5761118d612093565b146111ad5760405160e560020a62461bcd0281526004016102ca90611fab565b600160a060020a03821660009081526005602052604090205460ff1660048111156111da576111da612093565b90505b919050565b600054600160a060020a031633146105785760405160e560020a62461bcd0281526004016102ca90602080825260049082015260e060020a634f57434302604082015260600190565b6001818154811061123b57600080fd5b600091825260209091206005909102018054600182018054600160a060020a0390921693509061126a90612027565b80601f016020809104026020016040519081016040528092919081815260200182805461129690612027565b80156112e35780601f106112b8576101008083540402835291602001916112e3565b820191906000526020600020905b8154815290600101906020018083116112c657829003601f168201915b5050505050908060020180546112f890612027565b80601f016020809104026020016040519081016040528092919081815260200182805461132490612027565b80156113715780601f1061134657610100808354040283529160200191611371565b820191906000526020600020905b81548152906001019060200180831161135457829003601f168201915b5050506003840154600485018054949560ff90921694919350915061139590612027565b80601f01602080910402602001604051908101604052809291908181526020018280546113c190612027565b801561140e5780601f106113e35761010080835404028352916020019161140e565b820191906000526020600020905b8154815290600101906020018083116113f157829003601f168201915b5050505050905085565b60083360009081526002602052604090206003015460ff16600881111561144157611441612093565b146114615760405160e560020a62461bcd0281526004016102ca90611ff3565b600160a060020a038082166000818152600260205260409020549091161461149e5760405160e560020a62461bcd0281526004016102ca90611fcc565b60006114a982610b15565b60076060820152600160a060020a03838116600090815260026020908152604090912083518154600160a060020a031916931692909217825580830151805193945084936114fd9260018501920190611a64565b5060408201518051611519916002840191602090910190611a64565b50606082015160038201805460ff1916600183600881111561153d5761153d612093565b02179055506080820151805161155d916004840191602090910190611a64565b5090505081600160a060020a03167f18a4c0aa2d0b9e55cfd3c133652630cc693f845135ba74f56f45c8d38910ce5c8260200151836060015160088111156115a7576115a7612093565b6040516115b5929190611f89565b60405180910390a25050565b600060063360009081526002602052604090206003015460ff1660088111156115ec576115ec612093565b1461160c5760405160e560020a62461bcd0281526004016102ca90611fab565b33600090815260046020526040902080548390811061162d5761162d6120ad565b600091825260209091200154600160a060020a031692915050565b60063360009081526002602052604090206003015460ff16600881111561167157611671612093565b146116915760405160e560020a62461bcd0281526004016102ca90611fab565b6001600160a060020a03831660009081526005602052604090205460ff1660048111156116c0576116c0612093565b146117015760405160e560020a62461bcd02815260206004820152600b602482015260ac60020a6a04d5f4d5553545f41545f50260448201526064016102ca565b80600481111561171357611713612093565b600160a060020a0383166000908152600560205260409020805460ff1916600183600481111561174557611745612093565b021790555060408051600160a060020a03841681526020810183905233917f39d780ba2fe191afdd34b4fad3d9437f444a40cd591e644428260feb507076aa91016115b5565b600060063360009081526002602052604090206003015460ff1660088111156117b6576117b6612093565b146117d65760405160e560020a62461bcd0281526004016102ca90611fab565b503360009081526004602052604090205490565b6000805b60015481101561184b5782600160a060020a031660018281548110611815576118156120ad565b6000918252602090912060059091020154600160a060020a03161415611839578091505b8061184381612066565b9150506117ee565b5060405180604001604052806008815260200160c060020a67496e6163746976650281525060018281548110611883576118836120ad565b906000526020600020906005020160040190805190602001906118a7929190611a64565b505050565b6118b4611a1b565b600160a060020a03808416600081815260026020526040902054909116146118f15760405160e560020a62461bcd0281526004016102ca90611fcc565b81805190602001206002600085600160a060020a0316600160a060020a0316815260200190815260200160002060010160405161192e9190611e13565b6040518091039020146119565760405160e560020a62461bcd0281526004016102ca90611fcc565b6040805180820182526006815260d060020a6541637469766502602091820152600160a060020a0385166000908152600290915281902090517ff07b88471cd28dc438f2291190512bd968fbd79b8c86b9ed015e51c1261d911f916119c091600490910190611e13565b604051809103902014611a0b5760405160e560020a62461bcd02815260206004820152600d6024820152609860020a6c5553525f4e545f4143544956450260448201526064016102ca565b611a1483610b15565b9392505050565b6040518060a001604052806000600160a060020a03168152602001606081526020016060815260200160006008811115611a5757611a57612093565b8152602001606081525090565b828054611a7090612027565b90600052602060002090601f016020900481019282611a925760008555611ad8565b82601f10611aab57805160ff1916838001178555611ad8565b82800160010185558215611ad8579182015b82811115611ad8578251825591602001919060010190611abd565b50611ae4929150611ae8565b5090565b5b80821115611ae45760008155600101611ae9565b8035600160a060020a03811681146111dd57600080fd5b600082601f830112611b2557600080fd5b81356001604060020a0380821115611b3f57611b3f6120c7565b604051601f8301601f19908116603f01168101908282118183101715611b6757611b676120c7565b81604052838152866020858801011115611b8057600080fd5b836020870160208301376000602085830101528094505050505092915050565b600060208284031215611bb257600080fd5b611a1482611afd565b600080600060608486031215611bd057600080fd5b611bd984611afd565b9250611be760208501611afd565b9150604084013590509250925092565b60008060408385031215611c0a57600080fd5b611c1383611afd565b915060208301356001604060020a03811115611c2e57600080fd5b611c3a85828601611b14565b9150509250929050565b600080600080600060a08688031215611c5c57600080fd5b611c6586611afd565b945060208601356001604060020a0380821115611c8157600080fd5b611c8d89838a01611b14565b95506040880135915080821115611ca357600080fd5b611caf89838a01611b14565b9450606088013593506080880135915080821115611ccc57600080fd5b50611cd988828901611b14565b9150509295509295909350565b60008060408385031215611cf957600080fd5b611d0283611afd565b946020939093013593505050565b600060208284031215611d2257600080fd5b5035919050565b60098110611d4b5760e060020a634e487b710260009081526021600452602490fd5b9052565b6000815180845260005b81811015611d7557602081850181015186830182015201611d59565b81811115611d87576000602083870101525b50601f01601f19169290920160200192915050565b600160a060020a0381511682526000602082015160a06020850152611dc460a0850182611d4f565b905060408301518482036040860152611ddd8282611d4f565b9150506060830151611df26060860182611d29565b5060808301518482036080860152611e0a8282611d4f565b95945050505050565b8154600090819060028104600180831680611e2f57607f831692505b6020808410821415611e525760e060020a634e487b710286526022600452602486fd5b818015611e665760018114611e7757611ea4565b60ff19861689528489019650611ea4565b60008a81526020902060005b86811015611e9c5781548b820152908501908301611e83565b505084890196505b509498975050505050505050565b600160a060020a038616815260a060208201819052600090611ed690830187611d4f565b8281036040840152611ee88187611d4f565b9050611ef76060840186611d29565b8281036080840152611f098185611d4f565b98975050505050505050565b600060208083018184528085518083526040860191506040848202870101925083870160005b82811015611f6957603f19888603018452611f57858351611d9c565b94509285019290850190600101611f3b565b5092979650505050505050565b602081526000611a146020830184611d4f565b604081526000611f9c6040830185611d4f565b90508260208301529392505050565b602080825260049082015260e060020a634f50434302604082015260600190565b6020808252600a9082015260b060020a695553525f4e545f52454702604082015260600190565b602080825260049082015260e060020a634f41434302604082015260600190565b602081526000611a146020830184611d9c565b60028104600182168061203b57607f821691505b602082108114156120605760e060020a634e487b710260009081526022600452602490fd5b50919050565b600060001982141561208c5760e060020a634e487b710260009081526011600452602490fd5b5060010190565b60e060020a634e487b710260009081526021600452602490fd5b60e060020a634e487b710260009081526032600452602490fd5b60e060020a634e487b710260009081526041600452602490fdfe48cac28ad4dc618e15f4c2dd5e97751182f166de97b25618318b2112aa951a2fa2646970667358221220472f9864403b4f8e80842cf8686ff8466cb35dbb35a38467a94c4b776fea07b564736f6c63430008060033",
  "immutableReferences": {},
  "source": "// SPDX-License-Identifier: MIT\r\npragma solidity >=0.4.22 <0.9.0;\r\npragma experimental ABIEncoderV2;\r\n\r\nimport \"./User.sol\";\r\nimport \"./Medicine.sol\";\r\nimport \"./MedicineDP.sol\";\r\n\r\ncontract Pharma is User {\r\n    mapping(address => address[]) MedicinePackagesReceivedAtPharma; // Track list of medicine batches received by each pharma.\r\n    mapping(address => status) MedicineSaleStatusAtPharma; // Track sale status of each medicine ID received/sold/expired/damage at Pharma.\r\n\r\n    enum status {\r\n        notFound,\r\n        atPharma,\r\n        sold,\r\n        expire,\r\n        damaged\r\n    }\r\n\r\n    //Event\r\n    event MedicineStatusUpdated(\r\n        address MedicineID,\r\n        address indexed Pharma,\r\n        uint256 MedicineStatus\r\n    );\r\n\r\n    modifier onlyPharma {\r\n        require(UsersDetails[msg.sender].userRole == roles.pharma, \"OPCC\"); //\"Only Pharma can call this function.\"\r\n        _;\r\n    }\r\n\r\n    //Recieve & update medicine package shippment status for supplied package ID by tagged/associated receiver/distributor. Update MedicinePackagesReceivedAtDistributor mapping\r\n    //@param _packageID Medicine/Package/batch ID Address\r\n    function updateRecievedMedicineBatchStatus(\r\n        address _medicineID,\r\n        address _subContractID,\r\n        uint256 _medicineStatus\r\n    ) public onlyPharma {\r\n        MedicineDP(_subContractID).receivedPackageDP(_medicineID, msg.sender);\r\n        MedicinePackagesReceivedAtPharma[msg.sender].push(_medicineID);\r\n        MedicineSaleStatusAtPharma[_medicineID] = status(_medicineStatus);\r\n    }\r\n\r\n    //Update medicine sale status for supplied medicineID. Only Pharma can call this.\r\n    function updateMedicineSaleStatus(address _medicineID, uint256 _status)\r\n        public\r\n        onlyPharma\r\n    {\r\n        require(\r\n            MedicineSaleStatusAtPharma[_medicineID] == status.atPharma,\r\n            \"M_MUST_AT_P\"\r\n        ); //\"Medicine must be at Pharma.\"\r\n        MedicineSaleStatusAtPharma[_medicineID] = status(_status);\r\n        emit MedicineStatusUpdated(_medicineID, msg.sender, _status);\r\n    }\r\n\r\n    //Retrieve medicine sale status updated by pharma for supplied medicineID. Only Pharma can call this.\r\n    function getMedicineSaleStatusByID(address _medicineID)\r\n        public\r\n        view\r\n        onlyPharma\r\n        returns (uint256)\r\n    {\r\n        return uint256(MedicineSaleStatusAtPharma[_medicineID]);\r\n    }\r\n\r\n    //Retrieve number of medicine batches received by each pharma. Only Pharma can call this.\r\n    function getReceivedMedicineBatchesCount()\r\n        public\r\n        view\r\n        onlyPharma\r\n        returns (uint256)\r\n    {\r\n        return MedicinePackagesReceivedAtPharma[msg.sender].length;\r\n    }\r\n\r\n    //Retrieve  medicine/package ID using index received by Pharma. Only Pharma can call this.\r\n    //@param _index Uint\r\n    function getReceivedMedicineIDByIndex(uint256 _index)\r\n        public\r\n        view\r\n        onlyPharma\r\n        returns (address)\r\n    {\r\n        return MedicinePackagesReceivedAtPharma[msg.sender][_index];\r\n    }\r\n}\r\n",
  "sourcePath": "C:\\Development\\Blockchain\\Learning-2\\contracts\\Pharma.sol",
  "compiler": {
    "name": "solc",
    "version": "0.8.6+commit.11564f7e.Emscripten.clang"
  },
  "schemaVersion": "3.4.1",
  "updatedAt": "2021-07-07T13:26:47.795Z",
  "devdoc": {
    "kind": "dev",
    "methods": {},
    "version": 1
  },
  "userdoc": {
    "kind": "user",
    "methods": {},
    "version": 1
  }
}