{
  "contractName": "Pharma",
  "abi": [
    {
      "inputs": [],
      "name": "TotalMedicineSubBatchesDelivered",
      "outputs": [
        {
          "internalType": "uint256",
          "name": "",
          "type": "uint256"
        }
      ],
      "stateMutability": "view",
      "type": "function"
    },
    {
      "inputs": [
        {
          "internalType": "uint256",
          "name": "",
          "type": "uint256"
        }
      ],
      "name": "UserList",
      "outputs": [
        {
          "internalType": "address",
          "name": "userAddress",
          "type": "address"
        },
        {
          "internalType": "string",
          "name": "userName",
          "type": "string"
        },
        {
          "internalType": "string",
          "name": "userLocation",
          "type": "string"
        },
        {
          "internalType": "enum User.roles",
          "name": "userRole",
          "type": "uint8"
        },
        {
          "internalType": "string",
          "name": "userStatus",
          "type": "string"
        },
        {
          "internalType": "bool",
          "name": "isDeleted",
          "type": "bool"
        }
      ],
      "stateMutability": "view",
      "type": "function"
    },
    {
      "inputs": [
        {
          "internalType": "address",
          "name": "_address",
          "type": "address"
        }
      ],
      "name": "deleteUser",
      "outputs": [],
      "stateMutability": "nonpayable",
      "type": "function"
    },
    {
      "inputs": [],
      "name": "owner",
      "outputs": [
        {
          "internalType": "address",
          "name": "",
          "type": "address"
        }
      ],
      "stateMutability": "view",
      "type": "function"
    },
    {
      "inputs": [
        {
          "internalType": "string",
          "name": "_customerName",
          "type": "string"
        },
        {
          "internalType": "uint256",
          "name": "_customerAge",
          "type": "uint256"
        },
        {
          "internalType": "string",
          "name": "_doctorName",
          "type": "string"
        },
        {
          "internalType": "uint256",
          "name": "_quantity",
          "type": "uint256"
        },
        {
          "internalType": "uint256",
          "name": "_amountPaid",
          "type": "uint256"
        },
        {
          "internalType": "address",
          "name": "_medicineId",
          "type": "address"
        },
        {
          "internalType": "address",
          "name": "_pharma",
          "type": "address"
        },
        {
          "internalType": "address",
          "name": "_materialId",
          "type": "address"
        }
      ],
      "name": "pushCustomerDetails",
      "outputs": [],
      "stateMutability": "nonpayable",
      "type": "function"
    },
    {
      "inputs": [
        {
          "internalType": "address",
          "name": "_address",
          "type": "address"
        },
        {
          "internalType": "string",
          "name": "_name",
          "type": "string"
        },
        {
          "internalType": "string",
          "name": "_location",
          "type": "string"
        },
        {
          "internalType": "uint256",
          "name": "_role",
          "type": "uint256"
        },
        {
          "internalType": "string",
          "name": "_userStatus",
          "type": "string"
        }
      ],
      "name": "registerAdmin",
      "outputs": [],
      "stateMutability": "nonpayable",
      "type": "function"
    },
    {
      "inputs": [
        {
          "internalType": "address",
          "name": "_address",
          "type": "address"
        },
        {
          "internalType": "string",
          "name": "_name",
          "type": "string"
        },
        {
          "internalType": "string",
          "name": "_location",
          "type": "string"
        },
        {
          "internalType": "uint256",
          "name": "_role",
          "type": "uint256"
        },
        {
          "internalType": "string",
          "name": "_userStatus",
          "type": "string"
        }
      ],
      "name": "registerUser",
      "outputs": [],
      "stateMutability": "nonpayable",
      "type": "function"
    },
    {
      "inputs": [
        {
          "internalType": "address",
          "name": "_address",
          "type": "address"
        },
        {
          "internalType": "string",
          "name": "_location",
          "type": "string"
        },
        {
          "internalType": "string",
          "name": "_userStatus",
          "type": "string"
        }
      ],
      "name": "updateUser",
      "outputs": [],
      "stateMutability": "nonpayable",
      "type": "function"
    },
    {
      "inputs": [
        {
          "internalType": "address",
          "name": "_medicineID",
          "type": "address"
        },
        {
          "internalType": "address",
          "name": "_subContractID",
          "type": "address"
        },
        {
          "internalType": "uint256",
          "name": "_medicineSaleStatus",
          "type": "uint256"
        }
      ],
      "name": "updateRecievedMedicineBatchStatus",
      "outputs": [],
      "stateMutability": "nonpayable",
      "type": "function"
    },
    {
      "inputs": [
        {
          "internalType": "string",
          "name": "_customerName",
          "type": "string"
        },
        {
          "internalType": "uint256",
          "name": "_customerAge",
          "type": "uint256"
        },
        {
          "internalType": "string",
          "name": "_doctorName",
          "type": "string"
        },
        {
          "internalType": "uint256",
          "name": "_quantity",
          "type": "uint256"
        },
        {
          "internalType": "uint256",
          "name": "_amountPaid",
          "type": "uint256"
        },
        {
          "internalType": "address",
          "name": "_medicineId",
          "type": "address"
        },
        {
          "internalType": "address",
          "name": "_materialId",
          "type": "address"
        },
        {
          "internalType": "uint256",
          "name": "_medicineStatus",
          "type": "uint256"
        }
      ],
      "name": "submitCustomerAndMedicineSaleDetails",
      "outputs": [],
      "stateMutability": "nonpayable",
      "type": "function"
    },
    {
      "inputs": [
        {
          "internalType": "address",
          "name": "_medicineID",
          "type": "address"
        },
        {
          "internalType": "uint256",
          "name": "_medicineStatus",
          "type": "uint256"
        }
      ],
      "name": "updateSaleStatus",
      "outputs": [],
      "stateMutability": "nonpayable",
      "type": "function"
    },
    {
      "inputs": [],
      "name": "getTotalMedicineSubBatchesDeliveredCount",
      "outputs": [
        {
          "internalType": "uint256",
          "name": "",
          "type": "uint256"
        }
      ],
      "stateMutability": "view",
      "type": "function"
    }
  ],
  "bytecode": "0x608060405234801561001057600080fd5b5060008054600160a060020a03191633179055611804806100326000396000f3fe608060405234801561001057600080fd5b50600436106100d1576000357c010000000000000000000000000000000000000000000000000000000090048063a00453c01161008e578063a00453c014610167578063a0a5992c1461017a578063a5dff9941461018c578063b50f6b6c14610195578063babe1655146101a8578063eae3c207146101cd57600080fd5b806310e8b22d146100d65780631e1055f8146100eb5780633bb3ec9e146100fe5780635c60f226146101115780637e8e8c5c146101245780638da5cb5b14610137575b600080fd5b6100e96100e4366004611300565b6101e0565b005b6100e96100f93660046114f4565b610448565b6100e961010c366004611374565b610574565b6100e961011f3660046112a2565b61088e565b6100e96101323660046112c4565b6109dc565b60005461014a90600160a060020a031681565b604051600160a060020a0390911681526020015b60405180910390f35b6100e9610175366004611374565b610af8565b6006545b60405190815260200161015e565b61017e60065481565b6100e96101a3366004611441565b610b57565b6101bb6101b63660046115a0565b610d6d565b60405161015e96959493929190611606565b6100e96101db366004611417565b610f63565b60083360009081526002602052604090206003015460ff16600881111561020957610209611783565b146102325760405160e560020a62461bcd028152600401610229906116c2565b60405180910390fd5b600160a060020a038084166000818152600260205260409020549091161461029f5760405160e560020a62461bcd02815260206004820152600a60248201527f5553525f4e545f524547000000000000000000000000000000000000000000006044820152606401610229565b600160a060020a03831660009081526002602052604090206005015460ff161561030e5760405160e560020a62461bcd02815260206004820152600b60248201527f5553525f44454c455445440000000000000000000000000000000000000000006044820152606401610229565b600160a060020a0383166000908152600260208181526040909220845161033d93919092019190850190611110565b50600160a060020a0383166000908152600260209081526040909120825161036d92600490920191840190611110565b506000805b6001548110156103cf5784600160a060020a0316600182815481106103995761039961179c565b6000918252602090912060069091020154600160a060020a031614156103bd578091505b806103c78161174f565b915050610372565b5082600182815481106103e4576103e461179c565b90600052602060002090600602016002019080519060200190610408929190611110565b50816001828154811061041d5761041d61179c565b90600052602060002090600602016004019080519060200190610441929190611110565b5050505050565b60063360009081526002602052604090206003015460ff16600881111561047157610471611783565b146104915760405160e560020a62461bcd0281526004016102299061168b565b6001600160a060020a03841660009081526005602052604090205460ff1660048111156104c0576104c0611783565b10156105115760405160e560020a62461bcd02815260206004820152600e60248201527f4d5f4d5553545f41545f415052440000000000000000000000000000000000006044820152606401610229565b80600481111561052357610523611783565b600160a060020a0384166000908152600560205260409020805460ff1916600183600481111561055557610555611783565b021790555061056a8888888888883389610b57565b5050505050505050565b60083360009081526002602052604090206003015460ff16600881111561059d5761059d611783565b146105bd5760405160e560020a62461bcd028152600401610229906116c2565b600160a060020a03808616600081815260026020526040902054909116141561062b5760405160e560020a62461bcd02815260206004820152600960248201527f5553525f455849535400000000000000000000000000000000000000000000006044820152606401610229565b610633611194565b600160a060020a0386168152602081018590526040810184905282600881111561065f5761065f611783565b8160600190600881111561067557610675611783565b9081600881111561068857610688611783565b90525060808101829052600060a08201819052600160a060020a0387811682526002602090815260409092208351815473ffffffffffffffffffffffffffffffffffffffff1916921691909117815581830151805184936106f0926001850192910190611110565b506040820151805161070c916002840191602090910190611110565b50606082015160038201805460ff1916600183600881111561073057610730611783565b021790555060808201518051610750916004840191602090910190611110565b5060a091909101516005909101805460ff191691151591909117905560018054808201825560009190915281517fb10e2d527612073b26eecdfd717e6a320cf44b4afac2b0732d9fcbe2b7fa0cf66006909202918201805473ffffffffffffffffffffffffffffffffffffffff1916600160a060020a039092169190911781556020808401518051859461080a937fb10e2d527612073b26eecdfd717e6a320cf44b4afac2b0732d9fcbe2b7fa0cf7909101920190611110565b5060408201518051610826916002840191602090910190611110565b50606082015160038201805460ff1916600183600881111561084a5761084a611783565b02179055506080820151805161086a916004840191602090910190611110565b5060a091909101516005909101805460ff1916911515919091179055505050505050565b60083360009081526002602052604090206003015460ff1660088111156108b7576108b7611783565b146108d75760405160e560020a62461bcd028152600401610229906116c2565b600160a060020a03808216600081815260026020526040902054909116146109445760405160e560020a62461bcd02815260206004820152600a60248201527f5553525f4e545f524547000000000000000000000000000000000000000000006044820152606401610229565b604080518082018252600881527f496e6163746976650000000000000000000000000000000000000000000000006020808301918252600160a060020a038516600090815260029091529290922090516109a49260049092019190611110565b50600160a060020a0381166000908152600260205260409020600501805460ff191660019081179091556109d9908290610ff9565b50565b60063360009081526002602052604090206003015460ff166008811115610a0557610a05611783565b14610a255760405160e560020a62461bcd0281526004016102299061168b565b6040517fb946588c000000000000000000000000000000000000000000000000000000008152600160a060020a03848116600483015283169063b946588c90602401600060405180830381600087803b158015610a8157600080fd5b505af1158015610a95573d6000803e3d6000fd5b50505050806004811115610aab57610aab611783565b600160a060020a0384166000908152600560205260409020805460ff19166001836004811115610add57610add611783565b0217905550600654610af09060016116f9565b600655505050565b600054600160a060020a031633146105bd5760405160e560020a62461bcd0281526004016102299060208082526004908201527f4f57434300000000000000000000000000000000000000000000000000000000604082015260600190565b610ba96040518060e0016040528060608152602001600081526020016060815260200160008152602001600081526020016000600160a060020a031681526020016000600160a060020a031681525090565b888152602080820189905260408083018990526060830188905260808301879052600160a060020a0380851660c0850152861660a08401819052600090815260038352908120805460018101825590825290829020835180518594600790940290920192610c1c92849290910190611110565b50602082810151600183015560408301518051610c3f9260028501920190611110565b5060608201516003820155608082015160048083019190915560a083015160058301805473ffffffffffffffffffffffffffffffffffffffff19908116600160a060020a039384161790915560c090940151600690930180549094169281169290921790925584166000908152602091825260408120805460018101825590825290829020835180518594600790940290920192610ce292849290910190611110565b50602082810151600183015560408301518051610d059260028501920190611110565b50606082015160038201556080820151600482015560a082015160058201805473ffffffffffffffffffffffffffffffffffffffff19908116600160a060020a039384161790915560c090930151600690920180549093169116179055505050505050505050565b60018181548110610d7d57600080fd5b600091825260209091206006909102018054600182018054600160a060020a03909216935090610dac90611711565b80601f0160208091040260200160405190810160405280929190818152602001828054610dd890611711565b8015610e255780601f10610dfa57610100808354040283529160200191610e25565b820191906000526020600020905b815481529060010190602001808311610e0857829003601f168201915b505050505090806002018054610e3a90611711565b80601f0160208091040260200160405190810160405280929190818152602001828054610e6690611711565b8015610eb35780601f10610e8857610100808354040283529160200191610eb3565b820191906000526020600020905b815481529060010190602001808311610e9657829003601f168201915b5050506003840154600485018054949560ff909216949193509150610ed790611711565b80601f0160208091040260200160405190810160405280929190818152602001828054610f0390611711565b8015610f505780601f10610f2557610100808354040283529160200191610f50565b820191906000526020600020905b815481529060010190602001808311610f3357829003601f168201915b5050506005909301549192505060ff1686565b60063360009081526002602052604090206003015460ff166008811115610f8c57610f8c611783565b14610fac5760405160e560020a62461bcd0281526004016102299061168b565b806004811115610fbe57610fbe611783565b600160a060020a0383166000908152600560205260409020805460ff19166001836004811115610ff057610ff0611783565b02179055505050565b6000805b60015481101561105a5783600160a060020a0316600182815481106110245761102461179c565b6000918252602090912060069091020154600160a060020a03161415611048578091505b806110528161174f565b915050610ffd565b506040518060400160405280600881526020017f496e616374697665000000000000000000000000000000000000000000000000815250600182815481106110a4576110a461179c565b906000526020600020906006020160040190805190602001906110c8929190611110565b506001821515141561110b5760018082815481106110e8576110e861179c565b60009182526020909120600690910201600501805460ff19169115159190911790555b505050565b82805461111c90611711565b90600052602060002090601f01602090048101928261113e5760008555611184565b82601f1061115757805160ff1916838001178555611184565b82800160010185558215611184579182015b82811115611184578251825591602001919060010190611169565b506111909291506111e4565b5090565b6040518060c001604052806000600160a060020a031681526020016060815260200160608152602001600060088111156111d0576111d0611783565b815260606020820152600060409091015290565b5b8082111561119057600081556001016111e5565b8035600160a060020a038116811461121057600080fd5b919050565b600082601f83011261122657600080fd5b813567ffffffffffffffff80821115611241576112416117b5565b604051601f8301601f19908116603f01168101908282118183101715611269576112696117b5565b8160405283815286602085880101111561128257600080fd5b836020870160208301376000602085830101528094505050505092915050565b6000602082840312156112b457600080fd5b6112bd826111f9565b9392505050565b6000806000606084860312156112d957600080fd5b6112e2846111f9565b92506112f0602085016111f9565b9150604084013590509250925092565b60008060006060848603121561131557600080fd5b61131e846111f9565b9250602084013567ffffffffffffffff8082111561133b57600080fd5b61134787838801611215565b9350604086013591508082111561135d57600080fd5b5061136a86828701611215565b9150509250925092565b600080600080600060a0868803121561138c57600080fd5b611395866111f9565b9450602086013567ffffffffffffffff808211156113b257600080fd5b6113be89838a01611215565b955060408801359150808211156113d457600080fd5b6113e089838a01611215565b94506060880135935060808801359150808211156113fd57600080fd5b5061140a88828901611215565b9150509295509295909350565b6000806040838503121561142a57600080fd5b611433836111f9565b946020939093013593505050565b600080600080600080600080610100898b03121561145e57600080fd5b883567ffffffffffffffff8082111561147657600080fd5b6114828c838d01611215565b995060208b0135985060408b013591508082111561149f57600080fd5b506114ac8b828c01611215565b96505060608901359450608089013593506114c960a08a016111f9565b92506114d760c08a016111f9565b91506114e560e08a016111f9565b90509295985092959890939650565b600080600080600080600080610100898b03121561151157600080fd5b883567ffffffffffffffff8082111561152957600080fd5b6115358c838d01611215565b995060208b0135985060408b013591508082111561155257600080fd5b5061155f8b828c01611215565b965050606089013594506080890135935061157c60a08a016111f9565b925061158a60c08a016111f9565b915060e089013590509295985092959890939650565b6000602082840312156115b257600080fd5b5035919050565b6000815180845260005b818110156115df576020818501810151868301820152016115c3565b818111156115f1576000602083870101525b50601f01601f19169290920160200192915050565b600160a060020a038716815260c06020820152600061162860c08301886115b9565b828103604084015261163a81886115b9565b90506009861061165d5760e060020a634e487b7102600052602160045260246000fd5b856060840152828103608084015261167581866115b9565b91505082151560a0830152979650505050505050565b60208082526004908201527f4f50434300000000000000000000000000000000000000000000000000000000604082015260600190565b60208082526004908201527f4f41434300000000000000000000000000000000000000000000000000000000604082015260600190565b6000821982111561170c5761170c61176a565b500190565b60028104600182168061172557607f821691505b602082108114156117495760e060020a634e487b7102600052602260045260246000fd5b50919050565b60006000198214156117635761176361176a565b5060010190565b60e060020a634e487b7102600052601160045260246000fd5b60e060020a634e487b7102600052602160045260246000fd5b60e060020a634e487b7102600052603260045260246000fd5b60e060020a634e487b7102600052604160045260246000fdfea26469706673582212206f9fdecbb1ce351c6d95dbee0394e2c7723b7d1a206cfb4b4d83ffabd23647b764736f6c63430008060033",
  "immutableReferences": {},
  "source": "// SPDX-License-Identifier: MIT\r\npragma solidity >=0.4.22 <0.9.0;\r\npragma experimental ABIEncoderV2;\r\n\r\nimport \"./User.sol\";\r\nimport \"./Medicine.sol\";\r\nimport \"./MedicineDP.sol\";\r\nimport \"./Customer.sol\";\r\n\r\ncontract Pharma is User, Customer {\r\n    mapping(address => status) MedicineSaleStatusAtPharma; // Track sale status of each medicine ID received/sold/expired/damage at Pharma.\r\n    uint256 public TotalMedicineSubBatchesDelivered;\r\n\r\n    enum status {\r\n        notFound,\r\n        approved,\r\n        expired,\r\n        damaged,\r\n        sold\r\n    }\r\n\r\n    modifier onlyPharma {\r\n        require(UsersDetails[msg.sender].userRole == roles.pharma, \"OPCC\"); //\"Only Pharma can call this function.\"\r\n        _;\r\n    }\r\n\r\n    //Recieve & update medicine package shippment status for supplied package ID by tagged/associated receiver/distributor. Update MedicinePackagesReceivedAtDistributor mapping\r\n    //@param _packageID Medicine/Package/batch ID Address\r\n    function updateRecievedMedicineBatchStatus(\r\n        address _medicineID,\r\n        address _subContractID,\r\n        uint256 _medicineSaleStatus\r\n    ) public onlyPharma {\r\n        MedicineDP(_subContractID).receivedPackageDP(_medicineID);\r\n        MedicineSaleStatusAtPharma[_medicineID] = status(_medicineSaleStatus);\r\n        TotalMedicineSubBatchesDelivered = TotalMedicineSubBatchesDelivered + 1;\r\n    }\r\n\r\n    function submitCustomerAndMedicineSaleDetails(\r\n        string memory _customerName,\r\n        uint256 _customerAge,\r\n        string memory _doctorName,\r\n        uint256 _quantity,\r\n        uint256 _amountPaid,\r\n        address _medicineId,\r\n        address _materialId,\r\n        uint256 _medicineStatus\r\n    ) public onlyPharma {\r\n        require(\r\n            MedicineSaleStatusAtPharma[_medicineId] >= status.approved,\r\n            \"M_MUST_AT_APRD\"\r\n        ); //\"Medicine must be at Pharma.\"\r\n        MedicineSaleStatusAtPharma[_medicineId] = status(_medicineStatus);\r\n        pushCustomerDetails(\r\n            _customerName,\r\n            _customerAge,\r\n            _doctorName,\r\n            _quantity,\r\n            _amountPaid,\r\n            _medicineId,\r\n            msg.sender,\r\n            _materialId\r\n        );\r\n    }\r\n\r\n    function updateSaleStatus(address _medicineID, uint256 _medicineStatus)\r\n        public\r\n        onlyPharma\r\n    {\r\n        MedicineSaleStatusAtPharma[_medicineID] = status(_medicineStatus);\r\n    }\r\n\r\n    function getTotalMedicineSubBatchesDeliveredCount()\r\n        public\r\n        view\r\n        returns (uint256)\r\n    {\r\n        return TotalMedicineSubBatchesDelivered;\r\n    }\r\n}\r\n",
  "sourcePath": "C:\\Development\\Blockchain\\Learning-2\\contracts\\Pharma.sol",
  "compiler": {
    "name": "solc",
    "version": "0.8.6+commit.11564f7e.Emscripten.clang"
  },
  "schemaVersion": "3.4.1",
  "updatedAt": "2021-07-30T15:10:34.491Z",
  "devdoc": {
    "kind": "dev",
    "methods": {},
    "version": 1
  },
  "userdoc": {
    "kind": "user",
    "methods": {},
    "version": 1
  }
}