{
  "contractName": "Pharma",
  "abi": [
    {
      "anonymous": false,
      "inputs": [
        {
          "indexed": false,
          "internalType": "address",
          "name": "subContractId",
          "type": "address"
        },
        {
          "indexed": false,
          "internalType": "address",
          "name": "medicineId",
          "type": "address"
        },
        {
          "indexed": false,
          "internalType": "uint256",
          "name": "packageStatus",
          "type": "uint256"
        },
        {
          "indexed": false,
          "internalType": "uint256[]",
          "name": "transactionBlocksDP",
          "type": "uint256[]"
        }
      ],
      "name": "UpdatedMedicineSubBatchStatusOnReceived",
      "type": "event"
    },
    {
      "inputs": [],
      "name": "TotalMedicineSubBatchesDelivered",
      "outputs": [
        {
          "internalType": "uint256",
          "name": "",
          "type": "uint256"
        }
      ],
      "stateMutability": "view",
      "type": "function"
    },
    {
      "inputs": [
        {
          "internalType": "uint256",
          "name": "",
          "type": "uint256"
        }
      ],
      "name": "UserList",
      "outputs": [
        {
          "internalType": "address",
          "name": "userAddress",
          "type": "address"
        },
        {
          "internalType": "string",
          "name": "userName",
          "type": "string"
        },
        {
          "internalType": "string",
          "name": "userLocation",
          "type": "string"
        },
        {
          "internalType": "enum User.roles",
          "name": "userRole",
          "type": "uint8"
        },
        {
          "internalType": "string",
          "name": "userStatus",
          "type": "string"
        },
        {
          "internalType": "bool",
          "name": "isDeleted",
          "type": "bool"
        },
        {
          "internalType": "uint256",
          "name": "registrationDate",
          "type": "uint256"
        }
      ],
      "stateMutability": "view",
      "type": "function"
    },
    {
      "inputs": [
        {
          "internalType": "address",
          "name": "_address",
          "type": "address"
        }
      ],
      "name": "deleteUser",
      "outputs": [],
      "stateMutability": "nonpayable",
      "type": "function"
    },
    {
      "inputs": [],
      "name": "owner",
      "outputs": [
        {
          "internalType": "address",
          "name": "",
          "type": "address"
        }
      ],
      "stateMutability": "view",
      "type": "function"
    },
    {
      "inputs": [
        {
          "internalType": "string",
          "name": "_customerName",
          "type": "string"
        },
        {
          "internalType": "uint256",
          "name": "_customerAge",
          "type": "uint256"
        },
        {
          "internalType": "string",
          "name": "_doctorName",
          "type": "string"
        },
        {
          "internalType": "uint256",
          "name": "_quantity",
          "type": "uint256"
        },
        {
          "internalType": "uint256",
          "name": "_amountPaid",
          "type": "uint256"
        },
        {
          "internalType": "address",
          "name": "_medicineId",
          "type": "address"
        },
        {
          "internalType": "address",
          "name": "_pharma",
          "type": "address"
        },
        {
          "internalType": "address",
          "name": "_materialId",
          "type": "address"
        }
      ],
      "name": "pushCustomerDetails",
      "outputs": [],
      "stateMutability": "nonpayable",
      "type": "function"
    },
    {
      "inputs": [
        {
          "internalType": "address",
          "name": "_address",
          "type": "address"
        },
        {
          "internalType": "string",
          "name": "_name",
          "type": "string"
        },
        {
          "internalType": "string",
          "name": "_location",
          "type": "string"
        },
        {
          "internalType": "uint256",
          "name": "_role",
          "type": "uint256"
        },
        {
          "internalType": "string",
          "name": "_userStatus",
          "type": "string"
        }
      ],
      "name": "registerAdmin",
      "outputs": [],
      "stateMutability": "nonpayable",
      "type": "function"
    },
    {
      "inputs": [
        {
          "internalType": "address",
          "name": "_address",
          "type": "address"
        },
        {
          "internalType": "string",
          "name": "_name",
          "type": "string"
        },
        {
          "internalType": "string",
          "name": "_location",
          "type": "string"
        },
        {
          "internalType": "uint256",
          "name": "_role",
          "type": "uint256"
        },
        {
          "internalType": "string",
          "name": "_userStatus",
          "type": "string"
        }
      ],
      "name": "registerUser",
      "outputs": [],
      "stateMutability": "nonpayable",
      "type": "function"
    },
    {
      "inputs": [
        {
          "internalType": "address",
          "name": "_address",
          "type": "address"
        },
        {
          "internalType": "string",
          "name": "_location",
          "type": "string"
        },
        {
          "internalType": "string",
          "name": "_userStatus",
          "type": "string"
        }
      ],
      "name": "updateUser",
      "outputs": [],
      "stateMutability": "nonpayable",
      "type": "function"
    },
    {
      "inputs": [
        {
          "internalType": "address",
          "name": "_medicineID",
          "type": "address"
        },
        {
          "internalType": "address",
          "name": "_subContractID",
          "type": "address"
        },
        {
          "internalType": "uint256",
          "name": "_medicineSaleStatus",
          "type": "uint256"
        }
      ],
      "name": "updateRecievedMedicineBatchStatus",
      "outputs": [],
      "stateMutability": "nonpayable",
      "type": "function"
    },
    {
      "inputs": [
        {
          "internalType": "address",
          "name": "_subContractId",
          "type": "address"
        },
        {
          "internalType": "string",
          "name": "_customerName",
          "type": "string"
        },
        {
          "internalType": "uint256",
          "name": "_customerAge",
          "type": "uint256"
        },
        {
          "internalType": "string",
          "name": "_doctorName",
          "type": "string"
        },
        {
          "internalType": "uint256",
          "name": "_quantity",
          "type": "uint256"
        },
        {
          "internalType": "uint256",
          "name": "_amountPaid",
          "type": "uint256"
        },
        {
          "internalType": "address",
          "name": "_medicineId",
          "type": "address"
        },
        {
          "internalType": "address",
          "name": "_materialId",
          "type": "address"
        },
        {
          "internalType": "uint256",
          "name": "_medicineStatus",
          "type": "uint256"
        }
      ],
      "name": "submitCustomerAndMedicineSaleDetails",
      "outputs": [],
      "stateMutability": "nonpayable",
      "type": "function"
    },
    {
      "inputs": [
        {
          "internalType": "address",
          "name": "_subContractId",
          "type": "address"
        },
        {
          "internalType": "uint256",
          "name": "_medicineStatus",
          "type": "uint256"
        }
      ],
      "name": "updateSaleStatus",
      "outputs": [],
      "stateMutability": "nonpayable",
      "type": "function"
    },
    {
      "inputs": [],
      "name": "getTotalMedicineSubBatchesDeliveredCount",
      "outputs": [
        {
          "internalType": "uint256",
          "name": "",
          "type": "uint256"
        }
      ],
      "stateMutability": "view",
      "type": "function"
    },
    {
      "inputs": [
        {
          "internalType": "address",
          "name": "_subContractId",
          "type": "address"
        }
      ],
      "name": "rejectMedicineSubBatch",
      "outputs": [],
      "stateMutability": "nonpayable",
      "type": "function"
    },
    {
      "inputs": [
        {
          "internalType": "address",
          "name": "_subContractId",
          "type": "address"
        }
      ],
      "name": "approveMedicineSubBatch",
      "outputs": [],
      "stateMutability": "nonpayable",
      "type": "function"
    }
  ],
  "bytecode": "0x608060405234801561001057600080fd5b50336000806101000a81548173ffffffffffffffffffffffffffffffffffffffff021916908373ffffffffffffffffffffffffffffffffffffffff16021790555061376f806100606000396000f3fe608060405234801561001057600080fd5b5060043610610107576000357c010000000000000000000000000000000000000000000000000000000090048063a00453c0116100a9578063b50f6b6c11610083578063b50f6b6c1461022a578063babe165514610246578063eae3c2071461027c578063f6a3f2c51461029857610107565b8063a00453c0146101d2578063a0a5992c146101ee578063a5dff9941461020c57610107565b80633fd6f50a116100e55780633fd6f50a146101605780635c60f2261461017c5780637e8e8c5c146101985780638da5cb5b146101b457610107565b806310e8b22d1461010c5780631be95769146101285780633bb3ec9e14610144575b600080fd5b610126600480360381019061012191906129f5565b6102b4565b005b610142600480360381019061013d9190612b4f565b61069e565b005b61015e60048036038101906101599190612a80565b61089c565b005b61017a60048036038101906101759190612948565b610d44565b005b61019660048036038101906101919190612948565b6110b2565b005b6101b260048036038101906101ad91906129a2565b61132d565b005b6101bc6114fd565b6040516101c9919061303e565b60405180910390f35b6101ec60048036038101906101e79190612a80565b611521565b005b6101f66119a1565b6040516102039190613209565b60405180910390f35b6102146119ab565b6040516102219190613209565b60405180910390f35b610244600480360381019061023f9190612d07565b6119b1565b005b610260600480360381019061025b9190612df5565b611d06565b60405161027397969594939291906130a5565b60405180910390f35b61029660048036038101906102919190612c51565b611f2a565b005b6102b260048036038101906102ad9190612948565b612111565b005b600860098111156102c8576102c76134db565b5b600260003373ffffffffffffffffffffffffffffffffffffffff1673ffffffffffffffffffffffffffffffffffffffff16815260200190815260200160002060030160009054906101000a900460ff16600981111561032a576103296134db565b5b1461036a576040517f08c379a000000000000000000000000000000000000000000000000000000000815260040161036190613169565b60405180910390fd5b8273ffffffffffffffffffffffffffffffffffffffff16600260008573ffffffffffffffffffffffffffffffffffffffff1673ffffffffffffffffffffffffffffffffffffffff16815260200190815260200160002060000160009054906101000a900473ffffffffffffffffffffffffffffffffffffffff1673ffffffffffffffffffffffffffffffffffffffff161461043a576040517f08c379a000000000000000000000000000000000000000000000000000000000815260040161043190613149565b60405180910390fd5b60001515600260008573ffffffffffffffffffffffffffffffffffffffff1673ffffffffffffffffffffffffffffffffffffffff16815260200190815260200160002060050160009054906101000a900460ff161515146104d0576040517f08c379a00000000000000000000000000000000000000000000000000000000081526004016104c7906131e9565b60405180910390fd5b81600260008573ffffffffffffffffffffffffffffffffffffffff1673ffffffffffffffffffffffffffffffffffffffff168152602001908152602001600020600201908051906020019061052692919061265e565b5080600260008573ffffffffffffffffffffffffffffffffffffffff1673ffffffffffffffffffffffffffffffffffffffff168152602001908152602001600020600401908051906020019061057d92919061265e565b50600080600090505b600180549050811015610623578473ffffffffffffffffffffffffffffffffffffffff16600182815481106105be576105bd613539565b5b906000526020600020906007020160000160009054906101000a900473ffffffffffffffffffffffffffffffffffffffff1673ffffffffffffffffffffffffffffffffffffffff161415610610578091505b808061061b90613463565b915050610586565b50826001828154811061063957610638613539565b5b9060005260206000209060070201600201908051906020019061065d92919061265e565b50816001828154811061067357610672613539565b5b9060005260206000209060070201600401908051906020019061069792919061265e565b5050505050565b600660098111156106b2576106b16134db565b5b600260003373ffffffffffffffffffffffffffffffffffffffff1673ffffffffffffffffffffffffffffffffffffffff16815260200190815260200160002060030160009054906101000a900460ff166009811115610714576107136134db565b5b14610754576040517f08c379a000000000000000000000000000000000000000000000000000000000815260040161074b90613129565b60405180910390fd5b60006002811115610768576107676134db565b5b600560008b73ffffffffffffffffffffffffffffffffffffffff1673ffffffffffffffffffffffffffffffffffffffff16815260200190815260200160002060009054906101000a900460ff1660028111156107c7576107c66134db565b5b1015610808576040517f08c379a00000000000000000000000000000000000000000000000000000000081526004016107ff906131c9565b60405180910390fd5b80600281111561081b5761081a6134db565b5b600560008b73ffffffffffffffffffffffffffffffffffffffff1673ffffffffffffffffffffffffffffffffffffffff16815260200190815260200160002060006101000a81548160ff0219169083600281111561087c5761087b6134db565b5b021790555061089188888888888833896119b1565b505050505050505050565b600860098111156108b0576108af6134db565b5b600260003373ffffffffffffffffffffffffffffffffffffffff1673ffffffffffffffffffffffffffffffffffffffff16815260200190815260200160002060030160009054906101000a900460ff166009811115610912576109116134db565b5b14610952576040517f08c379a000000000000000000000000000000000000000000000000000000000815260040161094990613169565b60405180910390fd5b8473ffffffffffffffffffffffffffffffffffffffff16600260008773ffffffffffffffffffffffffffffffffffffffff1673ffffffffffffffffffffffffffffffffffffffff16815260200190815260200160002060000160009054906101000a900473ffffffffffffffffffffffffffffffffffffffff1673ffffffffffffffffffffffffffffffffffffffff161415610a23576040517f08c379a0000000000000000000000000000000000000000000000000000000008152600401610a1a906131a9565b60405180910390fd5b610a2b6126e4565b85816000019073ffffffffffffffffffffffffffffffffffffffff16908173ffffffffffffffffffffffffffffffffffffffff1681525050848160200181905250838160400181905250826009811115610a8857610a876134db565b5b81606001906009811115610a9f57610a9e6134db565b5b90816009811115610ab357610ab26134db565b5b8152505081816080018190525060008160a0019015159081151581525050428160c001818152505080600260008873ffffffffffffffffffffffffffffffffffffffff1673ffffffffffffffffffffffffffffffffffffffff16815260200190815260200160002060008201518160000160006101000a81548173ffffffffffffffffffffffffffffffffffffffff021916908373ffffffffffffffffffffffffffffffffffffffff1602179055506020820151816001019080519060200190610b7e92919061265e565b506040820151816002019080519060200190610b9b92919061265e565b5060608201518160030160006101000a81548160ff02191690836009811115610bc757610bc66134db565b5b02179055506080820151816004019080519060200190610be892919061265e565b5060a08201518160050160006101000a81548160ff02191690831515021790555060c08201518160060155905050600181908060018154018082558091505060019003906000526020600020906007020160009091909190915060008201518160000160006101000a81548173ffffffffffffffffffffffffffffffffffffffff021916908373ffffffffffffffffffffffffffffffffffffffff1602179055506020820151816001019080519060200190610ca592919061265e565b506040820151816002019080519060200190610cc292919061265e565b5060608201518160030160006101000a81548160ff02191690836009811115610cee57610ced6134db565b5b02179055506080820151816004019080519060200190610d0f92919061265e565b5060a08201518160050160006101000a81548160ff02191690831515021790555060c082015181600601555050505050505050565b60066009811115610d5857610d576134db565b5b600260003373ffffffffffffffffffffffffffffffffffffffff1673ffffffffffffffffffffffffffffffffffffffff16815260200190815260200160002060030160009054906101000a900460ff166009811115610dba57610db96134db565b5b14610dfa576040517f08c379a0000000000000000000000000000000000000000000000000000000008152600401610df190613129565b60405180910390fd5b60008173ffffffffffffffffffffffffffffffffffffffff166340e900936040518163ffffffff167c0100000000000000000000000000000000000000000000000000000000028152600401602060405180830381600087803b158015610e6057600080fd5b505af1158015610e74573d6000803e3d6000fd5b505050506040513d601f19601f82011682018060405250810190610e989190612cda565b905080156110ae577f34ea3bb8298dee13b50177186c76e247da8ae44e9bf59ed824e34877dc338504828373ffffffffffffffffffffffffffffffffffffffff166340019e5d6040518163ffffffff167c010000000000000000000000000000000000000000000000000000000002815260040160206040518083038186803b158015610f2457600080fd5b505afa158015610f38573d6000803e3d6000fd5b505050506040513d601f19601f82011682018060405250810190610f5c9190612975565b8473ffffffffffffffffffffffffffffffffffffffff16631805de3b6040518163ffffffff167c010000000000000000000000000000000000000000000000000000000002815260040160206040518083038186803b158015610fbe57600080fd5b505afa158015610fd2573d6000803e3d6000fd5b505050506040513d601f19601f82011682018060405250810190610ff69190612e22565b8573ffffffffffffffffffffffffffffffffffffffff166330fa86aa6040518163ffffffff167c010000000000000000000000000000000000000000000000000000000002815260040160006040518083038186803b15801561105857600080fd5b505afa15801561106c573d6000803e3d6000fd5b505050506040513d6000823e3d601f19601f820116820180604052508101906110959190612c91565b6040516110a59493929190613059565b60405180910390a15b5050565b600860098111156110c6576110c56134db565b5b600260003373ffffffffffffffffffffffffffffffffffffffff1673ffffffffffffffffffffffffffffffffffffffff16815260200190815260200160002060030160009054906101000a900460ff166009811115611128576111276134db565b5b14611168576040517f08c379a000000000000000000000000000000000000000000000000000000000815260040161115f90613169565b60405180910390fd5b8073ffffffffffffffffffffffffffffffffffffffff16600260008373ffffffffffffffffffffffffffffffffffffffff1673ffffffffffffffffffffffffffffffffffffffff16815260200190815260200160002060000160009054906101000a900473ffffffffffffffffffffffffffffffffffffffff1673ffffffffffffffffffffffffffffffffffffffff1614611238576040517f08c379a000000000000000000000000000000000000000000000000000000000815260040161122f90613149565b60405180910390fd5b6040518060400160405280600881526020017f496e616374697665000000000000000000000000000000000000000000000000815250600260008373ffffffffffffffffffffffffffffffffffffffff1673ffffffffffffffffffffffffffffffffffffffff16815260200190815260200160002060040190805190602001906112c392919061265e565b506001600260008373ffffffffffffffffffffffffffffffffffffffff1673ffffffffffffffffffffffffffffffffffffffff16815260200190815260200160002060050160006101000a81548160ff02191690831515021790555061132a8160016124f9565b50565b60066009811115611341576113406134db565b5b600260003373ffffffffffffffffffffffffffffffffffffffff1673ffffffffffffffffffffffffffffffffffffffff16815260200190815260200160002060030160009054906101000a900460ff1660098111156113a3576113a26134db565b5b146113e3576040517f08c379a00000000000000000000000000000000000000000000000000000000081526004016113da90613129565b60405180910390fd5b8173ffffffffffffffffffffffffffffffffffffffff1663b946588c846040518263ffffffff167c0100000000000000000000000000000000000000000000000000000000028152600401611438919061303e565b600060405180830381600087803b15801561145257600080fd5b505af1158015611466573d6000803e3d6000fd5b5050505080600281111561147d5761147c6134db565b5b600560008573ffffffffffffffffffffffffffffffffffffffff1673ffffffffffffffffffffffffffffffffffffffff16815260200190815260200160002060006101000a81548160ff021916908360028111156114de576114dd6134db565b5b021790555060016006546114f291906132fb565b600681905550505050565b60008054906101000a900473ffffffffffffffffffffffffffffffffffffffff1681565b60008054906101000a900473ffffffffffffffffffffffffffffffffffffffff1673ffffffffffffffffffffffffffffffffffffffff163373ffffffffffffffffffffffffffffffffffffffff16146115af576040517f08c379a00000000000000000000000000000000000000000000000000000000081526004016115a690613189565b60405180910390fd5b8473ffffffffffffffffffffffffffffffffffffffff16600260008773ffffffffffffffffffffffffffffffffffffffff1673ffffffffffffffffffffffffffffffffffffffff16815260200190815260200160002060000160009054906101000a900473ffffffffffffffffffffffffffffffffffffffff1673ffffffffffffffffffffffffffffffffffffffff161415611680576040517f08c379a0000000000000000000000000000000000000000000000000000000008152600401611677906131a9565b60405180910390fd5b6116886126e4565b85816000019073ffffffffffffffffffffffffffffffffffffffff16908173ffffffffffffffffffffffffffffffffffffffff16815250508481602001819052508381604001819052508260098111156116e5576116e46134db565b5b816060019060098111156116fc576116fb6134db565b5b908160098111156117105761170f6134db565b5b8152505081816080018190525060008160a0019015159081151581525050428160c001818152505080600260008873ffffffffffffffffffffffffffffffffffffffff1673ffffffffffffffffffffffffffffffffffffffff16815260200190815260200160002060008201518160000160006101000a81548173ffffffffffffffffffffffffffffffffffffffff021916908373ffffffffffffffffffffffffffffffffffffffff16021790555060208201518160010190805190602001906117db92919061265e565b5060408201518160020190805190602001906117f892919061265e565b5060608201518160030160006101000a81548160ff02191690836009811115611824576118236134db565b5b0217905550608082015181600401908051906020019061184592919061265e565b5060a08201518160050160006101000a81548160ff02191690831515021790555060c08201518160060155905050600181908060018154018082558091505060019003906000526020600020906007020160009091909190915060008201518160000160006101000a81548173ffffffffffffffffffffffffffffffffffffffff021916908373ffffffffffffffffffffffffffffffffffffffff160217905550602082015181600101908051906020019061190292919061265e565b50604082015181600201908051906020019061191f92919061265e565b5060608201518160030160006101000a81548160ff0219169083600981111561194b5761194a6134db565b5b0217905550608082015181600401908051906020019061196c92919061265e565b5060a08201518160050160006101000a81548160ff02191690831515021790555060c082015181600601555050505050505050565b6000600654905090565b60065481565b6119b961274b565b888160000181905250878160200181815250508681604001819052508581606001818152505084816080018181525050818160c0019073ffffffffffffffffffffffffffffffffffffffff16908173ffffffffffffffffffffffffffffffffffffffff1681525050838160a0019073ffffffffffffffffffffffffffffffffffffffff16908173ffffffffffffffffffffffffffffffffffffffff1681525050600360008573ffffffffffffffffffffffffffffffffffffffff1673ffffffffffffffffffffffffffffffffffffffff1681526020019081526020016000208190806001815401808255809150506001900390600052602060002090600702016000909190919091506000820151816000019080519060200190611ade92919061265e565b50602082015181600101556040820151816002019080519060200190611b0592919061265e565b50606082015181600301556080820151816004015560a08201518160050160006101000a81548173ffffffffffffffffffffffffffffffffffffffff021916908373ffffffffffffffffffffffffffffffffffffffff16021790555060c08201518160060160006101000a81548173ffffffffffffffffffffffffffffffffffffffff021916908373ffffffffffffffffffffffffffffffffffffffff1602179055505050600460008473ffffffffffffffffffffffffffffffffffffffff1673ffffffffffffffffffffffffffffffffffffffff1681526020019081526020016000208190806001815401808255809150506001900390600052602060002090600702016000909190919091506000820151816000019080519060200190611c2f92919061265e565b50602082015181600101556040820151816002019080519060200190611c5692919061265e565b50606082015181600301556080820151816004015560a08201518160050160006101000a81548173ffffffffffffffffffffffffffffffffffffffff021916908373ffffffffffffffffffffffffffffffffffffffff16021790555060c08201518160060160006101000a81548173ffffffffffffffffffffffffffffffffffffffff021916908373ffffffffffffffffffffffffffffffffffffffff1602179055505050505050505050505050565b60018181548110611d1657600080fd5b90600052602060002090600702016000915090508060000160009054906101000a900473ffffffffffffffffffffffffffffffffffffffff1690806001018054611d5f90613400565b80601f0160208091040260200160405190810160405280929190818152602001828054611d8b90613400565b8015611dd85780601f10611dad57610100808354040283529160200191611dd8565b820191906000526020600020905b815481529060010190602001808311611dbb57829003601f168201915b505050505090806002018054611ded90613400565b80601f0160208091040260200160405190810160405280929190818152602001828054611e1990613400565b8015611e665780601f10611e3b57610100808354040283529160200191611e66565b820191906000526020600020905b815481529060010190602001808311611e4957829003601f168201915b5050505050908060030160009054906101000a900460ff1690806004018054611e8e90613400565b80601f0160208091040260200160405190810160405280929190818152602001828054611eba90613400565b8015611f075780601f10611edc57610100808354040283529160200191611f07565b820191906000526020600020905b815481529060010190602001808311611eea57829003601f168201915b5050505050908060050160009054906101000a900460ff16908060060154905087565b60066009811115611f3e57611f3d6134db565b5b600260003373ffffffffffffffffffffffffffffffffffffffff1673ffffffffffffffffffffffffffffffffffffffff16815260200190815260200160002060030160009054906101000a900460ff166009811115611fa057611f9f6134db565b5b14611fe0576040517f08c379a0000000000000000000000000000000000000000000000000000000008152600401611fd790613129565b60405180910390fd5b60006002811115611ff457611ff36134db565b5b600560008473ffffffffffffffffffffffffffffffffffffffff1673ffffffffffffffffffffffffffffffffffffffff16815260200190815260200160002060009054906101000a900460ff166002811115612053576120526134db565b5b1015612094576040517f08c379a000000000000000000000000000000000000000000000000000000000815260040161208b906131c9565b60405180910390fd5b8060028111156120a7576120a66134db565b5b600560008473ffffffffffffffffffffffffffffffffffffffff1673ffffffffffffffffffffffffffffffffffffffff16815260200190815260200160002060006101000a81548160ff02191690836002811115612108576121076134db565b5b02179055505050565b60066009811115612125576121246134db565b5b600260003373ffffffffffffffffffffffffffffffffffffffff1673ffffffffffffffffffffffffffffffffffffffff16815260200190815260200160002060030160009054906101000a900460ff166009811115612187576121866134db565b5b146121c7576040517f08c379a00000000000000000000000000000000000000000000000000000000081526004016121be90613129565b60405180910390fd5b60008173ffffffffffffffffffffffffffffffffffffffff16633834aae06040518163ffffffff167c0100000000000000000000000000000000000000000000000000000000028152600401602060405180830381600087803b15801561222d57600080fd5b505af1158015612241573d6000803e3d6000fd5b505050506040513d601f19601f820116820180604052508101906122659190612cda565b905080156124f55760006002811115612281576122806134db565b5b600560008473ffffffffffffffffffffffffffffffffffffffff1673ffffffffffffffffffffffffffffffffffffffff16815260200190815260200160002060006101000a81548160ff021916908360028111156122e2576122e16134db565b5b02179055507f34ea3bb8298dee13b50177186c76e247da8ae44e9bf59ed824e34877dc338504828373ffffffffffffffffffffffffffffffffffffffff166340019e5d6040518163ffffffff167c010000000000000000000000000000000000000000000000000000000002815260040160206040518083038186803b15801561236b57600080fd5b505afa15801561237f573d6000803e3d6000fd5b505050506040513d601f19601f820116820180604052508101906123a39190612975565b8473ffffffffffffffffffffffffffffffffffffffff16631805de3b6040518163ffffffff167c010000000000000000000000000000000000000000000000000000000002815260040160206040518083038186803b15801561240557600080fd5b505afa158015612419573d6000803e3d6000fd5b505050506040513d601f19601f8201168201806040525081019061243d9190612e22565b8573ffffffffffffffffffffffffffffffffffffffff166330fa86aa6040518163ffffffff167c010000000000000000000000000000000000000000000000000000000002815260040160006040518083038186803b15801561249f57600080fd5b505afa1580156124b3573d6000803e3d6000fd5b505050506040513d6000823e3d601f19601f820116820180604052508101906124dc9190612c91565b6040516124ec9493929190613059565b60405180910390a15b5050565b600080600090505b60018054905081101561259e578373ffffffffffffffffffffffffffffffffffffffff166001828154811061253957612538613539565b5b906000526020600020906007020160000160009054906101000a900473ffffffffffffffffffffffffffffffffffffffff1673ffffffffffffffffffffffffffffffffffffffff16141561258b578091505b808061259690613463565b915050612501565b506040518060400160405280600881526020017f496e616374697665000000000000000000000000000000000000000000000000815250600182815481106125e9576125e8613539565b5b9060005260206000209060070201600401908051906020019061260d92919061265e565b506001151582151514156126595760018082815481106126305761262f613539565b5b906000526020600020906007020160050160006101000a81548160ff0219169083151502179055505b505050565b82805461266a90613400565b90600052602060002090601f01602090048101928261268c57600085556126d3565b82601f106126a557805160ff19168380011785556126d3565b828001600101855582156126d3579182015b828111156126d25782518255916020019190600101906126b7565b5b5090506126e091906127b4565b5090565b6040518060e00160405280600073ffffffffffffffffffffffffffffffffffffffff16815260200160608152602001606081526020016000600981111561272e5761272d6134db565b5b815260200160608152602001600015158152602001600081525090565b6040518060e001604052806060815260200160008152602001606081526020016000815260200160008152602001600073ffffffffffffffffffffffffffffffffffffffff168152602001600073ffffffffffffffffffffffffffffffffffffffff1681525090565b5b808211156127cd5760008160009055506001016127b5565b5090565b60006127e46127df84613249565b613224565b905080838252602082019050828560208602820111156128075761280661359c565b5b60005b85811015612837578161281d8882612933565b84526020840193506020830192505060018101905061280a565b5050509392505050565b600061285461284f84613275565b613224565b9050828152602081018484840111156128705761286f6135a1565b5b61287b8482856133be565b509392505050565b600081359050612892816136f4565b92915050565b6000815190506128a7816136f4565b92915050565b600082601f8301126128c2576128c1613597565b5b81516128d28482602086016127d1565b91505092915050565b6000815190506128ea8161370b565b92915050565b600082601f83011261290557612904613597565b5b8135612915848260208601612841565b91505092915050565b60008135905061292d81613722565b92915050565b60008151905061294281613722565b92915050565b60006020828403121561295e5761295d6135ab565b5b600061296c84828501612883565b91505092915050565b60006020828403121561298b5761298a6135ab565b5b600061299984828501612898565b91505092915050565b6000806000606084860312156129bb576129ba6135ab565b5b60006129c986828701612883565b93505060206129da86828701612883565b92505060406129eb8682870161291e565b9150509250925092565b600080600060608486031215612a0e57612a0d6135ab565b5b6000612a1c86828701612883565b935050602084013567ffffffffffffffff811115612a3d57612a3c6135a6565b5b612a49868287016128f0565b925050604084013567ffffffffffffffff811115612a6a57612a696135a6565b5b612a76868287016128f0565b9150509250925092565b600080600080600060a08688031215612a9c57612a9b6135ab565b5b6000612aaa88828901612883565b955050602086013567ffffffffffffffff811115612acb57612aca6135a6565b5b612ad7888289016128f0565b945050604086013567ffffffffffffffff811115612af857612af76135a6565b5b612b04888289016128f0565b9350506060612b158882890161291e565b925050608086013567ffffffffffffffff811115612b3657612b356135a6565b5b612b42888289016128f0565b9150509295509295909350565b60008060008060008060008060006101208a8c031215612b7257612b716135ab565b5b6000612b808c828d01612883565b99505060208a013567ffffffffffffffff811115612ba157612ba06135a6565b5b612bad8c828d016128f0565b9850506040612bbe8c828d0161291e565b97505060608a013567ffffffffffffffff811115612bdf57612bde6135a6565b5b612beb8c828d016128f0565b9650506080612bfc8c828d0161291e565b95505060a0612c0d8c828d0161291e565b94505060c0612c1e8c828d01612883565b93505060e0612c2f8c828d01612883565b925050610100612c418c828d0161291e565b9150509295985092959850929598565b60008060408385031215612c6857612c676135ab565b5b6000612c7685828601612883565b9250506020612c878582860161291e565b9150509250929050565b600060208284031215612ca757612ca66135ab565b5b600082015167ffffffffffffffff811115612cc557612cc46135a6565b5b612cd1848285016128ad565b91505092915050565b600060208284031215612cf057612cef6135ab565b5b6000612cfe848285016128db565b91505092915050565b600080600080600080600080610100898b031215612d2857612d276135ab565b5b600089013567ffffffffffffffff811115612d4657612d456135a6565b5b612d528b828c016128f0565b9850506020612d638b828c0161291e565b975050604089013567ffffffffffffffff811115612d8457612d836135a6565b5b612d908b828c016128f0565b9650506060612da18b828c0161291e565b9550506080612db28b828c0161291e565b94505060a0612dc38b828c01612883565b93505060c0612dd48b828c01612883565b92505060e0612de58b828c01612883565b9150509295985092959890939650565b600060208284031215612e0b57612e0a6135ab565b5b6000612e198482850161291e565b91505092915050565b600060208284031215612e3857612e376135ab565b5b6000612e4684828501612933565b91505092915050565b6000612e5b8383613020565b60208301905092915050565b612e7081613351565b82525050565b6000612e81826132b6565b612e8b81856132d9565b9350612e96836132a6565b8060005b83811015612ec7578151612eae8882612e4f565b9750612eb9836132cc565b925050600181019050612e9a565b5085935050505092915050565b612edd81613363565b82525050565b612eec816133ac565b82525050565b6000612efd826132c1565b612f0781856132ea565b9350612f178185602086016133cd565b612f20816135b0565b840191505092915050565b6000612f386004836132ea565b9150612f43826135c1565b602082019050919050565b6000612f5b600a836132ea565b9150612f66826135ea565b602082019050919050565b6000612f7e6004836132ea565b9150612f8982613613565b602082019050919050565b6000612fa16004836132ea565b9150612fac8261363c565b602082019050919050565b6000612fc46009836132ea565b9150612fcf82613665565b602082019050919050565b6000612fe7600e836132ea565b9150612ff28261368e565b602082019050919050565b600061300a600b836132ea565b9150613015826136b7565b602082019050919050565b613029816133a2565b82525050565b613038816133a2565b82525050565b60006020820190506130536000830184612e67565b92915050565b600060808201905061306e6000830187612e67565b61307b6020830186612e67565b613088604083018561302f565b818103606083015261309a8184612e76565b905095945050505050565b600060e0820190506130ba600083018a612e67565b81810360208301526130cc8189612ef2565b905081810360408301526130e08188612ef2565b90506130ef6060830187612ee3565b81810360808301526131018186612ef2565b905061311060a0830185612ed4565b61311d60c083018461302f565b98975050505050505050565b6000602082019050818103600083015261314281612f2b565b9050919050565b6000602082019050818103600083015261316281612f4e565b9050919050565b6000602082019050818103600083015261318281612f71565b9050919050565b600060208201905081810360008301526131a281612f94565b9050919050565b600060208201905081810360008301526131c281612fb7565b9050919050565b600060208201905081810360008301526131e281612fda565b9050919050565b6000602082019050818103600083015261320281612ffd565b9050919050565b600060208201905061321e600083018461302f565b92915050565b600061322e61323f565b905061323a8282613432565b919050565b6000604051905090565b600067ffffffffffffffff82111561326457613263613568565b5b602082029050602081019050919050565b600067ffffffffffffffff8211156132905761328f613568565b5b613299826135b0565b9050602081019050919050565b6000819050602082019050919050565b600081519050919050565b600081519050919050565b6000602082019050919050565b600082825260208201905092915050565b600082825260208201905092915050565b6000613306826133a2565b9150613311836133a2565b9250827fffffffffffffffffffffffffffffffffffffffffffffffffffffffffffffffff03821115613346576133456134ac565b5b828201905092915050565b600061335c82613382565b9050919050565b60008115159050919050565b600081905061337d826136e0565b919050565b600073ffffffffffffffffffffffffffffffffffffffff82169050919050565b6000819050919050565b60006133b78261336f565b9050919050565b82818337600083830152505050565b60005b838110156133eb5780820151818401526020810190506133d0565b838111156133fa576000848401525b50505050565b6000600282049050600182168061341857607f821691505b6020821081141561342c5761342b61350a565b5b50919050565b61343b826135b0565b810181811067ffffffffffffffff8211171561345a57613459613568565b5b80604052505050565b600061346e826133a2565b91507fffffffffffffffffffffffffffffffffffffffffffffffffffffffffffffffff8214156134a1576134a06134ac565b5b600182019050919050565b7f4e487b7100000000000000000000000000000000000000000000000000000000600052601160045260246000fd5b7f4e487b7100000000000000000000000000000000000000000000000000000000600052602160045260246000fd5b7f4e487b7100000000000000000000000000000000000000000000000000000000600052602260045260246000fd5b7f4e487b7100000000000000000000000000000000000000000000000000000000600052603260045260246000fd5b7f4e487b7100000000000000000000000000000000000000000000000000000000600052604160045260246000fd5b600080fd5b600080fd5b600080fd5b600080fd5b600080fd5b6000601f19601f8301169050919050565b7f4f50434300000000000000000000000000000000000000000000000000000000600082015250565b7f5553525f4e545f52454700000000000000000000000000000000000000000000600082015250565b7f4f41434300000000000000000000000000000000000000000000000000000000600082015250565b7f4f57434300000000000000000000000000000000000000000000000000000000600082015250565b7f5553525f45584953540000000000000000000000000000000000000000000000600082015250565b7f4d5f4d5553545f41545f41505244000000000000000000000000000000000000600082015250565b7f5553525f44454c45544544000000000000000000000000000000000000000000600082015250565b600a81106136f1576136f06134db565b5b50565b6136fd81613351565b811461370857600080fd5b50565b61371481613363565b811461371f57600080fd5b50565b61372b816133a2565b811461373657600080fd5b5056fea2646970667358221220e364c020f88ca1b47521e3b102fc6dd4718e15546c4b1f89e930c2b4e31f35fd64736f6c63430008070033",
  "immutableReferences": {},
  "source": "// SPDX-License-Identifier: MIT\r\npragma solidity >=0.4.22 <0.9.0;\r\npragma experimental ABIEncoderV2;\r\n\r\nimport \"./User.sol\";\r\nimport \"./Medicine.sol\";\r\nimport \"./MedicineDP.sol\";\r\nimport \"./Customer.sol\";\r\n\r\ncontract Pharma is User, Customer {\r\n    mapping(address => status) MedicineSaleStatusAtPharma; // Track sale status of each medicine ID received/sold/expired/damage at Pharma.\r\n    uint256 public TotalMedicineSubBatchesDelivered;\r\n\r\n    enum status {\r\n        approved,\r\n        expired,\r\n        sold\r\n    }\r\n\r\n    event UpdatedMedicineSubBatchStatusOnReceived(\r\n        address subContractId,\r\n        address medicineId,\r\n        uint256 packageStatus,\r\n        uint256[] transactionBlocksDP\r\n    );\r\n\r\n    modifier onlyPharma {\r\n        require(UsersDetails[msg.sender].userRole == roles.pharma, \"OPCC\"); //\"Only Pharma can call this function.\"\r\n        _;\r\n    }\r\n\r\n    //Recieve & update medicine package shippment status for supplied package ID by tagged/associated receiver/distributor. Update MedicinePackagesReceivedAtDistributor mapping\r\n    //@param _packageID Medicine/Package/batch ID Address\r\n    function updateRecievedMedicineBatchStatus(\r\n        address _medicineID,\r\n        address _subContractID,\r\n        uint256 _medicineSaleStatus\r\n    ) public onlyPharma {\r\n        MedicineDP(_subContractID).receivedPackageDP(_medicineID);\r\n        MedicineSaleStatusAtPharma[_medicineID] = status(_medicineSaleStatus);\r\n        TotalMedicineSubBatchesDelivered = TotalMedicineSubBatchesDelivered + 1;\r\n    }\r\n\r\n    function submitCustomerAndMedicineSaleDetails(\r\n        address _subContractId,\r\n        string memory _customerName,\r\n        uint256 _customerAge,\r\n        string memory _doctorName,\r\n        uint256 _quantity,\r\n        uint256 _amountPaid,\r\n        address _medicineId,\r\n        address _materialId,\r\n        uint256 _medicineStatus\r\n    ) public onlyPharma {\r\n        require(\r\n            MedicineSaleStatusAtPharma[_subContractId] >= status.approved,\r\n            \"M_MUST_AT_APRD\"\r\n        ); //\"Medicine must be at Pharma.\"\r\n        MedicineSaleStatusAtPharma[_subContractId] = status(_medicineStatus);\r\n        pushCustomerDetails(\r\n            _customerName,\r\n            _customerAge,\r\n            _doctorName,\r\n            _quantity,\r\n            _amountPaid,\r\n            _medicineId,\r\n            msg.sender,\r\n            _materialId\r\n        );\r\n    }\r\n\r\n    function updateSaleStatus(address _subContractId, uint256 _medicineStatus)\r\n        public\r\n        onlyPharma\r\n    {\r\n        require(\r\n            MedicineSaleStatusAtPharma[_subContractId] >= status.approved,\r\n            \"M_MUST_AT_APRD\"\r\n        ); //\"Medicine must be at Pharma.\"\r\n        MedicineSaleStatusAtPharma[_subContractId] = status(_medicineStatus);\r\n    }\r\n\r\n    function getTotalMedicineSubBatchesDeliveredCount()\r\n        public\r\n        view\r\n        returns (uint256)\r\n    {\r\n        return TotalMedicineSubBatchesDelivered;\r\n    }\r\n\r\n    //Reject received medicine sub batch if damaged/expired\r\n    function rejectMedicineSubBatch(address _subContractId) public onlyPharma {\r\n        bool result = MedicineDP(_subContractId)\r\n        .rejectMedicineSubBatchAtReceiver();\r\n        if (result) {\r\n            emit UpdatedMedicineSubBatchStatusOnReceived(\r\n                _subContractId,\r\n                MedicineDP(_subContractId).getMedicineID(),\r\n                MedicineDP(_subContractId).getMedicineSubBatchStatus(),\r\n                MedicineDP(_subContractId).getTransactionBlocksDP()\r\n            );\r\n        }\r\n    }\r\n\r\n    //Approve received medicine sub batch\r\n    function approveMedicineSubBatch(address _subContractId) public onlyPharma {\r\n        bool result = MedicineDP(_subContractId)\r\n        .approveMedicineSubBatchAtReceiver();\r\n        if (result) {\r\n            MedicineSaleStatusAtPharma[_subContractId] = status(0);\r\n            emit UpdatedMedicineSubBatchStatusOnReceived(\r\n                _subContractId,\r\n                MedicineDP(_subContractId).getMedicineID(),\r\n                MedicineDP(_subContractId).getMedicineSubBatchStatus(),\r\n                MedicineDP(_subContractId).getTransactionBlocksDP()\r\n            );\r\n        }\r\n    }\r\n}\r\n",
  "sourcePath": "C:\\Development\\Blockchain\\Learning-2\\contracts\\Pharma.sol",
  "compiler": {
    "name": "solc",
    "version": "0.8.7+commit.e28d00a7.Emscripten.clang"
  },
  "schemaVersion": "3.4.1",
  "updatedAt": "2021-08-14T11:11:12.264Z",
  "devdoc": {
    "kind": "dev",
    "methods": {},
    "version": 1
  },
  "userdoc": {
    "kind": "user",
    "methods": {},
    "version": 1
  }
}