{
  "contractName": "Pharma",
  "abi": [
    {
      "inputs": [],
      "name": "TotalMedicineSubBatchesDelivered",
      "outputs": [
        {
          "internalType": "uint256",
          "name": "",
          "type": "uint256"
        }
      ],
      "stateMutability": "view",
      "type": "function"
    },
    {
      "inputs": [
        {
          "internalType": "uint256",
          "name": "",
          "type": "uint256"
        }
      ],
      "name": "UserList",
      "outputs": [
        {
          "internalType": "address",
          "name": "userAddress",
          "type": "address"
        },
        {
          "internalType": "string",
          "name": "userName",
          "type": "string"
        },
        {
          "internalType": "string",
          "name": "userLocation",
          "type": "string"
        },
        {
          "internalType": "enum User.roles",
          "name": "userRole",
          "type": "uint8"
        },
        {
          "internalType": "string",
          "name": "userStatus",
          "type": "string"
        },
        {
          "internalType": "bool",
          "name": "isDeleted",
          "type": "bool"
        },
        {
          "internalType": "uint256",
          "name": "registrationDate",
          "type": "uint256"
        }
      ],
      "stateMutability": "view",
      "type": "function"
    },
    {
      "inputs": [
        {
          "internalType": "address",
          "name": "_address",
          "type": "address"
        }
      ],
      "name": "deleteUser",
      "outputs": [],
      "stateMutability": "nonpayable",
      "type": "function"
    },
    {
      "inputs": [],
      "name": "owner",
      "outputs": [
        {
          "internalType": "address",
          "name": "",
          "type": "address"
        }
      ],
      "stateMutability": "view",
      "type": "function"
    },
    {
      "inputs": [
        {
          "internalType": "string",
          "name": "_customerName",
          "type": "string"
        },
        {
          "internalType": "uint256",
          "name": "_customerAge",
          "type": "uint256"
        },
        {
          "internalType": "string",
          "name": "_doctorName",
          "type": "string"
        },
        {
          "internalType": "uint256",
          "name": "_quantity",
          "type": "uint256"
        },
        {
          "internalType": "uint256",
          "name": "_amountPaid",
          "type": "uint256"
        },
        {
          "internalType": "address",
          "name": "_medicineId",
          "type": "address"
        },
        {
          "internalType": "address",
          "name": "_pharma",
          "type": "address"
        },
        {
          "internalType": "address",
          "name": "_materialId",
          "type": "address"
        }
      ],
      "name": "pushCustomerDetails",
      "outputs": [],
      "stateMutability": "nonpayable",
      "type": "function"
    },
    {
      "inputs": [
        {
          "internalType": "address",
          "name": "_address",
          "type": "address"
        },
        {
          "internalType": "string",
          "name": "_name",
          "type": "string"
        },
        {
          "internalType": "string",
          "name": "_location",
          "type": "string"
        },
        {
          "internalType": "uint256",
          "name": "_role",
          "type": "uint256"
        },
        {
          "internalType": "string",
          "name": "_userStatus",
          "type": "string"
        }
      ],
      "name": "registerAdmin",
      "outputs": [],
      "stateMutability": "nonpayable",
      "type": "function"
    },
    {
      "inputs": [
        {
          "internalType": "address",
          "name": "_address",
          "type": "address"
        },
        {
          "internalType": "string",
          "name": "_name",
          "type": "string"
        },
        {
          "internalType": "string",
          "name": "_location",
          "type": "string"
        },
        {
          "internalType": "uint256",
          "name": "_role",
          "type": "uint256"
        },
        {
          "internalType": "string",
          "name": "_userStatus",
          "type": "string"
        }
      ],
      "name": "registerUser",
      "outputs": [],
      "stateMutability": "nonpayable",
      "type": "function"
    },
    {
      "inputs": [
        {
          "internalType": "address",
          "name": "_address",
          "type": "address"
        },
        {
          "internalType": "string",
          "name": "_location",
          "type": "string"
        },
        {
          "internalType": "string",
          "name": "_userStatus",
          "type": "string"
        }
      ],
      "name": "updateUser",
      "outputs": [],
      "stateMutability": "nonpayable",
      "type": "function"
    },
    {
      "inputs": [
        {
          "internalType": "address",
          "name": "_medicineID",
          "type": "address"
        },
        {
          "internalType": "address",
          "name": "_subContractID",
          "type": "address"
        },
        {
          "internalType": "uint256",
          "name": "_medicineSaleStatus",
          "type": "uint256"
        }
      ],
      "name": "updateRecievedMedicineBatchStatus",
      "outputs": [],
      "stateMutability": "nonpayable",
      "type": "function"
    },
    {
      "inputs": [
        {
          "internalType": "string",
          "name": "_customerName",
          "type": "string"
        },
        {
          "internalType": "uint256",
          "name": "_customerAge",
          "type": "uint256"
        },
        {
          "internalType": "string",
          "name": "_doctorName",
          "type": "string"
        },
        {
          "internalType": "uint256",
          "name": "_quantity",
          "type": "uint256"
        },
        {
          "internalType": "uint256",
          "name": "_amountPaid",
          "type": "uint256"
        },
        {
          "internalType": "address",
          "name": "_medicineId",
          "type": "address"
        },
        {
          "internalType": "address",
          "name": "_materialId",
          "type": "address"
        },
        {
          "internalType": "uint256",
          "name": "_medicineStatus",
          "type": "uint256"
        }
      ],
      "name": "submitCustomerAndMedicineSaleDetails",
      "outputs": [],
      "stateMutability": "nonpayable",
      "type": "function"
    },
    {
      "inputs": [
        {
          "internalType": "address",
          "name": "_medicineID",
          "type": "address"
        },
        {
          "internalType": "uint256",
          "name": "_medicineStatus",
          "type": "uint256"
        }
      ],
      "name": "updateSaleStatus",
      "outputs": [],
      "stateMutability": "nonpayable",
      "type": "function"
    },
    {
      "inputs": [],
      "name": "getTotalMedicineSubBatchesDeliveredCount",
      "outputs": [
        {
          "internalType": "uint256",
          "name": "",
          "type": "uint256"
        }
      ],
      "stateMutability": "view",
      "type": "function"
    }
  ],
  "bytecode": "0x608060405234801561001057600080fd5b5060008054600160a060020a0319163317905561182b806100326000396000f3fe608060405234801561001057600080fd5b50600436106100d1576000357c010000000000000000000000000000000000000000000000000000000090048063a00453c01161008e578063a00453c014610167578063a0a5992c1461017a578063a5dff9941461018c578063b50f6b6c14610195578063babe1655146101a8578063eae3c207146101ce57600080fd5b806310e8b22d146100d65780631e1055f8146100eb5780633bb3ec9e146100fe5780635c60f226146101115780637e8e8c5c146101245780638da5cb5b14610137575b600080fd5b6100e96100e4366004611326565b6101e1565b005b6100e96100f936600461151a565b610449565b6100e961010c36600461139a565b610575565b6100e961011f3660046112c8565b6108a7565b6100e96101323660046112ea565b6109f5565b60005461014a90600160a060020a031681565b604051600160a060020a0390911681526020015b60405180910390f35b6100e961017536600461139a565b610b11565b6006545b60405190815260200161015e565b61017e60065481565b6100e96101a3366004611467565b610b70565b6101bb6101b63660046115c6565b610d86565b60405161015e979695949392919061162c565b6100e96101dc36600461143d565b610f83565b60083360009081526002602052604090206003015460ff16600881111561020a5761020a6117aa565b146102335760405160e560020a62461bcd02815260040161022a906116e9565b60405180910390fd5b600160a060020a03808416600081815260026020526040902054909116146102a05760405160e560020a62461bcd02815260206004820152600a60248201527f5553525f4e545f52454700000000000000000000000000000000000000000000604482015260640161022a565b600160a060020a03831660009081526002602052604090206005015460ff161561030f5760405160e560020a62461bcd02815260206004820152600b60248201527f5553525f44454c45544544000000000000000000000000000000000000000000604482015260640161022a565b600160a060020a0383166000908152600260208181526040909220845161033e93919092019190850190611130565b50600160a060020a0383166000908152600260209081526040909120825161036e92600490920191840190611130565b506000805b6001548110156103d05784600160a060020a03166001828154811061039a5761039a6117c3565b6000918252602090912060079091020154600160a060020a031614156103be578091505b806103c881611776565b915050610373565b5082600182815481106103e5576103e56117c3565b90600052602060002090600702016002019080519060200190610409929190611130565b50816001828154811061041e5761041e6117c3565b90600052602060002090600702016004019080519060200190610442929190611130565b5050505050565b60063360009081526002602052604090206003015460ff166008811115610472576104726117aa565b146104925760405160e560020a62461bcd02815260040161022a906116b2565b6001600160a060020a03841660009081526005602052604090205460ff1660048111156104c1576104c16117aa565b10156105125760405160e560020a62461bcd02815260206004820152600e60248201527f4d5f4d5553545f41545f41505244000000000000000000000000000000000000604482015260640161022a565b806004811115610524576105246117aa565b600160a060020a0384166000908152600560205260409020805460ff19166001836004811115610556576105566117aa565b021790555061056b8888888888883389610b70565b5050505050505050565b60083360009081526002602052604090206003015460ff16600881111561059e5761059e6117aa565b146105be5760405160e560020a62461bcd02815260040161022a906116e9565b600160a060020a03808616600081815260026020526040902054909116141561062c5760405160e560020a62461bcd02815260206004820152600960248201527f5553525f45584953540000000000000000000000000000000000000000000000604482015260640161022a565b6106346111b4565b600160a060020a03861681526020810185905260408101849052826008811115610660576106606117aa565b81606001906008811115610676576106766117aa565b90816008811115610689576106896117aa565b90525060808101829052600060a082018190524260c0830152600160a060020a0387811682526002602090815260409092208351815473ffffffffffffffffffffffffffffffffffffffff1916921691909117815581830151805184936106f7926001850192910190611130565b5060408201518051610713916002840191602090910190611130565b50606082015160038201805460ff19166001836008811115610737576107376117aa565b021790555060808201518051610757916004840191602090910190611130565b5060a082015160058201805460ff191691151591909117905560c09091015160069091015560018054808201825560009190915281517fb10e2d527612073b26eecdfd717e6a320cf44b4afac2b0732d9fcbe2b7fa0cf66007909202918201805473ffffffffffffffffffffffffffffffffffffffff1916600160a060020a039092169190911781556020808401518051859461081a937fb10e2d527612073b26eecdfd717e6a320cf44b4afac2b0732d9fcbe2b7fa0cf7909101920190611130565b5060408201518051610836916002840191602090910190611130565b50606082015160038201805460ff1916600183600881111561085a5761085a6117aa565b02179055506080820151805161087a916004840191602090910190611130565b5060a082015160058201805460ff191691151591909117905560c090910151600690910155505050505050565b60083360009081526002602052604090206003015460ff1660088111156108d0576108d06117aa565b146108f05760405160e560020a62461bcd02815260040161022a906116e9565b600160a060020a038082166000818152600260205260409020549091161461095d5760405160e560020a62461bcd02815260206004820152600a60248201527f5553525f4e545f52454700000000000000000000000000000000000000000000604482015260640161022a565b604080518082018252600881527f496e6163746976650000000000000000000000000000000000000000000000006020808301918252600160a060020a038516600090815260029091529290922090516109bd9260049092019190611130565b50600160a060020a0381166000908152600260205260409020600501805460ff191660019081179091556109f2908290611019565b50565b60063360009081526002602052604090206003015460ff166008811115610a1e57610a1e6117aa565b14610a3e5760405160e560020a62461bcd02815260040161022a906116b2565b6040517fb946588c000000000000000000000000000000000000000000000000000000008152600160a060020a03848116600483015283169063b946588c90602401600060405180830381600087803b158015610a9a57600080fd5b505af1158015610aae573d6000803e3d6000fd5b50505050806004811115610ac457610ac46117aa565b600160a060020a0384166000908152600560205260409020805460ff19166001836004811115610af657610af66117aa565b0217905550600654610b09906001611720565b600655505050565b600054600160a060020a031633146105be5760405160e560020a62461bcd02815260040161022a9060208082526004908201527f4f57434300000000000000000000000000000000000000000000000000000000604082015260600190565b610bc26040518060e0016040528060608152602001600081526020016060815260200160008152602001600081526020016000600160a060020a031681526020016000600160a060020a031681525090565b888152602080820189905260408083018990526060830188905260808301879052600160a060020a0380851660c0850152861660a08401819052600090815260038352908120805460018101825590825290829020835180518594600790940290920192610c3592849290910190611130565b50602082810151600183015560408301518051610c589260028501920190611130565b5060608201516003820155608082015160048083019190915560a083015160058301805473ffffffffffffffffffffffffffffffffffffffff19908116600160a060020a039384161790915560c090940151600690930180549094169281169290921790925584166000908152602091825260408120805460018101825590825290829020835180518594600790940290920192610cfb92849290910190611130565b50602082810151600183015560408301518051610d1e9260028501920190611130565b50606082015160038201556080820151600482015560a082015160058201805473ffffffffffffffffffffffffffffffffffffffff19908116600160a060020a039384161790915560c090930151600690920180549093169116179055505050505050505050565b60018181548110610d9657600080fd5b600091825260209091206007909102018054600182018054600160a060020a03909216935090610dc590611738565b80601f0160208091040260200160405190810160405280929190818152602001828054610df190611738565b8015610e3e5780601f10610e1357610100808354040283529160200191610e3e565b820191906000526020600020905b815481529060010190602001808311610e2157829003601f168201915b505050505090806002018054610e5390611738565b80601f0160208091040260200160405190810160405280929190818152602001828054610e7f90611738565b8015610ecc5780601f10610ea157610100808354040283529160200191610ecc565b820191906000526020600020905b815481529060010190602001808311610eaf57829003601f168201915b5050506003840154600485018054949560ff909216949193509150610ef090611738565b80601f0160208091040260200160405190810160405280929190818152602001828054610f1c90611738565b8015610f695780601f10610f3e57610100808354040283529160200191610f69565b820191906000526020600020905b815481529060010190602001808311610f4c57829003601f168201915b505050506005830154600690930154919260ff1691905087565b60063360009081526002602052604090206003015460ff166008811115610fac57610fac6117aa565b14610fcc5760405160e560020a62461bcd02815260040161022a906116b2565b806004811115610fde57610fde6117aa565b600160a060020a0383166000908152600560205260409020805460ff19166001836004811115611010576110106117aa565b02179055505050565b6000805b60015481101561107a5783600160a060020a031660018281548110611044576110446117c3565b6000918252602090912060079091020154600160a060020a03161415611068578091505b8061107281611776565b91505061101d565b506040518060400160405280600881526020017f496e616374697665000000000000000000000000000000000000000000000000815250600182815481106110c4576110c46117c3565b906000526020600020906007020160040190805190602001906110e8929190611130565b506001821515141561112b576001808281548110611108576111086117c3565b60009182526020909120600790910201600501805460ff19169115159190911790555b505050565b82805461113c90611738565b90600052602060002090601f01602090048101928261115e57600085556111a4565b82601f1061117757805160ff19168380011785556111a4565b828001600101855582156111a4579182015b828111156111a4578251825591602001919060010190611189565b506111b092915061120a565b5090565b6040518060e001604052806000600160a060020a031681526020016060815260200160608152602001600060088111156111f0576111f06117aa565b815260606020820181905260006040830181905291015290565b5b808211156111b0576000815560010161120b565b8035600160a060020a038116811461123657600080fd5b919050565b600082601f83011261124c57600080fd5b813567ffffffffffffffff80821115611267576112676117dc565b604051601f8301601f19908116603f0116810190828211818310171561128f5761128f6117dc565b816040528381528660208588010111156112a857600080fd5b836020870160208301376000602085830101528094505050505092915050565b6000602082840312156112da57600080fd5b6112e38261121f565b9392505050565b6000806000606084860312156112ff57600080fd5b6113088461121f565b92506113166020850161121f565b9150604084013590509250925092565b60008060006060848603121561133b57600080fd5b6113448461121f565b9250602084013567ffffffffffffffff8082111561136157600080fd5b61136d8783880161123b565b9350604086013591508082111561138357600080fd5b506113908682870161123b565b9150509250925092565b600080600080600060a086880312156113b257600080fd5b6113bb8661121f565b9450602086013567ffffffffffffffff808211156113d857600080fd5b6113e489838a0161123b565b955060408801359150808211156113fa57600080fd5b61140689838a0161123b565b945060608801359350608088013591508082111561142357600080fd5b506114308882890161123b565b9150509295509295909350565b6000806040838503121561145057600080fd5b6114598361121f565b946020939093013593505050565b600080600080600080600080610100898b03121561148457600080fd5b883567ffffffffffffffff8082111561149c57600080fd5b6114a88c838d0161123b565b995060208b0135985060408b01359150808211156114c557600080fd5b506114d28b828c0161123b565b96505060608901359450608089013593506114ef60a08a0161121f565b92506114fd60c08a0161121f565b915061150b60e08a0161121f565b90509295985092959890939650565b600080600080600080600080610100898b03121561153757600080fd5b883567ffffffffffffffff8082111561154f57600080fd5b61155b8c838d0161123b565b995060208b0135985060408b013591508082111561157857600080fd5b506115858b828c0161123b565b96505060608901359450608089013593506115a260a08a0161121f565b92506115b060c08a0161121f565b915060e089013590509295985092959890939650565b6000602082840312156115d857600080fd5b5035919050565b6000815180845260005b81811015611605576020818501810151868301820152016115e9565b81811115611617576000602083870101525b50601f01601f19169290920160200192915050565b600160a060020a038816815260e06020820152600061164e60e08301896115df565b828103604084015261166081896115df565b9050600987106116835760e060020a634e487b7102600052602160045260246000fd5b866060840152828103608084015261169b81876115df565b94151560a0840152505060c0015295945050505050565b60208082526004908201527f4f50434300000000000000000000000000000000000000000000000000000000604082015260600190565b60208082526004908201527f4f41434300000000000000000000000000000000000000000000000000000000604082015260600190565b6000821982111561173357611733611791565b500190565b60028104600182168061174c57607f821691505b602082108114156117705760e060020a634e487b7102600052602260045260246000fd5b50919050565b600060001982141561178a5761178a611791565b5060010190565b60e060020a634e487b7102600052601160045260246000fd5b60e060020a634e487b7102600052602160045260246000fd5b60e060020a634e487b7102600052603260045260246000fd5b60e060020a634e487b7102600052604160045260246000fdfea26469706673582212206b48d52fa977f2837fe8d1e5a8a416a208eb7031db4fc8283b0a5388e1d0f74564736f6c63430008060033",
  "immutableReferences": {},
  "source": "// SPDX-License-Identifier: MIT\r\npragma solidity >=0.4.22 <0.9.0;\r\npragma experimental ABIEncoderV2;\r\n\r\nimport \"./User.sol\";\r\nimport \"./Medicine.sol\";\r\nimport \"./MedicineDP.sol\";\r\nimport \"./Customer.sol\";\r\n\r\ncontract Pharma is User, Customer {\r\n    mapping(address => status) MedicineSaleStatusAtPharma; // Track sale status of each medicine ID received/sold/expired/damage at Pharma.\r\n    uint256 public TotalMedicineSubBatchesDelivered;\r\n\r\n    enum status {\r\n        notFound,\r\n        approved,\r\n        expired,\r\n        damaged,\r\n        sold\r\n    }\r\n\r\n    modifier onlyPharma {\r\n        require(UsersDetails[msg.sender].userRole == roles.pharma, \"OPCC\"); //\"Only Pharma can call this function.\"\r\n        _;\r\n    }\r\n\r\n    //Recieve & update medicine package shippment status for supplied package ID by tagged/associated receiver/distributor. Update MedicinePackagesReceivedAtDistributor mapping\r\n    //@param _packageID Medicine/Package/batch ID Address\r\n    function updateRecievedMedicineBatchStatus(\r\n        address _medicineID,\r\n        address _subContractID,\r\n        uint256 _medicineSaleStatus\r\n    ) public onlyPharma {\r\n        MedicineDP(_subContractID).receivedPackageDP(_medicineID);\r\n        MedicineSaleStatusAtPharma[_medicineID] = status(_medicineSaleStatus);\r\n        TotalMedicineSubBatchesDelivered = TotalMedicineSubBatchesDelivered + 1;\r\n    }\r\n\r\n    function submitCustomerAndMedicineSaleDetails(\r\n        string memory _customerName,\r\n        uint256 _customerAge,\r\n        string memory _doctorName,\r\n        uint256 _quantity,\r\n        uint256 _amountPaid,\r\n        address _medicineId,\r\n        address _materialId,\r\n        uint256 _medicineStatus\r\n    ) public onlyPharma {\r\n        require(\r\n            MedicineSaleStatusAtPharma[_medicineId] >= status.approved,\r\n            \"M_MUST_AT_APRD\"\r\n        ); //\"Medicine must be at Pharma.\"\r\n        MedicineSaleStatusAtPharma[_medicineId] = status(_medicineStatus);\r\n        pushCustomerDetails(\r\n            _customerName,\r\n            _customerAge,\r\n            _doctorName,\r\n            _quantity,\r\n            _amountPaid,\r\n            _medicineId,\r\n            msg.sender,\r\n            _materialId\r\n        );\r\n    }\r\n\r\n    function updateSaleStatus(address _medicineID, uint256 _medicineStatus)\r\n        public\r\n        onlyPharma\r\n    {\r\n        MedicineSaleStatusAtPharma[_medicineID] = status(_medicineStatus);\r\n    }\r\n\r\n    function getTotalMedicineSubBatchesDeliveredCount()\r\n        public\r\n        view\r\n        returns (uint256)\r\n    {\r\n        return TotalMedicineSubBatchesDelivered;\r\n    }\r\n}\r\n",
  "sourcePath": "C:\\Development\\Blockchain\\Learning-2\\contracts\\Pharma.sol",
  "compiler": {
    "name": "solc",
    "version": "0.8.6+commit.11564f7e.Emscripten.clang"
  },
  "schemaVersion": "3.4.1",
  "updatedAt": "2021-08-05T10:21:15.134Z",
  "devdoc": {
    "kind": "dev",
    "methods": {},
    "version": 1
  },
  "userdoc": {
    "kind": "user",
    "methods": {},
    "version": 1
  }
}