{
  "contractName": "RawMaterials",
  "abi": [
    {
      "inputs": [
        {
          "internalType": "address",
          "name": "_supplier",
          "type": "address"
        },
        {
          "internalType": "string",
          "name": "_description",
          "type": "string"
        },
        {
          "internalType": "string",
          "name": "_producerName",
          "type": "string"
        },
        {
          "internalType": "string",
          "name": "_location",
          "type": "string"
        },
        {
          "internalType": "uint256",
          "name": "_quantity",
          "type": "uint256"
        },
        {
          "internalType": "address",
          "name": "_shipper",
          "type": "address"
        },
        {
          "internalType": "address",
          "name": "_receiver",
          "type": "address"
        }
      ],
      "stateMutability": "nonpayable",
      "type": "constructor"
    },
    {
      "inputs": [],
      "name": "getSuppliedRawMaterialDetails",
      "outputs": [
        {
          "internalType": "address",
          "name": "_materialId",
          "type": "address"
        },
        {
          "internalType": "address",
          "name": "_supplier",
          "type": "address"
        },
        {
          "internalType": "string",
          "name": "_description",
          "type": "string"
        },
        {
          "internalType": "string",
          "name": "_producerName",
          "type": "string"
        },
        {
          "internalType": "string",
          "name": "_location",
          "type": "string"
        },
        {
          "internalType": "uint256",
          "name": "_quantity",
          "type": "uint256"
        },
        {
          "internalType": "address",
          "name": "_shipper",
          "type": "address"
        },
        {
          "internalType": "address",
          "name": "_receiver",
          "type": "address"
        },
        {
          "internalType": "uint256",
          "name": "_status",
          "type": "uint256"
        },
        {
          "internalType": "uint256[]",
          "name": "_transactionBlocks",
          "type": "uint256[]"
        }
      ],
      "stateMutability": "view",
      "type": "function"
    },
    {
      "inputs": [
        {
          "internalType": "string",
          "name": "_description",
          "type": "string"
        },
        {
          "internalType": "string",
          "name": "_producerName",
          "type": "string"
        },
        {
          "internalType": "string",
          "name": "_location",
          "type": "string"
        },
        {
          "internalType": "uint256",
          "name": "_quantity",
          "type": "uint256"
        },
        {
          "internalType": "address",
          "name": "_shipper",
          "type": "address"
        },
        {
          "internalType": "address",
          "name": "_receiver",
          "type": "address"
        }
      ],
      "name": "updateRawMaterialDetails",
      "outputs": [],
      "stateMutability": "nonpayable",
      "type": "function"
    },
    {
      "inputs": [],
      "name": "getRawMaterialsStatus",
      "outputs": [
        {
          "internalType": "uint256",
          "name": "",
          "type": "uint256"
        }
      ],
      "stateMutability": "view",
      "type": "function"
    },
    {
      "inputs": [],
      "name": "getRawMaterialID",
      "outputs": [
        {
          "internalType": "address",
          "name": "",
          "type": "address"
        }
      ],
      "stateMutability": "view",
      "type": "function"
    },
    {
      "inputs": [],
      "name": "pickRawMaterialPackage",
      "outputs": [],
      "stateMutability": "nonpayable",
      "type": "function"
    },
    {
      "inputs": [],
      "name": "UpdatePackageStatusOnReceived",
      "outputs": [],
      "stateMutability": "nonpayable",
      "type": "function"
    }
  ],
  "bytecode": "0x60806040523480156200001157600080fd5b5060405162000e1538038062000e158339810160408190526200003491620002a7565b60008054600160a060020a038916600160a060020a03199182161790915560018054909116301790558551620000729060029060208901906200012d565b508451620000889060039060208801906200012d565b5083516200009e9060049060208701906200012d565b5060059290925560068054600160a060020a0319908116600160a060020a0393841617909155600780549091169282169290921790915560088054600160a860020a0319169590911694909417909355505060098054600181018255600091909152437f6e1540171b6c0c960b71a7020d9f60077f6af931a8bbf590da0223dacf75c7af9091015550620003ff565b8280546200013b906200037a565b90600052602060002090601f0160209004810192826200015f5760008555620001aa565b82601f106200017a57805160ff1916838001178555620001aa565b82800160010185558215620001aa579182015b82811115620001aa5782518255916020019190600101906200018d565b50620001b8929150620001bc565b5090565b5b80821115620001b85760008155600101620001bd565b8051600160a060020a0381168114620001eb57600080fd5b919050565b600082601f8301126200020257600080fd5b81516001604060020a03808211156200021f576200021f620003d0565b604051601f8301601f19908116603f011681019082821181831017156200024a576200024a620003d0565b816040528381526020925086838588010111156200026757600080fd5b600091505b838210156200028b57858201830151818301840152908201906200026c565b838211156200029d5760008385830101525b9695505050505050565b600080600080600080600060e0888a031215620002c357600080fd5b620002ce88620001d3565b965060208801516001604060020a0380821115620002eb57600080fd5b620002f98b838c01620001f0565b975060408a01519150808211156200031057600080fd5b6200031e8b838c01620001f0565b965060608a01519150808211156200033557600080fd5b50620003448a828b01620001f0565b945050608088015192506200035c60a08901620001d3565b91506200036c60c08901620001d3565b905092959891949750929550565b6002810460018216806200038f57607f821691505b60208210811415620003ca577f4e487b7100000000000000000000000000000000000000000000000000000000600052602260045260246000fd5b50919050565b7f4e487b7100000000000000000000000000000000000000000000000000000000600052604160045260246000fd5b610a06806200040f6000396000f3fe608060405234801561001057600080fd5b506004361061007e577c01000000000000000000000000000000000000000000000000000000006000350463922962998114610083578063b1767f871461009e578063b27a2970146100bc578063cf1287e1146100c6578063ee8a544a146100d9578063f6f1bf66146100e1575b600080fd5b61008b610109565b6040519081526020015b60405180910390f35b6100a661012f565b6040516100959a99989796959493929190610852565b6100c46103b5565b005b6100c46100d4366004610753565b6104b3565b6100c4610540565b60015460405173ffffffffffffffffffffffffffffffffffffffff9091168152602001610095565b60085460009060a060020a900460ff16600281111561012a5761012a610972565b905090565b6001546008546005546006546007546000948594606094859485948894859485948594899473ffffffffffffffffffffffffffffffffffffffff948516948085169460029460039460049491939081169291169060a060020a900460ff168681111561019d5761019d610972565b60098780546101ab9061091e565b80601f01602080910402602001604051908101604052809291908181526020018280546101d79061091e565b80156102245780601f106101f957610100808354040283529160200191610224565b820191906000526020600020905b81548152906001019060200180831161020757829003601f168201915b505050505097508680546102379061091e565b80601f01602080910402602001604051908101604052809291908181526020018280546102639061091e565b80156102b05780601f10610285576101008083540402835291602001916102b0565b820191906000526020600020905b81548152906001019060200180831161029357829003601f168201915b505050505096508580546102c39061091e565b80601f01602080910402602001604051908101604052809291908181526020018280546102ef9061091e565b801561033c5780601f106103115761010080835404028352916020019161033c565b820191906000526020600020905b81548152906001019060200180831161031f57829003601f168201915b505050505095508080548060200260200160405190810160405280929190818152602001828054801561038e57602002820191906000526020600020905b81548152602001906001019080831161037a575b50505050509050995099509950995099509950995099509950995090919293949596979899565b600060085460a060020a900460ff1660028111156103d5576103d5610972565b14610441576040517f08c379a000000000000000000000000000000000000000000000000000000000815260206004820152600c60248201527f524d5f4d5553545f41545f53000000000000000000000000000000000000000060448201526064015b60405180910390fd5b6009805460018181018355600092909252437f6e1540171b6c0c960b71a7020d9f60077f6af931a8bbf590da0223dacf75c7af909101555b6008805474ff0000000000000000000000000000000000000000191660a060020a8360028111156104ac576104ac610972565b0217905550565b85516104c6906002906020890190610604565b5084516104da906003906020880190610604565b5083516104ee906004906020870190610604565b506005929092556006805473ffffffffffffffffffffffffffffffffffffffff92831673ffffffffffffffffffffffffffffffffffffffff199182161790915560078054929093169116179055505050565b600160085460a060020a900460ff16600281111561056057610560610972565b146105c7576040517f08c379a000000000000000000000000000000000000000000000000000000000815260206004820152600c60248201527f524d5f4d5553545f41545f4d00000000000000000000000000000000000000006044820152606401610438565b60098054600181018255600091909152437f6e1540171b6c0c960b71a7020d9f60077f6af931a8bbf590da0223dacf75c7af909101556002610479565b8280546106109061091e565b90600052602060002090601f0160209004810192826106325760008555610678565b82601f1061064b57805160ff1916838001178555610678565b82800160010185558215610678579182015b8281111561067857825182559160200191906001019061065d565b50610684929150610688565b5090565b5b808211156106845760008155600101610689565b803573ffffffffffffffffffffffffffffffffffffffff811681146106c157600080fd5b919050565b600082601f8301126106d757600080fd5b813567ffffffffffffffff808211156106f2576106f26109a1565b604051601f8301601f19908116603f0116810190828211818310171561071a5761071a6109a1565b8160405283815286602085880101111561073357600080fd5b836020870160208301376000602085830101528094505050505092915050565b60008060008060008060c0878903121561076c57600080fd5b863567ffffffffffffffff8082111561078457600080fd5b6107908a838b016106c6565b975060208901359150808211156107a657600080fd5b6107b28a838b016106c6565b965060408901359150808211156107c857600080fd5b506107d589828a016106c6565b945050606087013592506107eb6080880161069d565b91506107f960a0880161069d565b90509295509295509295565b6000815180845260005b8181101561082b5760208185018101518683018201520161080f565b8181111561083d576000602083870101525b50601f01601f19169290920160200192915050565b600061014073ffffffffffffffffffffffffffffffffffffffff808e1684526020818e168186015282604086015261088c8386018e610805565b925084830360608601526108a0838d610805565b925084830360808601526108b4838c610805565b60a086018b905289831660c087015291881660e08601526101008501879052848203610120860152855180835281870193509181019160005b81811015610909578451845293820193928201926001016108ed565b50919f9e505050505050505050505050505050565b60028104600182168061093257607f821691505b6020821081141561096c577f4e487b7100000000000000000000000000000000000000000000000000000000600052602260045260246000fd5b50919050565b7f4e487b7100000000000000000000000000000000000000000000000000000000600052602160045260246000fd5b7f4e487b7100000000000000000000000000000000000000000000000000000000600052604160045260246000fdfea2646970667358221220983fbf8da35dcc6bada87d7d46dee266931e452cbcc82f4770a484ffcd8cbb7764736f6c63430008060033",
  "immutableReferences": {},
  "source": "// SPDX-License-Identifier: MIT\npragma solidity >=0.4.22 <0.9.0;\n\ncontract RawMaterials {\n    address owner;\n\n    enum status {\n        atProducer,\n        pickedForManufacturer,\n        deliveredAtManufacturer\n    }\n\n    //Raw material id\n    address materialId;\n    //Material description\n    string description;\n    //material producer/farmer name\n    string producerName;\n    //base location of material\n    string location;\n    //material quantity\n    uint256 quantity;\n    //material shipper\n    address shipper;\n    //product manufacturer\n    address manufacturer;\n    //material supplier/producer\n    address supplier;\n    //material package status\n    status packageStatus;\n    //transaction time\n    uint256[] transactionBlocks;\n\n    //Initiate new Raw Material package by supplier with necessary details.\n    constructor(\n        address _supplier,\n        string memory _description,\n        string memory _producerName,\n        string memory _location,\n        uint256 _quantity,\n        address _shipper,\n        address _receiver\n    ) {\n        owner = _supplier;\n        materialId = address(this);\n        description = _description;\n        producerName = _producerName;\n        location = _location;\n        quantity = _quantity;\n        shipper = _shipper;\n        manufacturer = _receiver;\n        supplier = _supplier;\n        shipper = _shipper;\n        packageStatus = status(0);\n        transactionBlocks.push(block.number);\n    }\n\n    //Get the Raw material package details initiated using constructor\n    function getSuppliedRawMaterialDetails()\n        public\n        view\n        returns (\n            address _materialId,\n            address _supplier,\n            string memory _description,\n            string memory _producerName,\n            string memory _location,\n            uint256 _quantity,\n            address _shipper,\n            address _receiver,\n            uint256 _status,\n            uint256[] memory _transactionBlocks\n        )\n    {\n        return (\n            materialId,\n            supplier,\n            description,\n            producerName,\n            location,\n            quantity,\n            shipper,\n            manufacturer,\n            uint256(packageStatus),\n            transactionBlocks\n        );\n    }\n\n    function updateRawMaterialDetails(\n        string memory _description,\n        string memory _producerName,\n        string memory _location,\n        uint256 _quantity,\n        address _shipper,\n        address _receiver\n    ) public {\n        description = _description;\n        producerName = _producerName;\n        location = _location;\n        quantity = _quantity;\n        shipper = _shipper;\n        manufacturer = _receiver;\n    }\n\n    //Get the Raw material package status.\n    function getRawMaterialsStatus() public view returns (uint256) {\n        return uint256(packageStatus);\n    }\n\n    //Get the Raw material/batch ID.\n    function getRawMaterialID() public view returns (address) {\n        return materialId;\n    }\n\n    //Pick & update raw material package status by tagged/associated shipper/transporter. Emit event with package details.\n    //@param _shipper Transporter/Shipper Address\n    function pickRawMaterialPackage() public {\n        require(packageStatus == status(0), \"RM_MUST_AT_S\"); //Material package must be at producer before shippment\n        transactionBlocks.push(block.number);\n        packageStatus = status(1);\n    }\n\n    //Recieve & update raw material package status by tagged/associated receiver/manufacturer. Emit event with package details.\n    //@param _shipper Transporter/Shipper Address\n    function UpdatePackageStatusOnReceived() public {\n        require(packageStatus == status(1), \"RM_MUST_AT_M\"); //Material package must be at manufacturer before status update.\n        transactionBlocks.push(block.number);\n        packageStatus = status(2);\n    }\n}\n",
  "sourcePath": "C:\\Development\\Blockchain\\Learning-2\\contracts\\RawMaterials.sol",
  "compiler": {
    "name": "solc",
    "version": "0.8.6+commit.11564f7e.Emscripten.clang"
  },
  "schemaVersion": "3.4.1",
  "updatedAt": "2021-08-05T10:21:15.142Z",
  "devdoc": {
    "kind": "dev",
    "methods": {},
    "version": 1
  },
  "userdoc": {
    "kind": "user",
    "methods": {},
    "version": 1
  }
}