{
  "contractName": "RawMaterials",
  "abi": [
    {
      "inputs": [
        {
          "internalType": "address",
          "name": "_supplier",
          "type": "address"
        },
        {
          "internalType": "string",
          "name": "_description",
          "type": "string"
        },
        {
          "internalType": "string",
          "name": "_producerName",
          "type": "string"
        },
        {
          "internalType": "string",
          "name": "_location",
          "type": "string"
        },
        {
          "internalType": "uint256",
          "name": "_quantity",
          "type": "uint256"
        },
        {
          "internalType": "address",
          "name": "_shipper",
          "type": "address"
        },
        {
          "internalType": "address",
          "name": "_receiver",
          "type": "address"
        },
        {
          "internalType": "address",
          "name": "_inspector",
          "type": "address"
        }
      ],
      "stateMutability": "nonpayable",
      "type": "constructor"
    },
    {
      "inputs": [],
      "name": "getSuppliedRawMaterialDetails",
      "outputs": [
        {
          "internalType": "address",
          "name": "_materialId",
          "type": "address"
        },
        {
          "internalType": "address",
          "name": "_supplier",
          "type": "address"
        },
        {
          "internalType": "string",
          "name": "_description",
          "type": "string"
        },
        {
          "internalType": "string",
          "name": "_producerName",
          "type": "string"
        },
        {
          "internalType": "string",
          "name": "_location",
          "type": "string"
        },
        {
          "internalType": "uint256",
          "name": "_quantity",
          "type": "uint256"
        },
        {
          "internalType": "address",
          "name": "_shipper",
          "type": "address"
        },
        {
          "internalType": "address",
          "name": "_receiver",
          "type": "address"
        },
        {
          "internalType": "uint256",
          "name": "_status",
          "type": "uint256"
        },
        {
          "internalType": "uint256[]",
          "name": "_transactionBlocks",
          "type": "uint256[]"
        },
        {
          "internalType": "address",
          "name": "_inspector",
          "type": "address"
        }
      ],
      "stateMutability": "view",
      "type": "function"
    },
    {
      "inputs": [
        {
          "internalType": "string",
          "name": "_description",
          "type": "string"
        },
        {
          "internalType": "string",
          "name": "_producerName",
          "type": "string"
        },
        {
          "internalType": "string",
          "name": "_location",
          "type": "string"
        },
        {
          "internalType": "uint256",
          "name": "_quantity",
          "type": "uint256"
        },
        {
          "internalType": "address",
          "name": "_shipper",
          "type": "address"
        },
        {
          "internalType": "address",
          "name": "_receiver",
          "type": "address"
        }
      ],
      "name": "updateRawMaterialDetails",
      "outputs": [],
      "stateMutability": "nonpayable",
      "type": "function"
    },
    {
      "inputs": [],
      "name": "getRawMaterialsStatus",
      "outputs": [
        {
          "internalType": "uint256",
          "name": "",
          "type": "uint256"
        }
      ],
      "stateMutability": "view",
      "type": "function"
    },
    {
      "inputs": [],
      "name": "sendPackageForInspection",
      "outputs": [
        {
          "internalType": "bool",
          "name": "",
          "type": "bool"
        }
      ],
      "stateMutability": "nonpayable",
      "type": "function"
    },
    {
      "inputs": [],
      "name": "rejectPackageAtInspection",
      "outputs": [
        {
          "internalType": "bool",
          "name": "",
          "type": "bool"
        }
      ],
      "stateMutability": "nonpayable",
      "type": "function"
    },
    {
      "inputs": [],
      "name": "approvePackageAtInspection",
      "outputs": [
        {
          "internalType": "bool",
          "name": "",
          "type": "bool"
        }
      ],
      "stateMutability": "nonpayable",
      "type": "function"
    },
    {
      "inputs": [],
      "name": "initiatePackageForShipment",
      "outputs": [
        {
          "internalType": "bool",
          "name": "",
          "type": "bool"
        }
      ],
      "stateMutability": "nonpayable",
      "type": "function"
    },
    {
      "inputs": [],
      "name": "deliverPackageToReceiver",
      "outputs": [
        {
          "internalType": "bool",
          "name": "",
          "type": "bool"
        }
      ],
      "stateMutability": "nonpayable",
      "type": "function"
    },
    {
      "inputs": [],
      "name": "rejectPackageAtReceiver",
      "outputs": [
        {
          "internalType": "bool",
          "name": "",
          "type": "bool"
        }
      ],
      "stateMutability": "nonpayable",
      "type": "function"
    },
    {
      "inputs": [],
      "name": "approvePackageAtReceiver",
      "outputs": [
        {
          "internalType": "bool",
          "name": "",
          "type": "bool"
        }
      ],
      "stateMutability": "nonpayable",
      "type": "function"
    },
    {
      "inputs": [],
      "name": "UpdatePackageStatusOnReceived",
      "outputs": [],
      "stateMutability": "nonpayable",
      "type": "function"
    }
  ],
  "bytecode": "0x60806040523480156200001157600080fd5b506040516200178e3803806200178e833981810160405281019062000037919062000425565b876000806101000a81548173ffffffffffffffffffffffffffffffffffffffff021916908373ffffffffffffffffffffffffffffffffffffffff16021790555030600160006101000a81548173ffffffffffffffffffffffffffffffffffffffff021916908373ffffffffffffffffffffffffffffffffffffffff1602179055508660029080519060200190620000d0929190620002c9565b508560039080519060200190620000e9929190620002c9565b50846004908051906020019062000102929190620002c9565b508360058190555082600660006101000a81548173ffffffffffffffffffffffffffffffffffffffff021916908373ffffffffffffffffffffffffffffffffffffffff16021790555081600760006101000a81548173ffffffffffffffffffffffffffffffffffffffff021916908373ffffffffffffffffffffffffffffffffffffffff16021790555087600860006101000a81548173ffffffffffffffffffffffffffffffffffffffff021916908373ffffffffffffffffffffffffffffffffffffffff16021790555082600660006101000a81548173ffffffffffffffffffffffffffffffffffffffff021916908373ffffffffffffffffffffffffffffffffffffffff160217905550600060078111156200022557620002246200068a565b5b600860146101000a81548160ff021916908360078111156200024c576200024b6200068a565b5b0217905550600943908060018154018082558091505060019003906000526020600020016000909190919091505580600a60006101000a81548173ffffffffffffffffffffffffffffffffffffffff021916908373ffffffffffffffffffffffffffffffffffffffff160217905550505050505050505062000770565b828054620002d7906200061e565b90600052602060002090601f016020900481019282620002fb576000855562000347565b82601f106200031657805160ff191683800117855562000347565b8280016001018555821562000347579182015b828111156200034657825182559160200191906001019062000329565b5b5090506200035691906200035a565b5090565b5b80821115620003755760008160009055506001016200035b565b5090565b6000620003906200038a8462000574565b6200054b565b905082815260208101848484011115620003af57620003ae6200071c565b5b620003bc848285620005e8565b509392505050565b600081519050620003d5816200073c565b92915050565b600082601f830112620003f357620003f262000717565b5b81516200040584826020860162000379565b91505092915050565b6000815190506200041f8162000756565b92915050565b600080600080600080600080610100898b03121562000449576200044862000726565b5b6000620004598b828c01620003c4565b985050602089015167ffffffffffffffff8111156200047d576200047c62000721565b5b6200048b8b828c01620003db565b975050604089015167ffffffffffffffff811115620004af57620004ae62000721565b5b620004bd8b828c01620003db565b965050606089015167ffffffffffffffff811115620004e157620004e062000721565b5b620004ef8b828c01620003db565b9550506080620005028b828c016200040e565b94505060a0620005158b828c01620003c4565b93505060c0620005288b828c01620003c4565b92505060e06200053b8b828c01620003c4565b9150509295985092959890939650565b6000620005576200056a565b905062000565828262000654565b919050565b6000604051905090565b600067ffffffffffffffff821115620005925762000591620006e8565b5b6200059d826200072b565b9050602081019050919050565b6000620005b782620005be565b9050919050565b600073ffffffffffffffffffffffffffffffffffffffff82169050919050565b6000819050919050565b60005b8381101562000608578082015181840152602081019050620005eb565b8381111562000618576000848401525b50505050565b600060028204905060018216806200063757607f821691505b602082108114156200064e576200064d620006b9565b5b50919050565b6200065f826200072b565b810181811067ffffffffffffffff82111715620006815762000680620006e8565b5b80604052505050565b7f4e487b7100000000000000000000000000000000000000000000000000000000600052602160045260246000fd5b7f4e487b7100000000000000000000000000000000000000000000000000000000600052602260045260246000fd5b7f4e487b7100000000000000000000000000000000000000000000000000000000600052604160045260246000fd5b600080fd5b600080fd5b600080fd5b600080fd5b6000601f19601f8301169050919050565b6200074781620005aa565b81146200075357600080fd5b50565b6200076181620005de565b81146200076d57600080fd5b50565b61100e80620007806000396000f3fe608060405234801561001057600080fd5b50600436106100c6576000357c0100000000000000000000000000000000000000000000000000000000900480634d7064181161008e5780634d70641814610161578063922962991461017f578063b1767f871461019d578063cf1287e1146101c5578063ee8a544a146101e1578063f5b1edfd146101eb576100c6565b80630940f4e4146100cb57806309eb029c146100e95780632101f3a11461010757806321895c59146101255780634a4815bf14610143575b600080fd5b6100d3610209565b6040516100e09190610c98565b60405180910390f35b6100f161021c565b6040516100fe9190610c98565b60405180910390f35b61010f61022f565b60405161011c9190610c98565b60405180910390f35b61012d610242565b60405161013a9190610c98565b60405180910390f35b61014b610255565b6040516101589190610c98565b60405180910390f35b610169610268565b6040516101769190610c98565b60405180910390f35b61018761027b565b6040516101949190610cf3565b60405180910390f35b6101a56102a4565b6040516101bc9b9a99989796959493929190610bd1565b60405180910390f35b6101df60048036038101906101da91906109bf565b6105ab565b005b6101e9610681565b005b6101f3610771565b6040516102009190610c98565b60405180910390f35b600061021760056004610784565b905090565b600061022a60016000610784565b905090565b600061023d60036001610784565b905090565b600061025060046003610784565b905090565b600061026360076005610784565b905090565b600061027660026001610784565b905090565b6000600860149054906101000a900460ff16600781111561029f5761029e610ea6565b5b905090565b600080606080606060008060008060606000600160009054906101000a900473ffffffffffffffffffffffffffffffffffffffff16600860009054906101000a900473ffffffffffffffffffffffffffffffffffffffff16600260036004600554600660009054906101000a900473ffffffffffffffffffffffffffffffffffffffff16600760009054906101000a900473ffffffffffffffffffffffffffffffffffffffff16600860149054906101000a900460ff16600781111561036d5761036c610ea6565b5b6009600a60009054906101000a900473ffffffffffffffffffffffffffffffffffffffff1688805461039e90610e43565b80601f01602080910402602001604051908101604052809291908181526020018280546103ca90610e43565b80156104175780601f106103ec57610100808354040283529160200191610417565b820191906000526020600020905b8154815290600101906020018083116103fa57829003601f168201915b5050505050985087805461042a90610e43565b80601f016020809104026020016040519081016040528092919081815260200182805461045690610e43565b80156104a35780601f10610478576101008083540402835291602001916104a3565b820191906000526020600020905b81548152906001019060200180831161048657829003601f168201915b505050505097508680546104b690610e43565b80601f01602080910402602001604051908101604052809291908181526020018280546104e290610e43565b801561052f5780601f106105045761010080835404028352916020019161052f565b820191906000526020600020905b81548152906001019060200180831161051257829003601f168201915b505050505096508180548060200260200160405190810160405280929190818152602001828054801561058157602002820191906000526020600020905b81548152602001906001019080831161056d575b505050505091509a509a509a509a509a509a509a509a509a509a509a50909192939495969798999a565b85600290805190602001906105c1929190610882565b5084600390805190602001906105d8929190610882565b5083600490805190602001906105ef929190610882565b508260058190555081600660006101000a81548173ffffffffffffffffffffffffffffffffffffffff021916908373ffffffffffffffffffffffffffffffffffffffff16021790555080600760006101000a81548173ffffffffffffffffffffffffffffffffffffffff021916908373ffffffffffffffffffffffffffffffffffffffff160217905550505050505050565b6001600781111561069557610694610ea6565b5b60078111156106a7576106a6610ea6565b5b600860149054906101000a900460ff1660078111156106c9576106c8610ea6565b5b14610709576040517f08c379a000000000000000000000000000000000000000000000000000000000815260040161070090610cb3565b60405180910390fd5b60094390806001815401808255809150506001900390600052602060002001600090919091909150556002600781111561074657610745610ea6565b5b600860146101000a81548160ff0219169083600781111561076a57610769610ea6565b5b0217905550565b600061077f60066005610784565b905090565b600081600781111561079957610798610ea6565b5b60078111156107ab576107aa610ea6565b5b600860149054906101000a900460ff1660078111156107cd576107cc610ea6565b5b141561084157600943908060018154018082558091505060019003906000526020600020016000909190919091505582600781111561080f5761080e610ea6565b5b600860146101000a81548160ff0219169083600781111561083357610832610ea6565b5b02179055506001905061087c565b6040517f08c379a000000000000000000000000000000000000000000000000000000000815260040161087390610cd3565b60405180910390fd5b92915050565b82805461088e90610e43565b90600052602060002090601f0160209004810192826108b057600085556108f7565b82601f106108c957805160ff19168380011785556108f7565b828001600101855582156108f7579182015b828111156108f65782518255916020019190600101906108db565b5b5090506109049190610908565b5090565b5b80821115610921576000816000905550600101610909565b5090565b600061093861093384610d33565b610d0e565b90508281526020810184848401111561095457610953610f38565b5b61095f848285610e01565b509392505050565b60008135905061097681610faa565b92915050565b600082601f83011261099157610990610f33565b5b81356109a1848260208601610925565b91505092915050565b6000813590506109b981610fc1565b92915050565b60008060008060008060c087890312156109dc576109db610f42565b5b600087013567ffffffffffffffff8111156109fa576109f9610f3d565b5b610a0689828a0161097c565b965050602087013567ffffffffffffffff811115610a2757610a26610f3d565b5b610a3389828a0161097c565b955050604087013567ffffffffffffffff811115610a5457610a53610f3d565b5b610a6089828a0161097c565b9450506060610a7189828a016109aa565b9350506080610a8289828a01610967565b92505060a0610a9389828a01610967565b9150509295509295509295565b6000610aac8383610bb3565b60208301905092915050565b610ac181610db9565b82525050565b6000610ad282610d74565b610adc8185610d97565b9350610ae783610d64565b8060005b83811015610b18578151610aff8882610aa0565b9750610b0a83610d8a565b925050600181019050610aeb565b5085935050505092915050565b610b2e81610dcb565b82525050565b6000610b3f82610d7f565b610b498185610da8565b9350610b59818560208601610e10565b610b6281610f47565b840191505092915050565b6000610b7a600c83610da8565b9150610b8582610f58565b602082019050919050565b6000610b9d600a83610da8565b9150610ba882610f81565b602082019050919050565b610bbc81610df7565b82525050565b610bcb81610df7565b82525050565b600061016082019050610be7600083018e610ab8565b610bf4602083018d610ab8565b8181036040830152610c06818c610b34565b90508181036060830152610c1a818b610b34565b90508181036080830152610c2e818a610b34565b9050610c3d60a0830189610bc2565b610c4a60c0830188610ab8565b610c5760e0830187610ab8565b610c65610100830186610bc2565b818103610120830152610c788185610ac7565b9050610c88610140830184610ab8565b9c9b505050505050505050505050565b6000602082019050610cad6000830184610b25565b92915050565b60006020820190508181036000830152610ccc81610b6d565b9050919050565b60006020820190508181036000830152610cec81610b90565b9050919050565b6000602082019050610d086000830184610bc2565b92915050565b6000610d18610d29565b9050610d248282610e75565b919050565b6000604051905090565b600067ffffffffffffffff821115610d4e57610d4d610f04565b5b610d5782610f47565b9050602081019050919050565b6000819050602082019050919050565b600081519050919050565b600081519050919050565b6000602082019050919050565b600082825260208201905092915050565b600082825260208201905092915050565b6000610dc482610dd7565b9050919050565b60008115159050919050565b600073ffffffffffffffffffffffffffffffffffffffff82169050919050565b6000819050919050565b82818337600083830152505050565b60005b83811015610e2e578082015181840152602081019050610e13565b83811115610e3d576000848401525b50505050565b60006002820490506001821680610e5b57607f821691505b60208210811415610e6f57610e6e610ed5565b5b50919050565b610e7e82610f47565b810181811067ffffffffffffffff82111715610e9d57610e9c610f04565b5b80604052505050565b7f4e487b7100000000000000000000000000000000000000000000000000000000600052602160045260246000fd5b7f4e487b7100000000000000000000000000000000000000000000000000000000600052602260045260246000fd5b7f4e487b7100000000000000000000000000000000000000000000000000000000600052604160045260246000fd5b600080fd5b600080fd5b600080fd5b600080fd5b6000601f19601f8301169050919050565b7f524d5f4d5553545f41545f4d0000000000000000000000000000000000000000600082015250565b7f494e5f50524f4345535300000000000000000000000000000000000000000000600082015250565b610fb381610db9565b8114610fbe57600080fd5b50565b610fca81610df7565b8114610fd557600080fd5b5056fea26469706673582212205cbfa30bad1fa3c859212d2d6d69f9763637386b5a9c2923a0617522a6bb653c64736f6c63430008070033",
  "immutableReferences": {},
  "source": "// SPDX-License-Identifier: MIT\npragma solidity >=0.4.22 <0.9.0;\n\ncontract RawMaterials {\n    address owner;\n\n    enum status {\n        packageRegistered,\n        sentForInspection,\n        rejectedByInspector,\n        sentForShipment,\n        pickedForManufacturer,\n        deliveredAtManufacturer,\n        rejectedByManufacturer,\n        approvedByManufacturer\n    }\n\n    //Raw material id\n    address materialId;\n    //Material description\n    string description;\n    //material producer/farmer name\n    string producerName;\n    //base location of material\n    string location;\n    //material quantity\n    uint256 quantity;\n    //material shipper\n    address shipper;\n    //product manufacturer\n    address manufacturer;\n    //material supplier/producer\n    address supplier;\n    //material package status\n    status packageStatus;\n    //transaction time\n    uint256[] transactionBlocks;\n    //quality checker\n    address inspector;\n\n    //Initiate new Raw Material package by supplier with necessary details.\n    constructor(\n        address _supplier,\n        string memory _description,\n        string memory _producerName,\n        string memory _location,\n        uint256 _quantity,\n        address _shipper,\n        address _receiver,\n        address _inspector\n    ) {\n        owner = _supplier;\n        materialId = address(this);\n        description = _description;\n        producerName = _producerName;\n        location = _location;\n        quantity = _quantity;\n        shipper = _shipper;\n        manufacturer = _receiver;\n        supplier = _supplier;\n        shipper = _shipper;\n        packageStatus = status(0);\n        transactionBlocks.push(block.number);\n        inspector = _inspector;\n    }\n\n    //Get the Raw material package details initiated using constructor\n    function getSuppliedRawMaterialDetails()\n        public\n        view\n        returns (\n            address _materialId,\n            address _supplier,\n            string memory _description,\n            string memory _producerName,\n            string memory _location,\n            uint256 _quantity,\n            address _shipper,\n            address _receiver,\n            uint256 _status,\n            uint256[] memory _transactionBlocks,\n            address _inspector\n        )\n    {\n        return (\n            materialId,\n            supplier,\n            description,\n            producerName,\n            location,\n            quantity,\n            shipper,\n            manufacturer,\n            uint256(packageStatus),\n            transactionBlocks,\n            inspector\n        );\n    }\n\n    function updateRawMaterialDetails(\n        string memory _description,\n        string memory _producerName,\n        string memory _location,\n        uint256 _quantity,\n        address _shipper,\n        address _receiver\n    ) public {\n        description = _description;\n        producerName = _producerName;\n        location = _location;\n        quantity = _quantity;\n        shipper = _shipper;\n        manufacturer = _receiver;\n    }\n\n    //Get the Raw material package status.\n    function getRawMaterialsStatus() public view returns (uint256) {\n        return uint256(packageStatus);\n    }\n\n    //send package for inspection\n    function sendPackageForInspection() public returns (bool) {\n        return updatePackageStatus(1, 0);\n    }\n\n    //Reject package by inspector\n    function rejectPackageAtInspection() public returns (bool) {\n        return updatePackageStatus(2, 1);\n    }\n\n    //Approve package or send package for shipment to transporter by inspector\n    function approvePackageAtInspection() public returns (bool) {\n        return updatePackageStatus(3, 1);\n    }\n\n    //Pick approved package for shipment by shipper\n    function initiatePackageForShipment() public returns (bool) {\n        return updatePackageStatus(4, 3);\n    }\n\n    //Deliver & update package by shipper\n    function deliverPackageToReceiver() public returns (bool) {\n        return updatePackageStatus(5, 4);\n    }\n\n    //Delivered package rejected by manufacturer\n    function rejectPackageAtReceiver() public returns (bool) {\n        return updatePackageStatus(6, 5);\n    }\n\n    //Delivered package approved by manufacturer\n    function approvePackageAtReceiver() public returns (bool) {\n        return updatePackageStatus(7, 5);\n    }\n\n    //Recieve & update raw material package status by tagged/associated receiver/manufacturer. Emit event with package details.\n    //@param _shipper Transporter/Shipper Address\n    function UpdatePackageStatusOnReceived() public {\n        require(packageStatus == status(1), \"RM_MUST_AT_M\"); //Material package must be at manufacturer before status update.\n        transactionBlocks.push(block.number);\n        packageStatus = status(2);\n    }\n\n    function updatePackageStatus(uint256 _updatedStatus, uint256 _prevStatus)\n        private\n        returns (bool)\n    {\n        if (packageStatus == status(_prevStatus)) {\n            transactionBlocks.push(block.number);\n            packageStatus = status(_updatedStatus);\n            return true;\n        } else {\n            revert(\"IN_PROCESS\");\n        }\n    }\n}\n",
  "sourcePath": "C:\\Development\\Blockchain\\Learning-2\\contracts\\RawMaterials.sol",
  "compiler": {
    "name": "solc",
    "version": "0.8.7+commit.e28d00a7.Emscripten.clang"
  },
  "schemaVersion": "3.4.1",
  "updatedAt": "2021-08-14T11:11:12.306Z",
  "devdoc": {
    "kind": "dev",
    "methods": {},
    "version": 1
  },
  "userdoc": {
    "kind": "user",
    "methods": {},
    "version": 1
  }
}