{
  "contractName": "RawMaterials",
  "abi": [
    {
      "inputs": [
        {
          "internalType": "address",
          "name": "_supplier",
          "type": "address"
        },
        {
          "internalType": "string",
          "name": "_description",
          "type": "string"
        },
        {
          "internalType": "string",
          "name": "_producerName",
          "type": "string"
        },
        {
          "internalType": "string",
          "name": "_location",
          "type": "string"
        },
        {
          "internalType": "uint256",
          "name": "_quantity",
          "type": "uint256"
        },
        {
          "internalType": "address",
          "name": "_shipper",
          "type": "address"
        },
        {
          "internalType": "address",
          "name": "_receiver",
          "type": "address"
        }
      ],
      "stateMutability": "nonpayable",
      "type": "constructor"
    },
    {
      "anonymous": false,
      "inputs": [
        {
          "indexed": true,
          "internalType": "address",
          "name": "BatchId",
          "type": "address"
        },
        {
          "indexed": true,
          "internalType": "address",
          "name": "Shipper",
          "type": "address"
        },
        {
          "indexed": true,
          "internalType": "address",
          "name": "Manufacturer",
          "type": "address"
        },
        {
          "indexed": false,
          "internalType": "uint256",
          "name": "TransporterType",
          "type": "uint256"
        },
        {
          "indexed": false,
          "internalType": "uint256",
          "name": "Status",
          "type": "uint256"
        }
      ],
      "name": "ShippmentUpdate",
      "type": "event"
    },
    {
      "inputs": [],
      "name": "getSuppliedRawMaterialDetails",
      "outputs": [
        {
          "internalType": "address",
          "name": "_supplier",
          "type": "address"
        },
        {
          "internalType": "string",
          "name": "_description",
          "type": "string"
        },
        {
          "internalType": "string",
          "name": "_producerName",
          "type": "string"
        },
        {
          "internalType": "string",
          "name": "_location",
          "type": "string"
        },
        {
          "internalType": "uint256",
          "name": "_quantity",
          "type": "uint256"
        },
        {
          "internalType": "address",
          "name": "_shipper",
          "type": "address"
        },
        {
          "internalType": "address",
          "name": "_receiver",
          "type": "address"
        }
      ],
      "stateMutability": "view",
      "type": "function"
    },
    {
      "inputs": [],
      "name": "getRawMaterialsStatus",
      "outputs": [
        {
          "internalType": "uint256",
          "name": "",
          "type": "uint256"
        }
      ],
      "stateMutability": "view",
      "type": "function"
    },
    {
      "inputs": [],
      "name": "getRawMaterialID",
      "outputs": [
        {
          "internalType": "address",
          "name": "",
          "type": "address"
        }
      ],
      "stateMutability": "view",
      "type": "function"
    },
    {
      "inputs": [
        {
          "internalType": "address",
          "name": "_shipper",
          "type": "address"
        }
      ],
      "name": "pickRawMaterialPackage",
      "outputs": [],
      "stateMutability": "nonpayable",
      "type": "function"
    },
    {
      "inputs": [
        {
          "internalType": "address",
          "name": "_receiver",
          "type": "address"
        }
      ],
      "name": "UpdatePackageStatusOnReceived",
      "outputs": [],
      "stateMutability": "nonpayable",
      "type": "function"
    }
  ],
  "bytecode": "0x60806040523480156200001157600080fd5b5060405162000a7338038062000a73833981016040819052620000349162000272565b60008054600160a060020a038916600160a060020a0319918216179091556001805490911630179055855162000072906002906020890190620000f8565b50845162000088906003906020880190620000f8565b5083516200009e906004906020870190620000f8565b5060059290925560068054600160a060020a0319908116600160a060020a0393841617909155600780549091169282169290921790915560088054600160a860020a031916959091169490941790935550620003ca915050565b828054620001069062000345565b90600052602060002090601f0160209004810192826200012a576000855562000175565b82601f106200014557805160ff191683800117855562000175565b8280016001018555821562000175579182015b828111156200017557825182559160200191906001019062000158565b506200018392915062000187565b5090565b5b8082111562000183576000815560010162000188565b8051600160a060020a0381168114620001b657600080fd5b919050565b600082601f830112620001cd57600080fd5b81516001604060020a0380821115620001ea57620001ea6200039b565b604051601f8301601f19908116603f011681019082821181831017156200021557620002156200039b565b816040528381526020925086838588010111156200023257600080fd5b600091505b8382101562000256578582018301518183018401529082019062000237565b83821115620002685760008385830101525b9695505050505050565b600080600080600080600060e0888a0312156200028e57600080fd5b62000299886200019e565b965060208801516001604060020a0380821115620002b657600080fd5b620002c48b838c01620001bb565b975060408a0151915080821115620002db57600080fd5b620002e98b838c01620001bb565b965060608a01519150808211156200030057600080fd5b506200030f8a828b01620001bb565b945050608088015192506200032760a089016200019e565b91506200033760c089016200019e565b905092959891949750929550565b6002810460018216806200035a57607f821691505b6020821081141562000395577f4e487b7100000000000000000000000000000000000000000000000000000000600052602260045260246000fd5b50919050565b7f4e487b7100000000000000000000000000000000000000000000000000000000600052604160045260246000fd5b61069980620003da6000396000f3fe608060405234801561001057600080fd5b506004361061005a5760e060020a600035046392296299811461005f5780639538e0021461007a578063b1767f871461008f578063b821320e146100aa578063f6f1bf66146100bd575b600080fd5b6100676100d8565b6040519081526020015b60405180910390f35b61008d610088366004610502565b6100fe565b005b61009761020a565b604051610071979695949392919061057f565b61008d6100b8366004610502565b6103ff565b600154604051600160a060020a039091168152602001610071565b60085460009060a060020a900460ff1660028111156100f9576100f9610629565b905090565b600754600160a060020a0382811691161461014e5760405160e560020a62461bcd028152602060048201526005602482015260d860020a644f524d43430260448201526064015b60405180910390fd5b600160085460a060020a900460ff16600281111561016e5761016e610629565b146101b05760405160e560020a62461bcd02815260206004820152600c602482015260a060020a6b524d5f4d5553545f41545f4d026044820152606401610145565b6008805460a060020a60ff02191660a160020a179055600654600180546040805192835260026020840152600160a060020a038581169481169392169160008051602061064483398151915291015b60405180910390a450565b6008546005546006546007546002805460009560609586958695899586958695600160a060020a03908116959294600394600494939183169216908690610250906105ea565b80601f016020809104026020016040519081016040528092919081815260200182805461027c906105ea565b80156102c95780601f1061029e576101008083540402835291602001916102c9565b820191906000526020600020905b8154815290600101906020018083116102ac57829003601f168201915b505050505095508480546102dc906105ea565b80601f0160208091040260200160405190810160405280929190818152602001828054610308906105ea565b80156103555780601f1061032a57610100808354040283529160200191610355565b820191906000526020600020905b81548152906001019060200180831161033857829003601f168201915b50505050509450838054610368906105ea565b80601f0160208091040260200160405190810160405280929190818152602001828054610394906105ea565b80156103e15780601f106103b6576101008083540402835291602001916103e1565b820191906000526020600020905b8154815290600101906020018083116103c457829003601f168201915b50505050509350965096509650965096509650965090919293949596565b600654600160a060020a0382811691161461044b5760405160e560020a62461bcd02815260040161014590602080825260049082015260e060020a634f53434302604082015260600190565b600060085460a060020a900460ff16600281111561046b5761046b610629565b146104ad5760405160e560020a62461bcd02815260206004820152600c602482015260a060020a6b524d5f4d5553545f41545f53026044820152606401610145565b6008805460a060020a60ff02191660a060020a17905560075460018054604080518381526020810193909352600160a060020a03938416938581169392169160008051602061064483398151915291016101ff565b60006020828403121561051457600080fd5b8135600160a060020a038116811461052b57600080fd5b9392505050565b6000815180845260005b818110156105585760208185018101518683018201520161053c565b8181111561056a576000602083870101525b50601f01601f19169290920160200192915050565b6000600160a060020a03808a16835260e060208401526105a260e084018a610532565b83810360408501526105b4818a610532565b905083810360608501526105c88189610532565b60808501979097525093841660a083015250911660c090910152949350505050565b6002810460018216806105fe57607f821691505b602082108114156106235760e060020a634e487b710260009081526022600452602490fd5b50919050565b60e060020a634e487b710260009081526021600452602490fdfe7e89c4b1a4e2b51aae84eb1f90e8a34cb792ece5ac5cb63db4830c891220b28da2646970667358221220621e55c1a4fbbd6ed00eba018cb64a2002173a814d487894d184593749b08e4264736f6c63430008060033",
  "immutableReferences": {},
  "source": "// SPDX-License-Identifier: MIT\npragma solidity >=0.4.22 <0.9.0;\n\ncontract RawMaterials {\n    address owner;\n\n    enum status {\n        atProducer,\n        pickedForManufacturer,\n        deliveredAtManufacturer\n    }\n\n    //Raw material id\n    address materialId;\n    //Material description\n    string description;\n    //material producer/farmer name\n    string producerName;\n    //base location of material\n    string location;\n    //material quantity\n    uint256 quantity;\n    //material shipper\n    address shipper;\n    //product manufacturer\n    address manufacturer;\n    //material supplier/producer\n    address supplier;\n    //material package status\n    status packageStatus;\n\n    event ShippmentUpdate(\n        address indexed BatchId,\n        address indexed Shipper,\n        address indexed Manufacturer,\n        uint256 TransporterType,\n        uint256 Status\n    );\n\n    //Initiate new Raw Material package by supplier with necessary details.\n    constructor(\n        address _supplier,\n        string memory _description,\n        string memory _producerName,\n        string memory _location,\n        uint256 _quantity,\n        address _shipper,\n        address _receiver\n    ) {\n        owner = _supplier;\n        materialId = address(this);\n        description = _description;\n        producerName = _producerName;\n        location = _location;\n        quantity = _quantity;\n        shipper = _shipper;\n        manufacturer = _receiver;\n        supplier = _supplier;\n        shipper = _shipper;\n        packageStatus = status(0);\n    }\n\n    modifier onlyTransporter {\n        require(msg.sender == shipper, \"ORCC\"); //\"Only tagged shipper/transporter can call this.\"\n        _;\n    }\n\n    modifier onlyManufacturer {\n        require(msg.sender == manufacturer, \"OMCC\"); // \"Only tagged reciever/manufacturer can call this.\"\n        _;\n    }\n\n    //Get the Raw material package details initiated using constructor\n    function getSuppliedRawMaterialDetails()\n        public\n        view\n        returns (\n            address _supplier,\n            string memory _description,\n            string memory _producerName,\n            string memory _location,\n            uint256 _quantity,\n            address _shipper,\n            address _receiver\n        )\n    {\n        return (\n            supplier,\n            description,\n            producerName,\n            location,\n            quantity,\n            shipper,\n            manufacturer\n        );\n    }\n\n    //Get the Raw material package status.\n    function getRawMaterialsStatus() public view returns (uint256) {\n        return uint256(packageStatus);\n    }\n\n    //Get the Raw material/batch ID.\n    function getRawMaterialID() public view returns (address) {\n        return materialId;\n    }\n\n    //Pick & update raw material package status by tagged/associated shipper/transporter. Emit event with package details.\n    //@param _shipper Transporter/Shipper Address\n    function pickRawMaterialPackage(address _shipper) public {\n        require(_shipper == shipper, \"OSCC\"); //Only tagged shipper can call this.\n        require(packageStatus == status(0), \"RM_MUST_AT_S\"); //Material package must be at producer before shippment\n        packageStatus = status(1);\n        emit ShippmentUpdate(materialId, _shipper, manufacturer, 1, 1);\n    }\n\n    //Recieve & update raw material package status by tagged/associated receiver/manufacturer. Emit event with package details.\n    //@param _shipper Transporter/Shipper Address\n    function UpdatePackageStatusOnReceived(address _receiver) public {\n        require(_receiver == manufacturer, \"ORMCC\"); //Only tagged reciever/manufacturer can call this.\n        require(packageStatus == status(1), \"RM_MUST_AT_M\"); //Material package must be at manufacturer before status update.\n        packageStatus = status(2);\n        emit ShippmentUpdate(materialId, shipper, _receiver, 1, 2);\n    }\n}\n",
  "sourcePath": "C:\\Development\\Blockchain\\Learning-2\\contracts\\RawMaterials.sol",
  "compiler": {
    "name": "solc",
    "version": "0.8.6+commit.11564f7e.Emscripten.clang"
  },
  "schemaVersion": "3.4.1",
  "updatedAt": "2021-07-07T13:26:47.804Z",
  "devdoc": {
    "kind": "dev",
    "methods": {},
    "version": 1
  },
  "userdoc": {
    "kind": "user",
    "methods": {},
    "version": 1
  }
}