{
  "contractName": "SupplyChain",
  "abi": [
    {
      "inputs": [],
      "stateMutability": "nonpayable",
      "type": "constructor"
    },
    {
      "anonymous": false,
      "inputs": [
        {
          "indexed": false,
          "internalType": "address",
          "name": "medicineId",
          "type": "address"
        },
        {
          "indexed": false,
          "internalType": "address",
          "name": "materialId",
          "type": "address"
        },
        {
          "indexed": false,
          "internalType": "uint256",
          "name": "medicineBatchStatus",
          "type": "uint256"
        },
        {
          "indexed": false,
          "internalType": "uint256[]",
          "name": "transactionBlocks",
          "type": "uint256[]"
        },
        {
          "indexed": false,
          "internalType": "uint256",
          "name": "materialPackageStatus",
          "type": "uint256"
        }
      ],
      "name": "MedicinePackageInitialize",
      "type": "event"
    },
    {
      "anonymous": false,
      "inputs": [
        {
          "indexed": false,
          "internalType": "address",
          "name": "MedicineID",
          "type": "address"
        },
        {
          "indexed": true,
          "internalType": "address",
          "name": "SubContractID",
          "type": "address"
        },
        {
          "indexed": false,
          "internalType": "uint256",
          "name": "MedicineSubBatchStatus",
          "type": "uint256"
        },
        {
          "indexed": false,
          "internalType": "uint256[]",
          "name": "transactionBlocksDP",
          "type": "uint256[]"
        }
      ],
      "name": "MedicineTransferredDPInitiated",
      "type": "event"
    },
    {
      "anonymous": false,
      "inputs": [
        {
          "indexed": true,
          "internalType": "address",
          "name": "materialId",
          "type": "address"
        },
        {
          "indexed": true,
          "internalType": "address",
          "name": "supplier",
          "type": "address"
        },
        {
          "indexed": false,
          "internalType": "address",
          "name": "manufacturer",
          "type": "address"
        },
        {
          "indexed": true,
          "internalType": "address",
          "name": "shipper",
          "type": "address"
        },
        {
          "indexed": false,
          "internalType": "string",
          "name": "producerName",
          "type": "string"
        },
        {
          "indexed": false,
          "internalType": "string",
          "name": "description",
          "type": "string"
        },
        {
          "indexed": false,
          "internalType": "string",
          "name": "location",
          "type": "string"
        },
        {
          "indexed": false,
          "internalType": "uint256",
          "name": "quantity",
          "type": "uint256"
        },
        {
          "indexed": false,
          "internalType": "address",
          "name": "inspector",
          "type": "address"
        },
        {
          "indexed": false,
          "internalType": "uint256",
          "name": "packageStatus",
          "type": "uint256"
        }
      ],
      "name": "RawMaterialInitialize",
      "type": "event"
    },
    {
      "anonymous": false,
      "inputs": [
        {
          "indexed": false,
          "internalType": "address",
          "name": "materialId",
          "type": "address"
        },
        {
          "indexed": false,
          "internalType": "uint256",
          "name": "packageStatus",
          "type": "uint256"
        }
      ],
      "name": "UpdatedMaterialShipmentStatus",
      "type": "event"
    },
    {
      "anonymous": false,
      "inputs": [
        {
          "indexed": false,
          "internalType": "string",
          "name": "medicineName",
          "type": "string"
        },
        {
          "indexed": false,
          "internalType": "string",
          "name": "location",
          "type": "string"
        },
        {
          "indexed": false,
          "internalType": "string",
          "name": "description",
          "type": "string"
        },
        {
          "indexed": false,
          "internalType": "uint256",
          "name": "quantity",
          "type": "uint256"
        },
        {
          "indexed": false,
          "internalType": "address",
          "name": "transporter",
          "type": "address"
        },
        {
          "indexed": false,
          "internalType": "address",
          "name": "distributor",
          "type": "address"
        }
      ],
      "name": "UpdatedMedicineBatchInfo",
      "type": "event"
    },
    {
      "anonymous": false,
      "inputs": [
        {
          "indexed": false,
          "internalType": "address",
          "name": "medicineId",
          "type": "address"
        },
        {
          "indexed": false,
          "internalType": "uint256",
          "name": "packageStatus",
          "type": "uint256"
        },
        {
          "indexed": false,
          "internalType": "uint256[]",
          "name": "transactionBlocks",
          "type": "uint256[]"
        }
      ],
      "name": "UpdatedMedicineBatchStatus",
      "type": "event"
    },
    {
      "anonymous": false,
      "inputs": [
        {
          "indexed": false,
          "internalType": "address",
          "name": "medicineId",
          "type": "address"
        },
        {
          "indexed": false,
          "internalType": "uint256",
          "name": "packageStatus",
          "type": "uint256"
        },
        {
          "indexed": false,
          "internalType": "uint256[]",
          "name": "transactionBlocks",
          "type": "uint256[]"
        }
      ],
      "name": "UpdatedMedicineShipmentStatus",
      "type": "event"
    },
    {
      "anonymous": false,
      "inputs": [
        {
          "indexed": false,
          "internalType": "address",
          "name": "medicineId",
          "type": "address"
        },
        {
          "indexed": false,
          "internalType": "uint256",
          "name": "packageStatus",
          "type": "uint256"
        },
        {
          "indexed": false,
          "internalType": "uint256[]",
          "name": "transactionBlocks",
          "type": "uint256[]"
        }
      ],
      "name": "UpdatedMedicineStatus",
      "type": "event"
    },
    {
      "anonymous": false,
      "inputs": [
        {
          "indexed": false,
          "internalType": "address",
          "name": "medicineId",
          "type": "address"
        },
        {
          "indexed": false,
          "internalType": "uint256",
          "name": "packageStatus",
          "type": "uint256"
        },
        {
          "indexed": false,
          "internalType": "uint256[]",
          "name": "transactionBlocks",
          "type": "uint256[]"
        }
      ],
      "name": "UpdatedMedicineStatusOnReceived",
      "type": "event"
    },
    {
      "anonymous": false,
      "inputs": [
        {
          "indexed": false,
          "internalType": "address",
          "name": "medicineSubContract",
          "type": "address"
        },
        {
          "indexed": false,
          "internalType": "address",
          "name": "medicineId",
          "type": "address"
        },
        {
          "indexed": false,
          "internalType": "uint256",
          "name": "packageStatus",
          "type": "uint256"
        },
        {
          "indexed": false,
          "internalType": "uint256[]",
          "name": "transactionBlocksDP",
          "type": "uint256[]"
        }
      ],
      "name": "UpdatedMedicineSubBatchShipmentStatus",
      "type": "event"
    },
    {
      "anonymous": false,
      "inputs": [
        {
          "indexed": false,
          "internalType": "address",
          "name": "subContractId",
          "type": "address"
        },
        {
          "indexed": false,
          "internalType": "address",
          "name": "medicineId",
          "type": "address"
        },
        {
          "indexed": false,
          "internalType": "uint256",
          "name": "packageStatus",
          "type": "uint256"
        },
        {
          "indexed": false,
          "internalType": "uint256[]",
          "name": "transactionBlocksDP",
          "type": "uint256[]"
        }
      ],
      "name": "UpdatedMedicineSubBatchStatusOnReceived",
      "type": "event"
    },
    {
      "anonymous": false,
      "inputs": [
        {
          "indexed": false,
          "internalType": "address",
          "name": "materialId",
          "type": "address"
        },
        {
          "indexed": false,
          "internalType": "uint256",
          "name": "packageStatus",
          "type": "uint256"
        }
      ],
      "name": "UpdatedPackageStatus",
      "type": "event"
    },
    {
      "anonymous": false,
      "inputs": [
        {
          "indexed": false,
          "internalType": "address",
          "name": "materialId",
          "type": "address"
        },
        {
          "indexed": false,
          "internalType": "uint256",
          "name": "packageStatus",
          "type": "uint256"
        }
      ],
      "name": "UpdatedPackageStatusOnReceived",
      "type": "event"
    },
    {
      "anonymous": false,
      "inputs": [
        {
          "indexed": false,
          "internalType": "address",
          "name": "materialId",
          "type": "address"
        },
        {
          "indexed": false,
          "internalType": "uint256",
          "name": "packageStatus",
          "type": "uint256"
        }
      ],
      "name": "UpdatedRawMaterialPackageStatus",
      "type": "event"
    },
    {
      "inputs": [
        {
          "internalType": "address",
          "name": "",
          "type": "address"
        },
        {
          "internalType": "uint256",
          "name": "",
          "type": "uint256"
        }
      ],
      "name": "DistributorTaggedMedicineList",
      "outputs": [
        {
          "internalType": "address",
          "name": "",
          "type": "address"
        }
      ],
      "stateMutability": "view",
      "type": "function",
      "constant": true
    },
    {
      "inputs": [
        {
          "internalType": "address",
          "name": "",
          "type": "address"
        },
        {
          "internalType": "uint256",
          "name": "",
          "type": "uint256"
        }
      ],
      "name": "ManufacturerTaggedMaterialList",
      "outputs": [
        {
          "internalType": "address",
          "name": "",
          "type": "address"
        }
      ],
      "stateMutability": "view",
      "type": "function",
      "constant": true
    },
    {
      "inputs": [
        {
          "internalType": "address",
          "name": "",
          "type": "address"
        },
        {
          "internalType": "uint256",
          "name": "",
          "type": "uint256"
        }
      ],
      "name": "MaterialShipmentList",
      "outputs": [
        {
          "internalType": "address",
          "name": "",
          "type": "address"
        }
      ],
      "stateMutability": "view",
      "type": "function",
      "constant": true
    },
    {
      "inputs": [
        {
          "internalType": "address",
          "name": "",
          "type": "address"
        },
        {
          "internalType": "uint256",
          "name": "",
          "type": "uint256"
        }
      ],
      "name": "PharmaTaggedMedicineSubBatchList",
      "outputs": [
        {
          "internalType": "address",
          "name": "",
          "type": "address"
        }
      ],
      "stateMutability": "view",
      "type": "function",
      "constant": true
    },
    {
      "inputs": [
        {
          "internalType": "address",
          "name": "",
          "type": "address"
        },
        {
          "internalType": "uint256",
          "name": "",
          "type": "uint256"
        }
      ],
      "name": "SupplierRegisteredRawMaterialList",
      "outputs": [
        {
          "internalType": "address",
          "name": "",
          "type": "address"
        }
      ],
      "stateMutability": "view",
      "type": "function",
      "constant": true
    },
    {
      "inputs": [
        {
          "internalType": "address",
          "name": "",
          "type": "address"
        },
        {
          "internalType": "uint256",
          "name": "",
          "type": "uint256"
        }
      ],
      "name": "TaggedInspectorMaterialList",
      "outputs": [
        {
          "internalType": "address",
          "name": "",
          "type": "address"
        }
      ],
      "stateMutability": "view",
      "type": "function",
      "constant": true
    },
    {
      "inputs": [
        {
          "internalType": "address",
          "name": "",
          "type": "address"
        },
        {
          "internalType": "uint256",
          "name": "",
          "type": "uint256"
        }
      ],
      "name": "TaggedInspectorMedicineList",
      "outputs": [
        {
          "internalType": "address",
          "name": "",
          "type": "address"
        }
      ],
      "stateMutability": "view",
      "type": "function",
      "constant": true
    },
    {
      "inputs": [
        {
          "internalType": "address",
          "name": "",
          "type": "address"
        },
        {
          "internalType": "uint256",
          "name": "",
          "type": "uint256"
        }
      ],
      "name": "TaggedTransporterMaterialList",
      "outputs": [
        {
          "internalType": "address",
          "name": "",
          "type": "address"
        }
      ],
      "stateMutability": "view",
      "type": "function",
      "constant": true
    },
    {
      "inputs": [
        {
          "internalType": "address",
          "name": "",
          "type": "address"
        },
        {
          "internalType": "uint256",
          "name": "",
          "type": "uint256"
        }
      ],
      "name": "TaggedTransporterMedicineList",
      "outputs": [
        {
          "internalType": "address",
          "name": "",
          "type": "address"
        }
      ],
      "stateMutability": "view",
      "type": "function",
      "constant": true
    },
    {
      "inputs": [
        {
          "internalType": "address",
          "name": "",
          "type": "address"
        },
        {
          "internalType": "uint256",
          "name": "",
          "type": "uint256"
        }
      ],
      "name": "TaggedTransporterMedicineSubBatchList",
      "outputs": [
        {
          "internalType": "address",
          "name": "",
          "type": "address"
        }
      ],
      "stateMutability": "view",
      "type": "function",
      "constant": true
    },
    {
      "inputs": [],
      "name": "TotalMedicineSubBatchesDelivered",
      "outputs": [
        {
          "internalType": "uint256",
          "name": "",
          "type": "uint256"
        }
      ],
      "stateMutability": "view",
      "type": "function",
      "constant": true
    },
    {
      "inputs": [
        {
          "internalType": "uint256",
          "name": "",
          "type": "uint256"
        }
      ],
      "name": "UserList",
      "outputs": [
        {
          "internalType": "address",
          "name": "userAddress",
          "type": "address"
        },
        {
          "internalType": "string",
          "name": "userName",
          "type": "string"
        },
        {
          "internalType": "string",
          "name": "userLocation",
          "type": "string"
        },
        {
          "internalType": "enum User.roles",
          "name": "userRole",
          "type": "uint8"
        },
        {
          "internalType": "string",
          "name": "userStatus",
          "type": "string"
        },
        {
          "internalType": "bool",
          "name": "isDeleted",
          "type": "bool"
        },
        {
          "internalType": "uint256",
          "name": "registrationDate",
          "type": "uint256"
        }
      ],
      "stateMutability": "view",
      "type": "function",
      "constant": true
    },
    {
      "inputs": [
        {
          "internalType": "address",
          "name": "_materialId",
          "type": "address"
        }
      ],
      "name": "approveMaterialPackage",
      "outputs": [],
      "stateMutability": "nonpayable",
      "type": "function"
    },
    {
      "inputs": [
        {
          "internalType": "address",
          "name": "_materialId",
          "type": "address"
        },
        {
          "internalType": "address",
          "name": "_transporter",
          "type": "address"
        }
      ],
      "name": "approveMaterialPackageAfterInspection",
      "outputs": [],
      "stateMutability": "nonpayable",
      "type": "function"
    },
    {
      "inputs": [
        {
          "internalType": "address",
          "name": "_medicineId",
          "type": "address"
        }
      ],
      "name": "approveMedicineBatch",
      "outputs": [],
      "stateMutability": "nonpayable",
      "type": "function"
    },
    {
      "inputs": [
        {
          "internalType": "address",
          "name": "_medicineId",
          "type": "address"
        },
        {
          "internalType": "address",
          "name": "_transporter",
          "type": "address"
        }
      ],
      "name": "approveMedicineBatchAfterInspection",
      "outputs": [],
      "stateMutability": "nonpayable",
      "type": "function"
    },
    {
      "inputs": [
        {
          "internalType": "address",
          "name": "_subContractId",
          "type": "address"
        }
      ],
      "name": "approveMedicineSubBatch",
      "outputs": [],
      "stateMutability": "nonpayable",
      "type": "function"
    },
    {
      "inputs": [
        {
          "internalType": "address",
          "name": "_materialId",
          "type": "address"
        },
        {
          "internalType": "string",
          "name": "_medicineName",
          "type": "string"
        },
        {
          "internalType": "string",
          "name": "_description",
          "type": "string"
        },
        {
          "internalType": "string",
          "name": "_location",
          "type": "string"
        },
        {
          "internalType": "uint256",
          "name": "_quantity",
          "type": "uint256"
        },
        {
          "internalType": "address",
          "name": "_transporter",
          "type": "address"
        },
        {
          "internalType": "address",
          "name": "_distributor",
          "type": "address"
        },
        {
          "internalType": "address",
          "name": "_inspector",
          "type": "address"
        }
      ],
      "name": "createMedicinePackage",
      "outputs": [],
      "stateMutability": "nonpayable",
      "type": "function"
    },
    {
      "inputs": [
        {
          "internalType": "string",
          "name": "_desc",
          "type": "string"
        },
        {
          "internalType": "string",
          "name": "_producerName",
          "type": "string"
        },
        {
          "internalType": "string",
          "name": "_location",
          "type": "string"
        },
        {
          "internalType": "uint256",
          "name": "_quantity",
          "type": "uint256"
        },
        {
          "internalType": "address",
          "name": "_transporter",
          "type": "address"
        },
        {
          "internalType": "address",
          "name": "_manufacturer",
          "type": "address"
        },
        {
          "internalType": "address",
          "name": "_inspector",
          "type": "address"
        }
      ],
      "name": "createRawMaterialPackage",
      "outputs": [],
      "stateMutability": "nonpayable",
      "type": "function"
    },
    {
      "inputs": [
        {
          "internalType": "address",
          "name": "_address",
          "type": "address"
        }
      ],
      "name": "deleteUser",
      "outputs": [],
      "stateMutability": "nonpayable",
      "type": "function"
    },
    {
      "inputs": [
        {
          "internalType": "address",
          "name": "_materialId",
          "type": "address"
        },
        {
          "internalType": "address",
          "name": "_receiver",
          "type": "address"
        }
      ],
      "name": "deliverShippedMaterialPackage",
      "outputs": [],
      "stateMutability": "nonpayable",
      "type": "function"
    },
    {
      "inputs": [
        {
          "internalType": "address",
          "name": "_medicineId",
          "type": "address"
        },
        {
          "internalType": "address",
          "name": "_receiver",
          "type": "address"
        }
      ],
      "name": "deliverShippedMedicineBatch",
      "outputs": [],
      "stateMutability": "nonpayable",
      "type": "function"
    },
    {
      "inputs": [
        {
          "internalType": "address",
          "name": "_subContractId",
          "type": "address"
        },
        {
          "internalType": "address",
          "name": "_receiver",
          "type": "address"
        }
      ],
      "name": "deliverShippedMedicineSubBatch",
      "outputs": [],
      "stateMutability": "nonpayable",
      "type": "function"
    },
    {
      "inputs": [
        {
          "internalType": "address",
          "name": "_manufacturer",
          "type": "address"
        }
      ],
      "name": "getTotalMaterialPackagesShippedCount",
      "outputs": [
        {
          "internalType": "uint256",
          "name": "",
          "type": "uint256"
        }
      ],
      "stateMutability": "view",
      "type": "function",
      "constant": true
    },
    {
      "inputs": [],
      "name": "getTotalMedicineSubBatchesDeliveredCount",
      "outputs": [
        {
          "internalType": "uint256",
          "name": "",
          "type": "uint256"
        }
      ],
      "stateMutability": "view",
      "type": "function",
      "constant": true
    },
    {
      "inputs": [
        {
          "internalType": "address",
          "name": "_materialId",
          "type": "address"
        },
        {
          "internalType": "address",
          "name": "_receiver",
          "type": "address"
        }
      ],
      "name": "loadMaterialPackageForShipment",
      "outputs": [],
      "stateMutability": "nonpayable",
      "type": "function"
    },
    {
      "inputs": [
        {
          "internalType": "address",
          "name": "_medicineId",
          "type": "address"
        },
        {
          "internalType": "address",
          "name": "_receiver",
          "type": "address"
        }
      ],
      "name": "loadMedicineBatchForShipment",
      "outputs": [],
      "stateMutability": "nonpayable",
      "type": "function"
    },
    {
      "inputs": [
        {
          "internalType": "address",
          "name": "_subContractId",
          "type": "address"
        },
        {
          "internalType": "address",
          "name": "_receiver",
          "type": "address"
        }
      ],
      "name": "loadMedicineSubBatchForShipment",
      "outputs": [],
      "stateMutability": "nonpayable",
      "type": "function"
    },
    {
      "inputs": [],
      "name": "owner",
      "outputs": [
        {
          "internalType": "address",
          "name": "",
          "type": "address"
        }
      ],
      "stateMutability": "view",
      "type": "function",
      "constant": true
    },
    {
      "inputs": [
        {
          "internalType": "string",
          "name": "_customerName",
          "type": "string"
        },
        {
          "internalType": "uint256",
          "name": "_customerAge",
          "type": "uint256"
        },
        {
          "internalType": "string",
          "name": "_doctorName",
          "type": "string"
        },
        {
          "internalType": "uint256",
          "name": "_quantity",
          "type": "uint256"
        },
        {
          "internalType": "uint256",
          "name": "_amountPaid",
          "type": "uint256"
        },
        {
          "internalType": "address",
          "name": "_medicineId",
          "type": "address"
        },
        {
          "internalType": "address",
          "name": "_pharma",
          "type": "address"
        },
        {
          "internalType": "address",
          "name": "_materialId",
          "type": "address"
        }
      ],
      "name": "pushCustomerDetails",
      "outputs": [],
      "stateMutability": "nonpayable",
      "type": "function"
    },
    {
      "inputs": [
        {
          "internalType": "address",
          "name": "_address",
          "type": "address"
        },
        {
          "internalType": "string",
          "name": "_name",
          "type": "string"
        },
        {
          "internalType": "string",
          "name": "_location",
          "type": "string"
        },
        {
          "internalType": "uint256",
          "name": "_role",
          "type": "uint256"
        },
        {
          "internalType": "string",
          "name": "_userStatus",
          "type": "string"
        }
      ],
      "name": "registerAdmin",
      "outputs": [],
      "stateMutability": "nonpayable",
      "type": "function"
    },
    {
      "inputs": [
        {
          "internalType": "address",
          "name": "_address",
          "type": "address"
        },
        {
          "internalType": "string",
          "name": "_name",
          "type": "string"
        },
        {
          "internalType": "string",
          "name": "_location",
          "type": "string"
        },
        {
          "internalType": "uint256",
          "name": "_role",
          "type": "uint256"
        },
        {
          "internalType": "string",
          "name": "_userStatus",
          "type": "string"
        }
      ],
      "name": "registerUser",
      "outputs": [],
      "stateMutability": "nonpayable",
      "type": "function"
    },
    {
      "inputs": [
        {
          "internalType": "address",
          "name": "_materialId",
          "type": "address"
        }
      ],
      "name": "rejectMaterialPackage",
      "outputs": [],
      "stateMutability": "nonpayable",
      "type": "function"
    },
    {
      "inputs": [
        {
          "internalType": "address",
          "name": "_materialId",
          "type": "address"
        },
        {
          "internalType": "address",
          "name": "_transporter",
          "type": "address"
        }
      ],
      "name": "rejectMaterialPackageAfterInspection",
      "outputs": [],
      "stateMutability": "nonpayable",
      "type": "function"
    },
    {
      "inputs": [
        {
          "internalType": "address",
          "name": "_medicineId",
          "type": "address"
        }
      ],
      "name": "rejectMedicineBatch",
      "outputs": [],
      "stateMutability": "nonpayable",
      "type": "function"
    },
    {
      "inputs": [
        {
          "internalType": "address",
          "name": "_medicineId",
          "type": "address"
        },
        {
          "internalType": "address",
          "name": "_transporter",
          "type": "address"
        }
      ],
      "name": "rejectMedicineBatchAfterInspection",
      "outputs": [],
      "stateMutability": "nonpayable",
      "type": "function"
    },
    {
      "inputs": [
        {
          "internalType": "address",
          "name": "_subContractId",
          "type": "address"
        }
      ],
      "name": "rejectMedicineSubBatch",
      "outputs": [],
      "stateMutability": "nonpayable",
      "type": "function"
    },
    {
      "inputs": [
        {
          "internalType": "address",
          "name": "_materialId",
          "type": "address"
        },
        {
          "internalType": "address",
          "name": "_inspector",
          "type": "address"
        }
      ],
      "name": "sendMaterialPackageForInspection",
      "outputs": [],
      "stateMutability": "nonpayable",
      "type": "function"
    },
    {
      "inputs": [
        {
          "internalType": "address",
          "name": "_medicineId",
          "type": "address"
        },
        {
          "internalType": "address",
          "name": "_inspector",
          "type": "address"
        }
      ],
      "name": "sendMedicineBatchForInspection",
      "outputs": [],
      "stateMutability": "nonpayable",
      "type": "function"
    },
    {
      "inputs": [
        {
          "internalType": "address",
          "name": "_subContractId",
          "type": "address"
        },
        {
          "internalType": "string",
          "name": "_customerName",
          "type": "string"
        },
        {
          "internalType": "uint256",
          "name": "_customerAge",
          "type": "uint256"
        },
        {
          "internalType": "string",
          "name": "_doctorName",
          "type": "string"
        },
        {
          "internalType": "uint256",
          "name": "_quantity",
          "type": "uint256"
        },
        {
          "internalType": "uint256",
          "name": "_amountPaid",
          "type": "uint256"
        },
        {
          "internalType": "address",
          "name": "_medicineId",
          "type": "address"
        },
        {
          "internalType": "address",
          "name": "_materialId",
          "type": "address"
        },
        {
          "internalType": "uint256",
          "name": "_medicineStatus",
          "type": "uint256"
        }
      ],
      "name": "submitCustomerAndMedicineSaleDetails",
      "outputs": [],
      "stateMutability": "nonpayable",
      "type": "function"
    },
    {
      "inputs": [
        {
          "internalType": "address",
          "name": "_medicineId",
          "type": "address"
        },
        {
          "internalType": "address",
          "name": "_pharma",
          "type": "address"
        },
        {
          "internalType": "address",
          "name": "_transporter",
          "type": "address"
        }
      ],
      "name": "transferMedicineFromDistributorToPharma",
      "outputs": [],
      "stateMutability": "nonpayable",
      "type": "function"
    },
    {
      "inputs": [
        {
          "internalType": "address",
          "name": "_medicineId",
          "type": "address"
        },
        {
          "internalType": "string",
          "name": "_medicineName",
          "type": "string"
        },
        {
          "internalType": "string",
          "name": "_location",
          "type": "string"
        },
        {
          "internalType": "string",
          "name": "_desc",
          "type": "string"
        },
        {
          "internalType": "uint256",
          "name": "_quantity",
          "type": "uint256"
        },
        {
          "internalType": "address",
          "name": "_transporter",
          "type": "address"
        },
        {
          "internalType": "address",
          "name": "_distributor",
          "type": "address"
        }
      ],
      "name": "updateMedicineBatch",
      "outputs": [],
      "stateMutability": "nonpayable",
      "type": "function"
    },
    {
      "inputs": [
        {
          "internalType": "address",
          "name": "_materialId",
          "type": "address"
        },
        {
          "internalType": "string",
          "name": "_desc",
          "type": "string"
        },
        {
          "internalType": "string",
          "name": "_producerName",
          "type": "string"
        },
        {
          "internalType": "string",
          "name": "_location",
          "type": "string"
        },
        {
          "internalType": "uint256",
          "name": "_quantity",
          "type": "uint256"
        },
        {
          "internalType": "address",
          "name": "_transporter",
          "type": "address"
        },
        {
          "internalType": "address",
          "name": "_manufacturer",
          "type": "address"
        },
        {
          "internalType": "address",
          "name": "_inspector",
          "type": "address"
        }
      ],
      "name": "updateRawMaterial",
      "outputs": [],
      "stateMutability": "nonpayable",
      "type": "function"
    },
    {
      "inputs": [
        {
          "internalType": "address",
          "name": "_medicineID",
          "type": "address"
        },
        {
          "internalType": "address",
          "name": "_subContractID",
          "type": "address"
        },
        {
          "internalType": "uint256",
          "name": "_medicineSaleStatus",
          "type": "uint256"
        }
      ],
      "name": "updateRecievedMedicineBatchStatus",
      "outputs": [],
      "stateMutability": "nonpayable",
      "type": "function"
    },
    {
      "inputs": [
        {
          "internalType": "address",
          "name": "_subContractId",
          "type": "address"
        },
        {
          "internalType": "uint256",
          "name": "_medicineStatus",
          "type": "uint256"
        }
      ],
      "name": "updateSaleStatus",
      "outputs": [],
      "stateMutability": "nonpayable",
      "type": "function"
    },
    {
      "inputs": [
        {
          "internalType": "address",
          "name": "_address",
          "type": "address"
        },
        {
          "internalType": "string",
          "name": "_location",
          "type": "string"
        },
        {
          "internalType": "string",
          "name": "_userStatus",
          "type": "string"
        }
      ],
      "name": "updateUser",
      "outputs": [],
      "stateMutability": "nonpayable",
      "type": "function"
    },
    {
      "inputs": [
        {
          "internalType": "address",
          "name": "_address",
          "type": "address"
        },
        {
          "internalType": "string",
          "name": "_userName",
          "type": "string"
        }
      ],
      "name": "validateUser",
      "outputs": [
        {
          "components": [
            {
              "internalType": "address",
              "name": "userAddress",
              "type": "address"
            },
            {
              "internalType": "string",
              "name": "userName",
              "type": "string"
            },
            {
              "internalType": "string",
              "name": "userLocation",
              "type": "string"
            },
            {
              "internalType": "enum User.roles",
              "name": "userRole",
              "type": "uint8"
            },
            {
              "internalType": "string",
              "name": "userStatus",
              "type": "string"
            },
            {
              "internalType": "bool",
              "name": "isDeleted",
              "type": "bool"
            },
            {
              "internalType": "uint256",
              "name": "registrationDate",
              "type": "uint256"
            }
          ],
          "internalType": "struct User.UserInfo",
          "name": "",
          "type": "tuple"
        }
      ],
      "stateMutability": "view",
      "type": "function",
      "constant": true
    },
    {
      "inputs": [
        {
          "internalType": "address",
          "name": "_address",
          "type": "address"
        }
      ],
      "name": "getUserInfo",
      "outputs": [
        {
          "components": [
            {
              "internalType": "address",
              "name": "userAddress",
              "type": "address"
            },
            {
              "internalType": "string",
              "name": "userName",
              "type": "string"
            },
            {
              "internalType": "string",
              "name": "userLocation",
              "type": "string"
            },
            {
              "internalType": "enum User.roles",
              "name": "userRole",
              "type": "uint8"
            },
            {
              "internalType": "string",
              "name": "userStatus",
              "type": "string"
            },
            {
              "internalType": "bool",
              "name": "isDeleted",
              "type": "bool"
            },
            {
              "internalType": "uint256",
              "name": "registrationDate",
              "type": "uint256"
            }
          ],
          "internalType": "struct User.UserInfo",
          "name": "",
          "type": "tuple"
        }
      ],
      "stateMutability": "view",
      "type": "function",
      "constant": true
    },
    {
      "inputs": [],
      "name": "getAllRegisteredUsers",
      "outputs": [
        {
          "components": [
            {
              "internalType": "address",
              "name": "userAddress",
              "type": "address"
            },
            {
              "internalType": "string",
              "name": "userName",
              "type": "string"
            },
            {
              "internalType": "string",
              "name": "userLocation",
              "type": "string"
            },
            {
              "internalType": "enum User.roles",
              "name": "userRole",
              "type": "uint8"
            },
            {
              "internalType": "string",
              "name": "userStatus",
              "type": "string"
            },
            {
              "internalType": "bool",
              "name": "isDeleted",
              "type": "bool"
            },
            {
              "internalType": "uint256",
              "name": "registrationDate",
              "type": "uint256"
            }
          ],
          "internalType": "struct User.UserInfo[]",
          "name": "",
          "type": "tuple[]"
        }
      ],
      "stateMutability": "view",
      "type": "function",
      "constant": true
    },
    {
      "inputs": [
        {
          "internalType": "address",
          "name": "_packageID",
          "type": "address"
        }
      ],
      "name": "getSupplierRegisteredRawMaterialPackageStatus",
      "outputs": [
        {
          "internalType": "uint256",
          "name": "",
          "type": "uint256"
        }
      ],
      "stateMutability": "view",
      "type": "function",
      "constant": true
    },
    {
      "inputs": [
        {
          "internalType": "address",
          "name": "_supplier",
          "type": "address"
        }
      ],
      "name": "getListOfRegisteredRawMateriaAddress",
      "outputs": [
        {
          "internalType": "address[]",
          "name": "",
          "type": "address[]"
        }
      ],
      "stateMutability": "view",
      "type": "function",
      "constant": true
    },
    {
      "inputs": [
        {
          "internalType": "address",
          "name": "_inspector",
          "type": "address"
        }
      ],
      "name": "getTaggedInspectorMaterialList",
      "outputs": [
        {
          "internalType": "address[]",
          "name": "",
          "type": "address[]"
        }
      ],
      "stateMutability": "view",
      "type": "function",
      "constant": true
    },
    {
      "inputs": [
        {
          "internalType": "address",
          "name": "_transporter",
          "type": "address"
        }
      ],
      "name": "getTaggedTransporterMaterialList",
      "outputs": [
        {
          "internalType": "address[]",
          "name": "",
          "type": "address[]"
        }
      ],
      "stateMutability": "view",
      "type": "function",
      "constant": true
    },
    {
      "inputs": [
        {
          "internalType": "address",
          "name": "_manufacturer",
          "type": "address"
        }
      ],
      "name": "getTaggedManufacturerMaterialList",
      "outputs": [
        {
          "internalType": "address[]",
          "name": "",
          "type": "address[]"
        }
      ],
      "stateMutability": "view",
      "type": "function",
      "constant": true
    },
    {
      "inputs": [
        {
          "internalType": "address",
          "name": "_inspector",
          "type": "address"
        }
      ],
      "name": "getTaggedInspectorMedicineList",
      "outputs": [
        {
          "internalType": "address[]",
          "name": "",
          "type": "address[]"
        }
      ],
      "stateMutability": "view",
      "type": "function",
      "constant": true
    },
    {
      "inputs": [
        {
          "internalType": "address",
          "name": "_transporter",
          "type": "address"
        }
      ],
      "name": "getTaggedTransporterMedicineList",
      "outputs": [
        {
          "internalType": "address[]",
          "name": "",
          "type": "address[]"
        }
      ],
      "stateMutability": "view",
      "type": "function",
      "constant": true
    },
    {
      "inputs": [
        {
          "internalType": "address",
          "name": "_distributor",
          "type": "address"
        }
      ],
      "name": "getDistributorTaggedMedicineList",
      "outputs": [
        {
          "internalType": "address[]",
          "name": "",
          "type": "address[]"
        }
      ],
      "stateMutability": "view",
      "type": "function",
      "constant": true
    },
    {
      "inputs": [
        {
          "internalType": "address",
          "name": "_transporter",
          "type": "address"
        }
      ],
      "name": "getTransporterTaggedMedicineSubBatchList",
      "outputs": [
        {
          "internalType": "address[]",
          "name": "",
          "type": "address[]"
        }
      ],
      "stateMutability": "view",
      "type": "function",
      "constant": true
    },
    {
      "inputs": [
        {
          "internalType": "address",
          "name": "_pharma",
          "type": "address"
        }
      ],
      "name": "getPharmaTaggedMedicineSubBatchList",
      "outputs": [
        {
          "internalType": "address[]",
          "name": "",
          "type": "address[]"
        }
      ],
      "stateMutability": "view",
      "type": "function",
      "constant": true
    },
    {
      "inputs": [
        {
          "internalType": "address",
          "name": "_materialId",
          "type": "address"
        }
      ],
      "name": "getRegisteredRawMaterialDetails",
      "outputs": [
        {
          "internalType": "address",
          "name": "materialId",
          "type": "address"
        },
        {
          "internalType": "address",
          "name": "supplier",
          "type": "address"
        },
        {
          "internalType": "string",
          "name": "description",
          "type": "string"
        },
        {
          "internalType": "string",
          "name": "producerName",
          "type": "string"
        },
        {
          "internalType": "string",
          "name": "location",
          "type": "string"
        },
        {
          "internalType": "uint256",
          "name": "quantity",
          "type": "uint256"
        },
        {
          "internalType": "address",
          "name": "shipper",
          "type": "address"
        },
        {
          "internalType": "address",
          "name": "manufacturer",
          "type": "address"
        },
        {
          "internalType": "uint256",
          "name": "packageStatus",
          "type": "uint256"
        },
        {
          "internalType": "uint256[]",
          "name": "transactionBlocks",
          "type": "uint256[]"
        },
        {
          "internalType": "address",
          "name": "inspector",
          "type": "address"
        }
      ],
      "stateMutability": "view",
      "type": "function",
      "constant": true
    },
    {
      "inputs": [
        {
          "internalType": "address",
          "name": "_manufacturer",
          "type": "address"
        }
      ],
      "name": "getAllShippedRawMaterialList",
      "outputs": [
        {
          "internalType": "address[]",
          "name": "",
          "type": "address[]"
        }
      ],
      "stateMutability": "view",
      "type": "function",
      "constant": true
    },
    {
      "inputs": [
        {
          "internalType": "address",
          "name": "_manufacturer",
          "type": "address"
        }
      ],
      "name": "getManufacturedMedicinesAddress",
      "outputs": [
        {
          "internalType": "address[]",
          "name": "",
          "type": "address[]"
        }
      ],
      "stateMutability": "view",
      "type": "function",
      "constant": true
    },
    {
      "inputs": [
        {
          "internalType": "address",
          "name": "_batchId",
          "type": "address"
        }
      ],
      "name": "getMedicineDetailsByBatchId",
      "outputs": [
        {
          "internalType": "address",
          "name": "medicineId",
          "type": "address"
        },
        {
          "internalType": "string",
          "name": "medicineName",
          "type": "string"
        },
        {
          "internalType": "string",
          "name": "description",
          "type": "string"
        },
        {
          "internalType": "string",
          "name": "location",
          "type": "string"
        },
        {
          "components": [
            {
              "internalType": "address",
              "name": "shipper",
              "type": "address"
            },
            {
              "internalType": "address",
              "name": "distributor",
              "type": "address"
            },
            {
              "internalType": "address",
              "name": "manufacturer",
              "type": "address"
            },
            {
              "internalType": "address",
              "name": "inspector",
              "type": "address"
            }
          ],
          "internalType": "struct Medicine.Entity",
          "name": "medicineEntity",
          "type": "tuple"
        },
        {
          "internalType": "address",
          "name": "materialId",
          "type": "address"
        },
        {
          "internalType": "uint256",
          "name": "quantity",
          "type": "uint256"
        },
        {
          "internalType": "uint256",
          "name": "packageStatus",
          "type": "uint256"
        },
        {
          "internalType": "uint256[]",
          "name": "transactionBlocks",
          "type": "uint256[]"
        }
      ],
      "stateMutability": "view",
      "type": "function",
      "constant": true
    },
    {
      "inputs": [
        {
          "internalType": "address",
          "name": "_distributor",
          "type": "address"
        }
      ],
      "name": "getAllTransferredMedicineBatches",
      "outputs": [
        {
          "internalType": "address[]",
          "name": "",
          "type": "address[]"
        }
      ],
      "stateMutability": "view",
      "type": "function",
      "constant": true
    },
    {
      "inputs": [
        {
          "internalType": "address",
          "name": "_subContractId",
          "type": "address"
        }
      ],
      "name": "getMedicineBatchSubContractDetails",
      "outputs": [
        {
          "internalType": "address",
          "name": "medicineSubContract",
          "type": "address"
        },
        {
          "internalType": "address",
          "name": "medicineId",
          "type": "address"
        },
        {
          "components": [
            {
              "internalType": "address",
              "name": "medicineId",
              "type": "address"
            },
            {
              "internalType": "string",
              "name": "medicineName",
              "type": "string"
            },
            {
              "internalType": "string",
              "name": "description",
              "type": "string"
            },
            {
              "internalType": "string",
              "name": "location",
              "type": "string"
            },
            {
              "internalType": "uint256",
              "name": "quantity",
              "type": "uint256"
            }
          ],
          "internalType": "struct Medicine.MedicineInfo",
          "name": "medicineInfo",
          "type": "tuple"
        },
        {
          "components": [
            {
              "internalType": "address",
              "name": "shipper",
              "type": "address"
            },
            {
              "internalType": "address",
              "name": "distributor",
              "type": "address"
            },
            {
              "internalType": "address",
              "name": "manufacturer",
              "type": "address"
            },
            {
              "internalType": "address",
              "name": "inspector",
              "type": "address"
            }
          ],
          "internalType": "struct Medicine.Entity",
          "name": "medicineEntity",
          "type": "tuple"
        },
        {
          "internalType": "address",
          "name": "pharma",
          "type": "address"
        },
        {
          "internalType": "uint256",
          "name": "packageStatus",
          "type": "uint256"
        },
        {
          "internalType": "uint256[]",
          "name": "transactionBlocksDP",
          "type": "uint256[]"
        }
      ],
      "stateMutability": "view",
      "type": "function",
      "constant": true
    },
    {
      "inputs": [
        {
          "internalType": "address",
          "name": "_medicineID",
          "type": "address"
        }
      ],
      "name": "getMedicineSaleStatusByID",
      "outputs": [
        {
          "internalType": "uint256",
          "name": "",
          "type": "uint256"
        }
      ],
      "stateMutability": "view",
      "type": "function",
      "constant": true
    },
    {
      "inputs": [
        {
          "internalType": "address",
          "name": "_pharma",
          "type": "address"
        }
      ],
      "name": "getCustomerInfoByPharmaShop",
      "outputs": [
        {
          "components": [
            {
              "internalType": "string",
              "name": "customerName",
              "type": "string"
            },
            {
              "internalType": "uint256",
              "name": "customerAge",
              "type": "uint256"
            },
            {
              "internalType": "string",
              "name": "doctorName",
              "type": "string"
            },
            {
              "internalType": "uint256",
              "name": "quantity",
              "type": "uint256"
            },
            {
              "internalType": "uint256",
              "name": "amountPaid",
              "type": "uint256"
            },
            {
              "internalType": "address",
              "name": "medicineId",
              "type": "address"
            },
            {
              "internalType": "address",
              "name": "materialId",
              "type": "address"
            }
          ],
          "internalType": "struct Customer.CustomerInfo[]",
          "name": "",
          "type": "tuple[]"
        }
      ],
      "stateMutability": "view",
      "type": "function",
      "constant": true
    }
  ],
  "bytecode": "0x60806040523480156200001157600080fd5b50336000806101000a81548173ffffffffffffffffffffffffffffffffffffffff021916908373ffffffffffffffffffffffffffffffffffffffff16021790555062010f5280620000636000396000f3fe60806040523480156200001157600080fd5b506004361062000471576000357c0100000000000000000000000000000000000000000000000000000000900480639cb7d8231162000266578063d6f67301116200015e578063f101938311620000e6578063f8c241b511620000b0578063f8c241b51462000ef0578063faa724c01462000f26578063fb459ce31462000f5c578063fb50d54e1462000f7c578063fea3f9bf1462000f9c5762000471565b8063f10193831462000e5a578063f1e841591462000e7a578063f2bdb8f91462000e9a578063f6a3f2c51462000ed05762000471565b8063e81338b01162000128578063e81338b01462000d98578063e8eb606c1462000dce578063eaa2f67f1462000e04578063eae3c2071462000e3a5762000471565b8063d6f673011462000cec578063d79e53f31462000d22578063d7c255a91462000d42578063df649b461462000d785762000471565b8063a7d3bd1c11620001ee578063b6e44d8611620001b8578063b6e44d861462000bd8578063b8ca628f1462000c0e578063babe16551462000c44578063cbd58ba11462000c80578063cf9a98451462000cb65762000471565b8063a7d3bd1c1462000b58578063ae7343d61462000b78578063b30631b81462000b98578063b50f6b6c1462000bb85762000471565b8063a0a5992c1162000230578063a0a5992c1462000abe578063a0fe43bb1462000ae0578063a1170a5e1462000b00578063a5dff9941462000b365762000471565b80639cb7d8231462000a205780639db6f6291462000a5e578063a00453c01462000a7e578063a0656b8c1462000a9e5762000471565b80633fd6f50a116200037a578063715f237e11620003025780637e8e8c5c11620002cc5780637e8e8c5c146200093c5780638112041b146200095c5780638620ca4814620009925780638da5cb5b14620009c85780639664a89214620009ea5762000471565b8063715f237e1462000890578063748130a714620008c65780637b99cef014620008e65780637d34ebc0146200091c5762000471565b80635f92ee3d11620003445780635f92ee3d14620007ae5780636386c1c714620007ee57806363ad175214620008245780636d01eb5e146200085a5762000471565b80633fd6f50a146200071857806345512f9b1462000738578063562cafe414620007585780635c60f226146200078e5762000471565b80631bfb240f11620003fe5780632dcd121511620003c85780632dcd121514620006965780632f0c212714620006b6578063397388af14620006d65780633bb3ec9e14620006f85762000471565b80631bfb240f14620005ea5780631d3a8439146200062057806324708c07146200065657806325d8d74014620006765762000471565b806310e8b22d116200044057806310e8b22d146200055457806314c4aecd146200057457806315f6d2c414620005945780631be9576914620005ca5762000471565b8063022a3fdb14620004765780630620ee8f14620004b257806308db111114620004e85780630c5cc262146200051e575b600080fd5b6200049460048036038101906200048e919062009432565b62000fbc565b604051620004a997969594939291906200ace4565b60405180910390f35b620004d06004803603810190620004ca919062009432565b62001094565b604051620004df91906200b3ec565b60405180910390f35b62000506600480360381019062000500919062009ea8565b620010e0565b6040516200051591906200aae9565b60405180910390f35b6200053c600480360381019062000536919062009ea8565b6200112f565b6040516200054b91906200aae9565b60405180910390f35b6200057260048036038101906200056c919062009878565b6200117e565b005b6200059260048036038101906200058c919062009a70565b6200158d565b005b620005b26004803603810190620005ac919062009ea8565b6200175c565b604051620005c191906200aae9565b60405180910390f35b620005e86004803603810190620005e2919062009d8b565b620017ab565b005b62000608600480360381019062000602919062009432565b620019c3565b6040516200061791906200b3ec565b60405180910390f35b6200063e600480360381019062000638919062009432565b62001a6a565b6040516200064d91906200b120565b60405180910390f35b6200067460048036038101906200066e919062009496565b62001b39565b005b6200069460048036038101906200068e919062009432565b62001ebe565b005b620006b46004803603810190620006ae919062009496565b620021a9565b005b620006d46004803603810190620006ce9190620094dd565b6200248a565b005b620006e062002918565b604051620006ef91906200b168565b60405180910390f35b62000716600480360381019062000710919062009ca6565b62002c03565b005b62000736600480360381019062000730919062009432565b620030d4565b005b62000756600480360381019062000750919062009496565b6200345e565b005b62000776600480360381019062000770919062009432565b6200369f565b6040516200078591906200b120565b60405180910390f35b620007ac6004803603810190620007a6919062009432565b6200376e565b005b620007cc6004803603810190620007c6919062009432565b620039f9565b604051620007e59b9a999897969594939291906200ac07565b60405180910390f35b6200080c600480360381019062000806919062009432565b62003ad3565b6040516200081b91906200b3c8565b60405180910390f35b6200084260048036038101906200083c919062009432565b62003db8565b6040516200085191906200b120565b60405180910390f35b62000878600480360381019062000872919062009ea8565b62003e87565b6040516200088791906200aae9565b60405180910390f35b620008ae6004803603810190620008a8919062009432565b62003ed6565b604051620008bd91906200b144565b60405180910390f35b620008e46004803603810190620008de919062009f72565b62004174565b005b620009046004803603810190620008fe919062009432565b620043b3565b6040516200091391906200b120565b60405180910390f35b6200093a600480360381019062000934919062009496565b62004482565b005b6200095a6004803603810190620009549190620097b6565b62004768565b005b6200097a600480360381019062000974919062009432565b6200494d565b6040516200098991906200b120565b60405180910390f35b620009b06004803603810190620009aa919062009432565b62004a1c565b604051620009bf91906200b3ec565b60405180910390f35b620009d262004a87565b604051620009e191906200aae9565b60405180910390f35b62000a08600480360381019062000a02919062009432565b62004aab565b60405162000a1791906200b120565b60405180910390f35b62000a3e600480360381019062000a38919062009432565b62004b7a565b60405162000a55999897969594939291906200aebc565b60405180910390f35b62000a7c600480360381019062000a76919062009432565b62004c54565b005b62000a9c600480360381019062000a96919062009ca6565b62004e9b565b005b62000abc600480360381019062000ab6919062009b80565b6200533e565b005b62000ac862005527565b60405162000ad791906200b3ec565b60405180910390f35b62000afe600480360381019062000af8919062009496565b62005531565b005b62000b1e600480360381019062000b18919062009432565b62005813565b60405162000b2d91906200b120565b60405180910390f35b62000b40620058e2565b60405162000b4f91906200b3ec565b60405180910390f35b62000b76600480360381019062000b70919062009496565b620058e8565b005b62000b96600480360381019062000b90919062009432565b62005b2a565b005b62000bb6600480360381019062000bb0919062009b80565b62005e15565b005b62000bd6600480360381019062000bd091906200a082565b620061e9565b005b62000bf6600480360381019062000bf0919062009432565b62006548565b60405162000c0591906200b120565b60405180910390f35b62000c2c600480360381019062000c26919062009432565b62006617565b60405162000c3b91906200b120565b60405180910390f35b62000c62600480360381019062000c5c91906200a189565b620066e6565b60405162000c7797969594939291906200ae2a565b60405180910390f35b62000c9e600480360381019062000c98919062009ea8565b62006923565b60405162000cad91906200aae9565b60405180910390f35b62000cd4600480360381019062000cce919062009432565b62006972565b60405162000ce391906200b120565b60405180910390f35b62000d0a600480360381019062000d04919062009432565b62006a41565b60405162000d1991906200b120565b60405180910390f35b62000d40600480360381019062000d3a919062009496565b62006b10565b005b62000d60600480360381019062000d5a919062009432565b62006e96565b60405162000d6f91906200b120565b60405180910390f35b62000d96600480360381019062000d90919062009496565b62006f65565b005b62000db6600480360381019062000db0919062009ea8565b620072f1565b60405162000dc591906200aae9565b60405180910390f35b62000dec600480360381019062000de6919062009ea8565b62007340565b60405162000dfb91906200aae9565b60405180910390f35b62000e22600480360381019062000e1c919062009812565b6200738f565b60405162000e3191906200b3c8565b60405180910390f35b62000e58600480360381019062000e52919062009ea8565b620075fc565b005b62000e78600480360381019062000e72919062009496565b620077fb565b005b62000e98600480360381019062000e92919062009496565b62007ae3565b005b62000eb8600480360381019062000eb2919062009ea8565b62007e68565b60405162000ec791906200aae9565b60405180910390f35b62000eee600480360381019062000ee8919062009432565b62007eb7565b005b62000f0e600480360381019062000f08919062009ea8565b620082c1565b60405162000f1d91906200aae9565b60405180910390f35b62000f44600480360381019062000f3e919062009ea8565b62008310565b60405162000f5391906200aae9565b60405180910390f35b62000f7a600480360381019062000f74919062009496565b6200835f565b005b62000f9a600480360381019062000f94919062009496565b62008644565b005b62000fba600480360381019062000fb4919062009432565b62008a69565b005b60008062000fc962008e26565b62000fd362008e6b565b60008060608773ffffffffffffffffffffffffffffffffffffffff16637fb8174a6040518163ffffffff167c010000000000000000000000000000000000000000000000000000000002815260040160006040518083038186803b1580156200103b57600080fd5b505afa15801562001050573d6000803e3d6000fd5b505050506040513d6000823e3d601f19601f820116820180604052508101906200107b9190620096c2565b9650965096509650965096509650919395979092949650565b6000600460008373ffffffffffffffffffffffffffffffffffffffff1673ffffffffffffffffffffffffffffffffffffffff168152602001908152602001600020805490509050919050565b60116020528160005260406000208181548110620010fd57600080fd5b906000526020600020016000915091509054906101000a900473ffffffffffffffffffffffffffffffffffffffff1681565b600e60205281600052604060002081815481106200114c57600080fd5b906000526020600020016000915091509054906101000a900473ffffffffffffffffffffffffffffffffffffffff1681565b600860098111156200119557620011946200b7da565b5b600260003373ffffffffffffffffffffffffffffffffffffffff1673ffffffffffffffffffffffffffffffffffffffff16815260200190815260200160002060030160009054906101000a900460ff166009811115620011fa57620011f96200b7da565b5b146200123d576040517f08c379a000000000000000000000000000000000000000000000000000000000815260040162001234906200b2b8565b60405180910390fd5b8273ffffffffffffffffffffffffffffffffffffffff16600260008573ffffffffffffffffffffffffffffffffffffffff1673ffffffffffffffffffffffffffffffffffffffff16815260200190815260200160002060000160009054906101000a900473ffffffffffffffffffffffffffffffffffffffff1673ffffffffffffffffffffffffffffffffffffffff161462001310576040517f08c379a000000000000000000000000000000000000000000000000000000000815260040162001307906200b296565b60405180910390fd5b60001515600260008573ffffffffffffffffffffffffffffffffffffffff1673ffffffffffffffffffffffffffffffffffffffff16815260200190815260200160002060050160009054906101000a900460ff16151514620013a9576040517f08c379a0000000000000000000000000000000000000000000000000000000008152600401620013a0906200b384565b60405180910390fd5b81600260008573ffffffffffffffffffffffffffffffffffffffff1673ffffffffffffffffffffffffffffffffffffffff16815260200190815260200160002060020190805190602001906200140192919062008eeb565b5080600260008573ffffffffffffffffffffffffffffffffffffffff1673ffffffffffffffffffffffffffffffffffffffff16815260200190815260200160002060040190805190602001906200145a92919062008eeb565b50600080600090505b60018054905081101562001508578473ffffffffffffffffffffffffffffffffffffffff16600182815481106200149f576200149e6200b838565b5b906000526020600020906007020160000160009054906101000a900473ffffffffffffffffffffffffffffffffffffffff1673ffffffffffffffffffffffffffffffffffffffff161415620014f2578091505b8080620014ff906200b75d565b91505062001463565b5082600182815481106200152157620015206200b838565b5b906000526020600020906007020160020190805190602001906200154792919062008eeb565b50816001828154811062001560576200155f6200b838565b5b906000526020600020906007020160040190805190602001906200158692919062008eeb565b5050505050565b60036009811115620015a457620015a36200b7da565b5b600260003373ffffffffffffffffffffffffffffffffffffffff1673ffffffffffffffffffffffffffffffffffffffff16815260200190815260200160002060030160009054906101000a900460ff1660098111156200160957620016086200b7da565b5b146200164c576040517f08c379a000000000000000000000000000000000000000000000000000000000815260040162001643906200b3a6565b60405180910390fd5b60008773ffffffffffffffffffffffffffffffffffffffff16638915a8fa8887898888886040518763ffffffff167c0100000000000000000000000000000000000000000000000000000000028152600401620016af969594939291906200b18c565b602060405180830381600087803b158015620016ca57600080fd5b505af1158015620016df573d6000803e3d6000fd5b505050506040513d601f19601f8201168201806040525081019062001705919062009f40565b9050801562001752577f239aeffd61ce9b14705b4a3911bc25c330b6c7b7dc4f1fa539fa5129c01feb6387868887878760405162001749969594939291906200b18c565b60405180910390a15b5050505050505050565b600360205281600052604060002081815481106200177957600080fd5b906000526020600020016000915091509054906101000a900473ffffffffffffffffffffffffffffffffffffffff1681565b60066009811115620017c257620017c16200b7da565b5b600260003373ffffffffffffffffffffffffffffffffffffffff1673ffffffffffffffffffffffffffffffffffffffff16815260200190815260200160002060030160009054906101000a900460ff1660098111156200182757620018266200b7da565b5b146200186a576040517f08c379a000000000000000000000000000000000000000000000000000000000815260040162001861906200b20e565b60405180910390fd5b600060028111156200188157620018806200b7da565b5b600c60008b73ffffffffffffffffffffffffffffffffffffffff1673ffffffffffffffffffffffffffffffffffffffff16815260200190815260200160002060009054906101000a900460ff166002811115620018e357620018e26200b7da565b5b101562001927576040517f08c379a00000000000000000000000000000000000000000000000000000000081526004016200191e906200b340565b60405180910390fd5b8060028111156200193d576200193c6200b7da565b5b600c60008b73ffffffffffffffffffffffffffffffffffffffff1673ffffffffffffffffffffffffffffffffffffffff16815260200190815260200160002060006101000a81548160ff02191690836002811115620019a157620019a06200b7da565b5b0217905550620019b88888888888883389620061e9565b505050505050505050565b60008173ffffffffffffffffffffffffffffffffffffffff1663922962996040518163ffffffff167c010000000000000000000000000000000000000000000000000000000002815260040160206040518083038186803b15801562001a2857600080fd5b505afa15801562001a3d573d6000803e3d6000fd5b505050506040513d601f19601f8201168201806040525081019062001a6391906200a1bb565b9050919050565b6060600860008373ffffffffffffffffffffffffffffffffffffffff1673ffffffffffffffffffffffffffffffffffffffff16815260200190815260200160002080548060200260200160405190810160405280929190818152602001828054801562001b2d57602002820191906000526020600020905b8160009054906101000a900473ffffffffffffffffffffffffffffffffffffffff1673ffffffffffffffffffffffffffffffffffffffff168152602001906001019080831162001ae2575b50505050509050919050565b6002600981111562001b505762001b4f6200b7da565b5b600260003373ffffffffffffffffffffffffffffffffffffffff1673ffffffffffffffffffffffffffffffffffffffff16815260200190815260200160002060030160009054906101000a900460ff16600981111562001bb55762001bb46200b7da565b5b1462001bf8576040517f08c379a000000000000000000000000000000000000000000000000000000000815260040162001bef906200b2fc565b60405180910390fd5b8173ffffffffffffffffffffffffffffffffffffffff166376b0f79c6040518163ffffffff167c0100000000000000000000000000000000000000000000000000000000028152600401602060405180830381600087803b15801562001c5d57600080fd5b505af115801562001c72573d6000803e3d6000fd5b505050506040513d601f19601f8201168201806040525081019062001c98919062009f40565b1562001eba577f0515ffef0d17b0546dee378bd947d670e1b693c8e32bbb8860a8268fa810f0fa828373ffffffffffffffffffffffffffffffffffffffff166340019e5d6040518163ffffffff167c010000000000000000000000000000000000000000000000000000000002815260040160206040518083038186803b15801562001d2357600080fd5b505afa15801562001d38573d6000803e3d6000fd5b505050506040513d601f19601f8201168201806040525081019062001d5e919062009464565b8473ffffffffffffffffffffffffffffffffffffffff16631805de3b6040518163ffffffff167c010000000000000000000000000000000000000000000000000000000002815260040160206040518083038186803b15801562001dc157600080fd5b505afa15801562001dd6573d6000803e3d6000fd5b505050506040513d601f19601f8201168201806040525081019062001dfc91906200a1bb565b8573ffffffffffffffffffffffffffffffffffffffff166330fa86aa6040518163ffffffff167c010000000000000000000000000000000000000000000000000000000002815260040160006040518083038186803b15801562001e5f57600080fd5b505afa15801562001e74573d6000803e3d6000fd5b505050506040513d6000823e3d601f19601f8201168201806040525081019062001e9f919062009eef565b60405162001eb194939291906200ad72565b60405180910390a15b5050565b6005600981111562001ed55762001ed46200b7da565b5b600260003373ffffffffffffffffffffffffffffffffffffffff1673ffffffffffffffffffffffffffffffffffffffff16815260200190815260200160002060030160009054906101000a900460ff16600981111562001f3a5762001f396200b7da565b5b1462001f7d576040517f08c379a000000000000000000000000000000000000000000000000000000000815260040162001f74906200b252565b60405180910390fd5b60008173ffffffffffffffffffffffffffffffffffffffff16634f2d82396040518163ffffffff167c0100000000000000000000000000000000000000000000000000000000028152600401602060405180830381600087803b15801562001fe457600080fd5b505af115801562001ff9573d6000803e3d6000fd5b505050506040513d601f19601f820116820180604052508101906200201f919062009f40565b90508015620021a5577f0eba5b46f672b4f50a675d9c0858fdc6196986362ac2faee26aee1ea04de7eb7828373ffffffffffffffffffffffffffffffffffffffff166373b037db6040518163ffffffff167c010000000000000000000000000000000000000000000000000000000002815260040160206040518083038186803b158015620020ad57600080fd5b505afa158015620020c2573d6000803e3d6000fd5b505050506040513d601f19601f82011682018060405250810190620020e891906200a1bb565b8473ffffffffffffffffffffffffffffffffffffffff1663cd8a5b2e6040518163ffffffff167c010000000000000000000000000000000000000000000000000000000002815260040160006040518083038186803b1580156200214b57600080fd5b505afa15801562002160573d6000803e3d6000fd5b505050506040513d6000823e3d601f19601f820116820180604052508101906200218b919062009eef565b6040516200219c939291906200b0dc565b60405180910390a15b5050565b600980811115620021bf57620021be6200b7da565b5b600260003373ffffffffffffffffffffffffffffffffffffffff1673ffffffffffffffffffffffffffffffffffffffff16815260200190815260200160002060030160009054906101000a900460ff1660098111156200222457620022236200b7da565b5b1462002267576040517f08c379a00000000000000000000000000000000000000000000000000000000081526004016200225e906200b362565b60405180910390fd5b8173ffffffffffffffffffffffffffffffffffffffff16632101f3a16040518163ffffffff167c0100000000000000000000000000000000000000000000000000000000028152600401602060405180830381600087803b158015620022cc57600080fd5b505af1158015620022e1573d6000803e3d6000fd5b505050506040513d601f19601f8201168201806040525081019062002307919062009f40565b156200248657600e60008273ffffffffffffffffffffffffffffffffffffffff1673ffffffffffffffffffffffffffffffffffffffff168152602001908152602001600020829080600181540180825580915050600190039060005260206000200160009091909190916101000a81548173ffffffffffffffffffffffffffffffffffffffff021916908373ffffffffffffffffffffffffffffffffffffffff1602179055507f9bd987093e336068483abfca6f111f6bdd1f343e64fa51fb2b1e4795c33087c9828373ffffffffffffffffffffffffffffffffffffffff1663922962996040518163ffffffff167c010000000000000000000000000000000000000000000000000000000002815260040160206040518083038186803b1580156200243257600080fd5b505afa15801562002447573d6000803e3d6000fd5b505050506040513d601f19601f820116820180604052508101906200246d91906200a1bb565b6040516200247d9291906200b0af565b60405180910390a15b5050565b60056009811115620024a157620024a06200b7da565b5b600260003373ffffffffffffffffffffffffffffffffffffffff1673ffffffffffffffffffffffffffffffffffffffff16815260200190815260200160002060030160009054906101000a900460ff1660098111156200250657620025056200b7da565b5b1462002549576040517f08c379a000000000000000000000000000000000000000000000000000000000815260040162002540906200b252565b60405180910390fd5b6000833383856040516200255d9062008f7c565b6200256c94939291906200ab06565b604051809103906000f08015801562002589573d6000803e3d6000fd5b509050600081905060008173ffffffffffffffffffffffffffffffffffffffff16636035210a6040518163ffffffff167c0100000000000000000000000000000000000000000000000000000000028152600401602060405180830381600087803b158015620025f857600080fd5b505af11580156200260d573d6000803e3d6000fd5b505050506040513d601f19601f8201168201806040525081019062002633919062009f40565b905080156200291057600860003373ffffffffffffffffffffffffffffffffffffffff1673ffffffffffffffffffffffffffffffffffffffff168152602001908152602001600020829080600181540180825580915050600190039060005260206000200160009091909190916101000a81548173ffffffffffffffffffffffffffffffffffffffff021916908373ffffffffffffffffffffffffffffffffffffffff160217905550600960008573ffffffffffffffffffffffffffffffffffffffff1673ffffffffffffffffffffffffffffffffffffffff168152602001908152602001600020829080600181540180825580915050600190039060005260206000200160009091909190916101000a81548173ffffffffffffffffffffffffffffffffffffffff021916908373ffffffffffffffffffffffffffffffffffffffff1602179055508173ffffffffffffffffffffffffffffffffffffffff167f8e3eaf42ef3be7a272d214c19fbf4f0cc1aa3c9b5a65d4856c93e665ae1524ec878473ffffffffffffffffffffffffffffffffffffffff16631805de3b6040518163ffffffff167c010000000000000000000000000000000000000000000000000000000002815260040160206040518083038186803b1580156200281857600080fd5b505afa1580156200282d573d6000803e3d6000fd5b505050506040513d601f19601f820116820180604052508101906200285391906200a1bb565b8573ffffffffffffffffffffffffffffffffffffffff166330fa86aa6040518163ffffffff167c010000000000000000000000000000000000000000000000000000000002815260040160006040518083038186803b158015620028b657600080fd5b505afa158015620028cb573d6000803e3d6000fd5b505050506040513d6000823e3d601f19601f82011682018060405250810190620028f6919062009eef565b60405162002907939291906200b0dc565b60405180910390a25b505050505050565b60606001805480602002602001604051908101604052809291908181526020016000905b8282101562002bfa57838290600052602060002090600702016040518060e00160405290816000820160009054906101000a900473ffffffffffffffffffffffffffffffffffffffff1673ffffffffffffffffffffffffffffffffffffffff1673ffffffffffffffffffffffffffffffffffffffff168152602001600182018054620029c8906200b6f1565b80601f0160208091040260200160405190810160405280929190818152602001828054620029f6906200b6f1565b801562002a475780601f1062002a1b5761010080835404028352916020019162002a47565b820191906000526020600020905b81548152906001019060200180831162002a2957829003601f168201915b5050505050815260200160028201805462002a62906200b6f1565b80601f016020809104026020016040519081016040528092919081815260200182805462002a90906200b6f1565b801562002ae15780601f1062002ab55761010080835404028352916020019162002ae1565b820191906000526020600020905b81548152906001019060200180831162002ac357829003601f168201915b505050505081526020016003820160009054906101000a900460ff16600981111562002b125762002b116200b7da565b5b600981111562002b275762002b266200b7da565b5b815260200160048201805462002b3d906200b6f1565b80601f016020809104026020016040519081016040528092919081815260200182805462002b6b906200b6f1565b801562002bbc5780601f1062002b905761010080835404028352916020019162002bbc565b820191906000526020600020905b81548152906001019060200180831162002b9e57829003601f168201915b505050505081526020016005820160009054906101000a900460ff16151515158152602001600682015481525050815260200190600101906200293c565b50505050905090565b6008600981111562002c1a5762002c196200b7da565b5b600260003373ffffffffffffffffffffffffffffffffffffffff1673ffffffffffffffffffffffffffffffffffffffff16815260200190815260200160002060030160009054906101000a900460ff16600981111562002c7f5762002c7e6200b7da565b5b1462002cc2576040517f08c379a000000000000000000000000000000000000000000000000000000000815260040162002cb9906200b2b8565b60405180910390fd5b8473ffffffffffffffffffffffffffffffffffffffff16600260008773ffffffffffffffffffffffffffffffffffffffff1673ffffffffffffffffffffffffffffffffffffffff16815260200190815260200160002060000160009054906101000a900473ffffffffffffffffffffffffffffffffffffffff1673ffffffffffffffffffffffffffffffffffffffff16141562002d96576040517f08c379a000000000000000000000000000000000000000000000000000000000815260040162002d8d906200b31e565b60405180910390fd5b62002da062008f8a565b85816000019073ffffffffffffffffffffffffffffffffffffffff16908173ffffffffffffffffffffffffffffffffffffffff168152505084816020018190525083816040018190525082600981111562002e005762002dff6200b7da565b5b8160600190600981111562002e1a5762002e196200b7da565b5b9081600981111562002e315762002e306200b7da565b5b8152505081816080018190525060008160a0019015159081151581525050428160c001818152505080600260008873ffffffffffffffffffffffffffffffffffffffff1673ffffffffffffffffffffffffffffffffffffffff16815260200190815260200160002060008201518160000160006101000a81548173ffffffffffffffffffffffffffffffffffffffff021916908373ffffffffffffffffffffffffffffffffffffffff160217905550602082015181600101908051906020019062002efe92919062008eeb565b50604082015181600201908051906020019062002f1d92919062008eeb565b5060608201518160030160006101000a81548160ff0219169083600981111562002f4c5762002f4b6200b7da565b5b0217905550608082015181600401908051906020019062002f6f92919062008eeb565b5060a08201518160050160006101000a81548160ff02191690831515021790555060c08201518160060155905050600181908060018154018082558091505060019003906000526020600020906007020160009091909190915060008201518160000160006101000a81548173ffffffffffffffffffffffffffffffffffffffff021916908373ffffffffffffffffffffffffffffffffffffffff16021790555060208201518160010190805190602001906200302e92919062008eeb565b5060408201518160020190805190602001906200304d92919062008eeb565b5060608201518160030160006101000a81548160ff021916908360098111156200307c576200307b6200b7da565b5b021790555060808201518160040190805190602001906200309f92919062008eeb565b5060a08201518160050160006101000a81548160ff02191690831515021790555060c082015181600601555050505050505050565b60066009811115620030eb57620030ea6200b7da565b5b600260003373ffffffffffffffffffffffffffffffffffffffff1673ffffffffffffffffffffffffffffffffffffffff16815260200190815260200160002060030160009054906101000a900460ff16600981111562003150576200314f6200b7da565b5b1462003193576040517f08c379a00000000000000000000000000000000000000000000000000000000081526004016200318a906200b20e565b60405180910390fd5b60008173ffffffffffffffffffffffffffffffffffffffff166340e900936040518163ffffffff167c0100000000000000000000000000000000000000000000000000000000028152600401602060405180830381600087803b158015620031fa57600080fd5b505af11580156200320f573d6000803e3d6000fd5b505050506040513d601f19601f8201168201806040525081019062003235919062009f40565b905080156200345a577f34ea3bb8298dee13b50177186c76e247da8ae44e9bf59ed824e34877dc338504828373ffffffffffffffffffffffffffffffffffffffff166340019e5d6040518163ffffffff167c010000000000000000000000000000000000000000000000000000000002815260040160206040518083038186803b158015620032c357600080fd5b505afa158015620032d8573d6000803e3d6000fd5b505050506040513d601f19601f82011682018060405250810190620032fe919062009464565b8473ffffffffffffffffffffffffffffffffffffffff16631805de3b6040518163ffffffff167c010000000000000000000000000000000000000000000000000000000002815260040160206040518083038186803b1580156200336157600080fd5b505afa15801562003376573d6000803e3d6000fd5b505050506040513d601f19601f820116820180604052508101906200339c91906200a1bb565b8573ffffffffffffffffffffffffffffffffffffffff166330fa86aa6040518163ffffffff167c010000000000000000000000000000000000000000000000000000000002815260040160006040518083038186803b158015620033ff57600080fd5b505afa15801562003414573d6000803e3d6000fd5b505050506040513d6000823e3d601f19601f820116820180604052508101906200343f919062009eef565b6040516200345194939291906200ad72565b60405180910390a15b5050565b6009808111156200347457620034736200b7da565b5b600260003373ffffffffffffffffffffffffffffffffffffffff1673ffffffffffffffffffffffffffffffffffffffff16815260200190815260200160002060030160009054906101000a900460ff166009811115620034d957620034d86200b7da565b5b146200351c576040517f08c379a000000000000000000000000000000000000000000000000000000000815260040162003513906200b362565b60405180910390fd5b8173ffffffffffffffffffffffffffffffffffffffff16634d7064186040518163ffffffff167c0100000000000000000000000000000000000000000000000000000000028152600401602060405180830381600087803b1580156200358157600080fd5b505af115801562003596573d6000803e3d6000fd5b505050506040513d601f19601f82011682018060405250810190620035bc919062009f40565b156200369b577f9bd987093e336068483abfca6f111f6bdd1f343e64fa51fb2b1e4795c33087c9828373ffffffffffffffffffffffffffffffffffffffff1663922962996040518163ffffffff167c010000000000000000000000000000000000000000000000000000000002815260040160206040518083038186803b1580156200364757600080fd5b505afa1580156200365c573d6000803e3d6000fd5b505050506040513d601f19601f820116820180604052508101906200368291906200a1bb565b604051620036929291906200b0af565b60405180910390a15b5050565b6060600460008373ffffffffffffffffffffffffffffffffffffffff1673ffffffffffffffffffffffffffffffffffffffff1681526020019081526020016000208054806020026020016040519081016040528092919081815260200182805480156200376257602002820191906000526020600020905b8160009054906101000a900473ffffffffffffffffffffffffffffffffffffffff1673ffffffffffffffffffffffffffffffffffffffff168152602001906001019080831162003717575b50505050509050919050565b600860098111156200378557620037846200b7da565b5b600260003373ffffffffffffffffffffffffffffffffffffffff1673ffffffffffffffffffffffffffffffffffffffff16815260200190815260200160002060030160009054906101000a900460ff166009811115620037ea57620037e96200b7da565b5b146200382d576040517f08c379a000000000000000000000000000000000000000000000000000000000815260040162003824906200b2b8565b60405180910390fd5b8073ffffffffffffffffffffffffffffffffffffffff16600260008373ffffffffffffffffffffffffffffffffffffffff1673ffffffffffffffffffffffffffffffffffffffff16815260200190815260200160002060000160009054906101000a900473ffffffffffffffffffffffffffffffffffffffff1673ffffffffffffffffffffffffffffffffffffffff161462003900576040517f08c379a0000000000000000000000000000000000000000000000000000000008152600401620038f7906200b296565b60405180910390fd5b6040518060400160405280600881526020017f496e616374697665000000000000000000000000000000000000000000000000815250600260008373ffffffffffffffffffffffffffffffffffffffff1673ffffffffffffffffffffffffffffffffffffffff16815260200190815260200160002060040190805190602001906200398d92919062008eeb565b506001600260008373ffffffffffffffffffffffffffffffffffffffff1673ffffffffffffffffffffffffffffffffffffffff16815260200190815260200160002060050160006101000a81548160ff021916908315150217905550620039f681600162008cb0565b50565b6000806060806060600080600080606060008b73ffffffffffffffffffffffffffffffffffffffff1663b1767f876040518163ffffffff167c010000000000000000000000000000000000000000000000000000000002815260040160006040518083038186803b15801562003a6e57600080fd5b505afa15801562003a83573d6000803e3d6000fd5b505050506040513d6000823e3d601f19601f8201168201806040525081019062003aae919062009539565b9a509a509a509a509a509a509a509a509a509a509a5091939597999b90929496989a50565b62003add62008f8a565b600260008373ffffffffffffffffffffffffffffffffffffffff1673ffffffffffffffffffffffffffffffffffffffff1681526020019081526020016000206040518060e00160405290816000820160009054906101000a900473ffffffffffffffffffffffffffffffffffffffff1673ffffffffffffffffffffffffffffffffffffffff1673ffffffffffffffffffffffffffffffffffffffff16815260200160018201805462003b8f906200b6f1565b80601f016020809104026020016040519081016040528092919081815260200182805462003bbd906200b6f1565b801562003c0e5780601f1062003be25761010080835404028352916020019162003c0e565b820191906000526020600020905b81548152906001019060200180831162003bf057829003601f168201915b5050505050815260200160028201805462003c29906200b6f1565b80601f016020809104026020016040519081016040528092919081815260200182805462003c57906200b6f1565b801562003ca85780601f1062003c7c5761010080835404028352916020019162003ca8565b820191906000526020600020905b81548152906001019060200180831162003c8a57829003601f168201915b505050505081526020016003820160009054906101000a900460ff16600981111562003cd95762003cd86200b7da565b5b600981111562003cee5762003ced6200b7da565b5b815260200160048201805462003d04906200b6f1565b80601f016020809104026020016040519081016040528092919081815260200182805462003d32906200b6f1565b801562003d835780601f1062003d575761010080835404028352916020019162003d83565b820191906000526020600020905b81548152906001019060200180831162003d6557829003601f168201915b505050505081526020016005820160009054906101000a900460ff161515151581526020016006820154815250509050919050565b6060600560008373ffffffffffffffffffffffffffffffffffffffff1673ffffffffffffffffffffffffffffffffffffffff16815260200190815260200160002080548060200260200160405190810160405280929190818152602001828054801562003e7b57602002820191906000526020600020905b8160009054906101000a900473ffffffffffffffffffffffffffffffffffffffff1673ffffffffffffffffffffffffffffffffffffffff168152602001906001019080831162003e30575b50505050509050919050565b6009602052816000526040600020818154811062003ea457600080fd5b906000526020600020016000915091509054906101000a900473ffffffffffffffffffffffffffffffffffffffff1681565b6060600b60008373ffffffffffffffffffffffffffffffffffffffff1673ffffffffffffffffffffffffffffffffffffffff168152602001908152602001600020805480602002602001604051908101604052809291908181526020016000905b828210156200416957838290600052602060002090600702016040518060e001604052908160008201805462003f6d906200b6f1565b80601f016020809104026020016040519081016040528092919081815260200182805462003f9b906200b6f1565b801562003fec5780601f1062003fc05761010080835404028352916020019162003fec565b820191906000526020600020905b81548152906001019060200180831162003fce57829003601f168201915b505050505081526020016001820154815260200160028201805462004011906200b6f1565b80601f01602080910402602001604051908101604052809291908181526020018280546200403f906200b6f1565b8015620040905780601f10620040645761010080835404028352916020019162004090565b820191906000526020600020905b8154815290600101906020018083116200407257829003601f168201915b5050505050815260200160038201548152602001600482015481526020016005820160009054906101000a900473ffffffffffffffffffffffffffffffffffffffff1673ffffffffffffffffffffffffffffffffffffffff1673ffffffffffffffffffffffffffffffffffffffff1681526020016006820160009054906101000a900473ffffffffffffffffffffffffffffffffffffffff1673ffffffffffffffffffffffffffffffffffffffff1673ffffffffffffffffffffffffffffffffffffffff16815250508152602001906001019062003f37565b505050509050919050565b600160098111156200418b576200418a6200b7da565b5b600260003373ffffffffffffffffffffffffffffffffffffffff1673ffffffffffffffffffffffffffffffffffffffff16815260200190815260200160002060030160009054906101000a900460ff166009811115620041f057620041ef6200b7da565b5b1462004233576040517f08c379a00000000000000000000000000000000000000000000000000000000081526004016200422a906200b230565b60405180910390fd5b600033888888888888886040516200424b9062008ff4565b6200425e9897969594939291906200af7a565b604051809103906000f0801580156200427b573d6000803e3d6000fd5b509050600360003373ffffffffffffffffffffffffffffffffffffffff1673ffffffffffffffffffffffffffffffffffffffff168152602001908152602001600020819080600181540180825580915050600190039060005260206000200160009091909190916101000a81548173ffffffffffffffffffffffffffffffffffffffff021916908373ffffffffffffffffffffffffffffffffffffffff1602179055508373ffffffffffffffffffffffffffffffffffffffff163373ffffffffffffffffffffffffffffffffffffffff168273ffffffffffffffffffffffffffffffffffffffff167fe023364325e8b9f2c66b00107b70fc4ab728f6c5cf7bfc4d1de4a486ce6b3a42868b8d8c8c8a6000604051620043a197969594939291906200b01d565b60405180910390a45050505050505050565b6060601260008373ffffffffffffffffffffffffffffffffffffffff1673ffffffffffffffffffffffffffffffffffffffff1681526020019081526020016000208054806020026020016040519081016040528092919081815260200182805480156200447657602002820191906000526020600020905b8160009054906101000a900473ffffffffffffffffffffffffffffffffffffffff1673ffffffffffffffffffffffffffffffffffffffff16815260200190600101908083116200442b575b50505050509050919050565b600260098111156200449957620044986200b7da565b5b600260003373ffffffffffffffffffffffffffffffffffffffff1673ffffffffffffffffffffffffffffffffffffffff16815260200190815260200160002060030160009054906101000a900460ff166009811115620044fe57620044fd6200b7da565b5b1462004541576040517f08c379a000000000000000000000000000000000000000000000000000000000815260040162004538906200b2fc565b60405180910390fd5b8173ffffffffffffffffffffffffffffffffffffffff16632ea1bb6a6040518163ffffffff167c0100000000000000000000000000000000000000000000000000000000028152600401602060405180830381600087803b158015620045a657600080fd5b505af1158015620045bb573d6000803e3d6000fd5b505050506040513d601f19601f82011682018060405250810190620045e1919062009f40565b1562004764577fe52a52c7cdb18c60a34d2f308089e55d68f775f47426392377f30f2247923aae828373ffffffffffffffffffffffffffffffffffffffff166373b037db6040518163ffffffff167c010000000000000000000000000000000000000000000000000000000002815260040160206040518083038186803b1580156200466c57600080fd5b505afa15801562004681573d6000803e3d6000fd5b505050506040513d601f19601f82011682018060405250810190620046a791906200a1bb565b8473ffffffffffffffffffffffffffffffffffffffff1663cd8a5b2e6040518163ffffffff167c010000000000000000000000000000000000000000000000000000000002815260040160006040518083038186803b1580156200470a57600080fd5b505afa1580156200471f573d6000803e3d6000fd5b505050506040513d6000823e3d601f19601f820116820180604052508101906200474a919062009eef565b6040516200475b939291906200b0dc565b60405180910390a15b5050565b600660098111156200477f576200477e6200b7da565b5b600260003373ffffffffffffffffffffffffffffffffffffffff1673ffffffffffffffffffffffffffffffffffffffff16815260200190815260200160002060030160009054906101000a900460ff166009811115620047e457620047e36200b7da565b5b1462004827576040517f08c379a00000000000000000000000000000000000000000000000000000000081526004016200481e906200b20e565b60405180910390fd5b8173ffffffffffffffffffffffffffffffffffffffff1663b946588c846040518263ffffffff167c01000000000000000000000000000000000000000000000000000000000281526004016200487e91906200aae9565b600060405180830381600087803b1580156200489957600080fd5b505af1158015620048ae573d6000803e3d6000fd5b50505050806002811115620048c857620048c76200b7da565b5b600c60008573ffffffffffffffffffffffffffffffffffffffff1673ffffffffffffffffffffffffffffffffffffffff16815260200190815260200160002060006101000a81548160ff021916908360028111156200492c576200492b6200b7da565b5b02179055506001600d546200494291906200b5c8565b600d81905550505050565b6060600e60008373ffffffffffffffffffffffffffffffffffffffff1673ffffffffffffffffffffffffffffffffffffffff16815260200190815260200160002080548060200260200160405190810160405280929190818152602001828054801562004a1057602002820191906000526020600020905b8160009054906101000a900473ffffffffffffffffffffffffffffffffffffffff1673ffffffffffffffffffffffffffffffffffffffff1681526020019060010190808311620049c5575b50505050509050919050565b6000600c60008373ffffffffffffffffffffffffffffffffffffffff1673ffffffffffffffffffffffffffffffffffffffff16815260200190815260200160002060009054906101000a900460ff16600281111562004a805762004a7f6200b7da565b5b9050919050565b60008054906101000a900473ffffffffffffffffffffffffffffffffffffffff1681565b6060601160008373ffffffffffffffffffffffffffffffffffffffff1673ffffffffffffffffffffffffffffffffffffffff16815260200190815260200160002080548060200260200160405190810160405280929190818152602001828054801562004b6e57602002820191906000526020600020905b8160009054906101000a900473ffffffffffffffffffffffffffffffffffffffff1673ffffffffffffffffffffffffffffffffffffffff168152602001906001019080831162004b23575b50505050509050919050565b6000606080606062004b8b62008e6b565b600080600060608973ffffffffffffffffffffffffffffffffffffffff1663553098916040518163ffffffff167c010000000000000000000000000000000000000000000000000000000002815260040160006040518083038186803b15801562004bf557600080fd5b505afa15801562004c0a573d6000803e3d6000fd5b505050506040513d6000823e3d601f19601f8201168201806040525081019062004c35919062009912565b9850985098509850985098509850985098509193959799909294969850565b6003600981111562004c6b5762004c6a6200b7da565b5b600260003373ffffffffffffffffffffffffffffffffffffffff1673ffffffffffffffffffffffffffffffffffffffff16815260200190815260200160002060030160009054906101000a900460ff16600981111562004cd05762004ccf6200b7da565b5b1462004d13576040517f08c379a000000000000000000000000000000000000000000000000000000000815260040162004d0a906200b3a6565b60405180910390fd5b60008173ffffffffffffffffffffffffffffffffffffffff1663f5b1edfd6040518163ffffffff167c0100000000000000000000000000000000000000000000000000000000028152600401602060405180830381600087803b15801562004d7a57600080fd5b505af115801562004d8f573d6000803e3d6000fd5b505050506040513d601f19601f8201168201806040525081019062004db5919062009f40565b9050801562004e97577f58d8ed7f1b8feae83bad91b52b415f7f3421428c9f0dfa37021c5bfa77a586b4828373ffffffffffffffffffffffffffffffffffffffff1663922962996040518163ffffffff167c010000000000000000000000000000000000000000000000000000000002815260040160206040518083038186803b15801562004e4357600080fd5b505afa15801562004e58573d6000803e3d6000fd5b505050506040513d601f19601f8201168201806040525081019062004e7e91906200a1bb565b60405162004e8e9291906200b0af565b60405180910390a15b5050565b60008054906101000a900473ffffffffffffffffffffffffffffffffffffffff1673ffffffffffffffffffffffffffffffffffffffff163373ffffffffffffffffffffffffffffffffffffffff161462004f2c576040517f08c379a000000000000000000000000000000000000000000000000000000000815260040162004f23906200b2da565b60405180910390fd5b8473ffffffffffffffffffffffffffffffffffffffff16600260008773ffffffffffffffffffffffffffffffffffffffff1673ffffffffffffffffffffffffffffffffffffffff16815260200190815260200160002060000160009054906101000a900473ffffffffffffffffffffffffffffffffffffffff1673ffffffffffffffffffffffffffffffffffffffff16141562005000576040517f08c379a000000000000000000000000000000000000000000000000000000000815260040162004ff7906200b31e565b60405180910390fd5b6200500a62008f8a565b85816000019073ffffffffffffffffffffffffffffffffffffffff16908173ffffffffffffffffffffffffffffffffffffffff16815250508481602001819052508381604001819052508260098111156200506a57620050696200b7da565b5b816060019060098111156200508457620050836200b7da565b5b908160098111156200509b576200509a6200b7da565b5b8152505081816080018190525060008160a0019015159081151581525050428160c001818152505080600260008873ffffffffffffffffffffffffffffffffffffffff1673ffffffffffffffffffffffffffffffffffffffff16815260200190815260200160002060008201518160000160006101000a81548173ffffffffffffffffffffffffffffffffffffffff021916908373ffffffffffffffffffffffffffffffffffffffff16021790555060208201518160010190805190602001906200516892919062008eeb565b5060408201518160020190805190602001906200518792919062008eeb565b5060608201518160030160006101000a81548160ff02191690836009811115620051b657620051b56200b7da565b5b02179055506080820151816004019080519060200190620051d992919062008eeb565b5060a08201518160050160006101000a81548160ff02191690831515021790555060c08201518160060155905050600181908060018154018082558091505060019003906000526020600020906007020160009091909190915060008201518160000160006101000a81548173ffffffffffffffffffffffffffffffffffffffff021916908373ffffffffffffffffffffffffffffffffffffffff16021790555060208201518160010190805190602001906200529892919062008eeb565b506040820151816002019080519060200190620052b792919062008eeb565b5060608201518160030160006101000a81548160ff02191690836009811115620052e657620052e56200b7da565b5b021790555060808201518160040190805190602001906200530992919062008eeb565b5060a08201518160050160006101000a81548160ff02191690831515021790555060c082015181600601555050505050505050565b600160098111156200535557620053546200b7da565b5b600260003373ffffffffffffffffffffffffffffffffffffffff1673ffffffffffffffffffffffffffffffffffffffff16815260200190815260200160002060030160009054906101000a900460ff166009811115620053ba57620053b96200b7da565b5b14620053fd576040517f08c379a0000000000000000000000000000000000000000000000000000000008152600401620053f4906200b230565b60405180910390fd5b8773ffffffffffffffffffffffffffffffffffffffff1663cf1287e18888888888886040518763ffffffff167c01000000000000000000000000000000000000000000000000000000000281526004016200545e969594939291906200b18c565b600060405180830381600087803b1580156200547957600080fd5b505af11580156200548e573d6000803e3d6000fd5b505050508273ffffffffffffffffffffffffffffffffffffffff163373ffffffffffffffffffffffffffffffffffffffff168973ffffffffffffffffffffffffffffffffffffffff167fe023364325e8b9f2c66b00107b70fc4ab728f6c5cf7bfc4d1de4a486ce6b3a42858a8c8b8b8960006040516200551597969594939291906200b01d565b60405180910390a45050505050505050565b6000600d54905090565b600260098111156200554857620055476200b7da565b5b600260003373ffffffffffffffffffffffffffffffffffffffff1673ffffffffffffffffffffffffffffffffffffffff16815260200190815260200160002060030160009054906101000a900460ff166009811115620055ad57620055ac6200b7da565b5b14620055f0576040517f08c379a0000000000000000000000000000000000000000000000000000000008152600401620055e7906200b2fc565b60405180910390fd5b8173ffffffffffffffffffffffffffffffffffffffff166321895c596040518163ffffffff167c0100000000000000000000000000000000000000000000000000000000028152600401602060405180830381600087803b1580156200565557600080fd5b505af11580156200566a573d6000803e3d6000fd5b505050506040513d601f19601f8201168201806040525081019062005690919062009f40565b156200580f57601060008273ffffffffffffffffffffffffffffffffffffffff1673ffffffffffffffffffffffffffffffffffffffff168152602001908152602001600020829080600181540180825580915050600190039060005260206000200160009091909190916101000a81548173ffffffffffffffffffffffffffffffffffffffff021916908373ffffffffffffffffffffffffffffffffffffffff1602179055507f3a5769d5db9b0aca9810faed21e67639d2ce1083ccf817ed0a1b9a0e949b9551828373ffffffffffffffffffffffffffffffffffffffff1663922962996040518163ffffffff167c010000000000000000000000000000000000000000000000000000000002815260040160206040518083038186803b158015620057bb57600080fd5b505afa158015620057d0573d6000803e3d6000fd5b505050506040513d601f19601f82011682018060405250810190620057f691906200a1bb565b604051620058069291906200b0af565b60405180910390a15b5050565b6060600960008373ffffffffffffffffffffffffffffffffffffffff1673ffffffffffffffffffffffffffffffffffffffff168152602001908152602001600020805480602002602001604051908101604052809291908181526020018280548015620058d657602002820191906000526020600020905b8160009054906101000a900473ffffffffffffffffffffffffffffffffffffffff1673ffffffffffffffffffffffffffffffffffffffff16815260200190600101908083116200588b575b50505050509050919050565b600d5481565b60026009811115620058ff57620058fe6200b7da565b5b600260003373ffffffffffffffffffffffffffffffffffffffff1673ffffffffffffffffffffffffffffffffffffffff16815260200190815260200160002060030160009054906101000a900460ff1660098111156200596457620059636200b7da565b5b14620059a7576040517f08c379a00000000000000000000000000000000000000000000000000000000081526004016200599e906200b2fc565b60405180910390fd5b8173ffffffffffffffffffffffffffffffffffffffff16630940f4e46040518163ffffffff167c0100000000000000000000000000000000000000000000000000000000028152600401602060405180830381600087803b15801562005a0c57600080fd5b505af115801562005a21573d6000803e3d6000fd5b505050506040513d601f19601f8201168201806040525081019062005a47919062009f40565b1562005b26577f3a5769d5db9b0aca9810faed21e67639d2ce1083ccf817ed0a1b9a0e949b9551828373ffffffffffffffffffffffffffffffffffffffff1663922962996040518163ffffffff167c010000000000000000000000000000000000000000000000000000000002815260040160206040518083038186803b15801562005ad257600080fd5b505afa15801562005ae7573d6000803e3d6000fd5b505050506040513d601f19601f8201168201806040525081019062005b0d91906200a1bb565b60405162005b1d9291906200b0af565b60405180910390a15b5050565b6005600981111562005b415762005b406200b7da565b5b600260003373ffffffffffffffffffffffffffffffffffffffff1673ffffffffffffffffffffffffffffffffffffffff16815260200190815260200160002060030160009054906101000a900460ff16600981111562005ba65762005ba56200b7da565b5b1462005be9576040517f08c379a000000000000000000000000000000000000000000000000000000000815260040162005be0906200b252565b60405180910390fd5b60008173ffffffffffffffffffffffffffffffffffffffff166323c0d03b6040518163ffffffff167c0100000000000000000000000000000000000000000000000000000000028152600401602060405180830381600087803b15801562005c5057600080fd5b505af115801562005c65573d6000803e3d6000fd5b505050506040513d601f19601f8201168201806040525081019062005c8b919062009f40565b9050801562005e11577f0eba5b46f672b4f50a675d9c0858fdc6196986362ac2faee26aee1ea04de7eb7828373ffffffffffffffffffffffffffffffffffffffff166373b037db6040518163ffffffff167c010000000000000000000000000000000000000000000000000000000002815260040160206040518083038186803b15801562005d1957600080fd5b505afa15801562005d2e573d6000803e3d6000fd5b505050506040513d601f19601f8201168201806040525081019062005d5491906200a1bb565b8473ffffffffffffffffffffffffffffffffffffffff1663cd8a5b2e6040518163ffffffff167c010000000000000000000000000000000000000000000000000000000002815260040160006040518083038186803b15801562005db757600080fd5b505afa15801562005dcc573d6000803e3d6000fd5b505050506040513d6000823e3d601f19601f8201168201806040525081019062005df7919062009eef565b60405162005e08939291906200b0dc565b60405180910390a15b5050565b6003600981111562005e2c5762005e2b6200b7da565b5b600260003373ffffffffffffffffffffffffffffffffffffffff1673ffffffffffffffffffffffffffffffffffffffff16815260200190815260200160002060030160009054906101000a900460ff16600981111562005e915762005e906200b7da565b5b1462005ed4576040517f08c379a000000000000000000000000000000000000000000000000000000000815260040162005ecb906200b3a6565b60405180910390fd5b600033898989898989898960405162005eed9062009002565b62005f01999897969594939291906200ab53565b604051809103906000f08015801562005f1e573d6000803e3d6000fd5b509050600660003373ffffffffffffffffffffffffffffffffffffffff1673ffffffffffffffffffffffffffffffffffffffff168152602001908152602001600020819080600181540180825580915050600190039060005260206000200160009091909190916101000a81548173ffffffffffffffffffffffffffffffffffffffff021916908373ffffffffffffffffffffffffffffffffffffffff1602179055507fcb372785a8ceee7b4d9c65768c453039a37294b3d120650542b54fea0044d7fe818a8373ffffffffffffffffffffffffffffffffffffffff166373b037db6040518163ffffffff167c010000000000000000000000000000000000000000000000000000000002815260040160206040518083038186803b1580156200604757600080fd5b505afa1580156200605c573d6000803e3d6000fd5b505050506040513d601f19601f820116820180604052508101906200608291906200a1bb565b8473ffffffffffffffffffffffffffffffffffffffff1663cd8a5b2e6040518163ffffffff167c010000000000000000000000000000000000000000000000000000000002815260040160006040518083038186803b158015620060e557600080fd5b505afa158015620060fa573d6000803e3d6000fd5b505050506040513d6000823e3d601f19601f8201168201806040525081019062006125919062009eef565b8d73ffffffffffffffffffffffffffffffffffffffff1663922962996040518163ffffffff167c010000000000000000000000000000000000000000000000000000000002815260040160206040518083038186803b1580156200618857600080fd5b505afa1580156200619d573d6000803e3d6000fd5b505050506040513d601f19601f82011682018060405250810190620061c391906200a1bb565b604051620061d69594939291906200adc6565b60405180910390a1505050505050505050565b620061f362009010565b888160000181905250878160200181815250508681604001819052508581606001818152505084816080018181525050818160c0019073ffffffffffffffffffffffffffffffffffffffff16908173ffffffffffffffffffffffffffffffffffffffff1681525050838160a0019073ffffffffffffffffffffffffffffffffffffffff16908173ffffffffffffffffffffffffffffffffffffffff1681525050600a60008573ffffffffffffffffffffffffffffffffffffffff1673ffffffffffffffffffffffffffffffffffffffff16815260200190815260200160002081908060018154018082558091505060019003906000526020600020906007020160009091909190915060008201518160000190805190602001906200631a92919062008eeb565b506020820151816001015560408201518160020190805190602001906200634392919062008eeb565b50606082015181600301556080820151816004015560a08201518160050160006101000a81548173ffffffffffffffffffffffffffffffffffffffff021916908373ffffffffffffffffffffffffffffffffffffffff16021790555060c08201518160060160006101000a81548173ffffffffffffffffffffffffffffffffffffffff021916908373ffffffffffffffffffffffffffffffffffffffff1602179055505050600b60008473ffffffffffffffffffffffffffffffffffffffff1673ffffffffffffffffffffffffffffffffffffffff16815260200190815260200160002081908060018154018082558091505060019003906000526020600020906007020160009091909190915060008201518160000190805190602001906200646f92919062008eeb565b506020820151816001015560408201518160020190805190602001906200649892919062008eeb565b50606082015181600301556080820151816004015560a08201518160050160006101000a81548173ffffffffffffffffffffffffffffffffffffffff021916908373ffffffffffffffffffffffffffffffffffffffff16021790555060c08201518160060160006101000a81548173ffffffffffffffffffffffffffffffffffffffff021916908373ffffffffffffffffffffffffffffffffffffffff1602179055505050505050505050505050565b6060600660008373ffffffffffffffffffffffffffffffffffffffff1673ffffffffffffffffffffffffffffffffffffffff1681526020019081526020016000208054806020026020016040519081016040528092919081815260200182805480156200660b57602002820191906000526020600020905b8160009054906101000a900473ffffffffffffffffffffffffffffffffffffffff1673ffffffffffffffffffffffffffffffffffffffff1681526020019060010190808311620065c0575b50505050509050919050565b6060600360008373ffffffffffffffffffffffffffffffffffffffff1673ffffffffffffffffffffffffffffffffffffffff168152602001908152602001600020805480602002602001604051908101604052809291908181526020018280548015620066da57602002820191906000526020600020905b8160009054906101000a900473ffffffffffffffffffffffffffffffffffffffff1673ffffffffffffffffffffffffffffffffffffffff16815260200190600101908083116200668f575b50505050509050919050565b60018181548110620066f757600080fd5b90600052602060002090600702016000915090508060000160009054906101000a900473ffffffffffffffffffffffffffffffffffffffff169080600101805462006742906200b6f1565b80601f016020809104026020016040519081016040528092919081815260200182805462006770906200b6f1565b8015620067c15780601f106200679557610100808354040283529160200191620067c1565b820191906000526020600020905b815481529060010190602001808311620067a357829003601f168201915b505050505090806002018054620067d8906200b6f1565b80601f016020809104026020016040519081016040528092919081815260200182805462006806906200b6f1565b8015620068575780601f106200682b5761010080835404028352916020019162006857565b820191906000526020600020905b8154815290600101906020018083116200683957829003601f168201915b5050505050908060030160009054906101000a900460ff169080600401805462006881906200b6f1565b80601f0160208091040260200160405190810160405280929190818152602001828054620068af906200b6f1565b8015620069005780601f10620068d45761010080835404028352916020019162006900565b820191906000526020600020905b815481529060010190602001808311620068e257829003601f168201915b5050505050908060050160009054906101000a900460ff16908060060154905087565b600560205281600052604060002081815481106200694057600080fd5b906000526020600020016000915091509054906101000a900473ffffffffffffffffffffffffffffffffffffffff1681565b6060600f60008373ffffffffffffffffffffffffffffffffffffffff1673ffffffffffffffffffffffffffffffffffffffff16815260200190815260200160002080548060200260200160405190810160405280929190818152602001828054801562006a3557602002820191906000526020600020905b8160009054906101000a900473ffffffffffffffffffffffffffffffffffffffff1673ffffffffffffffffffffffffffffffffffffffff1681526020019060010190808311620069ea575b50505050509050919050565b6060601060008373ffffffffffffffffffffffffffffffffffffffff1673ffffffffffffffffffffffffffffffffffffffff16815260200190815260200160002080548060200260200160405190810160405280929190818152602001828054801562006b0457602002820191906000526020600020905b8160009054906101000a900473ffffffffffffffffffffffffffffffffffffffff1673ffffffffffffffffffffffffffffffffffffffff168152602001906001019080831162006ab9575b50505050509050919050565b6002600981111562006b275762006b266200b7da565b5b600260003373ffffffffffffffffffffffffffffffffffffffff1673ffffffffffffffffffffffffffffffffffffffff16815260200190815260200160002060030160009054906101000a900460ff16600981111562006b8c5762006b8b6200b7da565b5b1462006bcf576040517f08c379a000000000000000000000000000000000000000000000000000000000815260040162006bc6906200b2fc565b60405180910390fd5b8173ffffffffffffffffffffffffffffffffffffffff16636e3726df6040518163ffffffff167c0100000000000000000000000000000000000000000000000000000000028152600401602060405180830381600087803b15801562006c3457600080fd5b505af115801562006c49573d6000803e3d6000fd5b505050506040513d601f19601f8201168201806040525081019062006c6f919062009f40565b1562006e9257601160008273ffffffffffffffffffffffffffffffffffffffff1673ffffffffffffffffffffffffffffffffffffffff168152602001908152602001600020829080600181540180825580915050600190039060005260206000200160009091909190916101000a81548173ffffffffffffffffffffffffffffffffffffffff021916908373ffffffffffffffffffffffffffffffffffffffff1602179055507fe52a52c7cdb18c60a34d2f308089e55d68f775f47426392377f30f2247923aae828373ffffffffffffffffffffffffffffffffffffffff166373b037db6040518163ffffffff167c010000000000000000000000000000000000000000000000000000000002815260040160206040518083038186803b15801562006d9a57600080fd5b505afa15801562006daf573d6000803e3d6000fd5b505050506040513d601f19601f8201168201806040525081019062006dd591906200a1bb565b8473ffffffffffffffffffffffffffffffffffffffff1663cd8a5b2e6040518163ffffffff167c010000000000000000000000000000000000000000000000000000000002815260040160006040518083038186803b15801562006e3857600080fd5b505afa15801562006e4d573d6000803e3d6000fd5b505050506040513d6000823e3d601f19601f8201168201806040525081019062006e78919062009eef565b60405162006e89939291906200b0dc565b60405180910390a15b5050565b6060600760008373ffffffffffffffffffffffffffffffffffffffff1673ffffffffffffffffffffffffffffffffffffffff16815260200190815260200160002080548060200260200160405190810160405280929190818152602001828054801562006f5957602002820191906000526020600020905b8160009054906101000a900473ffffffffffffffffffffffffffffffffffffffff1673ffffffffffffffffffffffffffffffffffffffff168152602001906001019080831162006f0e575b50505050509050919050565b6003600981111562006f7c5762006f7b6200b7da565b5b600260003373ffffffffffffffffffffffffffffffffffffffff1673ffffffffffffffffffffffffffffffffffffffff16815260200190815260200160002060030160009054906101000a900460ff16600981111562006fe15762006fe06200b7da565b5b1462007024576040517f08c379a00000000000000000000000000000000000000000000000000000000081526004016200701b906200b3a6565b60405180910390fd5b60008273ffffffffffffffffffffffffffffffffffffffff166353534f386040518163ffffffff167c0100000000000000000000000000000000000000000000000000000000028152600401602060405180830381600087803b1580156200708b57600080fd5b505af1158015620070a0573d6000803e3d6000fd5b505050506040513d601f19601f82011682018060405250810190620070c6919062009f40565b90508015620072ec57600760008373ffffffffffffffffffffffffffffffffffffffff1673ffffffffffffffffffffffffffffffffffffffff168152602001908152602001600020839080600181540180825580915050600190039060005260206000200160009091909190916101000a81548173ffffffffffffffffffffffffffffffffffffffff021916908373ffffffffffffffffffffffffffffffffffffffff1602179055507f97e69abcbb35262d2951b8fb39f6845c41f184783210f3f9f822c2b900778566838473ffffffffffffffffffffffffffffffffffffffff166373b037db6040518163ffffffff167c010000000000000000000000000000000000000000000000000000000002815260040160206040518083038186803b158015620071f457600080fd5b505afa15801562007209573d6000803e3d6000fd5b505050506040513d601f19601f820116820180604052508101906200722f91906200a1bb565b8573ffffffffffffffffffffffffffffffffffffffff1663cd8a5b2e6040518163ffffffff167c010000000000000000000000000000000000000000000000000000000002815260040160006040518083038186803b1580156200729257600080fd5b505afa158015620072a7573d6000803e3d6000fd5b505050506040513d6000823e3d601f19601f82011682018060405250810190620072d2919062009eef565b604051620072e3939291906200b0dc565b60405180910390a15b505050565b601260205281600052604060002081815481106200730e57600080fd5b906000526020600020016000915091509054906101000a900473ffffffffffffffffffffffffffffffffffffffff1681565b600f60205281600052604060002081815481106200735d57600080fd5b906000526020600020016000915091509054906101000a900473ffffffffffffffffffffffffffffffffffffffff1681565b6200739962008f8a565b8273ffffffffffffffffffffffffffffffffffffffff16600260008573ffffffffffffffffffffffffffffffffffffffff1673ffffffffffffffffffffffffffffffffffffffff16815260200190815260200160002060000160009054906101000a900473ffffffffffffffffffffffffffffffffffffffff1673ffffffffffffffffffffffffffffffffffffffff16146200746c576040517f08c379a000000000000000000000000000000000000000000000000000000000815260040162007463906200b296565b60405180910390fd5b8180519060200120600260008573ffffffffffffffffffffffffffffffffffffffff1673ffffffffffffffffffffffffffffffffffffffff168152602001908152602001600020600101604051620074c591906200aad0565b60405180910390201462007510576040517f08c379a000000000000000000000000000000000000000000000000000000000815260040162007507906200b296565b60405180910390fd5b6040518060400160405280600681526020017f416374697665000000000000000000000000000000000000000000000000000081525080519060200120600260008573ffffffffffffffffffffffffffffffffffffffff1673ffffffffffffffffffffffffffffffffffffffff1681526020019081526020016000206004016040516200759e91906200aad0565b604051809103902014620075e9576040517f08c379a0000000000000000000000000000000000000000000000000000000008152600401620075e0906200b274565b60405180910390fd5b620075f48362003ad3565b905092915050565b600660098111156200761357620076126200b7da565b5b600260003373ffffffffffffffffffffffffffffffffffffffff1673ffffffffffffffffffffffffffffffffffffffff16815260200190815260200160002060030160009054906101000a900460ff1660098111156200767857620076776200b7da565b5b14620076bb576040517f08c379a0000000000000000000000000000000000000000000000000000000008152600401620076b2906200b20e565b60405180910390fd5b60006002811115620076d257620076d16200b7da565b5b600c60008473ffffffffffffffffffffffffffffffffffffffff1673ffffffffffffffffffffffffffffffffffffffff16815260200190815260200160002060009054906101000a900460ff1660028111156200773457620077336200b7da565b5b101562007778576040517f08c379a00000000000000000000000000000000000000000000000000000000081526004016200776f906200b340565b60405180910390fd5b8060028111156200778e576200778d6200b7da565b5b600c60008473ffffffffffffffffffffffffffffffffffffffff1673ffffffffffffffffffffffffffffffffffffffff16815260200190815260200160002060006101000a81548160ff02191690836002811115620077f257620077f16200b7da565b5b02179055505050565b600160098111156200781257620078116200b7da565b5b600260003373ffffffffffffffffffffffffffffffffffffffff1673ffffffffffffffffffffffffffffffffffffffff16815260200190815260200160002060030160009054906101000a900460ff1660098111156200787757620078766200b7da565b5b14620078ba576040517f08c379a0000000000000000000000000000000000000000000000000000000008152600401620078b1906200b230565b60405180910390fd5b60008273ffffffffffffffffffffffffffffffffffffffff166309eb029c6040518163ffffffff167c0100000000000000000000000000000000000000000000000000000000028152600401602060405180830381600087803b1580156200792157600080fd5b505af115801562007936573d6000803e3d6000fd5b505050506040513d601f19601f820116820180604052508101906200795c919062009f40565b9050801562007ade57600560008373ffffffffffffffffffffffffffffffffffffffff1673ffffffffffffffffffffffffffffffffffffffff168152602001908152602001600020839080600181540180825580915050600190039060005260206000200160009091909190916101000a81548173ffffffffffffffffffffffffffffffffffffffff021916908373ffffffffffffffffffffffffffffffffffffffff1602179055507f153f363a775cbc999a9bd929a87e8e868076cb029adfcdffd7198e2735de9642838473ffffffffffffffffffffffffffffffffffffffff1663922962996040518163ffffffff167c010000000000000000000000000000000000000000000000000000000002815260040160206040518083038186803b15801562007a8a57600080fd5b505afa15801562007a9f573d6000803e3d6000fd5b505050506040513d601f19601f8201168201806040525081019062007ac591906200a1bb565b60405162007ad59291906200b0af565b60405180910390a15b505050565b60098081111562007af95762007af86200b7da565b5b600260003373ffffffffffffffffffffffffffffffffffffffff1673ffffffffffffffffffffffffffffffffffffffff16815260200190815260200160002060030160009054906101000a900460ff16600981111562007b5e5762007b5d6200b7da565b5b1462007ba1576040517f08c379a000000000000000000000000000000000000000000000000000000000815260040162007b98906200b362565b60405180910390fd5b8173ffffffffffffffffffffffffffffffffffffffff166312966fe66040518163ffffffff167c0100000000000000000000000000000000000000000000000000000000028152600401602060405180830381600087803b15801562007c0657600080fd5b505af115801562007c1b573d6000803e3d6000fd5b505050506040513d601f19601f8201168201806040525081019062007c41919062009f40565b1562007e6457600f60008273ffffffffffffffffffffffffffffffffffffffff1673ffffffffffffffffffffffffffffffffffffffff168152602001908152602001600020829080600181540180825580915050600190039060005260206000200160009091909190916101000a81548173ffffffffffffffffffffffffffffffffffffffff021916908373ffffffffffffffffffffffffffffffffffffffff1602179055507fe52a7bc1ea894a8992a5de5047e90a4e487a08e09b2c3e71582150e5876c714f828373ffffffffffffffffffffffffffffffffffffffff166373b037db6040518163ffffffff167c010000000000000000000000000000000000000000000000000000000002815260040160206040518083038186803b15801562007d6c57600080fd5b505afa15801562007d81573d6000803e3d6000fd5b505050506040513d601f19601f8201168201806040525081019062007da791906200a1bb565b8473ffffffffffffffffffffffffffffffffffffffff1663cd8a5b2e6040518163ffffffff167c010000000000000000000000000000000000000000000000000000000002815260040160006040518083038186803b15801562007e0a57600080fd5b505afa15801562007e1f573d6000803e3d6000fd5b505050506040513d6000823e3d601f19601f8201168201806040525081019062007e4a919062009eef565b60405162007e5b939291906200b0dc565b60405180910390a15b5050565b6004602052816000526040600020818154811062007e8557600080fd5b906000526020600020016000915091509054906101000a900473ffffffffffffffffffffffffffffffffffffffff1681565b6006600981111562007ece5762007ecd6200b7da565b5b600260003373ffffffffffffffffffffffffffffffffffffffff1673ffffffffffffffffffffffffffffffffffffffff16815260200190815260200160002060030160009054906101000a900460ff16600981111562007f335762007f326200b7da565b5b1462007f76576040517f08c379a000000000000000000000000000000000000000000000000000000000815260040162007f6d906200b20e565b60405180910390fd5b60008173ffffffffffffffffffffffffffffffffffffffff16633834aae06040518163ffffffff167c0100000000000000000000000000000000000000000000000000000000028152600401602060405180830381600087803b15801562007fdd57600080fd5b505af115801562007ff2573d6000803e3d6000fd5b505050506040513d601f19601f8201168201806040525081019062008018919062009f40565b90508015620082bd57600060028111156200803857620080376200b7da565b5b600c60008473ffffffffffffffffffffffffffffffffffffffff1673ffffffffffffffffffffffffffffffffffffffff16815260200190815260200160002060006101000a81548160ff021916908360028111156200809c576200809b6200b7da565b5b02179055507f34ea3bb8298dee13b50177186c76e247da8ae44e9bf59ed824e34877dc338504828373ffffffffffffffffffffffffffffffffffffffff166340019e5d6040518163ffffffff167c010000000000000000000000000000000000000000000000000000000002815260040160206040518083038186803b1580156200812657600080fd5b505afa1580156200813b573d6000803e3d6000fd5b505050506040513d601f19601f8201168201806040525081019062008161919062009464565b8473ffffffffffffffffffffffffffffffffffffffff16631805de3b6040518163ffffffff167c010000000000000000000000000000000000000000000000000000000002815260040160206040518083038186803b158015620081c457600080fd5b505afa158015620081d9573d6000803e3d6000fd5b505050506040513d601f19601f82011682018060405250810190620081ff91906200a1bb565b8573ffffffffffffffffffffffffffffffffffffffff166330fa86aa6040518163ffffffff167c010000000000000000000000000000000000000000000000000000000002815260040160006040518083038186803b1580156200826257600080fd5b505afa15801562008277573d6000803e3d6000fd5b505050506040513d6000823e3d601f19601f82011682018060405250810190620082a2919062009eef565b604051620082b494939291906200ad72565b60405180910390a15b5050565b60106020528160005260406000208181548110620082de57600080fd5b906000526020600020016000915091509054906101000a900473ffffffffffffffffffffffffffffffffffffffff1681565b600760205281600052604060002081815481106200832d57600080fd5b906000526020600020016000915091509054906101000a900473ffffffffffffffffffffffffffffffffffffffff1681565b6009808111156200837557620083746200b7da565b5b600260003373ffffffffffffffffffffffffffffffffffffffff1673ffffffffffffffffffffffffffffffffffffffff16815260200190815260200160002060030160009054906101000a900460ff166009811115620083da57620083d96200b7da565b5b146200841d576040517f08c379a000000000000000000000000000000000000000000000000000000000815260040162008414906200b362565b60405180910390fd5b8173ffffffffffffffffffffffffffffffffffffffff1663a5a226466040518163ffffffff167c0100000000000000000000000000000000000000000000000000000000028152600401602060405180830381600087803b1580156200848257600080fd5b505af115801562008497573d6000803e3d6000fd5b505050506040513d601f19601f82011682018060405250810190620084bd919062009f40565b1562008640577fe52a7bc1ea894a8992a5de5047e90a4e487a08e09b2c3e71582150e5876c714f828373ffffffffffffffffffffffffffffffffffffffff166373b037db6040518163ffffffff167c010000000000000000000000000000000000000000000000000000000002815260040160206040518083038186803b1580156200854857600080fd5b505afa1580156200855d573d6000803e3d6000fd5b505050506040513d601f19601f820116820180604052508101906200858391906200a1bb565b8473ffffffffffffffffffffffffffffffffffffffff1663cd8a5b2e6040518163ffffffff167c010000000000000000000000000000000000000000000000000000000002815260040160006040518083038186803b158015620085e657600080fd5b505afa158015620085fb573d6000803e3d6000fd5b505050506040513d6000823e3d601f19601f8201168201806040525081019062008626919062009eef565b60405162008637939291906200b0dc565b60405180910390a15b5050565b600260098111156200865b576200865a6200b7da565b5b600260003373ffffffffffffffffffffffffffffffffffffffff1673ffffffffffffffffffffffffffffffffffffffff16815260200190815260200160002060030160009054906101000a900460ff166009811115620086c057620086bf6200b7da565b5b1462008703576040517f08c379a0000000000000000000000000000000000000000000000000000000008152600401620086fa906200b2fc565b60405180910390fd5b8173ffffffffffffffffffffffffffffffffffffffff166358c3bf796040518163ffffffff167c0100000000000000000000000000000000000000000000000000000000028152600401602060405180830381600087803b1580156200876857600080fd5b505af11580156200877d573d6000803e3d6000fd5b505050506040513d601f19601f82011682018060405250810190620087a3919062009f40565b1562008a6557601260008273ffffffffffffffffffffffffffffffffffffffff1673ffffffffffffffffffffffffffffffffffffffff168152602001908152602001600020829080600181540180825580915050600190039060005260206000200160009091909190916101000a81548173ffffffffffffffffffffffffffffffffffffffff021916908373ffffffffffffffffffffffffffffffffffffffff1602179055507f0515ffef0d17b0546dee378bd947d670e1b693c8e32bbb8860a8268fa810f0fa828373ffffffffffffffffffffffffffffffffffffffff166340019e5d6040518163ffffffff167c010000000000000000000000000000000000000000000000000000000002815260040160206040518083038186803b158015620088ce57600080fd5b505afa158015620088e3573d6000803e3d6000fd5b505050506040513d601f19601f8201168201806040525081019062008909919062009464565b8473ffffffffffffffffffffffffffffffffffffffff16631805de3b6040518163ffffffff167c010000000000000000000000000000000000000000000000000000000002815260040160206040518083038186803b1580156200896c57600080fd5b505afa15801562008981573d6000803e3d6000fd5b505050506040513d601f19601f82011682018060405250810190620089a791906200a1bb565b8573ffffffffffffffffffffffffffffffffffffffff166330fa86aa6040518163ffffffff167c010000000000000000000000000000000000000000000000000000000002815260040160006040518083038186803b15801562008a0a57600080fd5b505afa15801562008a1f573d6000803e3d6000fd5b505050506040513d6000823e3d601f19601f8201168201806040525081019062008a4a919062009eef565b60405162008a5c94939291906200ad72565b60405180910390a15b5050565b6003600981111562008a805762008a7f6200b7da565b5b600260003373ffffffffffffffffffffffffffffffffffffffff1673ffffffffffffffffffffffffffffffffffffffff16815260200190815260200160002060030160009054906101000a900460ff16600981111562008ae55762008ae46200b7da565b5b1462008b28576040517f08c379a000000000000000000000000000000000000000000000000000000000815260040162008b1f906200b3a6565b60405180910390fd5b60008173ffffffffffffffffffffffffffffffffffffffff16634a4815bf6040518163ffffffff167c0100000000000000000000000000000000000000000000000000000000028152600401602060405180830381600087803b15801562008b8f57600080fd5b505af115801562008ba4573d6000803e3d6000fd5b505050506040513d601f19601f8201168201806040525081019062008bca919062009f40565b9050801562008cac577f58d8ed7f1b8feae83bad91b52b415f7f3421428c9f0dfa37021c5bfa77a586b4828373ffffffffffffffffffffffffffffffffffffffff1663922962996040518163ffffffff167c010000000000000000000000000000000000000000000000000000000002815260040160206040518083038186803b15801562008c5857600080fd5b505afa15801562008c6d573d6000803e3d6000fd5b505050506040513d601f19601f8201168201806040525081019062008c9391906200a1bb565b60405162008ca39291906200b0af565b60405180910390a15b5050565b600080600090505b60018054905081101562008d5d578373ffffffffffffffffffffffffffffffffffffffff166001828154811062008cf45762008cf36200b838565b5b906000526020600020906007020160000160009054906101000a900473ffffffffffffffffffffffffffffffffffffffff1673ffffffffffffffffffffffffffffffffffffffff16141562008d47578091505b808062008d54906200b75d565b91505062008cb8565b506040518060400160405280600881526020017f496e6163746976650000000000000000000000000000000000000000000000008152506001828154811062008dab5762008daa6200b838565b5b9060005260206000209060070201600401908051906020019062008dd192919062008eeb565b5060011515821515141562008e2157600180828154811062008df85762008df76200b838565b5b906000526020600020906007020160050160006101000a81548160ff0219169083151502179055505b505050565b6040518060a00160405280600073ffffffffffffffffffffffffffffffffffffffff168152602001606081526020016060815260200160608152602001600081525090565b6040518060800160405280600073ffffffffffffffffffffffffffffffffffffffff168152602001600073ffffffffffffffffffffffffffffffffffffffff168152602001600073ffffffffffffffffffffffffffffffffffffffff168152602001600073ffffffffffffffffffffffffffffffffffffffff1681525090565b82805462008ef9906200b6f1565b90600052602060002090601f01602090048101928262008f1d576000855562008f69565b82601f1062008f3857805160ff191683800117855562008f69565b8280016001018555821562008f69579182015b8281111562008f6857825182559160200191906001019062008f4b565b5b50905062008f78919062009079565b5090565b61174b806200bb4583390190565b6040518060e00160405280600073ffffffffffffffffffffffffffffffffffffffff16815260200160608152602001606081526020016000600981111562008fd75762008fd66200b7da565b5b815260200160608152602001600015158152602001600081525090565b61178e806200d29083390190565b6124ff806200ea1e83390190565b6040518060e001604052806060815260200160008152602001606081526020016000815260200160008152602001600073ffffffffffffffffffffffffffffffffffffffff168152602001600073ffffffffffffffffffffffffffffffffffffffff1681525090565b5b80821115620090945760008160009055506001016200907a565b5090565b6000620090af620090a9846200b432565b6200b409565b90508083825260208201905082856020860282011115620090d557620090d46200b8a5565b5b60005b85811015620091095781620090ee88826200941b565b845260208401935060208301925050600181019050620090d8565b5050509392505050565b60006200912a62009124846200b461565b6200b409565b9050828152602081018484840111156200914957620091486200b8aa565b5b620091568482856200b6ac565b509392505050565b6000620091756200916f846200b461565b6200b409565b9050828152602081018484840111156200919457620091936200b8aa565b5b620091a18482856200b6bb565b509392505050565b600081359050620091ba816200baf6565b92915050565b600081519050620091d1816200baf6565b92915050565b600082601f830112620091ef57620091ee6200b896565b5b81516200920184826020860162009098565b91505092915050565b6000815190506200921b816200bb10565b92915050565b600082601f8301126200923957620092386200b896565b5b81356200924b84826020860162009113565b91505092915050565b600082601f8301126200926c576200926b6200b896565b5b81516200927e8482602086016200915e565b91505092915050565b600060808284031215620092a0576200929f6200b89b565b5b620092ac60806200b409565b90506000620092be84828501620091c0565b6000830152506020620092d484828501620091c0565b6020830152506040620092ea84828501620091c0565b60408301525060606200930084828501620091c0565b60608301525092915050565b600060a082840312156200932557620093246200b89b565b5b6200933160a06200b409565b905060006200934384828501620091c0565b600083015250602082015167ffffffffffffffff8111156200936a57620093696200b8a0565b5b620093788482850162009254565b602083015250604082015167ffffffffffffffff8111156200939f576200939e6200b8a0565b5b620093ad8482850162009254565b604083015250606082015167ffffffffffffffff811115620093d457620093d36200b8a0565b5b620093e28482850162009254565b6060830152506080620093f8848285016200941b565b60808301525092915050565b60008135905062009415816200bb2a565b92915050565b6000815190506200942c816200bb2a565b92915050565b6000602082840312156200944b576200944a6200b8b4565b5b60006200945b84828501620091a9565b91505092915050565b6000602082840312156200947d576200947c6200b8b4565b5b60006200948d84828501620091c0565b91505092915050565b60008060408385031215620094b057620094af6200b8b4565b5b6000620094c085828601620091a9565b9250506020620094d385828601620091a9565b9150509250929050565b600080600060608486031215620094f957620094f86200b8b4565b5b60006200950986828701620091a9565b93505060206200951c86828701620091a9565b92505060406200952f86828701620091a9565b9150509250925092565b60008060008060008060008060008060006101608c8e0312156200956257620095616200b8b4565b5b6000620095728e828f01620091c0565b9b50506020620095858e828f01620091c0565b9a505060408c015167ffffffffffffffff811115620095a957620095a86200b8af565b5b620095b78e828f0162009254565b99505060608c015167ffffffffffffffff811115620095db57620095da6200b8af565b5b620095e98e828f0162009254565b98505060808c015167ffffffffffffffff8111156200960d576200960c6200b8af565b5b6200961b8e828f0162009254565b97505060a06200962e8e828f016200941b565b96505060c0620096418e828f01620091c0565b95505060e0620096548e828f01620091c0565b945050610100620096688e828f016200941b565b9350506101208c015167ffffffffffffffff8111156200968d576200968c6200b8af565b5b6200969b8e828f01620091d7565b925050610140620096af8e828f01620091c0565b9150509295989b509295989b9093969950565b6000806000806000806000610140888a031215620096e557620096e46200b8b4565b5b6000620096f58a828b01620091c0565b9750506020620097088a828b01620091c0565b965050604088015167ffffffffffffffff8111156200972c576200972b6200b8af565b5b6200973a8a828b016200930c565b95505060606200974d8a828b0162009287565b94505060e0620097608a828b01620091c0565b935050610100620097748a828b016200941b565b92505061012088015167ffffffffffffffff8111156200979957620097986200b8af565b5b620097a78a828b01620091d7565b91505092959891949750929550565b600080600060608486031215620097d257620097d16200b8b4565b5b6000620097e286828701620091a9565b9350506020620097f586828701620091a9565b9250506040620098088682870162009404565b9150509250925092565b600080604083850312156200982c576200982b6200b8b4565b5b60006200983c85828601620091a9565b925050602083013567ffffffffffffffff81111562009860576200985f6200b8af565b5b6200986e8582860162009221565b9150509250929050565b6000806000606084860312156200989457620098936200b8b4565b5b6000620098a486828701620091a9565b935050602084013567ffffffffffffffff811115620098c857620098c76200b8af565b5b620098d68682870162009221565b925050604084013567ffffffffffffffff811115620098fa57620098f96200b8af565b5b620099088682870162009221565b9150509250925092565b60008060008060008060008060006101808a8c0312156200993857620099376200b8b4565b5b6000620099488c828d01620091c0565b99505060208a015167ffffffffffffffff8111156200996c576200996b6200b8af565b5b6200997a8c828d0162009254565b98505060408a015167ffffffffffffffff8111156200999e576200999d6200b8af565b5b620099ac8c828d0162009254565b97505060608a015167ffffffffffffffff811115620099d057620099cf6200b8af565b5b620099de8c828d0162009254565b9650506080620099f18c828d0162009287565b95505061010062009a058c828d01620091c0565b94505061012062009a198c828d016200941b565b93505061014062009a2d8c828d016200941b565b9250506101608a015167ffffffffffffffff81111562009a525762009a516200b8af565b5b62009a608c828d01620091d7565b9150509295985092959850929598565b600080600080600080600060e0888a03121562009a925762009a916200b8b4565b5b600062009aa28a828b01620091a9565b975050602088013567ffffffffffffffff81111562009ac65762009ac56200b8af565b5b62009ad48a828b0162009221565b965050604088013567ffffffffffffffff81111562009af85762009af76200b8af565b5b62009b068a828b0162009221565b955050606088013567ffffffffffffffff81111562009b2a5762009b296200b8af565b5b62009b388a828b0162009221565b945050608062009b4b8a828b0162009404565b93505060a062009b5e8a828b01620091a9565b92505060c062009b718a828b01620091a9565b91505092959891949750929550565b600080600080600080600080610100898b03121562009ba45762009ba36200b8b4565b5b600062009bb48b828c01620091a9565b985050602089013567ffffffffffffffff81111562009bd85762009bd76200b8af565b5b62009be68b828c0162009221565b975050604089013567ffffffffffffffff81111562009c0a5762009c096200b8af565b5b62009c188b828c0162009221565b965050606089013567ffffffffffffffff81111562009c3c5762009c3b6200b8af565b5b62009c4a8b828c0162009221565b955050608062009c5d8b828c0162009404565b94505060a062009c708b828c01620091a9565b93505060c062009c838b828c01620091a9565b92505060e062009c968b828c01620091a9565b9150509295985092959890939650565b600080600080600060a0868803121562009cc55762009cc46200b8b4565b5b600062009cd588828901620091a9565b955050602086013567ffffffffffffffff81111562009cf95762009cf86200b8af565b5b62009d078882890162009221565b945050604086013567ffffffffffffffff81111562009d2b5762009d2a6200b8af565b5b62009d398882890162009221565b935050606062009d4c8882890162009404565b925050608086013567ffffffffffffffff81111562009d705762009d6f6200b8af565b5b62009d7e8882890162009221565b9150509295509295909350565b60008060008060008060008060006101208a8c03121562009db15762009db06200b8b4565b5b600062009dc18c828d01620091a9565b99505060208a013567ffffffffffffffff81111562009de55762009de46200b8af565b5b62009df38c828d0162009221565b985050604062009e068c828d0162009404565b97505060608a013567ffffffffffffffff81111562009e2a5762009e296200b8af565b5b62009e388c828d0162009221565b965050608062009e4b8c828d0162009404565b95505060a062009e5e8c828d0162009404565b94505060c062009e718c828d01620091a9565b93505060e062009e848c828d01620091a9565b92505061010062009e988c828d0162009404565b9150509295985092959850929598565b6000806040838503121562009ec25762009ec16200b8b4565b5b600062009ed285828601620091a9565b925050602062009ee58582860162009404565b9150509250929050565b60006020828403121562009f085762009f076200b8b4565b5b600082015167ffffffffffffffff81111562009f295762009f286200b8af565b5b62009f3784828501620091d7565b91505092915050565b60006020828403121562009f595762009f586200b8b4565b5b600062009f69848285016200920a565b91505092915050565b600080600080600080600060e0888a03121562009f945762009f936200b8b4565b5b600088013567ffffffffffffffff81111562009fb55762009fb46200b8af565b5b62009fc38a828b0162009221565b975050602088013567ffffffffffffffff81111562009fe75762009fe66200b8af565b5b62009ff58a828b0162009221565b965050604088013567ffffffffffffffff8111156200a019576200a0186200b8af565b5b6200a0278a828b0162009221565b95505060606200a03a8a828b0162009404565b94505060806200a04d8a828b01620091a9565b93505060a06200a0608a828b01620091a9565b92505060c06200a0738a828b01620091a9565b91505092959891949750929550565b600080600080600080600080610100898b0312156200a0a6576200a0a56200b8b4565b5b600089013567ffffffffffffffff8111156200a0c7576200a0c66200b8af565b5b6200a0d58b828c0162009221565b98505060206200a0e88b828c0162009404565b975050604089013567ffffffffffffffff8111156200a10c576200a10b6200b8af565b5b6200a11a8b828c0162009221565b96505060606200a12d8b828c0162009404565b95505060806200a1408b828c0162009404565b94505060a06200a1538b828c01620091a9565b93505060c06200a1668b828c01620091a9565b92505060e06200a1798b828c01620091a9565b9150509295985092959890939650565b6000602082840312156200a1a2576200a1a16200b8b4565b5b60006200a1b28482850162009404565b91505092915050565b6000602082840312156200a1d4576200a1d36200b8b4565b5b60006200a1e4848285016200941b565b91505092915050565b60006200a1fb83836200a24d565b60208301905092915050565b60006200a21583836200a7a2565b905092915050565b60006200a22b83836200a93e565b905092915050565b60006200a24183836200aaae565b60208301905092915050565b6200a258816200b625565b82525050565b6200a269816200b625565b82525050565b60006200a27c826200b4ec565b6200a28881856200b557565b93506200a295836200b497565b8060005b838110156200a2cc5781516200a2b088826200a1ed565b97506200a2bd836200b523565b9250506001810190506200a299565b5085935050505092915050565b60006200a2e6826200b4f7565b6200a2f281856200b568565b9350836020820285016200a306856200b4a7565b8060005b858110156200a34857848403895281516200a32685826200a207565b94506200a333836200b530565b925060208a019950506001810190506200a30a565b50829750879550505050505092915050565b60006200a367826200b502565b6200a37381856200b579565b9350836020820285016200a387856200b4b7565b8060005b858110156200a3c957848403895281516200a3a785826200a21d565b94506200a3b4836200b53d565b925060208a019950506001810190506200a38b565b50829750879550505050505092915050565b60006200a3e8826200b50d565b6200a3f481856200b58a565b93506200a401836200b4c7565b8060005b838110156200a4385781516200a41c88826200a233565b97506200a429836200b54a565b9250506001810190506200a405565b5085935050505092915050565b6200a450816200b639565b82525050565b6200a461816200b639565b82525050565b600081546200a476816200b6f1565b6200a48281866200b59b565b945060018216600081146200a4a057600181146200a4b2576200a4e9565b60ff198316865281860193506200a4e9565b6200a4bd856200b4d7565b60005b838110156200a4e1578154818901526001820191506020810190506200a4c0565b838801955050505b50505092915050565b6200a4fd816200b684565b82525050565b6200a50e816200b684565b82525050565b6200a51f816200b698565b82525050565b60006200a532826200b518565b6200a53e81856200b5a6565b93506200a5508185602086016200b6bb565b6200a55b816200b8b9565b840191505092915050565b60006200a573826200b518565b6200a57f81856200b5b7565b93506200a5918185602086016200b6bb565b6200a59c816200b8b9565b840191505092915050565b60006200a5b66004836200b5b7565b91506200a5c3826200b8ca565b602082019050919050565b60006200a5dd6006836200b5b7565b91506200a5ea826200b8f3565b602082019050919050565b60006200a6046004836200b5b7565b91506200a611826200b91c565b602082019050919050565b60006200a62b600d836200b5b7565b91506200a638826200b945565b602082019050919050565b60006200a652600a836200b5b7565b91506200a65f826200b96e565b602082019050919050565b60006200a6796004836200b5b7565b91506200a686826200b997565b602082019050919050565b60006200a6a06004836200b5b7565b91506200a6ad826200b9c0565b602082019050919050565b60006200a6c76005836200b5b7565b91506200a6d4826200b9e9565b602082019050919050565b60006200a6ee6009836200b5b7565b91506200a6fb826200ba12565b602082019050919050565b60006200a715600e836200b5b7565b91506200a722826200ba3b565b602082019050919050565b60006200a73c6005836200b5b7565b91506200a749826200ba64565b602082019050919050565b60006200a763600b836200b5b7565b91506200a770826200ba8d565b602082019050919050565b60006200a78a6004836200b5b7565b91506200a797826200bab6565b602082019050919050565b600060e08301600083015184820360008601526200a7c182826200a525565b91505060208301516200a7d860208601826200aaae565b50604083015184820360408601526200a7f282826200a525565b91505060608301516200a80960608601826200aaae565b5060808301516200a81e60808601826200aaae565b5060a08301516200a83360a08601826200a24d565b5060c08301516200a84860c08601826200a24d565b508091505092915050565b6080820160008201516200a86b60008501826200a24d565b5060208201516200a88060208501826200a24d565b5060408201516200a89560408501826200a24d565b5060608201516200a8aa60608501826200a24d565b50505050565b600060a0830160008301516200a8ca60008601826200a24d565b50602083015184820360208601526200a8e482826200a525565b915050604083015184820360408601526200a90082826200a525565b915050606083015184820360608601526200a91c82826200a525565b91505060808301516200a93360808601826200aaae565b508091505092915050565b600060e0830160008301516200a95860008601826200a24d565b50602083015184820360208601526200a97282826200a525565b915050604083015184820360408601526200a98e82826200a525565b91505060608301516200a9a560608601826200a4f2565b50608083015184820360808601526200a9bf82826200a525565b91505060a08301516200a9d660a08601826200a445565b5060c08301516200a9eb60c08601826200aaae565b508091505092915050565b600060e0830160008301516200aa1060008601826200a24d565b50602083015184820360208601526200aa2a82826200a525565b915050604083015184820360408601526200aa4682826200a525565b91505060608301516200aa5d60608601826200a4f2565b50608083015184820360808601526200aa7782826200a525565b91505060a08301516200aa8e60a08601826200a445565b5060c08301516200aaa360c08601826200aaae565b508091505092915050565b6200aab9816200b67a565b82525050565b6200aaca816200b67a565b82525050565b60006200aade82846200a467565b915081905092915050565b60006020820190506200ab0060008301846200a25e565b92915050565b60006080820190506200ab1d60008301876200a25e565b6200ab2c60208301866200a25e565b6200ab3b60408301856200a25e565b6200ab4a60608301846200a25e565b95945050505050565b6000610120820190506200ab6b600083018c6200a25e565b6200ab7a602083018b6200a25e565b81810360408301526200ab8e818a6200a566565b905081810360608301526200aba481896200a566565b905081810360808301526200abba81886200a566565b90506200abcb60a08301876200aabf565b6200abda60c08301866200a25e565b6200abe960e08301856200a25e565b6200abf96101008301846200a25e565b9a9950505050505050505050565b6000610160820190506200ac1f600083018e6200a25e565b6200ac2e602083018d6200a25e565b81810360408301526200ac42818c6200a566565b905081810360608301526200ac58818b6200a566565b905081810360808301526200ac6e818a6200a566565b90506200ac7f60a08301896200aabf565b6200ac8e60c08301886200a25e565b6200ac9d60e08301876200a25e565b6200acad6101008301866200aabf565b8181036101208301526200acc281856200a3db565b90506200acd46101408301846200a25e565b9c9b505050505050505050505050565b6000610140820190506200acfc600083018a6200a25e565b6200ad0b60208301896200a25e565b81810360408301526200ad1f81886200a8b0565b90506200ad3060608301876200a853565b6200ad3f60e08301866200a25e565b6200ad4f6101008301856200aabf565b8181036101208301526200ad6481846200a3db565b905098975050505050505050565b60006080820190506200ad8960008301876200a25e565b6200ad9860208301866200a25e565b6200ada760408301856200aabf565b81810360608301526200adbb81846200a3db565b905095945050505050565b600060a0820190506200addd60008301886200a25e565b6200adec60208301876200a25e565b6200adfb60408301866200aabf565b81810360608301526200ae0f81856200a3db565b90506200ae2060808301846200aabf565b9695505050505050565b600060e0820190506200ae41600083018a6200a25e565b81810360208301526200ae5581896200a566565b905081810360408301526200ae6b81886200a566565b90506200ae7c60608301876200a503565b81810360808301526200ae9081866200a566565b90506200aea160a08301856200a456565b6200aeb060c08301846200aabf565b98975050505050505050565b6000610180820190506200aed4600083018c6200a25e565b81810360208301526200aee8818b6200a566565b905081810360408301526200aefe818a6200a566565b905081810360608301526200af1481896200a566565b90506200af2560808301886200a853565b6200af356101008301876200a25e565b6200af456101208301866200aabf565b6200af556101408301856200aabf565b8181036101608301526200af6a81846200a3db565b90509a9950505050505050505050565b6000610100820190506200af92600083018b6200a25e565b81810360208301526200afa6818a6200a566565b905081810360408301526200afbc81896200a566565b905081810360608301526200afd281886200a566565b90506200afe360808301876200aabf565b6200aff260a08301866200a25e565b6200b00160c08301856200a25e565b6200b01060e08301846200a25e565b9998505050505050505050565b600060e0820190506200b034600083018a6200a25e565b81810360208301526200b04881896200a566565b905081810360408301526200b05e81886200a566565b905081810360608301526200b07481876200a566565b90506200b08560808301866200aabf565b6200b09460a08301856200a25e565b6200b0a360c08301846200a514565b98975050505050505050565b60006040820190506200b0c660008301856200a25e565b6200b0d560208301846200aabf565b9392505050565b60006060820190506200b0f360008301866200a25e565b6200b10260208301856200aabf565b81810360408301526200b11681846200a3db565b9050949350505050565b600060208201905081810360008301526200b13c81846200a26f565b905092915050565b600060208201905081810360008301526200b16081846200a2d9565b905092915050565b600060208201905081810360008301526200b18481846200a35a565b905092915050565b600060c08201905081810360008301526200b1a881896200a566565b905081810360208301526200b1be81886200a566565b905081810360408301526200b1d481876200a566565b90506200b1e560608301866200aabf565b6200b1f460808301856200a25e565b6200b20360a08301846200a25e565b979650505050505050565b600060208201905081810360008301526200b229816200a5a7565b9050919050565b600060208201905081810360008301526200b24b816200a5ce565b9050919050565b600060208201905081810360008301526200b26d816200a5f5565b9050919050565b600060208201905081810360008301526200b28f816200a61c565b9050919050565b600060208201905081810360008301526200b2b1816200a643565b9050919050565b600060208201905081810360008301526200b2d3816200a66a565b9050919050565b600060208201905081810360008301526200b2f5816200a691565b9050919050565b600060208201905081810360008301526200b317816200a6b8565b9050919050565b600060208201905081810360008301526200b339816200a6df565b9050919050565b600060208201905081810360008301526200b35b816200a706565b9050919050565b600060208201905081810360008301526200b37d816200a72d565b9050919050565b600060208201905081810360008301526200b39f816200a754565b9050919050565b600060208201905081810360008301526200b3c1816200a77b565b9050919050565b600060208201905081810360008301526200b3e481846200a9f6565b905092915050565b60006020820190506200b40360008301846200aabf565b92915050565b60006200b4156200b428565b90506200b42382826200b727565b919050565b6000604051905090565b600067ffffffffffffffff8211156200b450576200b44f6200b867565b5b602082029050602081019050919050565b600067ffffffffffffffff8211156200b47f576200b47e6200b867565b5b6200b48a826200b8b9565b9050602081019050919050565b6000819050602082019050919050565b6000819050602082019050919050565b6000819050602082019050919050565b6000819050602082019050919050565b60008190508160005260206000209050919050565b600081519050919050565b600081519050919050565b600081519050919050565b600081519050919050565b600081519050919050565b6000602082019050919050565b6000602082019050919050565b6000602082019050919050565b6000602082019050919050565b600082825260208201905092915050565b600082825260208201905092915050565b600082825260208201905092915050565b600082825260208201905092915050565b600081905092915050565b600082825260208201905092915050565b600082825260208201905092915050565b60006200b5d5826200b67a565b91506200b5e2836200b67a565b9250827fffffffffffffffffffffffffffffffffffffffffffffffffffffffffffffffff038211156200b61a576200b6196200b7ab565b5b828201905092915050565b60006200b632826200b65a565b9050919050565b60008115159050919050565b60008190506200b655826200badf565b919050565b600073ffffffffffffffffffffffffffffffffffffffff82169050919050565b6000819050919050565b60006200b691826200b645565b9050919050565b60006200b6a5826200b67a565b9050919050565b82818337600083830152505050565b60005b838110156200b6db5780820151818401526020810190506200b6be565b838111156200b6eb576000848401525b50505050565b600060028204905060018216806200b70a57607f821691505b602082108114156200b721576200b7206200b809565b5b50919050565b6200b732826200b8b9565b810181811067ffffffffffffffff821117156200b754576200b7536200b867565b5b80604052505050565b60006200b76a826200b67a565b91507fffffffffffffffffffffffffffffffffffffffffffffffffffffffffffffffff8214156200b7a0576200b79f6200b7ab565b5b600182019050919050565b7f4e487b7100000000000000000000000000000000000000000000000000000000600052601160045260246000fd5b7f4e487b7100000000000000000000000000000000000000000000000000000000600052602160045260246000fd5b7f4e487b7100000000000000000000000000000000000000000000000000000000600052602260045260246000fd5b7f4e487b7100000000000000000000000000000000000000000000000000000000600052603260045260246000fd5b7f4e487b7100000000000000000000000000000000000000000000000000000000600052604160045260246000fd5b600080fd5b600080fd5b600080fd5b600080fd5b600080fd5b600080fd5b600080fd5b6000601f19601f8301169050919050565b7f4f50434300000000000000000000000000000000000000000000000000000000600082015250565b7f4f524d5343430000000000000000000000000000000000000000000000000000600082015250565b7f4f44434300000000000000000000000000000000000000000000000000000000600082015250565b7f5553525f4e545f41435449564500000000000000000000000000000000000000600082015250565b7f5553525f4e545f52454700000000000000000000000000000000000000000000600082015250565b7f4f41434300000000000000000000000000000000000000000000000000000000600082015250565b7f4f57434300000000000000000000000000000000000000000000000000000000600082015250565b7f4f5443432e000000000000000000000000000000000000000000000000000000600082015250565b7f5553525f45584953540000000000000000000000000000000000000000000000600082015250565b7f4d5f4d5553545f41545f41505244000000000000000000000000000000000000600082015250565b7f4f4943432e000000000000000000000000000000000000000000000000000000600082015250565b7f5553525f44454c45544544000000000000000000000000000000000000000000600082015250565b7f4f4d434300000000000000000000000000000000000000000000000000000000600082015250565b600a81106200baf3576200baf26200b7da565b5b50565b6200bb01816200b625565b81146200bb0d57600080fd5b50565b6200bb1b816200b639565b81146200bb2757600080fd5b50565b6200bb35816200b67a565b81146200bb4157600080fd5b5056fe60806040523480156200001157600080fd5b506040516200174b3803806200174b8339818101604052810190620000379190620001df565b826000806101000a81548173ffffffffffffffffffffffffffffffffffffffff021916908373ffffffffffffffffffffffffffffffffffffffff16021790555083600160006101000a81548173ffffffffffffffffffffffffffffffffffffffff021916908373ffffffffffffffffffffffffffffffffffffffff16021790555082600360006101000a81548173ffffffffffffffffffffffffffffffffffffffff021916908373ffffffffffffffffffffffffffffffffffffffff16021790555080600460006101000a81548173ffffffffffffffffffffffffffffffffffffffff021916908373ffffffffffffffffffffffffffffffffffffffff16021790555081600260006101000a81548173ffffffffffffffffffffffffffffffffffffffff021916908373ffffffffffffffffffffffffffffffffffffffff1602179055506000600481111562000192576200019162000285565b5b600460146101000a81548160ff02191690836004811115620001b957620001b862000285565b5b021790555050505050620002d3565b600081519050620001d981620002b9565b92915050565b60008060008060808587031215620001fc57620001fb620002b4565b5b60006200020c87828801620001c8565b94505060206200021f87828801620001c8565b93505060406200023287828801620001c8565b92505060606200024587828801620001c8565b91505092959194509250565b60006200025e8262000265565b9050919050565b600073ffffffffffffffffffffffffffffffffffffffff82169050919050565b7f4e487b7100000000000000000000000000000000000000000000000000000000600052602160045260246000fd5b600080fd5b620002c48162000251565b8114620002d057600080fd5b50565b61146880620002e36000396000f3fe608060405234801561001057600080fd5b50600436106100ec576000357c01000000000000000000000000000000000000000000000000000000009004806358c3bf79116100a957806376b0f79c1161008357806376b0f79c146101fd5780637fb8174a1461021b578063b946588c1461023f578063e3837b041461025b576100ec565b806358c3bf79146101a35780636035210a146101c1578063678dd118146101df576100ec565b80631805de3b146100f157806330fa86aa1461010f5780633834aae01461012d57806340019e5d1461014b57806340e900931461016957806343330ec214610187575b600080fd5b6100f9610279565b6040516101069190611140565b60405180910390f35b6101176102a2565b6040516101249190611088565b60405180910390f35b6101356102fa565b60405161014291906110aa565b60405180910390f35b61015361030d565b6040516101609190610fed565b60405180910390f35b610171610337565b60405161017e91906110aa565b60405180910390f35b6101a1600480360381019061019c9190610cff565b61034a565b005b6101ab6104bb565b6040516101b891906110aa565b60405180910390f35b6101c96104ce565b6040516101d691906110aa565b60405180910390f35b6101e761053c565b6040516101f491906110c5565b60405180910390f35b61020561054f565b60405161021291906110aa565b60405180910390f35b610223610562565b6040516102369796959493929190611008565b60405180910390f35b61025960048036038101906102549190610cff565b6107cb565b005b61026361090f565b6040516102709190610fed565b60405180910390f35b6000600460149054906101000a900460ff16600481111561029d5761029c6112e8565b5b905090565b606060058054806020026020016040519081016040528092919081815260200182805480156102f057602002820191906000526020600020905b8154815260200190600101908083116102dc575b5050505050905090565b600061030860046002610935565b905090565b6000600160009054906101000a900473ffffffffffffffffffffffffffffffffffffffff16905090565b600061034560036002610935565b905090565b6000600481111561035e5761035d6112e8565b5b60048111156103705761036f6112e8565b5b600460149054906101000a900460ff166004811115610392576103916112e8565b5b146103d2576040517f08c379a00000000000000000000000000000000000000000000000000000000081526004016103c990611100565b60405180910390fd5b600160048111156103e6576103e56112e8565b5b600460146101000a81548160ff0219169083600481111561040a576104096112e8565b5b02179055508073ffffffffffffffffffffffffffffffffffffffff1663a3791bb3600460009054906101000a900473ffffffffffffffffffffffffffffffffffffffff166040518263ffffffff167c01000000000000000000000000000000000000000000000000000000000281526004016104869190610fed565b600060405180830381600087803b1580156104a057600080fd5b505af11580156104b4573d6000803e3d6000fd5b5050505050565b60006104c960016000610935565b905090565b60008060048111156104e3576104e26112e8565b5b600460146101000a81548160ff02191690836004811115610507576105066112e8565b5b021790555060054390806001815401808255809150506001900390600052602060002001600090919091909150556001905090565b600460149054906101000a900460ff1681565b600061055d60026001610935565b905090565b60008061056d610a33565b610575610a78565b600080606030600160009054906101000a900473ffffffffffffffffffffffffffffffffffffffff16600160009054906101000a900473ffffffffffffffffffffffffffffffffffffffff1673ffffffffffffffffffffffffffffffffffffffff1663e002c8a56040518163ffffffff167c010000000000000000000000000000000000000000000000000000000002815260040160006040518083038186803b15801561062257600080fd5b505afa158015610636573d6000803e3d6000fd5b505050506040513d6000823e3d601f19601f8201168201806040525081019061065f9190610d59565b600160009054906101000a900473ffffffffffffffffffffffffffffffffffffffff1673ffffffffffffffffffffffffffffffffffffffff1663732642106040518163ffffffff167c010000000000000000000000000000000000000000000000000000000002815260040160806040518083038186803b1580156106e357600080fd5b505afa1580156106f7573d6000803e3d6000fd5b505050506040513d601f19601f8201168201806040525081019061071b9190610d2c565b600460009054906101000a900473ffffffffffffffffffffffffffffffffffffffff16600460149054906101000a900460ff1660048111156107605761075f6112e8565b5b6005808054806020026020016040519081016040528092919081815260200182805480156107ad57602002820191906000526020600020905b815481526020019060010190808311610799575b50505050509050965096509650965096509650965090919293949596565b600160048111156107df576107de6112e8565b5b60048111156107f1576107f06112e8565b5b600460149054906101000a900460ff166004811115610813576108126112e8565b5b14610853576040517f08c379a000000000000000000000000000000000000000000000000000000000815260040161084a906110e0565b60405180910390fd5b60026004811115610867576108666112e8565b5b600460146101000a81548160ff0219169083600481111561088b5761088a6112e8565b5b02179055508073ffffffffffffffffffffffffffffffffffffffff1663df1f41c86040518163ffffffff167c0100000000000000000000000000000000000000000000000000000000028152600401600060405180830381600087803b1580156108f457600080fd5b505af1158015610908573d6000803e3d6000fd5b5050505050565b600160009054906101000a900473ffffffffffffffffffffffffffffffffffffffff1681565b600081600481111561094a576109496112e8565b5b600481111561095c5761095b6112e8565b5b600460149054906101000a900460ff16600481111561097e5761097d6112e8565b5b14156109f25760054390806001815401808255809150506001900390600052602060002001600090919091909150558260048111156109c0576109bf6112e8565b5b600460146101000a81548160ff021916908360048111156109e4576109e36112e8565b5b021790555060019050610a2d565b6040517f08c379a0000000000000000000000000000000000000000000000000000000008152600401610a2490611120565b60405180910390fd5b92915050565b6040518060a00160405280600073ffffffffffffffffffffffffffffffffffffffff168152602001606081526020016060815260200160608152602001600081525090565b6040518060800160405280600073ffffffffffffffffffffffffffffffffffffffff168152602001600073ffffffffffffffffffffffffffffffffffffffff168152602001600073ffffffffffffffffffffffffffffffffffffffff168152602001600073ffffffffffffffffffffffffffffffffffffffff1681525090565b6000610b0b610b0684611180565b61115b565b905082815260208101848484011115610b2757610b26611355565b5b610b32848285611284565b509392505050565b600081359050610b4981611404565b92915050565b600081519050610b5e81611404565b92915050565b600082601f830112610b7957610b78611346565b5b8151610b89848260208601610af8565b91505092915050565b600060808284031215610ba857610ba761134b565b5b610bb2608061115b565b90506000610bc284828501610b4f565b6000830152506020610bd684828501610b4f565b6020830152506040610bea84828501610b4f565b6040830152506060610bfe84828501610b4f565b60608301525092915050565b600060a08284031215610c2057610c1f61134b565b5b610c2a60a061115b565b90506000610c3a84828501610b4f565b600083015250602082015167ffffffffffffffff811115610c5e57610c5d611350565b5b610c6a84828501610b64565b602083015250604082015167ffffffffffffffff811115610c8e57610c8d611350565b5b610c9a84828501610b64565b604083015250606082015167ffffffffffffffff811115610cbe57610cbd611350565b5b610cca84828501610b64565b6060830152506080610cde84828501610cea565b60808301525092915050565b600081519050610cf98161141b565b92915050565b600060208284031215610d1557610d1461135f565b5b6000610d2384828501610b3a565b91505092915050565b600060808284031215610d4257610d4161135f565b5b6000610d5084828501610b92565b91505092915050565b600060208284031215610d6f57610d6e61135f565b5b600082015167ffffffffffffffff811115610d8d57610d8c61135a565b5b610d9984828501610c0a565b91505092915050565b6000610dae8383610fcf565b60208301905092915050565b610dc381611217565b82525050565b610dd281611217565b82525050565b6000610de3826111c1565b610ded81856111e4565b9350610df8836111b1565b8060005b83811015610e29578151610e108882610da2565b9750610e1b836111d7565b925050600181019050610dfc565b5085935050505092915050565b610e3f81611229565b82525050565b610e4e81611272565b82525050565b6000610e5f826111cc565b610e6981856111f5565b9350610e79818560208601611284565b610e8281611364565b840191505092915050565b6000610e9a600b83611206565b9150610ea582611375565b602082019050919050565b6000610ebd600a83611206565b9150610ec88261139e565b602082019050919050565b6000610ee0600a83611206565b9150610eeb826113c7565b602082019050919050565b608082016000820151610f0c6000850182610dba565b506020820151610f1f6020850182610dba565b506040820151610f326040850182610dba565b506060820151610f456060850182610dba565b50505050565b600060a083016000830151610f636000860182610dba565b5060208301518482036020860152610f7b8282610e54565b91505060408301518482036040860152610f958282610e54565b91505060608301518482036060860152610faf8282610e54565b9150506080830151610fc46080860182610fcf565b508091505092915050565b610fd881611268565b82525050565b610fe781611268565b82525050565b60006020820190506110026000830184610dc9565b92915050565b60006101408201905061101e600083018a610dc9565b61102b6020830189610dc9565b818103604083015261103d8188610f4b565b905061104c6060830187610ef6565b61105960e0830186610dc9565b611067610100830185610fde565b81810361012083015261107a8184610dd8565b905098975050505050505050565b600060208201905081810360008301526110a28184610dd8565b905092915050565b60006020820190506110bf6000830184610e36565b92915050565b60006020820190506110da6000830184610e45565b92915050565b600060208201905081810360008301526110f981610e8d565b9050919050565b6000602082019050818103600083015261111981610eb0565b9050919050565b6000602082019050818103600083015261113981610ed3565b9050919050565b60006020820190506111556000830184610fde565b92915050565b6000611165611176565b905061117182826112b7565b919050565b6000604051905090565b600067ffffffffffffffff82111561119b5761119a611317565b5b6111a482611364565b9050602081019050919050565b6000819050602082019050919050565b600081519050919050565b600081519050919050565b6000602082019050919050565b600082825260208201905092915050565b600082825260208201905092915050565b600082825260208201905092915050565b600061122282611248565b9050919050565b60008115159050919050565b6000819050611243826113f0565b919050565b600073ffffffffffffffffffffffffffffffffffffffff82169050919050565b6000819050919050565b600061127d82611235565b9050919050565b60005b838110156112a2578082015181840152602081019050611287565b838111156112b1576000848401525b50505050565b6112c082611364565b810181811067ffffffffffffffff821117156112df576112de611317565b5b80604052505050565b7f4e487b7100000000000000000000000000000000000000000000000000000000600052602160045260246000fd5b7f4e487b7100000000000000000000000000000000000000000000000000000000600052604160045260246000fd5b600080fd5b600080fd5b600080fd5b600080fd5b600080fd5b600080fd5b6000601f19601f8301169050919050565b7f4d5f4d53545f41545f502e000000000000000000000000000000000000000000600082015250565b7f4d5f4d53545f41545f4400000000000000000000000000000000000000000000600082015250565b7f494e5f50524f4345535300000000000000000000000000000000000000000000600082015250565b60058110611401576114006112e8565b5b50565b61140d81611217565b811461141857600080fd5b50565b61142481611268565b811461142f57600080fd5b5056fea26469706673582212204ae16995d8ea15bfae016564392451917cf37be6a2c693b22d30da90632cc7b364736f6c6343000807003360806040523480156200001157600080fd5b506040516200178e3803806200178e833981810160405281019062000037919062000425565b876000806101000a81548173ffffffffffffffffffffffffffffffffffffffff021916908373ffffffffffffffffffffffffffffffffffffffff16021790555030600160006101000a81548173ffffffffffffffffffffffffffffffffffffffff021916908373ffffffffffffffffffffffffffffffffffffffff1602179055508660029080519060200190620000d0929190620002c9565b508560039080519060200190620000e9929190620002c9565b50846004908051906020019062000102929190620002c9565b508360058190555082600660006101000a81548173ffffffffffffffffffffffffffffffffffffffff021916908373ffffffffffffffffffffffffffffffffffffffff16021790555081600760006101000a81548173ffffffffffffffffffffffffffffffffffffffff021916908373ffffffffffffffffffffffffffffffffffffffff16021790555087600860006101000a81548173ffffffffffffffffffffffffffffffffffffffff021916908373ffffffffffffffffffffffffffffffffffffffff16021790555082600660006101000a81548173ffffffffffffffffffffffffffffffffffffffff021916908373ffffffffffffffffffffffffffffffffffffffff160217905550600060078111156200022557620002246200068a565b5b600860146101000a81548160ff021916908360078111156200024c576200024b6200068a565b5b0217905550600943908060018154018082558091505060019003906000526020600020016000909190919091505580600a60006101000a81548173ffffffffffffffffffffffffffffffffffffffff021916908373ffffffffffffffffffffffffffffffffffffffff160217905550505050505050505062000770565b828054620002d7906200061e565b90600052602060002090601f016020900481019282620002fb576000855562000347565b82601f106200031657805160ff191683800117855562000347565b8280016001018555821562000347579182015b828111156200034657825182559160200191906001019062000329565b5b5090506200035691906200035a565b5090565b5b80821115620003755760008160009055506001016200035b565b5090565b6000620003906200038a8462000574565b6200054b565b905082815260208101848484011115620003af57620003ae6200071c565b5b620003bc848285620005e8565b509392505050565b600081519050620003d5816200073c565b92915050565b600082601f830112620003f357620003f262000717565b5b81516200040584826020860162000379565b91505092915050565b6000815190506200041f8162000756565b92915050565b600080600080600080600080610100898b03121562000449576200044862000726565b5b6000620004598b828c01620003c4565b985050602089015167ffffffffffffffff8111156200047d576200047c62000721565b5b6200048b8b828c01620003db565b975050604089015167ffffffffffffffff811115620004af57620004ae62000721565b5b620004bd8b828c01620003db565b965050606089015167ffffffffffffffff811115620004e157620004e062000721565b5b620004ef8b828c01620003db565b9550506080620005028b828c016200040e565b94505060a0620005158b828c01620003c4565b93505060c0620005288b828c01620003c4565b92505060e06200053b8b828c01620003c4565b9150509295985092959890939650565b6000620005576200056a565b905062000565828262000654565b919050565b6000604051905090565b600067ffffffffffffffff821115620005925762000591620006e8565b5b6200059d826200072b565b9050602081019050919050565b6000620005b782620005be565b9050919050565b600073ffffffffffffffffffffffffffffffffffffffff82169050919050565b6000819050919050565b60005b8381101562000608578082015181840152602081019050620005eb565b8381111562000618576000848401525b50505050565b600060028204905060018216806200063757607f821691505b602082108114156200064e576200064d620006b9565b5b50919050565b6200065f826200072b565b810181811067ffffffffffffffff82111715620006815762000680620006e8565b5b80604052505050565b7f4e487b7100000000000000000000000000000000000000000000000000000000600052602160045260246000fd5b7f4e487b7100000000000000000000000000000000000000000000000000000000600052602260045260246000fd5b7f4e487b7100000000000000000000000000000000000000000000000000000000600052604160045260246000fd5b600080fd5b600080fd5b600080fd5b600080fd5b6000601f19601f8301169050919050565b6200074781620005aa565b81146200075357600080fd5b50565b6200076181620005de565b81146200076d57600080fd5b50565b61100e80620007806000396000f3fe608060405234801561001057600080fd5b50600436106100c6576000357c0100000000000000000000000000000000000000000000000000000000900480634d7064181161008e5780634d70641814610161578063922962991461017f578063b1767f871461019d578063cf1287e1146101c5578063ee8a544a146101e1578063f5b1edfd146101eb576100c6565b80630940f4e4146100cb57806309eb029c146100e95780632101f3a11461010757806321895c59146101255780634a4815bf14610143575b600080fd5b6100d3610209565b6040516100e09190610c98565b60405180910390f35b6100f161021c565b6040516100fe9190610c98565b60405180910390f35b61010f61022f565b60405161011c9190610c98565b60405180910390f35b61012d610242565b60405161013a9190610c98565b60405180910390f35b61014b610255565b6040516101589190610c98565b60405180910390f35b610169610268565b6040516101769190610c98565b60405180910390f35b61018761027b565b6040516101949190610cf3565b60405180910390f35b6101a56102a4565b6040516101bc9b9a99989796959493929190610bd1565b60405180910390f35b6101df60048036038101906101da91906109bf565b6105ab565b005b6101e9610681565b005b6101f3610771565b6040516102009190610c98565b60405180910390f35b600061021760056004610784565b905090565b600061022a60016000610784565b905090565b600061023d60036001610784565b905090565b600061025060046003610784565b905090565b600061026360076005610784565b905090565b600061027660026001610784565b905090565b6000600860149054906101000a900460ff16600781111561029f5761029e610ea6565b5b905090565b600080606080606060008060008060606000600160009054906101000a900473ffffffffffffffffffffffffffffffffffffffff16600860009054906101000a900473ffffffffffffffffffffffffffffffffffffffff16600260036004600554600660009054906101000a900473ffffffffffffffffffffffffffffffffffffffff16600760009054906101000a900473ffffffffffffffffffffffffffffffffffffffff16600860149054906101000a900460ff16600781111561036d5761036c610ea6565b5b6009600a60009054906101000a900473ffffffffffffffffffffffffffffffffffffffff1688805461039e90610e43565b80601f01602080910402602001604051908101604052809291908181526020018280546103ca90610e43565b80156104175780601f106103ec57610100808354040283529160200191610417565b820191906000526020600020905b8154815290600101906020018083116103fa57829003601f168201915b5050505050985087805461042a90610e43565b80601f016020809104026020016040519081016040528092919081815260200182805461045690610e43565b80156104a35780601f10610478576101008083540402835291602001916104a3565b820191906000526020600020905b81548152906001019060200180831161048657829003601f168201915b505050505097508680546104b690610e43565b80601f01602080910402602001604051908101604052809291908181526020018280546104e290610e43565b801561052f5780601f106105045761010080835404028352916020019161052f565b820191906000526020600020905b81548152906001019060200180831161051257829003601f168201915b505050505096508180548060200260200160405190810160405280929190818152602001828054801561058157602002820191906000526020600020905b81548152602001906001019080831161056d575b505050505091509a509a509a509a509a509a509a509a509a509a509a50909192939495969798999a565b85600290805190602001906105c1929190610882565b5084600390805190602001906105d8929190610882565b5083600490805190602001906105ef929190610882565b508260058190555081600660006101000a81548173ffffffffffffffffffffffffffffffffffffffff021916908373ffffffffffffffffffffffffffffffffffffffff16021790555080600760006101000a81548173ffffffffffffffffffffffffffffffffffffffff021916908373ffffffffffffffffffffffffffffffffffffffff160217905550505050505050565b6001600781111561069557610694610ea6565b5b60078111156106a7576106a6610ea6565b5b600860149054906101000a900460ff1660078111156106c9576106c8610ea6565b5b14610709576040517f08c379a000000000000000000000000000000000000000000000000000000000815260040161070090610cb3565b60405180910390fd5b60094390806001815401808255809150506001900390600052602060002001600090919091909150556002600781111561074657610745610ea6565b5b600860146101000a81548160ff0219169083600781111561076a57610769610ea6565b5b0217905550565b600061077f60066005610784565b905090565b600081600781111561079957610798610ea6565b5b60078111156107ab576107aa610ea6565b5b600860149054906101000a900460ff1660078111156107cd576107cc610ea6565b5b141561084157600943908060018154018082558091505060019003906000526020600020016000909190919091505582600781111561080f5761080e610ea6565b5b600860146101000a81548160ff0219169083600781111561083357610832610ea6565b5b02179055506001905061087c565b6040517f08c379a000000000000000000000000000000000000000000000000000000000815260040161087390610cd3565b60405180910390fd5b92915050565b82805461088e90610e43565b90600052602060002090601f0160209004810192826108b057600085556108f7565b82601f106108c957805160ff19168380011785556108f7565b828001600101855582156108f7579182015b828111156108f65782518255916020019190600101906108db565b5b5090506109049190610908565b5090565b5b80821115610921576000816000905550600101610909565b5090565b600061093861093384610d33565b610d0e565b90508281526020810184848401111561095457610953610f38565b5b61095f848285610e01565b509392505050565b60008135905061097681610faa565b92915050565b600082601f83011261099157610990610f33565b5b81356109a1848260208601610925565b91505092915050565b6000813590506109b981610fc1565b92915050565b60008060008060008060c087890312156109dc576109db610f42565b5b600087013567ffffffffffffffff8111156109fa576109f9610f3d565b5b610a0689828a0161097c565b965050602087013567ffffffffffffffff811115610a2757610a26610f3d565b5b610a3389828a0161097c565b955050604087013567ffffffffffffffff811115610a5457610a53610f3d565b5b610a6089828a0161097c565b9450506060610a7189828a016109aa565b9350506080610a8289828a01610967565b92505060a0610a9389828a01610967565b9150509295509295509295565b6000610aac8383610bb3565b60208301905092915050565b610ac181610db9565b82525050565b6000610ad282610d74565b610adc8185610d97565b9350610ae783610d64565b8060005b83811015610b18578151610aff8882610aa0565b9750610b0a83610d8a565b925050600181019050610aeb565b5085935050505092915050565b610b2e81610dcb565b82525050565b6000610b3f82610d7f565b610b498185610da8565b9350610b59818560208601610e10565b610b6281610f47565b840191505092915050565b6000610b7a600c83610da8565b9150610b8582610f58565b602082019050919050565b6000610b9d600a83610da8565b9150610ba882610f81565b602082019050919050565b610bbc81610df7565b82525050565b610bcb81610df7565b82525050565b600061016082019050610be7600083018e610ab8565b610bf4602083018d610ab8565b8181036040830152610c06818c610b34565b90508181036060830152610c1a818b610b34565b90508181036080830152610c2e818a610b34565b9050610c3d60a0830189610bc2565b610c4a60c0830188610ab8565b610c5760e0830187610ab8565b610c65610100830186610bc2565b818103610120830152610c788185610ac7565b9050610c88610140830184610ab8565b9c9b505050505050505050505050565b6000602082019050610cad6000830184610b25565b92915050565b60006020820190508181036000830152610ccc81610b6d565b9050919050565b60006020820190508181036000830152610cec81610b90565b9050919050565b6000602082019050610d086000830184610bc2565b92915050565b6000610d18610d29565b9050610d248282610e75565b919050565b6000604051905090565b600067ffffffffffffffff821115610d4e57610d4d610f04565b5b610d5782610f47565b9050602081019050919050565b6000819050602082019050919050565b600081519050919050565b600081519050919050565b6000602082019050919050565b600082825260208201905092915050565b600082825260208201905092915050565b6000610dc482610dd7565b9050919050565b60008115159050919050565b600073ffffffffffffffffffffffffffffffffffffffff82169050919050565b6000819050919050565b82818337600083830152505050565b60005b83811015610e2e578082015181840152602081019050610e13565b83811115610e3d576000848401525b50505050565b60006002820490506001821680610e5b57607f821691505b60208210811415610e6f57610e6e610ed5565b5b50919050565b610e7e82610f47565b810181811067ffffffffffffffff82111715610e9d57610e9c610f04565b5b80604052505050565b7f4e487b7100000000000000000000000000000000000000000000000000000000600052602160045260246000fd5b7f4e487b7100000000000000000000000000000000000000000000000000000000600052602260045260246000fd5b7f4e487b7100000000000000000000000000000000000000000000000000000000600052604160045260246000fd5b600080fd5b600080fd5b600080fd5b600080fd5b6000601f19601f8301169050919050565b7f524d5f4d5553545f41545f4d0000000000000000000000000000000000000000600082015250565b7f494e5f50524f4345535300000000000000000000000000000000000000000000600082015250565b610fb381610db9565b8114610fbe57600080fd5b50565b610fca81610df7565b8114610fd557600080fd5b5056fea26469706673582212205cbfa30bad1fa3c859212d2d6d69f9763637386b5a9c2923a0617522a6bb653c64736f6c6343000807003360806040523480156200001157600080fd5b50604051620024ff380380620024ff833981810160405281019062000037919062000400565b87600160006101000a81548173ffffffffffffffffffffffffffffffffffffffff021916908373ffffffffffffffffffffffffffffffffffffffff16021790555030600760000160006101000a81548173ffffffffffffffffffffffffffffffffffffffff021916908373ffffffffffffffffffffffffffffffffffffffff1602179055508660076001019080519060200190620000d7929190620002a4565b508560076002019080519060200190620000f3929190620002a4565b5084600760030190805190602001906200010f929190620002a4565b508360076004018190555082600360000160006101000a81548173ffffffffffffffffffffffffffffffffffffffff021916908373ffffffffffffffffffffffffffffffffffffffff16021790555081600360010160006101000a81548173ffffffffffffffffffffffffffffffffffffffff021916908373ffffffffffffffffffffffffffffffffffffffff16021790555088600360020160006101000a81548173ffffffffffffffffffffffffffffffffffffffff021916908373ffffffffffffffffffffffffffffffffffffffff160217905550806003800160006101000a81548173ffffffffffffffffffffffffffffffffffffffff021916908373ffffffffffffffffffffffffffffffffffffffff1602179055506000600781111562000240576200023f6200067b565b5b600160146101000a81548160ff021916908360078111156200026757620002666200067b565b5b0217905550600243908060018154018082558091505060019003906000526020600020016000909190919091505550505050505050505062000761565b828054620002b2906200060f565b90600052602060002090601f016020900481019282620002d6576000855562000322565b82601f10620002f157805160ff191683800117855562000322565b8280016001018555821562000322579182015b828111156200032157825182559160200191906001019062000304565b5b50905062000331919062000335565b5090565b5b808211156200035057600081600090555060010162000336565b5090565b60006200036b620003658462000565565b6200053c565b9050828152602081018484840111156200038a57620003896200070d565b5b62000397848285620005d9565b509392505050565b600081519050620003b0816200072d565b92915050565b600082601f830112620003ce57620003cd62000708565b5b8151620003e084826020860162000354565b91505092915050565b600081519050620003fa8162000747565b92915050565b60008060008060008060008060006101208a8c03121562000426576200042562000717565b5b6000620004368c828d016200039f565b9950506020620004498c828d016200039f565b98505060408a015167ffffffffffffffff8111156200046d576200046c62000712565b5b6200047b8c828d01620003b6565b97505060608a015167ffffffffffffffff8111156200049f576200049e62000712565b5b620004ad8c828d01620003b6565b96505060808a015167ffffffffffffffff811115620004d157620004d062000712565b5b620004df8c828d01620003b6565b95505060a0620004f28c828d01620003e9565b94505060c0620005058c828d016200039f565b93505060e0620005188c828d016200039f565b9250506101006200052c8c828d016200039f565b9150509295985092959850929598565b6000620005486200055b565b905062000556828262000645565b919050565b6000604051905090565b600067ffffffffffffffff821115620005835762000582620006d9565b5b6200058e826200071c565b9050602081019050919050565b6000620005a882620005af565b9050919050565b600073ffffffffffffffffffffffffffffffffffffffff82169050919050565b6000819050919050565b60005b83811015620005f9578082015181840152602081019050620005dc565b8381111562000609576000848401525b50505050565b600060028204905060018216806200062857607f821691505b602082108114156200063f576200063e620006aa565b5b50919050565b62000650826200071c565b810181811067ffffffffffffffff82111715620006725762000671620006d9565b5b80604052505050565b7f4e487b7100000000000000000000000000000000000000000000000000000000600052602160045260246000fd5b7f4e487b7100000000000000000000000000000000000000000000000000000000600052602260045260246000fd5b7f4e487b7100000000000000000000000000000000000000000000000000000000600052604160045260246000fd5b600080fd5b600080fd5b600080fd5b600080fd5b6000601f19601f8301169050919050565b62000738816200059b565b81146200074457600080fd5b50565b6200075281620005cf565b81146200075e57600080fd5b50565b611d8e80620007716000396000f3fe608060405234801561001057600080fd5b506004361061013e576000357c0100000000000000000000000000000000000000000000000000000000900480636e3726df116100ca578063a5a226461161008e578063a5a22646146102eb578063a761dc4f14610309578063cd8a5b2e14610313578063df1f41c814610331578063e002c8a51461033b5761013e565b80636e3726df14610245578063732642101461026357806373b037db146102815780638915a8fa1461029f578063a3791bb3146102cf5761013e565b80634f2d8239116101115780634f2d8239146101bb57806353534f38146101d957806355309891146101f7578063644754d51461021d578063678dd118146102275761013e565b806312966fe61461014357806323c0d03b146101615780632ea1bb6a1461017f57806340019e5d1461019d575b600080fd5b61014b610359565b60405161015891906118e4565b60405180910390f35b61016961036c565b60405161017691906118e4565b60405180910390f35b61018761037f565b60405161019491906118e4565b60405180910390f35b6101a5610392565b6040516101b291906117fb565b60405180910390f35b6101c36103bf565b6040516101d091906118e4565b60405180910390f35b6101e16103d2565b6040516101ee91906118e4565b60405180910390f35b6101ff6103e5565b60405161021499989796959493929190611816565b60405180910390f35b6102256107f8565b005b61022f6108e8565b60405161023c91906118ff565b60405180910390f35b61024d6108fb565b60405161025a91906118e4565b60405180910390f35b61026b61090e565b604051610278919061199a565b60405180910390f35b610289610a80565b60405161029691906119d7565b60405180910390f35b6102b960048036038101906102b49190611473565b610aa9565b6040516102c691906118e4565b60405180910390f35b6102e960048036038101906102e49190611446565b610b99565b005b6102f3610ccb565b60405161030091906118e4565b60405180910390f35b610311610cde565b005b61031b610dce565b60405161032891906118c2565b60405180910390f35b610339610e26565b005b610343610f16565b60405161035091906119b5565b60405180910390f35b600061036760036001611146565b905090565b600061037a60076005611146565b905090565b600061038d60056004611146565b905090565b6000600760000160009054906101000a900473ffffffffffffffffffffffffffffffffffffffff16905090565b60006103cd60066005611146565b905090565b60006103e060016000611146565b905090565b600060608060606103f4611244565b60008060006060600760000160009054906101000a900473ffffffffffffffffffffffffffffffffffffffff166007600101600760020160076003016003600160009054906101000a900473ffffffffffffffffffffffffffffffffffffffff16600760040154600160149054906101000a900460ff16600781111561047d5761047c611bc0565b5b600287805461048b90611b5d565b80601f01602080910402602001604051908101604052809291908181526020018280546104b790611b5d565b80156105045780601f106104d957610100808354040283529160200191610504565b820191906000526020600020905b8154815290600101906020018083116104e757829003601f168201915b5050505050975086805461051790611b5d565b80601f016020809104026020016040519081016040528092919081815260200182805461054390611b5d565b80156105905780601f1061056557610100808354040283529160200191610590565b820191906000526020600020905b81548152906001019060200180831161057357829003601f168201915b505050505096508580546105a390611b5d565b80601f01602080910402602001604051908101604052809291908181526020018280546105cf90611b5d565b801561061c5780601f106105f15761010080835404028352916020019161061c565b820191906000526020600020905b8154815290600101906020018083116105ff57829003601f168201915b50505050509550846040518060800160405290816000820160009054906101000a900473ffffffffffffffffffffffffffffffffffffffff1673ffffffffffffffffffffffffffffffffffffffff1673ffffffffffffffffffffffffffffffffffffffff1681526020016001820160009054906101000a900473ffffffffffffffffffffffffffffffffffffffff1673ffffffffffffffffffffffffffffffffffffffff1673ffffffffffffffffffffffffffffffffffffffff1681526020016002820160009054906101000a900473ffffffffffffffffffffffffffffffffffffffff1673ffffffffffffffffffffffffffffffffffffffff1673ffffffffffffffffffffffffffffffffffffffff1681526020016003820160009054906101000a900473ffffffffffffffffffffffffffffffffffffffff1673ffffffffffffffffffffffffffffffffffffffff1673ffffffffffffffffffffffffffffffffffffffff16815250509450808054806020026020016040519081016040528092919081815260200182805480156107d457602002820191906000526020600020905b8154815260200190600101908083116107c0575b50505050509050985098509850985098509850985098509850909192939495969798565b6000600781111561080c5761080b611bc0565b5b600781111561081e5761081d611bc0565b5b600160149054906101000a900460ff1660078111156108405761083f611bc0565b5b14610880576040517f08c379a00000000000000000000000000000000000000000000000000000000081526004016108779061191a565b60405180910390fd5b6002439080600181540180825580915050600190039060005260206000200160009091909190915055600160078111156108bd576108bc611bc0565b5b600160146101000a81548160ff021916908360078111156108e1576108e0611bc0565b5b0217905550565b600160149054906101000a900460ff1681565b600061090960046003611146565b905090565b610916611244565b60036040518060800160405290816000820160009054906101000a900473ffffffffffffffffffffffffffffffffffffffff1673ffffffffffffffffffffffffffffffffffffffff1673ffffffffffffffffffffffffffffffffffffffff1681526020016001820160009054906101000a900473ffffffffffffffffffffffffffffffffffffffff1673ffffffffffffffffffffffffffffffffffffffff1673ffffffffffffffffffffffffffffffffffffffff1681526020016002820160009054906101000a900473ffffffffffffffffffffffffffffffffffffffff1673ffffffffffffffffffffffffffffffffffffffff1673ffffffffffffffffffffffffffffffffffffffff1681526020016003820160009054906101000a900473ffffffffffffffffffffffffffffffffffffffff1673ffffffffffffffffffffffffffffffffffffffff1673ffffffffffffffffffffffffffffffffffffffff1681525050905090565b6000600160149054906101000a900460ff166007811115610aa457610aa3611bc0565b5b905090565b60008660076001019080519060200190610ac49291906112c4565b508560076002019080519060200190610ade9291906112c4565b508460076003019080519060200190610af89291906112c4565b508360076004018190555082600360000160006101000a81548173ffffffffffffffffffffffffffffffffffffffff021916908373ffffffffffffffffffffffffffffffffffffffff16021790555081600360010160006101000a81548173ffffffffffffffffffffffffffffffffffffffff021916908373ffffffffffffffffffffffffffffffffffffffff160217905550600190509695505050505050565b60026007811115610bad57610bac611bc0565b5b6007811115610bbf57610bbe611bc0565b5b600160149054906101000a900460ff166007811115610be157610be0611bc0565b5b14610c21576040517f08c379a0000000000000000000000000000000000000000000000000000000008152600401610c189061193a565b60405180910390fd5b600243908060018154018082558091505060019003906000526020600020016000909190919091505560036007811115610c5e57610c5d611bc0565b5b600160146101000a81548160ff02191690836007811115610c8257610c81611bc0565b5b021790555080600c60006101000a81548173ffffffffffffffffffffffffffffffffffffffff021916908373ffffffffffffffffffffffffffffffffffffffff16021790555050565b6000610cd960026001611146565b905090565b60016007811115610cf257610cf1611bc0565b5b6007811115610d0457610d03611bc0565b5b600160149054906101000a900460ff166007811115610d2657610d25611bc0565b5b14610d66576040517f08c379a0000000000000000000000000000000000000000000000000000000008152600401610d5d9061193a565b60405180910390fd5b600243908060018154018082558091505060019003906000526020600020016000909190919091505560026007811115610da357610da2611bc0565b5b600160146101000a81548160ff02191690836007811115610dc757610dc6611bc0565b5b0217905550565b60606002805480602002602001604051908101604052809291908181526020018280548015610e1c57602002820191906000526020600020905b815481526020019060010190808311610e08575b5050505050905090565b60036007811115610e3a57610e39611bc0565b5b6007811115610e4c57610e4b611bc0565b5b600160149054906101000a900460ff166007811115610e6e57610e6d611bc0565b5b14610eae576040517f08c379a0000000000000000000000000000000000000000000000000000000008152600401610ea59061195a565b60405180910390fd5b600243908060018154018082558091505060019003906000526020600020016000909190919091505560046007811115610eeb57610eea611bc0565b5b600160146101000a81548160ff02191690836007811115610f0f57610f0e611bc0565b5b0217905550565b610f1e61134a565b60076040518060a00160405290816000820160009054906101000a900473ffffffffffffffffffffffffffffffffffffffff1673ffffffffffffffffffffffffffffffffffffffff1673ffffffffffffffffffffffffffffffffffffffff168152602001600182018054610f9190611b5d565b80601f0160208091040260200160405190810160405280929190818152602001828054610fbd90611b5d565b801561100a5780601f10610fdf5761010080835404028352916020019161100a565b820191906000526020600020905b815481529060010190602001808311610fed57829003601f168201915b5050505050815260200160028201805461102390611b5d565b80601f016020809104026020016040519081016040528092919081815260200182805461104f90611b5d565b801561109c5780601f106110715761010080835404028352916020019161109c565b820191906000526020600020905b81548152906001019060200180831161107f57829003601f168201915b505050505081526020016003820180546110b590611b5d565b80601f01602080910402602001604051908101604052809291908181526020018280546110e190611b5d565b801561112e5780601f106111035761010080835404028352916020019161112e565b820191906000526020600020905b81548152906001019060200180831161111157829003601f168201915b50505050508152602001600482015481525050905090565b600081600781111561115b5761115a611bc0565b5b600781111561116d5761116c611bc0565b5b600160149054906101000a900460ff16600781111561118f5761118e611bc0565b5b14156112035760024390806001815401808255809150506001900390600052602060002001600090919091909150558260078111156111d1576111d0611bc0565b5b600160146101000a81548160ff021916908360078111156111f5576111f4611bc0565b5b02179055506001905061123e565b6040517f08c379a00000000000000000000000000000000000000000000000000000000081526004016112359061197a565b60405180910390fd5b92915050565b6040518060800160405280600073ffffffffffffffffffffffffffffffffffffffff168152602001600073ffffffffffffffffffffffffffffffffffffffff168152602001600073ffffffffffffffffffffffffffffffffffffffff168152602001600073ffffffffffffffffffffffffffffffffffffffff1681525090565b8280546112d090611b5d565b90600052602060002090601f0160209004810192826112f25760008555611339565b82601f1061130b57805160ff1916838001178555611339565b82800160010185558215611339579182015b8281111561133857825182559160200191906001019061131d565b5b509050611346919061138f565b5090565b6040518060a00160405280600073ffffffffffffffffffffffffffffffffffffffff168152602001606081526020016060815260200160608152602001600081525090565b5b808211156113a8576000816000905550600101611390565b5090565b60006113bf6113ba84611a17565b6119f2565b9050828152602081018484840111156113db576113da611c52565b5b6113e6848285611b1b565b509392505050565b6000813590506113fd81611d2a565b92915050565b600082601f83011261141857611417611c4d565b5b81356114288482602086016113ac565b91505092915050565b60008135905061144081611d41565b92915050565b60006020828403121561145c5761145b611c5c565b5b600061146a848285016113ee565b91505092915050565b60008060008060008060c087890312156114905761148f611c5c565b5b600087013567ffffffffffffffff8111156114ae576114ad611c57565b5b6114ba89828a01611403565b965050602087013567ffffffffffffffff8111156114db576114da611c57565b5b6114e789828a01611403565b955050604087013567ffffffffffffffff81111561150857611507611c57565b5b61151489828a01611403565b945050606061152589828a01611431565b935050608061153689828a016113ee565b92505060a061154789828a016113ee565b9150509295509295509295565b600061156083836117dd565b60208301905092915050565b61157581611aae565b82525050565b61158481611aae565b82525050565b600061159582611a58565b61159f8185611a7b565b93506115aa83611a48565b8060005b838110156115db5781516115c28882611554565b97506115cd83611a6e565b9250506001810190506115ae565b5085935050505092915050565b6115f181611ac0565b82525050565b61160081611b09565b82525050565b600061161182611a63565b61161b8185611a8c565b935061162b818560208601611b2a565b61163481611c61565b840191505092915050565b600061164a82611a63565b6116548185611a9d565b9350611664818560208601611b2a565b61166d81611c61565b840191505092915050565b6000611685600b83611a9d565b915061169082611c72565b602082019050919050565b60006116a8600b83611a9d565b91506116b382611c9b565b602082019050919050565b60006116cb600b83611a9d565b91506116d682611cc4565b602082019050919050565b60006116ee600a83611a9d565b91506116f982611ced565b602082019050919050565b60808201600082015161171a600085018261156c565b50602082015161172d602085018261156c565b506040820151611740604085018261156c565b506060820151611753606085018261156c565b50505050565b600060a083016000830151611771600086018261156c565b50602083015184820360208601526117898282611606565b915050604083015184820360408601526117a38282611606565b915050606083015184820360608601526117bd8282611606565b91505060808301516117d260808601826117dd565b508091505092915050565b6117e681611aff565b82525050565b6117f581611aff565b82525050565b6000602082019050611810600083018461157b565b92915050565b60006101808201905061182c600083018c61157b565b818103602083015261183e818b61163f565b90508181036040830152611852818a61163f565b90508181036060830152611866818961163f565b90506118756080830188611704565b61188361010083018761157b565b6118916101208301866117ec565b61189f6101408301856117ec565b8181036101608301526118b2818461158a565b90509a9950505050505050505050565b600060208201905081810360008301526118dc818461158a565b905092915050565b60006020820190506118f960008301846115e8565b92915050565b600060208201905061191460008301846115f7565b92915050565b6000602082019050818103600083015261193381611678565b9050919050565b600060208201905081810360008301526119538161169b565b9050919050565b60006020820190508181036000830152611973816116be565b9050919050565b60006020820190508181036000830152611993816116e1565b9050919050565b60006080820190506119af6000830184611704565b92915050565b600060208201905081810360008301526119cf8184611759565b905092915050565b60006020820190506119ec60008301846117ec565b92915050565b60006119fc611a0d565b9050611a088282611b8f565b919050565b6000604051905090565b600067ffffffffffffffff821115611a3257611a31611c1e565b5b611a3b82611c61565b9050602081019050919050565b6000819050602082019050919050565b600081519050919050565b600081519050919050565b6000602082019050919050565b600082825260208201905092915050565b600082825260208201905092915050565b600082825260208201905092915050565b6000611ab982611adf565b9050919050565b60008115159050919050565b6000819050611ada82611d16565b919050565b600073ffffffffffffffffffffffffffffffffffffffff82169050919050565b6000819050919050565b6000611b1482611acc565b9050919050565b82818337600083830152505050565b60005b83811015611b48578082015181840152602081019050611b2d565b83811115611b57576000848401525b50505050565b60006002820490506001821680611b7557607f821691505b60208210811415611b8957611b88611bef565b5b50919050565b611b9882611c61565b810181811067ffffffffffffffff82111715611bb757611bb6611c1e565b5b80604052505050565b7f4e487b7100000000000000000000000000000000000000000000000000000000600052602160045260246000fd5b7f4e487b7100000000000000000000000000000000000000000000000000000000600052602260045260246000fd5b7f4e487b7100000000000000000000000000000000000000000000000000000000600052604160045260246000fd5b600080fd5b600080fd5b600080fd5b600080fd5b6000601f19601f8301169050919050565b7f4d5f4d5553545f41545f4d000000000000000000000000000000000000000000600082015250565b7f4d5f4d5553545f41545f44000000000000000000000000000000000000000000600082015250565b7f4d5f4d5553545f41545f50000000000000000000000000000000000000000000600082015250565b7f494e5f50524f4345535300000000000000000000000000000000000000000000600082015250565b60088110611d2757611d26611bc0565b5b50565b611d3381611aae565b8114611d3e57600080fd5b50565b611d4a81611aff565b8114611d5557600080fd5b5056fea2646970667358221220e07e7c633ba7cbe4612568f7c6f15ec37ce03c1ada16f9fc9fed4545bf00925764736f6c63430008070033a264697066735822122047922515d701fab7ba9d8d79074cde75ea90f660ce9e057e3eecb5aabc06151e64736f6c63430008070033",
  "immutableReferences": {},
  "source": "// SPDX-License-Identifier: MIT\npragma solidity >=0.4.22 <0.9.0;\npragma experimental ABIEncoderV2;\n\nimport \"./Supplier.sol\";\nimport \"./Manufacturer.sol\";\nimport \"./Distributor.sol\";\nimport \"./Pharma.sol\";\nimport \"./Inspector.sol\";\nimport \"./Transporter.sol\";\nimport \"./User.sol\";\nimport \"./RawMaterials.sol\";\nimport \"./Medicine.sol\";\nimport \"./MedicineDP.sol\";\n\ncontract SupplyChain is\n    Supplier,\n    Manufacturer,\n    Distributor,\n    Pharma,\n    Inspector,\n    Transporter\n{\n    constructor() {}\n\n    /*************** USER SECTION ***************************** */\n\n    // Validate user based on address & username\n    // @param _address User Address\n    // @param _userName User Name\n    function validateUser(address _address, string memory _userName)\n        public\n        view\n        returns (UserInfo memory)\n    {\n        require(UsersDetails[_address].userAddress == _address, \"USR_NT_REG\"); //User not registered\n        require(\n            keccak256(bytes(UsersDetails[_address].userName)) ==\n                keccak256(bytes(_userName)),\n            \"USR_NT_REG\"\n        ); //User not registered\n        require(\n            keccak256(bytes(UsersDetails[_address].userStatus)) ==\n                keccak256(bytes(\"Active\")),\n            \"USR_NT_ACTIVE\"\n        ); //User not active\n        return getUserInfo(_address);\n    }\n\n    // Retrieve User information based on address\n    // @param _address User Address\n    function getUserInfo(address _address)\n        public\n        view\n        returns (UserInfo memory)\n    {\n        return UsersDetails[_address];\n    }\n\n    //Function to retrieve all the registered users\n    //Visibility - Public\n    //Return type - list of user\n    function getAllRegisteredUsers() public view returns (UserInfo[] memory) {\n        return UserList;\n    }\n\n    /*************** USER SECTION ***************************** */\n\n    /*************** SUPPLIER SECTION ***************************** */\n\n    //Retrieve material/package status using packageID. Only supplier can call this.\n    //@param _packageID Address\n    function getSupplierRegisteredRawMaterialPackageStatus(address _packageID)\n        public\n        view\n        returns (uint256)\n    {\n        return RawMaterials(_packageID).getRawMaterialsStatus();\n    }\n\n    //Retrieve list of registered raw material addresses for supplier address. Only supplier can call this.\n    //@param _address Address\n    function getListOfRegisteredRawMateriaAddress(address _supplier)\n        public\n        view\n        returns (address[] memory)\n    {\n        return SupplierRegisteredRawMaterialList[_supplier];\n    }\n\n    //get list of material tagged to associated inspector\n    function getTaggedInspectorMaterialList(address _inspector)\n        public\n        view\n        returns (address[] memory)\n    {\n        return TaggedInspectorMaterialList[_inspector];\n    }\n\n    //get list of material tagged to associated shipper\n    function getTaggedTransporterMaterialList(address _transporter)\n        public\n        view\n        returns (address[] memory)\n    {\n        return TaggedTransporterMaterialList[_transporter];\n    }\n\n    //get list of material tagged to associated manufacturer\n    function getTaggedManufacturerMaterialList(address _manufacturer)\n        public\n        view\n        returns (address[] memory)\n    {\n        return ManufacturerTaggedMaterialList[_manufacturer];\n    }\n\n    //get list of medicine tagged to associated inspector\n    function getTaggedInspectorMedicineList(address _inspector)\n        public\n        view\n        returns (address[] memory)\n    {\n        return TaggedInspectorMedicineList[_inspector];\n    }\n\n    //get list of medicine tagged to associated shipper\n    function getTaggedTransporterMedicineList(address _transporter)\n        public\n        view\n        returns (address[] memory)\n    {\n        return TaggedTransporterMedicineList[_transporter];\n    }\n\n    //get list of medicine tagged to associated distributor\n    function getDistributorTaggedMedicineList(address _distributor)\n        public\n        view\n        returns (address[] memory)\n    {\n        return DistributorTaggedMedicineList[_distributor];\n    }\n\n    //get list of medicine sub batch tagged to associated transporter\n    function getTransporterTaggedMedicineSubBatchList(address _transporter)\n        public\n        view\n        returns (address[] memory)\n    {\n        return TaggedTransporterMedicineSubBatchList[_transporter];\n    }\n\n    //get list of medicine sub batch tagged to associated pharma\n    function getPharmaTaggedMedicineSubBatchList(address _pharma)\n        public\n        view\n        returns (address[] memory)\n    {\n        return PharmaTaggedMedicineSubBatchList[_pharma];\n    }\n\n    //Retrieve registered raw material details for material id. Only supplier can call this.\n    //@param _materialID Address\n    function getRegisteredRawMaterialDetails(address _materialId)\n        public\n        view\n        returns (\n            address materialId,\n            address supplier,\n            string memory description,\n            string memory producerName,\n            string memory location,\n            uint256 quantity,\n            address shipper,\n            address manufacturer,\n            uint256 packageStatus,\n            uint256[] memory transactionBlocks,\n            address inspector\n        )\n    {\n        return RawMaterials(_materialId).getSuppliedRawMaterialDetails();\n    }\n\n    //Get all the shipped raw material list for manufacturer\n    function getAllShippedRawMaterialList(address _manufacturer)\n        public\n        view\n        returns (address[] memory)\n    {\n        return MaterialShipmentList[_manufacturer];\n    }\n\n    /*************** SUPPLIER SECTION ***************************** */\n\n    /*************** MANUFACTURER SECTION ***************************** */\n\n    //Retrieve list of manufactured medicines addresses for manufacturer address. Only manufacturer can call this.\n    //@param _manufacturer Address\n    function getManufacturedMedicinesAddress(address _manufacturer)\n        public\n        view\n        returns (address[] memory)\n    {\n        return MedicinesManufactured[_manufacturer];\n    }\n\n    //Retrieve medicine details for medicine id. Only manufacturer can call this.\n    //@param _batchId Address\n    function getMedicineDetailsByBatchId(address _batchId)\n        public\n        view\n        returns (\n            address medicineId,\n            string memory medicineName,\n            string memory description,\n            string memory location,\n            Medicine.Entity memory medicineEntity,\n            address materialId,\n            uint256 quantity,\n            uint256 packageStatus,\n            uint256[] memory transactionBlocks\n        )\n    {\n        return Medicine(_batchId).getManufacteredMedicineDetails();\n    }\n\n    /*************** MANUFACTURER SECTION ***************************** */\n\n    /*************** DISTRIBUTOR SECTION ***************************** */\n\n    //Get list of medicine bacthes transferred to pharma by distributor\n    function getAllTransferredMedicineBatches(address _distributor)\n        public\n        view\n        returns (address[] memory)\n    {\n        return MedicineBatchesTransferred[_distributor];\n    }\n\n    //Get sub contract details generated while transferring medicine batch from dist tot pharma\n    function getMedicineBatchSubContractDetails(address _subContractId)\n        public\n        view\n        returns (\n            address medicineSubContract,\n            address medicineId,\n            Medicine.MedicineInfo memory medicineInfo,\n            Medicine.Entity memory medicineEntity,\n            address pharma,\n            uint256 packageStatus,\n            uint256[] memory transactionBlocksDP\n        )\n    {\n        return MedicineDP(_subContractId).getMedicineDPSubContractDetails();\n    }\n\n    /*************** DISTRIBUTOR SECTION ***************************** */\n\n    /*************** PHARMA SECTION ***************************** */\n\n    //Retrieve medicine sale status updated by pharma for supplied medicineID.\n    function getMedicineSaleStatusByID(address _medicineID)\n        public\n        view\n        returns (uint256)\n    {\n        return uint256(MedicineSaleStatusAtPharma[_medicineID]);\n    }\n\n    /*************** PHARMA SECTION ***************************** */\n\n    /*************** CUSTOMER SECTION ***************************** */\n\n    function getCustomerInfoByPharmaShop(address _pharma)\n        public\n        view\n        returns (CustomerInfo[] memory)\n    {\n        return CustomerPharmaShopMap[_pharma];\n    }\n\n    /*************** CUSTOMER SECTION ***************************** */\n}\n",
  "sourcePath": "C:/Development/Blockchain/Learning-2/contracts/SupplyChain.sol",
  "compiler": {
    "name": "solc",
    "version": "0.8.7+commit.e28d00a7.Emscripten.clang"
  },
  "schemaVersion": "3.4.1",
  "updatedAt": "2021-08-14T11:11:20.766Z",
  "networkType": "ethereum",
  "devdoc": {
    "kind": "dev",
    "methods": {},
    "version": 1
  },
  "userdoc": {
    "kind": "user",
    "methods": {},
    "version": 1
  }
}