{
  "contractName": "SupplyChain",
  "abi": [
    {
      "inputs": [],
      "stateMutability": "nonpayable",
      "type": "constructor"
    },
    {
      "anonymous": false,
      "inputs": [
        {
          "indexed": true,
          "internalType": "address",
          "name": "MedicineID",
          "type": "address"
        }
      ],
      "name": "MedicinePackageInitialize",
      "type": "event"
    },
    {
      "anonymous": false,
      "inputs": [
        {
          "indexed": false,
          "internalType": "address",
          "name": "MedicineID",
          "type": "address"
        },
        {
          "indexed": true,
          "internalType": "address",
          "name": "SubContractID",
          "type": "address"
        },
        {
          "indexed": false,
          "internalType": "uint256",
          "name": "MedicineStatus",
          "type": "uint256"
        }
      ],
      "name": "MedicineTransferredDPInitiated",
      "type": "event"
    },
    {
      "anonymous": false,
      "inputs": [
        {
          "indexed": true,
          "internalType": "address",
          "name": "MaterialID",
          "type": "address"
        },
        {
          "indexed": true,
          "internalType": "address",
          "name": "Supplier",
          "type": "address"
        },
        {
          "indexed": false,
          "internalType": "address",
          "name": "Manufacturer",
          "type": "address"
        },
        {
          "indexed": true,
          "internalType": "address",
          "name": "Transporter",
          "type": "address"
        }
      ],
      "name": "RawMaterialInitialize",
      "type": "event"
    },
    {
      "inputs": [
        {
          "internalType": "address",
          "name": "",
          "type": "address"
        },
        {
          "internalType": "uint256",
          "name": "",
          "type": "uint256"
        }
      ],
      "name": "MaterialShipmentList",
      "outputs": [
        {
          "internalType": "address",
          "name": "",
          "type": "address"
        }
      ],
      "stateMutability": "view",
      "type": "function",
      "constant": true
    },
    {
      "inputs": [
        {
          "internalType": "address",
          "name": "",
          "type": "address"
        },
        {
          "internalType": "uint256",
          "name": "",
          "type": "uint256"
        }
      ],
      "name": "SupplierRegisteredRawMaterialList",
      "outputs": [
        {
          "internalType": "address",
          "name": "",
          "type": "address"
        }
      ],
      "stateMutability": "view",
      "type": "function",
      "constant": true
    },
    {
      "inputs": [
        {
          "internalType": "uint256",
          "name": "",
          "type": "uint256"
        }
      ],
      "name": "TotalMedicineBatchesShipped",
      "outputs": [
        {
          "internalType": "address",
          "name": "",
          "type": "address"
        }
      ],
      "stateMutability": "view",
      "type": "function",
      "constant": true
    },
    {
      "inputs": [],
      "name": "TotalMedicineSubBatchesDelivered",
      "outputs": [
        {
          "internalType": "uint256",
          "name": "",
          "type": "uint256"
        }
      ],
      "stateMutability": "view",
      "type": "function",
      "constant": true
    },
    {
      "inputs": [
        {
          "internalType": "uint256",
          "name": "",
          "type": "uint256"
        }
      ],
      "name": "UserList",
      "outputs": [
        {
          "internalType": "address",
          "name": "userAddress",
          "type": "address"
        },
        {
          "internalType": "string",
          "name": "userName",
          "type": "string"
        },
        {
          "internalType": "string",
          "name": "userLocation",
          "type": "string"
        },
        {
          "internalType": "enum User.roles",
          "name": "userRole",
          "type": "uint8"
        },
        {
          "internalType": "string",
          "name": "userStatus",
          "type": "string"
        },
        {
          "internalType": "bool",
          "name": "isDeleted",
          "type": "bool"
        },
        {
          "internalType": "uint256",
          "name": "registrationDate",
          "type": "uint256"
        }
      ],
      "stateMutability": "view",
      "type": "function",
      "constant": true
    },
    {
      "inputs": [
        {
          "internalType": "address",
          "name": "_materialId",
          "type": "address"
        },
        {
          "internalType": "string",
          "name": "_medicineName",
          "type": "string"
        },
        {
          "internalType": "string",
          "name": "_location",
          "type": "string"
        },
        {
          "internalType": "string",
          "name": "_desc",
          "type": "string"
        },
        {
          "internalType": "uint256",
          "name": "_quantity",
          "type": "uint256"
        },
        {
          "internalType": "address",
          "name": "_transporter",
          "type": "address"
        },
        {
          "internalType": "address",
          "name": "_distributor",
          "type": "address"
        }
      ],
      "name": "createMedicinePackage",
      "outputs": [],
      "stateMutability": "nonpayable",
      "type": "function"
    },
    {
      "inputs": [
        {
          "internalType": "string",
          "name": "_desc",
          "type": "string"
        },
        {
          "internalType": "string",
          "name": "_producerName",
          "type": "string"
        },
        {
          "internalType": "string",
          "name": "_location",
          "type": "string"
        },
        {
          "internalType": "uint256",
          "name": "_quantity",
          "type": "uint256"
        },
        {
          "internalType": "address",
          "name": "_transporter",
          "type": "address"
        },
        {
          "internalType": "address",
          "name": "_manufacturer",
          "type": "address"
        }
      ],
      "name": "createRawMaterialPackage",
      "outputs": [],
      "stateMutability": "nonpayable",
      "type": "function"
    },
    {
      "inputs": [
        {
          "internalType": "address",
          "name": "_address",
          "type": "address"
        }
      ],
      "name": "deleteUser",
      "outputs": [],
      "stateMutability": "nonpayable",
      "type": "function"
    },
    {
      "inputs": [
        {
          "internalType": "address",
          "name": "_manufacturer",
          "type": "address"
        }
      ],
      "name": "getTotalMaterialPackagesShippedCount",
      "outputs": [
        {
          "internalType": "uint256",
          "name": "",
          "type": "uint256"
        }
      ],
      "stateMutability": "view",
      "type": "function",
      "constant": true
    },
    {
      "inputs": [
        {
          "internalType": "address",
          "name": "_distributor",
          "type": "address"
        }
      ],
      "name": "getTotalMedicineBatchesShippedCount",
      "outputs": [
        {
          "internalType": "uint256",
          "name": "",
          "type": "uint256"
        }
      ],
      "stateMutability": "view",
      "type": "function",
      "constant": true
    },
    {
      "inputs": [],
      "name": "getTotalMedicineSubBatchesDeliveredCount",
      "outputs": [
        {
          "internalType": "uint256",
          "name": "",
          "type": "uint256"
        }
      ],
      "stateMutability": "view",
      "type": "function",
      "constant": true
    },
    {
      "inputs": [
        {
          "internalType": "address",
          "name": "_medicineID",
          "type": "address"
        },
        {
          "internalType": "address",
          "name": "_distributor",
          "type": "address"
        }
      ],
      "name": "loadAndShipMedicineBatch",
      "outputs": [],
      "stateMutability": "nonpayable",
      "type": "function"
    },
    {
      "inputs": [
        {
          "internalType": "address",
          "name": "_materialID",
          "type": "address"
        },
        {
          "internalType": "address",
          "name": "_manufacturer",
          "type": "address"
        }
      ],
      "name": "loadAndShipRawMaterialBatch",
      "outputs": [],
      "stateMutability": "nonpayable",
      "type": "function"
    },
    {
      "inputs": [],
      "name": "owner",
      "outputs": [
        {
          "internalType": "address",
          "name": "",
          "type": "address"
        }
      ],
      "stateMutability": "view",
      "type": "function",
      "constant": true
    },
    {
      "inputs": [
        {
          "internalType": "string",
          "name": "_customerName",
          "type": "string"
        },
        {
          "internalType": "uint256",
          "name": "_customerAge",
          "type": "uint256"
        },
        {
          "internalType": "string",
          "name": "_doctorName",
          "type": "string"
        },
        {
          "internalType": "uint256",
          "name": "_quantity",
          "type": "uint256"
        },
        {
          "internalType": "uint256",
          "name": "_amountPaid",
          "type": "uint256"
        },
        {
          "internalType": "address",
          "name": "_medicineId",
          "type": "address"
        },
        {
          "internalType": "address",
          "name": "_pharma",
          "type": "address"
        },
        {
          "internalType": "address",
          "name": "_materialId",
          "type": "address"
        }
      ],
      "name": "pushCustomerDetails",
      "outputs": [],
      "stateMutability": "nonpayable",
      "type": "function"
    },
    {
      "inputs": [
        {
          "internalType": "address",
          "name": "_address",
          "type": "address"
        },
        {
          "internalType": "string",
          "name": "_name",
          "type": "string"
        },
        {
          "internalType": "string",
          "name": "_location",
          "type": "string"
        },
        {
          "internalType": "uint256",
          "name": "_role",
          "type": "uint256"
        },
        {
          "internalType": "string",
          "name": "_userStatus",
          "type": "string"
        }
      ],
      "name": "registerAdmin",
      "outputs": [],
      "stateMutability": "nonpayable",
      "type": "function"
    },
    {
      "inputs": [
        {
          "internalType": "address",
          "name": "_address",
          "type": "address"
        },
        {
          "internalType": "string",
          "name": "_name",
          "type": "string"
        },
        {
          "internalType": "string",
          "name": "_location",
          "type": "string"
        },
        {
          "internalType": "uint256",
          "name": "_role",
          "type": "uint256"
        },
        {
          "internalType": "string",
          "name": "_userStatus",
          "type": "string"
        }
      ],
      "name": "registerUser",
      "outputs": [],
      "stateMutability": "nonpayable",
      "type": "function"
    },
    {
      "inputs": [
        {
          "internalType": "string",
          "name": "_customerName",
          "type": "string"
        },
        {
          "internalType": "uint256",
          "name": "_customerAge",
          "type": "uint256"
        },
        {
          "internalType": "string",
          "name": "_doctorName",
          "type": "string"
        },
        {
          "internalType": "uint256",
          "name": "_quantity",
          "type": "uint256"
        },
        {
          "internalType": "uint256",
          "name": "_amountPaid",
          "type": "uint256"
        },
        {
          "internalType": "address",
          "name": "_medicineId",
          "type": "address"
        },
        {
          "internalType": "address",
          "name": "_materialId",
          "type": "address"
        },
        {
          "internalType": "uint256",
          "name": "_medicineStatus",
          "type": "uint256"
        }
      ],
      "name": "submitCustomerAndMedicineSaleDetails",
      "outputs": [],
      "stateMutability": "nonpayable",
      "type": "function"
    },
    {
      "inputs": [
        {
          "internalType": "address",
          "name": "_medicineID",
          "type": "address"
        },
        {
          "internalType": "address",
          "name": "_pharma",
          "type": "address"
        },
        {
          "internalType": "address",
          "name": "_transporter",
          "type": "address"
        }
      ],
      "name": "transferMedicineFromDistributorToPharma",
      "outputs": [],
      "stateMutability": "nonpayable",
      "type": "function"
    },
    {
      "inputs": [
        {
          "internalType": "address",
          "name": "_medicineID",
          "type": "address"
        },
        {
          "internalType": "string",
          "name": "_medicineName",
          "type": "string"
        },
        {
          "internalType": "string",
          "name": "_location",
          "type": "string"
        },
        {
          "internalType": "string",
          "name": "_desc",
          "type": "string"
        },
        {
          "internalType": "uint256",
          "name": "_quantity",
          "type": "uint256"
        },
        {
          "internalType": "address",
          "name": "_transporter",
          "type": "address"
        },
        {
          "internalType": "address",
          "name": "_distributor",
          "type": "address"
        }
      ],
      "name": "updateMedicineBatch",
      "outputs": [],
      "stateMutability": "nonpayable",
      "type": "function"
    },
    {
      "inputs": [
        {
          "internalType": "address",
          "name": "_materialID",
          "type": "address"
        },
        {
          "internalType": "string",
          "name": "_desc",
          "type": "string"
        },
        {
          "internalType": "string",
          "name": "_producerName",
          "type": "string"
        },
        {
          "internalType": "string",
          "name": "_location",
          "type": "string"
        },
        {
          "internalType": "uint256",
          "name": "_quantity",
          "type": "uint256"
        },
        {
          "internalType": "address",
          "name": "_transporter",
          "type": "address"
        },
        {
          "internalType": "address",
          "name": "_manufacturer",
          "type": "address"
        }
      ],
      "name": "updateRawMaterial",
      "outputs": [],
      "stateMutability": "nonpayable",
      "type": "function"
    },
    {
      "inputs": [
        {
          "internalType": "address",
          "name": "_medicineID",
          "type": "address"
        },
        {
          "internalType": "address",
          "name": "_subContractID",
          "type": "address"
        },
        {
          "internalType": "uint256",
          "name": "_medicineSaleStatus",
          "type": "uint256"
        }
      ],
      "name": "updateRecievedMedicineBatchStatus",
      "outputs": [],
      "stateMutability": "nonpayable",
      "type": "function"
    },
    {
      "inputs": [
        {
          "internalType": "address",
          "name": "_medicineID",
          "type": "address"
        },
        {
          "internalType": "uint256",
          "name": "_medicineStatus",
          "type": "uint256"
        }
      ],
      "name": "updateSaleStatus",
      "outputs": [],
      "stateMutability": "nonpayable",
      "type": "function"
    },
    {
      "inputs": [
        {
          "internalType": "address",
          "name": "_address",
          "type": "address"
        },
        {
          "internalType": "string",
          "name": "_location",
          "type": "string"
        },
        {
          "internalType": "string",
          "name": "_userStatus",
          "type": "string"
        }
      ],
      "name": "updateUser",
      "outputs": [],
      "stateMutability": "nonpayable",
      "type": "function"
    },
    {
      "inputs": [
        {
          "internalType": "address",
          "name": "_address",
          "type": "address"
        },
        {
          "internalType": "string",
          "name": "_userName",
          "type": "string"
        }
      ],
      "name": "validateUser",
      "outputs": [
        {
          "components": [
            {
              "internalType": "address",
              "name": "userAddress",
              "type": "address"
            },
            {
              "internalType": "string",
              "name": "userName",
              "type": "string"
            },
            {
              "internalType": "string",
              "name": "userLocation",
              "type": "string"
            },
            {
              "internalType": "enum User.roles",
              "name": "userRole",
              "type": "uint8"
            },
            {
              "internalType": "string",
              "name": "userStatus",
              "type": "string"
            },
            {
              "internalType": "bool",
              "name": "isDeleted",
              "type": "bool"
            },
            {
              "internalType": "uint256",
              "name": "registrationDate",
              "type": "uint256"
            }
          ],
          "internalType": "struct User.UserInfo",
          "name": "",
          "type": "tuple"
        }
      ],
      "stateMutability": "view",
      "type": "function",
      "constant": true
    },
    {
      "inputs": [
        {
          "internalType": "address",
          "name": "_address",
          "type": "address"
        }
      ],
      "name": "getUserInfo",
      "outputs": [
        {
          "components": [
            {
              "internalType": "address",
              "name": "userAddress",
              "type": "address"
            },
            {
              "internalType": "string",
              "name": "userName",
              "type": "string"
            },
            {
              "internalType": "string",
              "name": "userLocation",
              "type": "string"
            },
            {
              "internalType": "enum User.roles",
              "name": "userRole",
              "type": "uint8"
            },
            {
              "internalType": "string",
              "name": "userStatus",
              "type": "string"
            },
            {
              "internalType": "bool",
              "name": "isDeleted",
              "type": "bool"
            },
            {
              "internalType": "uint256",
              "name": "registrationDate",
              "type": "uint256"
            }
          ],
          "internalType": "struct User.UserInfo",
          "name": "",
          "type": "tuple"
        }
      ],
      "stateMutability": "view",
      "type": "function",
      "constant": true
    },
    {
      "inputs": [],
      "name": "getAllRegisteredUsers",
      "outputs": [
        {
          "components": [
            {
              "internalType": "address",
              "name": "userAddress",
              "type": "address"
            },
            {
              "internalType": "string",
              "name": "userName",
              "type": "string"
            },
            {
              "internalType": "string",
              "name": "userLocation",
              "type": "string"
            },
            {
              "internalType": "enum User.roles",
              "name": "userRole",
              "type": "uint8"
            },
            {
              "internalType": "string",
              "name": "userStatus",
              "type": "string"
            },
            {
              "internalType": "bool",
              "name": "isDeleted",
              "type": "bool"
            },
            {
              "internalType": "uint256",
              "name": "registrationDate",
              "type": "uint256"
            }
          ],
          "internalType": "struct User.UserInfo[]",
          "name": "",
          "type": "tuple[]"
        }
      ],
      "stateMutability": "view",
      "type": "function",
      "constant": true
    },
    {
      "inputs": [
        {
          "internalType": "address",
          "name": "_packageID",
          "type": "address"
        }
      ],
      "name": "getSupplierRegisteredRawMaterialPackageStatus",
      "outputs": [
        {
          "internalType": "uint256",
          "name": "",
          "type": "uint256"
        }
      ],
      "stateMutability": "view",
      "type": "function",
      "constant": true
    },
    {
      "inputs": [
        {
          "internalType": "address",
          "name": "_address",
          "type": "address"
        }
      ],
      "name": "getListOfRegisteredRawMateriaAddress",
      "outputs": [
        {
          "internalType": "address[]",
          "name": "",
          "type": "address[]"
        }
      ],
      "stateMutability": "view",
      "type": "function",
      "constant": true
    },
    {
      "inputs": [
        {
          "internalType": "address",
          "name": "_materialId",
          "type": "address"
        }
      ],
      "name": "getRegisteredRawMaterialDetails",
      "outputs": [
        {
          "internalType": "address",
          "name": "materialId",
          "type": "address"
        },
        {
          "internalType": "address",
          "name": "supplier",
          "type": "address"
        },
        {
          "internalType": "string",
          "name": "description",
          "type": "string"
        },
        {
          "internalType": "string",
          "name": "producerName",
          "type": "string"
        },
        {
          "internalType": "string",
          "name": "location",
          "type": "string"
        },
        {
          "internalType": "uint256",
          "name": "quantity",
          "type": "uint256"
        },
        {
          "internalType": "address",
          "name": "shipper",
          "type": "address"
        },
        {
          "internalType": "address",
          "name": "manufacturer",
          "type": "address"
        },
        {
          "internalType": "uint256",
          "name": "packageStatus",
          "type": "uint256"
        },
        {
          "internalType": "uint256[]",
          "name": "transactionBlocks",
          "type": "uint256[]"
        }
      ],
      "stateMutability": "view",
      "type": "function",
      "constant": true
    },
    {
      "inputs": [
        {
          "internalType": "address",
          "name": "_manufacturer",
          "type": "address"
        }
      ],
      "name": "getAllShippedRawMaterialList",
      "outputs": [
        {
          "internalType": "address[]",
          "name": "",
          "type": "address[]"
        }
      ],
      "stateMutability": "view",
      "type": "function",
      "constant": true
    },
    {
      "inputs": [
        {
          "internalType": "address",
          "name": "_manufacturer",
          "type": "address"
        }
      ],
      "name": "getManufacturedMedicinesAddress",
      "outputs": [
        {
          "internalType": "address[]",
          "name": "",
          "type": "address[]"
        }
      ],
      "stateMutability": "view",
      "type": "function",
      "constant": true
    },
    {
      "inputs": [
        {
          "internalType": "address",
          "name": "_batchId",
          "type": "address"
        }
      ],
      "name": "getMedicineDetailsByBatchId",
      "outputs": [
        {
          "internalType": "address",
          "name": "medicineId",
          "type": "address"
        },
        {
          "internalType": "address",
          "name": "manufacturer",
          "type": "address"
        },
        {
          "internalType": "string",
          "name": "description",
          "type": "string"
        },
        {
          "internalType": "string",
          "name": "medicineName",
          "type": "string"
        },
        {
          "internalType": "string",
          "name": "location",
          "type": "string"
        },
        {
          "internalType": "address",
          "name": "materialId",
          "type": "address"
        },
        {
          "internalType": "uint256",
          "name": "quantity",
          "type": "uint256"
        },
        {
          "internalType": "address",
          "name": "shipper",
          "type": "address"
        },
        {
          "internalType": "address",
          "name": "distributor",
          "type": "address"
        },
        {
          "internalType": "uint256",
          "name": "packageStatus",
          "type": "uint256"
        },
        {
          "internalType": "uint256[]",
          "name": "transactionBlocks",
          "type": "uint256[]"
        }
      ],
      "stateMutability": "view",
      "type": "function",
      "constant": true
    },
    {
      "inputs": [
        {
          "internalType": "address",
          "name": "_distributor",
          "type": "address"
        }
      ],
      "name": "getAllShippedMedicineList",
      "outputs": [
        {
          "internalType": "address[]",
          "name": "",
          "type": "address[]"
        }
      ],
      "stateMutability": "view",
      "type": "function",
      "constant": true
    },
    {
      "inputs": [
        {
          "internalType": "address",
          "name": "_pharma",
          "type": "address"
        }
      ],
      "name": "getAllTransferredMedicineBatches",
      "outputs": [
        {
          "internalType": "address[]",
          "name": "",
          "type": "address[]"
        }
      ],
      "stateMutability": "view",
      "type": "function",
      "constant": true
    },
    {
      "inputs": [
        {
          "internalType": "address",
          "name": "_subContractId",
          "type": "address"
        }
      ],
      "name": "getMedicineBatchSubContractDetails",
      "outputs": [
        {
          "internalType": "address",
          "name": "medicineId",
          "type": "address"
        },
        {
          "internalType": "address",
          "name": "shipper",
          "type": "address"
        },
        {
          "internalType": "address",
          "name": "distributor",
          "type": "address"
        },
        {
          "internalType": "uint256",
          "name": "packageStatus",
          "type": "uint256"
        },
        {
          "internalType": "uint256",
          "name": "medicineStatus",
          "type": "uint256"
        }
      ],
      "stateMutability": "view",
      "type": "function",
      "constant": true
    },
    {
      "inputs": [
        {
          "internalType": "address",
          "name": "_medicineID",
          "type": "address"
        }
      ],
      "name": "getMedicineSaleStatusByID",
      "outputs": [
        {
          "internalType": "uint256",
          "name": "",
          "type": "uint256"
        }
      ],
      "stateMutability": "view",
      "type": "function",
      "constant": true
    },
    {
      "inputs": [
        {
          "internalType": "address",
          "name": "_pharma",
          "type": "address"
        }
      ],
      "name": "getCustomerInfoByPharmaShop",
      "outputs": [
        {
          "components": [
            {
              "internalType": "string",
              "name": "customerName",
              "type": "string"
            },
            {
              "internalType": "uint256",
              "name": "customerAge",
              "type": "uint256"
            },
            {
              "internalType": "string",
              "name": "doctorName",
              "type": "string"
            },
            {
              "internalType": "uint256",
              "name": "quantity",
              "type": "uint256"
            },
            {
              "internalType": "uint256",
              "name": "amountPaid",
              "type": "uint256"
            },
            {
              "internalType": "address",
              "name": "medicineId",
              "type": "address"
            },
            {
              "internalType": "address",
              "name": "materialId",
              "type": "address"
            }
          ],
          "internalType": "struct Customer.CustomerInfo[]",
          "name": "",
          "type": "tuple[]"
        }
      ],
      "stateMutability": "view",
      "type": "function",
      "constant": true
    }
  ],
  "bytecode": "0x608060405234801561001057600080fd5b5060008054600160a060020a031916331790556167ec806100326000396000f3fe60806040523480156200001157600080fd5b5060043610620002655760003560e060020a90048063798048d7116200014d578063b50f6b6c11620000cb578063da900121116200008a578063da900121146200064a578063eaa2f67f1462000661578063eae3c2071462000678578063ecad383e146200068f578063f2bdb8f914620006a657600080fd5b8063b50f6b6c14620005c2578063b6e44d8614620005d9578063b8ca628f14620005f0578063babe16551462000607578063bc063e59146200063357600080fd5b80638da5cb5b11620001185780638da5cb5b14620005545780639cb7d8231462000568578063a00453c01462000598578063a0a5992c14620005af578063a5dff99414620005b857600080fd5b8063798048d714620004f85780637e8e8c5c146200050f5780638620ca48146200052657806387308c6c146200053d57600080fd5b80632f0c212711620001e75780635c60f22611620001a65780635c60f226146200044f5780635f92ee3d14620004665780636386c1c7146200049557806368ab3fe414620004bb578063715f237e14620004d257600080fd5b80632f0c212714620003da57806338201eab14620003f1578063397388af14620004085780633bb3ec9e1462000421578063562cafe4146200043857600080fd5b806314c4aecd116200023457806314c4aecd146200033f57806315f6d2c414620003565780631bfb240f14620003865780631d3a8439146200039d5780631e1055f814620003c357600080fd5b8063022a3fdb146200026a5780630620ee8f14620002bf57806310e8b22d14620002fa5780631100762d1462000313575b600080fd5b620002816200027b3660046200318a565b620006bd565b60408051600160a060020a039687168152948616602086015292909416918301919091526060820152608081019190915260a0015b60405180910390f35b620002eb620002d03660046200318a565b600160a060020a031660009081526004602052604090205490565b604051908152602001620002b6565b620003116200030b366004620035ab565b6200079b565b005b620002eb620003243660046200318a565b600160a060020a031660009081526006602052604090205490565b62000311620003503660046200362a565b620009f4565b6200036d62000367366004620037b3565b62000ad1565b604051600160a060020a039091168152602001620002b6565b620002eb620003973660046200318a565b62000b0a565b620003b4620003ae3660046200318a565b62000b8a565b604051620002b6919062003ede565b62000311620003d436600462003970565b62000c02565b62000311620003eb36600462003208565b62000d41565b6200036d6200040236600462003a2d565b62000fb9565b6200041262000fe4565b604051620002b6919062003ff8565b620003116200043236600462003702565b62001281565b620003b4620004493660046200318a565b620015be565b62000311620004603660046200318a565b62001634565b6200047d620004773660046200318a565b6200175f565b604051620002b69a9998979695949392919062003d59565b620004ac620004a63660046200318a565b6200180c565b604051620002b69190620041d8565b62000311620004cc366004620031ca565b62001a70565b620004e9620004e33660046200318a565b62001bdb565b604051620002b6919062003f2d565b6200031162000509366004620031ca565b62001dcc565b62000311620005203660046200350f565b62001f35565b620002eb620005373660046200318a565b62002061565b620003b46200054e3660046200318a565b62002091565b6000546200036d90600160a060020a031681565b6200057f620005793660046200318a565b62002107565b604051620002b69b9a9998979695949392919062003c32565b62000311620005a936600462003702565b620021ba565b600c54620002eb565b620002eb600c5481565b62000311620005d3366004620038a8565b6200221b565b620003b4620005ea3660046200318a565b6200241c565b620003b4620006013660046200318a565b62002492565b6200061e6200061836600462003a2d565b62002508565b604051620002b6979695949392919062003df9565b62000311620006443660046200362a565b6200271e565b620003116200065b3660046200362a565b620028b5565b620004ac6200067236600462003555565b62002955565b6200031162000689366004620037b3565b62002af5565b62000311620006a0366004620037e2565b62002b97565b6200036d620006b7366004620037b3565b62002d2c565b600080600080600080600080600089600160a060020a0316637fb8174a6040518163ffffffff1660e060020a02815260040160806040518083038186803b1580156200070857600080fd5b505afa1580156200071d573d6000803e3d6000fd5b505050506040513d601f19601f820116820180604052508101906200074391906200325a565b600160a060020a0384166000908152600b602052604090205493975091955093509150849084908490849060ff16600481111562000785576200078562004311565b939e929d50909b50995090975095505050505050565b60083360009081526002602052604090206003015460ff166008811115620007c757620007c762004311565b14620007f35760405160e560020a62461bcd028152600401620007ea906200416a565b60405180910390fd5b600160a060020a0380841660008181526002602052604090205490911614620008335760405160e560020a62461bcd028152600401620007ea9062004133565b600160a060020a03831660009081526002602052604090206005015460ff1615620008a45760405160e560020a62461bcd02815260206004820152600b60248201527f5553525f44454c455445440000000000000000000000000000000000000000006044820152606401620007ea565b600160a060020a03831660009081526002602081815260409092208451620008d59391909201919085019062002f04565b50600160a060020a03831660009081526002602090815260409091208251620009079260049092019184019062002f04565b506000805b600154811015620009715784600160a060020a0316600182815481106200093757620009376200432a565b6000918252602090912060079091020154600160a060020a031614156200095c578091505b806200096881620042da565b9150506200090c565b5082600182815481106200098957620009896200432a565b90600052602060002090600702016002019080519060200190620009af92919062002f04565b508160018281548110620009c757620009c76200432a565b90600052602060002090600702016004019080519060200190620009ed92919062002f04565b5050505050565b60033360009081526002602052604090206003015460ff16600881111562000a205762000a2062004311565b1462000a435760405160e560020a62461bcd028152600401620007ea90620041a1565b6040517f8915a8fa000000000000000000000000000000000000000000000000000000008152600160a060020a03881690638915a8fa9062000a9490899088908a908990899089906004016200405d565b600060405180830381600087803b15801562000aaf57600080fd5b505af115801562000ac4573d6000803e3d6000fd5b5050505050505050505050565b6003602052816000526040600020818154811062000aee57600080fd5b600091825260209091200154600160a060020a03169150829050565b600081600160a060020a031663922962996040518163ffffffff1660e060020a02815260040160206040518083038186803b15801562000b4957600080fd5b505afa15801562000b5e573d6000803e3d6000fd5b505050506040513d601f19601f8201168201806040525081019062000b84919062003a47565b92915050565b600160a060020a03811660009081526008602090815260409182902080548351818402810184019094528084526060939283018282801562000bf657602002820191906000526020600020905b8154600160a060020a0316815260019091019060200180831162000bd7575b50505050509050919050565b60063360009081526002602052604090206003015460ff16600881111562000c2e5762000c2e62004311565b1462000c515760405160e560020a62461bcd028152600401620007ea90620040c5565b6001600160a060020a0384166000908152600b602052604090205460ff16600481111562000c835762000c8362004311565b101562000cd65760405160e560020a62461bcd02815260206004820152600e60248201527f4d5f4d5553545f41545f415052440000000000000000000000000000000000006044820152606401620007ea565b80600481111562000ceb5762000ceb62004311565b600160a060020a0384166000908152600b60205260409020805460ff1916600183600481111562000d205762000d2062004311565b021790555062000d3788888888888833896200221b565b5050505050505050565b60053360009081526002602052604090206003015460ff16600881111562000d6d5762000d6d62004311565b1462000dc15760405160e560020a62461bcd028152600401620007ea9060208082526004908201527f4f44434300000000000000000000000000000000000000000000000000000000604082015260600190565b62000dcc8362002d49565b60008333838560405162000de09062002f93565b600160a060020a039485168152928416602084015290831660408301529091166060820152608001604051809103906000f08015801562000e25573d6000803e3d6000fd5b506040517f43330ec2000000000000000000000000000000000000000000000000000000008152600160a060020a038681166004830152919250908216906343330ec290602401600060405180830381600087803b15801562000e8757600080fd5b505af115801562000e9c573d6000803e3d6000fd5b50505050600160a060020a0383811660009081526008602090815260408083208054600181018255908452828420018054600160a060020a03191686861617905580517f73b037db000000000000000000000000000000000000000000000000000000008152905192938816926373b037db92600480840193919291829003018186803b15801562000f2d57600080fd5b505afa15801562000f42573d6000803e3d6000fd5b505050506040513d601f19601f8201168201806040525081019062000f68919062003a47565b60408051600160a060020a03888116825260208201849052929350918416917f60524821b161231fd2b71a1da7fcbe0d151b7141de0591aa82699f0ff11852b0910160405180910390a25050505050565b6007818154811062000fca57600080fd5b600091825260209091200154600160a060020a0316905081565b60606001805480602002602001604051908101604052809291908181526020016000905b82821015620012785760008481526020908190206040805160e08101909152600785029091018054600160a060020a03168252600181018054929391929184019162001054906200429a565b80601f016020809104026020016040519081016040528092919081815260200182805462001082906200429a565b8015620010d35780601f10620010a757610100808354040283529160200191620010d3565b820191906000526020600020905b815481529060010190602001808311620010b557829003601f168201915b50505050508152602001600282018054620010ee906200429a565b80601f01602080910402602001604051908101604052809291908181526020018280546200111c906200429a565b80156200116d5780601f1062001141576101008083540402835291602001916200116d565b820191906000526020600020905b8154815290600101906020018083116200114f57829003601f168201915b5050509183525050600382015460209091019060ff16600881111562001197576200119762004311565b6008811115620011ab57620011ab62004311565b8152602001600482018054620011c1906200429a565b80601f0160208091040260200160405190810160405280929190818152602001828054620011ef906200429a565b8015620012405780601f10620012145761010080835404028352916020019162001240565b820191906000526020600020905b8154815290600101906020018083116200122257829003601f168201915b5050509183525050600582015460ff161515602080830191909152600690920154604090910152908252600192909201910162001008565b50505050905090565b60083360009081526002602052604090206003015460ff166008811115620012ad57620012ad62004311565b14620012d05760405160e560020a62461bcd028152600401620007ea906200416a565b600160a060020a038086166000818152600260205260409020549091161415620013405760405160e560020a62461bcd02815260206004820152600960248201527f5553525f455849535400000000000000000000000000000000000000000000006044820152606401620007ea565b6200134a62002fa1565b600160a060020a0386168152602081018590526040810184905282600881111562001379576200137962004311565b8160600190600881111562001392576200139262004311565b90816008811115620013a857620013a862004311565b90525060808101829052600060a082018190524260c0830152600160a060020a03878116825260026020908152604090922083518154600160a060020a031916921691909117815581830151805184936200140b92600185019291019062002f04565b50604082015180516200142991600284019160209091019062002f04565b50606082015160038201805460ff1916600183600881111562001450576200145062004311565b0217905550608082015180516200147291600484019160209091019062002f04565b5060a082015160058201805460ff191691151591909117905560c09091015160069091015560018054808201825560009190915281517fb10e2d527612073b26eecdfd717e6a320cf44b4afac2b0732d9fcbe2b7fa0cf660079092029182018054600160a060020a031916600160a060020a03909216919091178155602080840151805185946200152a937fb10e2d527612073b26eecdfd717e6a320cf44b4afac2b0732d9fcbe2b7fa0cf790910192019062002f04565b50604082015180516200154891600284019160209091019062002f04565b50606082015160038201805460ff191660018360088111156200156f576200156f62004311565b0217905550608082015180516200159191600484019160209091019062002f04565b5060a082015160058201805460ff191691151591909117905560c090910151600690910155505050505050565b600160a060020a03811660009081526004602090815260409182902080548351818402810184019094528084526060939283018282801562000bf657602002820191906000526020600020908154600160a060020a0316815260019091019060200180831162000bd75750505050509050919050565b60083360009081526002602052604090206003015460ff16600881111562001660576200166062004311565b14620016835760405160e560020a62461bcd028152600401620007ea906200416a565b600160a060020a0380821660008181526002602052604090205490911614620016c35760405160e560020a62461bcd028152600401620007ea9062004133565b604080518082018252600881527f496e6163746976650000000000000000000000000000000000000000000000006020808301918252600160a060020a0385166000908152600290915292909220905162001725926004909201919062002f04565b50600160a060020a0381166000908152600260205260409020600501805460ff191660019081179091556200175c90829062002d9d565b50565b600080606080606060008060008060608a600160a060020a031663b1767f876040518163ffffffff1660e060020a02815260040160006040518083038186803b158015620017ac57600080fd5b505afa158015620017c1573d6000803e3d6000fd5b505050506040513d6000823e601f3d908101601f19168201604052620017eb9190810190620033f5565b99509950995099509950995099509950995099509193959799509193959799565b6200181662002fa1565b600160a060020a03808316600090815260026020908152604091829020825160e0810190935280549093168252600183018054929392918401916200185b906200429a565b80601f016020809104026020016040519081016040528092919081815260200182805462001889906200429a565b8015620018da5780601f10620018ae57610100808354040283529160200191620018da565b820191906000526020600020905b815481529060010190602001808311620018bc57829003601f168201915b50505050508152602001600282018054620018f5906200429a565b80601f016020809104026020016040519081016040528092919081815260200182805462001923906200429a565b8015620019745780601f10620019485761010080835404028352916020019162001974565b820191906000526020600020905b8154815290600101906020018083116200195657829003601f168201915b5050509183525050600382015460209091019060ff1660088111156200199e576200199e62004311565b6008811115620019b257620019b262004311565b8152602001600482018054620019c8906200429a565b80601f0160208091040260200160405190810160405280929190818152602001828054620019f6906200429a565b801562001a475780601f1062001a1b5761010080835404028352916020019162001a47565b820191906000526020600020905b81548152906001019060200180831162001a2957829003601f168201915b5050509183525050600582015460ff161515602082015260069091015460409091015292915050565b60033360009081526002602052604090206003015460ff16600881111562001a9c5762001a9c62004311565b1462001abf5760405160e560020a62461bcd028152600401620007ea90620041a1565b81600160a060020a031663644754d56040518163ffffffff1660e060020a028152600401600060405180830381600087803b15801562001afe57600080fd5b505af115801562001b13573d6000803e3d6000fd5b5050505081600160a060020a03166373b037db6040518163ffffffff1660e060020a02815260040160206040518083038186803b15801562001b5457600080fd5b505afa15801562001b69573d6000803e3d6000fd5b505050506040513d601f19601f8201168201806040525081019062001b8f919062003a47565b6001141562001bd757600160a060020a038181166000908152600660209081526040822080546001810182559083529120018054600160a060020a0319169184169190911790555b5050565b600160a060020a0381166000908152600a60209081526040808320805482518185028101850190935280835260609492939192909184015b8282101562001dc157838290600052602060002090600702016040518060e001604052908160008201805462001c49906200429a565b80601f016020809104026020016040519081016040528092919081815260200182805462001c77906200429a565b801562001cc85780601f1062001c9c5761010080835404028352916020019162001cc8565b820191906000526020600020905b81548152906001019060200180831162001caa57829003601f168201915b505050505081526020016001820154815260200160028201805462001ced906200429a565b80601f016020809104026020016040519081016040528092919081815260200182805462001d1b906200429a565b801562001d6c5780601f1062001d405761010080835404028352916020019162001d6c565b820191906000526020600020905b81548152906001019060200180831162001d4e57829003601f168201915b50505091835250506003820154602080830191909152600483015460408301526005830154600160a060020a039081166060840152600690930154909216608090910152908252600192909201910162001c13565b505050509050919050565b60013360009081526002602052604090206003015460ff16600881111562001df85762001df862004311565b1462001e1b5760405160e560020a62461bcd028152600401620007ea90620040fc565b81600160a060020a031663b27a29706040518163ffffffff1660e060020a028152600401600060405180830381600087803b15801562001e5a57600080fd5b505af115801562001e6f573d6000803e3d6000fd5b5050505081600160a060020a031663922962996040518163ffffffff1660e060020a02815260040160206040518083038186803b15801562001eb057600080fd5b505afa15801562001ec5573d6000803e3d6000fd5b505050506040513d601f19601f8201168201806040525081019062001eeb919062003a47565b6001141562001bd757600160a060020a039081166000908152600460209081526040822080546001810182559083529120018054600160a060020a03191692909116919091179055565b60063360009081526002602052604090206003015460ff16600881111562001f615762001f6162004311565b1462001f845760405160e560020a62461bcd028152600401620007ea90620040c5565b6040517fb946588c000000000000000000000000000000000000000000000000000000008152600160a060020a03848116600483015283169063b946588c90602401600060405180830381600087803b15801562001fe157600080fd5b505af115801562001ff6573d6000803e3d6000fd5b505050508060048111156200200f576200200f62004311565b600160a060020a0384166000908152600b60205260409020805460ff1916600183600481111562002044576200204462004311565b0217905550600c54620020599060016200424c565b600c55505050565b600160a060020a0381166000908152600b602052604081205460ff16600481111562000b845762000b8462004311565b600160a060020a03811660009081526006602090815260409182902080548351818402810184019094528084526060939283018282801562000bf657602002820191906000526020600020908154600160a060020a0316815260019091019060200180831162000bd75750505050509050919050565b6000806060806060600080600080600060608b600160a060020a031663553098916040518163ffffffff1660e060020a02815260040160006040518083038186803b1580156200215657600080fd5b505afa1580156200216b573d6000803e3d6000fd5b505050506040513d6000823e601f3d908101601f19168201604052620021959190810190620032b4565b9a509a509a509a509a509a509a509a509a509a509a5091939597999b90929496989a50565b600054600160a060020a03163314620012d05760405160e560020a62461bcd028152600401620007ea9060208082526004908201527f4f57434300000000000000000000000000000000000000000000000000000000604082015260600190565b6200226e6040518060e0016040528060608152602001600081526020016060815260200160008152602001600081526020016000600160a060020a031681526020016000600160a060020a031681525090565b888152602080820189905260408083018990526060830188905260808301879052600160a060020a0380851660c0850152861660a08401819052600090815260098352908120805460018101825590825290829020835180518594600790940290920192620022e39284929091019062002f04565b5060208281015160018301556040830151805162002308926002850192019062002f04565b50606082015160038201556080820151600482015560a0820151600582018054600160a060020a0319908116600160a060020a039384161790915560c090930151600690920180549093169181169190911790915583166000908152600a602090815260408220805460018101825590835291819020835180518594600702909201926200239c9284929091019062002f04565b50602082810151600183015560408301518051620023c1926002850192019062002f04565b50606082015160038201556080820151600482015560a0820151600582018054600160a060020a0319908116600160a060020a039384161790915560c090930151600690920180549093169116179055505050505050505050565b600160a060020a03811660009081526005602090815260409182902080548351818402810184019094528084526060939283018282801562000bf657602002820191906000526020600020908154600160a060020a0316815260019091019060200180831162000bd75750505050509050919050565b600160a060020a03811660009081526003602090815260409182902080548351818402810184019094528084526060939283018282801562000bf657602002820191906000526020600020908154600160a060020a0316815260019091019060200180831162000bd75750505050509050919050565b600181815481106200251957600080fd5b600091825260209091206007909102018054600182018054600160a060020a039092169350906200254a906200429a565b80601f016020809104026020016040519081016040528092919081815260200182805462002578906200429a565b8015620025c95780601f106200259d57610100808354040283529160200191620025c9565b820191906000526020600020905b815481529060010190602001808311620025ab57829003601f168201915b505050505090806002018054620025e0906200429a565b80601f01602080910402602001604051908101604052809291908181526020018280546200260e906200429a565b80156200265f5780601f1062002633576101008083540402835291602001916200265f565b820191906000526020600020905b8154815290600101906020018083116200264157829003601f168201915b5050506003840154600485018054949560ff90921694919350915062002685906200429a565b80601f0160208091040260200160405190810160405280929190818152602001828054620026b3906200429a565b8015620027045780601f10620026d85761010080835404028352916020019162002704565b820191906000526020600020905b815481529060010190602001808311620026e657829003601f168201915b505050506005830154600690930154919260ff1691905087565b60033360009081526002602052604090206003015460ff1660088111156200274a576200274a62004311565b146200276d5760405160e560020a62461bcd028152600401620007ea90620041a1565b620027788762002ec5565b60003388868989888888604051620027909062002ffa565b620027a398979695949392919062003cdc565b604051809103906000f080158015620027c0573d6000803e3d6000fd5b509050600081600160a060020a031663b25373c96040518163ffffffff1660e060020a02815260040160206040518083038186803b1580156200280257600080fd5b505afa15801562002817573d6000803e3d6000fd5b505050506040513d601f19601f820116820180604052508101906200283d9190620031aa565b33600090815260056020908152604080832080546001810182559084529183209091018054600160a060020a031916600160a060020a038781169190911790915590519293508316917f8db6d7b51a76f210955cc963ffb2f4c600686d546146c97bfe14f55b138b97959190a2505050505050505050565b60013360009081526002602052604090206003015460ff166008811115620028e157620028e162004311565b14620029045760405160e560020a62461bcd028152600401620007ea90620040fc565b6040517fcf1287e1000000000000000000000000000000000000000000000000000000008152600160a060020a0388169063cf1287e19062000a94908990899089908990899089906004016200405d565b6200295f62002fa1565b600160a060020a03808416600081815260026020526040902054909116146200299f5760405160e560020a62461bcd028152600401620007ea9062004133565b81805190602001206002600085600160a060020a0316600160a060020a03168152602001908152602001600020600101604051620029de919062003b8b565b60405180910390201462002a095760405160e560020a62461bcd028152600401620007ea9062004133565b604080518082018252600681527f4163746976650000000000000000000000000000000000000000000000000000602091820152600160a060020a0385166000908152600290915281902090517ff07b88471cd28dc438f2291190512bd968fbd79b8c86b9ed015e51c1261d911f9162002a899160049091019062003b8b565b60405180910390201462002ae35760405160e560020a62461bcd02815260206004820152600d60248201527f5553525f4e545f414354495645000000000000000000000000000000000000006044820152606401620007ea565b62002aee836200180c565b9392505050565b60063360009081526002602052604090206003015460ff16600881111562002b215762002b2162004311565b1462002b445760405160e560020a62461bcd028152600401620007ea90620040c5565b80600481111562002b595762002b5962004311565b600160a060020a0383166000908152600b60205260409020805460ff1916600183600481111562002b8e5762002b8e62004311565b02179055505050565b60013360009081526002602052604090206003015460ff16600881111562002bc35762002bc362004311565b1462002be65760405160e560020a62461bcd028152600401620007ea90620040fc565b60003387878787878760405162002bfd9062003008565b62002c0f979695949392919062003e6d565b604051809103906000f08015801562002c2c573d6000803e3d6000fd5b509050600081600160a060020a031663f6f1bf666040518163ffffffff1660e060020a02815260040160206040518083038186803b15801562002c6e57600080fd5b505afa15801562002c83573d6000803e3d6000fd5b505050506040513d601f19601f8201168201806040525081019062002ca99190620031aa565b3360008181526003602090815260408083208054600181018255908452928290209092018054600160a060020a031916600160a060020a03868116918217909255925188821681529495508816937f728267d54f823d734daeb96ba05b79fcaea723977ba2f95b1036694d36e547c9910160405180910390a45050505050505050565b6004602052816000526040600020818154811062000aee57600080fd5b80600160a060020a031663a761dc4f6040518163ffffffff1660e060020a028152600401600060405180830381600087803b15801562002d8857600080fd5b505af1158015620009ed573d6000803e3d6000fd5b6000805b60015481101562002e065783600160a060020a03166001828154811062002dcc5762002dcc6200432a565b6000918252602090912060079091020154600160a060020a0316141562002df1578091505b8062002dfd81620042da565b91505062002da1565b506040518060400160405280600881526020017f496e6163746976650000000000000000000000000000000000000000000000008152506001828154811062002e535762002e536200432a565b9060005260206000209060070201600401908051906020019062002e7992919062002f04565b506001821515141562002ec057600180828154811062002e9d5762002e9d6200432a565b60009182526020909120600790910201600501805460ff19169115159190911790555b505050565b80600160a060020a031663ee8a544a6040518163ffffffff1660e060020a028152600401600060405180830381600087803b15801562002d8857600080fd5b82805462002f12906200429a565b90600052602060002090601f01602090048101928262002f36576000855562002f81565b82601f1062002f5157805160ff191683800117855562002f81565b8280016001018555821562002f81579182015b8281111562002f8157825182559160200191906001019062002f64565b5062002f8f92915062003016565b5090565b610608806200437383390190565b6040518060e001604052806000600160a060020a0316815260200160608152602001606081526020016000600881111562002fe05762002fe062004311565b815260606020820181905260006040830181905291015290565b611027806200497b83390190565b610e1580620059a283390190565b5b8082111562002f8f576000815560010162003017565b80356200303a816200435c565b919050565b80516200303a816200435c565b600082601f8301126200305e57600080fd5b8151602067ffffffffffffffff8211156200307d576200307d62004343565b8082026200308d828201620041ed565b838152828101908684018388018501891015620030a957600080fd5b600093505b85841015620030ce578051835260019390930192918401918401620030ae565b50979650505050505050565b600082601f830112620030ec57600080fd5b813562003103620030fd8262004221565b620041ed565b8181528460208386010111156200311957600080fd5b816020850160208301376000918101602001919091529392505050565b600082601f8301126200314857600080fd5b815162003159620030fd8262004221565b8181528460208386010111156200316f57600080fd5b6200318282602083016020870162004267565b949350505050565b6000602082840312156200319d57600080fd5b813562002aee816200435c565b600060208284031215620031bd57600080fd5b815162002aee816200435c565b60008060408385031215620031de57600080fd5b8235620031eb816200435c565b91506020830135620031fd816200435c565b809150509250929050565b6000806000606084860312156200321e57600080fd5b83356200322b816200435c565b925060208401356200323d816200435c565b915060408401356200324f816200435c565b809150509250925092565b600080600080608085870312156200327157600080fd5b84516200327e816200435c565b602086015190945062003291816200435c565b6040860151909350620032a4816200435c565b6060959095015193969295505050565b60008060008060008060008060008060006101608c8e031215620032d757600080fd5b620032e28c6200303f565b9a50620032f260208d016200303f565b995060408c015167ffffffffffffffff8111156200330f57600080fd5b6200331d8e828f0162003136565b99505060608c015167ffffffffffffffff8111156200333b57600080fd5b620033498e828f0162003136565b98505060808c015167ffffffffffffffff8111156200336757600080fd5b620033758e828f0162003136565b9750506200338660a08d016200303f565b955060c08c015194506200339d60e08d016200303f565b9350620033ae6101008d016200303f565b92506101208c015191506101408c015167ffffffffffffffff811115620033d457600080fd5b620033e28e828f016200304c565b9150509295989b509295989b9093969950565b6000806000806000806000806000806101408b8d0312156200341657600080fd5b620034218b6200303f565b99506200343160208c016200303f565b985060408b015167ffffffffffffffff808211156200344f57600080fd5b6200345d8e838f0162003136565b995060608d01519150808211156200347457600080fd5b620034828e838f0162003136565b985060808d01519150808211156200349957600080fd5b620034a78e838f0162003136565b975060a08d01519650620034be60c08e016200303f565b9550620034ce60e08e016200303f565b94506101008d015193506101208d0151915080821115620034ee57600080fd5b50620034fd8d828e016200304c565b9150509295989b9194979a5092959850565b6000806000606084860312156200352557600080fd5b833562003532816200435c565b9250602084013562003544816200435c565b929592945050506040919091013590565b600080604083850312156200356957600080fd5b823562003576816200435c565b9150602083013567ffffffffffffffff8111156200359357600080fd5b620035a185828601620030da565b9150509250929050565b600080600060608486031215620035c157600080fd5b8335620035ce816200435c565b9250602084013567ffffffffffffffff80821115620035ec57600080fd5b620035fa87838801620030da565b935060408601359150808211156200361157600080fd5b506200362086828701620030da565b9150509250925092565b600080600080600080600060e0888a0312156200364657600080fd5b873562003653816200435c565b9650602088013567ffffffffffffffff808211156200367157600080fd5b6200367f8b838c01620030da565b975060408a01359150808211156200369657600080fd5b620036a48b838c01620030da565b965060608a0135915080821115620036bb57600080fd5b50620036ca8a828b01620030da565b9450506080880135925060a0880135620036e4816200435c565b9150620036f460c089016200302d565b905092959891949750929550565b600080600080600060a086880312156200371b57600080fd5b853562003728816200435c565b9450602086013567ffffffffffffffff808211156200374657600080fd5b6200375489838a01620030da565b955060408801359150808211156200376b57600080fd5b6200377989838a01620030da565b94506060880135935060808801359150808211156200379757600080fd5b50620037a688828901620030da565b9150509295509295909350565b60008060408385031215620037c757600080fd5b8235620037d4816200435c565b946020939093013593505050565b60008060008060008060c08789031215620037fc57600080fd5b863567ffffffffffffffff808211156200381557600080fd5b620038238a838b01620030da565b975060208901359150808211156200383a57600080fd5b620038488a838b01620030da565b965060408901359150808211156200385f57600080fd5b506200386e89828a01620030da565b94505060608701359250608087013562003888816200435c565b915060a08701356200389a816200435c565b809150509295509295509295565b600080600080600080600080610100898b031215620038c657600080fd5b883567ffffffffffffffff80821115620038df57600080fd5b620038ed8c838d01620030da565b995060208b0135985060408b01359150808211156200390b57600080fd5b506200391a8b828c01620030da565b965050606089013594506080890135935060a08901356200393b816200435c565b925060c08901356200394d816200435c565b915060e08901356200395f816200435c565b809150509295985092959890939650565b600080600080600080600080610100898b0312156200398e57600080fd5b883567ffffffffffffffff80821115620039a757600080fd5b620039b58c838d01620030da565b995060208b0135985060408b0135915080821115620039d357600080fd5b50620039e28b828c01620030da565b965050606089013594506080890135935060a089013562003a03816200435c565b925060c089013562003a15816200435c565b8092505060e089013590509295985092959890939650565b60006020828403121562003a4057600080fd5b5035919050565b60006020828403121562003a5a57600080fd5b5051919050565b600081518084526020808501945080840160005b8381101562003a935781518752958201959082019060010162003a75565b509495945050505050565b6009811062003ac05760e060020a634e487b7102600052602160045260246000fd5b9052565b6000815180845262003ade81602086016020860162004267565b601f01601f19169290920160200192915050565b600160a060020a0381511682526000602082015160e0602085015262003b1c60e085018262003ac4565b90506040830151848203604086015262003b37828262003ac4565b915050606083015162003b4e606086018262003a9e565b506080830151848203608086015262003b68828262003ac4565b91505060a0830151151560a085015260c083015160c08501528091505092915050565b815460009081906002810460018083168062003ba857607f831692505b602080841082141562003bcc5760e060020a634e487b710286526022600452602486fd5b81801562003be3576001811462003bf55762003c24565b60ff1986168952848901965062003c24565b60008a81526020902060005b8681101562003c1c5781548b82015290850190830162003c01565b505084890196505b509498975050505050505050565b6000610160600160a060020a03808f168452808e16602085015281604085015262003c608285018e62003ac4565b9150838203606085015262003c76828d62003ac4565b9150838203608085015262003c8c828c62003ac4565b9150808a1660a08501528860c085015280881660e0850152808716610100850152508461012084015282810361014084015262003cca818562003a61565b9e9d5050505050505050505050505050565b6000610100600160a060020a03808c168452808b16602085015281604085015262003d0a8285018b62003ac4565b9150838203606085015262003d20828a62003ac4565b9150838203608085015262003d36828962003ac4565b60a085019790975294851660c08401525050911660e09091015295945050505050565b6000610140600160a060020a03808e168452808d16602085015281604085015262003d878285018d62003ac4565b9150838203606085015262003d9d828c62003ac4565b9150838203608085015262003db3828b62003ac4565b91508860a085015280881660c085015280871660e0850152508461010084015282810361012084015262003de8818562003a61565b9d9c50505050505050505050505050565b600160a060020a038816815260e06020820152600062003e1d60e083018962003ac4565b828103604084015262003e31818962003ac4565b905062003e42606084018862003a9e565b828103608084015262003e56818762003ac4565b94151560a0840152505060c0015295945050505050565b6000600160a060020a03808a16835260e0602084015262003e9260e084018a62003ac4565b838103604085015262003ea6818a62003ac4565b9050838103606085015262003ebc818962003ac4565b60808501979097525093841660a083015250911660c090910152949350505050565b6020808252825182820181905260009190848201906040850190845b8181101562003f21578351600160a060020a03168352928401929184019160010162003efa565b50909695505050505050565b60208082528251828201819052600091906040908185019080840286018301878501865b8381101562003fea57603f19898403018552815160e0815181865262003f7a8287018262003ac4565b9150508882015189860152878201518582038987015262003f9c828262003ac4565b606084810151908801526080808501519088015260a080850151600160a060020a039081169189019190915260c0948501511693909601929092525050938601939086019060010162003f51565b509098975050505050505050565b600060208083018184528085518083526040860191506040848202870101925083870160005b828110156200405057603f198886030184526200403d85835162003af2565b945092850192908501906001016200401e565b5092979650505050505050565b60c0815260006200407260c083018962003ac4565b828103602084015262004086818962003ac4565b905082810360408401526200409c818862003ac4565b60608401969096525050600160a060020a039283166080820152911660a0909101529392505050565b60208082526004908201527f4f50434300000000000000000000000000000000000000000000000000000000604082015260600190565b60208082526006908201527f4f524d5343430000000000000000000000000000000000000000000000000000604082015260600190565b6020808252600a908201527f5553525f4e545f52454700000000000000000000000000000000000000000000604082015260600190565b60208082526004908201527f4f41434300000000000000000000000000000000000000000000000000000000604082015260600190565b60208082526004908201527f4f4d434300000000000000000000000000000000000000000000000000000000604082015260600190565b60208152600062002aee602083018462003af2565b604051601f8201601f1916810167ffffffffffffffff8111828210171562004219576200421962004343565b604052919050565b600067ffffffffffffffff8211156200423e576200423e62004343565b50601f01601f191660200190565b60008219821115620042625762004262620042f8565b500190565b60005b83811015620042845781810151838201526020016200426a565b8381111562004294576000848401525b50505050565b600281046001821680620042af57607f821691505b60208210811415620042d45760e060020a634e487b7102600052602260045260246000fd5b50919050565b6000600019821415620042f157620042f1620042f8565b5060010190565b60e060020a634e487b7102600052601160045260246000fd5b60e060020a634e487b7102600052602160045260246000fd5b60e060020a634e487b7102600052603260045260246000fd5b60e060020a634e487b7102600052604160045260246000fd5b600160a060020a03811681146200175c57600080fdfe608060405234801561001057600080fd5b5060405161060838038061060883398101604081905261002f916100e0565b60008054600160a060020a0319908116600160a060020a038681169182178455600180548416898316179055600380548416909217909155600480548316858316179055600280549092169085161790556004805460a060020a60ff021916740100000000000000000000000000000000000000008360028111156100b6576100b6610134565b021790555050505050610163565b8051600160a060020a03811681146100db57600080fd5b919050565b600080600080608085870312156100f657600080fd5b6100ff856100c4565b935061010d602086016100c4565b925061011b604086016100c4565b9150610129606086016100c4565b905092959194509250565b7f4e487b7100000000000000000000000000000000000000000000000000000000600052602160045260246000fd5b610496806101726000396000f3fe608060405234801561001057600080fd5b5060043610610073577c0100000000000000000000000000000000000000000000000000000000600035046343330ec28114610078578063678dd1181461008d5780637fb8174a146100b7578063b946588c146100f4578063e3837b0414610107575b600080fd5b61008b6100863660046103c0565b610132565b005b6004546100a19060a060020a900460ff1681565b6040516100ae91906103f0565b60405180910390f35b6100bf610266565b6040516100ae9493929190600160a060020a039485168152928416602084015292166040820152606081019190915260800190565b61008b6101023660046103c0565b6102b7565b60015461011a90600160a060020a031681565b604051600160a060020a0390911681526020016100ae565b600060045460a060020a900460ff16600281111561015257610152610431565b146101be576040517f08c379a000000000000000000000000000000000000000000000000000000000815260206004820152600a60248201527f4d5f4d53545f41545f440000000000000000000000000000000000000000000060448201526064015b60405180910390fd5b600480546001919074ff0000000000000000000000000000000000000000191660a060020a830217905550600480546040517fa3791bb3000000000000000000000000000000000000000000000000000000008152600160a060020a039182169281019290925282169063a3791bb390602401600060405180830381600087803b15801561024b57600080fd5b505af115801561025f573d6000803e3d6000fd5b5050505050565b60015460028054600354600454600094859485948594600160a060020a039384169491841693169160a060020a90910460ff16908111156102a9576102a9610431565b935093509350935090919293565b600160045460a060020a900460ff1660028111156102d7576102d7610431565b1461033e576040517f08c379a000000000000000000000000000000000000000000000000000000000815260206004820152600b60248201527f4d5f4d53545f41545f502e00000000000000000000000000000000000000000060448201526064016101b5565b600480546002919074ff0000000000000000000000000000000000000000191660a060020a83021790555080600160a060020a031663df1f41c86040518163ffffffff167c0100000000000000000000000000000000000000000000000000000000028152600401600060405180830381600087803b15801561024b57600080fd5b6000602082840312156103d257600080fd5b8135600160a060020a03811681146103e957600080fd5b9392505050565b602081016003831061042b577f4e487b7100000000000000000000000000000000000000000000000000000000600052602160045260246000fd5b91905290565b7f4e487b7100000000000000000000000000000000000000000000000000000000600052602160045260246000fdfea26469706673582212201e21bfd8f0cf6875f98b76ddc104d050e4eee35d59f4fabb8b530ec01ce58fdb64736f6c6343000806003360806040523480156200001157600080fd5b5060405162001027380380620010278339810160408190526200003491620002bb565b60008054600160a060020a03808b16600160a060020a03199283161790925560068054928a1692821692909217909155600180549091163017905585516200008490600290602089019062000141565b5084516200009a90600390602088019062000141565b508351620000b090600490602087019062000141565b5060059290925560078054600160a060020a0319908116600160a060020a03938416179091556008805490911692821692909217909155600a8054600160a860020a03191696909116959095179094555050600b8054600181018255600091909152437f0175b7a638427703f0dbe7bb9bbf987a2551717b34e79f33b5b1008d1fa01db99091015550620004269050565b8280546200014f90620003a1565b90600052602060002090601f016020900481019282620001735760008555620001be565b82601f106200018e57805160ff1916838001178555620001be565b82800160010185558215620001be579182015b82811115620001be578251825591602001919060010190620001a1565b50620001cc929150620001d0565b5090565b5b80821115620001cc5760008155600101620001d1565b8051600160a060020a0381168114620001ff57600080fd5b919050565b600082601f8301126200021657600080fd5b81516001604060020a0380821115620002335762000233620003f7565b604051601f8301601f19908116603f011681019082821181831017156200025e576200025e620003f7565b816040528381526020925086838588010111156200027b57600080fd5b600091505b838210156200029f578582018301518183018401529082019062000280565b83821115620002b15760008385830101525b9695505050505050565b600080600080600080600080610100898b031215620002d957600080fd5b620002e489620001e7565b9750620002f460208a01620001e7565b965060408901516001604060020a03808211156200031157600080fd5b6200031f8c838d0162000204565b975060608b01519150808211156200033657600080fd5b620003448c838d0162000204565b965060808b01519150808211156200035b57600080fd5b506200036a8b828c0162000204565b94505060a089015192506200038260c08a01620001e7565b91506200039260e08a01620001e7565b90509295985092959890939650565b600281046001821680620003b657607f821691505b60208210811415620003f1577f4e487b7100000000000000000000000000000000000000000000000000000000600052602260045260246000fd5b50919050565b7f4e487b7100000000000000000000000000000000000000000000000000000000600052604160045260246000fd5b610bf180620004366000396000f3fe608060405234801561001057600080fd5b50600436106100bb576000357c0100000000000000000000000000000000000000000000000000000000900480638915a8fa116100835780638915a8fa1461014a578063a3791bb31461015d578063a761dc4f14610170578063b25373c914610178578063df1f41c81461018b57600080fd5b806340019e5d146100c057806355309891146100ea578063644754d514610109578063678dd1181461011357806373b037db14610134575b600080fd5b600154600160a060020a03165b604051600160a060020a0390911681526020015b60405180910390f35b6100f2610193565b6040516100e19b9a99989796959493929190610a5e565b610111610417565b005b600a546101279060a060020a900460ff1681565b6040516100e19190610b00565b61013c6104ec565b6040519081526020016100e1565b610111610158366004610924565b610512565b61011161016b366004610902565b610592565b61011161068a565b6001546100cd90600160a060020a031681565b610111610725565b600154600a54600654600554600754600854600095869560609586958695899586958695869586958b95600160a060020a03948516958585169560029560039560049590831694909390831692169060a060020a900460ff16858111156101fc576101fc610b69565b600b88805461020a90610b2b565b80601f016020809104026020016040519081016040528092919081815260200182805461023690610b2b565b80156102835780601f1061025857610100808354040283529160200191610283565b820191906000526020600020905b81548152906001019060200180831161026657829003601f168201915b5050505050985087805461029690610b2b565b80601f01602080910402602001604051908101604052809291908181526020018280546102c290610b2b565b801561030f5780601f106102e45761010080835404028352916020019161030f565b820191906000526020600020905b8154815290600101906020018083116102f257829003601f168201915b5050505050975086805461032290610b2b565b80601f016020809104026020016040519081016040528092919081815260200182805461034e90610b2b565b801561039b5780601f106103705761010080835404028352916020019161039b565b820191906000526020600020905b81548152906001019060200180831161037e57829003601f168201915b50505050509650808054806020026020016040519081016040528092919081815260200182805480156103ed57602002820191906000526020600020905b8154815260200190600101908083116103d9575b505050505090509a509a509a509a509a509a509a509a509a509a509a50909192939495969798999a565b6000600a5460a060020a900460ff16600481111561043757610437610b69565b1461048c5760405160e560020a62461bcd02815260206004820152600b60248201527f4d5f4d5553545f41545f4d00000000000000000000000000000000000000000060448201526064015b60405180910390fd5b600b80546001818101835560009290925243600080516020610b9c833981519152909101555b600a805474ff0000000000000000000000000000000000000000191660a060020a8360048111156104e5576104e5610b69565b0217905550565b600a5460009060a060020a900460ff16600481111561050d5761050d610b69565b905090565b84516105259060029060208801906107c0565b5085516105399060039060208901906107c0565b50835161054d9060049060208701906107c0565b5060059290925560078054600160a060020a0392831673ffffffffffffffffffffffffffffffffffffffff199182161790915560088054929093169116179055505050565b6002600a5460a060020a900460ff1660048111156105b2576105b2610b69565b146106025760405160e560020a62461bcd02815260206004820152600b60248201527f4d5f4d5553545f41545f440000000000000000000000000000000000000000006044820152606401610483565b600b805460018101825560009190915243600080516020610b9c83398151915290910155600a805474ff00000000000000000000000000000000000000001916740300000000000000000000000000000000000000001790556009805473ffffffffffffffffffffffffffffffffffffffff1916600160a060020a0392909216919091179055565b6001600a5460a060020a900460ff1660048111156106aa576106aa610b69565b146106fa5760405160e560020a62461bcd02815260206004820152600b60248201527f4d5f4d5553545f41545f440000000000000000000000000000000000000000006044820152606401610483565b600b805460018101825560009190915243600080516020610b9c8339815191529091015560026104b2565b6003600a5460a060020a900460ff16600481111561074557610745610b69565b146107955760405160e560020a62461bcd02815260206004820152600b60248201527f4d5f4d5553545f41545f500000000000000000000000000000000000000000006044820152606401610483565b600b805460018101825560009190915243600080516020610b9c8339815191529091015560046104b2565b8280546107cc90610b2b565b90600052602060002090601f0160209004810192826107ee5760008555610834565b82601f1061080757805160ff1916838001178555610834565b82800160010185558215610834579182015b82811115610834578251825591602001919060010190610819565b50610840929150610844565b5090565b5b808211156108405760008155600101610845565b8035600160a060020a038116811461087057600080fd5b919050565b600082601f83011261088657600080fd5b813567ffffffffffffffff808211156108a1576108a1610b82565b604051601f8301601f19908116603f011681019082821181831017156108c9576108c9610b82565b816040528381528660208588010111156108e257600080fd5b836020870160208301376000602085830101528094505050505092915050565b60006020828403121561091457600080fd5b61091d82610859565b9392505050565b60008060008060008060c0878903121561093d57600080fd5b863567ffffffffffffffff8082111561095557600080fd5b6109618a838b01610875565b9750602089013591508082111561097757600080fd5b6109838a838b01610875565b9650604089013591508082111561099957600080fd5b506109a689828a01610875565b945050606087013592506109bc60808801610859565b91506109ca60a08801610859565b90509295509295509295565b600081518084526020808501945080840160005b83811015610a06578151875295820195908201906001016109ea565b509495945050505050565b6000815180845260005b81811015610a3757602081850181015186830182015201610a1b565b81811115610a49576000602083870101525b50601f01601f19169290920160200192915050565b6000610160600160a060020a03808f168452808e166020850152816040850152610a8a8285018e610a11565b91508382036060850152610a9e828d610a11565b91508382036080850152610ab2828c610a11565b9150808a1660a08501528860c085015280881660e08501528087166101008501525084610120840152828103610140840152610aee81856109d6565b9e9d5050505050505050505050505050565b6020810160058310610b255760e060020a634e487b7102600052602160045260246000fd5b91905290565b600281046001821680610b3f57607f821691505b60208210811415610b635760e060020a634e487b7102600052602260045260246000fd5b50919050565b60e060020a634e487b7102600052602160045260246000fd5b60e060020a634e487b7102600052604160045260246000fdfe0175b7a638427703f0dbe7bb9bbf987a2551717b34e79f33b5b1008d1fa01db9a2646970667358221220b16ffef191f0e37aae4b42cb59a00f8c25c631cf8d9e10f27bfd0d5d239584a064736f6c6343000806003360806040523480156200001157600080fd5b5060405162000e1538038062000e158339810160408190526200003491620002a7565b60008054600160a060020a038916600160a060020a03199182161790915560018054909116301790558551620000729060029060208901906200012d565b508451620000889060039060208801906200012d565b5083516200009e9060049060208701906200012d565b5060059290925560068054600160a060020a0319908116600160a060020a0393841617909155600780549091169282169290921790915560088054600160a860020a0319169590911694909417909355505060098054600181018255600091909152437f6e1540171b6c0c960b71a7020d9f60077f6af931a8bbf590da0223dacf75c7af9091015550620003ff565b8280546200013b906200037a565b90600052602060002090601f0160209004810192826200015f5760008555620001aa565b82601f106200017a57805160ff1916838001178555620001aa565b82800160010185558215620001aa579182015b82811115620001aa5782518255916020019190600101906200018d565b50620001b8929150620001bc565b5090565b5b80821115620001b85760008155600101620001bd565b8051600160a060020a0381168114620001eb57600080fd5b919050565b600082601f8301126200020257600080fd5b81516001604060020a03808211156200021f576200021f620003d0565b604051601f8301601f19908116603f011681019082821181831017156200024a576200024a620003d0565b816040528381526020925086838588010111156200026757600080fd5b600091505b838210156200028b57858201830151818301840152908201906200026c565b838211156200029d5760008385830101525b9695505050505050565b600080600080600080600060e0888a031215620002c357600080fd5b620002ce88620001d3565b965060208801516001604060020a0380821115620002eb57600080fd5b620002f98b838c01620001f0565b975060408a01519150808211156200031057600080fd5b6200031e8b838c01620001f0565b965060608a01519150808211156200033557600080fd5b50620003448a828b01620001f0565b945050608088015192506200035c60a08901620001d3565b91506200036c60c08901620001d3565b905092959891949750929550565b6002810460018216806200038f57607f821691505b60208210811415620003ca577f4e487b7100000000000000000000000000000000000000000000000000000000600052602260045260246000fd5b50919050565b7f4e487b7100000000000000000000000000000000000000000000000000000000600052604160045260246000fd5b610a06806200040f6000396000f3fe608060405234801561001057600080fd5b506004361061007e577c01000000000000000000000000000000000000000000000000000000006000350463922962998114610083578063b1767f871461009e578063b27a2970146100bc578063cf1287e1146100c6578063ee8a544a146100d9578063f6f1bf66146100e1575b600080fd5b61008b610109565b6040519081526020015b60405180910390f35b6100a661012f565b6040516100959a99989796959493929190610852565b6100c46103b5565b005b6100c46100d4366004610753565b6104b3565b6100c4610540565b60015460405173ffffffffffffffffffffffffffffffffffffffff9091168152602001610095565b60085460009060a060020a900460ff16600281111561012a5761012a610972565b905090565b6001546008546005546006546007546000948594606094859485948894859485948594899473ffffffffffffffffffffffffffffffffffffffff948516948085169460029460039460049491939081169291169060a060020a900460ff168681111561019d5761019d610972565b60098780546101ab9061091e565b80601f01602080910402602001604051908101604052809291908181526020018280546101d79061091e565b80156102245780601f106101f957610100808354040283529160200191610224565b820191906000526020600020905b81548152906001019060200180831161020757829003601f168201915b505050505097508680546102379061091e565b80601f01602080910402602001604051908101604052809291908181526020018280546102639061091e565b80156102b05780601f10610285576101008083540402835291602001916102b0565b820191906000526020600020905b81548152906001019060200180831161029357829003601f168201915b505050505096508580546102c39061091e565b80601f01602080910402602001604051908101604052809291908181526020018280546102ef9061091e565b801561033c5780601f106103115761010080835404028352916020019161033c565b820191906000526020600020905b81548152906001019060200180831161031f57829003601f168201915b505050505095508080548060200260200160405190810160405280929190818152602001828054801561038e57602002820191906000526020600020905b81548152602001906001019080831161037a575b50505050509050995099509950995099509950995099509950995090919293949596979899565b600060085460a060020a900460ff1660028111156103d5576103d5610972565b14610441576040517f08c379a000000000000000000000000000000000000000000000000000000000815260206004820152600c60248201527f524d5f4d5553545f41545f53000000000000000000000000000000000000000060448201526064015b60405180910390fd5b6009805460018181018355600092909252437f6e1540171b6c0c960b71a7020d9f60077f6af931a8bbf590da0223dacf75c7af909101555b6008805474ff0000000000000000000000000000000000000000191660a060020a8360028111156104ac576104ac610972565b0217905550565b85516104c6906002906020890190610604565b5084516104da906003906020880190610604565b5083516104ee906004906020870190610604565b506005929092556006805473ffffffffffffffffffffffffffffffffffffffff92831673ffffffffffffffffffffffffffffffffffffffff199182161790915560078054929093169116179055505050565b600160085460a060020a900460ff16600281111561056057610560610972565b146105c7576040517f08c379a000000000000000000000000000000000000000000000000000000000815260206004820152600c60248201527f524d5f4d5553545f41545f4d00000000000000000000000000000000000000006044820152606401610438565b60098054600181018255600091909152437f6e1540171b6c0c960b71a7020d9f60077f6af931a8bbf590da0223dacf75c7af909101556002610479565b8280546106109061091e565b90600052602060002090601f0160209004810192826106325760008555610678565b82601f1061064b57805160ff1916838001178555610678565b82800160010185558215610678579182015b8281111561067857825182559160200191906001019061065d565b50610684929150610688565b5090565b5b808211156106845760008155600101610689565b803573ffffffffffffffffffffffffffffffffffffffff811681146106c157600080fd5b919050565b600082601f8301126106d757600080fd5b813567ffffffffffffffff808211156106f2576106f26109a1565b604051601f8301601f19908116603f0116810190828211818310171561071a5761071a6109a1565b8160405283815286602085880101111561073357600080fd5b836020870160208301376000602085830101528094505050505092915050565b60008060008060008060c0878903121561076c57600080fd5b863567ffffffffffffffff8082111561078457600080fd5b6107908a838b016106c6565b975060208901359150808211156107a657600080fd5b6107b28a838b016106c6565b965060408901359150808211156107c857600080fd5b506107d589828a016106c6565b945050606087013592506107eb6080880161069d565b91506107f960a0880161069d565b90509295509295509295565b6000815180845260005b8181101561082b5760208185018101518683018201520161080f565b8181111561083d576000602083870101525b50601f01601f19169290920160200192915050565b600061014073ffffffffffffffffffffffffffffffffffffffff808e1684526020818e168186015282604086015261088c8386018e610805565b925084830360608601526108a0838d610805565b925084830360808601526108b4838c610805565b60a086018b905289831660c087015291881660e08601526101008501879052848203610120860152855180835281870193509181019160005b81811015610909578451845293820193928201926001016108ed565b50919f9e505050505050505050505050505050565b60028104600182168061093257607f821691505b6020821081141561096c577f4e487b7100000000000000000000000000000000000000000000000000000000600052602260045260246000fd5b50919050565b7f4e487b7100000000000000000000000000000000000000000000000000000000600052602160045260246000fd5b7f4e487b7100000000000000000000000000000000000000000000000000000000600052604160045260246000fdfea2646970667358221220983fbf8da35dcc6bada87d7d46dee266931e452cbcc82f4770a484ffcd8cbb7764736f6c63430008060033a2646970667358221220245eb77cc9bb79b5ba7dff2e92e276d05fd2f1c6303b447e6ed67a937377dd7564736f6c63430008060033",
  "immutableReferences": {},
  "source": "// SPDX-License-Identifier: MIT\npragma solidity >=0.4.22 <0.9.0;\npragma experimental ABIEncoderV2;\n\nimport \"./Supplier.sol\";\nimport \"./Manufacturer.sol\";\nimport \"./Distributor.sol\";\nimport \"./Pharma.sol\";\nimport \"./User.sol\";\nimport \"./RawMaterials.sol\";\nimport \"./Medicine.sol\";\nimport \"./MedicineDP.sol\";\n\ncontract SupplyChain is Supplier, Manufacturer, Distributor, Pharma {\n    constructor() {}\n\n    /*************** USER SECTION ***************************** */\n\n    // Validate user based on address & username\n    // @param _address User Address\n    // @param _userName User Name\n    function validateUser(address _address, string memory _userName)\n        public\n        view\n        returns (UserInfo memory)\n    {\n        require(UsersDetails[_address].userAddress == _address, \"USR_NT_REG\"); //User not registered\n        require(\n            keccak256(bytes(UsersDetails[_address].userName)) ==\n                keccak256(bytes(_userName)),\n            \"USR_NT_REG\"\n        ); //User not registered\n        require(\n            keccak256(bytes(UsersDetails[_address].userStatus)) ==\n                keccak256(bytes(\"Active\")),\n            \"USR_NT_ACTIVE\"\n        ); //User not active\n        return getUserInfo(_address);\n    }\n\n    // Retrieve User information based on address\n    // @param _address User Address\n    function getUserInfo(address _address)\n        public\n        view\n        returns (UserInfo memory)\n    {\n        return UsersDetails[_address];\n    }\n\n    //Function to retrieve all the registered users\n    //Visibility - Public\n    //Return type - list of user\n    function getAllRegisteredUsers() public view returns (UserInfo[] memory) {\n        return UserList;\n    }\n\n    /*************** USER SECTION ***************************** */\n\n    /*************** SUPPLIER SECTION ***************************** */\n\n    //Retrieve material/package status using packageID. Only supplier can call this.\n    //@param _packageID Address\n    function getSupplierRegisteredRawMaterialPackageStatus(address _packageID)\n        public\n        view\n        returns (uint256)\n    {\n        return RawMaterials(_packageID).getRawMaterialsStatus();\n    }\n\n    //Retrieve list of registered raw material addresses for supplier address. Only supplier can call this.\n    //@param _address Address\n    function getListOfRegisteredRawMateriaAddress(address _address)\n        public\n        view\n        returns (address[] memory)\n    {\n        return SupplierRegisteredRawMaterialList[_address];\n    }\n\n    //Retrieve registered raw material details for material id. Only supplier can call this.\n    //@param _materialID Address\n    function getRegisteredRawMaterialDetails(address _materialId)\n        public\n        view\n        returns (\n            address materialId,\n            address supplier,\n            string memory description,\n            string memory producerName,\n            string memory location,\n            uint256 quantity,\n            address shipper,\n            address manufacturer,\n            uint256 packageStatus,\n            uint256[] memory transactionBlocks\n        )\n    {\n        return RawMaterials(_materialId).getSuppliedRawMaterialDetails();\n    }\n\n    //Get all the shipped raw material list for manufacturer\n    function getAllShippedRawMaterialList(address _manufacturer)\n        public\n        view\n        returns (address[] memory)\n    {\n        return MaterialShipmentList[_manufacturer];\n    }\n\n    /*************** SUPPLIER SECTION ***************************** */\n\n    /*************** MANUFACTURER SECTION ***************************** */\n\n    //Retrieve list of manufactured medicines addresses for manufacturer address. Only manufacturer can call this.\n    //@param _manufacturer Address\n    function getManufacturedMedicinesAddress(address _manufacturer)\n        public\n        view\n        returns (address[] memory)\n    {\n        return MedicinesManufactured[_manufacturer];\n    }\n\n    //Retrieve medicine details for medicine id. Only manufacturer can call this.\n    //@param _batchId Address\n    function getMedicineDetailsByBatchId(address _batchId)\n        public\n        view\n        returns (\n            address medicineId,\n            address manufacturer,\n            string memory description,\n            string memory medicineName,\n            string memory location,\n            address materialId,\n            uint256 quantity,\n            address shipper,\n            address distributor,\n            uint256 packageStatus,\n            uint256[] memory transactionBlocks\n        )\n    {\n        return Medicine(_batchId).getManufacteredMedicineDetails();\n    }\n\n    //Get all the shipped medicine list for distributor\n    function getAllShippedMedicineList(address _distributor)\n        public\n        view\n        returns (address[] memory)\n    {\n        return MedicineBatchShipmentList[_distributor];\n    }\n\n    /*************** MANUFACTURER SECTION ***************************** */\n\n    /*************** DISTRIBUTOR SECTION ***************************** */\n\n    //Get list of medicine bacthes transferred to pharma by distributor\n    function getAllTransferredMedicineBatches(address _pharma)\n        public\n        view\n        returns (address[] memory)\n    {\n        return MedicineBatchesTransferredToPharma[_pharma];\n    }\n\n    //Get sub contract details generated while transferring medicine batch from dist tot pharma\n    function getMedicineBatchSubContractDetails(address _subContractId)\n        public\n        view\n        returns (\n            address medicineId,\n            address shipper,\n            address distributor,\n            uint256 packageStatus,\n            uint256 medicineStatus\n        )\n    {\n        (\n            address _medicineId,\n            address _shipper,\n            address _distributor,\n            uint256 _packageStatus\n        ) = MedicineDP(_subContractId).getMedicineDPSubContractDetails();\n        return (\n            _medicineId,\n            _shipper,\n            _distributor,\n            _packageStatus,\n            uint256(MedicineSaleStatusAtPharma[_medicineId])\n        );\n    }\n\n    /*************** DISTRIBUTOR SECTION ***************************** */\n\n    /*************** PHARMA SECTION ***************************** */\n\n    //Retrieve medicine sale status updated by pharma for supplied medicineID.\n    function getMedicineSaleStatusByID(address _medicineID)\n        public\n        view\n        returns (uint256)\n    {\n        return uint256(MedicineSaleStatusAtPharma[_medicineID]);\n    }\n\n    /*************** PHARMA SECTION ***************************** */\n\n    /*************** CUSTOMER SECTION ***************************** */\n\n    function getCustomerInfoByPharmaShop(address _pharma)\n        public\n        view\n        returns (CustomerInfo[] memory)\n    {\n        return CustomerPharmaShopMap[_pharma];\n    }\n\n    /*************** CUSTOMER SECTION ***************************** */\n}\n",
  "sourcePath": "C:/Development/Blockchain/Learning-2/contracts/SupplyChain.sol",
  "compiler": {
    "name": "solc",
    "version": "0.8.6+commit.11564f7e.Emscripten.clang"
  },
  "schemaVersion": "3.4.1",
  "updatedAt": "2021-08-05T10:21:18.907Z",
  "networkType": "ethereum",
  "devdoc": {
    "kind": "dev",
    "methods": {},
    "version": 1
  },
  "userdoc": {
    "kind": "user",
    "methods": {},
    "version": 1
  }
}