{
  "contractName": "SupplyChain",
  "abi": [
    {
      "inputs": [],
      "stateMutability": "nonpayable",
      "type": "constructor"
    },
    {
      "anonymous": false,
      "inputs": [
        {
          "indexed": true,
          "internalType": "address",
          "name": "MedicineID",
          "type": "address"
        },
        {
          "indexed": true,
          "internalType": "address",
          "name": "Manufacturer",
          "type": "address"
        },
        {
          "indexed": false,
          "internalType": "address",
          "name": "Distributor",
          "type": "address"
        },
        {
          "indexed": true,
          "internalType": "address",
          "name": "Transporter",
          "type": "address"
        }
      ],
      "name": "MedicinePackageInitialize",
      "type": "event"
    },
    {
      "anonymous": false,
      "inputs": [
        {
          "indexed": false,
          "internalType": "address",
          "name": "MedicineID",
          "type": "address"
        },
        {
          "indexed": true,
          "internalType": "address",
          "name": "Pharma",
          "type": "address"
        },
        {
          "indexed": false,
          "internalType": "uint256",
          "name": "MedicineStatus",
          "type": "uint256"
        }
      ],
      "name": "MedicineStatusUpdated",
      "type": "event"
    },
    {
      "anonymous": false,
      "inputs": [
        {
          "indexed": false,
          "internalType": "address",
          "name": "MedicineID",
          "type": "address"
        },
        {
          "indexed": true,
          "internalType": "address",
          "name": "Pharma",
          "type": "address"
        },
        {
          "indexed": true,
          "internalType": "address",
          "name": "Transporter",
          "type": "address"
        },
        {
          "indexed": true,
          "internalType": "address",
          "name": "SubContractID",
          "type": "address"
        }
      ],
      "name": "MedicineTransferredDPInitiated",
      "type": "event"
    },
    {
      "anonymous": false,
      "inputs": [
        {
          "indexed": true,
          "internalType": "address",
          "name": "MaterialID",
          "type": "address"
        },
        {
          "indexed": true,
          "internalType": "address",
          "name": "Supplier",
          "type": "address"
        },
        {
          "indexed": false,
          "internalType": "address",
          "name": "Manufacturer",
          "type": "address"
        },
        {
          "indexed": true,
          "internalType": "address",
          "name": "Transporter",
          "type": "address"
        }
      ],
      "name": "RawMaterialInitialize",
      "type": "event"
    },
    {
      "anonymous": false,
      "inputs": [
        {
          "indexed": true,
          "internalType": "address",
          "name": "UserAddress",
          "type": "address"
        },
        {
          "indexed": false,
          "internalType": "string",
          "name": "Name",
          "type": "string"
        }
      ],
      "name": "UserRegistered",
      "type": "event"
    },
    {
      "anonymous": false,
      "inputs": [
        {
          "indexed": true,
          "internalType": "address",
          "name": "UserAddress",
          "type": "address"
        },
        {
          "indexed": false,
          "internalType": "string",
          "name": "Name",
          "type": "string"
        },
        {
          "indexed": false,
          "internalType": "uint256",
          "name": "Role",
          "type": "uint256"
        }
      ],
      "name": "UserRoleReassigned",
      "type": "event"
    },
    {
      "anonymous": false,
      "inputs": [
        {
          "indexed": true,
          "internalType": "address",
          "name": "UserAddress",
          "type": "address"
        },
        {
          "indexed": false,
          "internalType": "string",
          "name": "Name",
          "type": "string"
        },
        {
          "indexed": false,
          "internalType": "uint256",
          "name": "Role",
          "type": "uint256"
        }
      ],
      "name": "UserRoleRevoked",
      "type": "event"
    },
    {
      "inputs": [
        {
          "internalType": "uint256",
          "name": "",
          "type": "uint256"
        }
      ],
      "name": "UserList",
      "outputs": [
        {
          "internalType": "address",
          "name": "userAddress",
          "type": "address"
        },
        {
          "internalType": "string",
          "name": "userName",
          "type": "string"
        },
        {
          "internalType": "string",
          "name": "userLocation",
          "type": "string"
        },
        {
          "internalType": "enum User.roles",
          "name": "userRole",
          "type": "uint8"
        },
        {
          "internalType": "string",
          "name": "userStatus",
          "type": "string"
        }
      ],
      "stateMutability": "view",
      "type": "function",
      "constant": true
    },
    {
      "inputs": [
        {
          "internalType": "address",
          "name": "_materialID",
          "type": "address"
        },
        {
          "internalType": "string",
          "name": "_medicineName",
          "type": "string"
        },
        {
          "internalType": "string",
          "name": "_desc",
          "type": "string"
        },
        {
          "internalType": "uint256",
          "name": "_quantity",
          "type": "uint256"
        },
        {
          "internalType": "address",
          "name": "_transporter",
          "type": "address"
        },
        {
          "internalType": "address",
          "name": "_distributor",
          "type": "address"
        }
      ],
      "name": "createMedicinePackage",
      "outputs": [],
      "stateMutability": "nonpayable",
      "type": "function"
    },
    {
      "inputs": [
        {
          "internalType": "string",
          "name": "_desc",
          "type": "string"
        },
        {
          "internalType": "string",
          "name": "_producerName",
          "type": "string"
        },
        {
          "internalType": "string",
          "name": "_location",
          "type": "string"
        },
        {
          "internalType": "uint256",
          "name": "_quantity",
          "type": "uint256"
        },
        {
          "internalType": "address",
          "name": "_transporter",
          "type": "address"
        },
        {
          "internalType": "address",
          "name": "_manufacturer",
          "type": "address"
        }
      ],
      "name": "createRawMaterialPackage",
      "outputs": [],
      "stateMutability": "nonpayable",
      "type": "function"
    },
    {
      "inputs": [
        {
          "internalType": "address",
          "name": "_address",
          "type": "address"
        }
      ],
      "name": "deleteUser",
      "outputs": [],
      "stateMutability": "nonpayable",
      "type": "function"
    },
    {
      "inputs": [
        {
          "internalType": "address",
          "name": "_address",
          "type": "address"
        }
      ],
      "name": "findAndDeactivateUser",
      "outputs": [],
      "stateMutability": "nonpayable",
      "type": "function"
    },
    {
      "inputs": [],
      "name": "getAllRegisteredUsers",
      "outputs": [
        {
          "components": [
            {
              "internalType": "address",
              "name": "userAddress",
              "type": "address"
            },
            {
              "internalType": "string",
              "name": "userName",
              "type": "string"
            },
            {
              "internalType": "string",
              "name": "userLocation",
              "type": "string"
            },
            {
              "internalType": "enum User.roles",
              "name": "userRole",
              "type": "uint8"
            },
            {
              "internalType": "string",
              "name": "userStatus",
              "type": "string"
            }
          ],
          "internalType": "struct User.UserInfo[]",
          "name": "",
          "type": "tuple[]"
        }
      ],
      "stateMutability": "view",
      "type": "function",
      "constant": true
    },
    {
      "inputs": [
        {
          "internalType": "address",
          "name": "_medicineID",
          "type": "address"
        }
      ],
      "name": "getMedicineSaleStatusByID",
      "outputs": [
        {
          "internalType": "uint256",
          "name": "",
          "type": "uint256"
        }
      ],
      "stateMutability": "view",
      "type": "function",
      "constant": true
    },
    {
      "inputs": [
        {
          "internalType": "address",
          "name": "_medicineID",
          "type": "address"
        }
      ],
      "name": "getMedicineSubContractDP",
      "outputs": [
        {
          "internalType": "address",
          "name": "",
          "type": "address"
        }
      ],
      "stateMutability": "view",
      "type": "function",
      "constant": true
    },
    {
      "inputs": [],
      "name": "getReceivedMedicineBatchesCount",
      "outputs": [
        {
          "internalType": "uint256",
          "name": "",
          "type": "uint256"
        }
      ],
      "stateMutability": "view",
      "type": "function",
      "constant": true
    },
    {
      "inputs": [
        {
          "internalType": "uint256",
          "name": "_index",
          "type": "uint256"
        }
      ],
      "name": "getReceivedMedicineIDByIndex",
      "outputs": [
        {
          "internalType": "address",
          "name": "",
          "type": "address"
        }
      ],
      "stateMutability": "view",
      "type": "function",
      "constant": true
    },
    {
      "inputs": [
        {
          "internalType": "address",
          "name": "_medicineID",
          "type": "address"
        }
      ],
      "name": "getReceivedMedicinePackageAtDistributorStatus",
      "outputs": [
        {
          "internalType": "uint256",
          "name": "",
          "type": "uint256"
        }
      ],
      "stateMutability": "view",
      "type": "function",
      "constant": true
    },
    {
      "inputs": [
        {
          "internalType": "uint256",
          "name": "_index",
          "type": "uint256"
        }
      ],
      "name": "getReceivedMedicinePackageIDByIndex",
      "outputs": [
        {
          "internalType": "address",
          "name": "",
          "type": "address"
        }
      ],
      "stateMutability": "view",
      "type": "function",
      "constant": true
    },
    {
      "inputs": [],
      "name": "getReceivedMedicinePackagesCount",
      "outputs": [
        {
          "internalType": "uint256",
          "name": "",
          "type": "uint256"
        }
      ],
      "stateMutability": "view",
      "type": "function",
      "constant": true
    },
    {
      "inputs": [
        {
          "internalType": "address",
          "name": "_packageID",
          "type": "address"
        }
      ],
      "name": "getReceivedRawMaterialPackageAtManufacturerStatus",
      "outputs": [
        {
          "internalType": "uint256",
          "name": "",
          "type": "uint256"
        }
      ],
      "stateMutability": "view",
      "type": "function",
      "constant": true
    },
    {
      "inputs": [
        {
          "internalType": "uint256",
          "name": "_index",
          "type": "uint256"
        }
      ],
      "name": "getReceivedRawMaterialPackageIDByIndex",
      "outputs": [
        {
          "internalType": "address",
          "name": "",
          "type": "address"
        }
      ],
      "stateMutability": "view",
      "type": "function",
      "constant": true
    },
    {
      "inputs": [],
      "name": "getReceivedRawMaterialPackagesCount",
      "outputs": [
        {
          "internalType": "uint256",
          "name": "",
          "type": "uint256"
        }
      ],
      "stateMutability": "view",
      "type": "function",
      "constant": true
    },
    {
      "inputs": [
        {
          "internalType": "uint256",
          "name": "index",
          "type": "uint256"
        }
      ],
      "name": "getRegisteredMedicineIDByIndex",
      "outputs": [
        {
          "internalType": "address",
          "name": "",
          "type": "address"
        }
      ],
      "stateMutability": "view",
      "type": "function",
      "constant": true
    },
    {
      "inputs": [
        {
          "internalType": "address",
          "name": "_medicineID",
          "type": "address"
        }
      ],
      "name": "getRegisteredMedicinePackageStatusByID",
      "outputs": [
        {
          "internalType": "uint256",
          "name": "",
          "type": "uint256"
        }
      ],
      "stateMutability": "view",
      "type": "function",
      "constant": true
    },
    {
      "inputs": [],
      "name": "getRegisteredMedicinePackagesCount",
      "outputs": [
        {
          "internalType": "uint256",
          "name": "",
          "type": "uint256"
        }
      ],
      "stateMutability": "view",
      "type": "function",
      "constant": true
    },
    {
      "inputs": [
        {
          "internalType": "address",
          "name": "_packageID",
          "type": "address"
        }
      ],
      "name": "getSupplierRegisteredRawMaterialByPackageID",
      "outputs": [
        {
          "internalType": "address",
          "name": "",
          "type": "address"
        },
        {
          "internalType": "string",
          "name": "",
          "type": "string"
        },
        {
          "internalType": "string",
          "name": "",
          "type": "string"
        },
        {
          "internalType": "string",
          "name": "",
          "type": "string"
        },
        {
          "internalType": "uint256",
          "name": "",
          "type": "uint256"
        },
        {
          "internalType": "address",
          "name": "",
          "type": "address"
        },
        {
          "internalType": "address",
          "name": "",
          "type": "address"
        }
      ],
      "stateMutability": "view",
      "type": "function",
      "constant": true
    },
    {
      "inputs": [
        {
          "internalType": "uint256",
          "name": "index",
          "type": "uint256"
        }
      ],
      "name": "getSupplierRegisteredRawMaterialIDByIndex",
      "outputs": [
        {
          "internalType": "address",
          "name": "materialID",
          "type": "address"
        }
      ],
      "stateMutability": "view",
      "type": "function",
      "constant": true
    },
    {
      "inputs": [],
      "name": "getSupplierRegisteredRawMaterialPackageCount",
      "outputs": [
        {
          "internalType": "uint256",
          "name": "",
          "type": "uint256"
        }
      ],
      "stateMutability": "view",
      "type": "function",
      "constant": true
    },
    {
      "inputs": [
        {
          "internalType": "address",
          "name": "_packageID",
          "type": "address"
        }
      ],
      "name": "getSupplierRegisteredRawMaterialPackageStatus",
      "outputs": [
        {
          "internalType": "uint256",
          "name": "",
          "type": "uint256"
        }
      ],
      "stateMutability": "view",
      "type": "function",
      "constant": true
    },
    {
      "inputs": [],
      "name": "getTransferredMedicineCountAtDP",
      "outputs": [
        {
          "internalType": "uint256",
          "name": "",
          "type": "uint256"
        }
      ],
      "stateMutability": "view",
      "type": "function",
      "constant": true
    },
    {
      "inputs": [
        {
          "internalType": "uint256",
          "name": "_index",
          "type": "uint256"
        }
      ],
      "name": "getTransferredMedicineTxIDByIndex",
      "outputs": [
        {
          "internalType": "address",
          "name": "",
          "type": "address"
        }
      ],
      "stateMutability": "view",
      "type": "function",
      "constant": true
    },
    {
      "inputs": [
        {
          "internalType": "address",
          "name": "_address",
          "type": "address"
        }
      ],
      "name": "getUserInfo",
      "outputs": [
        {
          "components": [
            {
              "internalType": "address",
              "name": "userAddress",
              "type": "address"
            },
            {
              "internalType": "string",
              "name": "userName",
              "type": "string"
            },
            {
              "internalType": "string",
              "name": "userLocation",
              "type": "string"
            },
            {
              "internalType": "enum User.roles",
              "name": "userRole",
              "type": "uint8"
            },
            {
              "internalType": "string",
              "name": "userStatus",
              "type": "string"
            }
          ],
          "internalType": "struct User.UserInfo",
          "name": "",
          "type": "tuple"
        }
      ],
      "stateMutability": "view",
      "type": "function",
      "constant": true
    },
    {
      "inputs": [],
      "name": "getUsersCount",
      "outputs": [
        {
          "internalType": "uint256",
          "name": "count",
          "type": "uint256"
        }
      ],
      "stateMutability": "view",
      "type": "function",
      "constant": true
    },
    {
      "inputs": [
        {
          "internalType": "address",
          "name": "_packageID",
          "type": "address"
        },
        {
          "internalType": "uint256",
          "name": "_transporterType",
          "type": "uint256"
        },
        {
          "internalType": "address",
          "name": "_subContractID",
          "type": "address"
        }
      ],
      "name": "loadConsignment",
      "outputs": [],
      "stateMutability": "nonpayable",
      "type": "function"
    },
    {
      "inputs": [],
      "name": "owner",
      "outputs": [
        {
          "internalType": "address",
          "name": "",
          "type": "address"
        }
      ],
      "stateMutability": "view",
      "type": "function",
      "constant": true
    },
    {
      "inputs": [
        {
          "internalType": "address",
          "name": "_address",
          "type": "address"
        },
        {
          "internalType": "uint256",
          "name": "_role",
          "type": "uint256"
        }
      ],
      "name": "reAssignUserRole",
      "outputs": [],
      "stateMutability": "nonpayable",
      "type": "function"
    },
    {
      "inputs": [
        {
          "internalType": "address",
          "name": "_address",
          "type": "address"
        },
        {
          "internalType": "string",
          "name": "_name",
          "type": "string"
        },
        {
          "internalType": "string",
          "name": "_location",
          "type": "string"
        },
        {
          "internalType": "uint256",
          "name": "_role",
          "type": "uint256"
        },
        {
          "internalType": "string",
          "name": "_userStatus",
          "type": "string"
        }
      ],
      "name": "registerAdmin",
      "outputs": [],
      "stateMutability": "nonpayable",
      "type": "function"
    },
    {
      "inputs": [
        {
          "internalType": "address",
          "name": "_address",
          "type": "address"
        },
        {
          "internalType": "string",
          "name": "_name",
          "type": "string"
        },
        {
          "internalType": "string",
          "name": "_location",
          "type": "string"
        },
        {
          "internalType": "uint256",
          "name": "_role",
          "type": "uint256"
        },
        {
          "internalType": "string",
          "name": "_userStatus",
          "type": "string"
        }
      ],
      "name": "registerUser",
      "outputs": [],
      "stateMutability": "nonpayable",
      "type": "function"
    },
    {
      "inputs": [
        {
          "internalType": "address",
          "name": "_address",
          "type": "address"
        }
      ],
      "name": "revokeUserRole",
      "outputs": [],
      "stateMutability": "nonpayable",
      "type": "function"
    },
    {
      "inputs": [
        {
          "internalType": "address",
          "name": "_medicineID",
          "type": "address"
        },
        {
          "internalType": "address",
          "name": "_pharma",
          "type": "address"
        },
        {
          "internalType": "address",
          "name": "_transporter",
          "type": "address"
        }
      ],
      "name": "transferMedicineFromDistributorToPharma",
      "outputs": [],
      "stateMutability": "nonpayable",
      "type": "function"
    },
    {
      "inputs": [
        {
          "internalType": "address",
          "name": "_medicineID",
          "type": "address"
        },
        {
          "internalType": "uint256",
          "name": "_status",
          "type": "uint256"
        }
      ],
      "name": "updateMedicineSaleStatus",
      "outputs": [],
      "stateMutability": "nonpayable",
      "type": "function"
    },
    {
      "inputs": [
        {
          "internalType": "address",
          "name": "_medicineID",
          "type": "address"
        },
        {
          "internalType": "address",
          "name": "_subContractID",
          "type": "address"
        },
        {
          "internalType": "uint256",
          "name": "_medicineStatus",
          "type": "uint256"
        }
      ],
      "name": "updateRecievedMedicineBatchStatus",
      "outputs": [],
      "stateMutability": "nonpayable",
      "type": "function"
    },
    {
      "inputs": [
        {
          "internalType": "address",
          "name": "_medicineID",
          "type": "address"
        }
      ],
      "name": "updateRecievedMedicinePackageStatus",
      "outputs": [],
      "stateMutability": "nonpayable",
      "type": "function"
    },
    {
      "inputs": [
        {
          "internalType": "address",
          "name": "_packageID",
          "type": "address"
        }
      ],
      "name": "updateRecievedRawMaterialPackageStatus",
      "outputs": [],
      "stateMutability": "nonpayable",
      "type": "function"
    },
    {
      "inputs": [
        {
          "internalType": "address",
          "name": "_address",
          "type": "address"
        },
        {
          "internalType": "string",
          "name": "_name",
          "type": "string"
        },
        {
          "internalType": "string",
          "name": "_location",
          "type": "string"
        },
        {
          "internalType": "uint256",
          "name": "_role",
          "type": "uint256"
        },
        {
          "internalType": "string",
          "name": "_userStatus",
          "type": "string"
        }
      ],
      "name": "updateUser",
      "outputs": [],
      "stateMutability": "nonpayable",
      "type": "function"
    },
    {
      "inputs": [
        {
          "internalType": "address",
          "name": "_address",
          "type": "address"
        },
        {
          "internalType": "string",
          "name": "_userName",
          "type": "string"
        }
      ],
      "name": "validateUser",
      "outputs": [
        {
          "components": [
            {
              "internalType": "address",
              "name": "userAddress",
              "type": "address"
            },
            {
              "internalType": "string",
              "name": "userName",
              "type": "string"
            },
            {
              "internalType": "string",
              "name": "userLocation",
              "type": "string"
            },
            {
              "internalType": "enum User.roles",
              "name": "userRole",
              "type": "uint8"
            },
            {
              "internalType": "string",
              "name": "userStatus",
              "type": "string"
            }
          ],
          "internalType": "struct User.UserInfo",
          "name": "",
          "type": "tuple"
        }
      ],
      "stateMutability": "view",
      "type": "function",
      "constant": true
    }
  ],
  "bytecode": "0x608060405234801561001057600080fd5b5060008054600160a060020a03191633179055615839806100326000396000f3fe60806040523480156200001157600080fd5b5060043610620002045760e060020a6000350462e309ec8114620002095780631bfb240f14620002095780632f0c212714620002335780632f8b2a9e146200024c578063338cc7a11462000272578063397388af146200028957806339d139e214620002a25780633b549a6814620002b95780633bb3ec9e14620002d057806345f5b55f14620002e75780634fa831de14620002fe57806353c56cb114620003155780635c60f226146200031f57806361726a6b14620003365780636386c1c714620003405780636ab5d88c14620003665780637b1530eb146200037d5780637e8e8c5c14620003945780638620ca4814620003ab5780638811340c14620003c25780638da5cb5b14620003cc578063a00453c014620003e0578063a20fa39314620003f7578063a4a1e263146200040e578063b0ed547c1462000417578063babe1655146200042e578063bd73b25d1462000458578063c04732bd146200046f578063c3f9937a1462000486578063ce6bc3f5146200049d578063cf2d3ce814620004b4578063d22b4e4414620004cb578063de7fb44914620004d5578063e299476714620004df578063eaa2f67f14620004f6578063ecad383e146200050d578063ecfd7cbe1462000524578063ed0c3cd61462000550578063f0a549381462000567578063f0beeb80146200057e575b600080fd5b620002206200021a366004620030ea565b62000588565b6040519081526020015b60405180910390f35b6200024a620002443660046200312a565b62000608565b005b620002636200025d36600462003513565b620008f9565b6040516200022a9190620036c2565b620002636200028336600462003513565b6200098b565b6200029362000a00565b6040516200022a91906200380d565b62000263620002b3366004620030ea565b62000ccd565b62000263620002ca36600462003513565b62000d3d565b6200024a620002e1366004620033a1565b62000db2565b6200024a620002f836600462003451565b620010fd565b6200024a6200030f36600462003480565b62001301565b62000220620014ad565b6200024a62000330366004620030ea565b62001512565b6200022062001600565b6200035762000351366004620030ea565b62001665565b6040516200022a9190620039a2565b6200024a62000377366004620033a1565b620018b0565b6200024a6200038e366004620032ef565b62001bd5565b6200024a620003a53660046200317c565b62001dcd565b62000220620003bc366004620030ea565b62001f10565b6200022062001f91565b6000546200026390600160a060020a031681565b6200024a620003f1366004620033a1565b62001ff6565b6200022062000408366004620030ea565b62002041565b60035462000220565b620002636200042836600462003513565b62002080565b620004456200043f36600462003513565b620020f5565b6040516200022a95949392919062003753565b6200024a62000469366004620030ea565b620022fb565b620002636200048036600462003513565b620024bd565b6200024a6200049736600462003451565b62002532565b6200024a620004ae366004620030ea565b62002687565b62000220620004c5366004620030ea565b6200277b565b6200022062002809565b620002206200286e565b6200024a620004f0366004620030ea565b620028d3565b6200035762000507366004620031c2565b6200299d565b6200024a6200051e366004620034bc565b62002b1c565b6200053b62000535366004620030ea565b62002ca4565b6040516200022a9796959493929190620037be565b620002636200056136600462003513565b62002d43565b6200024a62000578366004620030ea565b62002db8565b6200022062002eac565b600081600160a060020a031663922962996040518163ffffffff1660e060020a02815260040160206040518083038186803b158015620005c757600080fd5b505afa158015620005dc573d6000803e3d6000fd5b505050506040513d601f19601f820116820180604052508101906200060291906200352d565b92915050565b60053360009081526002602052604090206003015460ff16600881111562000634576200063462003ab6565b14620006605760405160e560020a62461bcd0281526004016200065790620038ef565b60405180910390fd5b6006600160a060020a03831660009081526002602052604090206003015460ff16600881111562000695576200069562003ab6565b14620006da5760405160e560020a62461bcd02815260206004820152600d6024820152609860020a6c504841524d415f4e545f52454702604482015260640162000657565b6002600160a060020a03821660009081526002602052604090206003015460ff1660088111156200070f576200070f62003ab6565b14620007325760405160e560020a62461bcd028152600401620006579062003958565b82600160a060020a03166373b037db6040518163ffffffff1660e060020a02815260040160206040518083038186803b1580156200076f57600080fd5b505afa15801562000784573d6000803e3d6000fd5b505050506040513d601f19601f82011682018060405250810190620007aa91906200352d565b600214620007fe5760405160e560020a62461bcd02815260206004820152601e60248201527f5061636b616765206d757374206265206174204469737472696275746f720000604482015260640162000657565b600083338385604051620008129062002f11565b600160a060020a039485168152928416602084015290831660408301529091166060820152608001604051809103906000f08015801562000857573d6000803e3d6000fd5b503360009081526008602090815260408083208054600181018255908452828420018054600160a060020a03808716600160a060020a031992831681179093558a8116865260099094529382902080549094168117909355519293509091848216918616907f50bf7231449b93ffe1b35cd454fecbae3fe675b9da334b28fef1883552293bd590620008eb908990620036c2565b60405180910390a450505050565b600060033360009081526002602052604090206003015460ff16600881111562000927576200092762003ab6565b146200094a5760405160e560020a62461bcd028152600401620006579062003981565b3360009081526006602052604090208054839081106200096e576200096e62003ad0565b600091825260209091200154600160a060020a031690505b919050565b600060033360009081526002602052604090206003015460ff166008811115620009b957620009b962003ab6565b14620009dc5760405160e560020a62461bcd028152600401620006579062003981565b3360009081526005602052604090208054839081106200096e576200096e62003ad0565b606060083360009081526002602052604090206003015460ff16600881111562000a2e5762000a2e62003ab6565b1462000a515760405160e560020a62461bcd028152600401620006579062003937565b6001805480602002602001604051908101604052809291908181526020016000905b8282101562000cc45760008481526020908190206040805160a08101909152600585029091018054600160a060020a03168252600181018054929391929184019162000abf9062003a47565b80601f016020809104026020016040519081016040528092919081815260200182805462000aed9062003a47565b801562000b3e5780601f1062000b125761010080835404028352916020019162000b3e565b820191906000526020600020905b81548152906001019060200180831162000b2057829003601f168201915b5050505050815260200160028201805462000b599062003a47565b80601f016020809104026020016040519081016040528092919081815260200182805462000b879062003a47565b801562000bd85780601f1062000bac5761010080835404028352916020019162000bd8565b820191906000526020600020905b81548152906001019060200180831162000bba57829003601f168201915b5050509183525050600382015460209091019060ff16600881111562000c025762000c0262003ab6565b600881111562000c165762000c1662003ab6565b815260200160048201805462000c2c9062003a47565b80601f016020809104026020016040519081016040528092919081815260200182805462000c5a9062003a47565b801562000cab5780601f1062000c7f5761010080835404028352916020019162000cab565b820191906000526020600020905b81548152906001019060200180831162000c8d57829003601f168201915b5050505050815250508152602001906001019062000a73565b50505050905090565b600060053360009081526002602052604090206003015460ff16600881111562000cfb5762000cfb62003ab6565b1462000d1e5760405160e560020a62461bcd0281526004016200065790620038ef565b50600160a060020a039081166000908152600960205260409020541690565b600060053360009081526002602052604090206003015460ff16600881111562000d6b5762000d6b62003ab6565b1462000d8e5760405160e560020a62461bcd0281526004016200065790620038ef565b3360009081526008602052604090208054839081106200096e576200096e62003ad0565b60083360009081526002602052604090206003015460ff16600881111562000dde5762000dde62003ab6565b1462000e015760405160e560020a62461bcd028152600401620006579062003937565b600160a060020a03808616600081815260026020526040902054909116141562000e605760405160e560020a62461bcd028152602060048201526009602482015260ba60020a681554d497d1561254d502604482015260640162000657565b62000e6a62002f1f565b600160a060020a0386168152602081018590526040810184905282600881111562000e995762000e9962003ab6565b8160600190600881111562000eb25762000eb262003ab6565b9081600881111562000ec85762000ec862003ab6565b90525060808101829052600160a060020a03868116600090815260026020908152604090912083518154600160a060020a031916931692909217825580830151805184939262000f2092600185019291019062002f6b565b506040820151805162000f3e91600284019160209091019062002f6b565b50606082015160038201805460ff1916600183600881111562000f655762000f6562003ab6565b02179055506080820151805162000f8791600484019160209091019062002f6b565b505081516003805460018082019092557fc2575a0e9e593c00f959f8c92f12db2869c3395a3b0502d05e2516446f71f85b018054600160a060020a0319908116600160a060020a03948516179091558154808301835560009290925284517fb10e2d527612073b26eecdfd717e6a320cf44b4afac2b0732d9fcbe2b7fa0cf6600590930292830180549092169316929092178255602080850151805186955062001059937fb10e2d527612073b26eecdfd717e6a320cf44b4afac2b0732d9fcbe2b7fa0cf70192919091019062002f6b565b50604082015180516200107791600284019160209091019062002f6b565b50606082015160038201805460ff191660018360088111156200109e576200109e62003ab6565b021790555060808201518051620010c091600484019160209091019062002f6b565b50505085600160a060020a0316600080516020620057e483398151915286604051620010ed919062003872565b60405180910390a2505050505050565b60083360009081526002602052604090206003015460ff16600881111562001129576200112962003ab6565b146200114c5760405160e560020a62461bcd028152600401620006579062003937565b600160a060020a03808316600081815260026020526040902054909116146200118c5760405160e560020a62461bcd028152600401620006579062003910565b6000620011998362001665565b9050816008811115620011b057620011b062003ab6565b81606001906008811115620011c957620011c962003ab6565b90816008811115620011df57620011df62003ab6565b905250600160a060020a03838116600090815260026020908152604090912083518154600160a060020a03191693169290921782558281015180518493926200123092600185019291019062002f6b565b50604082015180516200124e91600284019160209091019062002f6b565b50606082015160038201805460ff1916600183600881111562001275576200127562003ab6565b0217905550608082015180516200129791600484019160209091019062002f6b565b5090505082600160a060020a03167f5a2f045370e4381799dd282fd5f3a534028572dc56a8e9ff1f6184b575e584ef826020015183606001516008811115620012e457620012e462003ab6565b604051620012f492919062003887565b60405180910390a2505050565b60023360009081526002602052604090206003015460ff1660088111156200132d576200132d62003ab6565b146200136a5760405160e560020a62461bcd028152602060048201526005602482015260d960020a6427aa21a19702604482015260640162000657565b60008211620013bc5760405160e560020a62461bcd0281526020600482015260176024820152604860020a76446566696e65205472616e73706f72746572207479706502604482015260640162000657565b8160011415620014305760405160e160020a635c109907028152600160a060020a0384169063b821320e90620013f7903390600401620036c2565b600060405180830381600087803b1580156200141257600080fd5b505af115801562001427573d6000803e3d6000fd5b50505050505050565b81600214156200146b5760405160e060020a639a305a47028152600160a060020a03841690639a305a4790620013f7903390600401620036c2565b8160031415620014a85760405160e060020a63b12144cb028152600160a060020a0382169063b12144cb90620013f79086903390600401620036d6565b505050565b600060053360009081526002602052604090206003015460ff166008811115620014db57620014db62003ab6565b14620014fe5760405160e560020a62461bcd0281526004016200065790620038ef565b503360009081526007602052604090205490565b60083360009081526002602052604090206003015460ff1660088111156200153e576200153e62003ab6565b14620015615760405160e560020a62461bcd028152600401620006579062003937565b600160a060020a0380821660008181526002602052604090205490911614620015a15760405160e560020a62461bcd028152600401620006579062003910565b6040805180820182526008815260c060020a67496e616374697665026020808301918252600160a060020a03851660009081526002909152929092209051620015f1926004909201919062002f6b565b50620015fd81620028d3565b50565b600060013360009081526002602052604090206003015460ff1660088111156200162e576200162e62003ab6565b14620016515760405160e560020a62461bcd0281526004016200065790620038cc565b503360009081526004602052604090205490565b6200166f62002f1f565b600160a060020a03808316600090815260026020908152604091829020825160a081019093528054909316825260018301805492939291840191620016b49062003a47565b80601f0160208091040260200160405190810160405280929190818152602001828054620016e29062003a47565b8015620017335780601f10620017075761010080835404028352916020019162001733565b820191906000526020600020905b8154815290600101906020018083116200171557829003601f168201915b505050505081526020016002820180546200174e9062003a47565b80601f01602080910402602001604051908101604052809291908181526020018280546200177c9062003a47565b8015620017cd5780601f10620017a157610100808354040283529160200191620017cd565b820191906000526020600020905b815481529060010190602001808311620017af57829003601f168201915b5050509183525050600382015460209091019060ff166008811115620017f757620017f762003ab6565b60088111156200180b576200180b62003ab6565b8152602001600482018054620018219062003a47565b80601f01602080910402602001604051908101604052809291908181526020018280546200184f9062003a47565b8015620018a05780601f106200187457610100808354040283529160200191620018a0565b820191906000526020600020905b8154815290600101906020018083116200188257829003601f168201915b5050505050815250509050919050565b60083360009081526002602052604090206003015460ff166008811115620018dc57620018dc62003ab6565b14620018ff5760405160e560020a62461bcd028152600401620006579062003937565b600160a060020a03808616600081815260026020526040902054909116146200193f5760405160e560020a62461bcd028152600401620006579062003910565b600160a060020a03851660009081526002602090815260409091208551620019709260019092019187019062002f6b565b50600160a060020a03851660009081526002602081815260409092208551620019a29391909201919086019062002f6b565b50816008811115620019b857620019b862003ab6565b600160a060020a0386166000908152600260205260409020600301805460ff19166001836008811115620019f057620019f062003ab6565b0217905550600160a060020a0385166000908152600260209081526040909120825162001a269260049092019184019062002f6b565b506000805b60015481101562001a905786600160a060020a03166001828154811062001a565762001a5662003ad0565b6000918252602090912060059091020154600160a060020a0316141562001a7b578091505b8062001a878162003a88565b91505062001a2b565b50846001828154811062001aa85762001aa862003ad0565b9060005260206000209060050201600101908051906020019062001ace92919062002f6b565b50836001828154811062001ae65762001ae662003ad0565b9060005260206000209060050201600201908051906020019062001b0c92919062002f6b565b5082600881111562001b225762001b2262003ab6565b6001828154811062001b385762001b3862003ad0565b60009182526020909120600360059092020101805460ff1916600183600881111562001b685762001b6862003ab6565b0217905550816001828154811062001b845762001b8462003ad0565b9060005260206000209060050201600401908051906020019062001baa92919062002f6b565b5085600160a060020a0316600080516020620057e483398151915286604051620010ed919062003872565b60033360009081526002602052604090206003015460ff16600881111562001c015762001c0162003ab6565b1462001c245760405160e560020a62461bcd028152600401620006579062003981565b6002600160a060020a03831660009081526002602052604090206003015460ff16600881111562001c595762001c5962003ab6565b1462001c7c5760405160e560020a62461bcd028152600401620006579062003958565b60003387868887878760405162001c939062002ffa565b62001ca59796959493929190620036f0565b604051809103906000f08015801562001cc2573d6000803e3d6000fd5b509050600081600160a060020a031663b25373c96040518163ffffffff1660e060020a02815260040160206040518083038186803b15801562001d0457600080fd5b505afa15801562001d19573d6000803e3d6000fd5b505050506040513d601f19601f8201168201806040525081019062001d3f91906200310a565b336000818152600660209081526040808320805460018101825590845291909220018054600160a060020a031916600160a060020a0387811691909117909155905192935086811692908416907fb241f809dbf346af1259c62e2d37aba1e53283fe7390a8aeda6a96283e5d4f339062001dbb908890620036c2565b60405180910390a45050505050505050565b60063360009081526002602052604090206003015460ff16600881111562001df95762001df962003ab6565b1462001e1c5760405160e560020a62461bcd0281526004016200065790620038ab565b60405160e160020a6333153429028152600160a060020a0383169063662a68529062001e4f9086903390600401620036d6565b600060405180830381600087803b15801562001e6a57600080fd5b505af115801562001e7f573d6000803e3d6000fd5b5050336000908152600a60209081526040822080546001810182559083529120018054600160a060020a031916600160a060020a03871617905550819050600481111562001ed15762001ed162003ab6565b600160a060020a0384166000908152600b60205260409020805460ff1916600183600481111562001f065762001f0662003ab6565b0217905550505050565b600060063360009081526002602052604090206003015460ff16600881111562001f3e5762001f3e62003ab6565b1462001f615760405160e560020a62461bcd0281526004016200065790620038ab565b600160a060020a0382166000908152600b602052604090205460ff16600481111562000602576200060262003ab6565b600060033360009081526002602052604090206003015460ff16600881111562001fbf5762001fbf62003ab6565b1462001fe25760405160e560020a62461bcd028152600401620006579062003981565b503360009081526006602052604090205490565b600054600160a060020a0316331462000e015760405160e560020a62461bcd0281526004016200065790602080825260049082015260e060020a634f57434302604082015260600190565b600081600160a060020a03166373b037db6040518163ffffffff1660e060020a02815260040160206040518083038186803b158015620005c757600080fd5b600060013360009081526002602052604090206003015460ff166008811115620020ae57620020ae62003ab6565b14620020d15760405160e560020a62461bcd0281526004016200065790620038cc565b3360009081526004602052604090208054839081106200096e576200096e62003ad0565b600181815481106200210657600080fd5b600091825260209091206005909102018054600182018054600160a060020a03909216935090620021379062003a47565b80601f0160208091040260200160405190810160405280929190818152602001828054620021659062003a47565b8015620021b65780601f106200218a57610100808354040283529160200191620021b6565b820191906000526020600020905b8154815290600101906020018083116200219857829003601f168201915b505050505090806002018054620021cd9062003a47565b80601f0160208091040260200160405190810160405280929190818152602001828054620021fb9062003a47565b80156200224c5780601f1062002220576101008083540402835291602001916200224c565b820191906000526020600020905b8154815290600101906020018083116200222e57829003601f168201915b5050506003840154600485018054949560ff909216949193509150620022729062003a47565b80601f0160208091040260200160405190810160405280929190818152602001828054620022a09062003a47565b8015620022f15780601f10620022c557610100808354040283529160200191620022f1565b820191906000526020600020905b815481529060010190602001808311620022d357829003601f168201915b5050505050905085565b60083360009081526002602052604090206003015460ff16600881111562002327576200232762003ab6565b146200234a5760405160e560020a62461bcd028152600401620006579062003937565b600160a060020a03808216600081815260026020526040902054909116146200238a5760405160e560020a62461bcd028152600401620006579062003910565b6000620023978262001665565b60076060820152600160a060020a03838116600090815260026020908152604090912083518154600160a060020a03191693169290921782558083015180519394508493620023ed926001850192019062002f6b565b50604082015180516200240b91600284019160209091019062002f6b565b50606082015160038201805460ff1916600183600881111562002432576200243262003ab6565b0217905550608082015180516200245491600484019160209091019062002f6b565b5090505081600160a060020a03167f18a4c0aa2d0b9e55cfd3c133652630cc693f845135ba74f56f45c8d38910ce5c826020015183606001516008811115620024a157620024a162003ab6565b604051620024b192919062003887565b60405180910390a25050565b600060063360009081526002602052604090206003015460ff166008811115620024eb57620024eb62003ab6565b146200250e5760405160e560020a62461bcd0281526004016200065790620038ab565b336000908152600a602052604090208054839081106200096e576200096e62003ad0565b60063360009081526002602052604090206003015460ff1660088111156200255e576200255e62003ab6565b14620025815760405160e560020a62461bcd0281526004016200065790620038ab565b6001600160a060020a0383166000908152600b602052604090205460ff166004811115620025b357620025b362003ab6565b14620025f65760405160e560020a62461bcd02815260206004820152600b602482015260ac60020a6a04d5f4d5553545f41545f502604482015260640162000657565b8060048111156200260b576200260b62003ab6565b600160a060020a0383166000908152600b60205260409020805460ff1916600183600481111562002640576200264062003ab6565b021790555060408051600160a060020a03841681526020810183905233917f39d780ba2fe191afdd34b4fad3d9437f444a40cd591e644428260feb507076aa9101620024b1565b60053360009081526002602052604090206003015460ff166008811115620026b357620026b362003ab6565b14620026d65760405160e560020a62461bcd0281526004016200065790620038ef565b60405160e060020a633787fb3d028152600160a060020a03821690633787fb3d9062002707903390600401620036c2565b600060405180830381600087803b1580156200272257600080fd5b505af115801562002737573d6000803e3d6000fd5b5050336000908152600760209081526040822080546001810182559083529120018054600160a060020a031916600160a060020a0394909416939093179092555050565b600060033360009081526002602052604090206003015460ff166008811115620027a957620027a962003ab6565b14620027cc5760405160e560020a62461bcd028152600401620006579062003981565b81600160a060020a03166373b037db6040518163ffffffff1660e060020a02815260040160206040518083038186803b158015620005c757600080fd5b600060063360009081526002602052604090206003015460ff16600881111562002837576200283762003ab6565b146200285a5760405160e560020a62461bcd0281526004016200065790620038ab565b50336000908152600a602052604090205490565b600060033360009081526002602052604090206003015460ff1660088111156200289c576200289c62003ab6565b14620028bf5760405160e560020a62461bcd028152600401620006579062003981565b503360009081526005602052604090205490565b6000805b6001548110156200293c5782600160a060020a03166001828154811062002902576200290262003ad0565b6000918252602090912060059091020154600160a060020a0316141562002927578091505b80620029338162003a88565b915050620028d7565b5060405180604001604052806008815260200160c060020a67496e616374697665028152506001828154811062002977576200297762003ad0565b90600052602060002090600502016004019080519060200190620014a892919062002f6b565b620029a762002f1f565b600160a060020a0380841660008181526002602052604090205490911614620029e75760405160e560020a62461bcd028152600401620006579062003910565b81805190602001206002600085600160a060020a0316600160a060020a0316815260200190815260200160002060010160405162002a2691906200361b565b60405180910390201462002a515760405160e560020a62461bcd028152600401620006579062003910565b6040805180820182526006815260d060020a6541637469766502602091820152600160a060020a0385166000908152600290915281902090517ff07b88471cd28dc438f2291190512bd968fbd79b8c86b9ed015e51c1261d911f9162002abd916004909101906200361b565b60405180910390201462002b0a5760405160e560020a62461bcd02815260206004820152600d6024820152609860020a6c5553525f4e545f41435449564502604482015260640162000657565b62002b158362001665565b9392505050565b60013360009081526002602052604090206003015460ff16600881111562002b485762002b4862003ab6565b1462002b6b5760405160e560020a62461bcd0281526004016200065790620038cc565b60003387878787878760405162002b829062003008565b62002b949796959493929190620037be565b604051809103906000f08015801562002bb1573d6000803e3d6000fd5b509050600081600160a060020a031663f6f1bf666040518163ffffffff1660e060020a02815260040160206040518083038186803b15801562002bf357600080fd5b505afa15801562002c08573d6000803e3d6000fd5b505050506040513d601f19601f8201168201806040525081019062002c2e91906200310a565b336000818152600460209081526040808320805460018101825590845291909220018054600160a060020a031916600160a060020a0385811691821790925591519394508716927f728267d54f823d734daeb96ba05b79fcaea723977ba2f95b1036694d36e547c99062001dbb908890620036c2565b60006060806060600080600087600160a060020a031663b1767f876040518163ffffffff1660e060020a02815260040160006040518083038186803b15801562002ced57600080fd5b505afa15801562002d02573d6000803e3d6000fd5b505050506040513d6000823e601f3d908101601f1916820160405262002d2c919081019062003217565b959e949d50929b5090995097509550909350915050565b600060053360009081526002602052604090206003015460ff16600881111562002d715762002d7162003ab6565b1462002d945760405160e560020a62461bcd0281526004016200065790620038ef565b3360009081526007602052604090208054839081106200096e576200096e62003ad0565b60033360009081526002602052604090206003015460ff16600881111562002de45762002de462003ab6565b1462002e075760405160e560020a62461bcd028152600401620006579062003981565b60405160e160020a634a9c7001028152600160a060020a03821690639538e0029062002e38903390600401620036c2565b600060405180830381600087803b15801562002e5357600080fd5b505af115801562002e68573d6000803e3d6000fd5b5050336000908152600560209081526040822080546001810182559083529120018054600160a060020a031916600160a060020a0394909416939093179092555050565b600060053360009081526002602052604090206003015460ff16600881111562002eda5762002eda62003ab6565b1462002efd5760405160e560020a62461bcd0281526004016200065790620038ef565b503360009081526008602052604090205490565b6105bb8062003b1b83390190565b6040518060a001604052806000600160a060020a0316815260200160608152602001606081526020016000600881111562002f5e5762002f5e62003ab6565b8152602001606081525090565b82805462002f799062003a47565b90600052602060002090601f01602090048101928262002f9d576000855562002fe8565b82601f1062002fb857805160ff191683800117855562002fe8565b8280016001018555821562002fe8579182015b8281111562002fe857825182559160200191906001019062002fcb565b5062002ff692915062003016565b5090565b610c9b80620040d683390190565b610a738062004d7183390190565b5b8082111562002ff6576000815560010162003017565b8051620009868162003b04565b600082601f8301126200304c57600080fd5b8135620030636200305d82620039ea565b620039b7565b8181528460208386010111156200307957600080fd5b816020850160208301376000918101602001919091529392505050565b600082601f830112620030a857600080fd5b8151620030b96200305d82620039ea565b818152846020838601011115620030cf57600080fd5b620030e282602083016020870162003a14565b949350505050565b600060208284031215620030fd57600080fd5b813562002b158162003b04565b6000602082840312156200311d57600080fd5b815162002b158162003b04565b6000806000606084860312156200314057600080fd5b83356200314d8162003b04565b925060208401356200315f8162003b04565b91506040840135620031718162003b04565b809150509250925092565b6000806000606084860312156200319257600080fd5b83356200319f8162003b04565b92506020840135620031b18162003b04565b929592945050506040919091013590565b60008060408385031215620031d657600080fd5b8235620031e38162003b04565b915060208301356001604060020a03811115620031ff57600080fd5b6200320d858286016200303a565b9150509250929050565b600080600080600080600060e0888a0312156200323357600080fd5b8751620032408162003b04565b60208901519097506001604060020a03808211156200325e57600080fd5b6200326c8b838c0162003096565b975060408a01519150808211156200328357600080fd5b620032918b838c0162003096565b965060608a0151915080821115620032a857600080fd5b50620032b78a828b0162003096565b9450506080880151925060a0880151620032d18162003b04565b9150620032e160c089016200302d565b905092959891949750929550565b60008060008060008060c087890312156200330957600080fd5b8635620033168162003b04565b955060208701356001604060020a03808211156200333357600080fd5b620033418a838b016200303a565b965060408901359150808211156200335857600080fd5b506200336789828a016200303a565b945050606087013592506080870135620033818162003b04565b915060a0870135620033938162003b04565b809150509295509295509295565b600080600080600060a08688031215620033ba57600080fd5b8535620033c78162003b04565b945060208601356001604060020a0380821115620033e457600080fd5b620033f289838a016200303a565b955060408801359150808211156200340957600080fd5b6200341789838a016200303a565b94506060880135935060808801359150808211156200343557600080fd5b5062003444888289016200303a565b9150509295509295909350565b600080604083850312156200346557600080fd5b8235620034728162003b04565b946020939093013593505050565b6000806000606084860312156200349657600080fd5b8335620034a38162003b04565b9250602084013591506040840135620031718162003b04565b60008060008060008060c08789031215620034d657600080fd5b86356001604060020a0380821115620034ee57600080fd5b620034fc8a838b016200303a565b975060208901359150808211156200333357600080fd5b6000602082840312156200352657600080fd5b5035919050565b6000602082840312156200354057600080fd5b5051919050565b600981106200356a5760e060020a634e487b710260009081526021600452602490fd5b9052565b600081518084526200358881602086016020860162003a14565b601f01601f19169290920160200192915050565b600160a060020a0381511682526000602082015160a06020850152620035c660a08501826200356e565b905060408301518482036040860152620035e182826200356e565b9150506060830151620035f8606086018262003547565b50608083015184820360808601526200361282826200356e565b95945050505050565b81546000908190600281046001808316806200363857607f831692505b60208084108214156200365c5760e060020a634e487b710286526022600452602486fd5b8180156200367357600181146200368557620036b4565b60ff19861689528489019650620036b4565b60008a81526020902060005b86811015620036ac5781548b82015290850190830162003691565b505084890196505b509498975050505050505050565b600160a060020a0391909116815260200190565b600160a060020a0392831681529116602082015260400190565b6000600160a060020a03808a168352808916602084015260e060408401526200371d60e08401896200356e565b83810360608501526200373181896200356e565b60808501979097525093841660a083015250911660c090910152949350505050565b600160a060020a038616815260a06020820181905260009062003779908301876200356e565b82810360408401526200378d81876200356e565b90506200379e606084018662003547565b8281036080840152620037b281856200356e565b98975050505050505050565b6000600160a060020a03808a16835260e06020840152620037e360e084018a6200356e565b8381036040850152620037f7818a6200356e565b905083810360608501526200373181896200356e565b600060208083018184528085518083526040860191506040848202870101925083870160005b828110156200386557603f19888603018452620038528583516200359c565b9450928501929085019060010162003833565b5092979650505050505050565b60208152600062002b1560208301846200356e565b6040815260006200389c60408301856200356e565b90508260208301529392505050565b602080825260049082015260e060020a634f50434302604082015260600190565b602080825260069082015260d060020a654f524d53434302604082015260600190565b602080825260049082015260e060020a634f44434302604082015260600190565b6020808252600a9082015260b060020a695553525f4e545f52454702604082015260600190565b602080825260049082015260e060020a634f41434302604082015260600190565b6020808252600c9082015260a060020a6b5452414e535f4e545f52454702604082015260600190565b602080825260049082015260e060020a634f4d434302604082015260600190565b60208152600062002b1560208301846200359c565b604051601f8201601f191681016001604060020a0381118282101715620039e257620039e262003aea565b604052919050565b60006001604060020a0382111562003a065762003a0662003aea565b50601f01601f191660200190565b60005b8381101562003a3157818101518382015260200162003a17565b8381111562003a41576000848401525b50505050565b60028104600182168062003a5c57607f821691505b6020821081141562003a825760e060020a634e487b710260009081526022600452602490fd5b50919050565b600060001982141562003aaf5760e060020a634e487b710260009081526011600452602490fd5b5060010190565b60e060020a634e487b710260009081526021600452602490fd5b60e060020a634e487b710260009081526032600452602490fd5b60e060020a634e487b710260009081526041600452602490fd5b600160a060020a0381168114620015fd57600080fdfe608060405234801561001057600080fd5b506040516105bb3803806105bb83398101604081905261002f916100e0565b60008054600160a060020a0319908116600160a060020a038681169182178455600180548416898316179055600380548416909217909155600480548316858316179055600280549092169085161790556004805460a060020a60ff021916740100000000000000000000000000000000000000008360028111156100b6576100b6610134565b021790555050505050610163565b8051600160a060020a03811681146100db57600080fd5b919050565b600080600080608085870312156100f657600080fd5b6100ff856100c4565b935061010d602086016100c4565b925061011b604086016100c4565b9150610129606086016100c4565b905092959194509250565b7f4e487b7100000000000000000000000000000000000000000000000000000000600052602160045260246000fd5b610449806101726000396000f3fe608060405234801561001057600080fd5b506004361061004f5760e060020a6000350463662a68528114610054578063678dd11814610069578063b12144cb14610093578063e3837b04146100a6575b600080fd5b610067610062366004610386565b6100c6565b005b60045461007d9060a060020a900460ff1681565b60405161008a91906103cd565b60405180910390f35b6100676100a1366004610386565b610226565b6001546100b990600160a060020a031681565b60405161008a91906103b9565b600454600160a060020a038281169116146101165760405160e560020a62461bcd028152602060048201526005602482015260d860020a644f525043430260448201526064015b60405180910390fd5b600160045460a060020a900460ff166002811115610136576101366103f9565b146101aa5760405160e560020a62461bcd02815260206004820152603860248201527f4d65646963696e65207061636b616765206d75737420626520617420706861726044820152604160020a7736b0903132b337b9329039ba30ba3ab9903ab83230ba329702606482015260840161010d565b6004805460a160020a60a060020a60ff0219821617825560405160e060020a63b0323d63028152600160a060020a038581169363b0323d63936101f093921691016103b9565b600060405180830381600087803b15801561020a57600080fd5b505af115801561021e573d6000803e3d6000fd5b505050505050565b600254600160a060020a038281169116146102725760405160e560020a62461bcd02815260040161010d90602080825260049082015260e060020a634f53434302604082015260600190565b600060045460a060020a900460ff166002811115610292576102926103f9565b146103175760405160e560020a62461bcd02815260206004820152604360248201527f4d65646963696e65207061636b616765206d757374206265206174206469737460448201527f72696275746f72206265666f72652073686970706d656e7420746f2070686172606482015260e960020a6236b09702608482015260a40161010d565b6004805460a060020a60a060020a60ff0219821617825560405160e660020a630233ab91028152600160a060020a0384811693820193909352908216602482015290831690638ceae440906044016101f0565b8035600160a060020a038116811461038157600080fd5b919050565b6000806040838503121561039957600080fd5b6103a28361036a565b91506103b06020840161036a565b90509250929050565b600160a060020a0391909116815260200190565b60208101600383106103f35760e060020a634e487b710260009081526021600452602490fd5b91905290565b60e060020a634e487b710260009081526021600452602490fdfea26469706673582212200b2ccddc66f184974cd29f18ac978f52ec4abc3999d03d0be5e6f3138cb3b0c164736f6c6343000806003360806040523480156200001157600080fd5b5060405162000c9b38038062000c9b83398101604081905262000034916200026e565b60008054600160a060020a03808a16600160a060020a03199283161790925560058054928916928216929092179091556001805490911630179055845162000084906002906020880190620000f4565b5083516200009a906003906020870190620000f4565b5060049290925560068054600160a060020a0319908116600160a060020a0393841617909155600780549091169282169290921790915560098054600160a860020a031916959091169490941790935550620003b1915050565b82805462000102906200032c565b90600052602060002090601f01602090048101928262000126576000855562000171565b82601f106200014157805160ff191683800117855562000171565b8280016001018555821562000171579182015b828111156200017157825182559160200191906001019062000154565b506200017f92915062000183565b5090565b5b808211156200017f576000815560010162000184565b8051600160a060020a0381168114620001b257600080fd5b919050565b600082601f830112620001c957600080fd5b81516001604060020a0380821115620001e657620001e662000382565b604051601f8301601f19908116603f0116810190828211818310171562000211576200021162000382565b816040528381526020925086838588010111156200022e57600080fd5b600091505b8382101562000252578582018301518183018401529082019062000233565b83821115620002645760008385830101525b9695505050505050565b600080600080600080600060e0888a0312156200028a57600080fd5b62000295886200019a565b9650620002a5602089016200019a565b955060408801516001604060020a0380821115620002c257600080fd5b620002d08b838c01620001b7565b965060608a0151915080821115620002e757600080fd5b50620002f68a828b01620001b7565b945050608088015192506200030e60a089016200019a565b91506200031e60c089016200019a565b905092959891949750929550565b6002810460018216806200034157607f821691505b602082108114156200037c577f4e487b7100000000000000000000000000000000000000000000000000000000600052602260045260246000fd5b50919050565b7f4e487b7100000000000000000000000000000000000000000000000000000000600052604160045260246000fd5b6108da80620003c16000396000f3fe608060405234801561001057600080fd5b50600436106100865760e060020a60003504633787fb3d811461008b57806340019e5d146100a057806355309891146100ca578063678dd118146100e457806373b037db146101055780638ceae4401461011b5780639a305a471461012e578063b0323d6314610141578063b25373c914610154575b600080fd5b61009e6100993660046106b0565b610167565b005b600154600160a060020a03165b604051600160a060020a0390911681526020015b60405180910390f35b6100d2610250565b6040516100c196959493929190610752565b6009546100f89060a060020a900460ff1681565b6040516100c191906107a8565b61010d6103b2565b6040519081526020016100c1565b61009e6101293660046106d2565b6103d8565b61009e61013c3660046106b0565b6104b9565b61009e61014f3660046106b0565b610599565b6001546100ad90600160a060020a031681565b600754600160a060020a038281169116146101b75760405160e560020a62461bcd028152602060048201526005602482015260d860020a644f524443430260448201526064015b60405180910390fd5b600160095460a060020a900460ff1660048111156101d7576101d761086a565b146101f75760405160e560020a62461bcd0281526004016101ae90610803565b6009805460a060020a60ff02191660a160020a179055600654600554604051600160a060020a03848116938116921690600080516020610885833981519152906102459060029081906107d4565b60405180910390a450565b600954600554600454600654600280546000956060958695889586958695600160a060020a03958616959194600394908316939092169085906102929061082b565b80601f01602080910402602001604051908101604052809291908181526020018280546102be9061082b565b801561030b5780601f106102e05761010080835404028352916020019161030b565b820191906000526020600020905b8154815290600101906020018083116102ee57829003601f168201915b5050505050945083805461031e9061082b565b80601f016020809104026020016040519081016040528092919081815260200182805461034a9061082b565b80156103975780601f1061036c57610100808354040283529160200191610397565b820191906000526020600020905b81548152906001019060200180831161037a57829003601f168201915b50505050509350955095509550955095509550909192939495565b60095460009060a060020a900460ff1660048111156103d3576103d361086a565b905090565b600654600160a060020a038381169116146104085760405160e560020a62461bcd0281526004016101ae906107e2565b600260095460a060020a900460ff1660048111156104285761042861086a565b146104485760405160e560020a62461bcd0281526004016101ae90610803565b6009805460a060020a60ff02191660a060020a60030217905560088054600160a060020a031916600160a060020a03838116918217909255600154604051919285811692911690600080516020610885833981519152906104ad9060039081906107d4565b60405180910390a45050565b600654600160a060020a038281169116146104e95760405160e560020a62461bcd0281526004016101ae906107e2565b600060095460a060020a900460ff1660048111156105095761050961086a565b1461054a5760405160e560020a62461bcd02815260206004820152600b602482015260a860020a6a4d5f4d5553545f41545f4d0260448201526064016101ae565b6009805460a060020a60ff02191660a060020a17905560075460018054604051600160a060020a03938416938581169392169160008051602061088583398151915291610245916002916107d4565b600854600160a060020a038281169116146105e45760405160e560020a62461bcd028152602060048201526005602482015260d860020a644f525043430260448201526064016101ae565b600360095460a060020a900460ff1660048111156106045761060461086a565b146106455760405160e560020a62461bcd02815260206004820152600b602482015260ac60020a6a04d5f4d5553545f41545f50260448201526064016101ae565b6009805460a060020a60ff02191660a260020a179055600654600554604051600160a060020a0384811693811692169060008051602061088583398151915290610245906003906004906107d4565b8035600160a060020a03811681146106ab57600080fd5b919050565b6000602082840312156106c257600080fd5b6106cb82610694565b9392505050565b600080604083850312156106e557600080fd5b6106ee83610694565b91506106fc60208401610694565b90509250929050565b6000815180845260005b8181101561072b5760208185018101518683018201520161070f565b8181111561073d576000602083870101525b50601f01601f19169290920160200192915050565b6000600160a060020a03808916835260c0602084015261077560c0840189610705565b83810360408501526107878189610705565b968216606085015250608083019490945250911660a0909101529392505050565b60208101600583106107ce5760e060020a634e487b710260009081526021600452602490fd5b91905290565b918252602082015260400190565b602080825260049082015260e060020a634f53434302604082015260600190565b6020808252600b9082015260aa60020a6a1357d35554d517d05517d102604082015260600190565b60028104600182168061083f57607f821691505b602082108114156108645760e060020a634e487b710260009081526022600452602490fd5b50919050565b60e060020a634e487b710260009081526021600452602490fdfe7e89c4b1a4e2b51aae84eb1f90e8a34cb792ece5ac5cb63db4830c891220b28da264697066735822122072bc6a22b4e36660c9703e2699cf60424493d4328cb871b926702a2c758612f464736f6c6343000806003360806040523480156200001157600080fd5b5060405162000a7338038062000a73833981016040819052620000349162000272565b60008054600160a060020a038916600160a060020a0319918216179091556001805490911630179055855162000072906002906020890190620000f8565b50845162000088906003906020880190620000f8565b5083516200009e906004906020870190620000f8565b5060059290925560068054600160a060020a0319908116600160a060020a0393841617909155600780549091169282169290921790915560088054600160a860020a031916959091169490941790935550620003ca915050565b828054620001069062000345565b90600052602060002090601f0160209004810192826200012a576000855562000175565b82601f106200014557805160ff191683800117855562000175565b8280016001018555821562000175579182015b828111156200017557825182559160200191906001019062000158565b506200018392915062000187565b5090565b5b8082111562000183576000815560010162000188565b8051600160a060020a0381168114620001b657600080fd5b919050565b600082601f830112620001cd57600080fd5b81516001604060020a0380821115620001ea57620001ea6200039b565b604051601f8301601f19908116603f011681019082821181831017156200021557620002156200039b565b816040528381526020925086838588010111156200023257600080fd5b600091505b8382101562000256578582018301518183018401529082019062000237565b83821115620002685760008385830101525b9695505050505050565b600080600080600080600060e0888a0312156200028e57600080fd5b62000299886200019e565b965060208801516001604060020a0380821115620002b657600080fd5b620002c48b838c01620001bb565b975060408a0151915080821115620002db57600080fd5b620002e98b838c01620001bb565b965060608a01519150808211156200030057600080fd5b506200030f8a828b01620001bb565b945050608088015192506200032760a089016200019e565b91506200033760c089016200019e565b905092959891949750929550565b6002810460018216806200035a57607f821691505b6020821081141562000395577f4e487b7100000000000000000000000000000000000000000000000000000000600052602260045260246000fd5b50919050565b7f4e487b7100000000000000000000000000000000000000000000000000000000600052604160045260246000fd5b61069980620003da6000396000f3fe608060405234801561001057600080fd5b506004361061005a5760e060020a600035046392296299811461005f5780639538e0021461007a578063b1767f871461008f578063b821320e146100aa578063f6f1bf66146100bd575b600080fd5b6100676100d8565b6040519081526020015b60405180910390f35b61008d610088366004610502565b6100fe565b005b61009761020a565b604051610071979695949392919061057f565b61008d6100b8366004610502565b6103ff565b600154604051600160a060020a039091168152602001610071565b60085460009060a060020a900460ff1660028111156100f9576100f9610629565b905090565b600754600160a060020a0382811691161461014e5760405160e560020a62461bcd028152602060048201526005602482015260d860020a644f524d43430260448201526064015b60405180910390fd5b600160085460a060020a900460ff16600281111561016e5761016e610629565b146101b05760405160e560020a62461bcd02815260206004820152600c602482015260a060020a6b524d5f4d5553545f41545f4d026044820152606401610145565b6008805460a060020a60ff02191660a160020a179055600654600180546040805192835260026020840152600160a060020a038581169481169392169160008051602061064483398151915291015b60405180910390a450565b6008546005546006546007546002805460009560609586958695899586958695600160a060020a03908116959294600394600494939183169216908690610250906105ea565b80601f016020809104026020016040519081016040528092919081815260200182805461027c906105ea565b80156102c95780601f1061029e576101008083540402835291602001916102c9565b820191906000526020600020905b8154815290600101906020018083116102ac57829003601f168201915b505050505095508480546102dc906105ea565b80601f0160208091040260200160405190810160405280929190818152602001828054610308906105ea565b80156103555780601f1061032a57610100808354040283529160200191610355565b820191906000526020600020905b81548152906001019060200180831161033857829003601f168201915b50505050509450838054610368906105ea565b80601f0160208091040260200160405190810160405280929190818152602001828054610394906105ea565b80156103e15780601f106103b6576101008083540402835291602001916103e1565b820191906000526020600020905b8154815290600101906020018083116103c457829003601f168201915b50505050509350965096509650965096509650965090919293949596565b600654600160a060020a0382811691161461044b5760405160e560020a62461bcd02815260040161014590602080825260049082015260e060020a634f53434302604082015260600190565b600060085460a060020a900460ff16600281111561046b5761046b610629565b146104ad5760405160e560020a62461bcd02815260206004820152600c602482015260a060020a6b524d5f4d5553545f41545f53026044820152606401610145565b6008805460a060020a60ff02191660a060020a17905560075460018054604080518381526020810193909352600160a060020a03938416938581169392169160008051602061064483398151915291016101ff565b60006020828403121561051457600080fd5b8135600160a060020a038116811461052b57600080fd5b9392505050565b6000815180845260005b818110156105585760208185018101518683018201520161053c565b8181111561056a576000602083870101525b50601f01601f19169290920160200192915050565b6000600160a060020a03808a16835260e060208401526105a260e084018a610532565b83810360408501526105b4818a610532565b905083810360608501526105c88189610532565b60808501979097525093841660a083015250911660c090910152949350505050565b6002810460018216806105fe57607f821691505b602082108114156106235760e060020a634e487b710260009081526022600452602490fd5b50919050565b60e060020a634e487b710260009081526021600452602490fdfe7e89c4b1a4e2b51aae84eb1f90e8a34cb792ece5ac5cb63db4830c891220b28da2646970667358221220621e55c1a4fbbd6ed00eba018cb64a2002173a814d487894d184593749b08e4264736f6c6343000806003348cac28ad4dc618e15f4c2dd5e97751182f166de97b25618318b2112aa951a2fa264697066735822122070fa0cb23f086b6f633e2d754d7a2a0384960303ec752bf929722683c3ad600764736f6c63430008060033",
  "immutableReferences": {},
  "source": "// SPDX-License-Identifier: MIT\npragma solidity >=0.4.22 <0.9.0;\npragma experimental ABIEncoderV2;\n\nimport \"./Supplier.sol\";\nimport \"./Transporter.sol\";\nimport \"./Manufacturer.sol\";\nimport \"./Distributor.sol\";\nimport \"./Pharma.sol\";\n\ncontract SupplyChain is\n    Supplier,\n    Transporter,\n    Manufacturer,\n    Distributor,\n    Pharma\n{\n    constructor() {}\n}\n",
  "sourcePath": "C:/Development/Blockchain/Learning-2/contracts/SupplyChain.sol",
  "compiler": {
    "name": "solc",
    "version": "0.8.6+commit.11564f7e.Emscripten.clang"
  },
  "schemaVersion": "3.4.1",
  "updatedAt": "2021-07-07T13:26:49.500Z",
  "networkType": "ethereum",
  "devdoc": {
    "kind": "dev",
    "methods": {},
    "version": 1
  },
  "userdoc": {
    "kind": "user",
    "methods": {},
    "version": 1
  }
}