{
  "contractName": "Supplier",
  "abi": [
    {
      "anonymous": false,
      "inputs": [
        {
          "indexed": true,
          "internalType": "address",
          "name": "materialId",
          "type": "address"
        },
        {
          "indexed": true,
          "internalType": "address",
          "name": "supplier",
          "type": "address"
        },
        {
          "indexed": false,
          "internalType": "address",
          "name": "manufacturer",
          "type": "address"
        },
        {
          "indexed": true,
          "internalType": "address",
          "name": "shipper",
          "type": "address"
        },
        {
          "indexed": false,
          "internalType": "string",
          "name": "producerName",
          "type": "string"
        },
        {
          "indexed": false,
          "internalType": "string",
          "name": "description",
          "type": "string"
        },
        {
          "indexed": false,
          "internalType": "string",
          "name": "location",
          "type": "string"
        },
        {
          "indexed": false,
          "internalType": "uint256",
          "name": "quantity",
          "type": "uint256"
        },
        {
          "indexed": false,
          "internalType": "address",
          "name": "inspector",
          "type": "address"
        },
        {
          "indexed": false,
          "internalType": "uint256",
          "name": "packageStatus",
          "type": "uint256"
        }
      ],
      "name": "RawMaterialInitialize",
      "type": "event"
    },
    {
      "anonymous": false,
      "inputs": [
        {
          "indexed": false,
          "internalType": "address",
          "name": "materialId",
          "type": "address"
        },
        {
          "indexed": false,
          "internalType": "uint256",
          "name": "packageStatus",
          "type": "uint256"
        }
      ],
      "name": "UpdatedRawMaterialPackageStatus",
      "type": "event"
    },
    {
      "inputs": [
        {
          "internalType": "address",
          "name": "",
          "type": "address"
        },
        {
          "internalType": "uint256",
          "name": "",
          "type": "uint256"
        }
      ],
      "name": "MaterialShipmentList",
      "outputs": [
        {
          "internalType": "address",
          "name": "",
          "type": "address"
        }
      ],
      "stateMutability": "view",
      "type": "function"
    },
    {
      "inputs": [
        {
          "internalType": "address",
          "name": "",
          "type": "address"
        },
        {
          "internalType": "uint256",
          "name": "",
          "type": "uint256"
        }
      ],
      "name": "SupplierRegisteredRawMaterialList",
      "outputs": [
        {
          "internalType": "address",
          "name": "",
          "type": "address"
        }
      ],
      "stateMutability": "view",
      "type": "function"
    },
    {
      "inputs": [
        {
          "internalType": "address",
          "name": "",
          "type": "address"
        },
        {
          "internalType": "uint256",
          "name": "",
          "type": "uint256"
        }
      ],
      "name": "TaggedInspectorMaterialList",
      "outputs": [
        {
          "internalType": "address",
          "name": "",
          "type": "address"
        }
      ],
      "stateMutability": "view",
      "type": "function"
    },
    {
      "inputs": [
        {
          "internalType": "uint256",
          "name": "",
          "type": "uint256"
        }
      ],
      "name": "UserList",
      "outputs": [
        {
          "internalType": "address",
          "name": "userAddress",
          "type": "address"
        },
        {
          "internalType": "string",
          "name": "userName",
          "type": "string"
        },
        {
          "internalType": "string",
          "name": "userLocation",
          "type": "string"
        },
        {
          "internalType": "enum User.roles",
          "name": "userRole",
          "type": "uint8"
        },
        {
          "internalType": "string",
          "name": "userStatus",
          "type": "string"
        },
        {
          "internalType": "bool",
          "name": "isDeleted",
          "type": "bool"
        },
        {
          "internalType": "uint256",
          "name": "registrationDate",
          "type": "uint256"
        }
      ],
      "stateMutability": "view",
      "type": "function"
    },
    {
      "inputs": [
        {
          "internalType": "address",
          "name": "_address",
          "type": "address"
        }
      ],
      "name": "deleteUser",
      "outputs": [],
      "stateMutability": "nonpayable",
      "type": "function"
    },
    {
      "inputs": [],
      "name": "owner",
      "outputs": [
        {
          "internalType": "address",
          "name": "",
          "type": "address"
        }
      ],
      "stateMutability": "view",
      "type": "function"
    },
    {
      "inputs": [
        {
          "internalType": "address",
          "name": "_address",
          "type": "address"
        },
        {
          "internalType": "string",
          "name": "_name",
          "type": "string"
        },
        {
          "internalType": "string",
          "name": "_location",
          "type": "string"
        },
        {
          "internalType": "uint256",
          "name": "_role",
          "type": "uint256"
        },
        {
          "internalType": "string",
          "name": "_userStatus",
          "type": "string"
        }
      ],
      "name": "registerAdmin",
      "outputs": [],
      "stateMutability": "nonpayable",
      "type": "function"
    },
    {
      "inputs": [
        {
          "internalType": "address",
          "name": "_address",
          "type": "address"
        },
        {
          "internalType": "string",
          "name": "_name",
          "type": "string"
        },
        {
          "internalType": "string",
          "name": "_location",
          "type": "string"
        },
        {
          "internalType": "uint256",
          "name": "_role",
          "type": "uint256"
        },
        {
          "internalType": "string",
          "name": "_userStatus",
          "type": "string"
        }
      ],
      "name": "registerUser",
      "outputs": [],
      "stateMutability": "nonpayable",
      "type": "function"
    },
    {
      "inputs": [
        {
          "internalType": "address",
          "name": "_address",
          "type": "address"
        },
        {
          "internalType": "string",
          "name": "_location",
          "type": "string"
        },
        {
          "internalType": "string",
          "name": "_userStatus",
          "type": "string"
        }
      ],
      "name": "updateUser",
      "outputs": [],
      "stateMutability": "nonpayable",
      "type": "function"
    },
    {
      "inputs": [
        {
          "internalType": "string",
          "name": "_desc",
          "type": "string"
        },
        {
          "internalType": "string",
          "name": "_producerName",
          "type": "string"
        },
        {
          "internalType": "string",
          "name": "_location",
          "type": "string"
        },
        {
          "internalType": "uint256",
          "name": "_quantity",
          "type": "uint256"
        },
        {
          "internalType": "address",
          "name": "_transporter",
          "type": "address"
        },
        {
          "internalType": "address",
          "name": "_manufacturer",
          "type": "address"
        },
        {
          "internalType": "address",
          "name": "_inspector",
          "type": "address"
        }
      ],
      "name": "createRawMaterialPackage",
      "outputs": [],
      "stateMutability": "nonpayable",
      "type": "function"
    },
    {
      "inputs": [
        {
          "internalType": "address",
          "name": "_materialId",
          "type": "address"
        },
        {
          "internalType": "string",
          "name": "_desc",
          "type": "string"
        },
        {
          "internalType": "string",
          "name": "_producerName",
          "type": "string"
        },
        {
          "internalType": "string",
          "name": "_location",
          "type": "string"
        },
        {
          "internalType": "uint256",
          "name": "_quantity",
          "type": "uint256"
        },
        {
          "internalType": "address",
          "name": "_transporter",
          "type": "address"
        },
        {
          "internalType": "address",
          "name": "_manufacturer",
          "type": "address"
        },
        {
          "internalType": "address",
          "name": "_inspector",
          "type": "address"
        }
      ],
      "name": "updateRawMaterial",
      "outputs": [],
      "stateMutability": "nonpayable",
      "type": "function"
    },
    {
      "inputs": [
        {
          "internalType": "address",
          "name": "_materialId",
          "type": "address"
        },
        {
          "internalType": "address",
          "name": "_inspector",
          "type": "address"
        }
      ],
      "name": "sendMaterialPackageForInspection",
      "outputs": [],
      "stateMutability": "nonpayable",
      "type": "function"
    },
    {
      "inputs": [
        {
          "internalType": "address",
          "name": "_manufacturer",
          "type": "address"
        }
      ],
      "name": "getTotalMaterialPackagesShippedCount",
      "outputs": [
        {
          "internalType": "uint256",
          "name": "",
          "type": "uint256"
        }
      ],
      "stateMutability": "view",
      "type": "function"
    }
  ],
  "bytecode": "0x608060405234801561001057600080fd5b50336000806101000a81548173ffffffffffffffffffffffffffffffffffffffff021916908373ffffffffffffffffffffffffffffffffffffffff160217905550614781806100606000396000f3fe60806040523480156200001157600080fd5b5060043610620000ff576000357c0100000000000000000000000000000000000000000000000000000000900480638da5cb5b11620000b6578063babe1655116200008c578063babe16551462000252578063cbd58ba1146200028e578063f101938314620002c4578063f2bdb8f914620002e457620000ff565b80638da5cb5b14620001f0578063a00453c01462000212578063a0656b8c146200023257620000ff565b80630620ee8f146200010457806310e8b22d146200013a57806315f6d2c4146200015a5780633bb3ec9e14620001905780635c60f22614620001b0578063748130a714620001d0575b600080fd5b6200012260048036038101906200011c91906200214a565b6200031a565b60405162000131919062002b34565b60405180910390f35b620001586004803603810190620001529190620021c3565b62000366565b005b62000178600480360381019062000172919062002468565b62000775565b604051620001879190620027d5565b60405180910390f35b620001ae6004803603810190620001a8919062002383565b620007c4565b005b620001ce6004803603810190620001c891906200214a565b62000c95565b005b620001ee6004803603810190620001e89190620024e1565b62000f20565b005b620001fa6200115f565b604051620002099190620027d5565b60405180910390f35b6200023060048036038101906200022a919062002383565b62001183565b005b6200025060048036038101906200024a91906200225d565b62001626565b005b6200027060048036038101906200026a9190620025f1565b6200180f565b604051620002859796959493929190620027f2565b60405180910390f35b620002ac6004803603810190620002a6919062002468565b62001a4c565b604051620002bb9190620027d5565b60405180910390f35b620002e26004803603810190620002dc91906200217c565b62001a9b565b005b620003026004803603810190620002fc919062002468565b62001d83565b604051620003119190620027d5565b60405180910390f35b6000600460008373ffffffffffffffffffffffffffffffffffffffff1673ffffffffffffffffffffffffffffffffffffffff168152602001908152602001600020805490509050919050565b600860098111156200037d576200037c62002d81565b5b600260003373ffffffffffffffffffffffffffffffffffffffff1673ffffffffffffffffffffffffffffffffffffffff16815260200190815260200160002060030160009054906101000a900460ff166009811115620003e257620003e162002d81565b5b1462000425576040517f08c379a00000000000000000000000000000000000000000000000000000000081526004016200041c9062002aac565b60405180910390fd5b8273ffffffffffffffffffffffffffffffffffffffff16600260008573ffffffffffffffffffffffffffffffffffffffff1673ffffffffffffffffffffffffffffffffffffffff16815260200190815260200160002060000160009054906101000a900473ffffffffffffffffffffffffffffffffffffffff1673ffffffffffffffffffffffffffffffffffffffff1614620004f8576040517f08c379a0000000000000000000000000000000000000000000000000000000008152600401620004ef9062002a8a565b60405180910390fd5b60001515600260008573ffffffffffffffffffffffffffffffffffffffff1673ffffffffffffffffffffffffffffffffffffffff16815260200190815260200160002060050160009054906101000a900460ff1615151462000591576040517f08c379a0000000000000000000000000000000000000000000000000000000008152600401620005889062002b12565b60405180910390fd5b81600260008573ffffffffffffffffffffffffffffffffffffffff1673ffffffffffffffffffffffffffffffffffffffff1681526020019081526020016000206002019080519060200190620005e992919062001f48565b5080600260008573ffffffffffffffffffffffffffffffffffffffff1673ffffffffffffffffffffffffffffffffffffffff16815260200190815260200160002060040190805190602001906200064292919062001f48565b50600080600090505b600180549050811015620006f0578473ffffffffffffffffffffffffffffffffffffffff166001828154811062000687576200068662002ddf565b5b906000526020600020906007020160000160009054906101000a900473ffffffffffffffffffffffffffffffffffffffff1673ffffffffffffffffffffffffffffffffffffffff161415620006da578091505b8080620006e79062002d04565b9150506200064b565b50826001828154811062000709576200070862002ddf565b5b906000526020600020906007020160020190805190602001906200072f92919062001f48565b50816001828154811062000748576200074762002ddf565b5b906000526020600020906007020160040190805190602001906200076e92919062001f48565b5050505050565b600360205281600052604060002081815481106200079257600080fd5b906000526020600020016000915091509054906101000a900473ffffffffffffffffffffffffffffffffffffffff1681565b60086009811115620007db57620007da62002d81565b5b600260003373ffffffffffffffffffffffffffffffffffffffff1673ffffffffffffffffffffffffffffffffffffffff16815260200190815260200160002060030160009054906101000a900460ff16600981111562000840576200083f62002d81565b5b1462000883576040517f08c379a00000000000000000000000000000000000000000000000000000000081526004016200087a9062002aac565b60405180910390fd5b8473ffffffffffffffffffffffffffffffffffffffff16600260008773ffffffffffffffffffffffffffffffffffffffff1673ffffffffffffffffffffffffffffffffffffffff16815260200190815260200160002060000160009054906101000a900473ffffffffffffffffffffffffffffffffffffffff1673ffffffffffffffffffffffffffffffffffffffff16141562000957576040517f08c379a00000000000000000000000000000000000000000000000000000000081526004016200094e9062002af0565b60405180910390fd5b6200096162001fd9565b85816000019073ffffffffffffffffffffffffffffffffffffffff16908173ffffffffffffffffffffffffffffffffffffffff1681525050848160200181905250838160400181905250826009811115620009c157620009c062002d81565b5b81606001906009811115620009db57620009da62002d81565b5b90816009811115620009f257620009f162002d81565b5b8152505081816080018190525060008160a0019015159081151581525050428160c001818152505080600260008873ffffffffffffffffffffffffffffffffffffffff1673ffffffffffffffffffffffffffffffffffffffff16815260200190815260200160002060008201518160000160006101000a81548173ffffffffffffffffffffffffffffffffffffffff021916908373ffffffffffffffffffffffffffffffffffffffff160217905550602082015181600101908051906020019062000abf92919062001f48565b50604082015181600201908051906020019062000ade92919062001f48565b5060608201518160030160006101000a81548160ff0219169083600981111562000b0d5762000b0c62002d81565b5b0217905550608082015181600401908051906020019062000b3092919062001f48565b5060a08201518160050160006101000a81548160ff02191690831515021790555060c08201518160060155905050600181908060018154018082558091505060019003906000526020600020906007020160009091909190915060008201518160000160006101000a81548173ffffffffffffffffffffffffffffffffffffffff021916908373ffffffffffffffffffffffffffffffffffffffff160217905550602082015181600101908051906020019062000bef92919062001f48565b50604082015181600201908051906020019062000c0e92919062001f48565b5060608201518160030160006101000a81548160ff0219169083600981111562000c3d5762000c3c62002d81565b5b0217905550608082015181600401908051906020019062000c6092919062001f48565b5060a08201518160050160006101000a81548160ff02191690831515021790555060c082015181600601555050505050505050565b6008600981111562000cac5762000cab62002d81565b5b600260003373ffffffffffffffffffffffffffffffffffffffff1673ffffffffffffffffffffffffffffffffffffffff16815260200190815260200160002060030160009054906101000a900460ff16600981111562000d115762000d1062002d81565b5b1462000d54576040517f08c379a000000000000000000000000000000000000000000000000000000000815260040162000d4b9062002aac565b60405180910390fd5b8073ffffffffffffffffffffffffffffffffffffffff16600260008373ffffffffffffffffffffffffffffffffffffffff1673ffffffffffffffffffffffffffffffffffffffff16815260200190815260200160002060000160009054906101000a900473ffffffffffffffffffffffffffffffffffffffff1673ffffffffffffffffffffffffffffffffffffffff161462000e27576040517f08c379a000000000000000000000000000000000000000000000000000000000815260040162000e1e9062002a8a565b60405180910390fd5b6040518060400160405280600881526020017f496e616374697665000000000000000000000000000000000000000000000000815250600260008373ffffffffffffffffffffffffffffffffffffffff1673ffffffffffffffffffffffffffffffffffffffff168152602001908152602001600020600401908051906020019062000eb492919062001f48565b506001600260008373ffffffffffffffffffffffffffffffffffffffff1673ffffffffffffffffffffffffffffffffffffffff16815260200190815260200160002060050160006101000a81548160ff02191690831515021790555062000f1d81600162001dd2565b50565b6001600981111562000f375762000f3662002d81565b5b600260003373ffffffffffffffffffffffffffffffffffffffff1673ffffffffffffffffffffffffffffffffffffffff16815260200190815260200160002060030160009054906101000a900460ff16600981111562000f9c5762000f9b62002d81565b5b1462000fdf576040517f08c379a000000000000000000000000000000000000000000000000000000000815260040162000fd69062002a68565b60405180910390fd5b6000338888888888888860405162000ff79062002043565b6200100a98979695949392919062002884565b604051809103906000f08015801562001027573d6000803e3d6000fd5b509050600360003373ffffffffffffffffffffffffffffffffffffffff1673ffffffffffffffffffffffffffffffffffffffff168152602001908152602001600020819080600181540180825580915050600190039060005260206000200160009091909190916101000a81548173ffffffffffffffffffffffffffffffffffffffff021916908373ffffffffffffffffffffffffffffffffffffffff1602179055508373ffffffffffffffffffffffffffffffffffffffff163373ffffffffffffffffffffffffffffffffffffffff168273ffffffffffffffffffffffffffffffffffffffff167fe023364325e8b9f2c66b00107b70fc4ab728f6c5cf7bfc4d1de4a486ce6b3a42868b8d8c8c8a60006040516200114d979695949392919062002927565b60405180910390a45050505050505050565b60008054906101000a900473ffffffffffffffffffffffffffffffffffffffff1681565b60008054906101000a900473ffffffffffffffffffffffffffffffffffffffff1673ffffffffffffffffffffffffffffffffffffffff163373ffffffffffffffffffffffffffffffffffffffff161462001214576040517f08c379a00000000000000000000000000000000000000000000000000000000081526004016200120b9062002ace565b60405180910390fd5b8473ffffffffffffffffffffffffffffffffffffffff16600260008773ffffffffffffffffffffffffffffffffffffffff1673ffffffffffffffffffffffffffffffffffffffff16815260200190815260200160002060000160009054906101000a900473ffffffffffffffffffffffffffffffffffffffff1673ffffffffffffffffffffffffffffffffffffffff161415620012e8576040517f08c379a0000000000000000000000000000000000000000000000000000000008152600401620012df9062002af0565b60405180910390fd5b620012f262001fd9565b85816000019073ffffffffffffffffffffffffffffffffffffffff16908173ffffffffffffffffffffffffffffffffffffffff168152505084816020018190525083816040018190525082600981111562001352576200135162002d81565b5b816060019060098111156200136c576200136b62002d81565b5b9081600981111562001383576200138262002d81565b5b8152505081816080018190525060008160a0019015159081151581525050428160c001818152505080600260008873ffffffffffffffffffffffffffffffffffffffff1673ffffffffffffffffffffffffffffffffffffffff16815260200190815260200160002060008201518160000160006101000a81548173ffffffffffffffffffffffffffffffffffffffff021916908373ffffffffffffffffffffffffffffffffffffffff16021790555060208201518160010190805190602001906200145092919062001f48565b5060408201518160020190805190602001906200146f92919062001f48565b5060608201518160030160006101000a81548160ff021916908360098111156200149e576200149d62002d81565b5b02179055506080820151816004019080519060200190620014c192919062001f48565b5060a08201518160050160006101000a81548160ff02191690831515021790555060c08201518160060155905050600181908060018154018082558091505060019003906000526020600020906007020160009091909190915060008201518160000160006101000a81548173ffffffffffffffffffffffffffffffffffffffff021916908373ffffffffffffffffffffffffffffffffffffffff16021790555060208201518160010190805190602001906200158092919062001f48565b5060408201518160020190805190602001906200159f92919062001f48565b5060608201518160030160006101000a81548160ff02191690836009811115620015ce57620015cd62002d81565b5b02179055506080820151816004019080519060200190620015f192919062001f48565b5060a08201518160050160006101000a81548160ff02191690831515021790555060c082015181600601555050505050505050565b600160098111156200163d576200163c62002d81565b5b600260003373ffffffffffffffffffffffffffffffffffffffff1673ffffffffffffffffffffffffffffffffffffffff16815260200190815260200160002060030160009054906101000a900460ff166009811115620016a257620016a162002d81565b5b14620016e5576040517f08c379a0000000000000000000000000000000000000000000000000000000008152600401620016dc9062002a68565b60405180910390fd5b8773ffffffffffffffffffffffffffffffffffffffff1663cf1287e18888888888886040518763ffffffff167c01000000000000000000000000000000000000000000000000000000000281526004016200174696959493929190620029e6565b600060405180830381600087803b1580156200176157600080fd5b505af115801562001776573d6000803e3d6000fd5b505050508273ffffffffffffffffffffffffffffffffffffffff163373ffffffffffffffffffffffffffffffffffffffff168973ffffffffffffffffffffffffffffffffffffffff167fe023364325e8b9f2c66b00107b70fc4ab728f6c5cf7bfc4d1de4a486ce6b3a42858a8c8b8b896000604051620017fd979695949392919062002927565b60405180910390a45050505050505050565b600181815481106200182057600080fd5b90600052602060002090600702016000915090508060000160009054906101000a900473ffffffffffffffffffffffffffffffffffffffff16908060010180546200186b9062002c98565b80601f0160208091040260200160405190810160405280929190818152602001828054620018999062002c98565b8015620018ea5780601f10620018be57610100808354040283529160200191620018ea565b820191906000526020600020905b815481529060010190602001808311620018cc57829003601f168201915b505050505090806002018054620019019062002c98565b80601f01602080910402602001604051908101604052809291908181526020018280546200192f9062002c98565b8015620019805780601f10620019545761010080835404028352916020019162001980565b820191906000526020600020905b8154815290600101906020018083116200196257829003601f168201915b5050505050908060030160009054906101000a900460ff1690806004018054620019aa9062002c98565b80601f0160208091040260200160405190810160405280929190818152602001828054620019d89062002c98565b801562001a295780601f10620019fd5761010080835404028352916020019162001a29565b820191906000526020600020905b81548152906001019060200180831162001a0b57829003601f168201915b5050505050908060050160009054906101000a900460ff16908060060154905087565b6005602052816000526040600020818154811062001a6957600080fd5b906000526020600020016000915091509054906101000a900473ffffffffffffffffffffffffffffffffffffffff1681565b6001600981111562001ab25762001ab162002d81565b5b600260003373ffffffffffffffffffffffffffffffffffffffff1673ffffffffffffffffffffffffffffffffffffffff16815260200190815260200160002060030160009054906101000a900460ff16600981111562001b175762001b1662002d81565b5b1462001b5a576040517f08c379a000000000000000000000000000000000000000000000000000000000815260040162001b519062002a68565b60405180910390fd5b60008273ffffffffffffffffffffffffffffffffffffffff166309eb029c6040518163ffffffff167c0100000000000000000000000000000000000000000000000000000000028152600401602060405180830381600087803b15801562001bc157600080fd5b505af115801562001bd6573d6000803e3d6000fd5b505050506040513d601f19601f8201168201806040525081019062001bfc9190620024af565b9050801562001d7e57600560008373ffffffffffffffffffffffffffffffffffffffff1673ffffffffffffffffffffffffffffffffffffffff168152602001908152602001600020839080600181540180825580915050600190039060005260206000200160009091909190916101000a81548173ffffffffffffffffffffffffffffffffffffffff021916908373ffffffffffffffffffffffffffffffffffffffff1602179055507f153f363a775cbc999a9bd929a87e8e868076cb029adfcdffd7198e2735de9642838473ffffffffffffffffffffffffffffffffffffffff1663922962996040518163ffffffff167c010000000000000000000000000000000000000000000000000000000002815260040160206040518083038186803b15801562001d2a57600080fd5b505afa15801562001d3f573d6000803e3d6000fd5b505050506040513d601f19601f8201168201806040525081019062001d65919062002623565b60405162001d75929190620029b9565b60405180910390a15b505050565b6004602052816000526040600020818154811062001da057600080fd5b906000526020600020016000915091509054906101000a900473ffffffffffffffffffffffffffffffffffffffff1681565b600080600090505b60018054905081101562001e7f578373ffffffffffffffffffffffffffffffffffffffff166001828154811062001e165762001e1562002ddf565b5b906000526020600020906007020160000160009054906101000a900473ffffffffffffffffffffffffffffffffffffffff1673ffffffffffffffffffffffffffffffffffffffff16141562001e69578091505b808062001e769062002d04565b91505062001dda565b506040518060400160405280600881526020017f496e6163746976650000000000000000000000000000000000000000000000008152506001828154811062001ecd5762001ecc62002ddf565b5b9060005260206000209060070201600401908051906020019062001ef392919062001f48565b5060011515821515141562001f4357600180828154811062001f1a5762001f1962002ddf565b5b906000526020600020906007020160050160006101000a81548160ff0219169083151502179055505b505050565b82805462001f569062002c98565b90600052602060002090601f01602090048101928262001f7a576000855562001fc6565b82601f1062001f9557805160ff191683800117855562001fc6565b8280016001018555821562001fc6579182015b8281111562001fc557825182559160200191906001019062001fa8565b5b50905062001fd5919062002051565b5090565b6040518060e00160405280600073ffffffffffffffffffffffffffffffffffffffff16815260200160608152602001606081526020016000600981111562002026576200202562002d81565b5b815260200160608152602001600015158152602001600081525090565b61178e8062002fbe83390190565b5b808211156200206c57600081600090555060010162002052565b5090565b600062002087620020818462002b7a565b62002b51565b905082815260208101848484011115620020a657620020a562002e42565b5b620020b384828562002c53565b509392505050565b600081359050620020cc8162002f6f565b92915050565b600081519050620020e38162002f89565b92915050565b600082601f83011262002101576200210062002e3d565b5b81356200211384826020860162002070565b91505092915050565b6000813590506200212d8162002fa3565b92915050565b600081519050620021448162002fa3565b92915050565b60006020828403121562002163576200216262002e4c565b5b60006200217384828501620020bb565b91505092915050565b6000806040838503121562002196576200219562002e4c565b5b6000620021a685828601620020bb565b9250506020620021b985828601620020bb565b9150509250929050565b600080600060608486031215620021df57620021de62002e4c565b5b6000620021ef86828701620020bb565b935050602084013567ffffffffffffffff81111562002213576200221262002e47565b5b6200222186828701620020e9565b925050604084013567ffffffffffffffff81111562002245576200224462002e47565b5b6200225386828701620020e9565b9150509250925092565b600080600080600080600080610100898b03121562002281576200228062002e4c565b5b6000620022918b828c01620020bb565b985050602089013567ffffffffffffffff811115620022b557620022b462002e47565b5b620022c38b828c01620020e9565b975050604089013567ffffffffffffffff811115620022e757620022e662002e47565b5b620022f58b828c01620020e9565b965050606089013567ffffffffffffffff81111562002319576200231862002e47565b5b620023278b828c01620020e9565b95505060806200233a8b828c016200211c565b94505060a06200234d8b828c01620020bb565b93505060c0620023608b828c01620020bb565b92505060e0620023738b828c01620020bb565b9150509295985092959890939650565b600080600080600060a08688031215620023a257620023a162002e4c565b5b6000620023b288828901620020bb565b955050602086013567ffffffffffffffff811115620023d657620023d562002e47565b5b620023e488828901620020e9565b945050604086013567ffffffffffffffff81111562002408576200240762002e47565b5b6200241688828901620020e9565b935050606062002429888289016200211c565b925050608086013567ffffffffffffffff8111156200244d576200244c62002e47565b5b6200245b88828901620020e9565b9150509295509295909350565b6000806040838503121562002482576200248162002e4c565b5b60006200249285828601620020bb565b9250506020620024a5858286016200211c565b9150509250929050565b600060208284031215620024c857620024c762002e4c565b5b6000620024d884828501620020d2565b91505092915050565b600080600080600080600060e0888a03121562002503576200250262002e4c565b5b600088013567ffffffffffffffff81111562002524576200252362002e47565b5b620025328a828b01620020e9565b975050602088013567ffffffffffffffff81111562002556576200255562002e47565b5b620025648a828b01620020e9565b965050604088013567ffffffffffffffff81111562002588576200258762002e47565b5b620025968a828b01620020e9565b9550506060620025a98a828b016200211c565b9450506080620025bc8a828b01620020bb565b93505060a0620025cf8a828b01620020bb565b92505060c0620025e28a828b01620020bb565b91505092959891949750929550565b6000602082840312156200260a576200260962002e4c565b5b60006200261a848285016200211c565b91505092915050565b6000602082840312156200263c576200263b62002e4c565b5b60006200264c8482850162002133565b91505092915050565b620026608162002bcc565b82525050565b620026718162002be0565b82525050565b620026828162002c2b565b82525050565b620026938162002c3f565b82525050565b6000620026a68262002bb0565b620026b2818562002bbb565b9350620026c481856020860162002c62565b620026cf8162002e51565b840191505092915050565b6000620026e960068362002bbb565b9150620026f68262002e62565b602082019050919050565b600062002710600a8362002bbb565b91506200271d8262002e8b565b602082019050919050565b60006200273760048362002bbb565b9150620027448262002eb4565b602082019050919050565b60006200275e60048362002bbb565b91506200276b8262002edd565b602082019050919050565b60006200278560098362002bbb565b9150620027928262002f06565b602082019050919050565b6000620027ac600b8362002bbb565b9150620027b98262002f2f565b602082019050919050565b620027cf8162002c21565b82525050565b6000602082019050620027ec600083018462002655565b92915050565b600060e08201905062002809600083018a62002655565b81810360208301526200281d818962002699565b9050818103604083015262002833818862002699565b905062002844606083018762002677565b818103608083015262002858818662002699565b90506200286960a083018562002666565b6200287860c0830184620027c4565b98975050505050505050565b6000610100820190506200289c600083018b62002655565b8181036020830152620028b0818a62002699565b90508181036040830152620028c6818962002699565b90508181036060830152620028dc818862002699565b9050620028ed6080830187620027c4565b620028fc60a083018662002655565b6200290b60c083018562002655565b6200291a60e083018462002655565b9998505050505050505050565b600060e0820190506200293e600083018a62002655565b818103602083015262002952818962002699565b9050818103604083015262002968818862002699565b905081810360608301526200297e818762002699565b90506200298f6080830186620027c4565b6200299e60a083018562002655565b620029ad60c083018462002688565b98975050505050505050565b6000604082019050620029d0600083018562002655565b620029df6020830184620027c4565b9392505050565b600060c082019050818103600083015262002a02818962002699565b9050818103602083015262002a18818862002699565b9050818103604083015262002a2e818762002699565b905062002a3f6060830186620027c4565b62002a4e608083018562002655565b62002a5d60a083018462002655565b979650505050505050565b6000602082019050818103600083015262002a8381620026da565b9050919050565b6000602082019050818103600083015262002aa58162002701565b9050919050565b6000602082019050818103600083015262002ac78162002728565b9050919050565b6000602082019050818103600083015262002ae9816200274f565b9050919050565b6000602082019050818103600083015262002b0b8162002776565b9050919050565b6000602082019050818103600083015262002b2d816200279d565b9050919050565b600060208201905062002b4b6000830184620027c4565b92915050565b600062002b5d62002b70565b905062002b6b828262002cce565b919050565b6000604051905090565b600067ffffffffffffffff82111562002b985762002b9762002e0e565b5b62002ba38262002e51565b9050602081019050919050565b600081519050919050565b600082825260208201905092915050565b600062002bd98262002c01565b9050919050565b60008115159050919050565b600081905062002bfc8262002f58565b919050565b600073ffffffffffffffffffffffffffffffffffffffff82169050919050565b6000819050919050565b600062002c388262002bec565b9050919050565b600062002c4c8262002c21565b9050919050565b82818337600083830152505050565b60005b8381101562002c8257808201518184015260208101905062002c65565b8381111562002c92576000848401525b50505050565b6000600282049050600182168062002cb157607f821691505b6020821081141562002cc85762002cc762002db0565b5b50919050565b62002cd98262002e51565b810181811067ffffffffffffffff8211171562002cfb5762002cfa62002e0e565b5b80604052505050565b600062002d118262002c21565b91507fffffffffffffffffffffffffffffffffffffffffffffffffffffffffffffffff82141562002d475762002d4662002d52565b5b600182019050919050565b7f4e487b7100000000000000000000000000000000000000000000000000000000600052601160045260246000fd5b7f4e487b7100000000000000000000000000000000000000000000000000000000600052602160045260246000fd5b7f4e487b7100000000000000000000000000000000000000000000000000000000600052602260045260246000fd5b7f4e487b7100000000000000000000000000000000000000000000000000000000600052603260045260246000fd5b7f4e487b7100000000000000000000000000000000000000000000000000000000600052604160045260246000fd5b600080fd5b600080fd5b600080fd5b600080fd5b6000601f19601f8301169050919050565b7f4f524d5343430000000000000000000000000000000000000000000000000000600082015250565b7f5553525f4e545f52454700000000000000000000000000000000000000000000600082015250565b7f4f41434300000000000000000000000000000000000000000000000000000000600082015250565b7f4f57434300000000000000000000000000000000000000000000000000000000600082015250565b7f5553525f45584953540000000000000000000000000000000000000000000000600082015250565b7f5553525f44454c45544544000000000000000000000000000000000000000000600082015250565b600a811062002f6c5762002f6b62002d81565b5b50565b62002f7a8162002bcc565b811462002f8657600080fd5b50565b62002f948162002be0565b811462002fa057600080fd5b50565b62002fae8162002c21565b811462002fba57600080fd5b5056fe60806040523480156200001157600080fd5b506040516200178e3803806200178e833981810160405281019062000037919062000425565b876000806101000a81548173ffffffffffffffffffffffffffffffffffffffff021916908373ffffffffffffffffffffffffffffffffffffffff16021790555030600160006101000a81548173ffffffffffffffffffffffffffffffffffffffff021916908373ffffffffffffffffffffffffffffffffffffffff1602179055508660029080519060200190620000d0929190620002c9565b508560039080519060200190620000e9929190620002c9565b50846004908051906020019062000102929190620002c9565b508360058190555082600660006101000a81548173ffffffffffffffffffffffffffffffffffffffff021916908373ffffffffffffffffffffffffffffffffffffffff16021790555081600760006101000a81548173ffffffffffffffffffffffffffffffffffffffff021916908373ffffffffffffffffffffffffffffffffffffffff16021790555087600860006101000a81548173ffffffffffffffffffffffffffffffffffffffff021916908373ffffffffffffffffffffffffffffffffffffffff16021790555082600660006101000a81548173ffffffffffffffffffffffffffffffffffffffff021916908373ffffffffffffffffffffffffffffffffffffffff160217905550600060078111156200022557620002246200068a565b5b600860146101000a81548160ff021916908360078111156200024c576200024b6200068a565b5b0217905550600943908060018154018082558091505060019003906000526020600020016000909190919091505580600a60006101000a81548173ffffffffffffffffffffffffffffffffffffffff021916908373ffffffffffffffffffffffffffffffffffffffff160217905550505050505050505062000770565b828054620002d7906200061e565b90600052602060002090601f016020900481019282620002fb576000855562000347565b82601f106200031657805160ff191683800117855562000347565b8280016001018555821562000347579182015b828111156200034657825182559160200191906001019062000329565b5b5090506200035691906200035a565b5090565b5b80821115620003755760008160009055506001016200035b565b5090565b6000620003906200038a8462000574565b6200054b565b905082815260208101848484011115620003af57620003ae6200071c565b5b620003bc848285620005e8565b509392505050565b600081519050620003d5816200073c565b92915050565b600082601f830112620003f357620003f262000717565b5b81516200040584826020860162000379565b91505092915050565b6000815190506200041f8162000756565b92915050565b600080600080600080600080610100898b03121562000449576200044862000726565b5b6000620004598b828c01620003c4565b985050602089015167ffffffffffffffff8111156200047d576200047c62000721565b5b6200048b8b828c01620003db565b975050604089015167ffffffffffffffff811115620004af57620004ae62000721565b5b620004bd8b828c01620003db565b965050606089015167ffffffffffffffff811115620004e157620004e062000721565b5b620004ef8b828c01620003db565b9550506080620005028b828c016200040e565b94505060a0620005158b828c01620003c4565b93505060c0620005288b828c01620003c4565b92505060e06200053b8b828c01620003c4565b9150509295985092959890939650565b6000620005576200056a565b905062000565828262000654565b919050565b6000604051905090565b600067ffffffffffffffff821115620005925762000591620006e8565b5b6200059d826200072b565b9050602081019050919050565b6000620005b782620005be565b9050919050565b600073ffffffffffffffffffffffffffffffffffffffff82169050919050565b6000819050919050565b60005b8381101562000608578082015181840152602081019050620005eb565b8381111562000618576000848401525b50505050565b600060028204905060018216806200063757607f821691505b602082108114156200064e576200064d620006b9565b5b50919050565b6200065f826200072b565b810181811067ffffffffffffffff82111715620006815762000680620006e8565b5b80604052505050565b7f4e487b7100000000000000000000000000000000000000000000000000000000600052602160045260246000fd5b7f4e487b7100000000000000000000000000000000000000000000000000000000600052602260045260246000fd5b7f4e487b7100000000000000000000000000000000000000000000000000000000600052604160045260246000fd5b600080fd5b600080fd5b600080fd5b600080fd5b6000601f19601f8301169050919050565b6200074781620005aa565b81146200075357600080fd5b50565b6200076181620005de565b81146200076d57600080fd5b50565b61100e80620007806000396000f3fe608060405234801561001057600080fd5b50600436106100c6576000357c0100000000000000000000000000000000000000000000000000000000900480634d7064181161008e5780634d70641814610161578063922962991461017f578063b1767f871461019d578063cf1287e1146101c5578063ee8a544a146101e1578063f5b1edfd146101eb576100c6565b80630940f4e4146100cb57806309eb029c146100e95780632101f3a11461010757806321895c59146101255780634a4815bf14610143575b600080fd5b6100d3610209565b6040516100e09190610c98565b60405180910390f35b6100f161021c565b6040516100fe9190610c98565b60405180910390f35b61010f61022f565b60405161011c9190610c98565b60405180910390f35b61012d610242565b60405161013a9190610c98565b60405180910390f35b61014b610255565b6040516101589190610c98565b60405180910390f35b610169610268565b6040516101769190610c98565b60405180910390f35b61018761027b565b6040516101949190610cf3565b60405180910390f35b6101a56102a4565b6040516101bc9b9a99989796959493929190610bd1565b60405180910390f35b6101df60048036038101906101da91906109bf565b6105ab565b005b6101e9610681565b005b6101f3610771565b6040516102009190610c98565b60405180910390f35b600061021760056004610784565b905090565b600061022a60016000610784565b905090565b600061023d60036001610784565b905090565b600061025060046003610784565b905090565b600061026360076005610784565b905090565b600061027660026001610784565b905090565b6000600860149054906101000a900460ff16600781111561029f5761029e610ea6565b5b905090565b600080606080606060008060008060606000600160009054906101000a900473ffffffffffffffffffffffffffffffffffffffff16600860009054906101000a900473ffffffffffffffffffffffffffffffffffffffff16600260036004600554600660009054906101000a900473ffffffffffffffffffffffffffffffffffffffff16600760009054906101000a900473ffffffffffffffffffffffffffffffffffffffff16600860149054906101000a900460ff16600781111561036d5761036c610ea6565b5b6009600a60009054906101000a900473ffffffffffffffffffffffffffffffffffffffff1688805461039e90610e43565b80601f01602080910402602001604051908101604052809291908181526020018280546103ca90610e43565b80156104175780601f106103ec57610100808354040283529160200191610417565b820191906000526020600020905b8154815290600101906020018083116103fa57829003601f168201915b5050505050985087805461042a90610e43565b80601f016020809104026020016040519081016040528092919081815260200182805461045690610e43565b80156104a35780601f10610478576101008083540402835291602001916104a3565b820191906000526020600020905b81548152906001019060200180831161048657829003601f168201915b505050505097508680546104b690610e43565b80601f01602080910402602001604051908101604052809291908181526020018280546104e290610e43565b801561052f5780601f106105045761010080835404028352916020019161052f565b820191906000526020600020905b81548152906001019060200180831161051257829003601f168201915b505050505096508180548060200260200160405190810160405280929190818152602001828054801561058157602002820191906000526020600020905b81548152602001906001019080831161056d575b505050505091509a509a509a509a509a509a509a509a509a509a509a50909192939495969798999a565b85600290805190602001906105c1929190610882565b5084600390805190602001906105d8929190610882565b5083600490805190602001906105ef929190610882565b508260058190555081600660006101000a81548173ffffffffffffffffffffffffffffffffffffffff021916908373ffffffffffffffffffffffffffffffffffffffff16021790555080600760006101000a81548173ffffffffffffffffffffffffffffffffffffffff021916908373ffffffffffffffffffffffffffffffffffffffff160217905550505050505050565b6001600781111561069557610694610ea6565b5b60078111156106a7576106a6610ea6565b5b600860149054906101000a900460ff1660078111156106c9576106c8610ea6565b5b14610709576040517f08c379a000000000000000000000000000000000000000000000000000000000815260040161070090610cb3565b60405180910390fd5b60094390806001815401808255809150506001900390600052602060002001600090919091909150556002600781111561074657610745610ea6565b5b600860146101000a81548160ff0219169083600781111561076a57610769610ea6565b5b0217905550565b600061077f60066005610784565b905090565b600081600781111561079957610798610ea6565b5b60078111156107ab576107aa610ea6565b5b600860149054906101000a900460ff1660078111156107cd576107cc610ea6565b5b141561084157600943908060018154018082558091505060019003906000526020600020016000909190919091505582600781111561080f5761080e610ea6565b5b600860146101000a81548160ff0219169083600781111561083357610832610ea6565b5b02179055506001905061087c565b6040517f08c379a000000000000000000000000000000000000000000000000000000000815260040161087390610cd3565b60405180910390fd5b92915050565b82805461088e90610e43565b90600052602060002090601f0160209004810192826108b057600085556108f7565b82601f106108c957805160ff19168380011785556108f7565b828001600101855582156108f7579182015b828111156108f65782518255916020019190600101906108db565b5b5090506109049190610908565b5090565b5b80821115610921576000816000905550600101610909565b5090565b600061093861093384610d33565b610d0e565b90508281526020810184848401111561095457610953610f38565b5b61095f848285610e01565b509392505050565b60008135905061097681610faa565b92915050565b600082601f83011261099157610990610f33565b5b81356109a1848260208601610925565b91505092915050565b6000813590506109b981610fc1565b92915050565b60008060008060008060c087890312156109dc576109db610f42565b5b600087013567ffffffffffffffff8111156109fa576109f9610f3d565b5b610a0689828a0161097c565b965050602087013567ffffffffffffffff811115610a2757610a26610f3d565b5b610a3389828a0161097c565b955050604087013567ffffffffffffffff811115610a5457610a53610f3d565b5b610a6089828a0161097c565b9450506060610a7189828a016109aa565b9350506080610a8289828a01610967565b92505060a0610a9389828a01610967565b9150509295509295509295565b6000610aac8383610bb3565b60208301905092915050565b610ac181610db9565b82525050565b6000610ad282610d74565b610adc8185610d97565b9350610ae783610d64565b8060005b83811015610b18578151610aff8882610aa0565b9750610b0a83610d8a565b925050600181019050610aeb565b5085935050505092915050565b610b2e81610dcb565b82525050565b6000610b3f82610d7f565b610b498185610da8565b9350610b59818560208601610e10565b610b6281610f47565b840191505092915050565b6000610b7a600c83610da8565b9150610b8582610f58565b602082019050919050565b6000610b9d600a83610da8565b9150610ba882610f81565b602082019050919050565b610bbc81610df7565b82525050565b610bcb81610df7565b82525050565b600061016082019050610be7600083018e610ab8565b610bf4602083018d610ab8565b8181036040830152610c06818c610b34565b90508181036060830152610c1a818b610b34565b90508181036080830152610c2e818a610b34565b9050610c3d60a0830189610bc2565b610c4a60c0830188610ab8565b610c5760e0830187610ab8565b610c65610100830186610bc2565b818103610120830152610c788185610ac7565b9050610c88610140830184610ab8565b9c9b505050505050505050505050565b6000602082019050610cad6000830184610b25565b92915050565b60006020820190508181036000830152610ccc81610b6d565b9050919050565b60006020820190508181036000830152610cec81610b90565b9050919050565b6000602082019050610d086000830184610bc2565b92915050565b6000610d18610d29565b9050610d248282610e75565b919050565b6000604051905090565b600067ffffffffffffffff821115610d4e57610d4d610f04565b5b610d5782610f47565b9050602081019050919050565b6000819050602082019050919050565b600081519050919050565b600081519050919050565b6000602082019050919050565b600082825260208201905092915050565b600082825260208201905092915050565b6000610dc482610dd7565b9050919050565b60008115159050919050565b600073ffffffffffffffffffffffffffffffffffffffff82169050919050565b6000819050919050565b82818337600083830152505050565b60005b83811015610e2e578082015181840152602081019050610e13565b83811115610e3d576000848401525b50505050565b60006002820490506001821680610e5b57607f821691505b60208210811415610e6f57610e6e610ed5565b5b50919050565b610e7e82610f47565b810181811067ffffffffffffffff82111715610e9d57610e9c610f04565b5b80604052505050565b7f4e487b7100000000000000000000000000000000000000000000000000000000600052602160045260246000fd5b7f4e487b7100000000000000000000000000000000000000000000000000000000600052602260045260246000fd5b7f4e487b7100000000000000000000000000000000000000000000000000000000600052604160045260246000fd5b600080fd5b600080fd5b600080fd5b600080fd5b6000601f19601f8301169050919050565b7f524d5f4d5553545f41545f4d0000000000000000000000000000000000000000600082015250565b7f494e5f50524f4345535300000000000000000000000000000000000000000000600082015250565b610fb381610db9565b8114610fbe57600080fd5b50565b610fca81610df7565b8114610fd557600080fd5b5056fea26469706673582212205cbfa30bad1fa3c859212d2d6d69f9763637386b5a9c2923a0617522a6bb653c64736f6c63430008070033a26469706673582212209f93546a61abda5a5975f0b3e3a397b23b681fcfe194efdb3e1ad06b73200a6964736f6c63430008070033",
  "immutableReferences": {},
  "source": "// SPDX-License-Identifier: MIT\r\npragma solidity >=0.4.22 <0.9.0;\r\npragma experimental ABIEncoderV2;\r\n\r\nimport \"./User.sol\";\r\nimport \"./RawMaterials.sol\";\r\n\r\ncontract Supplier is User {\r\n    mapping(address => address[]) public SupplierRegisteredRawMaterialList;\r\n    mapping(address => address[]) public MaterialShipmentList;\r\n    mapping(address => address[]) public TaggedInspectorMaterialList;\r\n\r\n    //Event\r\n    event RawMaterialInitialize(\r\n        address indexed materialId,\r\n        address indexed supplier,\r\n        address manufacturer,\r\n        address indexed shipper,\r\n        string producerName,\r\n        string description,\r\n        string location,\r\n        uint256 quantity,\r\n        address inspector,\r\n        uint256 packageStatus\r\n    );\r\n    event UpdatedRawMaterialPackageStatus(\r\n        address materialId,\r\n        uint256 packageStatus\r\n    );\r\n\r\n    modifier onlySupplier {\r\n        require(UsersDetails[msg.sender].userRole == roles.supplier, \"ORMSCC\"); //Only Supplier can call this function.\r\n        _;\r\n    }\r\n\r\n    //Initialize Raw Material Package with required details, transporter & manufacturer. Emit event with new package details.\r\n    //@param _desc Raw Material description String\r\n    //@param _producerName Raw material producer String\r\n    //@param _location Supplier location String\r\n    //@param _quantity Material Quantity Uint\r\n    //@param _transporter Transporter/Shipper Address\r\n    //@param _manufacturer Reciever/Manufacturer Address\r\n    function createRawMaterialPackage(\r\n        string memory _desc,\r\n        string memory _producerName,\r\n        string memory _location,\r\n        uint256 _quantity,\r\n        address _transporter,\r\n        address _manufacturer,\r\n        address _inspector\r\n    ) public onlySupplier {\r\n        RawMaterials rawMaterialData = new RawMaterials(\r\n            msg.sender,\r\n            _desc,\r\n            _producerName,\r\n            _location,\r\n            _quantity,\r\n            _transporter,\r\n            _manufacturer,\r\n            _inspector\r\n        );\r\n        //Push raw material address to list registered by supplier\r\n        SupplierRegisteredRawMaterialList[msg.sender].push(\r\n            address(rawMaterialData)\r\n        );\r\n        //Emit event after raw material registration\r\n        emit RawMaterialInitialize(\r\n            address(rawMaterialData),\r\n            msg.sender,\r\n            _manufacturer,\r\n            _transporter,\r\n            _producerName,\r\n            _desc,\r\n            _location,\r\n            _quantity,\r\n            _inspector,\r\n            0\r\n        );\r\n    }\r\n\r\n    //Update material details for materialid. Only supplier can call this.\r\n    function updateRawMaterial(\r\n        address _materialId,\r\n        string memory _desc,\r\n        string memory _producerName,\r\n        string memory _location,\r\n        uint256 _quantity,\r\n        address _transporter,\r\n        address _manufacturer,\r\n        address _inspector\r\n    ) public onlySupplier {\r\n        RawMaterials(_materialId).updateRawMaterialDetails(\r\n            _desc,\r\n            _producerName,\r\n            _location,\r\n            _quantity,\r\n            _transporter,\r\n            _manufacturer\r\n        );\r\n        emit RawMaterialInitialize(\r\n            _materialId,\r\n            msg.sender,\r\n            _manufacturer,\r\n            _transporter,\r\n            _producerName,\r\n            _desc,\r\n            _location,\r\n            _quantity,\r\n            _inspector,\r\n            0\r\n        );\r\n    }\r\n\r\n    //Supplier will send package to inspector for inspection\r\n    function sendMaterialPackageForInspection(\r\n        address _materialId,\r\n        address _inspector\r\n    ) public onlySupplier {\r\n        bool result = RawMaterials(_materialId).sendPackageForInspection();\r\n        if (result) {\r\n            TaggedInspectorMaterialList[_inspector].push(_materialId);\r\n            emit UpdatedRawMaterialPackageStatus(\r\n                _materialId,\r\n                RawMaterials(_materialId).getRawMaterialsStatus()\r\n            );\r\n        }\r\n    }\r\n\r\n    function getTotalMaterialPackagesShippedCount(address _manufacturer)\r\n        public\r\n        view\r\n        returns (uint256)\r\n    {\r\n        return MaterialShipmentList[_manufacturer].length;\r\n    }\r\n}\r\n",
  "sourcePath": "C:\\Development\\Blockchain\\Learning-2\\contracts\\Supplier.sol",
  "compiler": {
    "name": "solc",
    "version": "0.8.7+commit.e28d00a7.Emscripten.clang"
  },
  "schemaVersion": "3.4.1",
  "updatedAt": "2021-08-14T11:11:12.321Z",
  "devdoc": {
    "kind": "dev",
    "methods": {},
    "version": 1
  },
  "userdoc": {
    "kind": "user",
    "methods": {},
    "version": 1
  }
}