{
  "contractName": "SupplyChain",
  "abi": [
    {
      "inputs": [],
      "stateMutability": "nonpayable",
      "type": "constructor"
    },
    {
      "anonymous": false,
      "inputs": [
        {
          "indexed": true,
          "internalType": "address",
          "name": "MedicineID",
          "type": "address"
        }
      ],
      "name": "MedicinePackageInitialize",
      "type": "event"
    },
    {
      "anonymous": false,
      "inputs": [
        {
          "indexed": false,
          "internalType": "address",
          "name": "MedicineID",
          "type": "address"
        },
        {
          "indexed": true,
          "internalType": "address",
          "name": "SubContractID",
          "type": "address"
        },
        {
          "indexed": false,
          "internalType": "uint256",
          "name": "MedicineStatus",
          "type": "uint256"
        }
      ],
      "name": "MedicineTransferredDPInitiated",
      "type": "event"
    },
    {
      "anonymous": false,
      "inputs": [
        {
          "indexed": true,
          "internalType": "address",
          "name": "MaterialID",
          "type": "address"
        },
        {
          "indexed": true,
          "internalType": "address",
          "name": "Supplier",
          "type": "address"
        },
        {
          "indexed": false,
          "internalType": "address",
          "name": "Manufacturer",
          "type": "address"
        },
        {
          "indexed": true,
          "internalType": "address",
          "name": "Transporter",
          "type": "address"
        }
      ],
      "name": "RawMaterialInitialize",
      "type": "event"
    },
    {
      "inputs": [
        {
          "internalType": "address",
          "name": "",
          "type": "address"
        },
        {
          "internalType": "uint256",
          "name": "",
          "type": "uint256"
        }
      ],
      "name": "MaterialShipmentList",
      "outputs": [
        {
          "internalType": "address",
          "name": "",
          "type": "address"
        }
      ],
      "stateMutability": "view",
      "type": "function",
      "constant": true
    },
    {
      "inputs": [
        {
          "internalType": "address",
          "name": "",
          "type": "address"
        },
        {
          "internalType": "uint256",
          "name": "",
          "type": "uint256"
        }
      ],
      "name": "SupplierRegisteredRawMaterialList",
      "outputs": [
        {
          "internalType": "address",
          "name": "",
          "type": "address"
        }
      ],
      "stateMutability": "view",
      "type": "function",
      "constant": true
    },
    {
      "inputs": [
        {
          "internalType": "uint256",
          "name": "",
          "type": "uint256"
        }
      ],
      "name": "TotalMedicineBatchesShipped",
      "outputs": [
        {
          "internalType": "address",
          "name": "",
          "type": "address"
        }
      ],
      "stateMutability": "view",
      "type": "function",
      "constant": true
    },
    {
      "inputs": [],
      "name": "TotalMedicineSubBatchesDelivered",
      "outputs": [
        {
          "internalType": "uint256",
          "name": "",
          "type": "uint256"
        }
      ],
      "stateMutability": "view",
      "type": "function",
      "constant": true
    },
    {
      "inputs": [
        {
          "internalType": "uint256",
          "name": "",
          "type": "uint256"
        }
      ],
      "name": "UserList",
      "outputs": [
        {
          "internalType": "address",
          "name": "userAddress",
          "type": "address"
        },
        {
          "internalType": "string",
          "name": "userName",
          "type": "string"
        },
        {
          "internalType": "string",
          "name": "userLocation",
          "type": "string"
        },
        {
          "internalType": "enum User.roles",
          "name": "userRole",
          "type": "uint8"
        },
        {
          "internalType": "string",
          "name": "userStatus",
          "type": "string"
        },
        {
          "internalType": "bool",
          "name": "isDeleted",
          "type": "bool"
        }
      ],
      "stateMutability": "view",
      "type": "function",
      "constant": true
    },
    {
      "inputs": [
        {
          "internalType": "address",
          "name": "_materialId",
          "type": "address"
        },
        {
          "internalType": "string",
          "name": "_medicineName",
          "type": "string"
        },
        {
          "internalType": "string",
          "name": "_location",
          "type": "string"
        },
        {
          "internalType": "string",
          "name": "_desc",
          "type": "string"
        },
        {
          "internalType": "uint256",
          "name": "_quantity",
          "type": "uint256"
        },
        {
          "internalType": "address",
          "name": "_transporter",
          "type": "address"
        },
        {
          "internalType": "address",
          "name": "_distributor",
          "type": "address"
        }
      ],
      "name": "createMedicinePackage",
      "outputs": [],
      "stateMutability": "nonpayable",
      "type": "function"
    },
    {
      "inputs": [
        {
          "internalType": "string",
          "name": "_desc",
          "type": "string"
        },
        {
          "internalType": "string",
          "name": "_producerName",
          "type": "string"
        },
        {
          "internalType": "string",
          "name": "_location",
          "type": "string"
        },
        {
          "internalType": "uint256",
          "name": "_quantity",
          "type": "uint256"
        },
        {
          "internalType": "address",
          "name": "_transporter",
          "type": "address"
        },
        {
          "internalType": "address",
          "name": "_manufacturer",
          "type": "address"
        }
      ],
      "name": "createRawMaterialPackage",
      "outputs": [],
      "stateMutability": "nonpayable",
      "type": "function"
    },
    {
      "inputs": [
        {
          "internalType": "address",
          "name": "_address",
          "type": "address"
        }
      ],
      "name": "deleteUser",
      "outputs": [],
      "stateMutability": "nonpayable",
      "type": "function"
    },
    {
      "inputs": [
        {
          "internalType": "address",
          "name": "_manufacturer",
          "type": "address"
        }
      ],
      "name": "getTotalMaterialPackagesShippedCount",
      "outputs": [
        {
          "internalType": "uint256",
          "name": "",
          "type": "uint256"
        }
      ],
      "stateMutability": "view",
      "type": "function",
      "constant": true
    },
    {
      "inputs": [
        {
          "internalType": "address",
          "name": "_distributor",
          "type": "address"
        }
      ],
      "name": "getTotalMedicineBatchesShippedCount",
      "outputs": [
        {
          "internalType": "uint256",
          "name": "",
          "type": "uint256"
        }
      ],
      "stateMutability": "view",
      "type": "function",
      "constant": true
    },
    {
      "inputs": [],
      "name": "getTotalMedicineSubBatchesDeliveredCount",
      "outputs": [
        {
          "internalType": "uint256",
          "name": "",
          "type": "uint256"
        }
      ],
      "stateMutability": "view",
      "type": "function",
      "constant": true
    },
    {
      "inputs": [
        {
          "internalType": "address",
          "name": "_medicineID",
          "type": "address"
        },
        {
          "internalType": "address",
          "name": "_distributor",
          "type": "address"
        }
      ],
      "name": "loadAndShipMedicineBatch",
      "outputs": [],
      "stateMutability": "nonpayable",
      "type": "function"
    },
    {
      "inputs": [
        {
          "internalType": "address",
          "name": "_materialID",
          "type": "address"
        },
        {
          "internalType": "address",
          "name": "_manufacturer",
          "type": "address"
        }
      ],
      "name": "loadAndShipRawMaterialBatch",
      "outputs": [],
      "stateMutability": "nonpayable",
      "type": "function"
    },
    {
      "inputs": [],
      "name": "owner",
      "outputs": [
        {
          "internalType": "address",
          "name": "",
          "type": "address"
        }
      ],
      "stateMutability": "view",
      "type": "function",
      "constant": true
    },
    {
      "inputs": [
        {
          "internalType": "string",
          "name": "_customerName",
          "type": "string"
        },
        {
          "internalType": "uint256",
          "name": "_customerAge",
          "type": "uint256"
        },
        {
          "internalType": "string",
          "name": "_doctorName",
          "type": "string"
        },
        {
          "internalType": "uint256",
          "name": "_quantity",
          "type": "uint256"
        },
        {
          "internalType": "uint256",
          "name": "_amountPaid",
          "type": "uint256"
        },
        {
          "internalType": "address",
          "name": "_medicineId",
          "type": "address"
        },
        {
          "internalType": "address",
          "name": "_pharma",
          "type": "address"
        },
        {
          "internalType": "address",
          "name": "_materialId",
          "type": "address"
        }
      ],
      "name": "pushCustomerDetails",
      "outputs": [],
      "stateMutability": "nonpayable",
      "type": "function"
    },
    {
      "inputs": [
        {
          "internalType": "address",
          "name": "_address",
          "type": "address"
        },
        {
          "internalType": "string",
          "name": "_name",
          "type": "string"
        },
        {
          "internalType": "string",
          "name": "_location",
          "type": "string"
        },
        {
          "internalType": "uint256",
          "name": "_role",
          "type": "uint256"
        },
        {
          "internalType": "string",
          "name": "_userStatus",
          "type": "string"
        }
      ],
      "name": "registerAdmin",
      "outputs": [],
      "stateMutability": "nonpayable",
      "type": "function"
    },
    {
      "inputs": [
        {
          "internalType": "address",
          "name": "_address",
          "type": "address"
        },
        {
          "internalType": "string",
          "name": "_name",
          "type": "string"
        },
        {
          "internalType": "string",
          "name": "_location",
          "type": "string"
        },
        {
          "internalType": "uint256",
          "name": "_role",
          "type": "uint256"
        },
        {
          "internalType": "string",
          "name": "_userStatus",
          "type": "string"
        }
      ],
      "name": "registerUser",
      "outputs": [],
      "stateMutability": "nonpayable",
      "type": "function"
    },
    {
      "inputs": [
        {
          "internalType": "string",
          "name": "_customerName",
          "type": "string"
        },
        {
          "internalType": "uint256",
          "name": "_customerAge",
          "type": "uint256"
        },
        {
          "internalType": "string",
          "name": "_doctorName",
          "type": "string"
        },
        {
          "internalType": "uint256",
          "name": "_quantity",
          "type": "uint256"
        },
        {
          "internalType": "uint256",
          "name": "_amountPaid",
          "type": "uint256"
        },
        {
          "internalType": "address",
          "name": "_medicineId",
          "type": "address"
        },
        {
          "internalType": "address",
          "name": "_materialId",
          "type": "address"
        },
        {
          "internalType": "uint256",
          "name": "_medicineStatus",
          "type": "uint256"
        }
      ],
      "name": "submitCustomerAndMedicineSaleDetails",
      "outputs": [],
      "stateMutability": "nonpayable",
      "type": "function"
    },
    {
      "inputs": [
        {
          "internalType": "address",
          "name": "_medicineID",
          "type": "address"
        },
        {
          "internalType": "address",
          "name": "_pharma",
          "type": "address"
        },
        {
          "internalType": "address",
          "name": "_transporter",
          "type": "address"
        }
      ],
      "name": "transferMedicineFromDistributorToPharma",
      "outputs": [],
      "stateMutability": "nonpayable",
      "type": "function"
    },
    {
      "inputs": [
        {
          "internalType": "address",
          "name": "_medicineID",
          "type": "address"
        },
        {
          "internalType": "string",
          "name": "_medicineName",
          "type": "string"
        },
        {
          "internalType": "string",
          "name": "_location",
          "type": "string"
        },
        {
          "internalType": "string",
          "name": "_desc",
          "type": "string"
        },
        {
          "internalType": "uint256",
          "name": "_quantity",
          "type": "uint256"
        },
        {
          "internalType": "address",
          "name": "_transporter",
          "type": "address"
        },
        {
          "internalType": "address",
          "name": "_distributor",
          "type": "address"
        }
      ],
      "name": "updateMedicineBatch",
      "outputs": [],
      "stateMutability": "nonpayable",
      "type": "function"
    },
    {
      "inputs": [
        {
          "internalType": "address",
          "name": "_materialID",
          "type": "address"
        },
        {
          "internalType": "string",
          "name": "_desc",
          "type": "string"
        },
        {
          "internalType": "string",
          "name": "_producerName",
          "type": "string"
        },
        {
          "internalType": "string",
          "name": "_location",
          "type": "string"
        },
        {
          "internalType": "uint256",
          "name": "_quantity",
          "type": "uint256"
        },
        {
          "internalType": "address",
          "name": "_transporter",
          "type": "address"
        },
        {
          "internalType": "address",
          "name": "_manufacturer",
          "type": "address"
        }
      ],
      "name": "updateRawMaterial",
      "outputs": [],
      "stateMutability": "nonpayable",
      "type": "function"
    },
    {
      "inputs": [
        {
          "internalType": "address",
          "name": "_medicineID",
          "type": "address"
        },
        {
          "internalType": "address",
          "name": "_subContractID",
          "type": "address"
        },
        {
          "internalType": "uint256",
          "name": "_medicineSaleStatus",
          "type": "uint256"
        }
      ],
      "name": "updateRecievedMedicineBatchStatus",
      "outputs": [],
      "stateMutability": "nonpayable",
      "type": "function"
    },
    {
      "inputs": [
        {
          "internalType": "address",
          "name": "_medicineID",
          "type": "address"
        },
        {
          "internalType": "uint256",
          "name": "_medicineStatus",
          "type": "uint256"
        }
      ],
      "name": "updateSaleStatus",
      "outputs": [],
      "stateMutability": "nonpayable",
      "type": "function"
    },
    {
      "inputs": [
        {
          "internalType": "address",
          "name": "_address",
          "type": "address"
        },
        {
          "internalType": "string",
          "name": "_location",
          "type": "string"
        },
        {
          "internalType": "string",
          "name": "_userStatus",
          "type": "string"
        }
      ],
      "name": "updateUser",
      "outputs": [],
      "stateMutability": "nonpayable",
      "type": "function"
    },
    {
      "inputs": [
        {
          "internalType": "address",
          "name": "_address",
          "type": "address"
        },
        {
          "internalType": "string",
          "name": "_userName",
          "type": "string"
        }
      ],
      "name": "validateUser",
      "outputs": [
        {
          "components": [
            {
              "internalType": "address",
              "name": "userAddress",
              "type": "address"
            },
            {
              "internalType": "string",
              "name": "userName",
              "type": "string"
            },
            {
              "internalType": "string",
              "name": "userLocation",
              "type": "string"
            },
            {
              "internalType": "enum User.roles",
              "name": "userRole",
              "type": "uint8"
            },
            {
              "internalType": "string",
              "name": "userStatus",
              "type": "string"
            },
            {
              "internalType": "bool",
              "name": "isDeleted",
              "type": "bool"
            }
          ],
          "internalType": "struct User.UserInfo",
          "name": "",
          "type": "tuple"
        }
      ],
      "stateMutability": "view",
      "type": "function",
      "constant": true
    },
    {
      "inputs": [
        {
          "internalType": "address",
          "name": "_address",
          "type": "address"
        }
      ],
      "name": "getUserInfo",
      "outputs": [
        {
          "components": [
            {
              "internalType": "address",
              "name": "userAddress",
              "type": "address"
            },
            {
              "internalType": "string",
              "name": "userName",
              "type": "string"
            },
            {
              "internalType": "string",
              "name": "userLocation",
              "type": "string"
            },
            {
              "internalType": "enum User.roles",
              "name": "userRole",
              "type": "uint8"
            },
            {
              "internalType": "string",
              "name": "userStatus",
              "type": "string"
            },
            {
              "internalType": "bool",
              "name": "isDeleted",
              "type": "bool"
            }
          ],
          "internalType": "struct User.UserInfo",
          "name": "",
          "type": "tuple"
        }
      ],
      "stateMutability": "view",
      "type": "function",
      "constant": true
    },
    {
      "inputs": [],
      "name": "getAllRegisteredUsers",
      "outputs": [
        {
          "components": [
            {
              "internalType": "address",
              "name": "userAddress",
              "type": "address"
            },
            {
              "internalType": "string",
              "name": "userName",
              "type": "string"
            },
            {
              "internalType": "string",
              "name": "userLocation",
              "type": "string"
            },
            {
              "internalType": "enum User.roles",
              "name": "userRole",
              "type": "uint8"
            },
            {
              "internalType": "string",
              "name": "userStatus",
              "type": "string"
            },
            {
              "internalType": "bool",
              "name": "isDeleted",
              "type": "bool"
            }
          ],
          "internalType": "struct User.UserInfo[]",
          "name": "",
          "type": "tuple[]"
        }
      ],
      "stateMutability": "view",
      "type": "function",
      "constant": true
    },
    {
      "inputs": [
        {
          "internalType": "address",
          "name": "_packageID",
          "type": "address"
        }
      ],
      "name": "getSupplierRegisteredRawMaterialPackageStatus",
      "outputs": [
        {
          "internalType": "uint256",
          "name": "",
          "type": "uint256"
        }
      ],
      "stateMutability": "view",
      "type": "function",
      "constant": true
    },
    {
      "inputs": [
        {
          "internalType": "address",
          "name": "_address",
          "type": "address"
        }
      ],
      "name": "getListOfRegisteredRawMateriaAddress",
      "outputs": [
        {
          "internalType": "address[]",
          "name": "",
          "type": "address[]"
        }
      ],
      "stateMutability": "view",
      "type": "function",
      "constant": true
    },
    {
      "inputs": [
        {
          "internalType": "address",
          "name": "_materialId",
          "type": "address"
        }
      ],
      "name": "getRegisteredRawMaterialDetails",
      "outputs": [
        {
          "internalType": "address",
          "name": "materialId",
          "type": "address"
        },
        {
          "internalType": "address",
          "name": "supplier",
          "type": "address"
        },
        {
          "internalType": "string",
          "name": "description",
          "type": "string"
        },
        {
          "internalType": "string",
          "name": "producerName",
          "type": "string"
        },
        {
          "internalType": "string",
          "name": "location",
          "type": "string"
        },
        {
          "internalType": "uint256",
          "name": "quantity",
          "type": "uint256"
        },
        {
          "internalType": "address",
          "name": "shipper",
          "type": "address"
        },
        {
          "internalType": "address",
          "name": "manufacturer",
          "type": "address"
        },
        {
          "internalType": "uint256",
          "name": "packageStatus",
          "type": "uint256"
        },
        {
          "internalType": "uint256[]",
          "name": "transactionDates",
          "type": "uint256[]"
        }
      ],
      "stateMutability": "view",
      "type": "function",
      "constant": true
    },
    {
      "inputs": [
        {
          "internalType": "address",
          "name": "_manufacturer",
          "type": "address"
        }
      ],
      "name": "getAllShippedRawMaterialList",
      "outputs": [
        {
          "internalType": "address[]",
          "name": "",
          "type": "address[]"
        }
      ],
      "stateMutability": "view",
      "type": "function",
      "constant": true
    },
    {
      "inputs": [
        {
          "internalType": "address",
          "name": "_manufacturer",
          "type": "address"
        }
      ],
      "name": "getManufacturedMedicinesAddress",
      "outputs": [
        {
          "internalType": "address[]",
          "name": "",
          "type": "address[]"
        }
      ],
      "stateMutability": "view",
      "type": "function",
      "constant": true
    },
    {
      "inputs": [
        {
          "internalType": "address",
          "name": "_batchId",
          "type": "address"
        }
      ],
      "name": "getMedicineDetailsByBatchId",
      "outputs": [
        {
          "internalType": "address",
          "name": "medicineId",
          "type": "address"
        },
        {
          "internalType": "address",
          "name": "manufacturer",
          "type": "address"
        },
        {
          "internalType": "string",
          "name": "description",
          "type": "string"
        },
        {
          "internalType": "string",
          "name": "medicineName",
          "type": "string"
        },
        {
          "internalType": "string",
          "name": "location",
          "type": "string"
        },
        {
          "internalType": "address",
          "name": "materialId",
          "type": "address"
        },
        {
          "internalType": "uint256",
          "name": "quantity",
          "type": "uint256"
        },
        {
          "internalType": "address",
          "name": "shipper",
          "type": "address"
        },
        {
          "internalType": "address",
          "name": "distributor",
          "type": "address"
        },
        {
          "internalType": "uint256",
          "name": "packageStatus",
          "type": "uint256"
        },
        {
          "internalType": "uint256[]",
          "name": "transactionBlocks",
          "type": "uint256[]"
        }
      ],
      "stateMutability": "view",
      "type": "function",
      "constant": true
    },
    {
      "inputs": [
        {
          "internalType": "address",
          "name": "_distributor",
          "type": "address"
        }
      ],
      "name": "getAllShippedMedicineList",
      "outputs": [
        {
          "internalType": "address[]",
          "name": "",
          "type": "address[]"
        }
      ],
      "stateMutability": "view",
      "type": "function",
      "constant": true
    },
    {
      "inputs": [
        {
          "internalType": "address",
          "name": "_pharma",
          "type": "address"
        }
      ],
      "name": "getAllTransferredMedicineBatches",
      "outputs": [
        {
          "internalType": "address[]",
          "name": "",
          "type": "address[]"
        }
      ],
      "stateMutability": "view",
      "type": "function",
      "constant": true
    },
    {
      "inputs": [
        {
          "internalType": "address",
          "name": "_subContractId",
          "type": "address"
        }
      ],
      "name": "getMedicineBatchSubContractDetails",
      "outputs": [
        {
          "internalType": "address",
          "name": "medicineId",
          "type": "address"
        },
        {
          "internalType": "address",
          "name": "shipper",
          "type": "address"
        },
        {
          "internalType": "address",
          "name": "distributor",
          "type": "address"
        },
        {
          "internalType": "uint256",
          "name": "packageStatus",
          "type": "uint256"
        },
        {
          "internalType": "uint256",
          "name": "medicineStatus",
          "type": "uint256"
        }
      ],
      "stateMutability": "view",
      "type": "function",
      "constant": true
    },
    {
      "inputs": [
        {
          "internalType": "address",
          "name": "_medicineID",
          "type": "address"
        }
      ],
      "name": "getMedicineSaleStatusByID",
      "outputs": [
        {
          "internalType": "uint256",
          "name": "",
          "type": "uint256"
        }
      ],
      "stateMutability": "view",
      "type": "function",
      "constant": true
    },
    {
      "inputs": [
        {
          "internalType": "address",
          "name": "_pharma",
          "type": "address"
        }
      ],
      "name": "getCustomerInfoByPharmaShop",
      "outputs": [
        {
          "components": [
            {
              "internalType": "string",
              "name": "customerName",
              "type": "string"
            },
            {
              "internalType": "uint256",
              "name": "customerAge",
              "type": "uint256"
            },
            {
              "internalType": "string",
              "name": "doctorName",
              "type": "string"
            },
            {
              "internalType": "uint256",
              "name": "quantity",
              "type": "uint256"
            },
            {
              "internalType": "uint256",
              "name": "amountPaid",
              "type": "uint256"
            },
            {
              "internalType": "address",
              "name": "medicineId",
              "type": "address"
            },
            {
              "internalType": "address",
              "name": "materialId",
              "type": "address"
            }
          ],
          "internalType": "struct Customer.CustomerInfo[]",
          "name": "",
          "type": "tuple[]"
        }
      ],
      "stateMutability": "view",
      "type": "function",
      "constant": true
    }
  ],
  "bytecode": "0x608060405234801561001057600080fd5b5060008054600160a060020a031916331790556167a5806100326000396000f3fe60806040523480156200001157600080fd5b5060043610620002655760003560e060020a90048063798048d7116200014d578063b50f6b6c11620000cb578063da900121116200008a578063da9001211462000649578063eaa2f67f1462000660578063eae3c2071462000677578063ecad383e146200068e578063f2bdb8f914620006a557600080fd5b8063b50f6b6c14620005c2578063b6e44d8614620005d9578063b8ca628f14620005f0578063babe16551462000607578063bc063e59146200063257600080fd5b80638da5cb5b11620001185780638da5cb5b14620005545780639cb7d8231462000568578063a00453c01462000598578063a0a5992c14620005af578063a5dff99414620005b857600080fd5b8063798048d714620004f85780637e8e8c5c146200050f5780638620ca48146200052657806387308c6c146200053d57600080fd5b80632f0c212711620001e75780635c60f22611620001a65780635c60f226146200044f5780635f92ee3d14620004665780636386c1c7146200049557806368ab3fe414620004bb578063715f237e14620004d257600080fd5b80632f0c212714620003da57806338201eab14620003f1578063397388af14620004085780633bb3ec9e1462000421578063562cafe4146200043857600080fd5b806314c4aecd116200023457806314c4aecd146200033f57806315f6d2c414620003565780631bfb240f14620003865780631d3a8439146200039d5780631e1055f814620003c357600080fd5b8063022a3fdb146200026a5780630620ee8f14620002bf57806310e8b22d14620002fa5780631100762d1462000313575b600080fd5b620002816200027b3660046200314e565b620006bc565b60408051600160a060020a039687168152948616602086015292909416918301919091526060820152608081019190915260a0015b60405180910390f35b620002eb620002d03660046200314e565b600160a060020a031660009081526004602052604090205490565b604051908152602001620002b6565b620003116200030b3660046200356f565b6200079a565b005b620002eb620003243660046200314e565b600160a060020a031660009081526006602052604090205490565b6200031162000350366004620035ee565b620009f3565b6200036d6200036736600462003777565b62000ad0565b604051600160a060020a039091168152602001620002b6565b620002eb620003973660046200314e565b62000b09565b620003b4620003ae3660046200314e565b62000b89565b604051620002b6919062003e97565b62000311620003d436600462003934565b62000c01565b62000311620003eb366004620031cc565b62000d40565b6200036d62000402366004620039f1565b62000fb8565b6200041262000fe3565b604051620002b6919062003fb1565b6200031162000432366004620036c6565b62001273565b620003b4620004493660046200314e565b62001598565b62000311620004603660046200314e565b6200160e565b6200047d620004773660046200314e565b62001739565b604051620002b69a9998979695949392919062003d13565b620004ac620004a63660046200314e565b620017e6565b604051620002b6919062004191565b62000311620004cc3660046200318e565b62001a41565b620004e9620004e33660046200314e565b62001bac565b604051620002b6919062003ee6565b62000311620005093660046200318e565b62001d9d565b6200031162000520366004620034d3565b62001f06565b620002eb620005373660046200314e565b62002032565b620003b46200054e3660046200314e565b62002062565b6000546200036d90600160a060020a031681565b6200057f620005793660046200314e565b620020d8565b604051620002b69b9a9998979695949392919062003bec565b62000311620005a9366004620036c6565b6200218b565b600c54620002eb565b620002eb600c5481565b62000311620005d33660046200386c565b620021ec565b620003b4620005ea3660046200314e565b620023ed565b620003b4620006013660046200314e565b62002463565b6200061e62000618366004620039f1565b620024d9565b604051620002b69695949392919062003db3565b6200031162000643366004620035ee565b620026e8565b620003116200065a366004620035ee565b6200287f565b620004ac6200067136600462003519565b6200291f565b620003116200068836600462003777565b62002abf565b620003116200069f366004620037a6565b62002b61565b6200036d620006b636600462003777565b62002cf6565b600080600080600080600080600089600160a060020a0316637fb8174a6040518163ffffffff1660e060020a02815260040160806040518083038186803b1580156200070757600080fd5b505afa1580156200071c573d6000803e3d6000fd5b505050506040513d601f19601f820116820180604052508101906200074291906200321e565b600160a060020a0384166000908152600b602052604090205493975091955093509150849084908490849060ff166004811115620007845762000784620042ca565b939e929d50909b50995090975095505050505050565b60083360009081526002602052604090206003015460ff166008811115620007c657620007c6620042ca565b14620007f25760405160e560020a62461bcd028152600401620007e99062004123565b60405180910390fd5b600160a060020a0380841660008181526002602052604090205490911614620008325760405160e560020a62461bcd028152600401620007e990620040ec565b600160a060020a03831660009081526002602052604090206005015460ff1615620008a35760405160e560020a62461bcd02815260206004820152600b60248201527f5553525f44454c455445440000000000000000000000000000000000000000006044820152606401620007e9565b600160a060020a03831660009081526002602081815260409092208451620008d49391909201919085019062002ece565b50600160a060020a03831660009081526002602090815260409091208251620009069260049092019184019062002ece565b506000805b600154811015620009705784600160a060020a031660018281548110620009365762000936620042e3565b6000918252602090912060069091020154600160a060020a031614156200095b578091505b80620009678162004293565b9150506200090b565b508260018281548110620009885762000988620042e3565b90600052602060002090600602016002019080519060200190620009ae92919062002ece565b508160018281548110620009c657620009c6620042e3565b90600052602060002090600602016004019080519060200190620009ec92919062002ece565b5050505050565b60033360009081526002602052604090206003015460ff16600881111562000a1f5762000a1f620042ca565b1462000a425760405160e560020a62461bcd028152600401620007e9906200415a565b6040517f8915a8fa000000000000000000000000000000000000000000000000000000008152600160a060020a03881690638915a8fa9062000a9390899088908a9089908990899060040162004016565b600060405180830381600087803b15801562000aae57600080fd5b505af115801562000ac3573d6000803e3d6000fd5b5050505050505050505050565b6003602052816000526040600020818154811062000aed57600080fd5b600091825260209091200154600160a060020a03169150829050565b600081600160a060020a031663922962996040518163ffffffff1660e060020a02815260040160206040518083038186803b15801562000b4857600080fd5b505afa15801562000b5d573d6000803e3d6000fd5b505050506040513d601f19601f8201168201806040525081019062000b83919062003a0b565b92915050565b600160a060020a03811660009081526008602090815260409182902080548351818402810184019094528084526060939283018282801562000bf557602002820191906000526020600020905b8154600160a060020a0316815260019091019060200180831162000bd6575b50505050509050919050565b60063360009081526002602052604090206003015460ff16600881111562000c2d5762000c2d620042ca565b1462000c505760405160e560020a62461bcd028152600401620007e9906200407e565b6001600160a060020a0384166000908152600b602052604090205460ff16600481111562000c825762000c82620042ca565b101562000cd55760405160e560020a62461bcd02815260206004820152600e60248201527f4d5f4d5553545f41545f415052440000000000000000000000000000000000006044820152606401620007e9565b80600481111562000cea5762000cea620042ca565b600160a060020a0384166000908152600b60205260409020805460ff1916600183600481111562000d1f5762000d1f620042ca565b021790555062000d368888888888883389620021ec565b5050505050505050565b60053360009081526002602052604090206003015460ff16600881111562000d6c5762000d6c620042ca565b1462000dc05760405160e560020a62461bcd028152600401620007e99060208082526004908201527f4f44434300000000000000000000000000000000000000000000000000000000604082015260600190565b62000dcb8362002d13565b60008333838560405162000ddf9062002f5d565b600160a060020a039485168152928416602084015290831660408301529091166060820152608001604051809103906000f08015801562000e24573d6000803e3d6000fd5b506040517f43330ec2000000000000000000000000000000000000000000000000000000008152600160a060020a038681166004830152919250908216906343330ec290602401600060405180830381600087803b15801562000e8657600080fd5b505af115801562000e9b573d6000803e3d6000fd5b50505050600160a060020a0383811660009081526008602090815260408083208054600181018255908452828420018054600160a060020a03191686861617905580517f73b037db000000000000000000000000000000000000000000000000000000008152905192938816926373b037db92600480840193919291829003018186803b15801562000f2c57600080fd5b505afa15801562000f41573d6000803e3d6000fd5b505050506040513d601f19601f8201168201806040525081019062000f67919062003a0b565b60408051600160a060020a03888116825260208201849052929350918416917f60524821b161231fd2b71a1da7fcbe0d151b7141de0591aa82699f0ff11852b0910160405180910390a25050505050565b6007818154811062000fc957600080fd5b600091825260209091200154600160a060020a0316905081565b60606001805480602002602001604051908101604052809291908181526020016000905b828210156200126a5760008481526020908190206040805160c08101909152600685029091018054600160a060020a031682526001810180549293919291840191620010539062004253565b80601f0160208091040260200160405190810160405280929190818152602001828054620010819062004253565b8015620010d25780601f10620010a657610100808354040283529160200191620010d2565b820191906000526020600020905b815481529060010190602001808311620010b457829003601f168201915b50505050508152602001600282018054620010ed9062004253565b80601f01602080910402602001604051908101604052809291908181526020018280546200111b9062004253565b80156200116c5780601f1062001140576101008083540402835291602001916200116c565b820191906000526020600020905b8154815290600101906020018083116200114e57829003601f168201915b5050509183525050600382015460209091019060ff166008811115620011965762001196620042ca565b6008811115620011aa57620011aa620042ca565b8152602001600482018054620011c09062004253565b80601f0160208091040260200160405190810160405280929190818152602001828054620011ee9062004253565b80156200123f5780601f1062001213576101008083540402835291602001916200123f565b820191906000526020600020905b8154815290600101906020018083116200122157829003601f168201915b50505091835250506005919091015460ff161515602091820152908252600192909201910162001007565b50505050905090565b60083360009081526002602052604090206003015460ff1660088111156200129f576200129f620042ca565b14620012c25760405160e560020a62461bcd028152600401620007e99062004123565b600160a060020a038086166000818152600260205260409020549091161415620013325760405160e560020a62461bcd02815260206004820152600960248201527f5553525f455849535400000000000000000000000000000000000000000000006044820152606401620007e9565b6200133c62002f6b565b600160a060020a038616815260208101859052604081018490528260088111156200136b576200136b620042ca565b81606001906008811115620013845762001384620042ca565b908160088111156200139a576200139a620042ca565b90525060808101829052600060a08201819052600160a060020a03878116825260026020908152604090922083518154600160a060020a03191692169190911781558183015180518493620013f792600185019291019062002ece565b50604082015180516200141591600284019160209091019062002ece565b50606082015160038201805460ff191660018360088111156200143c576200143c620042ca565b0217905550608082015180516200145e91600484019160209091019062002ece565b5060a091909101516005909101805460ff191691151591909117905560018054808201825560009190915281517fb10e2d527612073b26eecdfd717e6a320cf44b4afac2b0732d9fcbe2b7fa0cf660069092029182018054600160a060020a031916600160a060020a03909216919091178155602080840151805185946200150d937fb10e2d527612073b26eecdfd717e6a320cf44b4afac2b0732d9fcbe2b7fa0cf790910192019062002ece565b50604082015180516200152b91600284019160209091019062002ece565b50606082015160038201805460ff19166001836008811115620015525762001552620042ca565b0217905550608082015180516200157491600484019160209091019062002ece565b5060a091909101516005909101805460ff1916911515919091179055505050505050565b600160a060020a03811660009081526004602090815260409182902080548351818402810184019094528084526060939283018282801562000bf557602002820191906000526020600020908154600160a060020a0316815260019091019060200180831162000bd65750505050509050919050565b60083360009081526002602052604090206003015460ff1660088111156200163a576200163a620042ca565b146200165d5760405160e560020a62461bcd028152600401620007e99062004123565b600160a060020a03808216600081815260026020526040902054909116146200169d5760405160e560020a62461bcd028152600401620007e990620040ec565b604080518082018252600881527f496e6163746976650000000000000000000000000000000000000000000000006020808301918252600160a060020a03851660009081526002909152929092209051620016ff926004909201919062002ece565b50600160a060020a0381166000908152600260205260409020600501805460ff191660019081179091556200173690829062002d67565b50565b600080606080606060008060008060608a600160a060020a031663b1767f876040518163ffffffff1660e060020a02815260040160006040518083038186803b1580156200178657600080fd5b505afa1580156200179b573d6000803e3d6000fd5b505050506040513d6000823e601f3d908101601f19168201604052620017c59190810190620033b9565b99509950995099509950995099509950995099509193959799509193959799565b620017f062002f6b565b600160a060020a03808316600090815260026020908152604091829020825160c081019093528054909316825260018301805492939291840191620018359062004253565b80601f0160208091040260200160405190810160405280929190818152602001828054620018639062004253565b8015620018b45780601f106200188857610100808354040283529160200191620018b4565b820191906000526020600020905b8154815290600101906020018083116200189657829003601f168201915b50505050508152602001600282018054620018cf9062004253565b80601f0160208091040260200160405190810160405280929190818152602001828054620018fd9062004253565b80156200194e5780601f1062001922576101008083540402835291602001916200194e565b820191906000526020600020905b8154815290600101906020018083116200193057829003601f168201915b5050509183525050600382015460209091019060ff166008811115620019785762001978620042ca565b60088111156200198c576200198c620042ca565b8152602001600482018054620019a29062004253565b80601f0160208091040260200160405190810160405280929190818152602001828054620019d09062004253565b801562001a215780601f10620019f55761010080835404028352916020019162001a21565b820191906000526020600020905b81548152906001019060200180831162001a0357829003601f168201915b50505091835250506005919091015460ff16151560209091015292915050565b60033360009081526002602052604090206003015460ff16600881111562001a6d5762001a6d620042ca565b1462001a905760405160e560020a62461bcd028152600401620007e9906200415a565b81600160a060020a031663644754d56040518163ffffffff1660e060020a028152600401600060405180830381600087803b15801562001acf57600080fd5b505af115801562001ae4573d6000803e3d6000fd5b5050505081600160a060020a03166373b037db6040518163ffffffff1660e060020a02815260040160206040518083038186803b15801562001b2557600080fd5b505afa15801562001b3a573d6000803e3d6000fd5b505050506040513d601f19601f8201168201806040525081019062001b60919062003a0b565b6001141562001ba857600160a060020a038181166000908152600660209081526040822080546001810182559083529120018054600160a060020a0319169184169190911790555b5050565b600160a060020a0381166000908152600a60209081526040808320805482518185028101850190935280835260609492939192909184015b8282101562001d9257838290600052602060002090600702016040518060e001604052908160008201805462001c1a9062004253565b80601f016020809104026020016040519081016040528092919081815260200182805462001c489062004253565b801562001c995780601f1062001c6d5761010080835404028352916020019162001c99565b820191906000526020600020905b81548152906001019060200180831162001c7b57829003601f168201915b505050505081526020016001820154815260200160028201805462001cbe9062004253565b80601f016020809104026020016040519081016040528092919081815260200182805462001cec9062004253565b801562001d3d5780601f1062001d115761010080835404028352916020019162001d3d565b820191906000526020600020905b81548152906001019060200180831162001d1f57829003601f168201915b50505091835250506003820154602080830191909152600483015460408301526005830154600160a060020a039081166060840152600690930154909216608090910152908252600192909201910162001be4565b505050509050919050565b60013360009081526002602052604090206003015460ff16600881111562001dc95762001dc9620042ca565b1462001dec5760405160e560020a62461bcd028152600401620007e990620040b5565b81600160a060020a031663b27a29706040518163ffffffff1660e060020a028152600401600060405180830381600087803b15801562001e2b57600080fd5b505af115801562001e40573d6000803e3d6000fd5b5050505081600160a060020a031663922962996040518163ffffffff1660e060020a02815260040160206040518083038186803b15801562001e8157600080fd5b505afa15801562001e96573d6000803e3d6000fd5b505050506040513d601f19601f8201168201806040525081019062001ebc919062003a0b565b6001141562001ba857600160a060020a039081166000908152600460209081526040822080546001810182559083529120018054600160a060020a03191692909116919091179055565b60063360009081526002602052604090206003015460ff16600881111562001f325762001f32620042ca565b1462001f555760405160e560020a62461bcd028152600401620007e9906200407e565b6040517fb946588c000000000000000000000000000000000000000000000000000000008152600160a060020a03848116600483015283169063b946588c90602401600060405180830381600087803b15801562001fb257600080fd5b505af115801562001fc7573d6000803e3d6000fd5b5050505080600481111562001fe05762001fe0620042ca565b600160a060020a0384166000908152600b60205260409020805460ff19166001836004811115620020155762002015620042ca565b0217905550600c546200202a90600162004205565b600c55505050565b600160a060020a0381166000908152600b602052604081205460ff16600481111562000b835762000b83620042ca565b600160a060020a03811660009081526006602090815260409182902080548351818402810184019094528084526060939283018282801562000bf557602002820191906000526020600020908154600160a060020a0316815260019091019060200180831162000bd65750505050509050919050565b6000806060806060600080600080600060608b600160a060020a031663553098916040518163ffffffff1660e060020a02815260040160006040518083038186803b1580156200212757600080fd5b505afa1580156200213c573d6000803e3d6000fd5b505050506040513d6000823e601f3d908101601f1916820160405262002166919081019062003278565b9a509a509a509a509a509a509a509a509a509a509a5091939597999b90929496989a50565b600054600160a060020a03163314620012c25760405160e560020a62461bcd028152600401620007e99060208082526004908201527f4f57434300000000000000000000000000000000000000000000000000000000604082015260600190565b6200223f6040518060e0016040528060608152602001600081526020016060815260200160008152602001600081526020016000600160a060020a031681526020016000600160a060020a031681525090565b888152602080820189905260408083018990526060830188905260808301879052600160a060020a0380851660c0850152861660a08401819052600090815260098352908120805460018101825590825290829020835180518594600790940290920192620022b49284929091019062002ece565b50602082810151600183015560408301518051620022d9926002850192019062002ece565b50606082015160038201556080820151600482015560a0820151600582018054600160a060020a0319908116600160a060020a039384161790915560c090930151600690920180549093169181169190911790915583166000908152600a602090815260408220805460018101825590835291819020835180518594600702909201926200236d9284929091019062002ece565b5060208281015160018301556040830151805162002392926002850192019062002ece565b50606082015160038201556080820151600482015560a0820151600582018054600160a060020a0319908116600160a060020a039384161790915560c090930151600690920180549093169116179055505050505050505050565b600160a060020a03811660009081526005602090815260409182902080548351818402810184019094528084526060939283018282801562000bf557602002820191906000526020600020908154600160a060020a0316815260019091019060200180831162000bd65750505050509050919050565b600160a060020a03811660009081526003602090815260409182902080548351818402810184019094528084526060939283018282801562000bf557602002820191906000526020600020908154600160a060020a0316815260019091019060200180831162000bd65750505050509050919050565b60018181548110620024ea57600080fd5b600091825260209091206006909102018054600182018054600160a060020a039092169350906200251b9062004253565b80601f0160208091040260200160405190810160405280929190818152602001828054620025499062004253565b80156200259a5780601f106200256e576101008083540402835291602001916200259a565b820191906000526020600020905b8154815290600101906020018083116200257c57829003601f168201915b505050505090806002018054620025b19062004253565b80601f0160208091040260200160405190810160405280929190818152602001828054620025df9062004253565b8015620026305780601f10620026045761010080835404028352916020019162002630565b820191906000526020600020905b8154815290600101906020018083116200261257829003601f168201915b5050506003840154600485018054949560ff909216949193509150620026569062004253565b80601f0160208091040260200160405190810160405280929190818152602001828054620026849062004253565b8015620026d55780601f10620026a957610100808354040283529160200191620026d5565b820191906000526020600020905b815481529060010190602001808311620026b757829003601f168201915b5050506005909301549192505060ff1686565b60033360009081526002602052604090206003015460ff166008811115620027145762002714620042ca565b14620027375760405160e560020a62461bcd028152600401620007e9906200415a565b620027428762002e8f565b600033888689898888886040516200275a9062002fbe565b6200276d98979695949392919062003c96565b604051809103906000f0801580156200278a573d6000803e3d6000fd5b509050600081600160a060020a031663b25373c96040518163ffffffff1660e060020a02815260040160206040518083038186803b158015620027cc57600080fd5b505afa158015620027e1573d6000803e3d6000fd5b505050506040513d601f19601f820116820180604052508101906200280791906200316e565b33600090815260056020908152604080832080546001810182559084529183209091018054600160a060020a031916600160a060020a038781169190911790915590519293508316917f8db6d7b51a76f210955cc963ffb2f4c600686d546146c97bfe14f55b138b97959190a2505050505050505050565b60013360009081526002602052604090206003015460ff166008811115620028ab57620028ab620042ca565b14620028ce5760405160e560020a62461bcd028152600401620007e990620040b5565b6040517fcf1287e1000000000000000000000000000000000000000000000000000000008152600160a060020a0388169063cf1287e19062000a939089908990899089908990899060040162004016565b6200292962002f6b565b600160a060020a0380841660008181526002602052604090205490911614620029695760405160e560020a62461bcd028152600401620007e990620040ec565b81805190602001206002600085600160a060020a0316600160a060020a03168152602001908152602001600020600101604051620029a8919062003b45565b604051809103902014620029d35760405160e560020a62461bcd028152600401620007e990620040ec565b604080518082018252600681527f4163746976650000000000000000000000000000000000000000000000000000602091820152600160a060020a0385166000908152600290915281902090517ff07b88471cd28dc438f2291190512bd968fbd79b8c86b9ed015e51c1261d911f9162002a539160049091019062003b45565b60405180910390201462002aad5760405160e560020a62461bcd02815260206004820152600d60248201527f5553525f4e545f414354495645000000000000000000000000000000000000006044820152606401620007e9565b62002ab883620017e6565b9392505050565b60063360009081526002602052604090206003015460ff16600881111562002aeb5762002aeb620042ca565b1462002b0e5760405160e560020a62461bcd028152600401620007e9906200407e565b80600481111562002b235762002b23620042ca565b600160a060020a0383166000908152600b60205260409020805460ff1916600183600481111562002b585762002b58620042ca565b02179055505050565b60013360009081526002602052604090206003015460ff16600881111562002b8d5762002b8d620042ca565b1462002bb05760405160e560020a62461bcd028152600401620007e990620040b5565b60003387878787878760405162002bc79062002fcc565b62002bd9979695949392919062003e26565b604051809103906000f08015801562002bf6573d6000803e3d6000fd5b509050600081600160a060020a031663f6f1bf666040518163ffffffff1660e060020a02815260040160206040518083038186803b15801562002c3857600080fd5b505afa15801562002c4d573d6000803e3d6000fd5b505050506040513d601f19601f8201168201806040525081019062002c7391906200316e565b3360008181526003602090815260408083208054600181018255908452928290209092018054600160a060020a031916600160a060020a03868116918217909255925188821681529495508816937f728267d54f823d734daeb96ba05b79fcaea723977ba2f95b1036694d36e547c9910160405180910390a45050505050505050565b6004602052816000526040600020818154811062000aed57600080fd5b80600160a060020a031663a761dc4f6040518163ffffffff1660e060020a028152600401600060405180830381600087803b15801562002d5257600080fd5b505af1158015620009ec573d6000803e3d6000fd5b6000805b60015481101562002dd05783600160a060020a03166001828154811062002d965762002d96620042e3565b6000918252602090912060069091020154600160a060020a0316141562002dbb578091505b8062002dc78162004293565b91505062002d6b565b506040518060400160405280600881526020017f496e6163746976650000000000000000000000000000000000000000000000008152506001828154811062002e1d5762002e1d620042e3565b9060005260206000209060060201600401908051906020019062002e4392919062002ece565b506001821515141562002e8a57600180828154811062002e675762002e67620042e3565b60009182526020909120600690910201600501805460ff19169115159190911790555b505050565b80600160a060020a031663ee8a544a6040518163ffffffff1660e060020a028152600401600060405180830381600087803b15801562002d5257600080fd5b82805462002edc9062004253565b90600052602060002090601f01602090048101928262002f00576000855562002f4b565b82601f1062002f1b57805160ff191683800117855562002f4b565b8280016001018555821562002f4b579182015b8281111562002f4b57825182559160200191906001019062002f2e565b5062002f5992915062002fda565b5090565b610608806200432c83390190565b6040518060c001604052806000600160a060020a0316815260200160608152602001606081526020016000600881111562002faa5762002faa620042ca565b815260606020820152600060409091015290565b611027806200493483390190565b610e15806200595b83390190565b5b8082111562002f59576000815560010162002fdb565b803562002ffe8162004315565b919050565b805162002ffe8162004315565b600082601f8301126200302257600080fd5b8151602067ffffffffffffffff821115620030415762003041620042fc565b80820262003051828201620041a6565b8381528281019086840183880185018910156200306d57600080fd5b600093505b858410156200309257805183526001939093019291840191840162003072565b50979650505050505050565b600082601f830112620030b057600080fd5b8135620030c7620030c182620041da565b620041a6565b818152846020838601011115620030dd57600080fd5b816020850160208301376000918101602001919091529392505050565b600082601f8301126200310c57600080fd5b81516200311d620030c182620041da565b8181528460208386010111156200313357600080fd5b6200314682602083016020870162004220565b949350505050565b6000602082840312156200316157600080fd5b813562002ab88162004315565b6000602082840312156200318157600080fd5b815162002ab88162004315565b60008060408385031215620031a257600080fd5b8235620031af8162004315565b91506020830135620031c18162004315565b809150509250929050565b600080600060608486031215620031e257600080fd5b8335620031ef8162004315565b92506020840135620032018162004315565b91506040840135620032138162004315565b809150509250925092565b600080600080608085870312156200323557600080fd5b8451620032428162004315565b6020860151909450620032558162004315565b6040860151909350620032688162004315565b6060959095015193969295505050565b60008060008060008060008060008060006101608c8e0312156200329b57600080fd5b620032a68c62003003565b9a50620032b660208d0162003003565b995060408c015167ffffffffffffffff811115620032d357600080fd5b620032e18e828f01620030fa565b99505060608c015167ffffffffffffffff811115620032ff57600080fd5b6200330d8e828f01620030fa565b98505060808c015167ffffffffffffffff8111156200332b57600080fd5b620033398e828f01620030fa565b9750506200334a60a08d0162003003565b955060c08c015194506200336160e08d0162003003565b9350620033726101008d0162003003565b92506101208c015191506101408c015167ffffffffffffffff8111156200339857600080fd5b620033a68e828f0162003010565b9150509295989b509295989b9093969950565b6000806000806000806000806000806101408b8d031215620033da57600080fd5b620033e58b62003003565b9950620033f560208c0162003003565b985060408b015167ffffffffffffffff808211156200341357600080fd5b620034218e838f01620030fa565b995060608d01519150808211156200343857600080fd5b620034468e838f01620030fa565b985060808d01519150808211156200345d57600080fd5b6200346b8e838f01620030fa565b975060a08d015196506200348260c08e0162003003565b95506200349260e08e0162003003565b94506101008d015193506101208d0151915080821115620034b257600080fd5b50620034c18d828e0162003010565b9150509295989b9194979a5092959850565b600080600060608486031215620034e957600080fd5b8335620034f68162004315565b92506020840135620035088162004315565b929592945050506040919091013590565b600080604083850312156200352d57600080fd5b82356200353a8162004315565b9150602083013567ffffffffffffffff8111156200355757600080fd5b62003565858286016200309e565b9150509250929050565b6000806000606084860312156200358557600080fd5b8335620035928162004315565b9250602084013567ffffffffffffffff80821115620035b057600080fd5b620035be878388016200309e565b93506040860135915080821115620035d557600080fd5b50620035e4868287016200309e565b9150509250925092565b600080600080600080600060e0888a0312156200360a57600080fd5b8735620036178162004315565b9650602088013567ffffffffffffffff808211156200363557600080fd5b620036438b838c016200309e565b975060408a01359150808211156200365a57600080fd5b620036688b838c016200309e565b965060608a01359150808211156200367f57600080fd5b506200368e8a828b016200309e565b9450506080880135925060a0880135620036a88162004315565b9150620036b860c0890162002ff1565b905092959891949750929550565b600080600080600060a08688031215620036df57600080fd5b8535620036ec8162004315565b9450602086013567ffffffffffffffff808211156200370a57600080fd5b6200371889838a016200309e565b955060408801359150808211156200372f57600080fd5b6200373d89838a016200309e565b94506060880135935060808801359150808211156200375b57600080fd5b506200376a888289016200309e565b9150509295509295909350565b600080604083850312156200378b57600080fd5b8235620037988162004315565b946020939093013593505050565b60008060008060008060c08789031215620037c057600080fd5b863567ffffffffffffffff80821115620037d957600080fd5b620037e78a838b016200309e565b97506020890135915080821115620037fe57600080fd5b6200380c8a838b016200309e565b965060408901359150808211156200382357600080fd5b506200383289828a016200309e565b9450506060870135925060808701356200384c8162004315565b915060a08701356200385e8162004315565b809150509295509295509295565b600080600080600080600080610100898b0312156200388a57600080fd5b883567ffffffffffffffff80821115620038a357600080fd5b620038b18c838d016200309e565b995060208b0135985060408b0135915080821115620038cf57600080fd5b50620038de8b828c016200309e565b965050606089013594506080890135935060a0890135620038ff8162004315565b925060c0890135620039118162004315565b915060e0890135620039238162004315565b809150509295985092959890939650565b600080600080600080600080610100898b0312156200395257600080fd5b883567ffffffffffffffff808211156200396b57600080fd5b620039798c838d016200309e565b995060208b0135985060408b01359150808211156200399757600080fd5b50620039a68b828c016200309e565b965050606089013594506080890135935060a0890135620039c78162004315565b925060c0890135620039d98162004315565b8092505060e089013590509295985092959890939650565b60006020828403121562003a0457600080fd5b5035919050565b60006020828403121562003a1e57600080fd5b5051919050565b600081518084526020808501945080840160005b8381101562003a575781518752958201959082019060010162003a39565b509495945050505050565b6009811062003a845760e060020a634e487b7102600052602160045260246000fd5b9052565b6000815180845262003aa281602086016020860162004220565b601f01601f19169290920160200192915050565b600160a060020a0381511682526000602082015160c0602085015262003ae060c085018262003a88565b90506040830151848203604086015262003afb828262003a88565b915050606083015162003b12606086018262003a62565b506080830151848203608086015262003b2c828262003a88565b91505060a0830151151560a08501528091505092915050565b815460009081906002810460018083168062003b6257607f831692505b602080841082141562003b865760e060020a634e487b710286526022600452602486fd5b81801562003b9d576001811462003baf5762003bde565b60ff1986168952848901965062003bde565b60008a81526020902060005b8681101562003bd65781548b82015290850190830162003bbb565b505084890196505b509498975050505050505050565b6000610160600160a060020a03808f168452808e16602085015281604085015262003c1a8285018e62003a88565b9150838203606085015262003c30828d62003a88565b9150838203608085015262003c46828c62003a88565b9150808a1660a08501528860c085015280881660e0850152808716610100850152508461012084015282810361014084015262003c84818562003a25565b9e9d5050505050505050505050505050565b6000610100600160a060020a03808c168452808b16602085015281604085015262003cc48285018b62003a88565b9150838203606085015262003cda828a62003a88565b9150838203608085015262003cf0828962003a88565b60a085019790975294851660c08401525050911660e09091015295945050505050565b6000610140600160a060020a03808e168452808d16602085015281604085015262003d418285018d62003a88565b9150838203606085015262003d57828c62003a88565b9150838203608085015262003d6d828b62003a88565b91508860a085015280881660c085015280871660e0850152508461010084015282810361012084015262003da2818562003a25565b9d9c50505050505050505050505050565b600160a060020a038716815260c06020820152600062003dd760c083018862003a88565b828103604084015262003deb818862003a88565b905062003dfc606084018762003a62565b828103608084015262003e10818662003a88565b91505082151560a0830152979650505050505050565b6000600160a060020a03808a16835260e0602084015262003e4b60e084018a62003a88565b838103604085015262003e5f818a62003a88565b9050838103606085015262003e75818962003a88565b60808501979097525093841660a083015250911660c090910152949350505050565b6020808252825182820181905260009190848201906040850190845b8181101562003eda578351600160a060020a03168352928401929184019160010162003eb3565b50909695505050505050565b60208082528251828201819052600091906040908185019080840286018301878501865b8381101562003fa357603f19898403018552815160e0815181865262003f338287018262003a88565b9150508882015189860152878201518582038987015262003f55828262003a88565b606084810151908801526080808501519088015260a080850151600160a060020a039081169189019190915260c0948501511693909601929092525050938601939086019060010162003f0a565b509098975050505050505050565b600060208083018184528085518083526040860191506040848202870101925083870160005b828110156200400957603f1988860301845262003ff685835162003ab6565b9450928501929085019060010162003fd7565b5092979650505050505050565b60c0815260006200402b60c083018962003a88565b82810360208401526200403f818962003a88565b9050828103604084015262004055818862003a88565b60608401969096525050600160a060020a039283166080820152911660a0909101529392505050565b60208082526004908201527f4f50434300000000000000000000000000000000000000000000000000000000604082015260600190565b60208082526006908201527f4f524d5343430000000000000000000000000000000000000000000000000000604082015260600190565b6020808252600a908201527f5553525f4e545f52454700000000000000000000000000000000000000000000604082015260600190565b60208082526004908201527f4f41434300000000000000000000000000000000000000000000000000000000604082015260600190565b60208082526004908201527f4f4d434300000000000000000000000000000000000000000000000000000000604082015260600190565b60208152600062002ab8602083018462003ab6565b604051601f8201601f1916810167ffffffffffffffff81118282101715620041d257620041d2620042fc565b604052919050565b600067ffffffffffffffff821115620041f757620041f7620042fc565b50601f01601f191660200190565b600082198211156200421b576200421b620042b1565b500190565b60005b838110156200423d57818101518382015260200162004223565b838111156200424d576000848401525b50505050565b6002810460018216806200426857607f821691505b602082108114156200428d5760e060020a634e487b7102600052602260045260246000fd5b50919050565b6000600019821415620042aa57620042aa620042b1565b5060010190565b60e060020a634e487b7102600052601160045260246000fd5b60e060020a634e487b7102600052602160045260246000fd5b60e060020a634e487b7102600052603260045260246000fd5b60e060020a634e487b7102600052604160045260246000fd5b600160a060020a03811681146200173657600080fdfe608060405234801561001057600080fd5b5060405161060838038061060883398101604081905261002f916100e0565b60008054600160a060020a0319908116600160a060020a038681169182178455600180548416898316179055600380548416909217909155600480548316858316179055600280549092169085161790556004805460a060020a60ff021916740100000000000000000000000000000000000000008360028111156100b6576100b6610134565b021790555050505050610163565b8051600160a060020a03811681146100db57600080fd5b919050565b600080600080608085870312156100f657600080fd5b6100ff856100c4565b935061010d602086016100c4565b925061011b604086016100c4565b9150610129606086016100c4565b905092959194509250565b7f4e487b7100000000000000000000000000000000000000000000000000000000600052602160045260246000fd5b610496806101726000396000f3fe608060405234801561001057600080fd5b5060043610610073577c0100000000000000000000000000000000000000000000000000000000600035046343330ec28114610078578063678dd1181461008d5780637fb8174a146100b7578063b946588c146100f4578063e3837b0414610107575b600080fd5b61008b6100863660046103c0565b610132565b005b6004546100a19060a060020a900460ff1681565b6040516100ae91906103f0565b60405180910390f35b6100bf610266565b6040516100ae9493929190600160a060020a039485168152928416602084015292166040820152606081019190915260800190565b61008b6101023660046103c0565b6102b7565b60015461011a90600160a060020a031681565b604051600160a060020a0390911681526020016100ae565b600060045460a060020a900460ff16600281111561015257610152610431565b146101be576040517f08c379a000000000000000000000000000000000000000000000000000000000815260206004820152600a60248201527f4d5f4d53545f41545f440000000000000000000000000000000000000000000060448201526064015b60405180910390fd5b600480546001919074ff0000000000000000000000000000000000000000191660a060020a830217905550600480546040517fa3791bb3000000000000000000000000000000000000000000000000000000008152600160a060020a039182169281019290925282169063a3791bb390602401600060405180830381600087803b15801561024b57600080fd5b505af115801561025f573d6000803e3d6000fd5b5050505050565b60015460028054600354600454600094859485948594600160a060020a039384169491841693169160a060020a90910460ff16908111156102a9576102a9610431565b935093509350935090919293565b600160045460a060020a900460ff1660028111156102d7576102d7610431565b1461033e576040517f08c379a000000000000000000000000000000000000000000000000000000000815260206004820152600b60248201527f4d5f4d53545f41545f502e00000000000000000000000000000000000000000060448201526064016101b5565b600480546002919074ff0000000000000000000000000000000000000000191660a060020a83021790555080600160a060020a031663df1f41c86040518163ffffffff167c0100000000000000000000000000000000000000000000000000000000028152600401600060405180830381600087803b15801561024b57600080fd5b6000602082840312156103d257600080fd5b8135600160a060020a03811681146103e957600080fd5b9392505050565b602081016003831061042b577f4e487b7100000000000000000000000000000000000000000000000000000000600052602160045260246000fd5b91905290565b7f4e487b7100000000000000000000000000000000000000000000000000000000600052602160045260246000fdfea26469706673582212201e21bfd8f0cf6875f98b76ddc104d050e4eee35d59f4fabb8b530ec01ce58fdb64736f6c6343000806003360806040523480156200001157600080fd5b5060405162001027380380620010278339810160408190526200003491620002bb565b60008054600160a060020a03808b16600160a060020a03199283161790925560068054928a1692821692909217909155600180549091163017905585516200008490600290602089019062000141565b5084516200009a90600390602088019062000141565b508351620000b090600490602087019062000141565b5060059290925560078054600160a060020a0319908116600160a060020a03938416179091556008805490911692821692909217909155600a8054600160a860020a03191696909116959095179094555050600b8054600181018255600091909152437f0175b7a638427703f0dbe7bb9bbf987a2551717b34e79f33b5b1008d1fa01db99091015550620004269050565b8280546200014f90620003a1565b90600052602060002090601f016020900481019282620001735760008555620001be565b82601f106200018e57805160ff1916838001178555620001be565b82800160010185558215620001be579182015b82811115620001be578251825591602001919060010190620001a1565b50620001cc929150620001d0565b5090565b5b80821115620001cc5760008155600101620001d1565b8051600160a060020a0381168114620001ff57600080fd5b919050565b600082601f8301126200021657600080fd5b81516001604060020a0380821115620002335762000233620003f7565b604051601f8301601f19908116603f011681019082821181831017156200025e576200025e620003f7565b816040528381526020925086838588010111156200027b57600080fd5b600091505b838210156200029f578582018301518183018401529082019062000280565b83821115620002b15760008385830101525b9695505050505050565b600080600080600080600080610100898b031215620002d957600080fd5b620002e489620001e7565b9750620002f460208a01620001e7565b965060408901516001604060020a03808211156200031157600080fd5b6200031f8c838d0162000204565b975060608b01519150808211156200033657600080fd5b620003448c838d0162000204565b965060808b01519150808211156200035b57600080fd5b506200036a8b828c0162000204565b94505060a089015192506200038260c08a01620001e7565b91506200039260e08a01620001e7565b90509295985092959890939650565b600281046001821680620003b657607f821691505b60208210811415620003f1577f4e487b7100000000000000000000000000000000000000000000000000000000600052602260045260246000fd5b50919050565b7f4e487b7100000000000000000000000000000000000000000000000000000000600052604160045260246000fd5b610bf180620004366000396000f3fe608060405234801561001057600080fd5b50600436106100bb576000357c0100000000000000000000000000000000000000000000000000000000900480638915a8fa116100835780638915a8fa1461014a578063a3791bb31461015d578063a761dc4f14610170578063b25373c914610178578063df1f41c81461018b57600080fd5b806340019e5d146100c057806355309891146100ea578063644754d514610109578063678dd1181461011357806373b037db14610134575b600080fd5b600154600160a060020a03165b604051600160a060020a0390911681526020015b60405180910390f35b6100f2610193565b6040516100e19b9a99989796959493929190610a5e565b610111610417565b005b600a546101279060a060020a900460ff1681565b6040516100e19190610b00565b61013c6104ec565b6040519081526020016100e1565b610111610158366004610924565b610512565b61011161016b366004610902565b610592565b61011161068a565b6001546100cd90600160a060020a031681565b610111610725565b600154600a54600654600554600754600854600095869560609586958695899586958695869586958b95600160a060020a03948516958585169560029560039560049590831694909390831692169060a060020a900460ff16858111156101fc576101fc610b69565b600b88805461020a90610b2b565b80601f016020809104026020016040519081016040528092919081815260200182805461023690610b2b565b80156102835780601f1061025857610100808354040283529160200191610283565b820191906000526020600020905b81548152906001019060200180831161026657829003601f168201915b5050505050985087805461029690610b2b565b80601f01602080910402602001604051908101604052809291908181526020018280546102c290610b2b565b801561030f5780601f106102e45761010080835404028352916020019161030f565b820191906000526020600020905b8154815290600101906020018083116102f257829003601f168201915b5050505050975086805461032290610b2b565b80601f016020809104026020016040519081016040528092919081815260200182805461034e90610b2b565b801561039b5780601f106103705761010080835404028352916020019161039b565b820191906000526020600020905b81548152906001019060200180831161037e57829003601f168201915b50505050509650808054806020026020016040519081016040528092919081815260200182805480156103ed57602002820191906000526020600020905b8154815260200190600101908083116103d9575b505050505090509a509a509a509a509a509a509a509a509a509a509a50909192939495969798999a565b6000600a5460a060020a900460ff16600481111561043757610437610b69565b1461048c5760405160e560020a62461bcd02815260206004820152600b60248201527f4d5f4d5553545f41545f4d00000000000000000000000000000000000000000060448201526064015b60405180910390fd5b600b80546001818101835560009290925243600080516020610b9c833981519152909101555b600a805474ff0000000000000000000000000000000000000000191660a060020a8360048111156104e5576104e5610b69565b0217905550565b600a5460009060a060020a900460ff16600481111561050d5761050d610b69565b905090565b84516105259060029060208801906107c0565b5085516105399060039060208901906107c0565b50835161054d9060049060208701906107c0565b5060059290925560078054600160a060020a0392831673ffffffffffffffffffffffffffffffffffffffff199182161790915560088054929093169116179055505050565b6002600a5460a060020a900460ff1660048111156105b2576105b2610b69565b146106025760405160e560020a62461bcd02815260206004820152600b60248201527f4d5f4d5553545f41545f440000000000000000000000000000000000000000006044820152606401610483565b600b805460018101825560009190915243600080516020610b9c83398151915290910155600a805474ff00000000000000000000000000000000000000001916740300000000000000000000000000000000000000001790556009805473ffffffffffffffffffffffffffffffffffffffff1916600160a060020a0392909216919091179055565b6001600a5460a060020a900460ff1660048111156106aa576106aa610b69565b146106fa5760405160e560020a62461bcd02815260206004820152600b60248201527f4d5f4d5553545f41545f440000000000000000000000000000000000000000006044820152606401610483565b600b805460018101825560009190915243600080516020610b9c8339815191529091015560026104b2565b6003600a5460a060020a900460ff16600481111561074557610745610b69565b146107955760405160e560020a62461bcd02815260206004820152600b60248201527f4d5f4d5553545f41545f500000000000000000000000000000000000000000006044820152606401610483565b600b805460018101825560009190915243600080516020610b9c8339815191529091015560046104b2565b8280546107cc90610b2b565b90600052602060002090601f0160209004810192826107ee5760008555610834565b82601f1061080757805160ff1916838001178555610834565b82800160010185558215610834579182015b82811115610834578251825591602001919060010190610819565b50610840929150610844565b5090565b5b808211156108405760008155600101610845565b8035600160a060020a038116811461087057600080fd5b919050565b600082601f83011261088657600080fd5b813567ffffffffffffffff808211156108a1576108a1610b82565b604051601f8301601f19908116603f011681019082821181831017156108c9576108c9610b82565b816040528381528660208588010111156108e257600080fd5b836020870160208301376000602085830101528094505050505092915050565b60006020828403121561091457600080fd5b61091d82610859565b9392505050565b60008060008060008060c0878903121561093d57600080fd5b863567ffffffffffffffff8082111561095557600080fd5b6109618a838b01610875565b9750602089013591508082111561097757600080fd5b6109838a838b01610875565b9650604089013591508082111561099957600080fd5b506109a689828a01610875565b945050606087013592506109bc60808801610859565b91506109ca60a08801610859565b90509295509295509295565b600081518084526020808501945080840160005b83811015610a06578151875295820195908201906001016109ea565b509495945050505050565b6000815180845260005b81811015610a3757602081850181015186830182015201610a1b565b81811115610a49576000602083870101525b50601f01601f19169290920160200192915050565b6000610160600160a060020a03808f168452808e166020850152816040850152610a8a8285018e610a11565b91508382036060850152610a9e828d610a11565b91508382036080850152610ab2828c610a11565b9150808a1660a08501528860c085015280881660e08501528087166101008501525084610120840152828103610140840152610aee81856109d6565b9e9d5050505050505050505050505050565b6020810160058310610b255760e060020a634e487b7102600052602160045260246000fd5b91905290565b600281046001821680610b3f57607f821691505b60208210811415610b635760e060020a634e487b7102600052602260045260246000fd5b50919050565b60e060020a634e487b7102600052602160045260246000fd5b60e060020a634e487b7102600052604160045260246000fdfe0175b7a638427703f0dbe7bb9bbf987a2551717b34e79f33b5b1008d1fa01db9a2646970667358221220b16ffef191f0e37aae4b42cb59a00f8c25c631cf8d9e10f27bfd0d5d239584a064736f6c6343000806003360806040523480156200001157600080fd5b5060405162000e1538038062000e158339810160408190526200003491620002a7565b60008054600160a060020a038916600160a060020a03199182161790915560018054909116301790558551620000729060029060208901906200012d565b508451620000889060039060208801906200012d565b5083516200009e9060049060208701906200012d565b5060059290925560068054600160a060020a0319908116600160a060020a0393841617909155600780549091169282169290921790915560088054600160a860020a0319169590911694909417909355505060098054600181018255600091909152437f6e1540171b6c0c960b71a7020d9f60077f6af931a8bbf590da0223dacf75c7af9091015550620003ff565b8280546200013b906200037a565b90600052602060002090601f0160209004810192826200015f5760008555620001aa565b82601f106200017a57805160ff1916838001178555620001aa565b82800160010185558215620001aa579182015b82811115620001aa5782518255916020019190600101906200018d565b50620001b8929150620001bc565b5090565b5b80821115620001b85760008155600101620001bd565b8051600160a060020a0381168114620001eb57600080fd5b919050565b600082601f8301126200020257600080fd5b81516001604060020a03808211156200021f576200021f620003d0565b604051601f8301601f19908116603f011681019082821181831017156200024a576200024a620003d0565b816040528381526020925086838588010111156200026757600080fd5b600091505b838210156200028b57858201830151818301840152908201906200026c565b838211156200029d5760008385830101525b9695505050505050565b600080600080600080600060e0888a031215620002c357600080fd5b620002ce88620001d3565b965060208801516001604060020a0380821115620002eb57600080fd5b620002f98b838c01620001f0565b975060408a01519150808211156200031057600080fd5b6200031e8b838c01620001f0565b965060608a01519150808211156200033557600080fd5b50620003448a828b01620001f0565b945050608088015192506200035c60a08901620001d3565b91506200036c60c08901620001d3565b905092959891949750929550565b6002810460018216806200038f57607f821691505b60208210811415620003ca577f4e487b7100000000000000000000000000000000000000000000000000000000600052602260045260246000fd5b50919050565b7f4e487b7100000000000000000000000000000000000000000000000000000000600052604160045260246000fd5b610a06806200040f6000396000f3fe608060405234801561001057600080fd5b506004361061007e577c01000000000000000000000000000000000000000000000000000000006000350463922962998114610083578063b1767f871461009e578063b27a2970146100bc578063cf1287e1146100c6578063ee8a544a146100d9578063f6f1bf66146100e1575b600080fd5b61008b610109565b6040519081526020015b60405180910390f35b6100a661012f565b6040516100959a99989796959493929190610852565b6100c46103b5565b005b6100c46100d4366004610753565b6104b3565b6100c4610540565b60015460405173ffffffffffffffffffffffffffffffffffffffff9091168152602001610095565b60085460009060a060020a900460ff16600281111561012a5761012a610972565b905090565b6001546008546005546006546007546000948594606094859485948894859485948594899473ffffffffffffffffffffffffffffffffffffffff948516948085169460029460039460049491939081169291169060a060020a900460ff168681111561019d5761019d610972565b60098780546101ab9061091e565b80601f01602080910402602001604051908101604052809291908181526020018280546101d79061091e565b80156102245780601f106101f957610100808354040283529160200191610224565b820191906000526020600020905b81548152906001019060200180831161020757829003601f168201915b505050505097508680546102379061091e565b80601f01602080910402602001604051908101604052809291908181526020018280546102639061091e565b80156102b05780601f10610285576101008083540402835291602001916102b0565b820191906000526020600020905b81548152906001019060200180831161029357829003601f168201915b505050505096508580546102c39061091e565b80601f01602080910402602001604051908101604052809291908181526020018280546102ef9061091e565b801561033c5780601f106103115761010080835404028352916020019161033c565b820191906000526020600020905b81548152906001019060200180831161031f57829003601f168201915b505050505095508080548060200260200160405190810160405280929190818152602001828054801561038e57602002820191906000526020600020905b81548152602001906001019080831161037a575b50505050509050995099509950995099509950995099509950995090919293949596979899565b600060085460a060020a900460ff1660028111156103d5576103d5610972565b14610441576040517f08c379a000000000000000000000000000000000000000000000000000000000815260206004820152600c60248201527f524d5f4d5553545f41545f53000000000000000000000000000000000000000060448201526064015b60405180910390fd5b6009805460018181018355600092909252437f6e1540171b6c0c960b71a7020d9f60077f6af931a8bbf590da0223dacf75c7af909101555b6008805474ff0000000000000000000000000000000000000000191660a060020a8360028111156104ac576104ac610972565b0217905550565b85516104c6906002906020890190610604565b5084516104da906003906020880190610604565b5083516104ee906004906020870190610604565b506005929092556006805473ffffffffffffffffffffffffffffffffffffffff92831673ffffffffffffffffffffffffffffffffffffffff199182161790915560078054929093169116179055505050565b600160085460a060020a900460ff16600281111561056057610560610972565b146105c7576040517f08c379a000000000000000000000000000000000000000000000000000000000815260206004820152600c60248201527f524d5f4d5553545f41545f4d00000000000000000000000000000000000000006044820152606401610438565b60098054600181018255600091909152437f6e1540171b6c0c960b71a7020d9f60077f6af931a8bbf590da0223dacf75c7af909101556002610479565b8280546106109061091e565b90600052602060002090601f0160209004810192826106325760008555610678565b82601f1061064b57805160ff1916838001178555610678565b82800160010185558215610678579182015b8281111561067857825182559160200191906001019061065d565b50610684929150610688565b5090565b5b808211156106845760008155600101610689565b803573ffffffffffffffffffffffffffffffffffffffff811681146106c157600080fd5b919050565b600082601f8301126106d757600080fd5b813567ffffffffffffffff808211156106f2576106f26109a1565b604051601f8301601f19908116603f0116810190828211818310171561071a5761071a6109a1565b8160405283815286602085880101111561073357600080fd5b836020870160208301376000602085830101528094505050505092915050565b60008060008060008060c0878903121561076c57600080fd5b863567ffffffffffffffff8082111561078457600080fd5b6107908a838b016106c6565b975060208901359150808211156107a657600080fd5b6107b28a838b016106c6565b965060408901359150808211156107c857600080fd5b506107d589828a016106c6565b945050606087013592506107eb6080880161069d565b91506107f960a0880161069d565b90509295509295509295565b6000815180845260005b8181101561082b5760208185018101518683018201520161080f565b8181111561083d576000602083870101525b50601f01601f19169290920160200192915050565b600061014073ffffffffffffffffffffffffffffffffffffffff808e1684526020818e168186015282604086015261088c8386018e610805565b925084830360608601526108a0838d610805565b925084830360808601526108b4838c610805565b60a086018b905289831660c087015291881660e08601526101008501879052848203610120860152855180835281870193509181019160005b81811015610909578451845293820193928201926001016108ed565b50919f9e505050505050505050505050505050565b60028104600182168061093257607f821691505b6020821081141561096c577f4e487b7100000000000000000000000000000000000000000000000000000000600052602260045260246000fd5b50919050565b7f4e487b7100000000000000000000000000000000000000000000000000000000600052602160045260246000fd5b7f4e487b7100000000000000000000000000000000000000000000000000000000600052604160045260246000fdfea2646970667358221220983fbf8da35dcc6bada87d7d46dee266931e452cbcc82f4770a484ffcd8cbb7764736f6c63430008060033a26469706673582212206a9a485b5672710be3f3b1723ed53029b500c4037fedf31b1288487ce8102c9e64736f6c63430008060033",
  "immutableReferences": {},
  "source": "// SPDX-License-Identifier: MIT\npragma solidity >=0.4.22 <0.9.0;\npragma experimental ABIEncoderV2;\n\nimport \"./Supplier.sol\";\nimport \"./Manufacturer.sol\";\nimport \"./Distributor.sol\";\nimport \"./Pharma.sol\";\nimport \"./User.sol\";\nimport \"./RawMaterials.sol\";\nimport \"./Medicine.sol\";\nimport \"./MedicineDP.sol\";\n\ncontract SupplyChain is Supplier, Manufacturer, Distributor, Pharma {\n    constructor() {}\n\n    /*************** USER SECTION ***************************** */\n\n    // Validate user based on address & username\n    // @param _address User Address\n    // @param _userName User Name\n    function validateUser(address _address, string memory _userName)\n        public\n        view\n        returns (UserInfo memory)\n    {\n        require(UsersDetails[_address].userAddress == _address, \"USR_NT_REG\"); //User not registered\n        require(\n            keccak256(bytes(UsersDetails[_address].userName)) ==\n                keccak256(bytes(_userName)),\n            \"USR_NT_REG\"\n        ); //User not registered\n        require(\n            keccak256(bytes(UsersDetails[_address].userStatus)) ==\n                keccak256(bytes(\"Active\")),\n            \"USR_NT_ACTIVE\"\n        ); //User not active\n        return getUserInfo(_address);\n    }\n\n    // Retrieve User information based on address\n    // @param _address User Address\n    function getUserInfo(address _address)\n        public\n        view\n        returns (UserInfo memory)\n    {\n        return UsersDetails[_address];\n    }\n\n    //Function to retrieve all the registered users\n    //Visibility - Public\n    //Return type - list of user\n    function getAllRegisteredUsers() public view returns (UserInfo[] memory) {\n        return UserList;\n    }\n\n    /*************** USER SECTION ***************************** */\n\n    /*************** SUPPLIER SECTION ***************************** */\n\n    //Retrieve material/package status using packageID. Only supplier can call this.\n    //@param _packageID Address\n    function getSupplierRegisteredRawMaterialPackageStatus(address _packageID)\n        public\n        view\n        returns (uint256)\n    {\n        return RawMaterials(_packageID).getRawMaterialsStatus();\n    }\n\n    //Retrieve list of registered raw material addresses for supplier address. Only supplier can call this.\n    //@param _address Address\n    function getListOfRegisteredRawMateriaAddress(address _address)\n        public\n        view\n        returns (address[] memory)\n    {\n        return SupplierRegisteredRawMaterialList[_address];\n    }\n\n    //Retrieve registered raw material details for material id. Only supplier can call this.\n    //@param _materialID Address\n    function getRegisteredRawMaterialDetails(address _materialId)\n        public\n        view\n        returns (\n            address materialId,\n            address supplier,\n            string memory description,\n            string memory producerName,\n            string memory location,\n            uint256 quantity,\n            address shipper,\n            address manufacturer,\n            uint256 packageStatus,\n            uint256[] memory transactionDates\n        )\n    {\n        return RawMaterials(_materialId).getSuppliedRawMaterialDetails();\n    }\n\n    //Get all the shipped raw material list for manufacturer\n    function getAllShippedRawMaterialList(address _manufacturer)\n        public\n        view\n        returns (address[] memory)\n    {\n        return MaterialShipmentList[_manufacturer];\n    }\n\n    /*************** SUPPLIER SECTION ***************************** */\n\n    /*************** MANUFACTURER SECTION ***************************** */\n\n    //Retrieve list of manufactured medicines addresses for manufacturer address. Only manufacturer can call this.\n    //@param _manufacturer Address\n    function getManufacturedMedicinesAddress(address _manufacturer)\n        public\n        view\n        returns (address[] memory)\n    {\n        return MedicinesManufactured[_manufacturer];\n    }\n\n    //Retrieve medicine details for medicine id. Only manufacturer can call this.\n    //@param _batchId Address\n    function getMedicineDetailsByBatchId(address _batchId)\n        public\n        view\n        returns (\n            address medicineId,\n            address manufacturer,\n            string memory description,\n            string memory medicineName,\n            string memory location,\n            address materialId,\n            uint256 quantity,\n            address shipper,\n            address distributor,\n            uint256 packageStatus,\n            uint256[] memory transactionBlocks\n        )\n    {\n        return Medicine(_batchId).getManufacteredMedicineDetails();\n    }\n\n    //Get all the shipped medicine list for distributor\n    function getAllShippedMedicineList(address _distributor)\n        public\n        view\n        returns (address[] memory)\n    {\n        return MedicineBatchShipmentList[_distributor];\n    }\n\n    /*************** MANUFACTURER SECTION ***************************** */\n\n    /*************** DISTRIBUTOR SECTION ***************************** */\n\n    //Get list of medicine bacthes transferred to pharma by distributor\n    function getAllTransferredMedicineBatches(address _pharma)\n        public\n        view\n        returns (address[] memory)\n    {\n        return MedicineBatchesTransferredToPharma[_pharma];\n    }\n\n    //Get sub contract details generated while transferring medicine batch from dist tot pharma\n    function getMedicineBatchSubContractDetails(address _subContractId)\n        public\n        view\n        returns (\n            address medicineId,\n            address shipper,\n            address distributor,\n            uint256 packageStatus,\n            uint256 medicineStatus\n        )\n    {\n        (\n            address _medicineId,\n            address _shipper,\n            address _distributor,\n            uint256 _packageStatus\n        ) = MedicineDP(_subContractId).getMedicineDPSubContractDetails();\n        return (\n            _medicineId,\n            _shipper,\n            _distributor,\n            _packageStatus,\n            uint256(MedicineSaleStatusAtPharma[_medicineId])\n        );\n    }\n\n    /*************** DISTRIBUTOR SECTION ***************************** */\n\n    /*************** PHARMA SECTION ***************************** */\n\n    //Retrieve medicine sale status updated by pharma for supplied medicineID.\n    function getMedicineSaleStatusByID(address _medicineID)\n        public\n        view\n        returns (uint256)\n    {\n        return uint256(MedicineSaleStatusAtPharma[_medicineID]);\n    }\n\n    /*************** PHARMA SECTION ***************************** */\n\n    /*************** CUSTOMER SECTION ***************************** */\n\n    function getCustomerInfoByPharmaShop(address _pharma)\n        public\n        view\n        returns (CustomerInfo[] memory)\n    {\n        return CustomerPharmaShopMap[_pharma];\n    }\n\n    /*************** CUSTOMER SECTION ***************************** */\n}\n",
  "sourcePath": "C:/Development/Blockchain/Learning-2/contracts/SupplyChain.sol",
  "compiler": {
    "name": "solc",
    "version": "0.8.6+commit.11564f7e.Emscripten.clang"
  },
  "schemaVersion": "3.4.1",
  "updatedAt": "2021-07-30T15:10:38.701Z",
  "networkType": "ethereum",
  "devdoc": {
    "kind": "dev",
    "methods": {},
    "version": 1
  },
  "userdoc": {
    "kind": "user",
    "methods": {},
    "version": 1
  }
}