{
  "contractName": "Supplier",
  "abi": [
    {
      "anonymous": false,
      "inputs": [
        {
          "indexed": true,
          "internalType": "address",
          "name": "MaterialID",
          "type": "address"
        },
        {
          "indexed": true,
          "internalType": "address",
          "name": "Supplier",
          "type": "address"
        },
        {
          "indexed": false,
          "internalType": "address",
          "name": "Manufacturer",
          "type": "address"
        },
        {
          "indexed": true,
          "internalType": "address",
          "name": "Transporter",
          "type": "address"
        }
      ],
      "name": "RawMaterialInitialize",
      "type": "event"
    },
    {
      "anonymous": false,
      "inputs": [
        {
          "indexed": true,
          "internalType": "address",
          "name": "UserAddress",
          "type": "address"
        },
        {
          "indexed": false,
          "internalType": "string",
          "name": "Name",
          "type": "string"
        }
      ],
      "name": "UserRegistered",
      "type": "event"
    },
    {
      "anonymous": false,
      "inputs": [
        {
          "indexed": true,
          "internalType": "address",
          "name": "UserAddress",
          "type": "address"
        },
        {
          "indexed": false,
          "internalType": "string",
          "name": "Name",
          "type": "string"
        },
        {
          "indexed": false,
          "internalType": "uint256",
          "name": "Role",
          "type": "uint256"
        }
      ],
      "name": "UserRoleReassigned",
      "type": "event"
    },
    {
      "anonymous": false,
      "inputs": [
        {
          "indexed": true,
          "internalType": "address",
          "name": "UserAddress",
          "type": "address"
        },
        {
          "indexed": false,
          "internalType": "string",
          "name": "Name",
          "type": "string"
        },
        {
          "indexed": false,
          "internalType": "uint256",
          "name": "Role",
          "type": "uint256"
        }
      ],
      "name": "UserRoleRevoked",
      "type": "event"
    },
    {
      "inputs": [
        {
          "internalType": "uint256",
          "name": "",
          "type": "uint256"
        }
      ],
      "name": "UserList",
      "outputs": [
        {
          "internalType": "address",
          "name": "userAddress",
          "type": "address"
        },
        {
          "internalType": "string",
          "name": "userName",
          "type": "string"
        },
        {
          "internalType": "string",
          "name": "userLocation",
          "type": "string"
        },
        {
          "internalType": "enum User.roles",
          "name": "userRole",
          "type": "uint8"
        },
        {
          "internalType": "string",
          "name": "userStatus",
          "type": "string"
        }
      ],
      "stateMutability": "view",
      "type": "function"
    },
    {
      "inputs": [
        {
          "internalType": "address",
          "name": "_address",
          "type": "address"
        }
      ],
      "name": "deleteUser",
      "outputs": [],
      "stateMutability": "nonpayable",
      "type": "function"
    },
    {
      "inputs": [
        {
          "internalType": "address",
          "name": "_address",
          "type": "address"
        }
      ],
      "name": "findAndDeactivateUser",
      "outputs": [],
      "stateMutability": "nonpayable",
      "type": "function"
    },
    {
      "inputs": [],
      "name": "getAllRegisteredUsers",
      "outputs": [
        {
          "components": [
            {
              "internalType": "address",
              "name": "userAddress",
              "type": "address"
            },
            {
              "internalType": "string",
              "name": "userName",
              "type": "string"
            },
            {
              "internalType": "string",
              "name": "userLocation",
              "type": "string"
            },
            {
              "internalType": "enum User.roles",
              "name": "userRole",
              "type": "uint8"
            },
            {
              "internalType": "string",
              "name": "userStatus",
              "type": "string"
            }
          ],
          "internalType": "struct User.UserInfo[]",
          "name": "",
          "type": "tuple[]"
        }
      ],
      "stateMutability": "view",
      "type": "function"
    },
    {
      "inputs": [
        {
          "internalType": "address",
          "name": "_address",
          "type": "address"
        }
      ],
      "name": "getUserInfo",
      "outputs": [
        {
          "components": [
            {
              "internalType": "address",
              "name": "userAddress",
              "type": "address"
            },
            {
              "internalType": "string",
              "name": "userName",
              "type": "string"
            },
            {
              "internalType": "string",
              "name": "userLocation",
              "type": "string"
            },
            {
              "internalType": "enum User.roles",
              "name": "userRole",
              "type": "uint8"
            },
            {
              "internalType": "string",
              "name": "userStatus",
              "type": "string"
            }
          ],
          "internalType": "struct User.UserInfo",
          "name": "",
          "type": "tuple"
        }
      ],
      "stateMutability": "view",
      "type": "function"
    },
    {
      "inputs": [],
      "name": "getUsersCount",
      "outputs": [
        {
          "internalType": "uint256",
          "name": "count",
          "type": "uint256"
        }
      ],
      "stateMutability": "view",
      "type": "function"
    },
    {
      "inputs": [],
      "name": "owner",
      "outputs": [
        {
          "internalType": "address",
          "name": "",
          "type": "address"
        }
      ],
      "stateMutability": "view",
      "type": "function"
    },
    {
      "inputs": [
        {
          "internalType": "address",
          "name": "_address",
          "type": "address"
        },
        {
          "internalType": "uint256",
          "name": "_role",
          "type": "uint256"
        }
      ],
      "name": "reAssignUserRole",
      "outputs": [],
      "stateMutability": "nonpayable",
      "type": "function"
    },
    {
      "inputs": [
        {
          "internalType": "address",
          "name": "_address",
          "type": "address"
        },
        {
          "internalType": "string",
          "name": "_name",
          "type": "string"
        },
        {
          "internalType": "string",
          "name": "_location",
          "type": "string"
        },
        {
          "internalType": "uint256",
          "name": "_role",
          "type": "uint256"
        },
        {
          "internalType": "string",
          "name": "_userStatus",
          "type": "string"
        }
      ],
      "name": "registerAdmin",
      "outputs": [],
      "stateMutability": "nonpayable",
      "type": "function"
    },
    {
      "inputs": [
        {
          "internalType": "address",
          "name": "_address",
          "type": "address"
        },
        {
          "internalType": "string",
          "name": "_name",
          "type": "string"
        },
        {
          "internalType": "string",
          "name": "_location",
          "type": "string"
        },
        {
          "internalType": "uint256",
          "name": "_role",
          "type": "uint256"
        },
        {
          "internalType": "string",
          "name": "_userStatus",
          "type": "string"
        }
      ],
      "name": "registerUser",
      "outputs": [],
      "stateMutability": "nonpayable",
      "type": "function"
    },
    {
      "inputs": [
        {
          "internalType": "address",
          "name": "_address",
          "type": "address"
        }
      ],
      "name": "revokeUserRole",
      "outputs": [],
      "stateMutability": "nonpayable",
      "type": "function"
    },
    {
      "inputs": [
        {
          "internalType": "address",
          "name": "_address",
          "type": "address"
        },
        {
          "internalType": "string",
          "name": "_name",
          "type": "string"
        },
        {
          "internalType": "string",
          "name": "_location",
          "type": "string"
        },
        {
          "internalType": "uint256",
          "name": "_role",
          "type": "uint256"
        },
        {
          "internalType": "string",
          "name": "_userStatus",
          "type": "string"
        }
      ],
      "name": "updateUser",
      "outputs": [],
      "stateMutability": "nonpayable",
      "type": "function"
    },
    {
      "inputs": [
        {
          "internalType": "address",
          "name": "_address",
          "type": "address"
        },
        {
          "internalType": "string",
          "name": "_userName",
          "type": "string"
        }
      ],
      "name": "validateUser",
      "outputs": [
        {
          "components": [
            {
              "internalType": "address",
              "name": "userAddress",
              "type": "address"
            },
            {
              "internalType": "string",
              "name": "userName",
              "type": "string"
            },
            {
              "internalType": "string",
              "name": "userLocation",
              "type": "string"
            },
            {
              "internalType": "enum User.roles",
              "name": "userRole",
              "type": "uint8"
            },
            {
              "internalType": "string",
              "name": "userStatus",
              "type": "string"
            }
          ],
          "internalType": "struct User.UserInfo",
          "name": "",
          "type": "tuple"
        }
      ],
      "stateMutability": "view",
      "type": "function"
    },
    {
      "inputs": [
        {
          "internalType": "string",
          "name": "_desc",
          "type": "string"
        },
        {
          "internalType": "string",
          "name": "_producerName",
          "type": "string"
        },
        {
          "internalType": "string",
          "name": "_location",
          "type": "string"
        },
        {
          "internalType": "uint256",
          "name": "_quantity",
          "type": "uint256"
        },
        {
          "internalType": "address",
          "name": "_transporter",
          "type": "address"
        },
        {
          "internalType": "address",
          "name": "_manufacturer",
          "type": "address"
        }
      ],
      "name": "createRawMaterialPackage",
      "outputs": [],
      "stateMutability": "nonpayable",
      "type": "function"
    },
    {
      "inputs": [],
      "name": "getSupplierRegisteredRawMaterialPackageCount",
      "outputs": [
        {
          "internalType": "uint256",
          "name": "",
          "type": "uint256"
        }
      ],
      "stateMutability": "view",
      "type": "function"
    },
    {
      "inputs": [
        {
          "internalType": "uint256",
          "name": "index",
          "type": "uint256"
        }
      ],
      "name": "getSupplierRegisteredRawMaterialIDByIndex",
      "outputs": [
        {
          "internalType": "address",
          "name": "materialID",
          "type": "address"
        }
      ],
      "stateMutability": "view",
      "type": "function"
    },
    {
      "inputs": [
        {
          "internalType": "address",
          "name": "_packageID",
          "type": "address"
        }
      ],
      "name": "getSupplierRegisteredRawMaterialPackageStatus",
      "outputs": [
        {
          "internalType": "uint256",
          "name": "",
          "type": "uint256"
        }
      ],
      "stateMutability": "view",
      "type": "function"
    },
    {
      "inputs": [
        {
          "internalType": "address",
          "name": "_packageID",
          "type": "address"
        }
      ],
      "name": "getSupplierRegisteredRawMaterialByPackageID",
      "outputs": [
        {
          "internalType": "address",
          "name": "",
          "type": "address"
        },
        {
          "internalType": "string",
          "name": "",
          "type": "string"
        },
        {
          "internalType": "string",
          "name": "",
          "type": "string"
        },
        {
          "internalType": "string",
          "name": "",
          "type": "string"
        },
        {
          "internalType": "uint256",
          "name": "",
          "type": "uint256"
        },
        {
          "internalType": "address",
          "name": "",
          "type": "address"
        },
        {
          "internalType": "address",
          "name": "",
          "type": "address"
        }
      ],
      "stateMutability": "view",
      "type": "function"
    }
  ],
  "bytecode": "0x608060405234801561001057600080fd5b5060008054600160a060020a0319163317905561302a806100326000396000f3fe60806040523480156200001157600080fd5b5060043610620000fd5760e060020a60003504631bfb240f811462000102578063397388af146200012c5780633bb3ec9e146200014557806345f5b55f146200015e5780635c60f226146200017557806361726a6b146200018c5780636386c1c714620001965780636ab5d88c14620001bc5780638da5cb5b14620001d3578063a00453c014620001f6578063a4a1e263146200020d578063b0ed547c1462000216578063babe1655146200022d578063bd73b25d1462000257578063e2994767146200026e578063eaa2f67f1462000285578063ecad383e146200029c578063ecfd7cbe14620002b3575b600080fd5b620001196200011336600462001d30565b620002df565b6040519081526020015b60405180910390f35b620001366200035f565b604051620001239190620022e0565b6200015c6200015636600462001e9d565b62000635565b005b6200015c6200016f36600462001f4d565b62000980565b6200015c6200018636600462001d30565b62000b84565b6200011962000c72565b620001ad620001a736600462001d30565b62000cd7565b604051620001239190620023e9565b6200015c620001cd36600462001e9d565b62000f22565b600054620001e790600160a060020a031681565b604051620001239190620021f0565b6200015c6200020736600462001e9d565b62001247565b60035462000119565b620001e76200022736600462002041565b62001292565b620002446200023e36600462002041565b62001324565b6040516200012395949392919062002204565b6200015c6200026836600462001d30565b6200152a565b6200015c6200027f36600462001d30565b620016ec565b620001ad6200029636600462001d70565b620017bb565b6200015c620002ad36600462001f7c565b6200193a565b620002ca620002c436600462001d30565b62001ad4565b6040516200012397969594939291906200226f565b600081600160a060020a031663922962996040518163ffffffff1660e060020a02815260040160206040518083038186803b1580156200031e57600080fd5b505afa15801562000333573d6000803e3d6000fd5b505050506040513d601f19601f820116820180604052508101906200035991906200205b565b92915050565b606060083360009081526002602052604090206003015460ff1660088111156200038d576200038d620024fd565b14620003b95760405160e560020a62461bcd028152600401620003b090620023c8565b60405180910390fd5b6001805480602002602001604051908101604052809291908181526020016000905b828210156200062c5760008481526020908190206040805160a08101909152600585029091018054600160a060020a03168252600181018054929391929184019162000427906200248e565b80601f016020809104026020016040519081016040528092919081815260200182805462000455906200248e565b8015620004a65780601f106200047a57610100808354040283529160200191620004a6565b820191906000526020600020905b8154815290600101906020018083116200048857829003601f168201915b50505050508152602001600282018054620004c1906200248e565b80601f0160208091040260200160405190810160405280929190818152602001828054620004ef906200248e565b8015620005405780601f10620005145761010080835404028352916020019162000540565b820191906000526020600020905b8154815290600101906020018083116200052257829003601f168201915b5050509183525050600382015460209091019060ff1660088111156200056a576200056a620024fd565b60088111156200057e576200057e620024fd565b815260200160048201805462000594906200248e565b80601f0160208091040260200160405190810160405280929190818152602001828054620005c2906200248e565b8015620006135780601f10620005e75761010080835404028352916020019162000613565b820191906000526020600020905b815481529060010190602001808311620005f557829003601f168201915b50505050508152505081526020019060010190620003db565b50505050905090565b60083360009081526002602052604090206003015460ff166008811115620006615762000661620024fd565b14620006845760405160e560020a62461bcd028152600401620003b090620023c8565b600160a060020a038086166000818152600260205260409020549091161415620006e35760405160e560020a62461bcd028152602060048201526009602482015260ba60020a681554d497d1561254d5026044820152606401620003b0565b620006ed62001b73565b600160a060020a038616815260208101859052604081018490528260088111156200071c576200071c620024fd565b81606001906008811115620007355762000735620024fd565b908160088111156200074b576200074b620024fd565b90525060808101829052600160a060020a03868116600090815260026020908152604090912083518154600160a060020a0319169316929092178255808301518051849392620007a392600185019291019062001bbf565b5060408201518051620007c191600284019160209091019062001bbf565b50606082015160038201805460ff19166001836008811115620007e857620007e8620024fd565b0217905550608082015180516200080a91600484019160209091019062001bbf565b505081516003805460018082019092557fc2575a0e9e593c00f959f8c92f12db2869c3395a3b0502d05e2516446f71f85b018054600160a060020a0319908116600160a060020a03948516179091558154808301835560009290925284517fb10e2d527612073b26eecdfd717e6a320cf44b4afac2b0732d9fcbe2b7fa0cf66005909302928301805490921693169290921782556020808501518051869550620008dc937fb10e2d527612073b26eecdfd717e6a320cf44b4afac2b0732d9fcbe2b7fa0cf70192919091019062001bbf565b5060408201518051620008fa91600284019160209091019062001bbf565b50606082015160038201805460ff19166001836008811115620009215762000921620024fd565b0217905550608082015180516200094391600484019160209091019062001bbf565b50505085600160a060020a031660008051602062002fd58339815191528660405162000970919062002345565b60405180910390a2505050505050565b60083360009081526002602052604090206003015460ff166008811115620009ac57620009ac620024fd565b14620009cf5760405160e560020a62461bcd028152600401620003b090620023c8565b600160a060020a038083166000818152600260205260409020549091161462000a0f5760405160e560020a62461bcd028152600401620003b090620023a1565b600062000a1c8362000cd7565b905081600881111562000a335762000a33620024fd565b8160600190600881111562000a4c5762000a4c620024fd565b9081600881111562000a625762000a62620024fd565b905250600160a060020a03838116600090815260026020908152604090912083518154600160a060020a031916931692909217825582810151805184939262000ab392600185019291019062001bbf565b506040820151805162000ad191600284019160209091019062001bbf565b50606082015160038201805460ff1916600183600881111562000af85762000af8620024fd565b02179055506080820151805162000b1a91600484019160209091019062001bbf565b5090505082600160a060020a03167f5a2f045370e4381799dd282fd5f3a534028572dc56a8e9ff1f6184b575e584ef82602001518360600151600881111562000b675762000b67620024fd565b60405162000b779291906200235a565b60405180910390a2505050565b60083360009081526002602052604090206003015460ff16600881111562000bb05762000bb0620024fd565b1462000bd35760405160e560020a62461bcd028152600401620003b090620023c8565b600160a060020a038082166000818152600260205260409020549091161462000c135760405160e560020a62461bcd028152600401620003b090620023a1565b6040805180820182526008815260c060020a67496e616374697665026020808301918252600160a060020a0385166000908152600290915292909220905162000c63926004909201919062001bbf565b5062000c6f81620016ec565b50565b600060013360009081526002602052604090206003015460ff16600881111562000ca05762000ca0620024fd565b1462000cc35760405160e560020a62461bcd028152600401620003b0906200237e565b503360009081526004602052604090205490565b62000ce162001b73565b600160a060020a03808316600090815260026020908152604091829020825160a08101909352805490931682526001830180549293929184019162000d26906200248e565b80601f016020809104026020016040519081016040528092919081815260200182805462000d54906200248e565b801562000da55780601f1062000d795761010080835404028352916020019162000da5565b820191906000526020600020905b81548152906001019060200180831162000d8757829003601f168201915b5050505050815260200160028201805462000dc0906200248e565b80601f016020809104026020016040519081016040528092919081815260200182805462000dee906200248e565b801562000e3f5780601f1062000e135761010080835404028352916020019162000e3f565b820191906000526020600020905b81548152906001019060200180831162000e2157829003601f168201915b5050509183525050600382015460209091019060ff16600881111562000e695762000e69620024fd565b600881111562000e7d5762000e7d620024fd565b815260200160048201805462000e93906200248e565b80601f016020809104026020016040519081016040528092919081815260200182805462000ec1906200248e565b801562000f125780601f1062000ee65761010080835404028352916020019162000f12565b820191906000526020600020905b81548152906001019060200180831162000ef457829003601f168201915b5050505050815250509050919050565b60083360009081526002602052604090206003015460ff16600881111562000f4e5762000f4e620024fd565b1462000f715760405160e560020a62461bcd028152600401620003b090620023c8565b600160a060020a038086166000818152600260205260409020549091161462000fb15760405160e560020a62461bcd028152600401620003b090620023a1565b600160a060020a0385166000908152600260209081526040909120855162000fe29260019092019187019062001bbf565b50600160a060020a03851660009081526002602081815260409092208551620010149391909201919086019062001bbf565b508160088111156200102a576200102a620024fd565b600160a060020a0386166000908152600260205260409020600301805460ff19166001836008811115620010625762001062620024fd565b0217905550600160a060020a03851660009081526002602090815260409091208251620010989260049092019184019062001bbf565b506000805b600154811015620011025786600160a060020a031660018281548110620010c857620010c862002517565b6000918252602090912060059091020154600160a060020a03161415620010ed578091505b80620010f981620024cf565b9150506200109d565b5084600182815481106200111a576200111a62002517565b906000526020600020906005020160010190805190602001906200114092919062001bbf565b50836001828154811062001158576200115862002517565b906000526020600020906005020160020190805190602001906200117e92919062001bbf565b50826008811115620011945762001194620024fd565b60018281548110620011aa57620011aa62002517565b60009182526020909120600360059092020101805460ff19166001836008811115620011da57620011da620024fd565b02179055508160018281548110620011f657620011f662002517565b906000526020600020906005020160040190805190602001906200121c92919062001bbf565b5085600160a060020a031660008051602062002fd58339815191528660405162000970919062002345565b600054600160a060020a03163314620006845760405160e560020a62461bcd028152600401620003b090602080825260049082015260e060020a634f57434302604082015260600190565b600060013360009081526002602052604090206003015460ff166008811115620012c057620012c0620024fd565b14620012e35760405160e560020a62461bcd028152600401620003b0906200237e565b33600090815260046020526040902080548390811062001307576200130762002517565b600091825260209091200154600160a060020a031690505b919050565b600181815481106200133557600080fd5b600091825260209091206005909102018054600182018054600160a060020a0390921693509062001366906200248e565b80601f016020809104026020016040519081016040528092919081815260200182805462001394906200248e565b8015620013e55780601f10620013b957610100808354040283529160200191620013e5565b820191906000526020600020905b815481529060010190602001808311620013c757829003601f168201915b505050505090806002018054620013fc906200248e565b80601f01602080910402602001604051908101604052809291908181526020018280546200142a906200248e565b80156200147b5780601f106200144f576101008083540402835291602001916200147b565b820191906000526020600020905b8154815290600101906020018083116200145d57829003601f168201915b5050506003840154600485018054949560ff909216949193509150620014a1906200248e565b80601f0160208091040260200160405190810160405280929190818152602001828054620014cf906200248e565b8015620015205780601f10620014f45761010080835404028352916020019162001520565b820191906000526020600020905b8154815290600101906020018083116200150257829003601f168201915b5050505050905085565b60083360009081526002602052604090206003015460ff166008811115620015565762001556620024fd565b14620015795760405160e560020a62461bcd028152600401620003b090620023c8565b600160a060020a0380821660008181526002602052604090205490911614620015b95760405160e560020a62461bcd028152600401620003b090620023a1565b6000620015c68262000cd7565b60076060820152600160a060020a03838116600090815260026020908152604090912083518154600160a060020a031916931692909217825580830151805193945084936200161c926001850192019062001bbf565b50604082015180516200163a91600284019160209091019062001bbf565b50606082015160038201805460ff19166001836008811115620016615762001661620024fd565b0217905550608082015180516200168391600484019160209091019062001bbf565b5090505081600160a060020a03167f18a4c0aa2d0b9e55cfd3c133652630cc693f845135ba74f56f45c8d38910ce5c826020015183606001516008811115620016d057620016d0620024fd565b604051620016e09291906200235a565b60405180910390a25050565b6000805b600154811015620017555782600160a060020a0316600182815481106200171b576200171b62002517565b6000918252602090912060059091020154600160a060020a0316141562001740578091505b806200174c81620024cf565b915050620016f0565b5060405180604001604052806008815260200160c060020a67496e616374697665028152506001828154811062001790576200179062002517565b90600052602060002090600502016004019080519060200190620017b692919062001bbf565b505050565b620017c562001b73565b600160a060020a0380841660008181526002602052604090205490911614620018055760405160e560020a62461bcd028152600401620003b090620023a1565b81805190602001206002600085600160a060020a0316600160a060020a0316815260200190815260200160002060010160405162001844919062002149565b6040518091039020146200186f5760405160e560020a62461bcd028152600401620003b090620023a1565b6040805180820182526006815260d060020a6541637469766502602091820152600160a060020a0385166000908152600290915281902090517ff07b88471cd28dc438f2291190512bd968fbd79b8c86b9ed015e51c1261d911f91620018db9160049091019062002149565b604051809103902014620019285760405160e560020a62461bcd02815260206004820152600d6024820152609860020a6c5553525f4e545f414354495645026044820152606401620003b0565b620019338362000cd7565b9392505050565b60013360009081526002602052604090206003015460ff166008811115620019665762001966620024fd565b14620019895760405160e560020a62461bcd028152600401620003b0906200237e565b600033878787878787604051620019a09062001c4e565b620019b297969594939291906200226f565b604051809103906000f080158015620019cf573d6000803e3d6000fd5b509050600081600160a060020a031663f6f1bf666040518163ffffffff1660e060020a02815260040160206040518083038186803b15801562001a1157600080fd5b505afa15801562001a26573d6000803e3d6000fd5b505050506040513d601f19601f8201168201806040525081019062001a4c919062001d50565b336000818152600460209081526040808320805460018101825590845291909220018054600160a060020a031916600160a060020a0385811691821790925591519394508716927f728267d54f823d734daeb96ba05b79fcaea723977ba2f95b1036694d36e547c99062001ac2908890620021f0565b60405180910390a45050505050505050565b60006060806060600080600087600160a060020a031663b1767f876040518163ffffffff1660e060020a02815260040160006040518083038186803b15801562001b1d57600080fd5b505afa15801562001b32573d6000803e3d6000fd5b505050506040513d6000823e601f3d908101601f1916820160405262001b5c919081019062001dc5565b959e949d50929b5090995097509550909350915050565b6040518060a001604052806000600160a060020a0316815260200160608152602001606081526020016000600881111562001bb25762001bb2620024fd565b8152602001606081525090565b82805462001bcd906200248e565b90600052602060002090601f01602090048101928262001bf1576000855562001c3c565b82601f1062001c0c57805160ff191683800117855562001c3c565b8280016001018555821562001c3c579182015b8281111562001c3c57825182559160200191906001019062001c1f565b5062001c4a92915062001c5c565b5090565b610a73806200256283390190565b5b8082111562001c4a576000815560010162001c5d565b80516200131f816200254b565b600082601f83011262001c9257600080fd5b813562001ca962001ca38262002431565b620023fe565b81815284602083860101111562001cbf57600080fd5b816020850160208301376000918101602001919091529392505050565b600082601f83011262001cee57600080fd5b815162001cff62001ca38262002431565b81815284602083860101111562001d1557600080fd5b62001d288260208301602087016200245b565b949350505050565b60006020828403121562001d4357600080fd5b813562001933816200254b565b60006020828403121562001d6357600080fd5b815162001933816200254b565b6000806040838503121562001d8457600080fd5b823562001d91816200254b565b915060208301356001604060020a0381111562001dad57600080fd5b62001dbb8582860162001c80565b9150509250929050565b600080600080600080600060e0888a03121562001de157600080fd5b875162001dee816200254b565b60208901519097506001604060020a038082111562001e0c57600080fd5b62001e1a8b838c0162001cdc565b975060408a015191508082111562001e3157600080fd5b62001e3f8b838c0162001cdc565b965060608a015191508082111562001e5657600080fd5b5062001e658a828b0162001cdc565b9450506080880151925060a088015162001e7f816200254b565b915062001e8f60c0890162001c73565b905092959891949750929550565b600080600080600060a0868803121562001eb657600080fd5b853562001ec3816200254b565b945060208601356001604060020a038082111562001ee057600080fd5b62001eee89838a0162001c80565b9550604088013591508082111562001f0557600080fd5b62001f1389838a0162001c80565b945060608801359350608088013591508082111562001f3157600080fd5b5062001f408882890162001c80565b9150509295509295909350565b6000806040838503121562001f6157600080fd5b823562001f6e816200254b565b946020939093013593505050565b60008060008060008060c0878903121562001f9657600080fd5b86356001604060020a038082111562001fae57600080fd5b62001fbc8a838b0162001c80565b9750602089013591508082111562001fd357600080fd5b62001fe18a838b0162001c80565b9650604089013591508082111562001ff857600080fd5b506200200789828a0162001c80565b94505060608701359250608087013562002021816200254b565b915060a087013562002033816200254b565b809150509295509295509295565b6000602082840312156200205457600080fd5b5035919050565b6000602082840312156200206e57600080fd5b5051919050565b60098110620020985760e060020a634e487b710260009081526021600452602490fd5b9052565b60008151808452620020b68160208601602086016200245b565b601f01601f19169290920160200192915050565b600160a060020a0381511682526000602082015160a06020850152620020f460a08501826200209c565b9050604083015184820360408601526200210f82826200209c565b915050606083015162002126606086018262002075565b50608083015184820360808601526200214082826200209c565b95945050505050565b81546000908190600281046001808316806200216657607f831692505b60208084108214156200218a5760e060020a634e487b710286526022600452602486fd5b818015620021a15760018114620021b357620021e2565b60ff19861689528489019650620021e2565b60008a81526020902060005b86811015620021da5781548b820152908501908301620021bf565b505084890196505b509498975050505050505050565b600160a060020a0391909116815260200190565b600160a060020a038616815260a0602082018190526000906200222a908301876200209c565b82810360408401526200223e81876200209c565b90506200224f606084018662002075565b82810360808401526200226381856200209c565b98975050505050505050565b6000600160a060020a03808a16835260e060208401526200229460e084018a6200209c565b8381036040850152620022a8818a6200209c565b90508381036060850152620022be81896200209c565b60808501979097525093841660a083015250911660c090910152949350505050565b600060208083018184528085518083526040860191506040848202870101925083870160005b828110156200233857603f1988860301845262002325858351620020ca565b9450928501929085019060010162002306565b5092979650505050505050565b6020815260006200193360208301846200209c565b6040815260006200236f60408301856200209c565b90508260208301529392505050565b602080825260069082015260d060020a654f524d53434302604082015260600190565b6020808252600a9082015260b060020a695553525f4e545f52454702604082015260600190565b602080825260049082015260e060020a634f41434302604082015260600190565b602081526000620019336020830184620020ca565b604051601f8201601f191681016001604060020a038111828210171562002429576200242962002531565b604052919050565b60006001604060020a038211156200244d576200244d62002531565b50601f01601f191660200190565b60005b83811015620024785781810151838201526020016200245e565b8381111562002488576000848401525b50505050565b600281046001821680620024a357607f821691505b60208210811415620024c95760e060020a634e487b710260009081526022600452602490fd5b50919050565b6000600019821415620024f65760e060020a634e487b710260009081526011600452602490fd5b5060010190565b60e060020a634e487b710260009081526021600452602490fd5b60e060020a634e487b710260009081526032600452602490fd5b60e060020a634e487b710260009081526041600452602490fd5b600160a060020a038116811462000c6f57600080fdfe60806040523480156200001157600080fd5b5060405162000a7338038062000a73833981016040819052620000349162000272565b60008054600160a060020a038916600160a060020a0319918216179091556001805490911630179055855162000072906002906020890190620000f8565b50845162000088906003906020880190620000f8565b5083516200009e906004906020870190620000f8565b5060059290925560068054600160a060020a0319908116600160a060020a0393841617909155600780549091169282169290921790915560088054600160a860020a031916959091169490941790935550620003ca915050565b828054620001069062000345565b90600052602060002090601f0160209004810192826200012a576000855562000175565b82601f106200014557805160ff191683800117855562000175565b8280016001018555821562000175579182015b828111156200017557825182559160200191906001019062000158565b506200018392915062000187565b5090565b5b8082111562000183576000815560010162000188565b8051600160a060020a0381168114620001b657600080fd5b919050565b600082601f830112620001cd57600080fd5b81516001604060020a0380821115620001ea57620001ea6200039b565b604051601f8301601f19908116603f011681019082821181831017156200021557620002156200039b565b816040528381526020925086838588010111156200023257600080fd5b600091505b8382101562000256578582018301518183018401529082019062000237565b83821115620002685760008385830101525b9695505050505050565b600080600080600080600060e0888a0312156200028e57600080fd5b62000299886200019e565b965060208801516001604060020a0380821115620002b657600080fd5b620002c48b838c01620001bb565b975060408a0151915080821115620002db57600080fd5b620002e98b838c01620001bb565b965060608a01519150808211156200030057600080fd5b506200030f8a828b01620001bb565b945050608088015192506200032760a089016200019e565b91506200033760c089016200019e565b905092959891949750929550565b6002810460018216806200035a57607f821691505b6020821081141562000395577f4e487b7100000000000000000000000000000000000000000000000000000000600052602260045260246000fd5b50919050565b7f4e487b7100000000000000000000000000000000000000000000000000000000600052604160045260246000fd5b61069980620003da6000396000f3fe608060405234801561001057600080fd5b506004361061005a5760e060020a600035046392296299811461005f5780639538e0021461007a578063b1767f871461008f578063b821320e146100aa578063f6f1bf66146100bd575b600080fd5b6100676100d8565b6040519081526020015b60405180910390f35b61008d610088366004610502565b6100fe565b005b61009761020a565b604051610071979695949392919061057f565b61008d6100b8366004610502565b6103ff565b600154604051600160a060020a039091168152602001610071565b60085460009060a060020a900460ff1660028111156100f9576100f9610629565b905090565b600754600160a060020a0382811691161461014e5760405160e560020a62461bcd028152602060048201526005602482015260d860020a644f524d43430260448201526064015b60405180910390fd5b600160085460a060020a900460ff16600281111561016e5761016e610629565b146101b05760405160e560020a62461bcd02815260206004820152600c602482015260a060020a6b524d5f4d5553545f41545f4d026044820152606401610145565b6008805460a060020a60ff02191660a160020a179055600654600180546040805192835260026020840152600160a060020a038581169481169392169160008051602061064483398151915291015b60405180910390a450565b6008546005546006546007546002805460009560609586958695899586958695600160a060020a03908116959294600394600494939183169216908690610250906105ea565b80601f016020809104026020016040519081016040528092919081815260200182805461027c906105ea565b80156102c95780601f1061029e576101008083540402835291602001916102c9565b820191906000526020600020905b8154815290600101906020018083116102ac57829003601f168201915b505050505095508480546102dc906105ea565b80601f0160208091040260200160405190810160405280929190818152602001828054610308906105ea565b80156103555780601f1061032a57610100808354040283529160200191610355565b820191906000526020600020905b81548152906001019060200180831161033857829003601f168201915b50505050509450838054610368906105ea565b80601f0160208091040260200160405190810160405280929190818152602001828054610394906105ea565b80156103e15780601f106103b6576101008083540402835291602001916103e1565b820191906000526020600020905b8154815290600101906020018083116103c457829003601f168201915b50505050509350965096509650965096509650965090919293949596565b600654600160a060020a0382811691161461044b5760405160e560020a62461bcd02815260040161014590602080825260049082015260e060020a634f53434302604082015260600190565b600060085460a060020a900460ff16600281111561046b5761046b610629565b146104ad5760405160e560020a62461bcd02815260206004820152600c602482015260a060020a6b524d5f4d5553545f41545f53026044820152606401610145565b6008805460a060020a60ff02191660a060020a17905560075460018054604080518381526020810193909352600160a060020a03938416938581169392169160008051602061064483398151915291016101ff565b60006020828403121561051457600080fd5b8135600160a060020a038116811461052b57600080fd5b9392505050565b6000815180845260005b818110156105585760208185018101518683018201520161053c565b8181111561056a576000602083870101525b50601f01601f19169290920160200192915050565b6000600160a060020a03808a16835260e060208401526105a260e084018a610532565b83810360408501526105b4818a610532565b905083810360608501526105c88189610532565b60808501979097525093841660a083015250911660c090910152949350505050565b6002810460018216806105fe57607f821691505b602082108114156106235760e060020a634e487b710260009081526022600452602490fd5b50919050565b60e060020a634e487b710260009081526021600452602490fdfe7e89c4b1a4e2b51aae84eb1f90e8a34cb792ece5ac5cb63db4830c891220b28da2646970667358221220621e55c1a4fbbd6ed00eba018cb64a2002173a814d487894d184593749b08e4264736f6c6343000806003348cac28ad4dc618e15f4c2dd5e97751182f166de97b25618318b2112aa951a2fa26469706673582212201e896f577b6cf15b254483d66f351b14a8be339d001f8c6694c45b630aea8f2064736f6c63430008060033",
  "immutableReferences": {},
  "source": "// SPDX-License-Identifier: MIT\r\npragma solidity >=0.4.22 <0.9.0;\r\npragma experimental ABIEncoderV2;\r\n\r\nimport \"./User.sol\";\r\nimport \"./RawMaterials.sol\";\r\n\r\ncontract Supplier is User {\r\n    mapping(address => address[]) SupplierRegisteredRawMaterialList;\r\n\r\n    //Event\r\n    event RawMaterialInitialize(\r\n        address indexed MaterialID,\r\n        address indexed Supplier,\r\n        address Manufacturer,\r\n        address indexed Transporter\r\n    );\r\n\r\n    modifier onlySupplier {\r\n        require(\r\n            UsersDetails[msg.sender].userRole == roles.supplier,\r\n            \"ORMSCC\"\r\n        );//Only Supplier can call this function.\r\n        _;\r\n    }\r\n\r\n    //Initialize Raw Material Package with required details, transporter & manufacturer. Emit event with new package details.\r\n    //@param _desc Raw Material description String\r\n    //@param _producerName Raw material producer String\r\n    //@param _location Supplier location String\r\n    //@param _quantity Material Quantity Uint\r\n    //@param _transporter Transporter/Shipper Address\r\n    //@param _manufacturer Reciever/Manufacturer Address\r\n    function createRawMaterialPackage(\r\n        string memory _desc,\r\n        string memory _producerName,\r\n        string memory _location,\r\n        uint256 _quantity,\r\n        address _transporter,\r\n        address _manufacturer\r\n    ) public onlySupplier {\r\n        RawMaterials rawMaterialData = new RawMaterials(\r\n            msg.sender,\r\n            _desc,\r\n            _producerName,\r\n            _location,\r\n            _quantity,\r\n            _transporter,\r\n            _manufacturer\r\n        );\r\n        //populate raw material ID\r\n        address _materialID = rawMaterialData.getRawMaterialID();\r\n        //Push raw material address to list registered by supplier\r\n        SupplierRegisteredRawMaterialList[msg.sender].push(_materialID);\r\n        //Emit event after raw material registration\r\n        emit RawMaterialInitialize(\r\n            _materialID,\r\n            msg.sender,\r\n            _manufacturer,\r\n            _transporter\r\n        );\r\n    }\r\n\r\n    //Retrieve number of raw material packages registered by supplier. Only supplier can call this.\r\n    function getSupplierRegisteredRawMaterialPackageCount()\r\n        public\r\n        view\r\n        onlySupplier\r\n        returns (uint256)\r\n    {\r\n        return SupplierRegisteredRawMaterialList[msg.sender].length;\r\n    }\r\n\r\n    //Retrieve raw material/package ID using index registered by supplier. Only supplier can call this.\r\n    //@param index Uint\r\n    function getSupplierRegisteredRawMaterialIDByIndex(uint256 index)\r\n        public\r\n        view\r\n        onlySupplier\r\n        returns (address materialID)\r\n    {\r\n        return SupplierRegisteredRawMaterialList[msg.sender][index];\r\n    }\r\n\r\n    //Retrieve material/package status using packageID. Only supplier can call this.\r\n    //@param _packageID Address\r\n    function getSupplierRegisteredRawMaterialPackageStatus(address _packageID)\r\n        public\r\n        view\r\n        returns (uint256)\r\n    {\r\n        return RawMaterials(_packageID).getRawMaterialsStatus();\r\n    }\r\n\r\n    //Retrieve material/package details using packageID. Only supplier can call this.\r\n    //@param _packageID Address\r\n    function getSupplierRegisteredRawMaterialByPackageID(address _packageID)\r\n        public\r\n        view\r\n        returns (\r\n            address,\r\n            string memory,\r\n            string memory,\r\n            string memory,\r\n            uint256,\r\n            address,\r\n            address\r\n        )\r\n    {\r\n        return RawMaterials(_packageID).getSuppliedRawMaterialDetails();\r\n    }\r\n}\r\n",
  "sourcePath": "C:\\Development\\Blockchain\\Learning-2\\contracts\\Supplier.sol",
  "compiler": {
    "name": "solc",
    "version": "0.8.6+commit.11564f7e.Emscripten.clang"
  },
  "schemaVersion": "3.4.1",
  "updatedAt": "2021-07-07T13:26:47.815Z",
  "devdoc": {
    "kind": "dev",
    "methods": {},
    "version": 1
  },
  "userdoc": {
    "kind": "user",
    "methods": {},
    "version": 1
  }
}