{
  "contractName": "Supplier",
  "abi": [
    {
      "anonymous": false,
      "inputs": [
        {
          "indexed": true,
          "internalType": "address",
          "name": "MaterialID",
          "type": "address"
        },
        {
          "indexed": true,
          "internalType": "address",
          "name": "Supplier",
          "type": "address"
        },
        {
          "indexed": false,
          "internalType": "address",
          "name": "Manufacturer",
          "type": "address"
        },
        {
          "indexed": true,
          "internalType": "address",
          "name": "Transporter",
          "type": "address"
        }
      ],
      "name": "RawMaterialInitialize",
      "type": "event"
    },
    {
      "inputs": [
        {
          "internalType": "address",
          "name": "",
          "type": "address"
        },
        {
          "internalType": "uint256",
          "name": "",
          "type": "uint256"
        }
      ],
      "name": "MaterialShipmentList",
      "outputs": [
        {
          "internalType": "address",
          "name": "",
          "type": "address"
        }
      ],
      "stateMutability": "view",
      "type": "function"
    },
    {
      "inputs": [
        {
          "internalType": "address",
          "name": "",
          "type": "address"
        },
        {
          "internalType": "uint256",
          "name": "",
          "type": "uint256"
        }
      ],
      "name": "SupplierRegisteredRawMaterialList",
      "outputs": [
        {
          "internalType": "address",
          "name": "",
          "type": "address"
        }
      ],
      "stateMutability": "view",
      "type": "function"
    },
    {
      "inputs": [
        {
          "internalType": "uint256",
          "name": "",
          "type": "uint256"
        }
      ],
      "name": "UserList",
      "outputs": [
        {
          "internalType": "address",
          "name": "userAddress",
          "type": "address"
        },
        {
          "internalType": "string",
          "name": "userName",
          "type": "string"
        },
        {
          "internalType": "string",
          "name": "userLocation",
          "type": "string"
        },
        {
          "internalType": "enum User.roles",
          "name": "userRole",
          "type": "uint8"
        },
        {
          "internalType": "string",
          "name": "userStatus",
          "type": "string"
        },
        {
          "internalType": "bool",
          "name": "isDeleted",
          "type": "bool"
        },
        {
          "internalType": "uint256",
          "name": "registrationDate",
          "type": "uint256"
        }
      ],
      "stateMutability": "view",
      "type": "function"
    },
    {
      "inputs": [
        {
          "internalType": "address",
          "name": "_address",
          "type": "address"
        }
      ],
      "name": "deleteUser",
      "outputs": [],
      "stateMutability": "nonpayable",
      "type": "function"
    },
    {
      "inputs": [],
      "name": "owner",
      "outputs": [
        {
          "internalType": "address",
          "name": "",
          "type": "address"
        }
      ],
      "stateMutability": "view",
      "type": "function"
    },
    {
      "inputs": [
        {
          "internalType": "address",
          "name": "_address",
          "type": "address"
        },
        {
          "internalType": "string",
          "name": "_name",
          "type": "string"
        },
        {
          "internalType": "string",
          "name": "_location",
          "type": "string"
        },
        {
          "internalType": "uint256",
          "name": "_role",
          "type": "uint256"
        },
        {
          "internalType": "string",
          "name": "_userStatus",
          "type": "string"
        }
      ],
      "name": "registerAdmin",
      "outputs": [],
      "stateMutability": "nonpayable",
      "type": "function"
    },
    {
      "inputs": [
        {
          "internalType": "address",
          "name": "_address",
          "type": "address"
        },
        {
          "internalType": "string",
          "name": "_name",
          "type": "string"
        },
        {
          "internalType": "string",
          "name": "_location",
          "type": "string"
        },
        {
          "internalType": "uint256",
          "name": "_role",
          "type": "uint256"
        },
        {
          "internalType": "string",
          "name": "_userStatus",
          "type": "string"
        }
      ],
      "name": "registerUser",
      "outputs": [],
      "stateMutability": "nonpayable",
      "type": "function"
    },
    {
      "inputs": [
        {
          "internalType": "address",
          "name": "_address",
          "type": "address"
        },
        {
          "internalType": "string",
          "name": "_location",
          "type": "string"
        },
        {
          "internalType": "string",
          "name": "_userStatus",
          "type": "string"
        }
      ],
      "name": "updateUser",
      "outputs": [],
      "stateMutability": "nonpayable",
      "type": "function"
    },
    {
      "inputs": [
        {
          "internalType": "string",
          "name": "_desc",
          "type": "string"
        },
        {
          "internalType": "string",
          "name": "_producerName",
          "type": "string"
        },
        {
          "internalType": "string",
          "name": "_location",
          "type": "string"
        },
        {
          "internalType": "uint256",
          "name": "_quantity",
          "type": "uint256"
        },
        {
          "internalType": "address",
          "name": "_transporter",
          "type": "address"
        },
        {
          "internalType": "address",
          "name": "_manufacturer",
          "type": "address"
        }
      ],
      "name": "createRawMaterialPackage",
      "outputs": [],
      "stateMutability": "nonpayable",
      "type": "function"
    },
    {
      "inputs": [
        {
          "internalType": "address",
          "name": "_materialID",
          "type": "address"
        },
        {
          "internalType": "string",
          "name": "_desc",
          "type": "string"
        },
        {
          "internalType": "string",
          "name": "_producerName",
          "type": "string"
        },
        {
          "internalType": "string",
          "name": "_location",
          "type": "string"
        },
        {
          "internalType": "uint256",
          "name": "_quantity",
          "type": "uint256"
        },
        {
          "internalType": "address",
          "name": "_transporter",
          "type": "address"
        },
        {
          "internalType": "address",
          "name": "_manufacturer",
          "type": "address"
        }
      ],
      "name": "updateRawMaterial",
      "outputs": [],
      "stateMutability": "nonpayable",
      "type": "function"
    },
    {
      "inputs": [
        {
          "internalType": "address",
          "name": "_materialID",
          "type": "address"
        },
        {
          "internalType": "address",
          "name": "_manufacturer",
          "type": "address"
        }
      ],
      "name": "loadAndShipRawMaterialBatch",
      "outputs": [],
      "stateMutability": "nonpayable",
      "type": "function"
    },
    {
      "inputs": [
        {
          "internalType": "address",
          "name": "_manufacturer",
          "type": "address"
        }
      ],
      "name": "getTotalMaterialPackagesShippedCount",
      "outputs": [
        {
          "internalType": "uint256",
          "name": "",
          "type": "uint256"
        }
      ],
      "stateMutability": "view",
      "type": "function"
    }
  ],
  "bytecode": "0x608060405234801561001057600080fd5b5060008054600160a060020a03191633179055612801806100326000396000f3fe60806040523480156200001157600080fd5b5060043610620000c75760003560e060020a900480638da5cb5b116200007e5780638da5cb5b1462000199578063a00453c014620001ad578063babe165514620001c4578063da90012114620001f0578063ecad383e1462000207578063f2bdb8f9146200021e57600080fd5b80630620ee8f14620000cc57806310e8b22d146200010b57806315f6d2c414620001245780633bb3ec9e14620001545780635c60f226146200016b578063798048d71462000182575b600080fd5b620000f8620000dd3660046200130e565b600160a060020a031660009081526004602052604090205490565b6040519081526020015b60405180910390f35b620001226200011c36600462001393565b62000235565b005b6200013b620001353660046200159b565b620004bd565b604051600160a060020a03909116815260200162000102565b6200012262000165366004620014ea565b620004f6565b620001226200017c3660046200130e565b6200084d565b620001226200019336600462001355565b620009a7565b6000546200013b90600160a060020a031681565b62000122620001be366004620014ea565b62000b1f565b620001db620001d536600462001690565b62000b80565b60405162000102979695949392919062001714565b620001226200020136600462001412565b62000d96565b6200012262000218366004620015ca565b62000e73565b6200013b6200022f3660046200159b565b62001015565b60083360009081526002602052604090206003015460ff16600881111562000261576200026162001955565b146200028d5760405160e560020a62461bcd0281526004016200028490620018b1565b60405180910390fd5b600160a060020a0380841660008181526002602052604090205490911614620002fc5760405160e560020a62461bcd02815260206004820152600a60248201527f5553525f4e545f52454700000000000000000000000000000000000000000000604482015260640162000284565b600160a060020a03831660009081526002602052604090206005015460ff16156200036d5760405160e560020a62461bcd02815260206004820152600b60248201527f5553525f44454c45544544000000000000000000000000000000000000000000604482015260640162000284565b600160a060020a038316600090815260026020818152604090922084516200039e939190920191908501906200115a565b50600160a060020a03831660009081526002602090815260409091208251620003d0926004909201918401906200115a565b506000805b6001548110156200043a5784600160a060020a0316600182815481106200040057620004006200196e565b6000918252602090912060079091020154600160a060020a0316141562000425578091505b80620004318162001928565b915050620003d5565b5082600182815481106200045257620004526200196e565b90600052602060002090600702016002019080519060200190620004789291906200115a565b5081600182815481106200049057620004906200196e565b90600052602060002090600702016004019080519060200190620004b69291906200115a565b5050505050565b60036020528160005260406000208181548110620004da57600080fd5b600091825260209091200154600160a060020a03169150829050565b60083360009081526002602052604090206003015460ff16600881111562000522576200052262001955565b14620005455760405160e560020a62461bcd0281526004016200028490620018b1565b600160a060020a038086166000818152600260205260409020549091161415620005b55760405160e560020a62461bcd02815260206004820152600960248201527f5553525f45584953540000000000000000000000000000000000000000000000604482015260640162000284565b620005bf620011e9565b600160a060020a03861681526020810185905260408101849052826008811115620005ee57620005ee62001955565b8160600190600881111562000607576200060762001955565b908160088111156200061d576200061d62001955565b90525060808101829052600060a082018190524260c0830152600160a060020a0387811682526002602090815260409092208351815473ffffffffffffffffffffffffffffffffffffffff1916921691909117815581830151805184936200068d9260018501929101906200115a565b5060408201518051620006ab9160028401916020909101906200115a565b50606082015160038201805460ff19166001836008811115620006d257620006d262001955565b021790555060808201518051620006f49160048401916020909101906200115a565b5060a082015160058201805460ff191691151591909117905560c09091015160069091015560018054808201825560009190915281517fb10e2d527612073b26eecdfd717e6a320cf44b4afac2b0732d9fcbe2b7fa0cf66007909202918201805473ffffffffffffffffffffffffffffffffffffffff1916600160a060020a0390921691909117815560208084015180518594620007b9937fb10e2d527612073b26eecdfd717e6a320cf44b4afac2b0732d9fcbe2b7fa0cf79091019201906200115a565b5060408201518051620007d79160028401916020909101906200115a565b50606082015160038201805460ff19166001836008811115620007fe57620007fe62001955565b021790555060808201518051620008209160048401916020909101906200115a565b5060a082015160058201805460ff191691151591909117905560c090910151600690910155505050505050565b60083360009081526002602052604090206003015460ff16600881111562000879576200087962001955565b146200089c5760405160e560020a62461bcd0281526004016200028490620018b1565b600160a060020a03808216600081815260026020526040902054909116146200090b5760405160e560020a62461bcd02815260206004820152600a60248201527f5553525f4e545f52454700000000000000000000000000000000000000000000604482015260640162000284565b604080518082018252600881527f496e6163746976650000000000000000000000000000000000000000000000006020808301918252600160a060020a038516600090815260029091529290922090516200096d92600490920191906200115a565b50600160a060020a0381166000908152600260205260409020600501805460ff19166001908117909155620009a490829062001032565b50565b60013360009081526002602052604090206003015460ff166008811115620009d357620009d362001955565b14620009f65760405160e560020a62461bcd02815260040162000284906200187a565b81600160a060020a031663b27a29706040518163ffffffff1660e060020a028152600401600060405180830381600087803b15801562000a3557600080fd5b505af115801562000a4a573d6000803e3d6000fd5b5050505081600160a060020a031663922962996040518163ffffffff1660e060020a02815260040160206040518083038186803b15801562000a8b57600080fd5b505afa15801562000aa0573d6000803e3d6000fd5b505050506040513d601f19601f8201168201806040525081019062000ac69190620016aa565b6001141562000b1b57600160a060020a03818116600090815260046020908152604082208054600181018255908352912001805473ffffffffffffffffffffffffffffffffffffffff19169184169190911790555b5050565b600054600160a060020a03163314620005455760405160e560020a62461bcd028152600401620002849060208082526004908201527f4f57434300000000000000000000000000000000000000000000000000000000604082015260600190565b6001818154811062000b9157600080fd5b600091825260209091206007909102018054600182018054600160a060020a0390921693509062000bc290620018e8565b80601f016020809104026020016040519081016040528092919081815260200182805462000bf090620018e8565b801562000c415780601f1062000c155761010080835404028352916020019162000c41565b820191906000526020600020905b81548152906001019060200180831162000c2357829003601f168201915b50505050509080600201805462000c5890620018e8565b80601f016020809104026020016040519081016040528092919081815260200182805462000c8690620018e8565b801562000cd75780601f1062000cab5761010080835404028352916020019162000cd7565b820191906000526020600020905b81548152906001019060200180831162000cb957829003601f168201915b5050506003840154600485018054949560ff90921694919350915062000cfd90620018e8565b80601f016020809104026020016040519081016040528092919081815260200182805462000d2b90620018e8565b801562000d7c5780601f1062000d505761010080835404028352916020019162000d7c565b820191906000526020600020905b81548152906001019060200180831162000d5e57829003601f168201915b505050506005830154600690930154919260ff1691905087565b60013360009081526002602052604090206003015460ff16600881111562000dc25762000dc262001955565b1462000de55760405160e560020a62461bcd02815260040162000284906200187a565b6040517fcf1287e1000000000000000000000000000000000000000000000000000000008152600160a060020a0388169063cf1287e19062000e369089908990899089908990899060040162001812565b600060405180830381600087803b15801562000e5157600080fd5b505af115801562000e66573d6000803e3d6000fd5b5050505050505050505050565b60013360009081526002602052604090206003015460ff16600881111562000e9f5762000e9f62001955565b1462000ec25760405160e560020a62461bcd02815260040162000284906200187a565b60003387878787878760405162000ed99062001242565b62000eeb9796959493929190620017a1565b604051809103906000f08015801562000f08573d6000803e3d6000fd5b509050600081600160a060020a031663f6f1bf666040518163ffffffff1660e060020a02815260040160206040518083038186803b15801562000f4a57600080fd5b505afa15801562000f5f573d6000803e3d6000fd5b505050506040513d601f19601f8201168201806040525081019062000f85919062001335565b336000818152600360209081526040808320805460018101825590845292829020909201805473ffffffffffffffffffffffffffffffffffffffff1916600160a060020a03868116918217909255925188821681529495508816937f728267d54f823d734daeb96ba05b79fcaea723977ba2f95b1036694d36e547c9910160405180910390a45050505050505050565b60046020528160005260406000208181548110620004da57600080fd5b6000805b6001548110156200109b5783600160a060020a0316600182815481106200106157620010616200196e565b6000918252602090912060079091020154600160a060020a0316141562001086578091505b80620010928162001928565b91505062001036565b506040518060400160405280600881526020017f496e61637469766500000000000000000000000000000000000000000000000081525060018281548110620010e857620010e86200196e565b906000526020600020906007020160040190805190602001906200110e9291906200115a565b5060018215151415620011555760018082815481106200113257620011326200196e565b60009182526020909120600790910201600501805460ff19169115159190911790555b505050565b8280546200116890620018e8565b90600052602060002090601f0160209004810192826200118c5760008555620011d7565b82601f10620011a757805160ff1916838001178555620011d7565b82800160010185558215620011d7579182015b82811115620011d7578251825591602001919060010190620011ba565b50620011e592915062001250565b5090565b6040518060e001604052806000600160a060020a0316815260200160608152602001606081526020016000600881111562001228576200122862001955565b815260606020820181905260006040830181905291015290565b610e1580620019b783390190565b5b80821115620011e5576000815560010162001251565b80356200127481620019a0565b919050565b600082601f8301126200128b57600080fd5b813567ffffffffffffffff80821115620012a957620012a962001987565b604051601f8301601f19908116603f01168101908282118183101715620012d457620012d462001987565b81604052838152866020858801011115620012ee57600080fd5b836020870160208301376000602085830101528094505050505092915050565b6000602082840312156200132157600080fd5b81356200132e81620019a0565b9392505050565b6000602082840312156200134857600080fd5b81516200132e81620019a0565b600080604083850312156200136957600080fd5b82356200137681620019a0565b915060208301356200138881620019a0565b809150509250929050565b600080600060608486031215620013a957600080fd5b8335620013b681620019a0565b9250602084013567ffffffffffffffff80821115620013d457600080fd5b620013e28783880162001279565b93506040860135915080821115620013f957600080fd5b50620014088682870162001279565b9150509250925092565b600080600080600080600060e0888a0312156200142e57600080fd5b87356200143b81620019a0565b9650602088013567ffffffffffffffff808211156200145957600080fd5b620014678b838c0162001279565b975060408a01359150808211156200147e57600080fd5b6200148c8b838c0162001279565b965060608a0135915080821115620014a357600080fd5b50620014b28a828b0162001279565b9450506080880135925060a0880135620014cc81620019a0565b9150620014dc60c0890162001267565b905092959891949750929550565b600080600080600060a086880312156200150357600080fd5b85356200151081620019a0565b9450602086013567ffffffffffffffff808211156200152e57600080fd5b6200153c89838a0162001279565b955060408801359150808211156200155357600080fd5b6200156189838a0162001279565b94506060880135935060808801359150808211156200157f57600080fd5b506200158e8882890162001279565b9150509295509295909350565b60008060408385031215620015af57600080fd5b8235620015bc81620019a0565b946020939093013593505050565b60008060008060008060c08789031215620015e457600080fd5b863567ffffffffffffffff80821115620015fd57600080fd5b6200160b8a838b0162001279565b975060208901359150808211156200162257600080fd5b620016308a838b0162001279565b965060408901359150808211156200164757600080fd5b506200165689828a0162001279565b9450506060870135925060808701356200167081620019a0565b915060a08701356200168281620019a0565b809150509295509295509295565b600060208284031215620016a357600080fd5b5035919050565b600060208284031215620016bd57600080fd5b5051919050565b6000815180845260005b81811015620016ec57602081850181015186830182015201620016ce565b81811115620016ff576000602083870101525b50601f01601f19169290920160200192915050565b600160a060020a038816815260e0602082015260006200173860e0830189620016c4565b82810360408401526200174c8189620016c4565b905060098710620017705760e060020a634e487b7102600052602160045260246000fd5b86606084015282810360808401526200178a8187620016c4565b94151560a0840152505060c0015295945050505050565b6000600160a060020a03808a16835260e06020840152620017c660e084018a620016c4565b8381036040850152620017da818a620016c4565b90508381036060850152620017f08189620016c4565b60808501979097525093841660a083015250911660c090910152949350505050565b60c0815260006200182760c0830189620016c4565b82810360208401526200183b8189620016c4565b90508281036040840152620018518188620016c4565b60608401969096525050600160a060020a039283166080820152911660a0909101529392505050565b60208082526006908201527f4f524d5343430000000000000000000000000000000000000000000000000000604082015260600190565b60208082526004908201527f4f41434300000000000000000000000000000000000000000000000000000000604082015260600190565b600281046001821680620018fd57607f821691505b60208210811415620019225760e060020a634e487b7102600052602260045260246000fd5b50919050565b60006000198214156200194e5760e060020a634e487b7102600052601160045260246000fd5b5060010190565b60e060020a634e487b7102600052602160045260246000fd5b60e060020a634e487b7102600052603260045260246000fd5b60e060020a634e487b7102600052604160045260246000fd5b600160a060020a0381168114620009a457600080fdfe60806040523480156200001157600080fd5b5060405162000e1538038062000e158339810160408190526200003491620002a7565b60008054600160a060020a038916600160a060020a03199182161790915560018054909116301790558551620000729060029060208901906200012d565b508451620000889060039060208801906200012d565b5083516200009e9060049060208701906200012d565b5060059290925560068054600160a060020a0319908116600160a060020a0393841617909155600780549091169282169290921790915560088054600160a860020a0319169590911694909417909355505060098054600181018255600091909152437f6e1540171b6c0c960b71a7020d9f60077f6af931a8bbf590da0223dacf75c7af9091015550620003ff565b8280546200013b906200037a565b90600052602060002090601f0160209004810192826200015f5760008555620001aa565b82601f106200017a57805160ff1916838001178555620001aa565b82800160010185558215620001aa579182015b82811115620001aa5782518255916020019190600101906200018d565b50620001b8929150620001bc565b5090565b5b80821115620001b85760008155600101620001bd565b8051600160a060020a0381168114620001eb57600080fd5b919050565b600082601f8301126200020257600080fd5b81516001604060020a03808211156200021f576200021f620003d0565b604051601f8301601f19908116603f011681019082821181831017156200024a576200024a620003d0565b816040528381526020925086838588010111156200026757600080fd5b600091505b838210156200028b57858201830151818301840152908201906200026c565b838211156200029d5760008385830101525b9695505050505050565b600080600080600080600060e0888a031215620002c357600080fd5b620002ce88620001d3565b965060208801516001604060020a0380821115620002eb57600080fd5b620002f98b838c01620001f0565b975060408a01519150808211156200031057600080fd5b6200031e8b838c01620001f0565b965060608a01519150808211156200033557600080fd5b50620003448a828b01620001f0565b945050608088015192506200035c60a08901620001d3565b91506200036c60c08901620001d3565b905092959891949750929550565b6002810460018216806200038f57607f821691505b60208210811415620003ca577f4e487b7100000000000000000000000000000000000000000000000000000000600052602260045260246000fd5b50919050565b7f4e487b7100000000000000000000000000000000000000000000000000000000600052604160045260246000fd5b610a06806200040f6000396000f3fe608060405234801561001057600080fd5b506004361061007e577c01000000000000000000000000000000000000000000000000000000006000350463922962998114610083578063b1767f871461009e578063b27a2970146100bc578063cf1287e1146100c6578063ee8a544a146100d9578063f6f1bf66146100e1575b600080fd5b61008b610109565b6040519081526020015b60405180910390f35b6100a661012f565b6040516100959a99989796959493929190610852565b6100c46103b5565b005b6100c46100d4366004610753565b6104b3565b6100c4610540565b60015460405173ffffffffffffffffffffffffffffffffffffffff9091168152602001610095565b60085460009060a060020a900460ff16600281111561012a5761012a610972565b905090565b6001546008546005546006546007546000948594606094859485948894859485948594899473ffffffffffffffffffffffffffffffffffffffff948516948085169460029460039460049491939081169291169060a060020a900460ff168681111561019d5761019d610972565b60098780546101ab9061091e565b80601f01602080910402602001604051908101604052809291908181526020018280546101d79061091e565b80156102245780601f106101f957610100808354040283529160200191610224565b820191906000526020600020905b81548152906001019060200180831161020757829003601f168201915b505050505097508680546102379061091e565b80601f01602080910402602001604051908101604052809291908181526020018280546102639061091e565b80156102b05780601f10610285576101008083540402835291602001916102b0565b820191906000526020600020905b81548152906001019060200180831161029357829003601f168201915b505050505096508580546102c39061091e565b80601f01602080910402602001604051908101604052809291908181526020018280546102ef9061091e565b801561033c5780601f106103115761010080835404028352916020019161033c565b820191906000526020600020905b81548152906001019060200180831161031f57829003601f168201915b505050505095508080548060200260200160405190810160405280929190818152602001828054801561038e57602002820191906000526020600020905b81548152602001906001019080831161037a575b50505050509050995099509950995099509950995099509950995090919293949596979899565b600060085460a060020a900460ff1660028111156103d5576103d5610972565b14610441576040517f08c379a000000000000000000000000000000000000000000000000000000000815260206004820152600c60248201527f524d5f4d5553545f41545f53000000000000000000000000000000000000000060448201526064015b60405180910390fd5b6009805460018181018355600092909252437f6e1540171b6c0c960b71a7020d9f60077f6af931a8bbf590da0223dacf75c7af909101555b6008805474ff0000000000000000000000000000000000000000191660a060020a8360028111156104ac576104ac610972565b0217905550565b85516104c6906002906020890190610604565b5084516104da906003906020880190610604565b5083516104ee906004906020870190610604565b506005929092556006805473ffffffffffffffffffffffffffffffffffffffff92831673ffffffffffffffffffffffffffffffffffffffff199182161790915560078054929093169116179055505050565b600160085460a060020a900460ff16600281111561056057610560610972565b146105c7576040517f08c379a000000000000000000000000000000000000000000000000000000000815260206004820152600c60248201527f524d5f4d5553545f41545f4d00000000000000000000000000000000000000006044820152606401610438565b60098054600181018255600091909152437f6e1540171b6c0c960b71a7020d9f60077f6af931a8bbf590da0223dacf75c7af909101556002610479565b8280546106109061091e565b90600052602060002090601f0160209004810192826106325760008555610678565b82601f1061064b57805160ff1916838001178555610678565b82800160010185558215610678579182015b8281111561067857825182559160200191906001019061065d565b50610684929150610688565b5090565b5b808211156106845760008155600101610689565b803573ffffffffffffffffffffffffffffffffffffffff811681146106c157600080fd5b919050565b600082601f8301126106d757600080fd5b813567ffffffffffffffff808211156106f2576106f26109a1565b604051601f8301601f19908116603f0116810190828211818310171561071a5761071a6109a1565b8160405283815286602085880101111561073357600080fd5b836020870160208301376000602085830101528094505050505092915050565b60008060008060008060c0878903121561076c57600080fd5b863567ffffffffffffffff8082111561078457600080fd5b6107908a838b016106c6565b975060208901359150808211156107a657600080fd5b6107b28a838b016106c6565b965060408901359150808211156107c857600080fd5b506107d589828a016106c6565b945050606087013592506107eb6080880161069d565b91506107f960a0880161069d565b90509295509295509295565b6000815180845260005b8181101561082b5760208185018101518683018201520161080f565b8181111561083d576000602083870101525b50601f01601f19169290920160200192915050565b600061014073ffffffffffffffffffffffffffffffffffffffff808e1684526020818e168186015282604086015261088c8386018e610805565b925084830360608601526108a0838d610805565b925084830360808601526108b4838c610805565b60a086018b905289831660c087015291881660e08601526101008501879052848203610120860152855180835281870193509181019160005b81811015610909578451845293820193928201926001016108ed565b50919f9e505050505050505050505050505050565b60028104600182168061093257607f821691505b6020821081141561096c577f4e487b7100000000000000000000000000000000000000000000000000000000600052602260045260246000fd5b50919050565b7f4e487b7100000000000000000000000000000000000000000000000000000000600052602160045260246000fd5b7f4e487b7100000000000000000000000000000000000000000000000000000000600052604160045260246000fdfea2646970667358221220983fbf8da35dcc6bada87d7d46dee266931e452cbcc82f4770a484ffcd8cbb7764736f6c63430008060033a26469706673582212209f47650789de89ed5b5cf9762c7b77cbff56ab632246152dc6448fc47f68fa7c64736f6c63430008060033",
  "immutableReferences": {},
  "source": "// SPDX-License-Identifier: MIT\r\npragma solidity >=0.4.22 <0.9.0;\r\npragma experimental ABIEncoderV2;\r\n\r\nimport \"./User.sol\";\r\nimport \"./RawMaterials.sol\";\r\n\r\ncontract Supplier is User {\r\n    mapping(address => address[]) public SupplierRegisteredRawMaterialList;\r\n    mapping(address => address[]) public MaterialShipmentList;\r\n\r\n    //Event\r\n    event RawMaterialInitialize(\r\n        address indexed MaterialID,\r\n        address indexed Supplier,\r\n        address Manufacturer,\r\n        address indexed Transporter\r\n    );\r\n\r\n    modifier onlySupplier {\r\n        require(UsersDetails[msg.sender].userRole == roles.supplier, \"ORMSCC\"); //Only Supplier can call this function.\r\n        _;\r\n    }\r\n\r\n    //Initialize Raw Material Package with required details, transporter & manufacturer. Emit event with new package details.\r\n    //@param _desc Raw Material description String\r\n    //@param _producerName Raw material producer String\r\n    //@param _location Supplier location String\r\n    //@param _quantity Material Quantity Uint\r\n    //@param _transporter Transporter/Shipper Address\r\n    //@param _manufacturer Reciever/Manufacturer Address\r\n    function createRawMaterialPackage(\r\n        string memory _desc,\r\n        string memory _producerName,\r\n        string memory _location,\r\n        uint256 _quantity,\r\n        address _transporter,\r\n        address _manufacturer\r\n    ) public onlySupplier {\r\n        RawMaterials rawMaterialData = new RawMaterials(\r\n            msg.sender,\r\n            _desc,\r\n            _producerName,\r\n            _location,\r\n            _quantity,\r\n            _transporter,\r\n            _manufacturer\r\n        );\r\n        //populate raw material ID\r\n        address _materialID = rawMaterialData.getRawMaterialID();\r\n        //Push raw material address to list registered by supplier\r\n        SupplierRegisteredRawMaterialList[msg.sender].push(_materialID);\r\n        //Emit event after raw material registration\r\n        emit RawMaterialInitialize(\r\n            _materialID,\r\n            msg.sender,\r\n            _manufacturer,\r\n            _transporter\r\n        );\r\n    }\r\n\r\n    //Update material details for materialid. Only supplier can call this.\r\n    function updateRawMaterial(\r\n        address _materialID,\r\n        string memory _desc,\r\n        string memory _producerName,\r\n        string memory _location,\r\n        uint256 _quantity,\r\n        address _transporter,\r\n        address _manufacturer\r\n    ) public onlySupplier {\r\n        RawMaterials(_materialID).updateRawMaterialDetails(\r\n            _desc,\r\n            _producerName,\r\n            _location,\r\n            _quantity,\r\n            _transporter,\r\n            _manufacturer\r\n        );\r\n    }\r\n\r\n    //Load & ship raw material from supplier to manufacturer. Only Supplier call this.\r\n    function loadAndShipRawMaterialBatch(\r\n        address _materialID,\r\n        address _manufacturer\r\n    ) public onlySupplier {\r\n        RawMaterials(_materialID).pickRawMaterialPackage();\r\n        if (RawMaterials(_materialID).getRawMaterialsStatus() == 1) {\r\n            MaterialShipmentList[_manufacturer].push(_materialID);\r\n        }\r\n    }\r\n\r\n    function getTotalMaterialPackagesShippedCount(address _manufacturer)\r\n        public\r\n        view\r\n        returns (uint256)\r\n    {\r\n        return MaterialShipmentList[_manufacturer].length;\r\n    }\r\n}\r\n",
  "sourcePath": "C:\\Development\\Blockchain\\Learning-2\\contracts\\Supplier.sol",
  "compiler": {
    "name": "solc",
    "version": "0.8.6+commit.11564f7e.Emscripten.clang"
  },
  "schemaVersion": "3.4.1",
  "updatedAt": "2021-08-05T10:21:15.150Z",
  "devdoc": {
    "kind": "dev",
    "methods": {},
    "version": 1
  },
  "userdoc": {
    "kind": "user",
    "methods": {},
    "version": 1
  }
}