{
  "contractName": "Transporter",
  "abi": [
    {
      "anonymous": false,
      "inputs": [
        {
          "indexed": true,
          "internalType": "address",
          "name": "UserAddress",
          "type": "address"
        },
        {
          "indexed": false,
          "internalType": "string",
          "name": "Name",
          "type": "string"
        }
      ],
      "name": "UserRegistered",
      "type": "event"
    },
    {
      "anonymous": false,
      "inputs": [
        {
          "indexed": true,
          "internalType": "address",
          "name": "UserAddress",
          "type": "address"
        },
        {
          "indexed": false,
          "internalType": "string",
          "name": "Name",
          "type": "string"
        },
        {
          "indexed": false,
          "internalType": "uint256",
          "name": "Role",
          "type": "uint256"
        }
      ],
      "name": "UserRoleReassigned",
      "type": "event"
    },
    {
      "anonymous": false,
      "inputs": [
        {
          "indexed": true,
          "internalType": "address",
          "name": "UserAddress",
          "type": "address"
        },
        {
          "indexed": false,
          "internalType": "string",
          "name": "Name",
          "type": "string"
        },
        {
          "indexed": false,
          "internalType": "uint256",
          "name": "Role",
          "type": "uint256"
        }
      ],
      "name": "UserRoleRevoked",
      "type": "event"
    },
    {
      "inputs": [
        {
          "internalType": "uint256",
          "name": "",
          "type": "uint256"
        }
      ],
      "name": "UserList",
      "outputs": [
        {
          "internalType": "address",
          "name": "userAddress",
          "type": "address"
        },
        {
          "internalType": "string",
          "name": "userName",
          "type": "string"
        },
        {
          "internalType": "string",
          "name": "userLocation",
          "type": "string"
        },
        {
          "internalType": "enum User.roles",
          "name": "userRole",
          "type": "uint8"
        },
        {
          "internalType": "string",
          "name": "userStatus",
          "type": "string"
        }
      ],
      "stateMutability": "view",
      "type": "function"
    },
    {
      "inputs": [
        {
          "internalType": "address",
          "name": "_address",
          "type": "address"
        }
      ],
      "name": "deleteUser",
      "outputs": [],
      "stateMutability": "nonpayable",
      "type": "function"
    },
    {
      "inputs": [
        {
          "internalType": "address",
          "name": "_address",
          "type": "address"
        }
      ],
      "name": "findAndDeactivateUser",
      "outputs": [],
      "stateMutability": "nonpayable",
      "type": "function"
    },
    {
      "inputs": [],
      "name": "getAllRegisteredUsers",
      "outputs": [
        {
          "components": [
            {
              "internalType": "address",
              "name": "userAddress",
              "type": "address"
            },
            {
              "internalType": "string",
              "name": "userName",
              "type": "string"
            },
            {
              "internalType": "string",
              "name": "userLocation",
              "type": "string"
            },
            {
              "internalType": "enum User.roles",
              "name": "userRole",
              "type": "uint8"
            },
            {
              "internalType": "string",
              "name": "userStatus",
              "type": "string"
            }
          ],
          "internalType": "struct User.UserInfo[]",
          "name": "",
          "type": "tuple[]"
        }
      ],
      "stateMutability": "view",
      "type": "function"
    },
    {
      "inputs": [
        {
          "internalType": "address",
          "name": "_address",
          "type": "address"
        }
      ],
      "name": "getUserInfo",
      "outputs": [
        {
          "components": [
            {
              "internalType": "address",
              "name": "userAddress",
              "type": "address"
            },
            {
              "internalType": "string",
              "name": "userName",
              "type": "string"
            },
            {
              "internalType": "string",
              "name": "userLocation",
              "type": "string"
            },
            {
              "internalType": "enum User.roles",
              "name": "userRole",
              "type": "uint8"
            },
            {
              "internalType": "string",
              "name": "userStatus",
              "type": "string"
            }
          ],
          "internalType": "struct User.UserInfo",
          "name": "",
          "type": "tuple"
        }
      ],
      "stateMutability": "view",
      "type": "function"
    },
    {
      "inputs": [],
      "name": "getUsersCount",
      "outputs": [
        {
          "internalType": "uint256",
          "name": "count",
          "type": "uint256"
        }
      ],
      "stateMutability": "view",
      "type": "function"
    },
    {
      "inputs": [],
      "name": "owner",
      "outputs": [
        {
          "internalType": "address",
          "name": "",
          "type": "address"
        }
      ],
      "stateMutability": "view",
      "type": "function"
    },
    {
      "inputs": [
        {
          "internalType": "address",
          "name": "_address",
          "type": "address"
        },
        {
          "internalType": "uint256",
          "name": "_role",
          "type": "uint256"
        }
      ],
      "name": "reAssignUserRole",
      "outputs": [],
      "stateMutability": "nonpayable",
      "type": "function"
    },
    {
      "inputs": [
        {
          "internalType": "address",
          "name": "_address",
          "type": "address"
        },
        {
          "internalType": "string",
          "name": "_name",
          "type": "string"
        },
        {
          "internalType": "string",
          "name": "_location",
          "type": "string"
        },
        {
          "internalType": "uint256",
          "name": "_role",
          "type": "uint256"
        },
        {
          "internalType": "string",
          "name": "_userStatus",
          "type": "string"
        }
      ],
      "name": "registerAdmin",
      "outputs": [],
      "stateMutability": "nonpayable",
      "type": "function"
    },
    {
      "inputs": [
        {
          "internalType": "address",
          "name": "_address",
          "type": "address"
        },
        {
          "internalType": "string",
          "name": "_name",
          "type": "string"
        },
        {
          "internalType": "string",
          "name": "_location",
          "type": "string"
        },
        {
          "internalType": "uint256",
          "name": "_role",
          "type": "uint256"
        },
        {
          "internalType": "string",
          "name": "_userStatus",
          "type": "string"
        }
      ],
      "name": "registerUser",
      "outputs": [],
      "stateMutability": "nonpayable",
      "type": "function"
    },
    {
      "inputs": [
        {
          "internalType": "address",
          "name": "_address",
          "type": "address"
        }
      ],
      "name": "revokeUserRole",
      "outputs": [],
      "stateMutability": "nonpayable",
      "type": "function"
    },
    {
      "inputs": [
        {
          "internalType": "address",
          "name": "_address",
          "type": "address"
        },
        {
          "internalType": "string",
          "name": "_name",
          "type": "string"
        },
        {
          "internalType": "string",
          "name": "_location",
          "type": "string"
        },
        {
          "internalType": "uint256",
          "name": "_role",
          "type": "uint256"
        },
        {
          "internalType": "string",
          "name": "_userStatus",
          "type": "string"
        }
      ],
      "name": "updateUser",
      "outputs": [],
      "stateMutability": "nonpayable",
      "type": "function"
    },
    {
      "inputs": [
        {
          "internalType": "address",
          "name": "_address",
          "type": "address"
        },
        {
          "internalType": "string",
          "name": "_userName",
          "type": "string"
        }
      ],
      "name": "validateUser",
      "outputs": [
        {
          "components": [
            {
              "internalType": "address",
              "name": "userAddress",
              "type": "address"
            },
            {
              "internalType": "string",
              "name": "userName",
              "type": "string"
            },
            {
              "internalType": "string",
              "name": "userLocation",
              "type": "string"
            },
            {
              "internalType": "enum User.roles",
              "name": "userRole",
              "type": "uint8"
            },
            {
              "internalType": "string",
              "name": "userStatus",
              "type": "string"
            }
          ],
          "internalType": "struct User.UserInfo",
          "name": "",
          "type": "tuple"
        }
      ],
      "stateMutability": "view",
      "type": "function"
    },
    {
      "inputs": [
        {
          "internalType": "address",
          "name": "_packageID",
          "type": "address"
        },
        {
          "internalType": "uint256",
          "name": "_transporterType",
          "type": "uint256"
        },
        {
          "internalType": "address",
          "name": "_subContractID",
          "type": "address"
        }
      ],
      "name": "loadConsignment",
      "outputs": [],
      "stateMutability": "nonpayable",
      "type": "function"
    }
  ],
  "bytecode": "0x608060405234801561001057600080fd5b5060008054600160a060020a03191633179055611e84806100326000396000f3fe608060405234801561001057600080fd5b50600436106100bd5760e060020a6000350463397388af81146100c25780633bb3ec9e146100e057806345f5b55f146100f55780634fa831de146101085780635c60f2261461011b5780636386c1c71461012e5780636ab5d88c1461014e5780638da5cb5b14610161578063a00453c014610181578063a4a1e26314610194578063babe1655146101a5578063bd73b25d146101c9578063e2994767146101dc578063eaa2f67f146101ef575b600080fd5b6100ca610202565b6040516100d79190611c83565b60405180910390f35b6100f36100ee366004611962565b6104b2565b005b6100f3610103366004611a04565b6107d5565b6100f3610116366004611a2e565b6109b7565b6100f36101293660046118fa565b610b6c565b61014161013c3660046118fa565b610c4d565b6040516100d79190611d61565b6100f361015c366004611962565b610e78565b60005461017490600160a060020a031681565b6040516100d79190611c0c565b6100f361018f366004611962565b611165565b6003546040519081526020016100d7565b6101b86101b3366004611a6a565b6111ae565b6040516100d7959493929190611c20565b6100f36101d73660046118fa565b61139b565b6100f36101ea3660046118fa565b611544565b6101416101fd366004611915565b611601565b606060083360009081526002602052604090206003015460ff16600881111561022d5761022d611de0565b146102565760405160e560020a62461bcd02815260040161024d90611d40565b60405180910390fd5b6001805480602002602001604051908101604052809291908181526020016000905b828210156104a95760008481526020908190206040805160a08101909152600585029091018054600160a060020a0316825260018101805492939192918401916102c190611d74565b80601f01602080910402602001604051908101604052809291908181526020018280546102ed90611d74565b801561033a5780601f1061030f5761010080835404028352916020019161033a565b820191906000526020600020905b81548152906001019060200180831161031d57829003601f168201915b5050505050815260200160028201805461035390611d74565b80601f016020809104026020016040519081016040528092919081815260200182805461037f90611d74565b80156103cc5780601f106103a1576101008083540402835291602001916103cc565b820191906000526020600020905b8154815290600101906020018083116103af57829003601f168201915b5050509183525050600382015460209091019060ff1660088111156103f3576103f3611de0565b600881111561040457610404611de0565b815260200160048201805461041890611d74565b80601f016020809104026020016040519081016040528092919081815260200182805461044490611d74565b80156104915780601f1061046657610100808354040283529160200191610491565b820191906000526020600020905b81548152906001019060200180831161047457829003601f168201915b50505050508152505081526020019060010190610278565b50505050905090565b60083360009081526002602052604090206003015460ff1660088111156104db576104db611de0565b146104fb5760405160e560020a62461bcd02815260040161024d90611d40565b600160a060020a0380861660008181526002602052604090205490911614156105585760405160e560020a62461bcd028152602060048201526009602482015260ba60020a681554d497d1561254d502604482015260640161024d565b610560611770565b600160a060020a0386168152602081018590526040810184905282600881111561058c5761058c611de0565b816060019060088111156105a2576105a2611de0565b908160088111156105b5576105b5611de0565b90525060808101829052600160a060020a03868116600090815260026020908152604090912083518154600160a060020a031916931692909217825580830151805184939261060b9260018501929101906117b9565b50604082015180516106279160028401916020909101906117b9565b50606082015160038201805460ff1916600183600881111561064b5761064b611de0565b02179055506080820151805161066b9160048401916020909101906117b9565b505081516003805460018082019092557fc2575a0e9e593c00f959f8c92f12db2869c3395a3b0502d05e2516446f71f85b018054600160a060020a0319908116600160a060020a03948516179091558154808301835560009290925284517fb10e2d527612073b26eecdfd717e6a320cf44b4afac2b0732d9fcbe2b7fa0cf6600590930292830180549092169316929092178255602080850151805186955061073b937fb10e2d527612073b26eecdfd717e6a320cf44b4afac2b0732d9fcbe2b7fa0cf7019291909101906117b9565b50604082015180516107579160028401916020909101906117b9565b50606082015160038201805460ff1916600183600881111561077b5761077b611de0565b02179055506080820151805161079b9160048401916020909101906117b9565b50505085600160a060020a0316600080516020611e2f833981519152866040516107c59190611ce4565b60405180910390a2505050505050565b60083360009081526002602052604090206003015460ff1660088111156107fe576107fe611de0565b1461081e5760405160e560020a62461bcd02815260040161024d90611d40565b600160a060020a038083166000818152600260205260409020549091161461085b5760405160e560020a62461bcd02815260040161024d90611d19565b600061086683610c4d565b905081600881111561087a5761087a611de0565b8160600190600881111561089057610890611de0565b908160088111156108a3576108a3611de0565b905250600160a060020a03838116600090815260026020908152604090912083518154600160a060020a03191693169290921782558281015180518493926108f29260018501929101906117b9565b506040820151805161090e9160028401916020909101906117b9565b50606082015160038201805460ff1916600183600881111561093257610932611de0565b0217905550608082015180516109529160048401916020909101906117b9565b5090505082600160a060020a03167f5a2f045370e4381799dd282fd5f3a534028572dc56a8e9ff1f6184b575e584ef82602001518360600151600881111561099c5761099c611de0565b6040516109aa929190611cf7565b60405180910390a2505050565b60023360009081526002602052604090206003015460ff1660088111156109e0576109e0611de0565b14610a1b5760405160e560020a62461bcd028152602060048201526005602482015260d960020a6427aa21a19702604482015260640161024d565b60008211610a6b5760405160e560020a62461bcd0281526020600482015260176024820152604860020a76446566696e65205472616e73706f72746572207479706502604482015260640161024d565b8160011415610ada5760405160e160020a635c109907028152600160a060020a0384169063b821320e90610aa3903390600401611c0c565b600060405180830381600087803b158015610abd57600080fd5b505af1158015610ad1573d6000803e3d6000fd5b50505050505050565b8160021415610b125760405160e060020a639a305a47028152600160a060020a03841690639a305a4790610aa3903390600401611c0c565b8160031415610b675760405160e060020a63b12144cb028152600160a060020a03848116600483015233602483015282169063b12144cb90604401600060405180830381600087803b158015610abd57600080fd5b505050565b60083360009081526002602052604090206003015460ff166008811115610b9557610b95611de0565b14610bb55760405160e560020a62461bcd02815260040161024d90611d40565b600160a060020a0380821660008181526002602052604090205490911614610bf25760405160e560020a62461bcd02815260040161024d90611d19565b6040805180820182526008815260c060020a67496e616374697665026020808301918252600160a060020a03851660009081526002909152929092209051610c4092600490920191906117b9565b50610c4a81611544565b50565b610c55611770565b600160a060020a03808316600090815260026020908152604091829020825160a081019093528054909316825260018301805492939291840191610c9890611d74565b80601f0160208091040260200160405190810160405280929190818152602001828054610cc490611d74565b8015610d115780601f10610ce657610100808354040283529160200191610d11565b820191906000526020600020905b815481529060010190602001808311610cf457829003601f168201915b50505050508152602001600282018054610d2a90611d74565b80601f0160208091040260200160405190810160405280929190818152602001828054610d5690611d74565b8015610da35780601f10610d7857610100808354040283529160200191610da3565b820191906000526020600020905b815481529060010190602001808311610d8657829003601f168201915b5050509183525050600382015460209091019060ff166008811115610dca57610dca611de0565b6008811115610ddb57610ddb611de0565b8152602001600482018054610def90611d74565b80601f0160208091040260200160405190810160405280929190818152602001828054610e1b90611d74565b8015610e685780601f10610e3d57610100808354040283529160200191610e68565b820191906000526020600020905b815481529060010190602001808311610e4b57829003601f168201915b5050505050815250509050919050565b60083360009081526002602052604090206003015460ff166008811115610ea157610ea1611de0565b14610ec15760405160e560020a62461bcd02815260040161024d90611d40565b600160a060020a0380861660008181526002602052604090205490911614610efe5760405160e560020a62461bcd02815260040161024d90611d19565b600160a060020a03851660009081526002602090815260409091208551610f2d926001909201918701906117b9565b50600160a060020a03851660009081526002602081815260409092208551610f5d939190920191908601906117b9565b50816008811115610f7057610f70611de0565b600160a060020a0386166000908152600260205260409020600301805460ff19166001836008811115610fa557610fa5611de0565b0217905550600160a060020a03851660009081526002602090815260409091208251610fd9926004909201918401906117b9565b506000805b60015481101561103b5786600160a060020a03166001828154811061100557611005611dfa565b6000918252602090912060059091020154600160a060020a03161415611029578091505b8061103381611db3565b915050610fde565b50846001828154811061105057611050611dfa565b906000526020600020906005020160010190805190602001906110749291906117b9565b50836001828154811061108957611089611dfa565b906000526020600020906005020160020190805190602001906110ad9291906117b9565b508260088111156110c0576110c0611de0565b600182815481106110d3576110d3611dfa565b60009182526020909120600360059092020101805460ff1916600183600881111561110057611100611de0565b0217905550816001828154811061111957611119611dfa565b9060005260206000209060050201600401908051906020019061113d9291906117b9565b5085600160a060020a0316600080516020611e2f833981519152866040516107c59190611ce4565b600054600160a060020a031633146104fb5760405160e560020a62461bcd02815260040161024d90602080825260049082015260e060020a634f57434302604082015260600190565b600181815481106111be57600080fd5b600091825260209091206005909102018054600182018054600160a060020a039092169350906111ed90611d74565b80601f016020809104026020016040519081016040528092919081815260200182805461121990611d74565b80156112665780601f1061123b57610100808354040283529160200191611266565b820191906000526020600020905b81548152906001019060200180831161124957829003601f168201915b50505050509080600201805461127b90611d74565b80601f01602080910402602001604051908101604052809291908181526020018280546112a790611d74565b80156112f45780601f106112c9576101008083540402835291602001916112f4565b820191906000526020600020905b8154815290600101906020018083116112d757829003601f168201915b5050506003840154600485018054949560ff90921694919350915061131890611d74565b80601f016020809104026020016040519081016040528092919081815260200182805461134490611d74565b80156113915780601f1061136657610100808354040283529160200191611391565b820191906000526020600020905b81548152906001019060200180831161137457829003601f168201915b5050505050905085565b60083360009081526002602052604090206003015460ff1660088111156113c4576113c4611de0565b146113e45760405160e560020a62461bcd02815260040161024d90611d40565b600160a060020a03808216600081815260026020526040902054909116146114215760405160e560020a62461bcd02815260040161024d90611d19565b600061142c82610c4d565b60076060820152600160a060020a03838116600090815260026020908152604090912083518154600160a060020a0319169316929092178255808301518051939450849361148092600185019201906117b9565b506040820151805161149c9160028401916020909101906117b9565b50606082015160038201805460ff191660018360088111156114c0576114c0611de0565b0217905550608082015180516114e09160048401916020909101906117b9565b5090505081600160a060020a03167f18a4c0aa2d0b9e55cfd3c133652630cc693f845135ba74f56f45c8d38910ce5c82602001518360600151600881111561152a5761152a611de0565b604051611538929190611cf7565b60405180910390a25050565b6000805b6001548110156115a55782600160a060020a03166001828154811061156f5761156f611dfa565b6000918252602090912060059091020154600160a060020a03161415611593578091505b8061159d81611db3565b915050611548565b5060405180604001604052806008815260200160c060020a67496e61637469766502815250600182815481106115dd576115dd611dfa565b90600052602060002090600502016004019080519060200190610b679291906117b9565b611609611770565b600160a060020a03808416600081815260026020526040902054909116146116465760405160e560020a62461bcd02815260040161024d90611d19565b81805190602001206002600085600160a060020a0316600160a060020a031681526020019081526020016000206001016040516116839190611b6d565b6040518091039020146116ab5760405160e560020a62461bcd02815260040161024d90611d19565b6040805180820182526006815260d060020a6541637469766502602091820152600160a060020a0385166000908152600290915281902090517ff07b88471cd28dc438f2291190512bd968fbd79b8c86b9ed015e51c1261d911f9161171591600490910190611b6d565b6040518091039020146117605760405160e560020a62461bcd02815260206004820152600d6024820152609860020a6c5553525f4e545f41435449564502604482015260640161024d565b61176983610c4d565b9392505050565b6040518060a001604052806000600160a060020a031681526020016060815260200160608152602001600060088111156117ac576117ac611de0565b8152602001606081525090565b8280546117c590611d74565b90600052602060002090601f0160209004810192826117e7576000855561182d565b82601f1061180057805160ff191683800117855561182d565b8280016001018555821561182d579182015b8281111561182d578251825591602001919060010190611812565b5061183992915061183d565b5090565b5b80821115611839576000815560010161183e565b8035600160a060020a038116811461186957600080fd5b919050565b600082601f83011261187f57600080fd5b81356001604060020a038082111561189957611899611e14565b604051601f8301601f19908116603f011681019082821181831017156118c1576118c1611e14565b816040528381528660208588010111156118da57600080fd5b836020870160208301376000602085830101528094505050505092915050565b60006020828403121561190c57600080fd5b61176982611852565b6000806040838503121561192857600080fd5b61193183611852565b915060208301356001604060020a0381111561194c57600080fd5b6119588582860161186e565b9150509250929050565b600080600080600060a0868803121561197a57600080fd5b61198386611852565b945060208601356001604060020a038082111561199f57600080fd5b6119ab89838a0161186e565b955060408801359150808211156119c157600080fd5b6119cd89838a0161186e565b94506060880135935060808801359150808211156119ea57600080fd5b506119f78882890161186e565b9150509295509295909350565b60008060408385031215611a1757600080fd5b611a2083611852565b946020939093013593505050565b600080600060608486031215611a4357600080fd5b611a4c84611852565b925060208401359150611a6160408501611852565b90509250925092565b600060208284031215611a7c57600080fd5b5035919050565b60098110611aa55760e060020a634e487b710260009081526021600452602490fd5b9052565b6000815180845260005b81811015611acf57602081850181015186830182015201611ab3565b81811115611ae1576000602083870101525b50601f01601f19169290920160200192915050565b600160a060020a0381511682526000602082015160a06020850152611b1e60a0850182611aa9565b905060408301518482036040860152611b378282611aa9565b9150506060830151611b4c6060860182611a83565b5060808301518482036080860152611b648282611aa9565b95945050505050565b8154600090819060028104600180831680611b8957607f831692505b6020808410821415611bac5760e060020a634e487b710286526022600452602486fd5b818015611bc05760018114611bd157611bfe565b60ff19861689528489019650611bfe565b60008a81526020902060005b86811015611bf65781548b820152908501908301611bdd565b505084890196505b509498975050505050505050565b600160a060020a0391909116815260200190565b600160a060020a038616815260a060208201819052600090611c4490830187611aa9565b8281036040840152611c568187611aa9565b9050611c656060840186611a83565b8281036080840152611c778185611aa9565b98975050505050505050565b600060208083018184528085518083526040860191506040848202870101925083870160005b82811015611cd757603f19888603018452611cc5858351611af6565b94509285019290850190600101611ca9565b5092979650505050505050565b6020815260006117696020830184611aa9565b604081526000611d0a6040830185611aa9565b90508260208301529392505050565b6020808252600a9082015260b060020a695553525f4e545f52454702604082015260600190565b602080825260049082015260e060020a634f41434302604082015260600190565b6020815260006117696020830184611af6565b600281046001821680611d8857607f821691505b60208210811415611dad5760e060020a634e487b710260009081526022600452602490fd5b50919050565b6000600019821415611dd95760e060020a634e487b710260009081526011600452602490fd5b5060010190565b60e060020a634e487b710260009081526021600452602490fd5b60e060020a634e487b710260009081526032600452602490fd5b60e060020a634e487b710260009081526041600452602490fdfe48cac28ad4dc618e15f4c2dd5e97751182f166de97b25618318b2112aa951a2fa2646970667358221220df4d8f46623339fb05944140630b0e0e1d0bc87ff0182bf2871fcc87162ed84a64736f6c63430008060033",
  "immutableReferences": {},
  "source": "// SPDX-License-Identifier: MIT\r\npragma solidity >=0.4.22 <0.9.0;\r\npragma experimental ABIEncoderV2;\r\n\r\nimport \"./User.sol\";\r\nimport \"./RawMaterials.sol\";\r\nimport \"./Medicine.sol\";\r\nimport \"./MedicineDP.sol\";\r\n\r\ncontract Transporter is User {\r\n    modifier onlyTransporter {\r\n        require(\r\n            UsersDetails[msg.sender].userRole == roles.transporter,\r\n            \"OTCC.\" //Only Transporter can call this function\r\n        );\r\n        _;\r\n    }\r\n\r\n    //Load package for transporting package/material/medicine/product from one location to another\r\n    //@param _packageID Registered materialID/PackageID/BatchID/MedicineID Address\r\n    //@param _transporterType trnsporter type supporting different transport option Uint\r\n    //@param _subContractID sub contract ID for consignment tx happened between Dist-Pharma or Wholesaler-Dist\r\n    function loadConsignment(\r\n        address _packageID,\r\n        uint256 _transporterType,\r\n        address _subContractID\r\n    ) public onlyTransporter {\r\n        require(_transporterType > 0, \"Define Transporter type\");\r\n\r\n        //Supports supplier to manufacturer transport\r\n        if (_transporterType == 1) {\r\n            RawMaterials(_packageID).pickRawMaterialPackage(msg.sender);\r\n        } else if (_transporterType == 2) {\r\n            //Supports manufacturer to distributor transport\r\n            Medicine(_packageID).pickMedicinePackageForDistributor(msg.sender);\r\n        } else if (_transporterType == 3) {\r\n            //Supports distributor to pharma transport\r\n            MedicineDP(_subContractID).pickPackageDP(_packageID, msg.sender);\r\n        }\r\n    }\r\n}\r\n",
  "sourcePath": "C:\\Development\\Blockchain\\Learning-2\\contracts\\Transporter.sol",
  "compiler": {
    "name": "solc",
    "version": "0.8.6+commit.11564f7e.Emscripten.clang"
  },
  "schemaVersion": "3.4.1",
  "updatedAt": "2021-07-07T13:26:47.837Z",
  "devdoc": {
    "kind": "dev",
    "methods": {},
    "version": 1
  },
  "userdoc": {
    "kind": "user",
    "methods": {},
    "version": 1
  }
}