{
  "contractName": "Transporter",
  "abi": [
    {
      "anonymous": false,
      "inputs": [
        {
          "indexed": false,
          "internalType": "address",
          "name": "materialId",
          "type": "address"
        },
        {
          "indexed": false,
          "internalType": "uint256",
          "name": "packageStatus",
          "type": "uint256"
        }
      ],
      "name": "UpdatedMaterialShipmentStatus",
      "type": "event"
    },
    {
      "anonymous": false,
      "inputs": [
        {
          "indexed": false,
          "internalType": "address",
          "name": "medicineId",
          "type": "address"
        },
        {
          "indexed": false,
          "internalType": "uint256",
          "name": "packageStatus",
          "type": "uint256"
        },
        {
          "indexed": false,
          "internalType": "uint256[]",
          "name": "transactionBlocks",
          "type": "uint256[]"
        }
      ],
      "name": "UpdatedMedicineShipmentStatus",
      "type": "event"
    },
    {
      "anonymous": false,
      "inputs": [
        {
          "indexed": false,
          "internalType": "address",
          "name": "medicineSubContract",
          "type": "address"
        },
        {
          "indexed": false,
          "internalType": "address",
          "name": "medicineId",
          "type": "address"
        },
        {
          "indexed": false,
          "internalType": "uint256",
          "name": "packageStatus",
          "type": "uint256"
        },
        {
          "indexed": false,
          "internalType": "uint256[]",
          "name": "transactionBlocksDP",
          "type": "uint256[]"
        }
      ],
      "name": "UpdatedMedicineSubBatchShipmentStatus",
      "type": "event"
    },
    {
      "inputs": [
        {
          "internalType": "address",
          "name": "",
          "type": "address"
        },
        {
          "internalType": "uint256",
          "name": "",
          "type": "uint256"
        }
      ],
      "name": "DistributorTaggedMedicineList",
      "outputs": [
        {
          "internalType": "address",
          "name": "",
          "type": "address"
        }
      ],
      "stateMutability": "view",
      "type": "function"
    },
    {
      "inputs": [
        {
          "internalType": "address",
          "name": "",
          "type": "address"
        },
        {
          "internalType": "uint256",
          "name": "",
          "type": "uint256"
        }
      ],
      "name": "ManufacturerTaggedMaterialList",
      "outputs": [
        {
          "internalType": "address",
          "name": "",
          "type": "address"
        }
      ],
      "stateMutability": "view",
      "type": "function"
    },
    {
      "inputs": [
        {
          "internalType": "address",
          "name": "",
          "type": "address"
        },
        {
          "internalType": "uint256",
          "name": "",
          "type": "uint256"
        }
      ],
      "name": "PharmaTaggedMedicineSubBatchList",
      "outputs": [
        {
          "internalType": "address",
          "name": "",
          "type": "address"
        }
      ],
      "stateMutability": "view",
      "type": "function"
    },
    {
      "inputs": [
        {
          "internalType": "uint256",
          "name": "",
          "type": "uint256"
        }
      ],
      "name": "UserList",
      "outputs": [
        {
          "internalType": "address",
          "name": "userAddress",
          "type": "address"
        },
        {
          "internalType": "string",
          "name": "userName",
          "type": "string"
        },
        {
          "internalType": "string",
          "name": "userLocation",
          "type": "string"
        },
        {
          "internalType": "enum User.roles",
          "name": "userRole",
          "type": "uint8"
        },
        {
          "internalType": "string",
          "name": "userStatus",
          "type": "string"
        },
        {
          "internalType": "bool",
          "name": "isDeleted",
          "type": "bool"
        },
        {
          "internalType": "uint256",
          "name": "registrationDate",
          "type": "uint256"
        }
      ],
      "stateMutability": "view",
      "type": "function"
    },
    {
      "inputs": [
        {
          "internalType": "address",
          "name": "_address",
          "type": "address"
        }
      ],
      "name": "deleteUser",
      "outputs": [],
      "stateMutability": "nonpayable",
      "type": "function"
    },
    {
      "inputs": [],
      "name": "owner",
      "outputs": [
        {
          "internalType": "address",
          "name": "",
          "type": "address"
        }
      ],
      "stateMutability": "view",
      "type": "function"
    },
    {
      "inputs": [
        {
          "internalType": "address",
          "name": "_address",
          "type": "address"
        },
        {
          "internalType": "string",
          "name": "_name",
          "type": "string"
        },
        {
          "internalType": "string",
          "name": "_location",
          "type": "string"
        },
        {
          "internalType": "uint256",
          "name": "_role",
          "type": "uint256"
        },
        {
          "internalType": "string",
          "name": "_userStatus",
          "type": "string"
        }
      ],
      "name": "registerAdmin",
      "outputs": [],
      "stateMutability": "nonpayable",
      "type": "function"
    },
    {
      "inputs": [
        {
          "internalType": "address",
          "name": "_address",
          "type": "address"
        },
        {
          "internalType": "string",
          "name": "_name",
          "type": "string"
        },
        {
          "internalType": "string",
          "name": "_location",
          "type": "string"
        },
        {
          "internalType": "uint256",
          "name": "_role",
          "type": "uint256"
        },
        {
          "internalType": "string",
          "name": "_userStatus",
          "type": "string"
        }
      ],
      "name": "registerUser",
      "outputs": [],
      "stateMutability": "nonpayable",
      "type": "function"
    },
    {
      "inputs": [
        {
          "internalType": "address",
          "name": "_address",
          "type": "address"
        },
        {
          "internalType": "string",
          "name": "_location",
          "type": "string"
        },
        {
          "internalType": "string",
          "name": "_userStatus",
          "type": "string"
        }
      ],
      "name": "updateUser",
      "outputs": [],
      "stateMutability": "nonpayable",
      "type": "function"
    },
    {
      "inputs": [
        {
          "internalType": "address",
          "name": "_materialId",
          "type": "address"
        },
        {
          "internalType": "address",
          "name": "_receiver",
          "type": "address"
        }
      ],
      "name": "loadMaterialPackageForShipment",
      "outputs": [],
      "stateMutability": "nonpayable",
      "type": "function"
    },
    {
      "inputs": [
        {
          "internalType": "address",
          "name": "_materialId",
          "type": "address"
        },
        {
          "internalType": "address",
          "name": "_receiver",
          "type": "address"
        }
      ],
      "name": "deliverShippedMaterialPackage",
      "outputs": [],
      "stateMutability": "nonpayable",
      "type": "function"
    },
    {
      "inputs": [
        {
          "internalType": "address",
          "name": "_medicineId",
          "type": "address"
        },
        {
          "internalType": "address",
          "name": "_receiver",
          "type": "address"
        }
      ],
      "name": "loadMedicineBatchForShipment",
      "outputs": [],
      "stateMutability": "nonpayable",
      "type": "function"
    },
    {
      "inputs": [
        {
          "internalType": "address",
          "name": "_medicineId",
          "type": "address"
        },
        {
          "internalType": "address",
          "name": "_receiver",
          "type": "address"
        }
      ],
      "name": "deliverShippedMedicineBatch",
      "outputs": [],
      "stateMutability": "nonpayable",
      "type": "function"
    },
    {
      "inputs": [
        {
          "internalType": "address",
          "name": "_subContractId",
          "type": "address"
        },
        {
          "internalType": "address",
          "name": "_receiver",
          "type": "address"
        }
      ],
      "name": "loadMedicineSubBatchForShipment",
      "outputs": [],
      "stateMutability": "nonpayable",
      "type": "function"
    },
    {
      "inputs": [
        {
          "internalType": "address",
          "name": "_subContractId",
          "type": "address"
        },
        {
          "internalType": "address",
          "name": "_receiver",
          "type": "address"
        }
      ],
      "name": "deliverShippedMedicineSubBatch",
      "outputs": [],
      "stateMutability": "nonpayable",
      "type": "function"
    }
  ],
  "bytecode": "0x608060405234801561001057600080fd5b50336000806101000a81548173ffffffffffffffffffffffffffffffffffffffff021916908373ffffffffffffffffffffffffffffffffffffffff160217905550613810806100606000396000f3fe608060405234801561001057600080fd5b5060043610610112576000357c010000000000000000000000000000000000000000000000000000000090048063a00453c0116100b4578063d79e53f311610083578063d79e53f31461027b578063e81338b014610297578063f8c241b5146102c7578063fb50d54e146102f757610112565b8063a00453c0146101f1578063a0fe43bb1461020d578063a7d3bd1c14610229578063babe16551461024557610112565b80633bb3ec9e116100f05780633bb3ec9e1461017f5780635c60f2261461019b5780637d34ebc0146101b75780638da5cb5b146101d357610112565b806308db11111461011757806310e8b22d1461014757806324708c0714610163575b600080fd5b610131600480360381019061012c9190612e56565b610313565b60405161013e9190613132565b60405180910390f35b610161600480360381019061015c9190612cfc565b610361565b005b61017d60048036038101906101789190612cbc565b61074b565b005b61019960048036038101906101949190612d87565b610ab4565b005b6101b560048036038101906101b09190612c62565b610f5c565b005b6101d160048036038101906101cc9190612cbc565b6111d7565b005b6101db6114a5565b6040516101e89190613132565b60405180910390f35b61020b60048036038101906102069190612d87565b6114c9565b005b61022760048036038101906102229190612cbc565b611949565b005b610243600480360381019061023e9190612cbc565b611c17565b005b61025f600480360381019061025a9190612f0c565b611e45565b6040516102729796959493929190613199565b60405180910390f35b61029560048036038101906102909190612cbc565b612069565b005b6102b160048036038101906102ac9190612e56565b6123d7565b6040516102be9190613132565b60405180910390f35b6102e160048036038101906102dc9190612e56565b612425565b6040516102ee9190613132565b60405180910390f35b610311600480360381019061030c9190612cbc565b612473565b005b6004602052816000526040600020818154811061032f57600080fd5b906000526020600020016000915091509054906101000a900473ffffffffffffffffffffffffffffffffffffffff1681565b60086009811115610375576103746135a5565b5b600260003373ffffffffffffffffffffffffffffffffffffffff1673ffffffffffffffffffffffffffffffffffffffff16815260200190815260200160002060030160009054906101000a900460ff1660098111156103d7576103d66135a5565b5b14610417576040517f08c379a000000000000000000000000000000000000000000000000000000000815260040161040e906132a4565b60405180910390fd5b8273ffffffffffffffffffffffffffffffffffffffff16600260008573ffffffffffffffffffffffffffffffffffffffff1673ffffffffffffffffffffffffffffffffffffffff16815260200190815260200160002060000160009054906101000a900473ffffffffffffffffffffffffffffffffffffffff1673ffffffffffffffffffffffffffffffffffffffff16146104e7576040517f08c379a00000000000000000000000000000000000000000000000000000000081526004016104de90613284565b60405180910390fd5b60001515600260008573ffffffffffffffffffffffffffffffffffffffff1673ffffffffffffffffffffffffffffffffffffffff16815260200190815260200160002060050160009054906101000a900460ff1615151461057d576040517f08c379a000000000000000000000000000000000000000000000000000000000815260040161057490613324565b60405180910390fd5b81600260008573ffffffffffffffffffffffffffffffffffffffff1673ffffffffffffffffffffffffffffffffffffffff16815260200190815260200160002060020190805190602001906105d39291906129e1565b5080600260008573ffffffffffffffffffffffffffffffffffffffff1673ffffffffffffffffffffffffffffffffffffffff168152602001908152602001600020600401908051906020019061062a9291906129e1565b50600080600090505b6001805490508110156106d0578473ffffffffffffffffffffffffffffffffffffffff166001828154811061066b5761066a613603565b5b906000526020600020906007020160000160009054906101000a900473ffffffffffffffffffffffffffffffffffffffff1673ffffffffffffffffffffffffffffffffffffffff1614156106bd578091505b80806106c89061352d565b915050610633565b5082600182815481106106e6576106e5613603565b5b9060005260206000209060070201600201908051906020019061070a9291906129e1565b5081600182815481106107205761071f613603565b5b906000526020600020906007020160040190805190602001906107449291906129e1565b5050505050565b6002600981111561075f5761075e6135a5565b5b600260003373ffffffffffffffffffffffffffffffffffffffff1673ffffffffffffffffffffffffffffffffffffffff16815260200190815260200160002060030160009054906101000a900460ff1660098111156107c1576107c06135a5565b5b14610801576040517f08c379a00000000000000000000000000000000000000000000000000000000081526004016107f8906132e4565b60405180910390fd5b8173ffffffffffffffffffffffffffffffffffffffff166376b0f79c6040518163ffffffff167c0100000000000000000000000000000000000000000000000000000000028152600401602060405180830381600087803b15801561086557600080fd5b505af1158015610879573d6000803e3d6000fd5b505050506040513d601f19601f8201168201806040525081019061089d9190612edf565b15610ab0577f0515ffef0d17b0546dee378bd947d670e1b693c8e32bbb8860a8268fa810f0fa828373ffffffffffffffffffffffffffffffffffffffff166340019e5d6040518163ffffffff167c010000000000000000000000000000000000000000000000000000000002815260040160206040518083038186803b15801561092657600080fd5b505afa15801561093a573d6000803e3d6000fd5b505050506040513d601f19601f8201168201806040525081019061095e9190612c8f565b8473ffffffffffffffffffffffffffffffffffffffff16631805de3b6040518163ffffffff167c010000000000000000000000000000000000000000000000000000000002815260040160206040518083038186803b1580156109c057600080fd5b505afa1580156109d4573d6000803e3d6000fd5b505050506040513d601f19601f820116820180604052508101906109f89190612f39565b8573ffffffffffffffffffffffffffffffffffffffff166330fa86aa6040518163ffffffff167c010000000000000000000000000000000000000000000000000000000002815260040160006040518083038186803b158015610a5a57600080fd5b505afa158015610a6e573d6000803e3d6000fd5b505050506040513d6000823e3d601f19601f82011682018060405250810190610a979190612e96565b604051610aa7949392919061314d565b60405180910390a15b5050565b60086009811115610ac857610ac76135a5565b5b600260003373ffffffffffffffffffffffffffffffffffffffff1673ffffffffffffffffffffffffffffffffffffffff16815260200190815260200160002060030160009054906101000a900460ff166009811115610b2a57610b296135a5565b5b14610b6a576040517f08c379a0000000000000000000000000000000000000000000000000000000008152600401610b61906132a4565b60405180910390fd5b8473ffffffffffffffffffffffffffffffffffffffff16600260008773ffffffffffffffffffffffffffffffffffffffff1673ffffffffffffffffffffffffffffffffffffffff16815260200190815260200160002060000160009054906101000a900473ffffffffffffffffffffffffffffffffffffffff1673ffffffffffffffffffffffffffffffffffffffff161415610c3b576040517f08c379a0000000000000000000000000000000000000000000000000000000008152600401610c3290613304565b60405180910390fd5b610c43612a67565b85816000019073ffffffffffffffffffffffffffffffffffffffff16908173ffffffffffffffffffffffffffffffffffffffff1681525050848160200181905250838160400181905250826009811115610ca057610c9f6135a5565b5b81606001906009811115610cb757610cb66135a5565b5b90816009811115610ccb57610cca6135a5565b5b8152505081816080018190525060008160a0019015159081151581525050428160c001818152505080600260008873ffffffffffffffffffffffffffffffffffffffff1673ffffffffffffffffffffffffffffffffffffffff16815260200190815260200160002060008201518160000160006101000a81548173ffffffffffffffffffffffffffffffffffffffff021916908373ffffffffffffffffffffffffffffffffffffffff1602179055506020820151816001019080519060200190610d969291906129e1565b506040820151816002019080519060200190610db39291906129e1565b5060608201518160030160006101000a81548160ff02191690836009811115610ddf57610dde6135a5565b5b02179055506080820151816004019080519060200190610e009291906129e1565b5060a08201518160050160006101000a81548160ff02191690831515021790555060c08201518160060155905050600181908060018154018082558091505060019003906000526020600020906007020160009091909190915060008201518160000160006101000a81548173ffffffffffffffffffffffffffffffffffffffff021916908373ffffffffffffffffffffffffffffffffffffffff1602179055506020820151816001019080519060200190610ebd9291906129e1565b506040820151816002019080519060200190610eda9291906129e1565b5060608201518160030160006101000a81548160ff02191690836009811115610f0657610f056135a5565b5b02179055506080820151816004019080519060200190610f279291906129e1565b5060a08201518160050160006101000a81548160ff02191690831515021790555060c082015181600601555050505050505050565b60086009811115610f7057610f6f6135a5565b5b600260003373ffffffffffffffffffffffffffffffffffffffff1673ffffffffffffffffffffffffffffffffffffffff16815260200190815260200160002060030160009054906101000a900460ff166009811115610fd257610fd16135a5565b5b14611012576040517f08c379a0000000000000000000000000000000000000000000000000000000008152600401611009906132a4565b60405180910390fd5b8073ffffffffffffffffffffffffffffffffffffffff16600260008373ffffffffffffffffffffffffffffffffffffffff1673ffffffffffffffffffffffffffffffffffffffff16815260200190815260200160002060000160009054906101000a900473ffffffffffffffffffffffffffffffffffffffff1673ffffffffffffffffffffffffffffffffffffffff16146110e2576040517f08c379a00000000000000000000000000000000000000000000000000000000081526004016110d990613284565b60405180910390fd5b6040518060400160405280600881526020017f496e616374697665000000000000000000000000000000000000000000000000815250600260008373ffffffffffffffffffffffffffffffffffffffff1673ffffffffffffffffffffffffffffffffffffffff168152602001908152602001600020600401908051906020019061116d9291906129e1565b506001600260008373ffffffffffffffffffffffffffffffffffffffff1673ffffffffffffffffffffffffffffffffffffffff16815260200190815260200160002060050160006101000a81548160ff0219169083151502179055506111d481600161287c565b50565b600260098111156111eb576111ea6135a5565b5b600260003373ffffffffffffffffffffffffffffffffffffffff1673ffffffffffffffffffffffffffffffffffffffff16815260200190815260200160002060030160009054906101000a900460ff16600981111561124d5761124c6135a5565b5b1461128d576040517f08c379a0000000000000000000000000000000000000000000000000000000008152600401611284906132e4565b60405180910390fd5b8173ffffffffffffffffffffffffffffffffffffffff16632ea1bb6a6040518163ffffffff167c0100000000000000000000000000000000000000000000000000000000028152600401602060405180830381600087803b1580156112f157600080fd5b505af1158015611305573d6000803e3d6000fd5b505050506040513d601f19601f820116820180604052508101906113299190612edf565b156114a1577fe52a52c7cdb18c60a34d2f308089e55d68f775f47426392377f30f2247923aae828373ffffffffffffffffffffffffffffffffffffffff166373b037db6040518163ffffffff167c010000000000000000000000000000000000000000000000000000000002815260040160206040518083038186803b1580156113b257600080fd5b505afa1580156113c6573d6000803e3d6000fd5b505050506040513d601f19601f820116820180604052508101906113ea9190612f39565b8473ffffffffffffffffffffffffffffffffffffffff1663cd8a5b2e6040518163ffffffff167c010000000000000000000000000000000000000000000000000000000002815260040160006040518083038186803b15801561144c57600080fd5b505afa158015611460573d6000803e3d6000fd5b505050506040513d6000823e3d601f19601f820116820180604052508101906114899190612e96565b60405161149893929190613246565b60405180910390a15b5050565b60008054906101000a900473ffffffffffffffffffffffffffffffffffffffff1681565b60008054906101000a900473ffffffffffffffffffffffffffffffffffffffff1673ffffffffffffffffffffffffffffffffffffffff163373ffffffffffffffffffffffffffffffffffffffff1614611557576040517f08c379a000000000000000000000000000000000000000000000000000000000815260040161154e906132c4565b60405180910390fd5b8473ffffffffffffffffffffffffffffffffffffffff16600260008773ffffffffffffffffffffffffffffffffffffffff1673ffffffffffffffffffffffffffffffffffffffff16815260200190815260200160002060000160009054906101000a900473ffffffffffffffffffffffffffffffffffffffff1673ffffffffffffffffffffffffffffffffffffffff161415611628576040517f08c379a000000000000000000000000000000000000000000000000000000000815260040161161f90613304565b60405180910390fd5b611630612a67565b85816000019073ffffffffffffffffffffffffffffffffffffffff16908173ffffffffffffffffffffffffffffffffffffffff168152505084816020018190525083816040018190525082600981111561168d5761168c6135a5565b5b816060019060098111156116a4576116a36135a5565b5b908160098111156116b8576116b76135a5565b5b8152505081816080018190525060008160a0019015159081151581525050428160c001818152505080600260008873ffffffffffffffffffffffffffffffffffffffff1673ffffffffffffffffffffffffffffffffffffffff16815260200190815260200160002060008201518160000160006101000a81548173ffffffffffffffffffffffffffffffffffffffff021916908373ffffffffffffffffffffffffffffffffffffffff16021790555060208201518160010190805190602001906117839291906129e1565b5060408201518160020190805190602001906117a09291906129e1565b5060608201518160030160006101000a81548160ff021916908360098111156117cc576117cb6135a5565b5b021790555060808201518160040190805190602001906117ed9291906129e1565b5060a08201518160050160006101000a81548160ff02191690831515021790555060c08201518160060155905050600181908060018154018082558091505060019003906000526020600020906007020160009091909190915060008201518160000160006101000a81548173ffffffffffffffffffffffffffffffffffffffff021916908373ffffffffffffffffffffffffffffffffffffffff16021790555060208201518160010190805190602001906118aa9291906129e1565b5060408201518160020190805190602001906118c79291906129e1565b5060608201518160030160006101000a81548160ff021916908360098111156118f3576118f26135a5565b5b021790555060808201518160040190805190602001906119149291906129e1565b5060a08201518160050160006101000a81548160ff02191690831515021790555060c082015181600601555050505050505050565b6002600981111561195d5761195c6135a5565b5b600260003373ffffffffffffffffffffffffffffffffffffffff1673ffffffffffffffffffffffffffffffffffffffff16815260200190815260200160002060030160009054906101000a900460ff1660098111156119bf576119be6135a5565b5b146119ff576040517f08c379a00000000000000000000000000000000000000000000000000000000081526004016119f6906132e4565b60405180910390fd5b8173ffffffffffffffffffffffffffffffffffffffff166321895c596040518163ffffffff167c0100000000000000000000000000000000000000000000000000000000028152600401602060405180830381600087803b158015611a6357600080fd5b505af1158015611a77573d6000803e3d6000fd5b505050506040513d601f19601f82011682018060405250810190611a9b9190612edf565b15611c1357600360008273ffffffffffffffffffffffffffffffffffffffff1673ffffffffffffffffffffffffffffffffffffffff168152602001908152602001600020829080600181540180825580915050600190039060005260206000200160009091909190916101000a81548173ffffffffffffffffffffffffffffffffffffffff021916908373ffffffffffffffffffffffffffffffffffffffff1602179055507f3a5769d5db9b0aca9810faed21e67639d2ce1083ccf817ed0a1b9a0e949b9551828373ffffffffffffffffffffffffffffffffffffffff1663922962996040518163ffffffff167c010000000000000000000000000000000000000000000000000000000002815260040160206040518083038186803b158015611bc457600080fd5b505afa158015611bd8573d6000803e3d6000fd5b505050506040513d601f19601f82011682018060405250810190611bfc9190612f39565b604051611c0a92919061321d565b60405180910390a15b5050565b60026009811115611c2b57611c2a6135a5565b5b600260003373ffffffffffffffffffffffffffffffffffffffff1673ffffffffffffffffffffffffffffffffffffffff16815260200190815260200160002060030160009054906101000a900460ff166009811115611c8d57611c8c6135a5565b5b14611ccd576040517f08c379a0000000000000000000000000000000000000000000000000000000008152600401611cc4906132e4565b60405180910390fd5b8173ffffffffffffffffffffffffffffffffffffffff16630940f4e46040518163ffffffff167c0100000000000000000000000000000000000000000000000000000000028152600401602060405180830381600087803b158015611d3157600080fd5b505af1158015611d45573d6000803e3d6000fd5b505050506040513d601f19601f82011682018060405250810190611d699190612edf565b15611e41577f3a5769d5db9b0aca9810faed21e67639d2ce1083ccf817ed0a1b9a0e949b9551828373ffffffffffffffffffffffffffffffffffffffff1663922962996040518163ffffffff167c010000000000000000000000000000000000000000000000000000000002815260040160206040518083038186803b158015611df257600080fd5b505afa158015611e06573d6000803e3d6000fd5b505050506040513d601f19601f82011682018060405250810190611e2a9190612f39565b604051611e3892919061321d565b60405180910390a15b5050565b60018181548110611e5557600080fd5b90600052602060002090600702016000915090508060000160009054906101000a900473ffffffffffffffffffffffffffffffffffffffff1690806001018054611e9e906134ca565b80601f0160208091040260200160405190810160405280929190818152602001828054611eca906134ca565b8015611f175780601f10611eec57610100808354040283529160200191611f17565b820191906000526020600020905b815481529060010190602001808311611efa57829003601f168201915b505050505090806002018054611f2c906134ca565b80601f0160208091040260200160405190810160405280929190818152602001828054611f58906134ca565b8015611fa55780601f10611f7a57610100808354040283529160200191611fa5565b820191906000526020600020905b815481529060010190602001808311611f8857829003601f168201915b5050505050908060030160009054906101000a900460ff1690806004018054611fcd906134ca565b80601f0160208091040260200160405190810160405280929190818152602001828054611ff9906134ca565b80156120465780601f1061201b57610100808354040283529160200191612046565b820191906000526020600020905b81548152906001019060200180831161202957829003601f168201915b5050505050908060050160009054906101000a900460ff16908060060154905087565b6002600981111561207d5761207c6135a5565b5b600260003373ffffffffffffffffffffffffffffffffffffffff1673ffffffffffffffffffffffffffffffffffffffff16815260200190815260200160002060030160009054906101000a900460ff1660098111156120df576120de6135a5565b5b1461211f576040517f08c379a0000000000000000000000000000000000000000000000000000000008152600401612116906132e4565b60405180910390fd5b8173ffffffffffffffffffffffffffffffffffffffff16636e3726df6040518163ffffffff167c0100000000000000000000000000000000000000000000000000000000028152600401602060405180830381600087803b15801561218357600080fd5b505af1158015612197573d6000803e3d6000fd5b505050506040513d601f19601f820116820180604052508101906121bb9190612edf565b156123d357600460008273ffffffffffffffffffffffffffffffffffffffff1673ffffffffffffffffffffffffffffffffffffffff168152602001908152602001600020829080600181540180825580915050600190039060005260206000200160009091909190916101000a81548173ffffffffffffffffffffffffffffffffffffffff021916908373ffffffffffffffffffffffffffffffffffffffff1602179055507fe52a52c7cdb18c60a34d2f308089e55d68f775f47426392377f30f2247923aae828373ffffffffffffffffffffffffffffffffffffffff166373b037db6040518163ffffffff167c010000000000000000000000000000000000000000000000000000000002815260040160206040518083038186803b1580156122e457600080fd5b505afa1580156122f8573d6000803e3d6000fd5b505050506040513d601f19601f8201168201806040525081019061231c9190612f39565b8473ffffffffffffffffffffffffffffffffffffffff1663cd8a5b2e6040518163ffffffff167c010000000000000000000000000000000000000000000000000000000002815260040160006040518083038186803b15801561237e57600080fd5b505afa158015612392573d6000803e3d6000fd5b505050506040513d6000823e3d601f19601f820116820180604052508101906123bb9190612e96565b6040516123ca93929190613246565b60405180910390a15b5050565b600560205281600052604060002081815481106123f357600080fd5b906000526020600020016000915091509054906101000a900473ffffffffffffffffffffffffffffffffffffffff1681565b6003602052816000526040600020818154811061244157600080fd5b906000526020600020016000915091509054906101000a900473ffffffffffffffffffffffffffffffffffffffff1681565b60026009811115612487576124866135a5565b5b600260003373ffffffffffffffffffffffffffffffffffffffff1673ffffffffffffffffffffffffffffffffffffffff16815260200190815260200160002060030160009054906101000a900460ff1660098111156124e9576124e86135a5565b5b14612529576040517f08c379a0000000000000000000000000000000000000000000000000000000008152600401612520906132e4565b60405180910390fd5b8173ffffffffffffffffffffffffffffffffffffffff166358c3bf796040518163ffffffff167c0100000000000000000000000000000000000000000000000000000000028152600401602060405180830381600087803b15801561258d57600080fd5b505af11580156125a1573d6000803e3d6000fd5b505050506040513d601f19601f820116820180604052508101906125c59190612edf565b1561287857600560008273ffffffffffffffffffffffffffffffffffffffff1673ffffffffffffffffffffffffffffffffffffffff168152602001908152602001600020829080600181540180825580915050600190039060005260206000200160009091909190916101000a81548173ffffffffffffffffffffffffffffffffffffffff021916908373ffffffffffffffffffffffffffffffffffffffff1602179055507f0515ffef0d17b0546dee378bd947d670e1b693c8e32bbb8860a8268fa810f0fa828373ffffffffffffffffffffffffffffffffffffffff166340019e5d6040518163ffffffff167c010000000000000000000000000000000000000000000000000000000002815260040160206040518083038186803b1580156126ee57600080fd5b505afa158015612702573d6000803e3d6000fd5b505050506040513d601f19601f820116820180604052508101906127269190612c8f565b8473ffffffffffffffffffffffffffffffffffffffff16631805de3b6040518163ffffffff167c010000000000000000000000000000000000000000000000000000000002815260040160206040518083038186803b15801561278857600080fd5b505afa15801561279c573d6000803e3d6000fd5b505050506040513d601f19601f820116820180604052508101906127c09190612f39565b8573ffffffffffffffffffffffffffffffffffffffff166330fa86aa6040518163ffffffff167c010000000000000000000000000000000000000000000000000000000002815260040160006040518083038186803b15801561282257600080fd5b505afa158015612836573d6000803e3d6000fd5b505050506040513d6000823e3d601f19601f8201168201806040525081019061285f9190612e96565b60405161286f949392919061314d565b60405180910390a15b5050565b600080600090505b600180549050811015612921578373ffffffffffffffffffffffffffffffffffffffff16600182815481106128bc576128bb613603565b5b906000526020600020906007020160000160009054906101000a900473ffffffffffffffffffffffffffffffffffffffff1673ffffffffffffffffffffffffffffffffffffffff16141561290e578091505b80806129199061352d565b915050612884565b506040518060400160405280600881526020017f496e6163746976650000000000000000000000000000000000000000000000008152506001828154811061296c5761296b613603565b5b906000526020600020906007020160040190805190602001906129909291906129e1565b506001151582151514156129dc5760018082815481106129b3576129b2613603565b5b906000526020600020906007020160050160006101000a81548160ff0219169083151502179055505b505050565b8280546129ed906134ca565b90600052602060002090601f016020900481019282612a0f5760008555612a56565b82601f10612a2857805160ff1916838001178555612a56565b82800160010185558215612a56579182015b82811115612a55578251825591602001919060010190612a3a565b5b509050612a639190612ace565b5090565b6040518060e00160405280600073ffffffffffffffffffffffffffffffffffffffff168152602001606081526020016060815260200160006009811115612ab157612ab06135a5565b5b815260200160608152602001600015158152602001600081525090565b5b80821115612ae7576000816000905550600101612acf565b5090565b6000612afe612af984613369565b613344565b90508083825260208201905082856020860282011115612b2157612b20613666565b5b60005b85811015612b515781612b378882612c4d565b845260208401935060208301925050600181019050612b24565b5050509392505050565b6000612b6e612b6984613395565b613344565b905082815260208101848484011115612b8a57612b8961366b565b5b612b95848285613488565b509392505050565b600081359050612bac81613795565b92915050565b600081519050612bc181613795565b92915050565b600082601f830112612bdc57612bdb613661565b5b8151612bec848260208601612aeb565b91505092915050565b600081519050612c04816137ac565b92915050565b600082601f830112612c1f57612c1e613661565b5b8135612c2f848260208601612b5b565b91505092915050565b600081359050612c47816137c3565b92915050565b600081519050612c5c816137c3565b92915050565b600060208284031215612c7857612c77613675565b5b6000612c8684828501612b9d565b91505092915050565b600060208284031215612ca557612ca4613675565b5b6000612cb384828501612bb2565b91505092915050565b60008060408385031215612cd357612cd2613675565b5b6000612ce185828601612b9d565b9250506020612cf285828601612b9d565b9150509250929050565b600080600060608486031215612d1557612d14613675565b5b6000612d2386828701612b9d565b935050602084013567ffffffffffffffff811115612d4457612d43613670565b5b612d5086828701612c0a565b925050604084013567ffffffffffffffff811115612d7157612d70613670565b5b612d7d86828701612c0a565b9150509250925092565b600080600080600060a08688031215612da357612da2613675565b5b6000612db188828901612b9d565b955050602086013567ffffffffffffffff811115612dd257612dd1613670565b5b612dde88828901612c0a565b945050604086013567ffffffffffffffff811115612dff57612dfe613670565b5b612e0b88828901612c0a565b9350506060612e1c88828901612c38565b925050608086013567ffffffffffffffff811115612e3d57612e3c613670565b5b612e4988828901612c0a565b9150509295509295909350565b60008060408385031215612e6d57612e6c613675565b5b6000612e7b85828601612b9d565b9250506020612e8c85828601612c38565b9150509250929050565b600060208284031215612eac57612eab613675565b5b600082015167ffffffffffffffff811115612eca57612ec9613670565b5b612ed684828501612bc7565b91505092915050565b600060208284031215612ef557612ef4613675565b5b6000612f0384828501612bf5565b91505092915050565b600060208284031215612f2257612f21613675565b5b6000612f3084828501612c38565b91505092915050565b600060208284031215612f4f57612f4e613675565b5b6000612f5d84828501612c4d565b91505092915050565b6000612f728383613114565b60208301905092915050565b612f878161341b565b82525050565b6000612f98826133d6565b612fa281856133f9565b9350612fad836133c6565b8060005b83811015612fde578151612fc58882612f66565b9750612fd0836133ec565b925050600181019050612fb1565b5085935050505092915050565b612ff48161342d565b82525050565b61300381613476565b82525050565b6000613014826133e1565b61301e818561340a565b935061302e818560208601613497565b6130378161367a565b840191505092915050565b600061304f600a8361340a565b915061305a8261368b565b602082019050919050565b600061307260048361340a565b915061307d826136b4565b602082019050919050565b600061309560048361340a565b91506130a0826136dd565b602082019050919050565b60006130b860058361340a565b91506130c382613706565b602082019050919050565b60006130db60098361340a565b91506130e68261372f565b602082019050919050565b60006130fe600b8361340a565b915061310982613758565b602082019050919050565b61311d8161346c565b82525050565b61312c8161346c565b82525050565b60006020820190506131476000830184612f7e565b92915050565b60006080820190506131626000830187612f7e565b61316f6020830186612f7e565b61317c6040830185613123565b818103606083015261318e8184612f8d565b905095945050505050565b600060e0820190506131ae600083018a612f7e565b81810360208301526131c08189613009565b905081810360408301526131d48188613009565b90506131e36060830187612ffa565b81810360808301526131f58186613009565b905061320460a0830185612feb565b61321160c0830184613123565b98975050505050505050565b60006040820190506132326000830185612f7e565b61323f6020830184613123565b9392505050565b600060608201905061325b6000830186612f7e565b6132686020830185613123565b818103604083015261327a8184612f8d565b9050949350505050565b6000602082019050818103600083015261329d81613042565b9050919050565b600060208201905081810360008301526132bd81613065565b9050919050565b600060208201905081810360008301526132dd81613088565b9050919050565b600060208201905081810360008301526132fd816130ab565b9050919050565b6000602082019050818103600083015261331d816130ce565b9050919050565b6000602082019050818103600083015261333d816130f1565b9050919050565b600061334e61335f565b905061335a82826134fc565b919050565b6000604051905090565b600067ffffffffffffffff82111561338457613383613632565b5b602082029050602081019050919050565b600067ffffffffffffffff8211156133b0576133af613632565b5b6133b98261367a565b9050602081019050919050565b6000819050602082019050919050565b600081519050919050565b600081519050919050565b6000602082019050919050565b600082825260208201905092915050565b600082825260208201905092915050565b60006134268261344c565b9050919050565b60008115159050919050565b600081905061344782613781565b919050565b600073ffffffffffffffffffffffffffffffffffffffff82169050919050565b6000819050919050565b600061348182613439565b9050919050565b82818337600083830152505050565b60005b838110156134b557808201518184015260208101905061349a565b838111156134c4576000848401525b50505050565b600060028204905060018216806134e257607f821691505b602082108114156134f6576134f56135d4565b5b50919050565b6135058261367a565b810181811067ffffffffffffffff8211171561352457613523613632565b5b80604052505050565b60006135388261346c565b91507fffffffffffffffffffffffffffffffffffffffffffffffffffffffffffffffff82141561356b5761356a613576565b5b600182019050919050565b7f4e487b7100000000000000000000000000000000000000000000000000000000600052601160045260246000fd5b7f4e487b7100000000000000000000000000000000000000000000000000000000600052602160045260246000fd5b7f4e487b7100000000000000000000000000000000000000000000000000000000600052602260045260246000fd5b7f4e487b7100000000000000000000000000000000000000000000000000000000600052603260045260246000fd5b7f4e487b7100000000000000000000000000000000000000000000000000000000600052604160045260246000fd5b600080fd5b600080fd5b600080fd5b600080fd5b600080fd5b6000601f19601f8301169050919050565b7f5553525f4e545f52454700000000000000000000000000000000000000000000600082015250565b7f4f41434300000000000000000000000000000000000000000000000000000000600082015250565b7f4f57434300000000000000000000000000000000000000000000000000000000600082015250565b7f4f5443432e000000000000000000000000000000000000000000000000000000600082015250565b7f5553525f45584953540000000000000000000000000000000000000000000000600082015250565b7f5553525f44454c45544544000000000000000000000000000000000000000000600082015250565b600a8110613792576137916135a5565b5b50565b61379e8161341b565b81146137a957600080fd5b50565b6137b58161342d565b81146137c057600080fd5b50565b6137cc8161346c565b81146137d757600080fd5b5056fea2646970667358221220fb08d6df6859d377b44c2b201eef1cd7359131c79897dfdf15a78799772ca9d564736f6c63430008070033",
  "immutableReferences": {},
  "source": "// SPDX-License-Identifier: MIT\r\npragma solidity >=0.4.22 <0.9.0;\r\npragma experimental ABIEncoderV2;\r\n\r\nimport \"./User.sol\";\r\n\r\nimport \"./RawMaterials.sol\";\r\n\r\nimport \"./Medicine.sol\";\r\n\r\nimport \"./MedicineDP.sol\";\r\n\r\ncontract Transporter is User {\r\n    mapping(address => address[]) public ManufacturerTaggedMaterialList;\r\n    mapping(address => address[]) public DistributorTaggedMedicineList;\r\n    mapping(address => address[]) public PharmaTaggedMedicineSubBatchList;\r\n\r\n    modifier onlyTransporter {\r\n        require(\r\n            UsersDetails[msg.sender].userRole == roles.transporter,\r\n            \"OTCC.\" //Only Transporter can call this function\r\n        );\r\n        _;\r\n    }\r\n\r\n    event UpdatedMaterialShipmentStatus(\r\n        address materialId,\r\n        uint256 packageStatus\r\n    );\r\n\r\n    event UpdatedMedicineShipmentStatus(\r\n        address medicineId,\r\n        uint256 packageStatus,\r\n        uint256[] transactionBlocks\r\n    );\r\n\r\n    event UpdatedMedicineSubBatchShipmentStatus(\r\n        address medicineSubContract,\r\n        address medicineId,\r\n        uint256 packageStatus,\r\n        uint256[] transactionBlocksDP\r\n    );\r\n\r\n    //Load raw material package from sender & delivered to associated receiver\r\n    function loadMaterialPackageForShipment(\r\n        address _materialId,\r\n        address _receiver\r\n    ) public onlyTransporter {\r\n        if (RawMaterials(_materialId).initiatePackageForShipment()) {\r\n            ManufacturerTaggedMaterialList[_receiver].push(_materialId);\r\n            emit UpdatedMaterialShipmentStatus(\r\n                _materialId,\r\n                RawMaterials(_materialId).getRawMaterialsStatus()\r\n            );\r\n        }\r\n    }\r\n\r\n    //deliver to associated receiver & update status\r\n    function deliverShippedMaterialPackage(\r\n        address _materialId,\r\n        address _receiver\r\n    ) public onlyTransporter {\r\n        if (RawMaterials(_materialId).deliverPackageToReceiver()) {\r\n            emit UpdatedMaterialShipmentStatus(\r\n                _materialId,\r\n                RawMaterials(_materialId).getRawMaterialsStatus()\r\n            );\r\n        }\r\n    }\r\n\r\n    //Load medicine package from sender & delivered to associated receiver\r\n    function loadMedicineBatchForShipment(\r\n        address _medicineId,\r\n        address _receiver\r\n    ) public onlyTransporter {\r\n        if (Medicine(_medicineId).initiateMedicineBatchForShipment()) {\r\n            DistributorTaggedMedicineList[_receiver].push(_medicineId);\r\n            emit UpdatedMedicineShipmentStatus(\r\n                _medicineId,\r\n                Medicine(_medicineId).getMedicineStatus(),\r\n                Medicine(_medicineId).getTransactionBlocks()\r\n            );\r\n        }\r\n    }\r\n\r\n    //deliver to associated receiver & update status\r\n    function deliverShippedMedicineBatch(address _medicineId, address _receiver)\r\n        public\r\n        onlyTransporter\r\n    {\r\n        if (Medicine(_medicineId).deliverMedicineBatchToReceiver()) {\r\n            emit UpdatedMedicineShipmentStatus(\r\n                _medicineId,\r\n                Medicine(_medicineId).getMedicineStatus(),\r\n                Medicine(_medicineId).getTransactionBlocks()\r\n            );\r\n        }\r\n    }\r\n\r\n    //Load medicine package from sender & delivered to associated receiver (Dist-Pharma)\r\n    function loadMedicineSubBatchForShipment(\r\n        address _subContractId,\r\n        address _receiver\r\n    ) public onlyTransporter {\r\n        if (MedicineDP(_subContractId).initiateMedicineSubBatchForShipment()) {\r\n            PharmaTaggedMedicineSubBatchList[_receiver].push(_subContractId);\r\n            emit UpdatedMedicineSubBatchShipmentStatus(\r\n                _subContractId,\r\n                MedicineDP(_subContractId).getMedicineID(),\r\n                MedicineDP(_subContractId).getMedicineSubBatchStatus(),\r\n                MedicineDP(_subContractId).getTransactionBlocksDP()\r\n            );\r\n        }\r\n    }\r\n\r\n    //deliver to associated receiver & update status (Dist-Pharma)\r\n    function deliverShippedMedicineSubBatch(\r\n        address _subContractId,\r\n        address _receiver\r\n    ) public onlyTransporter {\r\n        if (MedicineDP(_subContractId).deliverMedicineSubBatchToReceiver()) {\r\n            emit UpdatedMedicineSubBatchShipmentStatus(\r\n                _subContractId,\r\n                MedicineDP(_subContractId).getMedicineID(),\r\n                MedicineDP(_subContractId).getMedicineSubBatchStatus(),\r\n                MedicineDP(_subContractId).getTransactionBlocksDP()\r\n            );\r\n        }\r\n    }\r\n}\r\n",
  "sourcePath": "C:\\Development\\Blockchain\\Learning-2\\contracts\\Transporter.sol",
  "compiler": {
    "name": "solc",
    "version": "0.8.7+commit.e28d00a7.Emscripten.clang"
  },
  "schemaVersion": "3.4.1",
  "updatedAt": "2021-08-14T11:11:12.392Z",
  "devdoc": {
    "kind": "dev",
    "methods": {},
    "version": 1
  },
  "userdoc": {
    "kind": "user",
    "methods": {},
    "version": 1
  }
}