{
  "contractName": "User",
  "abi": [
    {
      "anonymous": false,
      "inputs": [
        {
          "indexed": true,
          "internalType": "address",
          "name": "UserAddress",
          "type": "address"
        },
        {
          "indexed": false,
          "internalType": "string",
          "name": "Name",
          "type": "string"
        }
      ],
      "name": "UserRegistered",
      "type": "event"
    },
    {
      "anonymous": false,
      "inputs": [
        {
          "indexed": true,
          "internalType": "address",
          "name": "UserAddress",
          "type": "address"
        },
        {
          "indexed": false,
          "internalType": "string",
          "name": "Name",
          "type": "string"
        },
        {
          "indexed": false,
          "internalType": "uint256",
          "name": "Role",
          "type": "uint256"
        }
      ],
      "name": "UserRoleReassigned",
      "type": "event"
    },
    {
      "anonymous": false,
      "inputs": [
        {
          "indexed": true,
          "internalType": "address",
          "name": "UserAddress",
          "type": "address"
        },
        {
          "indexed": false,
          "internalType": "string",
          "name": "Name",
          "type": "string"
        },
        {
          "indexed": false,
          "internalType": "uint256",
          "name": "Role",
          "type": "uint256"
        }
      ],
      "name": "UserRoleRevoked",
      "type": "event"
    },
    {
      "inputs": [
        {
          "internalType": "uint256",
          "name": "",
          "type": "uint256"
        }
      ],
      "name": "UserList",
      "outputs": [
        {
          "internalType": "address",
          "name": "userAddress",
          "type": "address"
        },
        {
          "internalType": "string",
          "name": "userName",
          "type": "string"
        },
        {
          "internalType": "string",
          "name": "userLocation",
          "type": "string"
        },
        {
          "internalType": "enum User.roles",
          "name": "userRole",
          "type": "uint8"
        },
        {
          "internalType": "string",
          "name": "userStatus",
          "type": "string"
        }
      ],
      "stateMutability": "view",
      "type": "function"
    },
    {
      "inputs": [],
      "name": "owner",
      "outputs": [
        {
          "internalType": "address",
          "name": "",
          "type": "address"
        }
      ],
      "stateMutability": "view",
      "type": "function"
    },
    {
      "inputs": [
        {
          "internalType": "address",
          "name": "_address",
          "type": "address"
        },
        {
          "internalType": "string",
          "name": "_name",
          "type": "string"
        },
        {
          "internalType": "string",
          "name": "_location",
          "type": "string"
        },
        {
          "internalType": "uint256",
          "name": "_role",
          "type": "uint256"
        },
        {
          "internalType": "string",
          "name": "_userStatus",
          "type": "string"
        }
      ],
      "name": "registerAdmin",
      "outputs": [],
      "stateMutability": "nonpayable",
      "type": "function"
    },
    {
      "inputs": [
        {
          "internalType": "address",
          "name": "_address",
          "type": "address"
        },
        {
          "internalType": "string",
          "name": "_name",
          "type": "string"
        },
        {
          "internalType": "string",
          "name": "_location",
          "type": "string"
        },
        {
          "internalType": "uint256",
          "name": "_role",
          "type": "uint256"
        },
        {
          "internalType": "string",
          "name": "_userStatus",
          "type": "string"
        }
      ],
      "name": "registerUser",
      "outputs": [],
      "stateMutability": "nonpayable",
      "type": "function"
    },
    {
      "inputs": [
        {
          "internalType": "address",
          "name": "_address",
          "type": "address"
        },
        {
          "internalType": "string",
          "name": "_name",
          "type": "string"
        },
        {
          "internalType": "string",
          "name": "_location",
          "type": "string"
        },
        {
          "internalType": "uint256",
          "name": "_role",
          "type": "uint256"
        },
        {
          "internalType": "string",
          "name": "_userStatus",
          "type": "string"
        }
      ],
      "name": "updateUser",
      "outputs": [],
      "stateMutability": "nonpayable",
      "type": "function"
    },
    {
      "inputs": [
        {
          "internalType": "address",
          "name": "_address",
          "type": "address"
        }
      ],
      "name": "deleteUser",
      "outputs": [],
      "stateMutability": "nonpayable",
      "type": "function"
    },
    {
      "inputs": [
        {
          "internalType": "address",
          "name": "_address",
          "type": "address"
        },
        {
          "internalType": "string",
          "name": "_userName",
          "type": "string"
        }
      ],
      "name": "validateUser",
      "outputs": [
        {
          "components": [
            {
              "internalType": "address",
              "name": "userAddress",
              "type": "address"
            },
            {
              "internalType": "string",
              "name": "userName",
              "type": "string"
            },
            {
              "internalType": "string",
              "name": "userLocation",
              "type": "string"
            },
            {
              "internalType": "enum User.roles",
              "name": "userRole",
              "type": "uint8"
            },
            {
              "internalType": "string",
              "name": "userStatus",
              "type": "string"
            }
          ],
          "internalType": "struct User.UserInfo",
          "name": "",
          "type": "tuple"
        }
      ],
      "stateMutability": "view",
      "type": "function"
    },
    {
      "inputs": [
        {
          "internalType": "address",
          "name": "_address",
          "type": "address"
        }
      ],
      "name": "getUserInfo",
      "outputs": [
        {
          "components": [
            {
              "internalType": "address",
              "name": "userAddress",
              "type": "address"
            },
            {
              "internalType": "string",
              "name": "userName",
              "type": "string"
            },
            {
              "internalType": "string",
              "name": "userLocation",
              "type": "string"
            },
            {
              "internalType": "enum User.roles",
              "name": "userRole",
              "type": "uint8"
            },
            {
              "internalType": "string",
              "name": "userStatus",
              "type": "string"
            }
          ],
          "internalType": "struct User.UserInfo",
          "name": "",
          "type": "tuple"
        }
      ],
      "stateMutability": "view",
      "type": "function"
    },
    {
      "inputs": [],
      "name": "getUsersCount",
      "outputs": [
        {
          "internalType": "uint256",
          "name": "count",
          "type": "uint256"
        }
      ],
      "stateMutability": "view",
      "type": "function"
    },
    {
      "inputs": [
        {
          "internalType": "address",
          "name": "_address",
          "type": "address"
        }
      ],
      "name": "revokeUserRole",
      "outputs": [],
      "stateMutability": "nonpayable",
      "type": "function"
    },
    {
      "inputs": [
        {
          "internalType": "address",
          "name": "_address",
          "type": "address"
        },
        {
          "internalType": "uint256",
          "name": "_role",
          "type": "uint256"
        }
      ],
      "name": "reAssignUserRole",
      "outputs": [],
      "stateMutability": "nonpayable",
      "type": "function"
    },
    {
      "inputs": [],
      "name": "getAllRegisteredUsers",
      "outputs": [
        {
          "components": [
            {
              "internalType": "address",
              "name": "userAddress",
              "type": "address"
            },
            {
              "internalType": "string",
              "name": "userName",
              "type": "string"
            },
            {
              "internalType": "string",
              "name": "userLocation",
              "type": "string"
            },
            {
              "internalType": "enum User.roles",
              "name": "userRole",
              "type": "uint8"
            },
            {
              "internalType": "string",
              "name": "userStatus",
              "type": "string"
            }
          ],
          "internalType": "struct User.UserInfo[]",
          "name": "",
          "type": "tuple[]"
        }
      ],
      "stateMutability": "view",
      "type": "function"
    },
    {
      "inputs": [
        {
          "internalType": "address",
          "name": "_address",
          "type": "address"
        }
      ],
      "name": "findAndDeactivateUser",
      "outputs": [],
      "stateMutability": "nonpayable",
      "type": "function"
    }
  ],
  "bytecode": "0x608060405234801561001057600080fd5b5060008054600160a060020a03191633179055611c71806100326000396000f3fe608060405234801561001057600080fd5b50600436106100b25760e060020a6000350463397388af81146100b75780633bb3ec9e146100d557806345f5b55f146100ea5780635c60f226146100fd5780636386c1c7146101105780636ab5d88c146101305780638da5cb5b14610143578063a00453c01461016e578063a4a1e26314610181578063babe165514610192578063bd73b25d146101b6578063e2994767146101c9578063eaa2f67f146101dc575b600080fd5b6100bf6101ef565b6040516100cc9190611a70565b60405180910390f35b6100e86100e336600461179f565b61049f565b005b6100e86100f8366004611841565b6107c2565b6100e861010b366004611737565b6109a4565b61012361011e366004611737565b610a85565b6040516100cc9190611b4e565b6100e861013e36600461179f565b610cb0565b60005461015690600160a060020a031681565b604051600160a060020a0390911681526020016100cc565b6100e861017c36600461179f565b610f9d565b6003546040519081526020016100cc565b6101a56101a036600461186b565b610fe6565b6040516100cc959493929190611a0d565b6100e86101c4366004611737565b6111d3565b6100e86101d7366004611737565b61137c565b6101236101ea366004611752565b61143e565b606060083360009081526002602052604090206003015460ff16600881111561021a5761021a611bcd565b146102435760405160e560020a62461bcd02815260040161023a90611b2d565b60405180910390fd5b6001805480602002602001604051908101604052809291908181526020016000905b828210156104965760008481526020908190206040805160a08101909152600585029091018054600160a060020a0316825260018101805492939192918401916102ae90611b61565b80601f01602080910402602001604051908101604052809291908181526020018280546102da90611b61565b80156103275780601f106102fc57610100808354040283529160200191610327565b820191906000526020600020905b81548152906001019060200180831161030a57829003601f168201915b5050505050815260200160028201805461034090611b61565b80601f016020809104026020016040519081016040528092919081815260200182805461036c90611b61565b80156103b95780601f1061038e576101008083540402835291602001916103b9565b820191906000526020600020905b81548152906001019060200180831161039c57829003601f168201915b5050509183525050600382015460209091019060ff1660088111156103e0576103e0611bcd565b60088111156103f1576103f1611bcd565b815260200160048201805461040590611b61565b80601f016020809104026020016040519081016040528092919081815260200182805461043190611b61565b801561047e5780601f106104535761010080835404028352916020019161047e565b820191906000526020600020905b81548152906001019060200180831161046157829003601f168201915b50505050508152505081526020019060010190610265565b50505050905090565b60083360009081526002602052604090206003015460ff1660088111156104c8576104c8611bcd565b146104e85760405160e560020a62461bcd02815260040161023a90611b2d565b600160a060020a0380861660008181526002602052604090205490911614156105455760405160e560020a62461bcd028152602060048201526009602482015260ba60020a681554d497d1561254d502604482015260640161023a565b61054d6115ad565b600160a060020a0386168152602081018590526040810184905282600881111561057957610579611bcd565b8160600190600881111561058f5761058f611bcd565b908160088111156105a2576105a2611bcd565b90525060808101829052600160a060020a03868116600090815260026020908152604090912083518154600160a060020a03191693169290921782558083015180518493926105f89260018501929101906115f6565b50604082015180516106149160028401916020909101906115f6565b50606082015160038201805460ff1916600183600881111561063857610638611bcd565b0217905550608082015180516106589160048401916020909101906115f6565b505081516003805460018082019092557fc2575a0e9e593c00f959f8c92f12db2869c3395a3b0502d05e2516446f71f85b018054600160a060020a0319908116600160a060020a03948516179091558154808301835560009290925284517fb10e2d527612073b26eecdfd717e6a320cf44b4afac2b0732d9fcbe2b7fa0cf66005909302928301805490921693169290921782556020808501518051869550610728937fb10e2d527612073b26eecdfd717e6a320cf44b4afac2b0732d9fcbe2b7fa0cf7019291909101906115f6565b50604082015180516107449160028401916020909101906115f6565b50606082015160038201805460ff1916600183600881111561076857610768611bcd565b0217905550608082015180516107889160048401916020909101906115f6565b50505085600160a060020a0316600080516020611c1c833981519152866040516107b29190611ad1565b60405180910390a2505050505050565b60083360009081526002602052604090206003015460ff1660088111156107eb576107eb611bcd565b1461080b5760405160e560020a62461bcd02815260040161023a90611b2d565b600160a060020a03808316600081815260026020526040902054909116146108485760405160e560020a62461bcd02815260040161023a90611b06565b600061085383610a85565b905081600881111561086757610867611bcd565b8160600190600881111561087d5761087d611bcd565b9081600881111561089057610890611bcd565b905250600160a060020a03838116600090815260026020908152604090912083518154600160a060020a03191693169290921782558281015180518493926108df9260018501929101906115f6565b50604082015180516108fb9160028401916020909101906115f6565b50606082015160038201805460ff1916600183600881111561091f5761091f611bcd565b02179055506080820151805161093f9160048401916020909101906115f6565b5090505082600160a060020a03167f5a2f045370e4381799dd282fd5f3a534028572dc56a8e9ff1f6184b575e584ef82602001518360600151600881111561098957610989611bcd565b604051610997929190611ae4565b60405180910390a2505050565b60083360009081526002602052604090206003015460ff1660088111156109cd576109cd611bcd565b146109ed5760405160e560020a62461bcd02815260040161023a90611b2d565b600160a060020a0380821660008181526002602052604090205490911614610a2a5760405160e560020a62461bcd02815260040161023a90611b06565b6040805180820182526008815260c060020a67496e616374697665026020808301918252600160a060020a03851660009081526002909152929092209051610a7892600490920191906115f6565b50610a828161137c565b50565b610a8d6115ad565b600160a060020a03808316600090815260026020908152604091829020825160a081019093528054909316825260018301805492939291840191610ad090611b61565b80601f0160208091040260200160405190810160405280929190818152602001828054610afc90611b61565b8015610b495780601f10610b1e57610100808354040283529160200191610b49565b820191906000526020600020905b815481529060010190602001808311610b2c57829003601f168201915b50505050508152602001600282018054610b6290611b61565b80601f0160208091040260200160405190810160405280929190818152602001828054610b8e90611b61565b8015610bdb5780601f10610bb057610100808354040283529160200191610bdb565b820191906000526020600020905b815481529060010190602001808311610bbe57829003601f168201915b5050509183525050600382015460209091019060ff166008811115610c0257610c02611bcd565b6008811115610c1357610c13611bcd565b8152602001600482018054610c2790611b61565b80601f0160208091040260200160405190810160405280929190818152602001828054610c5390611b61565b8015610ca05780601f10610c7557610100808354040283529160200191610ca0565b820191906000526020600020905b815481529060010190602001808311610c8357829003601f168201915b5050505050815250509050919050565b60083360009081526002602052604090206003015460ff166008811115610cd957610cd9611bcd565b14610cf95760405160e560020a62461bcd02815260040161023a90611b2d565b600160a060020a0380861660008181526002602052604090205490911614610d365760405160e560020a62461bcd02815260040161023a90611b06565b600160a060020a03851660009081526002602090815260409091208551610d65926001909201918701906115f6565b50600160a060020a03851660009081526002602081815260409092208551610d95939190920191908601906115f6565b50816008811115610da857610da8611bcd565b600160a060020a0386166000908152600260205260409020600301805460ff19166001836008811115610ddd57610ddd611bcd565b0217905550600160a060020a03851660009081526002602090815260409091208251610e11926004909201918401906115f6565b506000805b600154811015610e735786600160a060020a031660018281548110610e3d57610e3d611be7565b6000918252602090912060059091020154600160a060020a03161415610e61578091505b80610e6b81611ba0565b915050610e16565b508460018281548110610e8857610e88611be7565b90600052602060002090600502016001019080519060200190610eac9291906115f6565b508360018281548110610ec157610ec1611be7565b90600052602060002090600502016002019080519060200190610ee59291906115f6565b50826008811115610ef857610ef8611bcd565b60018281548110610f0b57610f0b611be7565b60009182526020909120600360059092020101805460ff19166001836008811115610f3857610f38611bcd565b02179055508160018281548110610f5157610f51611be7565b90600052602060002090600502016004019080519060200190610f759291906115f6565b5085600160a060020a0316600080516020611c1c833981519152866040516107b29190611ad1565b600054600160a060020a031633146104e85760405160e560020a62461bcd02815260040161023a90602080825260049082015260e060020a634f57434302604082015260600190565b60018181548110610ff657600080fd5b600091825260209091206005909102018054600182018054600160a060020a0390921693509061102590611b61565b80601f016020809104026020016040519081016040528092919081815260200182805461105190611b61565b801561109e5780601f106110735761010080835404028352916020019161109e565b820191906000526020600020905b81548152906001019060200180831161108157829003601f168201915b5050505050908060020180546110b390611b61565b80601f01602080910402602001604051908101604052809291908181526020018280546110df90611b61565b801561112c5780601f106111015761010080835404028352916020019161112c565b820191906000526020600020905b81548152906001019060200180831161110f57829003601f168201915b5050506003840154600485018054949560ff90921694919350915061115090611b61565b80601f016020809104026020016040519081016040528092919081815260200182805461117c90611b61565b80156111c95780601f1061119e576101008083540402835291602001916111c9565b820191906000526020600020905b8154815290600101906020018083116111ac57829003601f168201915b5050505050905085565b60083360009081526002602052604090206003015460ff1660088111156111fc576111fc611bcd565b1461121c5760405160e560020a62461bcd02815260040161023a90611b2d565b600160a060020a03808216600081815260026020526040902054909116146112595760405160e560020a62461bcd02815260040161023a90611b06565b600061126482610a85565b60076060820152600160a060020a03838116600090815260026020908152604090912083518154600160a060020a031916931692909217825580830151805193945084936112b892600185019201906115f6565b50604082015180516112d49160028401916020909101906115f6565b50606082015160038201805460ff191660018360088111156112f8576112f8611bcd565b0217905550608082015180516113189160048401916020909101906115f6565b5090505081600160a060020a03167f18a4c0aa2d0b9e55cfd3c133652630cc693f845135ba74f56f45c8d38910ce5c82602001518360600151600881111561136257611362611bcd565b604051611370929190611ae4565b60405180910390a25050565b6000805b6001548110156113dd5782600160a060020a0316600182815481106113a7576113a7611be7565b6000918252602090912060059091020154600160a060020a031614156113cb578091505b806113d581611ba0565b915050611380565b5060405180604001604052806008815260200160c060020a67496e616374697665028152506001828154811061141557611415611be7565b906000526020600020906005020160040190805190602001906114399291906115f6565b505050565b6114466115ad565b600160a060020a03808416600081815260026020526040902054909116146114835760405160e560020a62461bcd02815260040161023a90611b06565b81805190602001206002600085600160a060020a0316600160a060020a031681526020019081526020016000206001016040516114c0919061196e565b6040518091039020146114e85760405160e560020a62461bcd02815260040161023a90611b06565b6040805180820182526006815260d060020a6541637469766502602091820152600160a060020a0385166000908152600290915281902090517ff07b88471cd28dc438f2291190512bd968fbd79b8c86b9ed015e51c1261d911f916115529160049091019061196e565b60405180910390201461159d5760405160e560020a62461bcd02815260206004820152600d6024820152609860020a6c5553525f4e545f41435449564502604482015260640161023a565b6115a683610a85565b9392505050565b6040518060a001604052806000600160a060020a031681526020016060815260200160608152602001600060088111156115e9576115e9611bcd565b8152602001606081525090565b82805461160290611b61565b90600052602060002090601f016020900481019282611624576000855561166a565b82601f1061163d57805160ff191683800117855561166a565b8280016001018555821561166a579182015b8281111561166a57825182559160200191906001019061164f565b5061167692915061167a565b5090565b5b80821115611676576000815560010161167b565b8035600160a060020a03811681146116a657600080fd5b919050565b600082601f8301126116bc57600080fd5b81356001604060020a03808211156116d6576116d6611c01565b604051601f8301601f19908116603f011681019082821181831017156116fe576116fe611c01565b8160405283815286602085880101111561171757600080fd5b836020870160208301376000602085830101528094505050505092915050565b60006020828403121561174957600080fd5b6115a68261168f565b6000806040838503121561176557600080fd5b61176e8361168f565b915060208301356001604060020a0381111561178957600080fd5b611795858286016116ab565b9150509250929050565b600080600080600060a086880312156117b757600080fd5b6117c08661168f565b945060208601356001604060020a03808211156117dc57600080fd5b6117e889838a016116ab565b955060408801359150808211156117fe57600080fd5b61180a89838a016116ab565b945060608801359350608088013591508082111561182757600080fd5b50611834888289016116ab565b9150509295509295909350565b6000806040838503121561185457600080fd5b61185d8361168f565b946020939093013593505050565b60006020828403121561187d57600080fd5b5035919050565b600981106118a65760e060020a634e487b710260009081526021600452602490fd5b9052565b6000815180845260005b818110156118d0576020818501810151868301820152016118b4565b818111156118e2576000602083870101525b50601f01601f19169290920160200192915050565b600160a060020a0381511682526000602082015160a0602085015261191f60a08501826118aa565b90506040830151848203604086015261193882826118aa565b915050606083015161194d6060860182611884565b506080830151848203608086015261196582826118aa565b95945050505050565b815460009081906002810460018083168061198a57607f831692505b60208084108214156119ad5760e060020a634e487b710286526022600452602486fd5b8180156119c157600181146119d2576119ff565b60ff198616895284890196506119ff565b60008a81526020902060005b868110156119f75781548b8201529085019083016119de565b505084890196505b509498975050505050505050565b600160a060020a038616815260a060208201819052600090611a31908301876118aa565b8281036040840152611a4381876118aa565b9050611a526060840186611884565b8281036080840152611a6481856118aa565b98975050505050505050565b600060208083018184528085518083526040860191506040848202870101925083870160005b82811015611ac457603f19888603018452611ab28583516118f7565b94509285019290850190600101611a96565b5092979650505050505050565b6020815260006115a660208301846118aa565b604081526000611af760408301856118aa565b90508260208301529392505050565b6020808252600a9082015260b060020a695553525f4e545f52454702604082015260600190565b602080825260049082015260e060020a634f41434302604082015260600190565b6020815260006115a660208301846118f7565b600281046001821680611b7557607f821691505b60208210811415611b9a5760e060020a634e487b710260009081526022600452602490fd5b50919050565b6000600019821415611bc65760e060020a634e487b710260009081526011600452602490fd5b5060010190565b60e060020a634e487b710260009081526021600452602490fd5b60e060020a634e487b710260009081526032600452602490fd5b60e060020a634e487b710260009081526041600452602490fdfe48cac28ad4dc618e15f4c2dd5e97751182f166de97b25618318b2112aa951a2fa26469706673582212202e8fdc113fdd333366934010dcc06b740d108d49c02dc79bd44a1a7c4911db6664736f6c63430008060033",
  "immutableReferences": {},
  "source": "// SPDX-License-Identifier: MIT\r\npragma solidity >=0.4.22 <0.9.0;\r\npragma experimental ABIEncoderV2;\r\nimport \"./Owner.sol\";\r\n\r\ncontract User is Owner {\r\n    enum roles {\r\n        norole,\r\n        supplier,\r\n        transporter,\r\n        manufacturer,\r\n        wholesaler,\r\n        distributor,\r\n        pharma,\r\n        revoke,\r\n        admin\r\n    }\r\n\r\n    modifier onlyAdmin {\r\n        require(UsersDetails[msg.sender].userRole == roles.admin, \"OACC\"); //\"Only Admin can call this function.\"\r\n        _;\r\n    }\r\n\r\n    //Register event for user registration\r\n    event UserRegistered(address indexed UserAddress, string Name);\r\n    //Register event for user role revokation\r\n    event UserRoleRevoked(\r\n        address indexed UserAddress,\r\n        string Name,\r\n        uint256 Role\r\n    ); // Revisit & update with role as a string\r\n    //Register event for user role re-assignment\r\n    event UserRoleReassigned(\r\n        address indexed UserAddress,\r\n        string Name,\r\n        uint256 Role\r\n    ); // Revisit & update with role as a string\r\n\r\n    //User struct with members\r\n    struct UserInfo {\r\n        address userAddress;\r\n        string userName;\r\n        string userLocation;\r\n        roles userRole;\r\n        string userStatus;\r\n    }\r\n\r\n    // UserInfo struct array to hold list of registered user\r\n    UserInfo[] public UserList;\r\n\r\n    //Map user with address\r\n    mapping(address => UserInfo) UsersDetails;\r\n\r\n    //Store registered user address\r\n    address[] Users;\r\n\r\n    // Register Admin by Owner who deployed contract\r\n    // @param _address User Address\r\n    // @param _name User name\r\n    // @param _location User Location\r\n    // @param _role User Role\r\n    function registerAdmin(\r\n        address _address,\r\n        string memory _name,\r\n        string memory _location,\r\n        uint256 _role,\r\n        string memory _userStatus\r\n    ) public onlyOwner {\r\n        require(UsersDetails[_address].userAddress != _address, \"USR_EXIST\");\r\n        //Create & Populate User object with request params\r\n        UserInfo memory newUser;\r\n        newUser.userAddress = _address;\r\n        newUser.userName = _name;\r\n        newUser.userLocation = _location;\r\n        newUser.userRole = roles(_role);\r\n        newUser.userStatus = _userStatus;\r\n        UsersDetails[_address] = newUser;\r\n        //Push new user address to Users array\r\n        Users.push(newUser.userAddress);\r\n        //push user into array\r\n        UserList.push(newUser);\r\n        //Emit user registered event after user creation\r\n        emit UserRegistered(_address, _name);\r\n    }\r\n\r\n    // Register New user by Owner/Admin\r\n    // @param _address User Address\r\n    // @param _name User name\r\n    // @param _location User Location\r\n    // @param _role User Role\r\n    function registerUser(\r\n        address _address,\r\n        string memory _name,\r\n        string memory _location,\r\n        uint256 _role,\r\n        string memory _userStatus\r\n    ) public onlyAdmin {\r\n        require(UsersDetails[_address].userAddress != _address, \"USR_EXIST\");\r\n        //Create & Populate User object with request params\r\n        UserInfo memory newUser;\r\n        newUser.userAddress = _address;\r\n        newUser.userName = _name;\r\n        newUser.userLocation = _location;\r\n        newUser.userRole = roles(_role);\r\n        newUser.userStatus = _userStatus;\r\n        UsersDetails[_address] = newUser;\r\n        //Push new user address to Users array\r\n        Users.push(newUser.userAddress);\r\n        //push user into array\r\n        UserList.push(newUser);\r\n        // //Emit user registered event after user creation\r\n        emit UserRegistered(_address, _name);\r\n    }\r\n\r\n    // Update user by Owner/Admin\r\n    // @param _address User Address\r\n    // @param _name User name\r\n    // @param _location User Location\r\n    // @param _role User Role\r\n    function updateUser(\r\n        address _address,\r\n        string memory _name,\r\n        string memory _location,\r\n        uint256 _role,\r\n        string memory _userStatus\r\n    ) public onlyAdmin {\r\n        require(UsersDetails[_address].userAddress == _address, \"USR_NT_REG\"); //User not registered\r\n        //Update User object with request params\r\n        UsersDetails[_address].userName = _name;\r\n        UsersDetails[_address].userLocation = _location;\r\n        UsersDetails[_address].userRole = roles(_role);\r\n        UsersDetails[_address].userStatus = _userStatus;\r\n        uint256 userToUpdateIndex;\r\n        for (uint256 i = 0; i < UserList.length; i++) {\r\n            if (UserList[i].userAddress == _address) {\r\n                userToUpdateIndex = i;\r\n            }\r\n        }\r\n        UserList[userToUpdateIndex].userName = _name;\r\n        UserList[userToUpdateIndex].userLocation = _location;\r\n        UserList[userToUpdateIndex].userRole = roles(_role);\r\n        UserList[userToUpdateIndex].userStatus = _userStatus;\r\n        emit UserRegistered(_address, _name);\r\n    }\r\n\r\n    function deleteUser(address _address) public onlyAdmin {\r\n        require(UsersDetails[_address].userAddress == _address, \"USR_NT_REG\"); //User not registered\r\n        //soft delete user from blockchain\r\n        UsersDetails[_address].userStatus = \"Inactive\";\r\n        findAndDeactivateUser(_address);\r\n    }\r\n\r\n    // Validate user based on address & username\r\n    // @param _address User Address\r\n    // @param _userName User Name\r\n    function validateUser(address _address, string memory _userName)\r\n        public\r\n        view\r\n        returns (UserInfo memory)\r\n    {\r\n        require(UsersDetails[_address].userAddress == _address, \"USR_NT_REG\"); //User not registered\r\n        require(\r\n            keccak256(bytes(UsersDetails[_address].userName)) ==\r\n                keccak256(bytes(_userName)),\r\n            \"USR_NT_REG\"\r\n        ); //User not registered\r\n        require(\r\n            keccak256(bytes(UsersDetails[_address].userStatus)) ==\r\n                keccak256(bytes(\"Active\")),\r\n            \"USR_NT_ACTIVE\"\r\n        ); //User not active\r\n\r\n        return getUserInfo(_address);\r\n    }\r\n\r\n    // Retrieve User information based on address\r\n    // @param _address User Address\r\n    function getUserInfo(address _address)\r\n        public\r\n        view\r\n        returns (UserInfo memory)\r\n    {\r\n        return UsersDetails[_address];\r\n    }\r\n\r\n    // Retrieve Number of regsitered Users count\r\n    function getUsersCount() public view returns (uint256 count) {\r\n        return Users.length;\r\n    }\r\n\r\n    // Revoke user role based on address & emit event. Only admin can call this method\r\n    // @param _address User Address\r\n    function revokeUserRole(address _address) public onlyAdmin {\r\n        require(UsersDetails[_address].userAddress == _address, \"USR_NT_REG\"); //User not registered\r\n        UserInfo memory userInfo = getUserInfo(_address);\r\n        userInfo.userRole = roles(7);\r\n        UsersDetails[_address] = userInfo;\r\n        //Emit user role revoked event after revoke operation\r\n        emit UserRoleRevoked(\r\n            _address,\r\n            userInfo.userName,\r\n            uint256(userInfo.userRole)\r\n        );\r\n    }\r\n\r\n    // Re-Assign user role & emit event with updated user details. Only admin can call this method\r\n    // @param _address User Address\r\n    // @param _role User Role\r\n    function reAssignUserRole(address _address, uint256 _role)\r\n        public\r\n        onlyAdmin\r\n    {\r\n        require(UsersDetails[_address].userAddress == _address, \"USR_NT_REG\"); //User not registered\r\n        UserInfo memory userInfo = getUserInfo(_address);\r\n        userInfo.userRole = roles(_role);\r\n        UsersDetails[_address] = userInfo;\r\n        //Emit user role re-assign event after role update operation\r\n        emit UserRoleReassigned(\r\n            _address,\r\n            userInfo.userName,\r\n            uint256(userInfo.userRole)\r\n        );\r\n    }\r\n\r\n    //Function to retrieve all the registered users\r\n    //Visibility - Public\r\n    //Return type - list of user\r\n    function getAllRegisteredUsers()\r\n        public\r\n        view\r\n        onlyAdmin\r\n        returns (UserInfo[] memory)\r\n    {\r\n        // UserInfo[] activeUsers;\r\n        // for (uint256 i = 0; i < UserList.length; i++) {\r\n        //     if ( keccak256(bytes(UserList[i].userStatus)) ==\r\n        //         keccak256(bytes(\"active\")) {\r\n        //         activeUsers.push(i);\r\n        //     }\r\n        // }\r\n        return UserList;\r\n    }\r\n\r\n    //Function to find user and delete based on address\r\n    // Visibility - Public and payable\r\n    function findAndDeactivateUser(address _address) public{\r\n        uint256 userToDeleteIndex;\r\n        //Find the index of user to be deleted\r\n        for (uint256 i = 0; i < UserList.length; i++) {\r\n            if (UserList[i].userAddress == _address) {\r\n                userToDeleteIndex = i;\r\n            }\r\n        }\r\n        UserList[userToDeleteIndex].userStatus = \"Inactive\";\r\n    }\r\n}\r\n",
  "sourcePath": "C:\\Development\\Blockchain\\Learning-2\\contracts\\User.sol",
  "compiler": {
    "name": "solc",
    "version": "0.8.6+commit.11564f7e.Emscripten.clang"
  },
  "schemaVersion": "3.4.1",
  "updatedAt": "2021-07-07T13:26:47.845Z",
  "devdoc": {
    "kind": "dev",
    "methods": {},
    "version": 1
  },
  "userdoc": {
    "kind": "user",
    "methods": {},
    "version": 1
  }
}