{
  "contractName": "User",
  "abi": [
    {
      "inputs": [
        {
          "internalType": "uint256",
          "name": "",
          "type": "uint256"
        }
      ],
      "name": "UserList",
      "outputs": [
        {
          "internalType": "address",
          "name": "userAddress",
          "type": "address"
        },
        {
          "internalType": "string",
          "name": "userName",
          "type": "string"
        },
        {
          "internalType": "string",
          "name": "userLocation",
          "type": "string"
        },
        {
          "internalType": "enum User.roles",
          "name": "userRole",
          "type": "uint8"
        },
        {
          "internalType": "string",
          "name": "userStatus",
          "type": "string"
        },
        {
          "internalType": "bool",
          "name": "isDeleted",
          "type": "bool"
        }
      ],
      "stateMutability": "view",
      "type": "function"
    },
    {
      "inputs": [],
      "name": "owner",
      "outputs": [
        {
          "internalType": "address",
          "name": "",
          "type": "address"
        }
      ],
      "stateMutability": "view",
      "type": "function"
    },
    {
      "inputs": [
        {
          "internalType": "address",
          "name": "_address",
          "type": "address"
        },
        {
          "internalType": "string",
          "name": "_name",
          "type": "string"
        },
        {
          "internalType": "string",
          "name": "_location",
          "type": "string"
        },
        {
          "internalType": "uint256",
          "name": "_role",
          "type": "uint256"
        },
        {
          "internalType": "string",
          "name": "_userStatus",
          "type": "string"
        }
      ],
      "name": "registerAdmin",
      "outputs": [],
      "stateMutability": "nonpayable",
      "type": "function"
    },
    {
      "inputs": [
        {
          "internalType": "address",
          "name": "_address",
          "type": "address"
        },
        {
          "internalType": "string",
          "name": "_name",
          "type": "string"
        },
        {
          "internalType": "string",
          "name": "_location",
          "type": "string"
        },
        {
          "internalType": "uint256",
          "name": "_role",
          "type": "uint256"
        },
        {
          "internalType": "string",
          "name": "_userStatus",
          "type": "string"
        }
      ],
      "name": "registerUser",
      "outputs": [],
      "stateMutability": "nonpayable",
      "type": "function"
    },
    {
      "inputs": [
        {
          "internalType": "address",
          "name": "_address",
          "type": "address"
        },
        {
          "internalType": "string",
          "name": "_location",
          "type": "string"
        },
        {
          "internalType": "string",
          "name": "_userStatus",
          "type": "string"
        }
      ],
      "name": "updateUser",
      "outputs": [],
      "stateMutability": "nonpayable",
      "type": "function"
    },
    {
      "inputs": [
        {
          "internalType": "address",
          "name": "_address",
          "type": "address"
        }
      ],
      "name": "deleteUser",
      "outputs": [],
      "stateMutability": "nonpayable",
      "type": "function"
    }
  ],
  "bytecode": "0x608060405234801561001057600080fd5b5060008054600160a060020a0319163317905561103a806100326000396000f3fe608060405234801561001057600080fd5b506004361061007e577c0100000000000000000000000000000000000000000000000000000000600035046310e8b22d81146100835780633bb3ec9e146100985780635c60f226146100ab5780638da5cb5b146100be578063a00453c0146100ee578063babe165514610101575b600080fd5b610096610091366004610d16565b610126565b005b6100966100a6366004610d8a565b61038e565b6100966100b9366004610cf4565b6106a8565b6000546100d190600160a060020a031681565b604051600160a060020a0390911681526020015b60405180910390f35b6100966100fc366004610d8a565b6107f6565b61011461010f366004610e2d565b610855565b6040516100e596959493929190610e93565b60083360009081526002602052604090206003015460ff16600881111561014f5761014f610fb9565b146101785760405160e560020a62461bcd02815260040161016f90610f18565b60405180910390fd5b600160a060020a03808416600081815260026020526040902054909116146101e55760405160e560020a62461bcd02815260206004820152600a60248201527f5553525f4e545f52454700000000000000000000000000000000000000000000604482015260640161016f565b600160a060020a03831660009081526002602052604090206005015460ff16156102545760405160e560020a62461bcd02815260206004820152600b60248201527f5553525f44454c45544544000000000000000000000000000000000000000000604482015260640161016f565b600160a060020a0383166000908152600260208181526040909220845161028393919092019190850190610b62565b50600160a060020a038316600090815260026020908152604090912082516102b392600490920191840190610b62565b506000805b6001548110156103155784600160a060020a0316600182815481106102df576102df610fd2565b6000918252602090912060069091020154600160a060020a03161415610303578091505b8061030d81610f8d565b9150506102b8565b50826001828154811061032a5761032a610fd2565b9060005260206000209060060201600201908051906020019061034e929190610b62565b50816001828154811061036357610363610fd2565b90600052602060002090600602016004019080519060200190610387929190610b62565b5050505050565b60083360009081526002602052604090206003015460ff1660088111156103b7576103b7610fb9565b146103d75760405160e560020a62461bcd02815260040161016f90610f18565b600160a060020a0380861660008181526002602052604090205490911614156104455760405160e560020a62461bcd02815260206004820152600960248201527f5553525f45584953540000000000000000000000000000000000000000000000604482015260640161016f565b61044d610be6565b600160a060020a0386168152602081018590526040810184905282600881111561047957610479610fb9565b8160600190600881111561048f5761048f610fb9565b908160088111156104a2576104a2610fb9565b90525060808101829052600060a08201819052600160a060020a0387811682526002602090815260409092208351815473ffffffffffffffffffffffffffffffffffffffff19169216919091178155818301518051849361050a926001850192910190610b62565b5060408201518051610526916002840191602090910190610b62565b50606082015160038201805460ff1916600183600881111561054a5761054a610fb9565b02179055506080820151805161056a916004840191602090910190610b62565b5060a091909101516005909101805460ff191691151591909117905560018054808201825560009190915281517fb10e2d527612073b26eecdfd717e6a320cf44b4afac2b0732d9fcbe2b7fa0cf66006909202918201805473ffffffffffffffffffffffffffffffffffffffff1916600160a060020a0390921691909117815560208084015180518594610624937fb10e2d527612073b26eecdfd717e6a320cf44b4afac2b0732d9fcbe2b7fa0cf7909101920190610b62565b5060408201518051610640916002840191602090910190610b62565b50606082015160038201805460ff1916600183600881111561066457610664610fb9565b021790555060808201518051610684916004840191602090910190610b62565b5060a091909101516005909101805460ff1916911515919091179055505050505050565b60083360009081526002602052604090206003015460ff1660088111156106d1576106d1610fb9565b146106f15760405160e560020a62461bcd02815260040161016f90610f18565b600160a060020a038082166000818152600260205260409020549091161461075e5760405160e560020a62461bcd02815260206004820152600a60248201527f5553525f4e545f52454700000000000000000000000000000000000000000000604482015260640161016f565b604080518082018252600881527f496e6163746976650000000000000000000000000000000000000000000000006020808301918252600160a060020a038516600090815260029091529290922090516107be9260049092019190610b62565b50600160a060020a0381166000908152600260205260409020600501805460ff191660019081179091556107f3908290610a4b565b50565b600054600160a060020a031633146103d75760405160e560020a62461bcd02815260040161016f9060208082526004908201527f4f57434300000000000000000000000000000000000000000000000000000000604082015260600190565b6001818154811061086557600080fd5b600091825260209091206006909102018054600182018054600160a060020a0390921693509061089490610f4f565b80601f01602080910402602001604051908101604052809291908181526020018280546108c090610f4f565b801561090d5780601f106108e25761010080835404028352916020019161090d565b820191906000526020600020905b8154815290600101906020018083116108f057829003601f168201915b50505050509080600201805461092290610f4f565b80601f016020809104026020016040519081016040528092919081815260200182805461094e90610f4f565b801561099b5780601f106109705761010080835404028352916020019161099b565b820191906000526020600020905b81548152906001019060200180831161097e57829003601f168201915b5050506003840154600485018054949560ff9092169491935091506109bf90610f4f565b80601f01602080910402602001604051908101604052809291908181526020018280546109eb90610f4f565b8015610a385780601f10610a0d57610100808354040283529160200191610a38565b820191906000526020600020905b815481529060010190602001808311610a1b57829003601f168201915b5050506005909301549192505060ff1686565b6000805b600154811015610aac5783600160a060020a031660018281548110610a7657610a76610fd2565b6000918252602090912060069091020154600160a060020a03161415610a9a578091505b80610aa481610f8d565b915050610a4f565b506040518060400160405280600881526020017f496e61637469766500000000000000000000000000000000000000000000000081525060018281548110610af657610af6610fd2565b90600052602060002090600602016004019080519060200190610b1a929190610b62565b5060018215151415610b5d576001808281548110610b3a57610b3a610fd2565b60009182526020909120600690910201600501805460ff19169115159190911790555b505050565b828054610b6e90610f4f565b90600052602060002090601f016020900481019282610b905760008555610bd6565b82601f10610ba957805160ff1916838001178555610bd6565b82800160010185558215610bd6579182015b82811115610bd6578251825591602001919060010190610bbb565b50610be2929150610c36565b5090565b6040518060c001604052806000600160a060020a03168152602001606081526020016060815260200160006008811115610c2257610c22610fb9565b815260606020820152600060409091015290565b5b80821115610be25760008155600101610c37565b8035600160a060020a0381168114610c6257600080fd5b919050565b600082601f830112610c7857600080fd5b813567ffffffffffffffff80821115610c9357610c93610feb565b604051601f8301601f19908116603f01168101908282118183101715610cbb57610cbb610feb565b81604052838152866020858801011115610cd457600080fd5b836020870160208301376000602085830101528094505050505092915050565b600060208284031215610d0657600080fd5b610d0f82610c4b565b9392505050565b600080600060608486031215610d2b57600080fd5b610d3484610c4b565b9250602084013567ffffffffffffffff80821115610d5157600080fd5b610d5d87838801610c67565b93506040860135915080821115610d7357600080fd5b50610d8086828701610c67565b9150509250925092565b600080600080600060a08688031215610da257600080fd5b610dab86610c4b565b9450602086013567ffffffffffffffff80821115610dc857600080fd5b610dd489838a01610c67565b95506040880135915080821115610dea57600080fd5b610df689838a01610c67565b9450606088013593506080880135915080821115610e1357600080fd5b50610e2088828901610c67565b9150509295509295909350565b600060208284031215610e3f57600080fd5b5035919050565b6000815180845260005b81811015610e6c57602081850181015186830182015201610e50565b81811115610e7e576000602083870101525b50601f01601f19169290920160200192915050565b600160a060020a038716815260c060208201526000610eb560c0830188610e46565b8281036040840152610ec78188610e46565b905060098610610eea5760e060020a634e487b7102600052602160045260246000fd5b8560608401528281036080840152610f028186610e46565b91505082151560a0830152979650505050505050565b60208082526004908201527f4f41434300000000000000000000000000000000000000000000000000000000604082015260600190565b600281046001821680610f6357607f821691505b60208210811415610f875760e060020a634e487b7102600052602260045260246000fd5b50919050565b6000600019821415610fb25760e060020a634e487b7102600052601160045260246000fd5b5060010190565b60e060020a634e487b7102600052602160045260246000fd5b60e060020a634e487b7102600052603260045260246000fd5b60e060020a634e487b7102600052604160045260246000fdfea2646970667358221220e19398ded079dc5a1ab3c506868a460f0bb47756c06345358fa0d6d21f929f0464736f6c63430008060033",
  "immutableReferences": {},
  "source": "// SPDX-License-Identifier: MIT\r\npragma solidity >=0.4.22 <0.9.0;\r\npragma experimental ABIEncoderV2;\r\nimport \"./Owner.sol\";\r\n\r\ncontract User is Owner {\r\n    enum roles {\r\n        norole,\r\n        supplier,\r\n        transporter,\r\n        manufacturer,\r\n        wholesaler,\r\n        distributor,\r\n        pharma,\r\n        revoke,\r\n        admin\r\n    }\r\n\r\n    modifier onlyAdmin {\r\n        require(UsersDetails[msg.sender].userRole == roles.admin, \"OACC\"); //\"Only Admin can call this function.\"\r\n        _;\r\n    }\r\n\r\n    //User struct with members\r\n    struct UserInfo {\r\n        address userAddress;\r\n        string userName;\r\n        string userLocation;\r\n        roles userRole;\r\n        string userStatus;\r\n        bool isDeleted;\r\n    }\r\n\r\n    // UserInfo struct array to hold list of registered user\r\n    UserInfo[] public UserList;\r\n\r\n    //Map user with address\r\n    mapping(address => UserInfo) UsersDetails;\r\n\r\n    // Register Admin by Owner who deployed contract\r\n    // @param _address User Address\r\n    // @param _name User name\r\n    // @param _location User Location\r\n    // @param _role User Role\r\n    function registerAdmin(\r\n        address _address,\r\n        string memory _name,\r\n        string memory _location,\r\n        uint256 _role,\r\n        string memory _userStatus\r\n    ) public onlyOwner {\r\n        require(UsersDetails[_address].userAddress != _address, \"USR_EXIST\");\r\n        //Create & Populate User object with request params\r\n        UserInfo memory newUser;\r\n        newUser.userAddress = _address;\r\n        newUser.userName = _name;\r\n        newUser.userLocation = _location;\r\n        newUser.userRole = roles(_role);\r\n        newUser.userStatus = _userStatus;\r\n        newUser.isDeleted = false;\r\n        UsersDetails[_address] = newUser;\r\n        //push user into array\r\n        UserList.push(newUser);\r\n    }\r\n\r\n    // Register New user by Owner/Admin\r\n    // @param _address User Address\r\n    // @param _name User name\r\n    // @param _location User Location\r\n    // @param _role User Role\r\n    function registerUser(\r\n        address _address,\r\n        string memory _name,\r\n        string memory _location,\r\n        uint256 _role,\r\n        string memory _userStatus\r\n    ) public onlyAdmin {\r\n        require(UsersDetails[_address].userAddress != _address, \"USR_EXIST\");\r\n        //Create & Populate User object with request params\r\n        UserInfo memory newUser;\r\n        newUser.userAddress = _address;\r\n        newUser.userName = _name;\r\n        newUser.userLocation = _location;\r\n        newUser.userRole = roles(_role);\r\n        newUser.userStatus = _userStatus;\r\n        newUser.isDeleted = false;\r\n        UsersDetails[_address] = newUser;\r\n        //push user into array\r\n        UserList.push(newUser);\r\n    }\r\n\r\n    // Update user by Owner/Admin\r\n    // @param _address User Address\r\n    // @param _name User name\r\n    // @param _location User Location\r\n    // @param _role User Role\r\n    function updateUser(\r\n        address _address,\r\n        string memory _location,\r\n        string memory _userStatus\r\n    ) public onlyAdmin {\r\n        require(UsersDetails[_address].userAddress == _address, \"USR_NT_REG\"); //User not registered\r\n        require(UsersDetails[_address].isDeleted == false, \"USR_DELETED\"); //User was deleted\r\n        //Update User object with request params\r\n        UsersDetails[_address].userLocation = _location;\r\n        UsersDetails[_address].userStatus = _userStatus;\r\n        uint256 userToUpdateIndex;\r\n        for (uint256 i = 0; i < UserList.length; i++) {\r\n            if (UserList[i].userAddress == _address) {\r\n                userToUpdateIndex = i;\r\n            }\r\n        }\r\n        UserList[userToUpdateIndex].userLocation = _location;\r\n        UserList[userToUpdateIndex].userStatus = _userStatus;\r\n    }\r\n\r\n    function deleteUser(address _address) public onlyAdmin {\r\n        require(UsersDetails[_address].userAddress == _address, \"USR_NT_REG\"); //User not registered\r\n        //soft delete user from blockchain\r\n        UsersDetails[_address].userStatus = \"Inactive\";\r\n        UsersDetails[_address].isDeleted = true;\r\n        findAndDeactivateUser(_address, true);\r\n    }\r\n\r\n    //Function to find user and delete based on address\r\n    // Visibility - Public and payable\r\n    function findAndDeactivateUser(address _address, bool _isDeleted) private {\r\n        uint256 userToDeleteIndex;\r\n        //Find the index of user to be deleted\r\n        for (uint256 i = 0; i < UserList.length; i++) {\r\n            if (UserList[i].userAddress == _address) {\r\n                userToDeleteIndex = i;\r\n            }\r\n        }\r\n        UserList[userToDeleteIndex].userStatus = \"Inactive\";\r\n        if (_isDeleted == true) {\r\n            UserList[userToDeleteIndex].isDeleted = true;\r\n        }\r\n    }\r\n}\r\n",
  "sourcePath": "C:\\Development\\Blockchain\\Learning-2\\contracts\\User.sol",
  "compiler": {
    "name": "solc",
    "version": "0.8.6+commit.11564f7e.Emscripten.clang"
  },
  "schemaVersion": "3.4.1",
  "updatedAt": "2021-07-30T15:10:34.551Z",
  "devdoc": {
    "kind": "dev",
    "methods": {},
    "version": 1
  },
  "userdoc": {
    "kind": "user",
    "methods": {},
    "version": 1
  }
}