{
  "contractName": "User",
  "abi": [
    {
      "inputs": [
        {
          "internalType": "uint256",
          "name": "",
          "type": "uint256"
        }
      ],
      "name": "UserList",
      "outputs": [
        {
          "internalType": "address",
          "name": "userAddress",
          "type": "address"
        },
        {
          "internalType": "string",
          "name": "userName",
          "type": "string"
        },
        {
          "internalType": "string",
          "name": "userLocation",
          "type": "string"
        },
        {
          "internalType": "enum User.roles",
          "name": "userRole",
          "type": "uint8"
        },
        {
          "internalType": "string",
          "name": "userStatus",
          "type": "string"
        },
        {
          "internalType": "bool",
          "name": "isDeleted",
          "type": "bool"
        },
        {
          "internalType": "uint256",
          "name": "registrationDate",
          "type": "uint256"
        }
      ],
      "stateMutability": "view",
      "type": "function"
    },
    {
      "inputs": [],
      "name": "owner",
      "outputs": [
        {
          "internalType": "address",
          "name": "",
          "type": "address"
        }
      ],
      "stateMutability": "view",
      "type": "function"
    },
    {
      "inputs": [
        {
          "internalType": "address",
          "name": "_address",
          "type": "address"
        },
        {
          "internalType": "string",
          "name": "_name",
          "type": "string"
        },
        {
          "internalType": "string",
          "name": "_location",
          "type": "string"
        },
        {
          "internalType": "uint256",
          "name": "_role",
          "type": "uint256"
        },
        {
          "internalType": "string",
          "name": "_userStatus",
          "type": "string"
        }
      ],
      "name": "registerAdmin",
      "outputs": [],
      "stateMutability": "nonpayable",
      "type": "function"
    },
    {
      "inputs": [
        {
          "internalType": "address",
          "name": "_address",
          "type": "address"
        },
        {
          "internalType": "string",
          "name": "_name",
          "type": "string"
        },
        {
          "internalType": "string",
          "name": "_location",
          "type": "string"
        },
        {
          "internalType": "uint256",
          "name": "_role",
          "type": "uint256"
        },
        {
          "internalType": "string",
          "name": "_userStatus",
          "type": "string"
        }
      ],
      "name": "registerUser",
      "outputs": [],
      "stateMutability": "nonpayable",
      "type": "function"
    },
    {
      "inputs": [
        {
          "internalType": "address",
          "name": "_address",
          "type": "address"
        },
        {
          "internalType": "string",
          "name": "_location",
          "type": "string"
        },
        {
          "internalType": "string",
          "name": "_userStatus",
          "type": "string"
        }
      ],
      "name": "updateUser",
      "outputs": [],
      "stateMutability": "nonpayable",
      "type": "function"
    },
    {
      "inputs": [
        {
          "internalType": "address",
          "name": "_address",
          "type": "address"
        }
      ],
      "name": "deleteUser",
      "outputs": [],
      "stateMutability": "nonpayable",
      "type": "function"
    }
  ],
  "bytecode": "0x608060405234801561001057600080fd5b5060008054600160a060020a03191633179055611061806100326000396000f3fe608060405234801561001057600080fd5b506004361061007e577c0100000000000000000000000000000000000000000000000000000000600035046310e8b22d81146100835780633bb3ec9e146100985780635c60f226146100ab5780638da5cb5b146100be578063a00453c0146100ee578063babe165514610101575b600080fd5b610096610091366004610d3c565b610127565b005b6100966100a6366004610db0565b61038f565b6100966100b9366004610d1a565b6106c1565b6000546100d190600160a060020a031681565b604051600160a060020a0390911681526020015b60405180910390f35b6100966100fc366004610db0565b61080f565b61011461010f366004610e53565b61086e565b6040516100e59796959493929190610eb9565b60083360009081526002602052604090206003015460ff16600881111561015057610150610fe0565b146101795760405160e560020a62461bcd02815260040161017090610f3f565b60405180910390fd5b600160a060020a03808416600081815260026020526040902054909116146101e65760405160e560020a62461bcd02815260206004820152600a60248201527f5553525f4e545f524547000000000000000000000000000000000000000000006044820152606401610170565b600160a060020a03831660009081526002602052604090206005015460ff16156102555760405160e560020a62461bcd02815260206004820152600b60248201527f5553525f44454c455445440000000000000000000000000000000000000000006044820152606401610170565b600160a060020a0383166000908152600260208181526040909220845161028493919092019190850190610b82565b50600160a060020a038316600090815260026020908152604090912082516102b492600490920191840190610b82565b506000805b6001548110156103165784600160a060020a0316600182815481106102e0576102e0610ff9565b6000918252602090912060079091020154600160a060020a03161415610304578091505b8061030e81610fb4565b9150506102b9565b50826001828154811061032b5761032b610ff9565b9060005260206000209060070201600201908051906020019061034f929190610b82565b50816001828154811061036457610364610ff9565b90600052602060002090600702016004019080519060200190610388929190610b82565b5050505050565b60083360009081526002602052604090206003015460ff1660088111156103b8576103b8610fe0565b146103d85760405160e560020a62461bcd02815260040161017090610f3f565b600160a060020a0380861660008181526002602052604090205490911614156104465760405160e560020a62461bcd02815260206004820152600960248201527f5553525f455849535400000000000000000000000000000000000000000000006044820152606401610170565b61044e610c06565b600160a060020a0386168152602081018590526040810184905282600881111561047a5761047a610fe0565b8160600190600881111561049057610490610fe0565b908160088111156104a3576104a3610fe0565b90525060808101829052600060a082018190524260c0830152600160a060020a0387811682526002602090815260409092208351815473ffffffffffffffffffffffffffffffffffffffff191692169190911781558183015180518493610511926001850192910190610b82565b506040820151805161052d916002840191602090910190610b82565b50606082015160038201805460ff1916600183600881111561055157610551610fe0565b021790555060808201518051610571916004840191602090910190610b82565b5060a082015160058201805460ff191691151591909117905560c09091015160069091015560018054808201825560009190915281517fb10e2d527612073b26eecdfd717e6a320cf44b4afac2b0732d9fcbe2b7fa0cf66007909202918201805473ffffffffffffffffffffffffffffffffffffffff1916600160a060020a0390921691909117815560208084015180518594610634937fb10e2d527612073b26eecdfd717e6a320cf44b4afac2b0732d9fcbe2b7fa0cf7909101920190610b82565b5060408201518051610650916002840191602090910190610b82565b50606082015160038201805460ff1916600183600881111561067457610674610fe0565b021790555060808201518051610694916004840191602090910190610b82565b5060a082015160058201805460ff191691151591909117905560c090910151600690910155505050505050565b60083360009081526002602052604090206003015460ff1660088111156106ea576106ea610fe0565b1461070a5760405160e560020a62461bcd02815260040161017090610f3f565b600160a060020a03808216600081815260026020526040902054909116146107775760405160e560020a62461bcd02815260206004820152600a60248201527f5553525f4e545f524547000000000000000000000000000000000000000000006044820152606401610170565b604080518082018252600881527f496e6163746976650000000000000000000000000000000000000000000000006020808301918252600160a060020a038516600090815260029091529290922090516107d79260049092019190610b82565b50600160a060020a0381166000908152600260205260409020600501805460ff1916600190811790915561080c908290610a6b565b50565b600054600160a060020a031633146103d85760405160e560020a62461bcd0281526004016101709060208082526004908201527f4f57434300000000000000000000000000000000000000000000000000000000604082015260600190565b6001818154811061087e57600080fd5b600091825260209091206007909102018054600182018054600160a060020a039092169350906108ad90610f76565b80601f01602080910402602001604051908101604052809291908181526020018280546108d990610f76565b80156109265780601f106108fb57610100808354040283529160200191610926565b820191906000526020600020905b81548152906001019060200180831161090957829003601f168201915b50505050509080600201805461093b90610f76565b80601f016020809104026020016040519081016040528092919081815260200182805461096790610f76565b80156109b45780601f10610989576101008083540402835291602001916109b4565b820191906000526020600020905b81548152906001019060200180831161099757829003601f168201915b5050506003840154600485018054949560ff9092169491935091506109d890610f76565b80601f0160208091040260200160405190810160405280929190818152602001828054610a0490610f76565b8015610a515780601f10610a2657610100808354040283529160200191610a51565b820191906000526020600020905b815481529060010190602001808311610a3457829003601f168201915b505050506005830154600690930154919260ff1691905087565b6000805b600154811015610acc5783600160a060020a031660018281548110610a9657610a96610ff9565b6000918252602090912060079091020154600160a060020a03161415610aba578091505b80610ac481610fb4565b915050610a6f565b506040518060400160405280600881526020017f496e61637469766500000000000000000000000000000000000000000000000081525060018281548110610b1657610b16610ff9565b90600052602060002090600702016004019080519060200190610b3a929190610b82565b5060018215151415610b7d576001808281548110610b5a57610b5a610ff9565b60009182526020909120600790910201600501805460ff19169115159190911790555b505050565b828054610b8e90610f76565b90600052602060002090601f016020900481019282610bb05760008555610bf6565b82601f10610bc957805160ff1916838001178555610bf6565b82800160010185558215610bf6579182015b82811115610bf6578251825591602001919060010190610bdb565b50610c02929150610c5c565b5090565b6040518060e001604052806000600160a060020a03168152602001606081526020016060815260200160006008811115610c4257610c42610fe0565b815260606020820181905260006040830181905291015290565b5b80821115610c025760008155600101610c5d565b8035600160a060020a0381168114610c8857600080fd5b919050565b600082601f830112610c9e57600080fd5b813567ffffffffffffffff80821115610cb957610cb9611012565b604051601f8301601f19908116603f01168101908282118183101715610ce157610ce1611012565b81604052838152866020858801011115610cfa57600080fd5b836020870160208301376000602085830101528094505050505092915050565b600060208284031215610d2c57600080fd5b610d3582610c71565b9392505050565b600080600060608486031215610d5157600080fd5b610d5a84610c71565b9250602084013567ffffffffffffffff80821115610d7757600080fd5b610d8387838801610c8d565b93506040860135915080821115610d9957600080fd5b50610da686828701610c8d565b9150509250925092565b600080600080600060a08688031215610dc857600080fd5b610dd186610c71565b9450602086013567ffffffffffffffff80821115610dee57600080fd5b610dfa89838a01610c8d565b95506040880135915080821115610e1057600080fd5b610e1c89838a01610c8d565b9450606088013593506080880135915080821115610e3957600080fd5b50610e4688828901610c8d565b9150509295509295909350565b600060208284031215610e6557600080fd5b5035919050565b6000815180845260005b81811015610e9257602081850181015186830182015201610e76565b81811115610ea4576000602083870101525b50601f01601f19169290920160200192915050565b600160a060020a038816815260e060208201526000610edb60e0830189610e6c565b8281036040840152610eed8189610e6c565b905060098710610f105760e060020a634e487b7102600052602160045260246000fd5b8660608401528281036080840152610f288187610e6c565b94151560a0840152505060c0015295945050505050565b60208082526004908201527f4f41434300000000000000000000000000000000000000000000000000000000604082015260600190565b600281046001821680610f8a57607f821691505b60208210811415610fae5760e060020a634e487b7102600052602260045260246000fd5b50919050565b6000600019821415610fd95760e060020a634e487b7102600052601160045260246000fd5b5060010190565b60e060020a634e487b7102600052602160045260246000fd5b60e060020a634e487b7102600052603260045260246000fd5b60e060020a634e487b7102600052604160045260246000fdfea264697066735822122014ebc887747953aa1d7e219ef47659a5e67d2785f6a30f7b8db87c548b370fd664736f6c63430008060033",
  "immutableReferences": {},
  "source": "// SPDX-License-Identifier: MIT\r\npragma solidity >=0.4.22 <0.9.0;\r\npragma experimental ABIEncoderV2;\r\nimport \"./Owner.sol\";\r\n\r\ncontract User is Owner {\r\n    enum roles {\r\n        norole,\r\n        supplier,\r\n        transporter,\r\n        manufacturer,\r\n        wholesaler,\r\n        distributor,\r\n        pharma,\r\n        revoke,\r\n        admin\r\n    }\r\n\r\n    modifier onlyAdmin {\r\n        require(UsersDetails[msg.sender].userRole == roles.admin, \"OACC\"); //\"Only Admin can call this function.\"\r\n        _;\r\n    }\r\n\r\n    //User struct with members\r\n    struct UserInfo {\r\n        address userAddress;\r\n        string userName;\r\n        string userLocation;\r\n        roles userRole;\r\n        string userStatus;\r\n        bool isDeleted;\r\n        uint256 registrationDate;\r\n    }\r\n\r\n    // UserInfo struct array to hold list of registered user\r\n    UserInfo[] public UserList;\r\n\r\n    //Map user with address\r\n    mapping(address => UserInfo) UsersDetails;\r\n\r\n    // Register Admin by Owner who deployed contract\r\n    // @param _address User Address\r\n    // @param _name User name\r\n    // @param _location User Location\r\n    // @param _role User Role\r\n    function registerAdmin(\r\n        address _address,\r\n        string memory _name,\r\n        string memory _location,\r\n        uint256 _role,\r\n        string memory _userStatus\r\n    ) public onlyOwner {\r\n        require(UsersDetails[_address].userAddress != _address, \"USR_EXIST\");\r\n        //Create & Populate User object with request params\r\n        UserInfo memory newUser;\r\n        newUser.userAddress = _address;\r\n        newUser.userName = _name;\r\n        newUser.userLocation = _location;\r\n        newUser.userRole = roles(_role);\r\n        newUser.userStatus = _userStatus;\r\n        newUser.isDeleted = false;\r\n        newUser.registrationDate = block.timestamp;\r\n        UsersDetails[_address] = newUser;\r\n        //push user into array\r\n        UserList.push(newUser);\r\n    }\r\n\r\n    // Register New user by Owner/Admin\r\n    // @param _address User Address\r\n    // @param _name User name\r\n    // @param _location User Location\r\n    // @param _role User Role\r\n    function registerUser(\r\n        address _address,\r\n        string memory _name,\r\n        string memory _location,\r\n        uint256 _role,\r\n        string memory _userStatus\r\n    ) public onlyAdmin {\r\n        require(UsersDetails[_address].userAddress != _address, \"USR_EXIST\");\r\n        //Create & Populate User object with request params\r\n        UserInfo memory newUser;\r\n        newUser.userAddress = _address;\r\n        newUser.userName = _name;\r\n        newUser.userLocation = _location;\r\n        newUser.userRole = roles(_role);\r\n        newUser.userStatus = _userStatus;\r\n        newUser.isDeleted = false;\r\n        newUser.registrationDate = block.timestamp;\r\n        UsersDetails[_address] = newUser;\r\n        //push user into array\r\n        UserList.push(newUser);\r\n    }\r\n\r\n    // Update user by Owner/Admin\r\n    // @param _address User Address\r\n    // @param _name User name\r\n    // @param _location User Location\r\n    // @param _role User Role\r\n    function updateUser(\r\n        address _address,\r\n        string memory _location,\r\n        string memory _userStatus\r\n    ) public onlyAdmin {\r\n        require(UsersDetails[_address].userAddress == _address, \"USR_NT_REG\"); //User not registered\r\n        require(UsersDetails[_address].isDeleted == false, \"USR_DELETED\"); //User was deleted\r\n        //Update User object with request params\r\n        UsersDetails[_address].userLocation = _location;\r\n        UsersDetails[_address].userStatus = _userStatus;\r\n        uint256 userToUpdateIndex;\r\n        for (uint256 i = 0; i < UserList.length; i++) {\r\n            if (UserList[i].userAddress == _address) {\r\n                userToUpdateIndex = i;\r\n            }\r\n        }\r\n        UserList[userToUpdateIndex].userLocation = _location;\r\n        UserList[userToUpdateIndex].userStatus = _userStatus;\r\n    }\r\n\r\n    function deleteUser(address _address) public onlyAdmin {\r\n        require(UsersDetails[_address].userAddress == _address, \"USR_NT_REG\"); //User not registered\r\n        //soft delete user from blockchain\r\n        UsersDetails[_address].userStatus = \"Inactive\";\r\n        UsersDetails[_address].isDeleted = true;\r\n        findAndDeactivateUser(_address, true);\r\n    }\r\n\r\n    //Function to find user and delete based on address\r\n    // Visibility - Public and payable\r\n    function findAndDeactivateUser(address _address, bool _isDeleted) private {\r\n        uint256 userToDeleteIndex;\r\n        //Find the index of user to be deleted\r\n        for (uint256 i = 0; i < UserList.length; i++) {\r\n            if (UserList[i].userAddress == _address) {\r\n                userToDeleteIndex = i;\r\n            }\r\n        }\r\n        UserList[userToDeleteIndex].userStatus = \"Inactive\";\r\n        if (_isDeleted == true) {\r\n            UserList[userToDeleteIndex].isDeleted = true;\r\n        }\r\n    }\r\n}\r\n",
  "sourcePath": "C:\\Development\\Blockchain\\Learning-2\\contracts\\User.sol",
  "compiler": {
    "name": "solc",
    "version": "0.8.6+commit.11564f7e.Emscripten.clang"
  },
  "schemaVersion": "3.4.1",
  "updatedAt": "2021-08-05T10:21:15.184Z",
  "devdoc": {
    "kind": "dev",
    "methods": {},
    "version": 1
  },
  "userdoc": {
    "kind": "user",
    "methods": {},
    "version": 1
  }
}